:020000040800F2
:1000000000800120E50B0008ED010008EF01000869
:10001000F1010008F3010008F501000800000000EC
:10002000000000000000000000000000F7010008D0
:10003000F901000800000000FB010008FD010008B4
:10004000350C0008350C0008350C0008350C00088C
:10005000350C0008350C0008350C0008350C00087C
:10006000350C0008350C0008350C0008350C00086C
:10007000350C0008350C0008350C0008350C00085C
:10008000350C0008350C0008350C0008350C00084C
:1000900075070008C5070008350C0008350C000876
:1000A000350C0008350C0008350C0008350C00082C
:1000B000350C0008350C0008350C0008350C00081C
:1000C000350C0008350C0008350C0008350C00080C
:1000D000350C0008350C0008350C0008350C0008FC
:1000E000350C0008350C0008350C0008350C0008EC
:1000F000350C0008350C0008350C0008350C0008DC
:10010000350C0008350C0008350C0008350C0008CB
:10011000350C0008350C0008350C0008350C0008BB
:10012000350C0008350C0008350C0008350C0008AB
:10013000350C0008350C0008350C0008350C00089B
:10014000350C0008350C0008350C0008350C00088B
:10015000350C0008350C0008350C0008350C00087B
:10016000350C0008350C0008350C0008350C00086B
:10017000350C0008350C0008350C000800000000A4
:08018000350C0008350C0008E5
:1001880010B5054C237833B9044B13B10448AFF3C9
:1001980000800123237010BD04000020000000002F
:1001A8002443000808B5034B1BB103490348AFF3C8
:1001B800008008BD0000000008000020244300085B
:1001C800034613F8012B002AFBD1181A013870478F
:1001D800034AD2F8883043F47003C2F88830704775
:1001E80000ED00E0FEE7FEE7FEE7FEE7FEE770470A
:1001F80070477047024A136801331360704700BFA5
:100208002000002010B504464FF47A72012100F056
:1002180073FD012801D1207810BD0020FCE7000003
:1002280008B50209064B33F8122000F00F00054B01
:1002380033F81000B2FBF0F000F012FD08BD00BF6B
:1002480060430008404300082DE9F04F85B006469A
:100258000F4692460A46002104F058F81120FFF78D
:10026800DFFF002000F0E8FC052000F0E0FC00F0D3
:100278000FFD012000F0E0FC4FF47A7202213046B5
:1002880000F03AFD022840F0DA80747833783B2B8E
:1002980003D03F2B01D00020D2E0B51C4FF000085E
:1002A8008DF80C808DF80D80C1461BE005F1010B1F
:1002B8002846FFF7A7FFB9F1010F01D95D461DE0F8
:1002C80009F110036B4403F8040C5D4616E005F1D0
:1002D800010B2846FFF796FF5D4612E063B2002443
:1002E800A34218DB14F0F00F26D0AB1BBB4223D27D
:1002F800B9F1030F20D814F0100FD7D114F0200F44
:10030800E5D114F0400FE9D005F1010B2846FFF7BD
:1003180079FF5D46E2E705F1010B2846FFF772FF1A
:10032800044609F101095FFA89F910F00F0F01D0AD
:100338004FF001085D46D5E7717811F00F0144D1FF
:10034800B8F1000F48D19DF80D300BB1802B7AD150
:10035800002B4FD19DF80C30112B00D013B9BAF1F6
:10036800000F4BD0BAF1000F01D08DF80CA0BAF1F4
:10037800000F02D01AF4807F4ED1052000F057FC00
:10038800FF238DF8083010238DF809309DF80C30C4
:100398008DF80A3083F0EF038DF80B30042102A8A2
:1003A80000F0ECFC4FF47A72022101A800F0A4FCE2
:1003B80002284AD19DF80430FF2B48D19DF805301A
:1003C800F3B1102B2DD000203AE04FF47A72284672
:1003D80000F092FC0544B3E76C1C2846FFF712FFB7
:1003E80003E008F101085FFA88F8A31B9845F8D3E1
:1003F8002546A8E79DF80C00FFF712FFA81B1FE091
:100408004FF47A7201210DF1060000F075FC012805
:100418001FD111238DF80C309DF80C00FFF700FF59
:10042800ECE74FF47A7202210DF1060000F064FC4B
:10043800022810D19DF806308DF80C30ECE700202A
:1004480005B0BDE8F08F0020FAE70020F8E70020AB
:10045800F6E70020F4E70020F2E708B5012000F0F5
:10046800F5FB012000F0E8FB08BD70B504460D4619
:100478001646012000F0EAFB012000F0DDFB052014
:1004880000F0D5FB002000F0D7FB052000F0CFFBE3
:10049800002000F0DBFB052000F0C9FB32462946AE
:1004A8002046FFF7D1FE70BD2DE9F04182B0042946
:1004B8004ED905464C1F02D00379A3424AD195F87C
:1004C80001800521284600F059FC002637464FF4E4
:1004D8007A7201210DF1070000F00EFC01283BD1D2
:1004E8004EB1002EF3D07C1C9DF80730EB5520460A
:1004F80002B0BDE8F0819DF8073003F0F002602AF1
:1005080011D0902A0FD0434518D194B92F790FB93B
:100518004FF480774FF47A723946284600F0ECFBA6
:10052800B842E4D1D3E7602BD1D0EB55013701268F
:10053800CDE72979681D00F021FCC8E74FF47A72ED
:100548000121E81900F0D8FB012807D10137BEE7DF
:100558000024CCE70024CAE70024C8E70024C6E743
:1005680070B483B005463A48C06810F0030F0BD149
:100578003748006910F0030001D0012405E0002984
:1005880054D000230B6051E00024A1B104F11B00FA
:1005980000012F4E305810F0040F32D01D20086093
:1005A8004DB104F11B010901294E7158C0F1200019
:1005B80021FA00F0286004F11B01090101F18041D2
:1005C80001F5C841496801F00F01994209D804F1C1
:1005D8001B031B0103F1804303F5C8435B6803F069
:1005E8000F0332B3002100910191200100F18040F6
:1005F80000F5C840D0F8B8510095D0F8BC0101907A
:100608000FE00B20CBE721F003000830684450F8D6
:10061800080C01F0030C4FEACC0C20FA0CF05054F3
:1006280001319942EFD318462CB154B903B070BCCC
:1006380070470020F8E7064AD36843F02003D360E8
:10064800F4E7034A136943F020031361EEE700BFA0
:100658000064004030B583B03C4CA46814F0E05FFF
:1006680018D13A4CA46914F0FF0F0ED0374DAC687E
:1006780044F0801444F40044AC60344CA46804F0A2
:10068800803424F00044002CF7D1304CA46814F0D6
:10069800E05F51D02D4CA568C5F30165032D4ED000
:1006A8000B2904D01D2916D06FF0020042E0400546
:1006B80005F118010901254C6050082B42D805F1B5
:1006C8001801090101F1804101F5C8414B60002181
:1006D800009101911CE0C00040F0040005F11801F0
:1006E80009011A4C6050E8E7545C01F0030E4FEA28
:1006F800CE0E04FA0EFE21F0030C0CF108000DEBEF
:10070800000C5CF8084C44EA0E044CF8084C013123
:100718009942E9D30D4A02EB05110098C1F8880106
:100728000198C1F88C0118352D01515941F001018A
:100738005151184603B030BD4FF0FF30FAE76FF063
:100748000100F7E76FF00300F4E700BF0064004022
:1007580008B50021034B19604FF4A052024803F07A
:10076800D5FD08BD241400202400002070B5114BCD
:100778001C68FF2C16D8621C0E4B1A60A60004EBEE
:100788008402920008320C4D04EB840005EB8000D3
:1007980008232A44011DFFF7E3FE344405EB8405D2
:1007A800286170BD00231A4619461846FFF7D8FE7F
:1007B800F7E700BF241400202400002008B5FFF745
:1007C800D5FF08BD024B186808B1024B186970477D
:1007D800241400202400002038B584461046124A0C
:1007E80014681CB900230B60204638BD0F4D2A68D9
:1007F800CCF800206A680A602C699C4228BF1C4615
:10080800224605F1080103F067FD72B6064B1A6827
:10081800013A1A6002EB8202920005F1140128469F
:1008280003F05AFD62B6DFE72414002024000020FC
:1008380010B582B0CF4B9A6D42F000729A659B6DED
:1008480003F000730193019BC822CB4B03E0002205
:1008580043F8042B624602F1FF3C002AF7D1C64A4E
:10086800136843F001031360C34B5B6813F0010F77
:10087800FAD0C24B984200F07881C14B984200F000
:100888007081BD4BBF4ADA61BB4A136843F020034D
:100898001360002900F07E81136823F010031360B1
:1008A800B54C236843F008032360D4F8003243F0C2
:1008B8000103C4F80032D4F81C3223F00103C4F851
:1008C8001C32D4F8043223F00103C4F80432D4F8FB
:1008D8000C3223F00103C4F80C32D4F8143223F09C
:1008E8000103C4F814320023C4F84032C4F8443277
:1008F800D4F81C2242F00102C4F81C22D4F81C22AD
:1009080022F00202C4F81C22D4F8042222F00202C7
:10091800C4F80422D4F80C2242F00202C4F80C22D3
:10092800D4F8142222F00202C4F81422C4F848327F
:10093800C4F84C32D4F81C3243F00203C4F81C3219
:10094800FFF706FF636943F012036361D4F80032CE
:1009580023F00103C4F800324FF090431A684FF4B3
:10096800006393FAA3F3002B00F01A81B3FA83F320
:100978005B00032101FA03F322EA03024FF4006348
:1009880093FAA3F3002B00F00D81B3FA83F35B0015
:10099800022101FA03F313434FF090421360526AA5
:1009A800082393FAA3F3002B00F0FE80B3FA83F335
:1009B8009B000F2101FA03F322EA0302082393FAAA
:1009C800A3F3002B00F0F280B3FA83F39B00092114
:1009D80001FA03F313434FF09042536292684FF4C5
:1009E800006393FAA3F3002B00F0E280B3FA83F3D9
:1009F8005B00032101FA03F322EA03024FF40063C8
:100A080093FAA3F3002B00F0D580B3FA83F35B00CD
:100A1800022101FA03F313434FF0904293605368A5
:100A280023F400635360D2684FF4006393FAA3F38E
:100A3800002B00F0C180B3FA83F35B00032101FAB5
:100A480003F322EA03034FF4006292FAA2F24FF092
:100A58009042D36012684FF4805393FAA3F3002BAB
:100A680000F0AC80B3FA83F35B00032101FA03F3CF
:100A780022EA03024FF4805393FAA3F3002B00F009
:100A88009F80B3FA83F35B00022101FA03F3134357
:100A98004FF090421360526A102393FAA3F3002B8D
:100AA80000F09080B3FA83F39B000F2101FA03F35F
:100AB80022EA0302102393FAA3F3002B00F08480A8
:100AC800B3FA83F39B00092101FA03F313434FF0B0
:100AD8009042536292684FF4805393FAA3F3002B29
:100AE80074D0B3FA83F35B00032101FA03F322EA1B
:100AF80003024FF4805393FAA3F3002B68D0B3FAA0
:100B080083F35B00022101FA03F313434FF0904291
:100B18009360536823F480535360D2684FF4805332
:100B280093FAA3F3002B55D0B3FA83F35B000321A8
:100B380001FA03F322EA03034FF4805292FAA2F275
:100B48004FF09042D360104B4FF480121A604FF46C
:100B580000121A60084A136823F00103136002B0F8
:100B680010BD054B094ADA618EE6034B084ADA6183
:100B78008AE600BF0010024000640040A086010021
:100B880040420F0009001C0000E100E004001C00C6
:100B980031001C00104A136843F0100313607FE60D
:100BA8002023E5E62023F2E6202301E720230DE7B2
:100BB80020231DE720232AE720233EE7202353E7AD
:100BC800202360E720236FE720237BE720238AE7A1
:100BD800202396E72023A9E700640040DFF834D0FB
:100BE800FFF7F6FA0C480D490D4A002302E0D458E5
:100BF800C4500433C4188C42F9D30A4A0A4C00235F
:100C080001E013600432A242FBD303F031FB02F08F
:100C1800FFFAFEE700800120000000200400002009
:100C28005048000804000020CC210020FEE708B549
:100C380003F050F808BD000018B18022024B9A61F9
:100C480070474FF40002F9E70008004818B1402245
:100C5800024B9A6170474FF48002F9E7000400489C
:100C68000A4A136823F0010313604000138A9BB2F9
:100C78005B0003F4FF7303FB00F020F00800D06072
:100C8800136843F001031360704700BF0038014048
:100C98000B4BDB6913F4803FFAD10A4A936D23F0BA
:100CA80001039365D36D1B0C1B0443F48273D36556
:100CB800054B00211960936D43F00103936570475C
:100CC80000380140000002402C150020074BDA6D67
:100CD800074B18680244C2F50272064BA3FB0213C5
:100CE8001B0A03EB83139800101A70470000024098
:100CF8002C150020FDC00FFCF8B506460D4614461D
:100D08001A4B1F681744FFF7E1FFA84209D2002CCD
:100D1800F9D0164B1B68DB1B002BF4DB002528469B
:100D2800F8BD2F46002FFAD0114B1B68C3F582740B
:100D3800BC4228BF3C4636B122460E4919443046CB
:100D480003F0CAFA26443F1B094B1A6814441C6076
:100D5800B4F5827FE6D3084BA3FB04231B0A03EBFD
:100D68008313A4EB8304024B1C60DBE72000002004
:100D78002C15002028140020FDC00FFC70B5044677
:100D88000E46002934D01B4BDB6913F4803FFAD19F
:100D98000FE0184BDA69184B1340802BF9D1FFF795
:100DA80095FFA84220D3294600221046FFF7A4FF4A
:100DB800761BEEB13546B6F5827F28BF4FF48275B3
:100DC8002A461346013A002BE3D00A4B4FF0FF3175
:100DD8001962204610F8011B1985064BDB6913F0D0
:100DE800400FFAD00446ECE7FFF770FF0146DBE757
:100DF80070BD00BF003801408000010010B483B00E
:100E0800D24B9A6C42F001029A649B6C03F0010386
:100E18000193019BCE4A936D23F4FF4323F07003A3
:100E280043F4025343F020039365CA4CCA49936DB7
:100E380023F47F5323F02F035B045B0C102B00F08B
:100E48003582C34B1C665966C14AD36D1B0C1B0403
:100E580043F48273D365D2F8A82022F470224FF4A9
:100E6800702393FAA3F3002B00F02382B3FA83F3E1
:100E7800022101FA03F31343B54AC2F8A830936D6F
:100E880043F001039365A2F54842136823F0010378
:100E980013604FF090431A684FF4807393FAA3F3EA
:100EA800002B00F00882B3FA83F35B00032101FAF8
:100EB80003F322EA03024FF4807393FAA3F3002B9F
:100EC80000F0FB81B3FA83F35B00022101FA03F31C
:100ED80013434FF090421360526A012393FAA3F32D
:100EE800002B00F0EC81B3FA83F39B000F2101FA89
:100EF80003F322EA0302012393FAA3F3002B00F081
:100F0800E081B3FA83F39B00072101FA03F313434B
:100F18004FF09042536292684FF4807393FAA3F3B0
:100F2800002B00F0D081B3FA83F35B00032101FAB0
:100F380003F322EA03024FF4807393FAA3F3002B1E
:100F480000F0C381B3FA83F35B00022101FA03F3D3
:100F580013434FF090429360536823F480735360B7
:100F6800D2684FF4807393FAA3F3002B00F0AF819B
:100F7800B3FA83F35B00032101FA03F322EA0302C5
:100F88004FF4807393FAA3F3002B00F0A281B3FA15
:100F980083F35B00012101FA03F313434FF09042FE
:100FA800D36011684FF4007393FAA3F3002B00F099
:100FB8009281B3FA83F35B00032202FA03F321EA76
:100FC80003014FF4007393FAA3F3002B00F085811B
:100FD800B3FA83F35B00022202FA03F30B434FF0E8
:100FE80090410B604B6A92FAA2F2002A00F07781D6
:100FF800B2FA82F292000F2101FA02F223EA020207
:10100800022393FAA3F3002B00F06B81B3FA83F366
:101018009B00072101FA03F313434FF090425362F8
:1010280092684FF4007393FAA3F3002B00F05B81EE
:10103800B3FA83F35B00032101FA03F322EA030204
:101048004FF4007393FAA3F3002B00F04E81B3FA28
:1010580083F35B00022101FA03F313434FF090423C
:101068009360536823F400735360D2684FF400739D
:1010780093FAA3F3002B00F03A81B3FA83F35B00F1
:10108800032101FA03F322EA03024FF4007393FAEF
:10109800A3F3002B00F02D81B3FA83F35B00012149
:1010A80001FA03F313434FF09042D36002F58062D4
:1010B80040239361126893FAA3F3002B00F01B817D
:1010C800B3FA83F35B00032101FA03F322EA030373
:1010D800402292FAA2F2002A00F00F81B2FA82F2BC
:1010E8005200012101FA02F21A431C4B1A609A6855
:1010F800402393FAA3F3002B00F00181B3FA83F3A2
:101108005B00032101FA03F322EA0302402393FA66
:10111800A3F3002B00F0F580B3FA83F35B00022100
:1011280001FA03F313430D4A9360536823F0400315
:10113800536002F5806280239361126893FAA3F3E7
:10114800002B00F0E080B3FA83F309E000100240BE
:101158000000024024380140281400200004004800
:101168005B00032101FA03F322EA0303802292FAC7
:10117800A2F2002A00F0C980B2FA82F252000121DC
:1011880001FA02F21A43644B1A609A68802393FAB0
:10119800A3F3002B00F0BB80B3FA83F35B000321B9
:1011A80001FA03F322EA0302802393FAA3F3002B44
:1011B80000F0AF80B3FA83F35B00022101FA03F376
:1011C8001343554A9360536823F080035360534B8D
:1011D8001A6E42F480421A661A6E02F48042009235
:1011E800009AD3F8882022F0030242F00102C3F8E3
:1011F80088204B4A52E8003F43F00C0342E8003194
:101208000029F6D11346126822F0805222F4B05217
:1012180042F4A0521A605A6842F440525A605A681E
:1012280042F4E0625A601A6842F400421A605A694D
:1012380002F07F425A619A6842F400629A609A68A2
:1012480042F020029A6000B93648374B1B685B08A9
:10125800B3FBF0F0324B1A8A02F47F4280B210439B
:1012680018825A6842F400625A604FF0FF321A62DC
:101278002E4A002111601A6842F001021A60284BB8
:10128800DB6913F4001FFAD0254BDB6913F4800FD8
:10129800F5D0274A52E8003F43F0400342E80031C6
:1012A8000029F6D103B05DF8044B70475466116607
:1012B800CAE52023DCE52023F7E5202304E62023E4
:1012C80013E620231FE620232FE620233CE62023D5
:1012D80050E620235DE620236DE620237AE62022CF
:1012E80088E6202394E62023A4E62023B1E62023E1
:1012F800C5E62023D2E62023E4E62022F0E62023D8
:10130800FEE620230AE720232AE7202236E72023C7
:1013180044E7202350E700BF0008004800100240BF
:101328000038014000127A00000000202C1500202F
:101338000838014008B50020FFF760FD08BD00002F
:10134800014B1860704700BF701F002010B4134B8A
:10135800D3F8803013F0010F05D0104BD3F8843048
:101368009BB2002BF3D10E4A52E8003F23F08003D2
:1013780042E80034002CF6D103E010F8012B1A855E
:1013880021464C1E31B1074B1B68DA6912F0800FF9
:10139800F9D0F2E75DF8044B704700BF0000024047
:1013A80008440040701F002010B50446FEF708FFEF
:1013B80001462046FFF7CAFF10BD092802D8303081
:1013C800C0B270475730C0B2704730B583B00446DA
:1013D80000238DF8053014E020780009FFF7EDFFB1
:1013E8008DF8040001A8FFF7DFFF14F8010B00F0E7
:1013F8000F00FFF7E2FF8DF8040001A8FFF7D4FF04
:1014080029464D1E0029E7D103B030BD10B41F4B4B
:10141800D3F884309BB2002BF9D11C4AD2F8803023
:1014280023F00103C2F88030194A52E8003F43F024
:10143800800342E80034002CF6D12032134BD3F855
:10144800803023F47F5323F02F035B045B0C102BB5
:1014580015D00E4BC3F88800C3F88C200B4AD2F87D
:1014680084301B0C1B040B43C2F88430D2F8803044
:1014780043F00103C2F880305DF8044B7047034B1A
:10148800C3F88C00C3F88820E8E700BF00000240DA
:101498000844004010B483B0D14B9A6C42F001026A
:1014A8009A649B6C03F001030193019BCD4AD36EB0
:1014B80023F4FF4323F0700343F4025343F0200363
:1014C800D366C94CC949D36E23F47F5323F02F0345
:1014D8005B045B0C102B00F0A381C24B5C6799671F
:1014E800C04A136F1B0C1B0443F484631367D2F8C0
:1014F800A82022F470024FF4700393FAA3F3002B90
:1015080000F09181B3FA83F3022101FA03F3134344
:10151800B44AC2F8A830D36E43F00103D366D2F8B8
:10152800803023F4FF4323F0700343F4025343F065
:101538001003C2F88030D2F8A82022F070624FF071
:10154800706393FAA3F3002B00F06F81B3FA83F36F
:10155800022101FA03F31343A24AC2F8A8304FF05C
:1015680090431A68042393FAA3F3002B00F05F81D9
:10157800B3FA83F35B00032101FA03F322EA0302BF
:10158800042393FAA3F3002B00F05381B3FA83F3F7
:101598005B00022101FA03F313434FF090421360FA
:1015A800126A042393FAA3F3002B00F04481B3FAE0
:1015B80083F39B000F2101FA03F322EA03020423B9
:1015C80093FAA3F3002B00F03881B3FA83F39B005E
:1015D800072101FA03F313434FF090421362926814
:1015E800042393FAA3F3002B00F02981B3FA83F3C1
:1015F8005B00032101FA03F322EA0302042393FAAE
:10160800A3F3002B00F01D81B3FA83F35B000221E2
:1016180001FA03F313434FF090429360536823F0A9
:1016280004035360D268042393FAA3F3002B00F059
:101638000A81B3FA83F35B00032101FA03F322EA78
:101648000302042393FAA3F3002B00F0FE80B3FAFD
:1016580083F35B00012101FA03F313434FF0904237
:10166800D3601268082393FAA3F3002B00F0EF80ED
:10167800B3FA83F35B00032101FA03F322EA0302BE
:10168800082393FAA3F3002B00F0E380B3FA83F363
:101698005B00022101FA03F313434FF090421360F9
:1016A800126A082393FAA3F3002B00F0D480B3FA4C
:1016B80083F39B000F2101FA03F322EA03020823B4
:1016C80093FAA3F3002B00F0C880B3FA83F39B00CE
:1016D800072101FA03F313434FF090421362926813
:1016E800082393FAA3F3002B00F0B980B3FA83F32D
:1016F8005B00032101FA03F322EA0302082393FAA9
:10170800A3F3002B00F0AD80B3FA83F35B00022152
:1017180001FA03F313434FF090429360536823F0A8
:1017280008035360D268082393FAA3F3002B00F050
:101738009A80B3FA83F35B00032101FA03F322EAE8
:101748000302082393FAA3F3002B00F08E80B3FA68
:1017580083F35B00012101FA03F313434FF0904236
:10176800D3601F4B9A6D42F400329A659A6D02F469
:1017780000320092009AD3F8882022F00C02C3F8B5
:1017880088201B4A52E8003F43F00C0342E800312E
:101798000029F6D11346126822F0805222F4B05282
:1017A8001A605A6822F440525A60124A126802EBD0
:1017B8005002B2FBF0F080B2D8601A6842F0010221
:1017C8001A600B4BDB6913F4001FFAD0084BDB6976
:1017D80013F4800FF5D0084B53E8002F0EE000BF3C
:1017E800001002400000024024440040501B00202A
:1017F80000440040000000200844004042F040023D
:1018080043E800210029E6D153E8002F22F08002A6
:1018180043E800210029F7D103B05DF8044B704775
:10182800946751675CE620236EE6202390E6202328
:10183800A0E62023ACE62023BBE62023C7E620232E
:10184800D6E62023E2E62023F5E6202301E720233D
:1018580010E720231CE720232BE7202337E720234A
:1018680046E7202352E7202365E7202371E700BFDE
:1018780010B483B0C54B9A6C42F001029A649B6C19
:1018880003F001030193019BC14A136B23F4FF4347
:1018980023F0700343F4025343F020031363BD4C59
:1018A800BD49136B23F47F5323F02F035B045B0CB8
:1018B800102B00F08781B64B9C63D963B44A536BF5
:1018C8001B0C1B0443F484635363D2F8A82022F44E
:1018D80070624FF4706393FAA3F3002B00F07581E4
:1018E800B3FA83F3022101FA03F31343A84AC2F8B7
:1018F800A830136B43F001031363A84B1A684FF425
:10190800806393FAA3F3002B00F06181B3FA83F3A9
:101918005B00032101FA03F322EA03024FF4806318
:1019280093FAA3F3002B00F05481B3FA83F35B001E
:10193800022101FA03F31343984A1360526A0423FD
:1019480093FAA3F3002B00F04681B3FA83F39B00CC
:101958000F2101FA03F322EA0302042393FAA3F303
:10196800002B00F03A81B3FA83F39B00072101FAB8
:1019780003F31343894A536292684FF4806393FADE
:10198800A3F3002B00F02B81B3FA83F35B00032150
:1019980001FA03F322EA03024FF4806393FAA3F3F4
:1019A800002B00F01E81B3FA83F35B00022101FAD9
:1019B80003F31343794A9360536823F480635360B5
:1019C800D2684FF4806393FAA3F3002B00F00B81E5
:1019D800B3FA83F35B00032101FA03F322EA03025B
:1019E8004FF4806393FAA3F3002B00F0FE80B3FA60
:1019F80083F35B00012101FA03F31343674AD360C1
:101A080012684FF4006393FAA3F3002B00F0EF8001
:101A1800B3FA83F35B00032101FA03F322EA03021A
:101A28004FF4006393FAA3F3002B00F0E280B3FABB
:101A380083F35B00022101FA03F31343574A13604F
:101A4800526A082393FAA3F3002B00F0D480B3FA68
:101A580083F39B000F2101FA03F322EA0302082310
:101A680093FAA3F3002B00F0C880B3FA83F39B002A
:101A7800072101FA03F31343484A536292684FF46B
:101A8800006393FAA3F3002B00F0B980B3FA83F351
:101A98005B00032101FA03F322EA03024FF4006317
:101AA80093FAA3F3002B00F0AC80B3FA83F35B0046
:101AB800022101FA03F31343384A9360536823F46D
:101AC80000635360D2684FF4006393FAA3F3002BCA
:101AD80000F09980B3FA83F35B00032101FA03F362
:101AE80022EA03024FF4006393FAA3F3002B00F0F9
:101AF8008C80B3FA83F35B00012101FA03F31343EB
:101B0800264AD360214B9A6D42F480229A659A6DD9
:101B180002F480220092009AD3F8882022F0300242
:101B2800C3F888201E4A52E8003F43F00C0342E8FD
:101B380000310029F6D11346126822F0805222F4AF
:101B4800B0521A605A6822F440525A60154A126814
:101B580002EB5002B2FBF0F080B2D8601A6842F093
:101B680001021A600E4BDB6913F4001FFAD00C4B0C
:101B7800DB6913F4800FF5D00B4B53E8002F42F0CC
:101B8800400243E800210029F6D10FE0001002408E
:101B9800000002402448004030150020000800489A
:101BA80000480040000000200848004053E8002F8B
:101BB80022F0800243E800210029F7D103B05DF844
:101BC800044B7047D463916378E620238AE6202388
:101BD8009EE62023ABE62023B9E62023C5E6202392
:101BE800D4E62023E1E62023F4E6202301E720239E
:101BF80010E720231DE720232BE7202337E72023A6
:101C080046E7202353E7202366E7202373E700BF36
:101C180010B483B0CC4B9A6C42F002029A649B6C6D
:101C280003F002030193019BC84A936D23F4FF4319
:101C380023F0700343F4025343F020039365C44C2C
:101C4800C449936D23F47F5323F02F035B045B0C8B
:101C5800102B00F07481BD4B1C665966BB4AD36DCE
:101C68001B0C1B0443F40073D365BB4BD3F8A824A7
:101C780022F470224FF4702393FAA3F3002B00F0A0
:101C88006181B3FA83F3022101FA03F31343B24AE1
:101C9800C2F8A83402F58062936D43F0010393659E
:101CA8004FF090431A68012393FAA3F3002B00F036
:101CB8005B81B3FA83F35B00032101FA03F322EAA1
:101CC8000302012393FAA3F3002B00F04F81B3FA28
:101CD80083F35B00022101FA03F313434FF09042B0
:101CE8001360126A012393FAA3F3002B00F04081DA
:101CF800B3FA83F39B000F2101FA03F322EA0302EC
:101D0800012393FAA3F3002B00F03481B3FA83F391
:101D18009B00082101FA03F313434FF0904213622A
:101D28009268012393FAA3F3002B00F02581B3FAFC
:101D380083F35B00032101FA03F322EA0302012380
:101D480093FAA3F3002B00F01981B3FA83F35B0035
:101D5800022101FA03F313434FF090429360536852
:101D680023F001035360D268012393FAA3F3002BF5
:101D780000F00681B3FA83F35B00032101FA03F351
:101D880022EA0302012393FAA3F3002B00F0FA805E
:101D9800B3FA83F35B00012101FA03F313434FF015
:101DA8009042D3601168022393FAA3F3002B00F04A
:101DB800EB80B3FA83F35B00032202FA03F321EA10
:101DC8000301022393FAA3F3002B00F0DF80B3FA98
:101DD80083F35B00022202FA03F30B434FF09041B6
:101DE8000B600B6A92FAA2F2002A00F0D180B2FAD4
:101DF80082F292000F2101FA02F223EA0202022380
:101E080093FAA3F3002B00F0C580B3FA83F39B0089
:101E1800082101FA03F313434FF0904213629168CB
:101E2800022393FAA3F3002B00F0B680B3FA83F3EE
:101E38005B00032202FA03F321EA0301022393FA67
:101E4800A3F3002B00F0AA80B3FA83F35B0002220D
:101E580002FA03F30B434FF090418B604B6823F079
:101E680002034B60CB6892FAA2F2002A00F0988035
:101E7800B2FA82F25200032101FA02F223EA0202C4
:101E8800022393FAA3F3002B00F08C80B3FA83F3B8
:101E98005B00012101FA03F313434FF09042D36032
:101EA800294B9A6D42F400229A659A6D02F4002239
:101EB8000092009AD3F8882022F0C002C3F8882044
:101EC800264A52E8003F43F00C0342E8003100295B
:101ED800F6D11346126822F0805222F4B0521A60EA
:101EE8005A6822F440525A601D4A126802EB5002A6
:101EF800B2FBF0F080B2D8601A6842F001021A60B2
:101F0800164BDB6913F4001FFAD0144BDB6913F48A
:101F1800800FF5D0134B53E8002F42F0400243E8FE
:101F280000210029F6D153E8002F22F0800243E86F
:101F380000210029F7D103B05DF8044B70475466BF
:101F480011668BE620239EE6001002400004024042
:101F5800244C00405019002000000240004C004072
:101F680000000020084C00402023A4E62023B0E60F
:101F78002023BFE62023CBE62023DAE62023E6E66B
:101F88002023F9E6202305E7202314E7202320E770
:101F980020222EE720233AE7202349E7202355E78C
:101FA800202267E7202373E782B0B54B1A684FF405
:101FB800805393FAA3F3002B00F04281B3FA83F322
:101FC8005B00032101FA03F322EA03024FF4805372
:101FD80093FAA3F3002B00F03581B3FA83F35B0087
:101FE800022101FA03F31343A54A1360526A10232E
:101FF80093FAA3F3002B00F02781B3FA83F39B0035
:102008000F2101FA03F322EA0302102393FAA3F340
:10201800002B00F01B81B3FA83F39B00082101FA1F
:1020280003F31343964A536292684FF4805393FA2A
:10203800A3F3002B00F00C81B3FA83F35B000321B8
:1020480001FA03F322EA03024FF4805393FAA3F34D
:10205800002B00F0FF80B3FA83F35B00022101FA42
:1020680003F31343864A9360536823F48053536001
:10207800D2684FF4805393FAA3F3002B00F0EC805E
:10208800B3FA83F35B00032101FA03F322EA0302A4
:102098004FF4805393FAA3F3002B00F0DF80B3FAD8
:1020A80083F35B00012101FA03F31343744AD360FD
:1020B800744B1A68042393FAA3F3002B00F0D08022
:1020C800B3FA83F35B00032101FA03F322EA030264
:1020D800042393FAA3F3002B00F0C480B3FA83F32C
:1020E8005B00022101FA03F31343664A1360126A84
:1020F800042393FAA3F3002B00F0B680B3FA83F31A
:102108009B000F2101FA03F322EA0302042393FA46
:10211800A3F3002B00F0AA80B3FA83F39B000821F5
:1021280001FA03F31343574A13629268042393FA9C
:10213800A3F3002B00F09C80B3FA83F35B00032128
:1021480001FA03F322EA0302042393FAA3F3002B10
:1021580000F09080B3FA83F35B00022101FA03F3E5
:102168001343484A9360536823F004035360D268CA
:10217800042393FAA3F3002B7ED0B3FA83F35B0016
:10218800032101FA03F322EA0302042393FAA3F3D7
:10219800002B73D0B3FA83F35B00012101FA03F338
:1021A8001343384AD360384B9A6D42F480129A65CB
:1021B8009A6D02F480120192019AD3F8882022F4D1
:1021C8004072C3F88820314A52E8003F43F00C03BC
:1021D80042E800310029F6D11346126822F08052F5
:1021E80022F4B0521A605A6822F440525A60284ABF
:1021F800126802EB5002B2FBF0F080B2D8601A68A5
:1022080042F001021A60214BDB6913F4001FFAD077
:102218001E4BDB6913F4800FF5D01E4B53E8002FDB
:1022280022F0400243E800210029F6D153E8002FAC
:1022380022F0800243E800210029F7D102B070475C
:102248002023BDE62023CAE62023D8E62023E4E69F
:102258002023F3E6202300E7202313E7202320E7A9
:1022680020232FE720233BE7202349E7202355E7B6
:10227800202363E720236FE7202380E720238BE7D1
:1022880000080048000C00480010024000500040C0
:10229800000000200850004010B4002300E0013383
:1022A800092B0AD8334C14F813C08445F7D104EB32
:1022B800430464788C42F2D14DE000F5901080021E
:1022C800012303FA01F1046891FAA1F3002B45D028
:1022D800B3FA83F35B004FF0030C0CFA03F324EA20
:1022E800030491FAA1F3002B3AD0B3FA83F35B000D
:1022F8004FF0010C0CFA03F323430360846891FA4E
:10230800A1F37BB3B3FA83F35B004FF0030C0CFA31
:1023180003F324EA030491FAA1F32BB3B3FA83F38A
:102328005B004FF0020C0CFA03F323438360C4688C
:1023380091FAA1F3D3B1B3FA83F35B004FF0030C26
:102348000CFA03F324EA030391FAA1F4C3607AB107
:102358000023994081615DF8044B70472023B9E759
:102368002023C4E72023CFE72023D9E72023E4E76D
:102378001023EEE78043000800F590108002012347
:1023880003FA01F10EE0202313E020231DE02023AF
:102398005B004FF0030C0CFA03F322EA030391FAF3
:1023A800A1F20360026891FAA1F3002BEBD0B3FA13
:1023B80083F35B004FF0030C0CFA03F31A4091FA15
:1023C800A1F3002BE1D0B3FA83F35B0022FA03F305
:1023D800022B07D9026891FAA1F3002BD7D0B3FAE0
:1023E80083F3D5E700690840704700F59010800234
:1023F800012303FA01F1026891FAA1F363B1B3FA78
:1024080083F35B004FF0030C0CFA03F322EA030397
:1024180091FAA1F1036070472023F2E7014B186895
:10242800704700BF2000002038B5124D296F124CAC
:10243800C1F58461204601F07DFC696BC1F58461BA
:102448000E4801F077FC0E48FEF77AFF204601F0AF
:102458004DFD20B10A48FEF773FF204638BD0748F6
:1024680001F044FD20B10748FEF76AFF0348F5E78D
:102478000020F3E700000240B02100209421002052
:1024880000440040004800402DE9F04F97B0A84CA8
:1024980023464FF48462A749A74801F037FC234636
:1024A8004FF48462A549A64801F030FC01220521B9
:1024B8000020FFF7F1FE00220A210120FFF7ECFEC1
:1024C800A048FEF73DFFA04C2046FEF76DFF9F4851
:1024D800FEF736FF2046FEF767FF00252F4613E379
:1024E8004FF408739A4A0CA909A8FEF775F90A90DF
:1024F8000C9BE3B19748FEF757FF099A130A03F4B8
:102508007F4343EA1263110201F47F010B4343EA5C
:1025180002630993042109A8FEF757FF0C9B0B2BB4
:102528000BD01D2B14D08C48FEF73EFF08E08B48DB
:10253800FEF73AFF17B0BDE8F08F8948FEF734FF81
:102548000A998348FEF741FF8648FEF72DFFE3E22C
:102558008548FEF729FFF3E78448FEF725FF0C9925
:10256800202928BF20210C917948FEF7EFFE7D48ED
:10257800FEF71AFFC5E2204601F075FE0990FF2814
:1025880003D97B48FEF710FFBBE201F0B9F87948A0
:10259800FEF70AFF7348FEF707FFB2E2204601F094
:1025A80062FE0990FF2803D97148FEF7FDFEA8E2F4
:1025B800204601F058FE0A9000230C93204601F0B3
:1025C800ADFC00BB0A9BB3F5087F28BF4FF4087326
:1025D8000A930A9A5E499DF8240001F0C7F80B9007
:1025E8000A9B984214D00C9B5A1E0C92002BF0D1D7
:1025F8006148FEF7D9FE04210BA8FEF7E6FE59480C
:10260800FEF7D2FE7DE2204601F02DFE0C90D9E7C0
:102618005848FEF7C9FE0A994D48FEF7D6FE5148BC
:10262800FEF7C2FE6DE2204601F01DFE0990FF286C
:1026380003D94F48FEF7B8FE63E24FF408724449E5
:10264800204601F04BFD0A9018B94C48FEF7ACFE45
:1026580057E200230C93204601F060FCC8B90A9A9F
:102668003B499DF8240001F0E9F80B900A9B984239
:1026780014D00C9B5A1E0C92002BF0D14048FEF748
:1026880093FE04210BA8FEF7A0FE3648FEF78CFE49
:1026980037E2204601F0E7FD0C90E0E73548FEF709
:1026A80083FE0A9A130A03F47F4343EA1263110272
:1026B80001F47F010B4343EA02630A9304210AA849
:1026C800FEF783FE2748FEF76FFE1AE24FF4087202
:1026D8001F49204601F002FD0A90431FFF2B17D81F
:1026E800052803D91A4A1279934215D1DFF8608078
:1026F80001464046FDF7D8FE0A901E48FEF754FEF4
:102708000A994046FEF761FE1648FEF74DFEF8E1CD
:102718001C48FEF749FEF4E11B48FEF745FE0A99FE
:102728000B48FEF752FE0F48FEF73EFEE9E100BFF8
:1027380098430008501B0020B021002030150020CD
:1027480094210020004800409C43000800440040B9
:10275800741F0020C0430008D0430008A4430008A9
:10276800C843000810470008CC430008D4430008B9
:10277800EC43000804440008084400082444000806
:102788003C4400085C440008784400085FB3AE4845
:10279800FEF70AFE022115A8FEF717FEAB48FEF762
:1027A80003FE00274FF40872A949204601F096FC61
:1027B8000A90431FFF2B1AD8052803D9A44A127977
:1027C800934218D10146A248FDF76EFE0A900228EE
:1027D8001CD80A9B022B20D1023B9D4AD35AADF844
:1027E800543001278DE19B48FEF7DEFDDAE79A4871
:1027F800FEF7DAFD85E19948FEF7D6FD0A99944877
:10280800FEF7E3FD9148FEF7CFFD7AE19448FEF725
:10281800CBFD8E48FEF7C8FDDBE79248FEF7C4FD06
:102828004EF66E63ADF8543001276AE15FB1864811
:10283800FEF7BAFD022115A8FEF7C7FD8348FEF78B
:10284800B3FD00275DE18848FEF7AEFD7F48FEF73F
:10285800ABFD56E17C48FEF7A7FD09210020FFF7F4
:102868008BFD38B981480121FEF7AFFD7748FEF7A7
:102878009BFD46E17E48F6E7204601F0F4FC8046E1
:10288800072803D97B48FEF78FFD3AE1204601F07F
:10289800EAFC81460F2803D97748FEF785FD30E129
:1028A800204601F0E0FC02460B90B0F1FF3F07D054
:1028B80049464046FFF7F0FC7048FEF775FD20E1F9
:1028C8006F48FEF771FD1CE1204601F0CCFC804604
:1028D800072803D96748FEF767FD12E1204601F093
:1028E800C2FC01460F2803D96348FEF75DFD08E1E5
:1028F8004046FFF741FD0B905348FEF755FD0B9BF3
:10290800003B18BF01230B9301210BA8FEF75DFDC7
:102918004E48FEF749FDF4E0204601F0A4FC80464D
:10292800072803D95348FEF73FFDEAE0204601F0A7
:102938009AFC01460F2803D94F48FEF735FDE0E021
:102948004046FFF752FD4D48FEF72EFDD9E0002323
:102958000B93204601F0E2FA98B90B9A4FF40871EC
:102968003B48FDF782FD0A9001280FD93648FEF74B
:102978001BFD0A993648FEF728FD3448FEF714FD7A
:10298800BFE0204601F06FFC0B90E6E7FDF765FD20
:102998003C48FEF709FDB4E0FDF75FFD3748FEF758
:1029A80003FDAEE03848FEF7FFFC4FF408722849F3
:1029B800204601F093FB0A9018B93448FEF7F4FC5E
:1029C8009FE001462248FEF700FD3148FEF7ECFC87
:1029D800F3E70020FEF73AF92848FEF7E5FC90E017
:1029E8002C4B1B6803F5EA4330330A9300230C93FE
:1029F800204601F093FAC8B909230B93204601F049
:102A08008DFAC0B9204601F0A5F9224B1B680A9A35
:102A18009B1A002B14DA0B990C98FFF7ADFC0028D1
:102A28003CD0FFF701FD0028EFD06AE0204601F016
:102A38001AFC0C90E0E7204601F015FC0B90E1E74A
:102A48001548FEF7B1FC5CE0044400081047000894
:102A5800741F0020904400085C4400087844000873
:102A68009C440008D0440008F0440008944300083F
:102A78003C43000820450008384500086445000824
:102A88004C4500086C450008884500089445000836
:102A98009045000820000020A4450008AE48FEF735
:102AA80083FC2EE000230A93AC48FEF77DFC12E07D
:102AB8000A9800F025FE0C90012001F00BF90B9B01
:102AC8005A1E0B9213B10C9B002BF1D00C9B53B9DF
:102AD8000A9B02330A930A9BFF2B0FD80A230B93F6
:102AE80000230C93EBE79E48FEF75EFC01210AA841
:102AF800FEF76BFC9B48FEF757FCE9E79A48FEF7A0
:102B080053FC204601F026F915F0010F04D0FDF71B
:102B180059FE00287FF4E4ACFFF786FC0446002841
:102B2800F2D04FF408730C930CAB00938F4B1C221C
:102B38008F4901F071FA01381B283FF60DAD01A34A
:102B480053F820F07F250008A52500082F26000847
:102B5800D526000895270008352800085D280008B4
:102B680081280008D12800082129000857290008D1
:102B7800A1290008AD290008DB290008E929000877
:102B8800AD2A0008BD2B0008E32B00086D2C0008B7
:102B9800E12C0008FD2C0008412D0008AD2D00088F
:102BA800D12D00084B2E0008632E0008EB2F0008DB
:102BB800613000086848FEF7F7FB0A2001F08AF840
:102BC800BFF34F8F6B49CA6802F4E0626A4B134344
:102BD800CB60BFF34F8F00BFFDE7204601F043FBFA
:102BE8000B9001226149204601F0EBF901280DD133
:102BF8005E4B1B78652B0DD006D8452B0AD0532B7E
:102C080004D10B230C9307E0732BFAD05B48FEF733
:102C1800CBFB76E71D230C934FF4087253492046EB
:102C280001F05CFA03460A90082803D95448FEF7D5
:102C3800BBFB66E74D4A0C990B98FDF70BFD0C9012
:102C48000A9B98420AD04F48FEF7AEFB04210CA815
:102C5800FEF7BBFB4448FEF7A7FB52E73E48FEF7EA
:102C6800A3FB4EE74FF40873404A0CA909A8FDF7E7
:102C7800B3FD0A900C9B1BB94348FEF795FB40E750
:102C88003648FEF791FB099A130A03F47F4343EA97
:102C98001263110201F47F010B4343EA02630993B3
:102CA800042109A8FEF791FB0C9B0B2B05D01D2BCB
:102CB8000ED03648FEF778FB02E03548FEF774FB85
:102CC8000A992A48FEF781FB2748FEF76DFB18E7AB
:102CD8003048FEF769FBF3E7FDF774FD0A901F48DB
:102CE800FEF762FB01210AA8FEF76FFB1E48FEF7FC
:102CF8005BFB06E7204601F0B6FA0B90264B1B68F3
:102D0800B0EB930F03D92548FEF74EFBF9E60021F7
:102D1800FDF78EFD25F00105204601F0FFF818B9F2
:102D28000D48FEF741FBECE6204601F09CFA00282E
:102D3800F6D045F00105F3E7204601F094FA0B9030
:102D480000F0E8FD18B11648FEF72EFBD9E6024858
:102D5800FEF72AFBD5E600BF6445000804440008D6
:102D6800B04500089045000810470008741F00206F
:102D7800D847000800ED00E00400FA05B445000853
:102D8800E44500080C460008A4430008D0430008A6
:102D9800C8430008CC43000800000020284600086B
:102DA8004C46000800230B93204601F0B7F830B9D1
:102DB8000B98FEF723F89B48FEF7F6FAA1E62046A3
:102DC80001F051FA0B90F3E707B14EB1204601F03C
:102DD8004AFA0990FF2807D99348FEF7E5FA90E6E2
:102DE8009248FEF7E1FAF1E74FF40872904920465D
:102DF80001F074F90A9018B98E48FEF7D5FA80E602
:102E080000230C93204601F089F8A8B98548FEF7FD
:102E1800CBFA0A9A86499DF8240000F00FFD0B9022
:102E28000A9B984200F082810C9B5A1E0C92002B40
:102E3800EFD10646012764E6204601F014FA0C900B
:102E4800E4E707B126B17748FEF7AEFA002758E65F
:102E58007648FEF7A9FA374653E6204601F003FA0A
:102E68000990FF2803D97048FEF79EFA49E62046E4
:102E780001F054F818B97048FEF796FA41E6204672
:102E880001F0F1F90390204601F048F80028F2D04B
:102E9800204601F0E8F90690204601F03FF80028A6
:102EA800E9D0204601F0DFF90790204601F036F816
:102EB8000028E0D0204601F0D6F905900028DAD1A4
:102EC80000230C93204601F029F890B9204600F021
:102ED80041FFDDF814A0049757467FB1FF2F26D88D
:102EE8003B46B7F5087F28BF4FF408730A930C9E3A
:102EF80020E0204601F0B7F90C90E7E74F4B1B683C
:102F0800079A03EB02084D4B1B68A3EB0803002B41
:102F180008DA06990398FFF72FFA0028F3D103235C
:102F28000A93E4E7049F4648FEF73EFAE9E5FF23E3
:102F3800DCE746460A9A3E499DF8240000F016FC54
:102F48000B900A9A904215D006F1FF38002EF0D166
:102F5800049F1B213B48FEF759FA0B9B7A330B93CE
:102F680001210BA8FEF752FA01213748FEF74EFA65
:102F78004646C6E597BB2E4B5A789F7847EA022704
:102F88003248FEF711FA002FA7D1049F01212E48DD
:102F9800FEF73CFAB5E5DFF8989019F808004FEA13
:102FA800480B0009FEF709FADFF8A4A00AF8180090
:102FB80019F808000BF1010B00F00F00FEF7FDF9FE
:102FC8000AF80B0008F101080A994145E3D84900BD
:102FD8001F48FEF71BFA0A9BFF1AD4E7DDF8148096
:102FE800F2E74FF408721249204601F077F80A9088
:102FF800B0F5807F03D91748FEF7D6F981E5DFF8E9
:1030080030800146404600F047F90A900F48FEF725
:10301800CBF90A994046FEF7D8F90B48FEF7C4F9F0
:103028006FE500BF64450008EC43000880460008CF
:10303800741F00202444000888460008200000204F
:10304800A445000808440008104700080444000884
:10305800501B0020E84600083648FEF7A5F9364B15
:10306800DA6C42F00102DA64DA6C02F001020D92C5
:103078000D9A4FF090410A6842F0434242F47F02B1
:1030880042F47F4242F00F020A60DA6C42F0020218
:10309800DA64DA6C02F002020E920E9A4FF0FF32F6
:1030A80001F580610A60D96C41F00401D964D96CDA
:1030B80001F004010F910F9920490A60D96C41F081
:1030C8000801D964D96C01F00801109110991C49C4
:1030D8000A60D96C41F01001D964D96C01F0100173
:1030E8001191119917490A60D96C41F02001D964EE
:1030F800D96C01F020011291129913490A60D96C18
:1031080041F04001D964D96C01F040011391139941
:103118000E490A60D96C41F08001D964DB6C03F078
:1031280080031493149B0A4B1A60EAE406460127AD
:10313800E7E400BF644500080010024000080048AA
:10314800000C00480010004800140048001800480F
:10315800001C004808B5284A136823F0070343F009
:1031680004031360A2F58052136843F0010313604F
:10317800224B1B6813F0020FFAD0204AD168204B6B
:103188000B4043F4205343F00103D360136843F02A
:1031980080731360D36843F08073D360174B1B6848
:1031A80013F0007FFAD0154B9A6822F0F0029A606B
:1031B8009A6842F003029A60104B9B6803F00C0374
:1031C8000C2BF9D10D4B9A6822F4E0629A609A6848
:1031D80022F460529A600B4800F092FD4FF0E02311
:1031E800094A5A61094AF02182F8231000229A619B
:1031F80007221A6108BD00BF0020024000100240EB
:103208008C80FFF900B4C4047F38010000ED00E0B1
:1032180000B585B0FFF79EFF1D4BDA6C42F0010246
:10322800DA64DA6C02F001020392039ADA6C42F073
:103238000202DA64DA6C02F002020292029ADA6C92
:1032480042F00402DA64DB6C03F004030193019B8F
:103258004FF46120FEF71EF94FF46120FEF708FBDA
:103268004FF41650FEF7D4FC4FF4E130FEF79CFE05
:103278004FF4C87000F04EFB00F032F8FEF75AF831
:1032880000210448FDF7D4FAFFF7FEF8FCE700BF79
:103298000010024020A107000346084601F1FF3C48
:1032A800D1B100B50D4A926812F0020FFAD093F826
:1032B80000E00A4A82F80CE0084A926812F0010F0E
:1032C800FAD0064A127B03F8012B62460CF1FF3C48
:1032D800002AE7D15DF804FB704700BF00300140C9
:1032E80084B0D04B1A6E42F480521A661A6E02F4F9
:1032F80080520392039A1A6E42F001021A661A6EFD
:1033080002F001020292029ADA6C42F00202DA64D6
:10331800DB6C03F002030193019BC34B1A6808237B
:1033280093FAA3F3002B00F09F81B3FA83F35B00B9
:10333800032101FA03F322EA0302082393FAA3F311
:10334800002B00F09381B3FA83F35B00022101FAAA
:1033580003F31343B44A1360126A082393FAA3F3DE
:10336800002B00F08581B3FA83F39B000F2101FA4B
:1033780003F322EA0302082393FAA3F3002B00F0D5
:103388007981B3FA83F39B00052101FA03F3134310
:10339800A54A13629268082393FAA3F3002B00F05E
:1033A8006B81B3FA83F35B00032101FA03F322EA8A
:1033B8000302082393FAA3F3002B00F05F81B3FA0A
:1033C80083F35B00022101FA03F31343964A9360E7
:1033D800D268082393FAA3F3002B00F05181B3FAC3
:1033E80083F35B00032101FA03F322EA03020823B3
:1033F80093FAA3F3002B00F04581B3FA83F35B0043
:10340800022101FA03F31343874AD3601268102399
:1034180093FAA3F3002B00F03781B3FA83F35B0030
:10342800032101FA03F322EA0302102393FAA3F318
:10343800002B00F02B81B3FA83F35B00022101FA21
:1034480003F31343784A1360126A102393FAA3F321
:10345800002B00F01D81B3FA83F39B000F2101FAC2
:1034680003F322EA0302102393FAA3F3002B00F0DC
:103478001181B3FA83F39B00052101FA03F3134387
:10348800694A13629268102393FAA3F3002B00F0A1
:103498000381B3FA83F35B00032101FA03F322EA01
:1034A8000302102393FAA3F3002B00F0F780B3FA7A
:1034B80083F35B00022101FA03F313435A4A936032
:1034C800D268102393FAA3F3002B00F0E980B3FA33
:1034D80083F35B00032101FA03F322EA03021023BA
:1034E80093FAA3F3002B00F0DD80B3FA83F35B00BB
:1034F800022101FA03F313434B4AD36012682023D5
:1035080093FAA3F3002B00F0CF80B3FA83F35B00A8
:10351800032101FA03F322EA0302202393FAA3F317
:10352800002B00F0C380B3FA83F35B00022101FA99
:1035380003F313433C4A1360126A202393FAA3F35C
:10354800002B00F0B580B3FA83F39B000F2101FA3A
:1035580003F322EA0302202393FAA3F3002B00F0DB
:10356800A980B3FA83F39B00052101FA03F31343FF
:103578002D4A13629268202393FAA3F3002B00F0DC
:103588009B80B3FA83F35B00032101FA03F322EA79
:103598000302202393FAA3F3002B00F08F80B3FAE1
:1035A80083F35B00022101FA03F313431E4A93607D
:1035B800D268202393FAA3F3002B00F08180B3FA9A
:1035C80083F35B00032101FA03F322EA03022023B9
:1035D80093FAA3F3002B75D0B3FA83F35B000221AF
:1035E80001FA03F31343104AD360104B1A6822F010
:1035F80040021A601A6822F0380242F020021A606B
:103608001A6822F444421A601A6822F001021A6009
:103618001A6822F002021A601A6822F080021A6000
:103628005A6805E0001002400004004800300140DC
:1036380022F4706242F4E0625A601A6842F400723E
:103648001A605A6822F004025A605A6842F480529A
:103658005A601A6842F482721A601A6842F040028C
:103668001A60002004B07047202360E620236CE62F
:1036780020237AE6202386E6202394E62023A0E66A
:103688002023AEE62023BAE62023C8E62023D4E68A
:103698002023E2E62023EEE62023FCE6202308E7A9
:1036A800202316E7202322E7202330E720233CE7C6
:1036B80020234AE7202356E7202364E7202370E7E6
:1036C80020237EE7202389E782B00C4B5A6842F416
:1036D80080425A601A6822F001021A604FF480731F
:1036E8000193019B5A1E0192002BFAD1034A1368D9
:1036F80043F00103136002B0704700BF005400405C
:1037080010B5184A4FF0FF33D361536823F07F7325
:1037180023F45F3323F47F7323F0030340F0024064
:1037280040F49030034353600F4B1A680A320D4B34
:103738005C6814F4005409D00B4B1B689B1A002BCF
:10374800F5DBFFF7C1FF0024204610BD9B6913F489
:103758004C7F03D1FFF7B8FF0124F5E7FFF7B4FF6B
:10376800F2E700BF005400402000002038B5314B7C
:103778004FF0FF34DC6114462AB394462D4D6A6835
:1037880022F07F7222F45F3222F47F7222F0030269
:1037980040EA0C4040F0024343F4105313436B607B
:1037A800254B1A6802F57A72224B5B6813F4005FA6
:1037B8000CD0214B1B689B1A002BF5DBFFF784FF0D
:1037C8004FF0FF3038BD4FF0010CD7E7194B9B691C
:1037D80013F44C7F11D123465D1E3BB3164B1B6877
:1037E80003F57A73134A926912F0040F0FD0114B44
:1037F8005B6A01F8013B2B46EEE7FFF765FF6FF0C8
:103808000100DFE7FFF760FF6FF00200DAE70A4A1E
:103818001268D21A002AF5DA064A926912F44C7F25
:10382800E0D0FFF751FF641B601ECBE7FFF74CFFAA
:103838002046C7E7005400402000002038B5334B2D
:103848004FF0FF34DC6114462AB394462F4D6A6862
:1038580022F07F7222F45F3222F47F7222F0030298
:1038680040EA0C4040F0024343F4005313436B60BA
:10387800274B1A6802F57A72244B5B6813F4005FD1
:103888000CD0234B1B689B1A002BF5DBFFF71CFFA2
:103898004FF0FF3038BD4FF0010CD7E71B4B9B6949
:1038A80013F44C7F11D123465D1E3BB3184B1B68A4
:1038B80003F57A73154A926912F0020F0FD011F8C6
:1038C800012B124B9A622B46EEE7FFF7FDFE6FF0D5
:1038D8000100DFE7FFF7F8FE6FF00200DAE70C4AB5
:1038E8001268D21A002AF5DA084A926912F44C7F53
:1038F800E0D0FFF7E9FE641B601ECBE70CB1204661
:10390800C8E7FFF7E1FE2046C4E700BF00540040C7
:103918002000002082B0CC4B9A6D42F400129A65C8
:103928009A6D02F400120192019A1A6E42F0010295
:103938001A661A6E02F001020092009AD3F88820E3
:1039480022F4405242F48052C3F88820BF4A1368D8
:1039580023F001031360B0F52F7F00F0828140F25D
:103968006981B0F57A7F00F0808140F2DC5398429B
:1039780040F0A781B64BB54A13614FF090431A68DF
:10398800402393FAA3F3002B00F07181B3FA83F379
:103998005B00032101FA03F322EA0302402393FAAE
:1039A800A3F14FF090410A608A6893FAA3F3002BC1
:1039B80000F05F81B3FA83F35B00032101FA03F39C
:1039C80022EA0303402292FAA2F2002A00F053816D
:1039D800B2FA82F25200022101FA02F21A434FF0BF
:1039E80090439A60DA68402393FAA3F3002B00F01F
:1039F8004481B3FA83F35B00032101FA03F322EA5B
:103A08000302402393FAA3F3002B00F03881B3FAA2
:103A180083F35B00012101FA03F313434FF0904253
:103A2800D3608C4B1A684FF4007393FAA3F3002BFE
:103A380000F02781B3FA83F35B00032101FA03F353
:103A480022EA03024FF4007393FAA3F3002B00F069
:103A58001A81B3FA83F35B00022101FA03F31343DB
:103A68007C4A136092684FF4007393FAA3F3002B17
:103A780000F00B81B3FA83F35B00032101FA03F32F
:103A880022EA03024FF4007393FAA3F3002B00F029
:103A9800FE80B3FA83F35B00022101FA03F31343B8
:103AA8006C4A9360536843F400735360D2684FF4D0
:103AB800007393FAA3F3002B00F0EB80B3FA83F3BF
:103AC8005B00032101FA03F322EA03024FF40073B7
:103AD80093FAA3F3002B00F0DE80B3FA83F35B00C4
:103AE800012101FA03F313435A4AD36012684FF4D1
:103AF800807393FAA3F3002B00F0CF80B3FA83F31B
:103B08005B00032101FA03F322EA03024FF48073F6
:103B180093FAA3F3002B00F0C280B3FA83F35B009F
:103B2800022101FA03F313434A4A136092684FF4DF
:103B3800807393FAA3F3002B00F0B380B3FA83F3F6
:103B48005B00032101FA03F322EA03024FF48073B6
:103B580093FAA3F3002B00F0A680B3FA83F35B007B
:103B6800022101FA03F313433A4A9360536843F47A
:103B780080735360D2684FF4807393FAA3F3002BD9
:103B880000F09380B3FA83F35B00032101FA03F397
:103B980022EA03024FF4807393FAA3F3002B00F098
:103BA8008680B3FA83F35B00012101FA03F3134320
:103BB800284AD36025490B6843F001030B60526A19
:103BC800022393FAA3F3002B73D0B3FA83F39B0079
:103BD8000F2101FA03F322EA0302022393FAA3F363
:103BE800002B68D0B3FA83F39B00042101FA03F396
:103BF8001343184A5362526A012393FAA3F3002B22
:103C08005BD0B3FA83F39B000F2101FA03F322EA96
:103C18000302012393FAA3F3002B50D0B3FA83F3E2
:103C28009B00042101FA03F313430A4A536200205C
:103C380002B07047642816D0B0F5C87F01D1064B92
:103C480099E658B9044B96E600100240005400402B
:103C5800100E300000040048862BF0004FF0FF30B3
:103C6800E6E7194B87E6194B85E6194B83E62023CF
:103C78008EE62023A0E62022ACE62023BBE6202304
:103C8800C7E62023D8E62023E5E62023F4E6202310
:103C980001E7202314E7202321E7202330E720230E
:103CA8003DE720234CE7202359E720236CE7202316
:103CB80079E720238BE7202396E72023A3E7202317
:103CC800AEE74FF0FF30B3E73D0E3000862BF00033
:103CD800220E300082B04FF0E0231B690193019B54
:103CE800B0F1FF3F00D0013038B14FF0E0231B693D
:103CF80013F4803FF8D00138F6E702B070470000AF
:103D0800014B1860704700BF00000020F8B504465A
:103D18000D4617461E460021016041608160C16062
:103D2800016141618161284600F0F0FA65606761D0
:103D3800A660F8BD10B5044602694369B1FBF3F00B
:103D480003FB10112161914200D110BDFEF766FB03
:103D58002060FAE730B4C368856915F0010F0FD108
:103D680004699C4228D04268D25C0A2A1AD00133DE
:103D78004269B3FBF2F102FB11339C42F3D11BE021
:103D880002699A4218D04268D25C0A2A14D145F0D6
:103D98000105856101334269B3FBF2F102FB11337E
:103DA800C36009E045F00105856101334269B3FB51
:103DB800F2F102FB1133C36030BC70472DE9F84FB4
:103DC8000546884616469B46C46813681C444369E2
:103DD800B4FBF3F203FB12448068FCF7F1F92B699A
:103DE800A34266D086466B682344C8F80030002199
:103DF80010E00131621C1344C8F8003001346B69CB
:103E0800A34242D0EA68A24257D02A69A24256D0B9
:103E1800A3424CD9F44663460CF1FF3C002BEDD08D
:103E28006B6803EB040A185DAA6812F80C90484501
:103E3800F1D1686900EB040CEA68ACEB020C32685B
:103E4800ACEB0202B2FBF0FC00FB1C22571AB9F1E2
:103E58000A0F01D0002FCCD0BBF1000F0DD00134D8
:103E6800B4FBF0F300FB1344EC60AB6923F00103EF
:103E7800AB619AF800100A2903D033681A443260FB
:103E880018E043F00103AB61F7E7EB68E41A336825
:103E9800E31A591A3460BBF1000F05D00023EB6018
:103EA800AB6923F00103AB6141F0004702E0002752
:103EB80000E000273846BDE8F88F0027FAE700271A
:103EC800F8E700B583B000230193012301AAFFF7A7
:103ED80075FF03B05DF804FB426903691344C068C9
:103EE8001B1AB3FBF2F002FB1030704710B5044602
:103EF800FFF7F2FFE368002106E001336269B3FBD4
:103F0800F2F002FB1033604600F1FF3C28B10131AA
:103F18006268D25C0A2AF0D1084610BD30B583B079
:103F28000546002300936A4601A9FFF747FF0446A8
:103F380008B1002802DB204603B030BD20F0004461
:103F4800009400236A4601A92846FFF737FF002896
:103F580001DB0444EFE70024EDE72DE9F0410446D6
:103F68000F461546FFF7DAFF064610B93046BDE89A
:103F7800F08139462046FFF7A4FF286000237B60C4
:103F88006B602E689E4203DB2E686B681E44EDE76B
:103F980026F000462E60D4F808804046FCF710F959
:103FA80003461A46013B32B16268117818F80320BB
:103FB8009142F6D1DAE7391D2046FFF782FF6860A3
:103FC800E2E730B585B00C4615466A4602A9FFF708
:103FD800C4FFF8B1A84228BF2846034608E0013BC1
:103FE800013A0092029A511C0291127804F8012BAE
:103FF80063B1009A002AF2D108E0013B013A01922C
:10400800039A511C0391127804F8012B13B1019AF9
:10401800002AF2D105B030BD2DE9F04F85B08B46AE
:1040280015461C460E9B13B100230E9A13606A4670
:1040380002A9FFF792FF804600284BD0A846013D11
:10404800B8F1000F1FD05BF82570009E26F00042E3
:104058000299384600F030F90028EFD13846FCF7CD
:10406800AFF8814686420ED0DDF804A0BAF1000F01
:10407800E4D052460399B81900F01EF90028DDD1A2
:104088005644B145DAD12CB30E9B1A68009B0199AE
:104098000B449A4228BF1A460E9B1A6008E0013A60
:1040A800013B0093029B591C02911B7804F8013BC9
:1040B80062B1009B002BF2D108E0013A013B019369
:1040C800039B591C03911B7804F8013B12B1019B17
:1040D800002BF2D1404605B0BDE8F08F70B584B032
:1040E8000D4616466A4602A9FFF737FF0346002821
:1040F8004AD000F0010202EB5002B24243D8002439
:10410800204619E0019B002B3ED0013B0193039B05
:104118005A1C03921A7822E0A2F14103DBB2052B64
:1041280035D8A2F13703DBB22A7813432B70013458
:10413800E4B2022C21D00B46591E53B30EB314B966
:10414800013000232B702B781B012B70009B002B58
:10415800D8D0013B0093029B5A1C02921A78A2F114
:104168003003DBB2092BDFD9A2F16103DBB2052BE7
:10417800D2D8A2F15703DBB2D6E70135013E0024BD
:10418800D9E7034600E00023184604B070BD0023B9
:10419800FAE70346F8E730B585B00C466A4602A947
:1041A800FFF7DBFE002854D00346E1B20024204686
:1041B800224612E0019B002B4FD0013B0193039B49
:1041C8005D1C03951B7815E0E2B10A291ED0102961
:1041D80023D000FB01300132634603F1FF3C002B82
:1041E80034D0009B002BE5D0013B0093029B5D1C63
:1041F80002951B780028E7D1012AE5D1782BE3D175
:104208001021E8E72D2BE0D10124E4E7303BDBB2B5
:10421800092BDED94FF0FF301DE0A3F1300E5FFA15
:104228008EFEBEF1090F0FD9A3F16105EDB2052D80
:1042380002D8573BDBB2CCE7A3F14105EDB2052D1F
:104248000ED8373BDBB2C4E77346C2E71CB1404225
:1042580001E04FF0FF3005B030BD4FF0FF30FAE716
:104268004FF0FF30F7E708B50A21FFF794FF08BDC4
:1042780070B50D4D0D4C641BA4100026A64209D143
:104288000B4D0C4C00F04AF8641BA4100026A64203
:1042980005D170BD55F8043B98470136EEE755F84F
:1042A800043B98470136F2E74848000848480008A8
:1042B800484800084C48000810B5013902449042AB
:1042C80001D1002005E0037811F8014FA34201D085
:1042D800181B10BD0130F2E7884210B501EB02044B
:1042E80002D98442234607D8431EA14208D011F8B8
:1042F800012B03F8012FF8E7024401468A4200D156
:1043080010BD13F8014D02F8014DF7E702440346CA
:10431800934200D1704703F8011BF9E7F8B500BFD5
:10432800F8BC08BC9E467047F8B500BFF8BC08BC8E
:044338009E467047E6
:10433C000000000001000100020004000800100051
:10434C00200040000C001400010001000100740169
:10435C0000018000740174012E02E8025C04D00597
:10436C0044070000000100020003000400060008DE
:10437C000000000000020003000D000E01080109FE
:10438C00000B000C020A020B01000000200A0000C6
:10439C0052455345543A0A004552524F523A206EF8
:1043AC006F206672616D6520617661696C61626C0B
:1043BC00650A0000494E544352583A002C732C00A5
:1043CC002C652C002C552C004552524F523A20751E
:1043DC006E737570706F727465643A200000000023
:1043EC004552524F523A20696E76616C6964206175
:1043FC006464726573730A004F4B3A004552524F16
:10440C00523A206E6F7420616C6C20627974657303
:10441C0020726561643A20004552524F523A20692D
:10442C006E76616C696420646174610A000000003E
:10443C004552524F523A206E6F7420616C6C206260
:10444C0079746573207772697474656E3A20000014
:10445C004552524F523A20696E76616C6964205411
:10446C003D3020617064750A000000004552524FC7
:10447C00523A206D616C666F726D65642061706478
:10448C00753A20004F4B3A393030300A00000000AA
:10449C004552524F523A206D6F7265207468616EAE
:1044AC0020612053572072657475726E65642C20E0
:1044BC00756E737570706F72746564206279207498
:1044CC00306300004552524F523A20543020415034
:1044DC0044552065786368616E6765206661696C18
:1044EC00656400004552524F523A206C617374203F
:1044FC00535720616C7265616479207265747572B2
:10450C006E6564206F7220743063206E6F7420753A
:10451C00736564004552524F523A20696E76616C55
:10452C00696420706F72740A000000004552524F8B
:10453C00523A20696E76616C69642070696E0A006B
:10454C004552524F523A20696E76616C69642076FE
:10455C00616C75650A0000004F4B3A0A00000000C0
:10456C004552524F523A206E6F2063617264206440
:10457C00657465637465640A00000000494E464F1B
:10458C003A0000002C00000056455253494F4E3D56
:10459C00302E31300A00000054494D454F55543AE5
:1045AC000A000000307800004552524F523A206900
:1045BC006E76616C6964205374616E646172642FF1
:1045CC00457874656E64656420696E6469636174B2
:1045DC00696F6E0A000000004552524F523A206932
:1045EC006E76616C6964206672616D65206C656EB7
:1045FC0020286D61782038206279746573290A004F
:10460C004552524F523A2043414E207472616E73A0
:10461C006D6974206661696C65642C004552524F5B
:10462C00523A20696E76616C6964206672657175A8
:10463C00656E637920706172616D657465720A00D4
:10464C004552524F523A20756E737570706F72747A
:10465C006564206B687A2076616C75652028313032
:10466C00302C3430302C313030302C313530302946
:10467C00000000004552524F523A0A004552524F28
:10468C00523A206932637278666572203C6E6F74A0
:10469C006966795F706F72743E203C6E6F746966E8
:1046AC00795F70696E3E203C6E6F746966795F74D9
:1046BC00696D656F75745F6D733E203C666F726DCE
:1046CC0061743A303D636172676F3E205B3C72658A
:1046DC007472795F636F756E743E5D004552524F14
:1046EC00523A20696E76616C6964206672616D6500
:1046FC00206C656E20286D61782032353620627909
:10470C00746573290A0000006932637300000000AD
:10471C0069326372000000006932637700000000A8
:10472C0074300000743063007430636C6173740017
:10473C00693263690000000067706F006770690080
:10474C006366676900000000617472006F66660042
:10475C00696E666F000000006F6E0000693263695D
:10476C0077616974000000006932637363616E00E5
:10477C00726573657400000063747800637278006E
:10478C0063617661696C000063636667000000001A
:10479C00693263666700000069736F6366670000C7
:1047AC00693263776300000069326377636C61730D
:1047BC007400000069326372786665720000000054
:1047CC00737069780000000072656C001447000873
:1047DC001C470008244700082C47000830470008F5
:1047EC00344700083C470008444700084847000885
:1047FC004C47000854470008584700085C4700081D
:10480C006447000868470008744700087C470008A4
:10481C0084470008884700088C4700089447000824
:10482C009C470008A4470008AC470008B4470008A0
:0C483C00C0470008CC470008D447000823
:04484800AD010008B6
:04484C0089010008D6
:0448500000093D001E
:0400000508000BE5FF
:00000001FF
