:020000040800F2
:1000000000200020490200083102000833020008E5
:1000100000000000000000000000000000000000E0
:100020000000000000000000000000003502000891
:10003000000000000000000037020008390200083C
:100040009902000899020008990200089902000824
:100050009902000899020008990200089902000814
:100060009902000899020008990200089902000804
:100070009902000899020008000000009902000897
:1000800000000000990200080000000000000000CD
:10009000B52000080000000099020008990200083D
:1000A00099020008990200089902000899020008C4
:1000B00099020008990200089902000899020008B4
:1000C00010B5064C2378002B07D1054B002B02D02E
:1000D000044800E000BF0123237010BD0C00002085
:1000E00000000000E42E0008044B10B5002B03D0E4
:1000F0000349044800E000BF10BDC04600000000F6
:1001000010000020E42E00080023C25C0133002A06
:10011000FBD1581E70470000002243088B4274D365
:1001200003098B425FD3030A8B4244D3030B8B42F8
:1001300028D3030C8B420DD3FF22090212BA030C01
:100140008B4202D31212090265D0030B8B4219D3E2
:1001500000E0090AC30B8B4201D3CB03C01A524102
:10016000830B8B4201D38B03C01A5241430B8B424A
:1001700001D34B03C01A5241030B8B4201D30B0333
:10018000C01A5241C30A8B4201D3CB02C01A52415A
:10019000830A8B4201D38B02C01A5241430A8B421D
:1001A00001D34B02C01A5241030A8B4201D30B0206
:1001B000C01A5241CDD2C3098B4201D3CB01C01A20
:1001C000524183098B4201D38B01C01A524143092A
:1001D0008B4201D34B01C01A524103098B4201D318
:1001E0000B01C01A5241C3088B4201D3CB00C01A85
:1001F000524183088B4201D38B00C01A52414308FD
:100200008B4201D34B00C01A5241411A00D2014621
:10021000524110467047FFE701B5002000F006F894
:1002200002BDC0460029F7D076E770477047C04648
:10023000FEE7FEE770477047024A13680133136018
:100240007047C046900700200D488546002103E016
:100250000C4B5B58435004310B480C4B42189A42EC
:10026000F6D30B4A02E0002313600432094B9A4292
:10027000F9D300F013F802F0E7FD01F0B7FAFEE75A
:1002800000200020EC330008000000200C000020BB
:100290000C000020D0070020FEE70000104B19687A
:1002A000802252000A431A60DA680E490A40DA6076
:1002B0001A680D490A401A609A6801218A439A60B7
:1002C0001A680A490A401A60DA6809490A40DA607D
:1002D00000221A61074B802212059A607047C046BF
:1002E000001002400C40FF88F6FFF6FEFFFFFBFF08
:1002F000FFFF02FF00ED00E010B50400FA229200BB
:10030000012100F019FA012801D1207810BD002048
:10031000FCE7000010B5020003095B000649585ACB
:100320000F2313405B00054A995AFFF7F5FE80B290
:1003300000F0B8F910BDC046442F0008242F000873
:10034000F0B5DE464F464646C0B586B00700884643
:1003500001920A00002102F0BCFD1120FFF7DAFF34
:10036000002000F087F9052000F080F900F0B2F9D4
:10037000012000F07FF9FA2292000221380000F0FB
:10038000DBF9022800D0D4E07C783B783B2B03D00B
:100390003F2B01D00020CDE0BD1C05AB00221A7020
:1003A0005A7000239946002619E06B1C9B462800D2
:1003B000FFF7A2FF4B46012B01D95D461DE005ABBF
:1003C0004A4698545D4618E06B1C9B462800FFF790
:1003D00093FF5D4613E063B20024002B18DB0F236C
:1003E00022009A43D3B2002B21D0EB1B43451ED2EF
:1003F0004B46032B1BD8E306D7D4A306E4D46306ED
:10040000E9D56B1C9B462800FFF776FF5D46E2E7C7
:100410006B1C9B462800FFF76FFF04004B4601331F
:10042000DBB29946030700D001265D46D7E77B780B
:100430000F22110019401A4243D1002E48D105ABBA
:100440005B78002B02D0802B00D079E0002B4BD1C1
:1004500005AB1B78112B01D0002B02D1019B002B87
:1004600046D0019A002A01D005AB1A70019B002BDF
:1004700001D0DB054AD4052000F0F8F804A8FF23DA
:100480000370EF3B437005AB1A78827011235B4217
:100490005340C370042100F08DF9FA22920002212A
:1004A00003A800F049F902284CD103AB1B78FF2BBD
:1004B0004AD103AB5B78002B1CD0102B2BD0002033
:1004C00038E0EB329200280000F036F92D18B4E73E
:1004D0006C1C2800FFF710FF01E00136F6B2E31BA9
:1004E0009E42FAD32500AAE705AB1878FFF712FF62
:1004F000E81B1FE0FA229200012102AB981D00F0D8
:100500001BF9012822D105AB11221A7005AB18780E
:10051000FFF700FFECE7FA229200022102AB981DE0
:1005200000F00AF9022813D103AB9A7805AB1A70D0
:10053000ECE7002006B0E0BCBB46B146A846F0BDE3
:100540000020F7E70020F5E70020F3E70020F1E7BF
:100550000020EFE710B5012000F098F8012000F02E
:1005600089F810BD70B504000D001600012000F0E0
:100570008DF8012000F07EF8052000F077F80020CB
:1005800000F078F8052000F071F8002000F07EF807
:10059000052000F06BF8320029002000FFF7D0FEA4
:1005A00070BDF0B5C64600B582B00400042955D927
:1005B0004D1F052902D00379AB4251D1637898468B
:1005C0000521200000F0F6F800260027FA2292000C
:1005D00001216B46D81D00F0AFF8012842D1002E52
:1005E0000BD0012EF2D17D1C6B4607331B78E355EF
:1005F000280002B080BCB846F0BD6B4607331B78BC
:100600000F2219009143602913D0902911D043453E
:100610001AD1002D13D12779002F01D10137FF37CF
:10062000FA2292003900200000F086F8B842DFD1AB
:10063000CCE7602BCAD0E35501370126C6E7601D21
:10064000217900F0B7F8C1E7FA22E0199200012100
:1006500000F072F8012807D10137B7E70025C7E796
:100660000025C5E70025C3E70025C1E710B501F067
:10067000B5FC10BD002803D08022034B9A6170475F
:1006800080221204F9E7C04600080050002803D079
:100690004022034B9A6170478022D203F9E7C0469B
:1006A0000004005010B50A4A11680124A1431160EA
:1006B000410010694000FF235B0018404843F73BAE
:1006C000FF3B9843D06013682343136010BDC046BE
:1006D000003801400B4BDB69DB03FBD40A4B196884
:1006E0000120814319605A68120C120482214900CA
:1006F0000A435A60054A002111601A6802431A60D1
:100700007047C04600380140580002402C010020CC
:1007100010B5074B5868074B1B68C3188220800030
:10072000C01A82214900FFF77DFD080010BDC046B8
:10073000580002402C010020F8B507000E001400FC
:10074000194B1D68AD18FFF7E3FFB04208D2002C2B
:10075000F9D0154B1B685B1BF5D400263000F8BDA3
:100760003500002DFAD0114B196882246400641AF8
:10077000AC4200D92C00002F06D00D4BC918220026
:10078000380002F093FB3F192D1B084B1A68A01884
:10079000186082235B009842E3D31900FFF742FD03
:1007A000024B1960DDE7C046900700202C010020B5
:1007B0002800002070B504000D1E32D0194BDB69F3
:1007C000DB03FBD40FE0174BDB69174A1340802B88
:1007D000F9D1FFF79DFFB0421FD331000022002066
:1007E000FFF7AAFFAD1B002D1BD02E0082235B005C
:1007F0009D4200D91E0032001300013A002BE2D0C6
:10080000084B012149421962611C20789862054B0E
:10081000DB695B06FBD50C00EEE7FFF779FF010013
:10082000DCE770BD0038014080000100F0B5C6462D
:1008300000B582B00100804A106B01231843106399
:10084000126B13400193019B7C4B1A687C4810404B
:100850007C4A02431A607C487C4A1B687C4C2340DB
:10086000102B00D1E3E0754B9860DA60734A53684F
:100870001B0C1B048220400003435360754C23680B
:1008800075481840C0239B02034323601368012767
:100890003B431360714A1368BB431360A023DB051D
:1008A00018686F4D28408024A40220431860586ABD
:1008B0000F26B0430B3E30435862986828400443EB
:1008C0009C605868674C20405860D868054080207C
:1008D00040022843D8601868634D284080242403D0
:1008E00020431860586AEC36B043B03E304358623B
:1008F0009868284004439C6058685C4C20405860CD
:10090000D86828408025ED020543DD60584B9E6184
:100910001C68584D2C4080204001204318609C6882
:100920002C4080208001204398605868B043586074
:10093000514B8020804698611C68504E3440802086
:10094000C001844604431C6098683040802636020B
:100950003043986058684446A0435860364B586B03
:10096000644620435863586B204000900098DC6C2C
:10097000032084433C43DC6413680930834303430E
:10098000136013683E481840A0235B0103431360C3
:1009900053682B40C025AD011D435560536839484D
:1009A0001840E023DB0003435360136836480340DC
:1009B0001E43166053691B0E1B065361906880230B
:1009C0001B01034393609368202003439360002935
:1009D00000D12E492E4B18684008FFF79DFB1F4B96
:1009E0001A69FF218A430004000C104318615968FA
:1009F000802212010A435A60012252421A62254A99
:100A0000002111601A6801310A431A60134BDB6937
:100A10009B02FBD5114BDB695B02F7D50F4A93684C
:100A200040210B43936002B080BCB846F0BD034B3D
:100A3000D8609A601AE7C046001002405800024091
:100A40000F80FFFFA0200000243801402800002074
:100A500010400000A8000240FFFFF0FF00380140F6
:100A6000FFFFFCFFFFFEFFFFFFFFF3FFFFFDFFFFA8
:100A700000040050FFCFFFFF00080050FF3FFFFFC2
:100A8000FFE9FFEFFFF8FFFFFF7FFFFF00127A0093
:100A9000000000202C01002010B50020FFF7C6FE4A
:100AA00010BD0000014B18607047C0465005002083
:100AB00010B50E4B1B68DB0703D50C4B5B681B04A2
:100AC000F7D10B4A93688024A343936003E0027834
:100AD0009A62013021004C1E002905D0054B1B688D
:100AE000DA691206FAD5F2E710BDC046800002406E
:100AF000004400405005002010B50400FFF704FB3F
:100B000001002000FFF7D4FF10BD092802D83030C3
:100B1000C0B270475730C0B2FBE730B583B00400B5
:100B200001AB00225A7014E020780009FFF7EDFFB6
:100B30006B46187101A8FFF7DFFF23780F201840DC
:100B4000FFF7E3FF6B46187101A8FFF7D5FF0134EB
:100B500029004D1E0029E7D103B030BD30B5134B3D
:100B60005B681B04FBD1114B1A680124A2431A6075
:100B70000F4CA26880252A43A2600E4C1B680E4AC7
:100B80001340102B0DD0094B9860DC60074A536866
:100B90001B0C1B040B435360136801210B431360B0
:100BA00030BD024BD8609C60F0E7C0468000024038
:100BB000004400402844004010400000F0B583B0DD
:100BC0000100584A106B012318431063126B134045
:100BD0000193019B544B1A6854481040544A0243F5
:100BE0001A605448544A1B68544C2340102B00D1BF
:100BF00094E04D4B9860DA604B4A53681B0C1B0421
:100C00008420C000034353604D4B18684D4C044092
:100C10008020C0032043186010680125284310601D
:100C2000494C226841481040484A024322601A68F1
:100C3000474810408022D20402431A60A023DB05FB
:100C400018683024A043202738431860186A414EA2
:100C500006408020C000304318629A68A2433A439D
:100C60009A605A68042082435A60DA68A2430C30C2
:100C70000243DA6018689034A04360373843186044
:100C8000186A354E06408020C001304318629A68C9
:100C9000A2433A439A605A68082082435A60DA684D
:100CA000A24338300243DA601E4A906B8024A402CB
:100CB00020439063936B23400093009BD36C0C20E4
:100CC0008343D364254C2368834303432360236811
:100CD000234A134023606368224A13406360224B17
:100CE00018684B08C018FFF717FA0004000CE06002
:100CF00023681D432560194BDB699B02FBD5174B0D
:100D0000DB695B02F7D5154B9A6840210A439A606C
:100D10009A6840318A439A6003B0F0BD024BD860B4
:100D20009A6069E7001002406C0002400F80FFFFEC
:100D3000A0200000244400403001002010400000AA
:100D4000A8000240FFFF0FFF80000240902000003B
:100D5000FFFFFFF0FFF0FFFFFF0FFFFF0044004029
:100D6000FFE9FFEFFFCFFFFF00000020F0B50023F9
:100D700000E00133102B0BD85C00144D645D8442FD
:100D8000F7D15D00114C641964788C42F1D11AE0FE
:100D9000A0235B039C466044800201238B400668CD
:100DA0001C008C4067003D19AE43344304608168E9
:100DB000A94339438160C168A943C160002A03D0B7
:100DC000002293408361F0BD1022FAE7642F0008EF
:100DD000F8B50F00A0235B039C4660448502012602
:100DE0008E4002E02B68A3432B6028683100B94095
:100DF0004C0064182040FFF78FF90228F2D82869C8
:100E00003040F8BD014B18687047C046900700207D
:100E100010B50C4B5B688421C900C91A0A4C20002C
:100E200001F082FD0948FFF73DFE200001F067FE5A
:100E3000002804D00548FFF735FE034810BD002008
:100E4000FCE7C0466C0002407407002000440040EC
:100E5000F0B5DE4657464E464546E0B58DB0842295
:100E6000D14BD200D149D24801F04CFD01220521DD
:100E70000020FFF77BFF00220A210120FFF776FF09
:100E8000CC48FFF70FFECC48FFF736FE002695E270
:100E9000CA48FFF731FE0A99202900D920210A917A
:100EA000C748FFF705FEC748FFF726FE83E220008C
:100EB00001F0C5FF0700FF2803D9C348FFF71CFE58
:100EC00079E2200001F0BBFF08900138C31C03D970
:100ED000BE48FFF711FE6EE200230A93200001F0E6
:100EE00024FE00281FD1089B88229200934200D93B
:100EF00013000893F8B2089AB14900F0B5FD0990C3
:100F0000089B984214D00A9B5A1E0A92002BF1D1DA
:100F1000AF48FFF7F1FD042109A8FFF7FEFDA9483E
:100F2000FFF7EAFD47E2200001F089FF0A90DAE7C7
:100F3000A848FFF7E1FD0899A148FFF7EEFDA14899
:100F4000FFF7DAFD37E2200001F079FF0700FF2804
:100F500003D99D48FFF7D0FD2DE2882292009849E1
:100F6000200001F0AAFE0890002803D19A48FFF75C
:100F7000C3FD20E200230A93200001F0D6FD0028E3
:100F800018D1F8B2089A8E4900F0CEFD0990089B5E
:100F9000984214D00A9B5A1E0A92002BF1D18F4816
:100FA000FFF7AAFD042109A8FFF7B7FD8548FFF761
:100FB000A3FD00E2200001F042FF0A90E1E785482E
:100FC000FFF79AFD089A130E110AFF200002014054
:100FD0000B431102FF20000401400B431206134390
:100FE0000893042108A8FFF798FD7648FFF784FDD1
:100FF000E1E1882292007249200001F05EFE0100CA
:101000000890431FFF2B15D8052803D96C4A127985
:10101000934213D16A4F3800FFF7C3FA08906D4826
:10102000FFF76AFD08993800FFF777FD6548FFF77D
:1010300063FDC0E16A48FFF75FFDBCE16948FFF767
:101040005BFD08995E48FFF768FD5E48FFF754FDB9
:10105000B1E1002E2CD05F48FFF74EFD02210BA816
:10106000FFF75BFD5748FFF747FD002688229200F7
:101070005349200001F021FE01000890431FFF2B7F
:101080001AD8052803D94E4A1279934218D14C48F0
:10109000FFF787FA089002281DD8089B022B21D061
:1010A0005148FFF729FD0BAB504A1A80012682E117
:1010B0004F48FFF721FDD9E74948FFF71DFD7AE1C9
:1010C0004848FFF719FD08993D48FFF726FD3D48C0
:1010D000FFF712FD6FE14748FFF70EFD3948FFF7B4
:1010E0000BFDDAE7023B3649591802220BA801F042
:1010F000DDFE01265FE1002E0BD03648FFF7FCFC39
:1011000002210BA8FFF709FD2E48FFF7F5FC00268A
:1011100051E13948FFF7F0FC2A48FFF7EDFC4AE1BE
:101120002C48FFF7E9FC09210020FFF751FE0028B9
:1011300007D132480121FFF7F0FC2248FFF7DCFC21
:1011400039E12F48F6E7200001F079FE0700072873
:1011500003D92C48FFF7D0FC2DE1200001F06FFEF1
:1011600080460F2803D92848FFF7C6FC23E120005A
:1011700001F065FE02000990431C07D0414638008B
:10118000FFF7F4FD2148FFF7B7FC14E12048FFF713
:10119000B3FC10E1200001F052FE0700072839D906
:1011A0001848FFF7A9FC06E18C2F00083001002049
:1011B0007407002000440040902F0008982F00087A
:1011C0005405002064320008B02F0008C82F000822
:1011D000E02F0008FC2F000800300008183000083D
:1011E0003830000854300008AC3000086EEEFFFFC5
:1011F0006C30000878300008CC300008882F0008D8
:10120000FC2E0008FC3000081431000840310008B2
:1012100028310008200001F012FE01000F2803D938
:10122000C248FFF769FCC6E03800FFF7D1FD09901E
:10123000BF48FFF761FC099B5A1E934109930121A6
:1012400009A8FFF76AFCBB48FFF756FCB3E0002390
:101250000993200001F069FC002813D18821099A24
:101260008900B548FFF77EF9089001280FD9B048EA
:10127000FFF742FC0899B048FFF74FFCAD48FFF775
:101280003BFC98E0200001F0DAFD0990E6E7FFF76B
:1012900061F9AA48FFF730FC8DE0FFF75BF9A84839
:1012A000FFF72AFC87E0A748FFF726FC8822920078
:1012B000A149200001F001FD011E089003D1A248C0
:1012C000FFF71AFC77E09C48FFF727FC9F48FFF7E1
:1012D00013FCF4E70020FFF7D9F99948FFF70CFC5D
:1012E00069E09B4B1B689B4A944663440893002328
:1012F0000A93200001F019FC002819D10923099351
:10130000200001F012FC002817D1200001F01BFB87
:101310008F4B1B68089A9B1A14D509990A98FFF7F6
:1013200057FD002812D0FFF773FD0028F0D042E0EF
:10133000200001F084FD0A90E0E7200001F07FFD2D
:101340000990E2E78448FFF7D7FB34E07C48FFF7D9
:10135000D3FB30E0002308937548FFF7CDFB14E082
:10136000089800F04BFB0A90012000F037FE099B23
:101370005A1E0992002B02D00A9B002BF0D00A9B28
:10138000002B0AD1089B02330893089BFF2B0FD830
:101390000A23099300230A93E9E77048FFF7ACFB9F
:1013A000012108A8FFF7B9FB6848FFF7A5FBE9E7AB
:1013B0006048FFF7A1FB200001F0C5FAFFF728FD08
:1013C000041EFBD088239B000A930AAB00935A4B60
:1013D0001922634901F0FDFB192800D958E5800066
:1013E000604B1B589F465648FFF786FB0A2000F0CB
:1013F000F5FDBFF34F8F5C4B5C4ADA60BFF34F8F54
:10140000C046FDE75A48FFF777FBD4E75848FFF797
:1014100073FBD0E75648FFF76FFBCCE75448FFF764
:101420006BFBC8E7200001F00AFD099000F0DCFB2F
:10143000002803D04F48FFF75FFBBCE74048FFF7A9
:101440005BFBB8E700230993200001F06EFB002846
:1014500006D10998FFF7EAF93948FFF74DFBAAE7EB
:10146000200001F0ECFC0990F3E7002E01D0002DE4
:1014700009D0200001F0E3FC0700FF2807D93E480F
:10148000FFF73AFB97E73D48FFF736FBF1E7882285
:1014900092002949200001F010FC0890002803D197
:1014A0003748FFF729FB86E700230A93200001F065
:1014B0003CFB002814D12248FFF71EFBF8B2089A23
:1014C0001D4900F031FB0990089B984200D12FE1A3
:1014D0000A9B5A1E0A92002BF0D1050001266AE7EA
:1014E000200001F0ACFC0A90E5E7002E01D0002DB1
:1014F00004D01348FFF700FB00265CE71F48FFF706
:10150000FBFA2E0057E7200001F099FC0390FF281A
:1015100003D91948FFF7F0FA4DE7200001F005FB69
:10152000002831D11748FFF7E7FA44E714310008E3
:10153000FC2F0008643200085405002048310008E0
:101540004031000864310008703100086C31000837
:101550009007002030750000803100088C310008B1
:10156000803300086832000800ED00E00400FA054E
:1015700090310008A0310008B02F0008D4310008D5
:1015800000300008DC310008200001F058FC059014
:10159000200001F0CAFA0028C4D0200001F04FFC5E
:1015A0000690200001F0C1FA0028BBD0200001F015
:1015B00046FC0790200001F0B8FA0028B2D02000C5
:1015C00001F03DFC04900028ACD10A90200001F00D
:1015D000ACFA002812D1200001F0B5F9049B1F00DD
:1015E000B0462E00A146002F0DD0FF2F24D83B007F
:1015F00088229200974220D913001EE0200001F0BB
:101600001EFC0A90E7E74C4B1C68079B9C46644411
:10161000494B1B681B1B08D506990598FFF7D8FB9B
:101620000028F5D10323089308E0350046464C46D0
:101630004248FFF761FABEE6FF2308930A9E00E0E6
:101640001E006B46187B089A3D4900F00DFA099080
:10165000089B984216D0731E002EF1D146464C4688
:101660001F001B213748FFF779FA099B7A3309934A
:10167000012109A8FFF772FA01213348FFF76EFA3A
:101680003D0098E6002F2FD12D4B5F783F029B78CD
:101690001F432E48FFF730FA002FA4D135004646ED
:1016A0004C4601212848FFF759FA84E6244B9B4613
:1016B000185D65000009FFF728FA254E70555B4656
:1016C0001B5D01350F201840FFF71FFA70550134DC
:1016D0000899A142EAD84E46D14649001C48FFF776
:1016E0003DFA089BFF1AD7E7049CCA46B146EFE7CC
:1016F000882292001249200001F0DFFA01000890D0
:1017000080235B00984203D91248FFF7F5F952E6AF
:101710000B4F380000F098F808900C48FFF7ECF9F0
:1017200008993800FFF7F9F90748FFF7E5F942E6AD
:10173000050001263FE6C0469007002080310008E2
:1017400054050020E02F000864320008FC2F000838
:10175000300100203C32000800B595B01422002171
:101760000FA801F0B6FB3822002101A801F0B1FB5F
:10177000194A916B80235B050B439363022301930A
:10178000013B04930B93109301A800F0F3FC002895
:1017900000D0FEE70F230F930023119312931393AE
:1017A00001210FA800F0A4FF002800D0FEE70B489D
:1017B00000F028FC0A4A0B4B53600B48036A1B02DB
:1017C0001B0AC02109060B43036200239360073301
:1017D000136015B000BDC046001002400024F400A4
:1017E00010E000E07F3E000000ED00E000B585B0B5
:1017F000FFF7B2FF134BD96A01221143D962D96AAC
:101800000A400392039AD96A02221143D962D96A23
:101810000A400292029AD96A04221143D962DB6A11
:101820001A400192019BE1200003FFF7C7F9C8208D
:10183000400000F0D9F900F023F8FFF72DF9FFF789
:1018400007FBFCE70010024010B5030008000A0087
:1018500004E00A4AD2681A7022000133541E002A9A
:101860000BD0064A92689207FBD51978034A117388
:10187000024A9268D207FBD5EBE710BD0030014069
:10188000F0B583B0434B596B80204001014359634D
:101890005A6B02400192019A5A6B012422435A6307
:1018A0005B6B23400093009B3B4B1A68C0218A432B
:1018B00080252A431A601A6A38481040A022D201B3
:1018C00002431A629A688A432A439A60DA688A4312
:1018D0002A43DA601868324E30408022920010436A
:1018E0001860196A2F480840A021C90201431962F3
:1018F0009868304010439860D96831401143D960EE
:101900001868294E30408021090108431860186A80
:10191000264F0740A020C003384318629868304023
:1019200008439860D86830400143D960204B19685B
:101930004026B143196019683820814318380143A3
:10194000196019681B48014019601968A1431960A2
:1019500019680220814319601968A9431960196840
:101960001548014019601968144801400A431A607B
:101970005A6804218A435A60196811480840822134
:101980004900014319601A6832431A60002003B00D
:10199000F0BDC0460010024000040050FF0FFFFFE2
:1019A000FFFCFFFFFFFFF0FFFFF3FFFFFFFF0FFF55
:1019B00000300140FF3BFFFFFFF7FFFFFFFDFFFF90
:1019C000FBFEFFFF82B00C4B59688022D2010A4314
:1019D0005A601A6801218A431A6080235B000193D0
:1019E000019B5A1E0192002BFAD1034A1368012170
:1019F0000B43136002B070470054004010B5164A04
:101A000001235B42D361536814490B4014490143DD
:101A10000B435360134B19680A310F4B5A688023EC
:101A20009B0114001C401A4208D00E4B1B685B1A25
:101A3000F3D4FFF7C7FF0024200010BD064B9A69BE
:101A4000CC239B001A4203D1FFF7BCFF0124F3E72C
:101A5000FFF7B8FFF0E7C04600540040008000FCEC
:101A6000002001829007002070B514002A4A01234B
:101A70005B42D3615368294D2B4025040543284818
:101A8000284303435360274B1A68FA239B009C4664
:101A90006244214B5B689B0408D5224B1B689B1A50
:101AA000F7D4FFF78FFF0120404270BD1A4B9A69AF
:101AB000CC239B001A4213D123005D1E002B28D09B
:101AC000184B1B68FA22920094466344124A9269AA
:101AD00052070FD5104B5B6A0B702B000131ECE7FE
:101AE000FFF770FF02204042DFE7FFF76BFF0320A4
:101AF0004042DAE70B4A1268D21AF6D5064A9069D4
:101B0000CC2292001042E1D0FFF75CFF601B01384D
:101B1000CBE72000C9E7C04600540040008000FC2D
:101B2000002400829007002070B514002A4A012387
:101B30005B42D3615368294D2B4025040543284857
:101B4000284303435360274B1A68FA239B009C46A3
:101B50006244214B5B689B0408D5224B1B689B1A8F
:101B6000F7D4FFF72FFF0120404270BD1A4B9A694E
:101B7000CC239B001A4213D123005D1E002B28D0DA
:101B8000184B1B68FA22920094466344124A9269E9
:101B900092070FD50A78104B9A622B000131ECE7BF
:101BA000FFF710FF02204042DFE7FFF70BFF0320A3
:101BB0004042DAE70B4A1268D21AF6D5064A906913
:101BC000CC2292001042E1D0FFF7FCFE601B0138EE
:101BD000CBE72000C9E7C04600540040008000FC6D
:101BE000002000829007002010B582B0504B996B06
:101BF0008024A403214399639A6B22400192019AA5
:101C0000596B012211435963596B1140009100999E
:101C1000D96C484C0C40802149012143D964464984
:101C20000B6893430B60AF239B00984200D170E098
:101C30000FD82D3BFF3B984200D16CE000D970E0FB
:101C400000286AD0642801D13C4B0AE001204042C0
:101C50005DE0FA239B00984261D0394B984263D1F2
:101C6000002335480361A023DB051A6831490A4087
:101C70001A609C680C408022920122439A60DA68C4
:101C80001140802252010A43DA602E4B1A682E4C12
:101C90002240802109030A431A609A6822401143B6
:101CA00099605A6829491140802292000A435A607B
:101CB000DA6814408022D2022243DA601A68244C87
:101CC0002240802189020A431A609A682240114307
:101CD00099605A681F491140802252000A435A6095
:101CE000DA681440802252022243DA60026801213D
:101CF0000A4302605A6AEF318A43B0390A435A6292
:101D00005A6A31398A430B390A435A62002002B0B9
:101D100010BD114BA5E7114BA3E7084BA1E700232A
:101D20009FE701204042F2E701204042EFE7C04632
:101D300000100240FFCFFFFF005400404040F00081
:101D4000DC05000000040050FFFFF3FFFFFDFFFF74
:101D5000FFFFFCFFFFFEFFFF030210001203300035
:101D600070B5002811DB8308134DC0339B005C590C
:101D700003221040C000FC3216008640B4438901A3
:101D80000A40824022435A5170BD0F230340083B52
:101D90009B0806339B00094A944663445D6803240C
:101DA0002040C000FF2214008440A54389010A405E
:101DB00082402A435A60E7E700E100E000ED00E0DE
:101DC0001F2318401E3B8340014A13607047C046E2
:101DD00000E100E003688022D205904205D0124A5B
:101DE000904202D0114A904203D1702293434A6834
:101DF00013438022D205904205D00B4A904202D074
:101E00000A4A904203D10A4A1340CA681343802207
:101E100093430A69134303608B68C3620B68836250
:101E2000012343617047C04600080140001401408F
:101E3000FFFCFFFF704770B5041E14D03923C35C4C
:101E4000002B0AD0392502236355210001C9FFF771
:101E5000C1FF01236355002070BD38330022C254F6
:101E6000FFF7E8FFEEE70120F6E70268D3680121FB
:101E70000B43D3600268916807230B40062B03D005
:101E8000136801210B4313600020704770477047AF
:101E90007047704710B5040003681A6992070FD5A0
:101EA000DA6892070CD5032252421A6101230376A5
:101EB00003689B699B0755D0FFF7E9FF0023237652
:101EC00023681A69520712D5DA6852070FD505221E
:101ED00052421A610223237623689A69C0239B0029
:101EE0001A4245D02000FFF7D2FF00232376236853
:101EF0001A69120710D5DA6812070DD50922524265
:101F00001A61042323762368DB699B0737D02000FE
:101F1000FFF7BDFF0023237623681A69D20612D586
:101F2000DA68D2060FD5112252421A6108232376AD
:101F30002368DA69C0239B001A4227D02000FFF7EC
:101F4000A6FF0023237623681A69D20702D5DA6830
:101F5000D20722D423681A69520602D5DA685206DB
:101F600022D410BDFFF792FF2000FFF791FFA5E7F5
:101F70002000FFF78BFF2000FFF78AFFB5E7200066
:101F8000FFF784FF2000FFF783FFC3E72000FFF780
:101F90007DFF2000FFF77CFFD3E7022252421A6147
:101FA000200000F083F8D5E7412252421A61200058
:101FB000FFF76FFFD5E70000034A1168034B1B785A
:101FC0005B1813607047C046900700200400002093
:101FD000014B18687047C0469007002082B0084B3C
:101FE0001B680193019B431C00D00130002805D0E1
:101FF000034B1B68DB03F9D50138F7E702B07047E4
:1020000010E000E0014B18607047C046000000205F
:1020100030B587B00500002201001420FFF7A0FEB4
:102020001420FFF7CDFE1B4A536B04210B4353636F
:10203000694601A800F046FC059B002B15D100F075
:1020400031FC1549FEF768F8431E1448144A026033
:10205000144AC2604360002303618360FFF7EBFE14
:10206000041E06D0200007B030BD00F01BFC40006D
:10207000E7E70A48FFF7F9FE041EF3D1032D01D963
:102080000124EFE7002229001420FFF769FE064B28
:102090001D60E7E70010024040420F009407002057
:1020A00000080140E70300000800002010B5FFF71A
:1020B00083FF10BD10B50248FFF7ECFE10BDC0460F
:1020C0009407002010B5264BD9680C230B40082B31
:1020D00042D00C2B11D0042B09D0214B5A68520B43
:1020E00007231340013380200002984010BD1C4B91
:1020F0001B68DB0632D51B48F8E78A0C0F23134018
:10210000194AD25C890D032319400131144BDB6855
:10211000DB0309D55001801A8301181AC00080180A
:102120004002FDF7F9FFE1E70D4B1B68DB0609D51F
:1021300053019B1A9801C01AC00080180002FDF7D5
:10214000EBFFD3E753019B1A9801C01AC000801817
:102150008002FDF7E1FFC9E70448C7E70448C5E787
:102160000010024000093D00182F000800127A00FC
:102170000024F400F0B583B0041E00D193E2CA4BF2
:10218000DA680C251540DE6880235B021E40036878
:10219000DB0736D5082D2CD00C2D28D06368802283
:1021A000520293424DD0A022D202934250D0BE4B55
:1021B0001A68BE490A401A601A68802149020A401A
:1021C0000192019A1A68BA490A401A606368002BA2
:1021D0004AD0FFF7FDFE0700B34B1B689B0310D4EA
:1021E000FFF7F6FEC01B6428F6D903205CE2002E40
:1021F000D4D0AD4B1B689B0303D56368002B00D183
:1022000054E223689B0764D5E368042D3CD00C2D71
:1022100038D0002B00D1AEE0A3490A6809208243E0
:1022200013430B60FFF7D4FE06009F4B1B685B0750
:1022300000D597E0FFF7CCFE801B0228F5D90320DC
:1022400032E2994A116880235B020B431360BDE7B9
:10225000954B19688022D2020A431A6019688022BD
:1022600052020A431A60B1E7FFF7B2FE07008E4B35
:102270001B689B03C5D5FFF7ABFEC01B6428F6D9CE
:10228000032011E2002EC4D1874A1268520702D5FA
:10229000002B00D10CE2844E726886490A40216905
:1022A00009020A437260326809218A43134333608A
:1022B000FFF708FFF26812090F2313407E4AD35C30
:1022C000D8407E4B18600320FFF7A2FE002800D004
:1022D000EAE12368DB062CD5002D5FD1724B1B6829
:1022E0009B0503D5E369002B00D1E3E16E4A5368F7
:1022F00073490B40616A0B43536053681B021B0A0E
:10230000216A09060B435360636A590B013180232C
:102310001B028B40D16809090F220A4066498A5C7A
:10232000D340664A13600320FFF772FE002800D0F6
:10233000BAE123681B077DD56369002B67D05A4A31
:10234000136D01210B431365FFF742FE0600564B48
:102350001B6D9B076ED4FFF73BFE801B0228F6D94E
:102360000320A1E150494B68524A134022691202EE
:1023700013434B60ADE74C4A136801218B43136054
:10238000FFF726FE0600484B1B685B07A1D5FFF749
:102390001FFE801B0228F6D9032085E1E369002B8C
:1023A00022D0414A116880235B000B431360FFF782
:1023B0000FFE06003C4B1B689B0506D4FFF708FE8A
:1023C000801B0228F6D903206EE1374A53683C4946
:1023D0000B40616A0B43536053681B021B0A216A5E
:1023E00009060B435360A4E72F4A136835490B4095
:1023F0001360FFF7EDFD06002B4B1B689B0598D57E
:10240000FFF7E6FD801B0228F6D903204CE1264A9F
:10241000136D01218B431365FFF7DAFD0600224B94
:102420001B6D9B0706D5FFF7D3FD801B0228F6D94D
:10243000032039E123685B0700D48CE01A4B9B6BC7
:10244000DB001BD4184A916B80235B050B4393631D
:1024500001261D4B1B68DB0512D5A36880225200A4
:10246000934235D0002B4BD10F4B1A6D15490A40C2
:102470001A651A6D15490A401A652FE00026E8E72B
:10248000114A116880235B000B431360FFF7A0FD26
:1024900007000D4B1B68DB05DFD4FFF799FDC01B60
:1024A0006428F6D90320FFE000100240FFFFFEFF82
:1024B000FFFFFBFFFFE0FFFF002F000800000020F0
:1024C000FF1FFFFFFFFEFFFF00700040FFFBFFFF4D
:1024D0007E4A116D80235B000B431365A368002BBC
:1024E00028D0FFF775FD0700784B1B6D9B0530D496
:1024F000FFF76EFDC01B764B9842F5D90320D3E061
:10250000A022D200934209D0704B1A6D71490A4043
:102510001A651A6D70490A401A65DFE76B4B196D31
:10252000013AFF3A0A431A65196D802252000A43A4
:102530001A65D3E7FFF74CFD0700644B1B6D9B0545
:1025400007D5FFF745FDC01B614B9842F5D9032025
:10255000AAE0012E21D023689B063CD5A369002B5D
:1025600021D05A4B99680120014399605A6B02436C
:102570005A635A4A116A80239B010B431362FFF787
:1025800027FD0600514B9B689B0724D4FFF720FDD5
:10259000801B0228F6D9032086E04C4A936B5049F1
:1025A0000B409363D7E7494A936801218B439360BB
:1025B0004A4A136A4B490B401362FFF709FD0600B4
:1025C000424B9B689B0706D5FFF702FD801B022844
:1025D000F6D9032068E0A36A002B00D16CE00C2D33
:1025E00049D0022B12D0394A13683F490B4013607F
:1025F000FFF7EEFC0400354B1B689B0139D5FFF754
:10260000E7FC001B0228F6D903204DE02F4A13688F
:1026100035490B401360FFF7DBFC05002B4B1B68B3
:102620009B0106D5FFF7D4FC401B0228F6D90320F6
:102630003AE02649CB682D4A1340E26A206B0243F8
:10264000606B02431343CB600A6880235B0413432F
:102650000B60FFF7BDFC04001C4B1B689B0106D4FC
:10266000FFF7B6FC001B0228F6D903201CE000206F
:102670001AE0002018E0012B20D0144BDA688023E8
:102680005B021340E16A8B421AD1F0239B03134093
:10269000216B8B4216D1C0231B041A40636B9A42F4
:1026A00012D1002000E0012003B0F0BD0120FBE7C3
:1026B0000120F9E70120F7E70020F5E70120F3E723
:1026C0000120F1E70120EFE70120EDE700100240D3
:1026D00088130000FFFEFFFFFFFBFFFF000001402B
:1026E000FFFFFFEFFFDFFFFFFFFFFFFEFFFF02FF28
:1026F00070B504000D00002800D1B7E05F4B1A68E8
:10270000012313408B420AD25C490B680122934398
:102710002B430B600B681A40AA4200D0A8E0236844
:102720009B0706D5564AD368F0218B43A1680B431B
:10273000D3602368DB0764D56368022B09D0032BC1
:1027400029D0012B2DD04E4A1268920506D40120C3
:102750008BE04B4A1268920300D48BE04849CA6868
:10276000032082431343CB60FFF732FC060063680B
:10277000022B1CD0032B28D0012B34D0404BDB681C
:102780000C221A423DD0FFF723FC801B3D4B9842A0
:10279000F4D9032069E03A4A12689201DED401209C
:1027A00063E0374A12685207D8D401205DE0344B09
:1027B000DA680C231340082B23D0FFF709FC801B99
:1027C000304A9042F3D903204FE02D4BDA680C23B6
:1027D00013400C2B15D0FFF7FBFB801B294B9842B5
:1027E000F3D9032041E0264BDA680C231340042B75
:1027F00007D0FFF7EDFB801B224B9842F3D9032053
:1028000033E01E4B1A6801231340AB4209D91B4920
:102810000B68012293432B430B600B681A40AA42BA
:102820002AD123685B0706D5154AD36816490B40A1
:10283000E1680B43D36023681B0707D51049CB68B9
:10284000124A13402269D2001343CB60FFF73AFCCF
:102850000B4BDA6812090F2313400D4AD35CD840A2
:102860000C4B18600320FFF7D3FB70BD0120FCE781
:102870000120FAE70120F8E70120F6E700200240F6
:102880000010024088130000FFF8FFFFFFC7FFFFA2
:10289000002F000800000020014B18687047C04658
:1028A0000000002010B5FFF7F7FF044BDA68D20AEA
:1028B00007231340024AD35CD84010BD00100240E9
:1028C000102F000830B50F2303600C4AD4680C3B6E
:1028D00023404360D468F02323408360D468E0251C
:1028E000ED002C40C460D368DB082B400361044B2F
:1028F0001A68012313400B6030BDC046001002402F
:1029000000200240F8B504000E0015001F001C2234
:10291000002100F0DEFA2A000021300000F0D9FA90
:1029200066606561A760F8BD70B5040008002569A0
:102930006169FDF777FC2161A94200D170BDFEF706
:1029400061FA2060FAE770B50400C068A669F30771
:102950000ED42569854223D063681B5C0A2B17D0EF
:1029600001306169FDF75EFC08008D42F4D117E08B
:102970002369834214D063681B5C0A2B10D1093B86
:102980001E43A66101306169FDF74CFCE16007E080
:10299000093B1E43A66101306169FDF743FCE1601C
:1029A00070BDF0B5DE4657464E464546E0B585B0AB
:1029B0000600894693460393C06813689C466044AA
:1029C0007169FDF72FFC0D00B068FDF79DFB0190CC
:1029D0003369AB426FD073685B194A4613600023BA
:1029E000029311E0013202926B1CE4184B461C600A
:1029F00001357369AB4244D0F268AA4265D03269AE
:102A0000AA4265D0AB4253D9019B1A00013B002A70
:102A1000EED074686119625DB068C75CBA42F4D1E7
:102A2000884673699A465819F368C01A5B461B6852
:102A3000C01A5146FDF7F6FB029A8B1A0A2F01D0F5
:102A4000002BCFD00F001C00039B002B0DD0681C67
:102A50005146FDF7E7FBF1600123B2699A43130089
:102A6000B261424612780A2A07D05B4639001B68D9
:102A70009C4661445B4619601FE0093A1343B36109
:102A8000F3E7F368ED1A5B461B68EB1A029A9B1A90
:102A90005A461560039A002A05D00022F2600132DE
:102AA000B1699143B161802212061A43140004E017
:102AB00000231C0001E000231C00200005B0F0BC36
:102AC000BB46B246A946A046F0BD00231C00F4E771
:102AD00000231C00F1E700B583B00023019301330C
:102AE00001AAFFF75EFF03B000BD10B5416903699D
:102AF000CB18C068181AFDF795FB080010BD70B51B
:102B00000400FFF7F2FFE168002504E0481C61695A
:102B1000FDF788FB3000461E002805D001356368AC
:102B20005B5C0A2BF2D1280070BD30B583B0050084
:102B3000002300936A4601A9FFF733FF002800D065
:102B400001DB03B030BD44006408009400236A46F2
:102B500001A92800FFF725FF002801DB2018F0E776
:102B60000020EEE7F0B5C64600B505000F001600E0
:102B7000FFF7DBFF041E03D1200080BCB846F0BD88
:102B800039002800FFF7A7FF306000237B607360E7
:102B90003468002C03DB346870682418ECE76400A8
:102BA00064083460AB6898461800FDF7ADFA03007E
:102BB0001A00013B002A06D06A6811784246D25CAE
:102BC0009142F5D1D8E7391D2800FFF784FF7060E6
:102BD000E1E7F0B5DE4657464E464546E0B585B0DE
:102BE0008B46140098460E9B002B02D000230E9AB1
:102BF00013606A4602A9FFF7B5FF071E55D02700EC
:102C0000013C002F1FD0A3005A46D558009E7200E9
:102C100052080299280000F03BF90028EFD1280063
:102C2000FDF772FA814686420DD0019B9A46002B31
:102C3000E5D0A8191A00039900F02AF90028DED17E
:102C40005644B145DBD14346002B2ED0009A019B60
:102C50009C4662440E9B1B68934200D913000E9A57
:102C600013600BE0013B013A0092029A511C029161
:102C7000127841460A7001229446E044002B0FD09E
:102C8000009A002AEED10BE0013B013A0192039A2F
:102C9000511C0391127841460A7001229446E04487
:102CA000002B02D0019A002AEED1380005B0F0BC0A
:102CB000BB46B246A946A046F0BDF0B585B00C00B3
:102CC00015006A4602A9FFF74DFF00284BD04308C4
:102CD000012202409B18AB4244D80022002718E092
:102CE000019800283FD001380190039B591C0391A3
:102CF000197824E00B00413BDBB2052B35D837397E
:102D0000CBB221780B4323700132D2B2022A23D0F6
:102D10003000461E00282AD0002D21D0002A02D1E2
:102D200001370023237023781B012370009B002BA5
:102D3000D6D0013B0093029B591C029119780B00DD
:102D4000303BDBB2092BDCD90B00613BDBB2052B3E
:102D5000D0D85739CBB2D4E70134013D0022D7E7B0
:102D6000380000E0002005B0F0BD0020FBE738008F
:102D7000F9E770B584B00C006A4602A9FFF7F2FECD
:102D8000031E52D0E1B200250020002213E0019B77
:102D9000002B4ED0013B0193039B5E1C03961B78D6
:102DA00015E0002A1BD00A291DD0102922D0484343
:102DB000C018013223005C1E002B32D0009B002B78
:102DC000E5D0013B0093029B5E1C02961B78002815
:102DD000E7D1012AE5D1782BE3D11021E9E72D2BAA
:102DE000E1D10125E5E7303BDBB2092BDFD901203A
:102DF00040421CE01E00303EF6B2092E0FD91E00E4
:102E0000613EF6B2052E02D8573BDBB2CFE71E007B
:102E1000413EF6B2052E0FD8373BDBB2C7E7330091
:102E2000C5E7002D03D0404201E00120404204B03C
:102E300070BD01204042FAE701204042F7E710B59B
:102E40000A21FFF796FF10BD70B500260C4D0D4C02
:102E5000641BA410A64209D1002600F043F80A4DD5
:102E60000A4C641BA410A64205D170BDB300EB58F8
:102E700098470136EEE7B300EB5898470136F2E782
:102E8000E4330008E4330008E4330008E8330008C2
:102E900030B500240139A24201D1002005E0035DD4
:102EA00001340D5DAB42F6D0581B30BD10B58842E1
:102EB00002D98B18984203D3002307E08B5C83541C
:102EC000013AFBD210BDCC5CC45401339A42FAD112
:102ED000F8E703008218934200D17047197001335C
:102EE000F9E70000F8B5C046F8BC08BC9E4670473C
:0C2EF000F8B5C046F8BC08BC9E46704710
:102EFC0000000000000000000000000001020304BC
:102F0C000607080900000000010203040304060878
:102F1C000C10182030000000010001000200040019
:102F2C0008001000200040000C00140001000100FB
:102F3C000100740100018000740174012E02E8028A
:102F4C005C04D005440700000001000200030004EB
:102F5C00000600080000000000020003000D000E37
:102F6C00000800090106020701080109000B000C0A
:102F7C00020A020B0104010501030000010000001C
:102F8C00200A000052455345543A0A004552524F0C
:102F9C00523A20756E737570706F727465643A2056
:102FAC00000000004552524F523A20696E76616C17
:102FBC00696420616464726573730A004552524FF0
:102FCC00523A20696E76616C6964206C656E677428
:102FDC00680A00004552524F523A206E6F742061BD
:102FEC006C6C20627974657320726561643A2000A0
:102FFC004F4B3A004552524F523A20696E76616CF3
:10300C00696420646174610A000000004552524FEB
:10301C00523A206E6F7420616C6C20627974657307
:10302C00207772697474656E3A2000004552524FD5
:10303C00523A20696E76616C696420543D3020618F
:10304C007064750A000000004552524F523A206DD0
:10305C00616C666F726D656420617064753A2000F6
:10306C004F4B3A393030300A000000004552524F75
:10307C00523A206D6F7265207468616E2061205326
:10308C00572072657475726E65642C20756E73753D
:10309C0070706F7274656420627920743063000004
:1030AC004552524F523A20543020415044552065DD
:1030BC00786368616E6765206661696C65640000A1
:1030CC004552524F523A206C617374205357206111
:1030DC006C72656164792072657475726E656420BA
:1030EC006F7220743063206E6F742075736564008A
:1030FC004552524F523A20696E76616C6964207069
:10310C006F72740A000000004552524F523A206907
:10311C006E76616C69642070696E0A004552524F7C
:10312C00523A20696E76616C69642076616C7565C3
:10313C000A0000004F4B3A0A000000004552524F63
:10314C00523A206E6F20636172642064657465630B
:10315C007465640A00000000494E464F3A000000B6
:10316C002C00000056455253494F4E3D302E380A24
:10317C000000000054494D454F55543A0A000000D8
:10318C00307800004552524F523A4E4F5F43414EF9
:10319C000A0000004552524F523A20756E737570FA
:1031AC00706F72746564206B687A2076616C7565DB
:1031BC0020283130302C3430302C313030302C3120
:1031CC0035303029000000004552524F523A0A0067
:1031DC004552524F523A20693263727866657220BA
:1031EC003C6E6F746966795F706F72743E203C6ED2
:1031FC006F746966795F70696E3E203C6E6F74699E
:10320C0066795F74696D656F75745F6D733E203C94
:10321C00666F726D61743A303D636172676F3E2008
:10322C005B3C72657472795F636F756E743E5D00A2
:10323C004552524F523A20696E76616C6964206631
:10324C0072616D65206C656E20286D617820323559
:10325C0036206279746573290A000000900E00080C
:10326C00AE0E0008460F0008F20F000852100008BE
:10327C00F6100008201100084611000894110008EF
:10328C004E1200089A120008A6120008D412000868
:10329C00E212000854130008E61300080414000896
:1032AC000C140008141400081C1400082414000842
:1032BC00441400086A140008EA14000806150008F3
:1032CC00F0160008693263720000000069326377FF
:1032DC000000000074300000743063007430636CC4
:1032EC0061737400693263690000000067706F00DD
:1032FC0067706900617472006F666600696E666F54
:10330C00000000006F6E00006932636977616974B8
:10331C00000000006932637363616E00726573654F
:10332C0074000000637478006372780063617661E6
:10333C00696C0000636366670000000069326366B5
:10334C006700000069736F6366670000693263771A
:10335C006300000069326377636C61737400000072
:10336C006932637278666572000000007370697868
:10337C0000000000D0320008D8320008E03200080B
:10338C00E4320008E8320008F0320008F832000895
:10339C00FC3200080033000804330008083300082E
:1033AC0010330008143300082033000828330008B9
:1033BC003033000834330008383300084033000839
:1033CC0048330008503300085833000860330008B5
:0833DC006C330008783300088F
:0433E400E9000008F4
:0433E800C100000818
:0C33EC00000020000100000004000000B0
:0400000508000249A4
:00000001FF
