:020000040800F2
:1000000000000820AD1C00087927000879270008A7
:1000100079270008792700087927000800000000E8
:100020000000000000000000000000007927000828
:100030007927000800000000792700087D270008C4
:100040007927000879270008792700087927000810
:100050007927000879270008792700087927000800
:1000600079270008792700087927000879270008F0
:1000700079270008792700087927000879270008E0
:1000800079270008792700087927000879270008D0
:10009000BD200008CD200008792700087927000836
:1000A00079270008792700087927000879270008B0
:1000B00079270008792700087927000879270008A0
:1000C00079270008690A0008F90A0008792700085A
:1000D0007927000879270008792700087927000880
:1000E0007927000879270008792700087927000870
:1000F0007927000879270008792700087927000860
:10010000792700087927000879270008792700084F
:10011000792700087927000879270008792700083F
:10012000792700087927000879270008792700082F
:10013000792700087927000879270008792700081F
:10014000792700087927000879270008792700080F
:1001500079270008792700087927000879270008FF
:1001600079270008792700087927000879270008EF
:100170007927000879270008792700080000000087
:1001800079270008792700087927000879270008CF
:1001900079270008792700087927000879270008BF
:1001A00079270008792700087927000879270008AF
:1001B000792700087927000879270008690A0008CC
:1001C000F90A0008792700080000000079270008D4
:1001D000792700087927000879270008792700087F
:1001E00079270008DD200008ED20000879270008A5
:0801F0007927000879270008B7
:1001F80010B5064C2378002B07D1054B002B02D0F5
:100208000448AFF300800123237010BD7000002064
:10021800000000009C430008044B10B5002B03D0DD
:1002280003490448AFF3008010BDC0460000000039
:10023800740000209C4300080023C25C0133002A9C
:10024800FBD1581E7047000003B4714649084000AE
:100258004900095E49008E4403BC704700224308E8
:100268008B4274D303098B425FD3030A8B4244D376
:10027800030B8B4228D3030C8B420DD3FF220902B8
:1002880012BA030C8B4202D31212090265D0030B77
:100298008B4219D300E0090AC30B8B4201D3CB036D
:1002A800C01A5241830B8B4201D38B03C01A5241AF
:1002B800430B8B4201D34B03C01A5241030B8B42B1
:1002C80001D30B03C01A5241C30A8B4201D3CB029C
:1002D800C01A5241830A8B4201D38B02C01A524181
:1002E800430A8B4201D34B02C01A5241030A8B4284
:1002F80001D30B02C01A5241CDD2C3098B4201D39C
:10030800CB01C01A524183098B4201D38B01C01A19
:10031800524143098B4201D34B01C01A5241030990
:100328008B4201D30B01C01A5241C3088B4201D33F
:10033800CB00C01A524183088B4201D38B00C01AEC
:10034800524143088B4201D34B00C01A5241411A13
:1003580000D20146524110467047FFE701B5002020
:1003680000F0F0F802BDC0460029F7D076E77047E4
:1003780003460B437FD4002243088B4274D30309FE
:100388008B425FD3030A8B4244D3030B8B4228D39F
:10039800030C8B420DD3FF22090212BA030C8B42C5
:1003A80002D31212090265D0030B8B4219D300E065
:1003B800090AC30B8B4201D3CB03C01A5241830BEA
:1003C8008B4201D38B03C01A5241430B8B4201D39A
:1003D8004B03C01A5241030B8B4201D30B03C01AC3
:1003E8005241C30A8B4201D3CB02C01A5241830A3D
:1003F8008B4201D38B02C01A5241430A8B4201D36C
:100408004B02C01A5241030A8B4201D30B02C01A95
:100418005241CDD2C3098B4201D3CB01C01A5241FC
:1004280083098B4201D38B01C01A524143098B4285
:1004380001D34B01C01A524103098B4201D30B016E
:10044800C01A5241C3088B4201D3CB00C01A524193
:1004580083088B4201D38B00C01A524143088B4258
:1004680001D34B00C01A5241411A00D201465241F1
:10047800104670475DE0CA0F00D04942031000D310
:100488004042534000229C4603098B422DD3030A65
:100498008B4212D3FC22890112BA030A8B420CD375
:1004A800890192118B4208D3890192118B4204D39E
:1004B80089013AD0921100E08909C3098B4201D31E
:1004C800CB01C01A524183098B4201D38B01C01A58
:1004D800524143098B4201D34B01C01A52410309CF
:1004E8008B4201D30B01C01A5241C3088B4201D37E
:1004F800CB00C01A524183088B4201D38B00C01A2B
:100508005241D9D243088B4201D34B00C01A524101
:10051800411A00D20146634652415B10104601D38E
:100528004042002B00D54942704763465B1000D318
:10053800404201B5002000F005F802BD0029F8D0BE
:1005480016E770477047C0461C2101231B049842D8
:1005580001D3000C10391B0A984201D3000A08394C
:100568001B09984201D30009043902A2105C401803
:100578007047C046040302020101010100000000A7
:10058800000000007047000010B50400034802F0A6
:10059800F9F8200002F020F910BDC04600480040DC
:1005A80070B504000D00044802F0ECF829002000A2
:1005B80002F0EEF870BDC0460048004070B5040077
:1005C8000D00044802F0DEF82900200002F015F9B9
:1005D80070BDC0460048004070B582B0019115005A
:1005E8001E00FFF7D1FF1B48FFF7CEFF019C210E2D
:1005F800230AFF221202134019432302FF22120486
:10060800134019432406214301910B2D11D01D2DB0
:1006180017D1042101A8FFF7D1FF0F48FFF7B4FF56
:1006280006993000FFF7CAFF0C48FFF7ADFF02B08C
:1006380070BD022101A8FFF7C1FF0948FFF7A4FF19
:10064800EEE7042101A8FFF7B9FF0648FFF79CFF72
:10065800E6E7C046CC430008D043000888440008B9
:10066800D4430008D8430008F0B583B004000D0057
:1006780016001F00009313000A0001000548FFF749
:10068800ABFF009733002A002100034801F0ACFBC0
:1006980003B0F0BDDC43000800640040F0B583B04F
:1006A80004000D0016001F00009313000A0001004B
:1006B8000548FFF791FF009733002A0021000348FF
:1006C80001F092FB03B0F0BDEC4300080034004099
:1006D80010B5074C21000C311822200003F0C7F98F
:1006E800200018300C22002103F0D4F910BDC046B8
:1006F800C8010020002000E0013043001B189A00C8
:10070800044B9B185B68002B01D00228F4D9032303
:10071800181A7047C801002070B5002400E00134A1
:1007280063001B199B00094DEB185B68002B01D077
:10073800022CF4D9022C07D8044D63001E19B60008
:100748007051A8194160826070BDC046C801002080
:1007580010B560220021024803F09CF910BDC04684
:100768003C010020F8B504000023072B20D81D0009
:100778005A00D21892000F48125CD20702D50133F2
:10078800DBB2F2E707005E00F0188000381804308A
:10079800082203F06CF973199B0064000120DA59F0
:1007A80010400443DC511E00DB5D01221343F35566
:1007B800F8BDC0463C01002010B50400020000212D
:1007C800012002F07BFE22000E21032002F076FEBB
:1007D800014A2523D45410BD9C01002010B5040003
:1007E80002000721012002F069FE22000F210320E8
:1007F80002F064FE014A2623D45410BD9C01002057
:1008080010B5040002000E21012002F057FE22005C
:100818000C21052002F052FE10BD000070B5744B8B
:1008280000221A60734B5B6AFF321A4200D0DDE087
:10083800714B1868452800D9D8E0704B00221A601F
:100848000121196002321A606D4A51700231196033
:100858006C498C7B947004241C606B4C2478D47095
:1008680016254C5F05251D602512157106251D608E
:10087800547114254C5F07251D60251295710825B4
:100888001D60D4710C8901351D60250A15720A2571
:100898001D6054724C8901351D60250A95720C251E
:1008A8001D60D4720C24095F0D241C600C12147393
:1008B8000E241C605173554B9969002900D1596960
:1008C8000C124E4A0F2313604D4B9C731024146076
:1008D800D9734E490C8A11251560250A1D741225F5
:1008E80015605C741C254C5F1325156025129D74DA
:1008F80014251560DC741E24095F152414600C127D
:100908001C75162414605975414909680C12033581
:1009180015609C7518241460D97519211160187612
:10092800013111603749C87B587608880334146050
:10093800040A9C761C241460D87648880134146014
:10094800040A1C771E24146058771824085F1F2493
:10095800146004129C7720261660D877CD8B21244A
:100968001460280A9855222010601D55232515600B
:100978008E5D1E54242616600C5D5C55252414607B
:10098800085C9855262010604D5D1D55272515607B
:100998000C5D1C5428241460085C58551C200D5EFE
:1009A800292010602E121E55023414601D541A207E
:1009B800095E2B2010600D121D552C251560C9B23B
:1009C800195414480468240E5C550468240C013535
:1009D8005C550468240A01355C5504682F201C54B2
:1009E80030241460023010601955187070BDC0466C
:1009F80014010020006000408C000020100100203D
:100A0800900000209C010020C40100201801002053
:100A18000000002018420020084B1B68084A126892
:100A2800934207D2591C054A1160064AD25C064B0C
:100A38009A627047044BAA229A62FAE714010020CE
:100A48001001002090000020006000400023024AAE
:100A58001360024A1360704710010020140100203F
:100A680010B5224B9B691B070DD5204B9B695B0C6E
:100A78005B00FF221340442B18D11C4AD36908217C
:100A88000B43D36110BD194B9B69DB0616D4174B7A
:100A98009B695B0718D4154B9B699B0717D4134BAD
:100AA8009B699B0616D4114B9B69EBE70F4AD369E8
:100AB80008210B43D361FFF7C9FFE3E70B4AD3696A
:100AC80010210B43D361DDE7FFF7A8FEDAE7FFF754
:100AD800A3FFD7E7054BDA6920210A43DA619B694E
:100AE800DB07CFD4014B01229A61CBE700600040BD
:100AF80010B5FFF7ABFF10BD30B583B0C04A116B1E
:100B0800202319431163126B13400193019BBD4BC2
:100B18001C681F218020C00180239B0105E0400044
:100B280001221A40104301395B08002BF7D1884095
:100B3800FFF70AFDFF2318404000FC3B83409C431D
:100B48001F218020C00180239B0105E04000012275
:100B58001A40104301395B08002BF7D18840FFF792
:100B6800F3FCFF2318404000FD3B83401C43A54B8A
:100B78001C605C6A1F214020202305E04000012200
:100B88001A40104301395B08002BF7D18840FFF762
:100B9800DBFCFF2318408000F03B83409C431F216F
:100BA8004020202305E0400001221A40104301396B
:100BB8005B08002BF7D18840FFF7C6FCFF231840DD
:100BC8008000FB3B83401C438E4B5C629C681F216A
:100BD8008020C00180239B0105E0400001221A40CB
:100BE800104301395B08002BF7D18840FFF7ACFCB4
:100BF800FF2318404000FC3B83409C431F2180207A
:100C0800C00180239B0105E0400001221A401043E7
:100C180001395B08002BF7D18840FFF795FCFF23CB
:100C280018404000FD3B83401C43764A946053685B
:100C380075490B408020C00103435360D4681F21CD
:100C480080239B0105E0400001221A40104301392E
:100C58005B08002BF7D18840FFF776FCFF2318408C
:100C68004000FC3B83409C431F218020C00180231F
:100C78009B0105E0400001221A40104301395B083E
:100C8800002BF7D18840FFF75FFCFF231840400096
:100C9800FE3B83401C435B4BDC601C681F218020AB
:100CA80000028023DB0105E0400001221A401043C6
:100CB80001395B08002BF7D18840FFF745FCFF237B
:100CC80018404000FC3B83409C431F2180200002C9
:100CD8008023DB0105E0400001221A40104301395E
:100CE8005B08002BF7D18840FFF72EFCFF23184044
:100CF8004000FD3B83401C43424B1C605C6A1F2143
:100D08008020402305E0400001221A4010430139A9
:100D18005B08002BF7D18840FFF716FCFF2318402B
:100D28008000F03B83409C431F218020402305E046
:100D3800400001221A40104301395B08002BF7D10B
:100D48008840FFF701FCFF2318408000FB3B8340ED
:100D58001C432C4B5C629C681F218020000280236E
:100D6800DB0105E0400001221A40104301395B080D
:100D7800002BF7D18840FFF7E7FBFF23184040001E
:100D8800FC3B83409C431F21802000028023DB0121
:100D980005E0400001221A40104301395B08002B8E
:100DA800F7D18840FFF7D0FBFF2318404000FD3BF8
:100DB80083401C43134A9460536814490B408020B5
:100DC800000203435360D4681F218023DB0105E040
:100DD800400001221A40104301395B08002BF7D16B
:100DE8008840FFF7B1FBFF2318404000FC3B8340DD
:100DF8009C431F21802000028023DB010EE0C046B7
:100E08000038024000140240FFBFFFFFFF7FFFFFD2
:100E1800400001221A40104301395B08002BF7D12A
:100E28008840FFF791FBFF2303405B00012002008D
:100E38009A401443264BDC60264B196C80246404CA
:100E4800214319641A6C22400092009A90241A597E
:100E5800214911408022D2030A431A511F49002315
:100E68001F4A8B54802424068C6001328B54C8603E
:100E78001C4B1A6882431A601B4A1A619A68D20A84
:100E8800D20244252A439A609D68802212022A438E
:100E98009A601A6802431A601A6808252A431A6079
:100EA8001A6808352A431A601A6870352A431A6086
:100EB8001A68603D2A431A601A681C3D2A431A6062
:100EC8001A68023D2A431A608C60C86003B030BDBE
:100ED8000014024000380240FFFF3FFF00E100E03D
:100EE8005F0300000060004005011000F0B5DE4619
:100EF80057464E464546E0B5ADB0DB4CA368F025F5
:100F0800AB43A360A368D94A1340A360A368D84A37
:100F18001340A360D74802F087FBD74BD74A5A60E3
:100F2800D74923228D5400229A6007321A60236B16
:100F3800012633432363236B33401493149B226BA2
:100F480002231A432263226B13401393139B226BD1
:100F580004231A432263226B13401293129B226BC1
:100F680008231A432263226B13401193119B226BAF
:100F780010231A432263226B13401093109B226B99
:100F880020231A432263226B13400F930F9B0120E7
:100F9800FFF712FC0120FFF721FCE120000301F01C
:100FA8004DFCE1256D02280002F068F8B54F3800C5
:100FB80001F008F9380001F067FA28220021B24848
:100FC80002F068FD24220021B04802F063FD2422CB
:100FD8000021AF4802F05EFD9620800101F02EFE50
:100FE800AC4801F0CFFB0721AB4801F0D1FBFA2058
:100FF80002F006FB280001F021FE07220921A7487C
:10100800FFF78AFBA64B1E70FFF776FD80252D01A2
:10101800A44B2A00A44923A802F00CFBA34B2A00E6
:10102800A3491CA802F006FB8422A24BD200A249C5
:1010380015A802F0FFFAA148FFF7A6FA0823A04A6C
:101048001D21A048FFF72AFB9F4B1A689F498C4631
:10105800624402921A68894691441A688846904404
:101068001D68FA23DB009C466544636F1E43666770
:101078007D4B5B6F9B07FBD5954B964A1A60964A4A
:101088001A6000225A60954A9A60914BDB680722E1
:10109800110019401A42F8D103918D4B904A1A60F9
:1010A8000C000A910591099104910B9106918A46C9
:1010B80007910027002611E28A48FFF765FABFF377
:1010C8004F8F6F49CB68E022D2001A40864B1343FA
:1010D800CB60BFF34F8FC046FDE77B4B1B687B4A55
:1010E80091469944814B9B468023DB0000935B46E5
:1010F8002AAA2BA97E4801F00FF8089000905B46B9
:101108002A9A2B997B48FFF767FA2A9B002B00D174
:10111800F9E16C4B2B9A9A4200D0F4E1734B1B789F
:10112800012B00D0EFE10B9B012B14D00823644A5C
:101138001D217148FFF798FA634B1D68FA23DB00FD
:101148009C466544089B694A2A992B98FFF7A6FA9A
:10115800039B0B93D7E100231A001D216748FFF773
:1011680083FAE3E76648FFF70FFA002501E0013547
:10117800EDB2072D12D86B005B199B00614A9B5C8E
:10118800DB07F4D56B0059198900885840085218B4
:10119800043208231D21FFF767FAE8E7039DB9E148
:1011A800524D8023DB0000932B002AAA2BA9564816
:1011B80000F0B2FF089000902B002A9A2B99534810
:1011C800FFF70AFA404B1B68404A904698442B9B0D
:1011D8004F4A94466344072B03D89B004D4AD35883
:1011E8009F46039D002D00D19AE1404D29002B9880
:1011F800FFF7B8FA089B2A002A992B98FFF734FAC8
:10120800039D8DE1394A53781B02107803431F4927
:101218008B460B80D078000200B29178084359467B
:10122800088155792D02127915430D82584364219E
:10123800FFF79EF85B465861612D04D92B4B61225C
:101248001A7100225A71344B1B68002B01DA0125F0
:10125800C8E73248FFF798F9244B2F4A12681A71E9
:1012680000225A710125BDE700380240FFE3FFFF65
:10127800FF1FFFFF0024F40010E000E07F3E0000A5
:1012880000ED00E020A107009C01002018010020CB
:10129800C801002000100140E4450008004600088D
:1012A800C401002080450008F4310020FC430008F8
:1012B800F429002088440008F4390020004400087C
:1012C800B4430008711800001842002010270000DD
:1012D80000300040CCCC000055550000EE0F000057
:1012E800AAAA0000084400080400FA05183E0020D5
:1012F80000640040284400080118000001A0000113
:10130800384400083C010020003400404C440008E8
:101318008FE7FFFFB8450008040000205C44000880
:10132800D64843791B021BB202791343D4498B83F5
:10133800C279120212B280790243CA83002B0AD002
:101348001A1C092B00DC0A2213B2CD498A83CB4A26
:1013580013711B125371CA4B1B8A612B03D9C74BDC
:1013680000221A715A71C74B1B68002B05DAC44B4F
:101378001B8A0A2B0BD9012534E7C348FFF704F968
:10138800C04B1B68BD4A13711B125371EFE7BF486E
:10139800FFF7FAF8B94B00229A71DA71012521E7B3
:1013A800FFF7D6F901251DE7B44AD3781B029278D6
:1013B8001343B34A1384012514E7B0488323037108
:1013C8000023C37183714371B14908252A000C3188
:1013D80002F044FB01230B9308951D0002E7012549
:1013E80000E715A802F030FA002800D0C6E0079AF6
:1013F800002A03D0A74B1B689B1A19D41CA802F01B
:1014080047F9A548FFF7C0F8A44801F0BBF9042143
:10141800A34801F0BDF99F4B1B68FA22920094463D
:101428006344079301269B4B1B689E4A92469A4445
:10143800049A002A04D0974B1B689B1A00D40EE12B
:10144800059A002A04D0934B1B689B1A00D44FE1DD
:101458008B4B1C215A5E1E215B5E9A4204DA8D4B2F
:101468001B681B1B00D452E18A4B1B681B1B00D452
:1014780056E18D4B5B6880210901C91A23A802F047
:10148800EBF8022F00D16EE100D952E1002F00D114
:101498005CE1012F1BD123A802F0FAF88348FFF77B
:1014A80073F8834F79683868FFF788F88148FFF741
:1014B8006BF8814801F066F93868796801F068F9D5
:1014C800744B1B68774A9446634406930227714B12
:1014D8001B68029A9B1A01D4039B0293774B784AA4
:1014E8001A606C4B1B684A469B1A00D4E4E5694BAA
:1014F8001B6842469B1A00D4DEE5724800F0FAFDEC
:10150800002800D0E9E5002D04D0624B1B685B1B66
:1015180000D427E66C4800F0EDFD002800D03FE637
:101528006A4B5B688421C900C91A15A802F094F8AF
:10153800674B5B6880210901C91A1CA802F08CF866
:10154800002E00D14DE7731EDBB2012B00D96FE7E7
:101558001CA802F079F900282FD15346002B00D19E
:1015680066E74C4B1B6852469B1A00D560E7444B14
:1015780000229A61039B0793002659E780223F4B7C
:101588009A46D200190015A802F074F906005148CD
:10159800FEF7FAFF31005046FFF702F83F4801F026
:1015A800F1F83100504601F0F3F81CA802F02CFACB
:1015B80015A802F070F8022635E780222F4B9B46CB
:1015C800D20019001CA802F055F908904248FEF70D
:1015D800DBFF08995846FEF7E3FF012E0FD01CA841
:1015E80002F012FA3D49254802F090FA002802D08C
:1015F800039B079300261CA802F04DF8ADE71CA832
:1016080002F002FA431C03D11CA802F044F8A4E734
:101618001B4B9A4658601CA802F0F6F90600534680
:10162800D8600A21FEF7A4FE53465B689B465843E0
:101638002B49FEF79DFE5346986180210F4B9A4631
:10164800019000965B46274AC900504602F02AFAE4
:101658005046FEF799FF039B9A460026D4E70120DF
:10166800FFF7AAF82048FEF78FFF0A4B1B681F4AAE
:10167800944663440993039B0493E1E6183E0020D3
:1016880018010020000000206C4400088044000875
:10169800B4430008184200209C440008001401408C
:1016A800AC440008102700004064024014450008BC
:1016B800C8010020884400080010014000300040A4
:1016C800AAAA0000006400400034004028600240DC
:1016D800286402408C440008B4440008F044000820
:1016E800A0860100C0440008F4440008B80B0000BC
:1016F8000120FFF773F8BA48FEF746FFB94B1B689D
:10170800B94A944663440A93039B0593A0E60120D3
:10171800FFF776F8B34B1C68B44B9C466444A8E6C4
:101728000020FFF76DF8AF4B1C68B04B9C46644433
:101738009FE6FB1EDBB2012B00D9C8E6A94B1B684C
:10174800069A9B1A00D582E20027C0E6FEF7D2FF70
:10175800032801D00127BAE6A54A0721A548FEF7C4
:10176800DBFF0127B3E623A802F033F8A24B9A68FF
:10177800904236D2FEF7BEFF032800D1A7E6994B68
:101788001B68069A9B1A00D5A1E69C48FEF7FCFE4A
:10179800944B1B68FA22920094466344069323A84C
:1017A80001F069FFFEF794FF954B00221A600123B0
:1017B8005B42944A1360944A13609620800101F0BA
:1017C8003DFA924800F0DEFF0721914800F0E0FF63
:1017D800FA2001F015FFE120400201F02FFA03275B
:1017E80075E68C4923A801F0FEFF0E90824B9B689A
:1017F80098421DD38848FEF7C7FE7F4B9968854FEE
:101808003800FEF7DBFE8548FEF7BEFE3B78AA2BC4
:1018180003D1804B5B78552B28D0724B1B68FA227A
:101828009200944663440693FEF752FF03274EE660
:101838007B48FEF7A9FE04210EA8FEF7BFFE23A8E9
:1018480001F0C7FF0E9004210EA8FEF7B7FE7348FB
:10185800FEF79AFE23A801F00EFF624B1B68F533D2
:10186800FF330693FEF734FF042730E6694B9B7875
:101878005F2BD2D1674BDB78812BCED1654B1B799F
:10188800902BCAD1634B9F7A3F023FB25A7A3900F4
:1018980011430891634A9182987B0002597B08435F
:1018A8001080197C0902DF7B3943069151809F7CA7
:1018B8003F02BC465F7CBB46674659460F4397804C
:1018C800197D09028C46D97C67460F43D780997DDC
:1018D80009028C46597D67460F430C971781197E7C
:1018E80009028C46D97D67460F435781597E91730B
:1018F8002621595C090209B28B462521595C5F46AD
:101908000F43BB4697812821595C090209B28C46CE
:101918002721595C67460F4357822A21595C0902DF
:101928008C462921595C67460F4317823E21595C32
:1019380009028C463D21595C67460F439783402135
:10194800595C09028C463F21595C67460F433FB2F8
:101958000D9757834221595C09028C464121595CF5
:1019680067460F4317834621595C090209B28C4622
:101978004521595C67460F43D782CB21595C8C4679
:10198800242167465754A831595C8C462321674661
:101998005754AA31595C8C46222167465754AC31BA
:1019A800595C8C46212167465754AE31595C8C46A8
:1019B800202167465754B0315B5CFA21C9008C4638
:1019C8006344D383184B984202D8069A9A422FD977
:1019D8000B4B47221A601548FEF7D6FD3AE7C0467A
:1019E8000445000818420020B80B0000C027090071
:1019F8005F020000EC450008C8010020A845000867
:101A08008C0000200000002004000020001001408D
:101A1800E4450008183E00203445000888440008C2
:101A2800204500089C010020701700004045000870
:101A3800089B002B0BD1002809D1069B002B06D14F
:101A48005B46002B03D10D9B002B00D183E00123C3
:101A58005B42824A1360824A1360824B00221A60FA
:101A6800069BC118FA235B00994200DCC8E0099A7A
:101A7800002A03D07C4B1B689B1A17D4E1239B00D8
:101A8800984204D30C9B013B9BB2172B0ED8774886
:101A9800FEF77AFD0020FEF78FFE734B1B68FA22D3
:101AA800D200944663440493039B09930A9A002A3C
:101AB80003D06D4B1B689B1A1AD46D4B5A88E123CF
:101AC8009B009A4205D36A4B5B89013B9BB2172B5B
:101AD8000ED86848FEF758FD0020FEF77FFE624BDF
:101AE8001B68FA22D200944663440593039B0A9329
:101AF800614B1B8A632B35D8272B59D95C490A8936
:101B080049895218002A00D187E6282B00D884E694
:101B1800544B06221A605948FEF736FDFEF7EAFDD7
:101B2800002800D179E6564B1B78012B00D174E6CA
:101B3800029B002B00D070E6072209215148FEF7CE
:101B4800EBFD4F4B01221A70474B1B684E4A9446D7
:101B58006344029361E6434B4E221A604B48FEF7FA
:101B680013FD77E63F4B03221A604948FEF70CFD48
:101B78003A4B00221A60424B1B78012B00D14CE6ED
:101B8800FEF7B8FD002800D147E6029B002B00D0E5
:101B980043E6072209213B48FEF7BEFD384B0122E8
:101BA8001A70314B1B68384A94466344029334E6F2
:101BB8002C4B08221A603748FEF7E6FCFEF79AFD20
:101BC800012800D829E62E4B1B78032B00D124E6E8
:101BD800029B002B00D020E6072209212E48FEF7A1
:101BE8009BFD072209212D48FEF796FD244B032271
:101BF8001A701D4B1B68244A9446634402930CE6F2
:101C0800049B002B00D008E6164B07221A602448D4
:101C1800FEF7BAFCFEF76EFD002800D1FDE5184B73
:101C28001B78012B00D1F8E5029B002B00D0F4E5CE
:101C3800072209211348FEF76FFD114B01221A7084
:101C4800094B1B68104A944663440293E5E5FEF786
:101C580051FD032800D13AE4002738E400000020B1
:101C6800040000208C00002018420020584500087D
:101C78009C010020684500081801002090450008D4
:101C8800C401002000460008102700004C45000849
:101C98007845000884450008F4450008D845000840
:101CA8009C450008DFF834D00D480E490E4A002341
:101CB80002E0D458C4500433C4188C42F9D30B4AF8
:101CC8000B4C002301E013600432A242FBD301F065
:101CD80095FC01F09FFE01F08DFC70470000082084
:101CE800000000207000002044460008700000201A
:101CF8002C420020F0B583B006001D00089CC36884
:101D08009B070CD103690327380018401F4201D0F4
:101D1800012705E0002A4ED0002313604BE000277E
:101D2800002A11D03B001B331B019B595B072FD5A1
:101D38001D201060002907D03B001B331B019B5955
:101D48002022121AD3400B603B001B331B01F318EF
:101D58005A680F231340A34206D83B001B331B01CC
:101D6800F3185B680F241C40002D26D008220021A0
:101D7800684601F08FFE3B01F3181A00B932FF32B2
:101D880012680092BD33FF331B68019300220BE0F9
:101D98000B20CEE793089B0069465B58032111404E
:101DA800C900CB40AB540132A242F3D32000002F2C
:101DB80005D0012F08D003B0F0BD0020F7E7F36885
:101DC80020221343F360F6E733692022134333617B
:101DD800F1E70000034B984201D000207047012032
:101DE800FCE7C04600340040F0B585B0060001911C
:101DF8001F00032100E01900B068E0235B051842CA
:101E080019D1B369FF20184210D0B3683648184377
:101E1800B060B468344D2C40AC42FAD04B1EDBB2F3
:101E28000029E8D10520404205B0F0BDB068E023A4
:101E38005B0518424FD0B3681B0E03241C40032CCB
:101E48004CD00B2A04D01D2A18D003204042EBE7BF
:101E5800019B5905230018331B0199510A9B082B34
:101E68003FD8230018331B01F3180A9A5A60082236
:101E7800002102A801F00EFE002316E0019BD90004
:101E880004231943230018331B019951E6E79908E5
:101E9800F85C03221A40D20090408A0002A95158E7
:101EA8000191084302A9505001330A9A9342EED394
:101EB8002301F3181A008932FF32029911608D3319
:101EC800FF33039A1A6018342401A35901221343DB
:101ED800A3510A98A8E701204042A5E70220404202
:101EE800A2E7042040429FE78080800010B5034AA3
:101EF8000021034801F0CEFD10BDC04608280000AF
:101F0800EC010020F0B5D6464F464646C0B5040061
:101F18000D001600FFF7EAFF2300C82202E00022A6
:101F280004C30A00511E002AF9D123680132134361
:101F380023606368DB07FCD5384B9D4206D0384BDD
:101F48009D4203D0374BE361374BE361236820227E
:101F580013432360002E5CD02368103A9343236018
:101F6800236808221343236080239B009946E25884
:101F780001231A434946625087229200A158994387
:101F8800A150812189008C466158994360462150AF
:101F98008327BF00E1599943E1518526B600A1592D
:101FA8009943A15100218A469021890050466050EA
:101FB80004316050A1581943A150A1588846022104
:101FC80040468843A0506046205888438046604673
:101FD80045462550E0590843E051A7598F43A7517A
:101FE80034365046A0510436A051A5582943A15073
:101FF800626912210A4362614A46A2589A434946D5
:10200800625022689A432260E0BCBA46B146A846AC
:10201800F0BD2368102213432360A1E7A0860100C6
:1020280040420F0001002B0001001C00F0B5CE4615
:10203800474680B583B08146FFF7CCFE0400830095
:102048001B181B021B189B00194A9F58FF2F27D8E3
:10205800174E85002D182D022B189B007A1C9A51BB
:10206800BB009846D91989002B189B00C9180B008A
:1020780008339B19043389190A00083204310820EF
:1020880000904846FFF736FE4744BF002D19AD00C3
:102098007F19F719786103B0C0BCB946B046F0BDE6
:1020A80000230093002200214846FFF723FEF2E7B1
:1020B800EC01002010B50248FFF7B8FF10BDC0467C
:1020C8000064004010B50248FFF7B0FF10BDC046DD
:1020D8000064004010B50248FFF7A8FF10BDC046D5
:1020E8000034004010B50248FFF7A0FF10BDC046FD
:1020F8000034004010B5FFF76DFE83001B181B026B
:102108001B189B0003495858002801D0CA18506969
:1021180010BDC046EC010020F0B583B00D001700DB
:102128000193FFF757FE06008400241824022418A0
:10213800A400234BE358002B01D0012805D9002324
:102148003B600027380003B0F0BD83001B181B025A
:102158001B189B001A4AD3185A682A609A683A6072
:102168005F69089B9F4200D91F00B400A41924028C
:10217800A11989000831124D491904313A00019812
:1021880001F075FC72B6A3199B005A59013A1C005C
:102198005A51FF2A01D962B6D4E7B3009B191B0232
:1021A8002000074C001904309B199B00143319199F
:1021B800043193009A18920001F059FCEBE7C046ED
:1021C800EC01002010B582B00100A94A106C8024EF
:1021D800A40420431064136C23400193019B002244
:1021E800A448FFF78FFEA44B1C681F2180204000E5
:1021F800802305E0400001221A40104301395B08A2
:10220800002BF7D18840FEF79FF9FF2318404000C4
:10221800FC3B83409C431F2180204000802305E035
:10222800400001221A40104301395B08002BF7D106
:102238008840FEF789F9FF2318404000FD3B8340A2
:102248001C438D4A1460536A0F218B4306390B4394
:1022580053629468163180204000802305E04000D6
:1022680001221A40104301395B08002BF7D188403E
:10227800FEF76AF9FF2318404000FC3B83409C436B
:102288001F2180204000802305E0400001221A40E1
:10229800104301395B08002BF7D18840FEF754F949
:1022A800FF2318404000FD3B83401C43724B9C6059
:1022B8005A6872490A405A60DC682131FF3180202F
:1022C8004000802305E0400001221A4010430139F4
:1022D8005B08002BF7D18840FEF736F9FF2318403A
:1022E8004000FC3B83409C43802300E05B08002BBC
:1022F800FCD1614BDC601C681F218020800080239A
:102308005B0005E0400001221A40104301395B08D8
:10231800002BF7D18840FEF717F9FF23184040003B
:10232800FC3B83409C431F218020800080235B006E
:1023380005E0400001221A40104301395B08002BD8
:10234800F7D18840FEF700F9FF2318404000FD3B15
:1023580083401C43484B1C605C6A1F2102200123F8
:1023680005E0400001221A40104301395B08002BA8
:10237800F7D18840FEF7E8F8FF2318408000F03BCB
:1023880083409C431F210220012305E040000122D5
:102398001A40104301395B08002BF7D18840FEF73B
:1023A800D3F8FF2318408000F63B83401C43324B90
:1023B8005C629C681F218020800080235B0005E010
:1023C800400001221A40104301395B08002BF7D165
:1023D8008840FEF7B9F8FF2318404000FC3B8340D3
:1023E8009C431F218020800080235B0005E0400083
:1023F80001221A40104301395B08002BF7D18840AD
:10240800FEF7A2F8FF2318404000FD3B83401C4321
:10241800194B9C605A681A490A405A60DC681F21A7
:102428008020800080235B0005E0400001221A40E4
:10243800104301395B08002BF7D18840FEF784F878
:10244800FF2318404000FC3B83409C4380235B00F3
:1024580000E05B08002BFCD1074BDC60094B8022B5
:1024680052031A60802292031A6002B010BDC0465F
:10247800003802400064004000040240FFFEFFFFF5
:10248800FFFDFFFF00E100E010B582B00100B44A93
:10249800106C8024A40120431064136C2340019322
:1024A800019B0022AF48FFF72DFDAF4B1C681F2191
:1024B8000820042305E0400001221A401043013996
:1024C8005B08002BF7D18840FEF73EF8FF23184041
:1024D8004000FC3B83409C431F210820042305E067
:1024E800400001221A40104301395B08002BF7D144
:1024F8008840FEF729F8FF2318404000FD3B834041
:102508001C43994B1C601C6A1F210820042305E00A
:10251800400001221A40104301395B08002BF7D113
:102528008840FEF711F8FF2318408000F03B8340F5
:102538009C431F210820042305E0400001221A4083
:10254800104301395B08002BF7D18840FDF7FCFFE9
:10255800FF2318408000F43B83401C43824B1C62DD
:102568009C681F210820042305E0400001221A402E
:10257800104301395B08002BF7D18840FDF7E4FFD1
:10258800FF2318404000FC3B83409C431F21082048
:10259800042305E0400001221A40104301395B087A
:1025A800002BF7D18840FDF7CFFFFF2318404000EC
:1025B800FD3B83401C436C4B9C605A6808218A434E
:1025C8005A60DC6817310820042305E04000012226
:1025D8001A40104301395B08002BF7D18840FDF7FA
:1025E800B3FFFF2318404000FC3B83409C43042377
:1025F80000E05B08002BFCD15B4BDC601C681F21F2
:102608001020082305E0400001221A401043013938
:102618005B08002BF7D18840FDF796FFFF23184091
:102628004000FC3B83409C431F211020082305E009
:10263800400001221A40104301395B08002BF7D1F2
:102648008840FDF781FFFF2318404000FD3B834091
:102658001C43454B1C601C6A1F211020082305E001
:10266800400001221A40104301395B08002BF7D1C2
:102678008840FDF769FFFF2318408000F03B834046
:102688009C431F211020082305E0400001221A4026
:10269800104301395B08002BF7D18840FDF754FF40
:1026A800FF2318408000F43B83401C432E4B1C62E0
:1026B8009C681F211020082305E0400001221A40D1
:1026C800104301395B08002BF7D18840FDF73CFF28
:1026D800FF2318404000FC3B83409C431F211020EF
:1026E800082305E0400001221A40104301395B0825
:1026F800002BF7D18840FDF727FFFF231840400043
:10270800FD3B83401C43184B9C605A6810218A4348
:102718005A60DC680F311020082305E040000122D0
:102728001A40104301395B08002BF7D18840FDF7A8
:102738000BFFFF2318404000FC3B83409C430823C9
:1027480000E05B08002BFCD1074BDC60074B8022C4
:102758009200DA608022D200DA6002B010BDC04672
:1027680000380240003400400004024000E100E06C
:1027780000BEFEE7024A1368013313607047C04683
:1027880018420020014B18607047C046143E0020D4
:1027980010B50E4B1B68DB0703D50C4B5B681B049D
:1027A800F7D10B4A93688024A343936003E002782F
:1027B8009A62013021004C1E002905D0054B1B6888
:1027C800DA691206FAD5F2E710BDC0465860024031
:1027D80000480040143E002010B50400FDF72CFD11
:1027E80001002000FFF7D4FF10BD092802D83030BF
:1027F800C0B270475730C0B2FBE730B583B00400B1
:1028080001AB00225A7014E020780009FFF7EDFFB1
:102818006B46187101A8FFF7DFFF23780F201840D7
:10282800FFF7E3FF6B46187101A8FFF7D5FF0134E6
:1028380029004D1E0029E7D103B030BD70B582B024
:102848000400C84B196B80208003014319631A6B7D
:1028580002400192019A1A6C8021C9020A431A6443
:102868001B6C0B400093009BBF4B1A68BF4911407B
:10287800BF4A0A431A60BF48BF491A68C0231340B9
:10288800402B27D0B84B9860D960B74B5A68120CC8
:1028980012048421C9000A435A601A68B74E3240AC
:1028A800802109050A431A601A68012002431A6048
:1028B800B34B1868AD4D0540B248284318601A68F4
:1028C800324011431960B04B1D681F218020400021
:1028D800802309E0A44BD8609960D6E74000012224
:1028E8001A40104301395B08002BF7D18840FDF7E7
:1028F8002BFEFF2318404000FC3B83409D431F21D3
:1029080080204000802305E0400001221A40104347
:1029180001395B08002BF7D18840FDF715FEFF232E
:1029280018404000FD3B83401D43974A1560536A99
:102938000F218B4308390B43536295681831802067
:102948004000802305E0400001221A40104301396D
:102958005B08002BF7D18840FDF7F6FDFF231840F0
:102968004000FC3B83409D431F2180204000802382
:1029780005E0400001221A40104301395B08002B92
:10298800F7D18840FDF7E0FDFF2318404000FD3BEC
:1029980083401D437C4B9D605A687C490A405A60BD
:1029A800DD682131FF3180204000802305E04000B0
:1029B80001221A40104301395B08002BF7D18840E7
:1029C800FDF7C2FDFF2318404000FC3B83409D43B8
:1029D8001F2180204000802305E0400001221A408A
:1029E800104301395B08002BF7D18840FDF7ACFD97
:1029F800FF2318404000FE3B83401D43624BDD60CF
:102A08001D681F218020800080235B0005E04000B6
:102A180001221A40104301395B08002BF7D1884086
:102A2800FDF792FDFF2318404000FC3B83409D4387
:102A38001F218020800080235B0005E040000122E8
:102A48001A40104301395B08002BF7D18840FDF785
:102A58007BFDFF2318404000FD3B83401D434A4B4C
:102A68001D605D6A1F210220012305E0400001224C
:102A78001A40104301395B08002BF7D18840FDF755
:102A880063FDFF2318408000F03B83409D431F21D6
:102A98000220012305E0400001221A4010430139B9
:102AA8005B08002BF7D18840FDF74EFDFF23184047
:102AB8008000F83B83401D43334B5D629D681F21B6
:102AC8008020800080235B0005E0400001221A403E
:102AD800104301395B08002BF7D18840FDF734FD1E
:102AE800FF2318404000FC3B83409D431F2180206A
:102AF800800080235B0005E0400001221A4010435B
:102B080001395B08002BF7D18840FDF71DFDFF2335
:102B180018404000FD3B83401D431B4B9D605A6895
:102B28001B490A405A60DD681F21802080008023ED
:102B38005B0005E0400001221A40104301395B08A0
:102B4800002BF7D18840FDF7FFFCFF231840400019
:102B5800FC3B83409D431F218020800080235B0035
:102B68001EE0C04600380240286002401F80FCFF7B
:102B78000005020024480040F4390020FFFFFFE16F
:102B88005860024040040200000C0240FFFEFFFFB4
:102B9800FFFDFFFF400001221A40104301395B0886
:102BA800002BF7D18840FDF7CFFCFF2303405B00E3
:102BB800012632009A4015431A4BDD601A499022CB
:102BC8008B58302083438B50184D2B68843A93439D
:102BD80013432B602B68164A13402B606B68154A09
:102BE80013406B60144B18686308C0182100FDF788
:102BF80035FB0004000CE8602B681E432E600B4B6D
:102C0800DB699B02FBD5094BDB695B02F7D5074BF8
:102C18009A6840210A439A609A6840318A439A60C8
:102C280002B070BD000C024000380240004800406D
:102C3800FFE9FFEFFFCFFFFF0800002070B584B069
:102C48000400D64B196B8020C003014319631A6B2B
:102C580002400392039A596C1022114359645B6C29
:102C68001A400292029BCE4A136801210B4313605B
:102C7800CC4B1A688A431A601A68CB491140CB4A70
:102C88000A431A60CA48CB491A68C0231340402B2C
:102C98001BD0C44B9860D960C24B5A68120C1204FE
:102CA800802109010A435A601A68C34911408022E9
:102CB80012050A431A601A6801210A431A60BF4BB9
:102CC8001D681E314020202309E0B64BD86099606A
:102CD800E2E7400001221A40104301395B08002B4B
:102CE800F7D18840FDF730FCFF2318404000FC3B3B
:102CF80083409D431F214020202305E040000122FE
:102D08001A40104301395B08002BF7D18840FDF7C2
:102D18001BFCFF2318404000FD3B83401D43A74B8D
:102D28001D601D6A1F214020202305E0400001226C
:102D38001A40104301395B08002BF7D18840FDF792
:102D480003FCFF2318408000F03B83409D431F2174
:102D58004020202305E0400001221A401043013999
:102D68005B08002BF7D18840FDF7EEFBFF231840E6
:102D78008000F83B83401D43904B1D629D681F21D6
:102D88004020202305E0400001221A401043013969
:102D98005B08002BF7D18840FDF7D6FBFF231840CE
:102DA8004000FC3B83409D431F214020202305E039
:102DB800400001221A40104301395B08002BF7D16B
:102DC8008840FDF7C1FBFF2318404000FD3B8340CE
:102DD8001D437A4B9D605A6840218A435A60DD68DA
:102DE80021394020202305E0400001221A401043E9
:102DF80001395B08002BF7D18840FDF7A5FBFF23BD
:102E080018404000FC3B83409D431F214020202365
:102E180005E0400001221A40104301395B08002BED
:102E2800F7D18840FDF790FBFF2318404000FE3B98
:102E380083401D43614BDD601D681F218020000217
:102E48008023DB0105E0400001221A4010430139CC
:102E58005B08002BF7D18840FDF776FBFF2318406D
:102E68004000FC3B83409D431F21802000028023BB
:102E7800DB0105E0400001221A40104301395B08DC
:102E8800002BF7D18840FDF75FFBFF231840400077
:102E9800FD3B83401D43494B1D605D6A1F21802017
:102EA800402305E0400001221A40104301395B0825
:102EB800002BF7D18840FDF747FBFF23184080001F
:102EC800F03B83409D431F218020402305E04000C4
:102ED80001221A40104301395B08002BF7D18840C2
:102EE800FDF732FBFF2318408000FB3B83401D4366
:102EF800324B5D629D681F21802000028023DB0128
:102F080005E0400001221A40104301395B08002BFC
:102F1800F7D18840FDF718FBFF2318404000FC3B21
:102F280083409D431F21802000028023DB0105E0B0
:102F3800400001221A40104301395B08002BF7D1E9
:102F48008840FDF701FBFF2318404000FD3B83400C
:102F58001D431A4B9D605A6819490A405A60DD683A
:102F68001F21802000028023DB0105E040000122B0
:102F78001A40104301395B08002BF7D18840FDF750
:102F8800E3FAFF2318404000FC3B83409D431F2188
:102F9800802000028023DB011AE0C046003802408E
:102FA80000100140406402401F80FCFF0005020041
:102FB80024100140F4310020FFFFFFE1000402402B
:102FC800FF7FFFFF400001221A40104301395B08D0
:102FD800002BF7D18840FDF7B7FAFF2303405B00C9
:102FE800012632009A4015431E4BDD601E4B596C7A
:102FF800102211435964596C0A400192019A902198
:103008005A58032082435A50184D2B680C22934378
:1030180013432B602B68164A13402B606B68154AC4
:1030280013406B60144B18686308C0182100FDF743
:1030380015F90004000CE8602B681E432E600B4B4A
:10304800DB699B02FBD5094BDB695B02F7D5074BB4
:103058009A6840210A439A609A6840318A439A6084
:1030680004B070BD00040240003802400010014066
:10307800FFE9FFEFFFCFFFFF0800002030B585B064
:103088000400CE4B196B8020C003014319631A6BEF
:1030980002400392039A596C2022114359645B6CD5
:1030A8001A400292029BC64B1A6801218A431A6091
:1030B8001A68C4491140C44A0A431A60C348C4493B
:1030C8001A68C0231340402B1BD0BD4B9860D960B1
:1030D800BB4B5A68120C1204802109010A435A603A
:1030E8001A68BC491140A02212050A431A601A68DE
:1030F80001210A431A60B84B1D681E314020202365
:1031080009E0AF4BD8609960E2E7400001221A401D
:10311800104301395B08002BF7D18840FDF714FAFA
:10312800FF2318404000FC3B83409D431F21402063
:10313800202305E0400001221A40104301395B08B2
:10314800002BF7D18840FDF7FFF9FF231840400016
:10315800FD3B83401D43A04B1D601D6A1F2140207D
:10316800202305E0400001221A40104301395B0882
:10317800002BF7D18840FDF7E7F9FF2318408000BE
:10318800F03B83409D431F214020202305E0400061
:1031980001221A40104301395B08002BF7D18840FF
:1031A800FDF7D2F9FF2318408000F73B83401D4309
:1031B800894B1D629D681F214020202305E04000A7
:1031C80001221A40104301395B08002BF7D18840CF
:1031D800FDF7BAF9FF2318404000FC3B83409D43AC
:1031E8001F214020202305E0400001221A401043FF
:1031F80001395B08002BF7D18840FDF7A5F9FF23BB
:1032080018404000FD3B83401D43734B9D605A6846
:1032180040218A435A60DD6821394020202305E097
:10322800400001221A40104301395B08002BF7D1F6
:103238008840FDF789F9FF2318404000FC3B834094
:103248009D431F214020202305E0400001221A4011
:10325800104301395B08002BF7D18840FDF774F95A
:10326800FF2318404000FD3B83401D435A4BDD605F
:103278001D681F218020402305E0400001221A40DC
:10328800104301395B08002BF7D18840FDF75CF942
:10329800FF2318404000FC3B83409D431F218020B2
:1032A800402305E0400001221A40104301395B0821
:1032B800002BF7D18840FDF747F9FF23184040005D
:1032C800FD3B83401D43444B1D601D6A1F21802028
:1032D800402305E0400001221A40104301395B08F1
:1032E800002BF7D18840FDF72FF9FF231840800005
:1032F800F03B83409D431F218020402305E0400090
:1033080001221A40104301395B08002BF7D188408D
:10331800FDF71AF9FF2318408000F73B83401D434F
:103328002D4B1D629D681F218020402305E0400031
:1033380001221A40104301395B08002BF7D188405D
:10334800FDF702F9FF2318404000FC3B83409D43F2
:103358001F218020402305E0400001221A4010432D
:1033680001395B08002BF7D18840FDF7EDF8FF2302
:1033780018404000FD3B83401D43174B9D605A6831
:1033880080218A435A60DD6861398020402305E046
:10339800400001221A40104301395B08002BF7D185
:1033A8008840FDF7D1F8FF2318404000FC3B8340DC
:1033B8009D431F218020402316E0C046003802406C
:1033C800286402401F80FCFF00050200241401400D
:1033D800F4290020FFFFFFE100080240400001221D
:1033E8001A40104301395B08002BF7D18840FDF7DC
:1033F800ABF8FF2318404000FD3B83401D43264B9C
:10340800DD60264B596C202211435964596C0A40DF
:103418000192019A90215A58214802405A50214D50
:103428002B680C22934313432B606B681E4A1A4087
:1034380080235B0213436B606B681C4A1A4080232D
:103448009B0213436B602B68194A13402B606B680F
:10345800184A13406B60184B18686308C01821009D
:10346800FCF7FCFE0004000CE8602B680122134303
:103478002B600C4BDB699B02FBD50A4BDB695B02BB
:10348800F7D5084B9A6840210A439A609A684031F8
:103498008A439A6005B030BD0008024000380240F7
:1034A800FFF3FFFF00140140FFFFFEFFFFFFFDFFDA
:1034B800FFE9FFEFFFCFFFFF08000020F0B5C64689
:1034C80000B51600474B9C466044850201248C4099
:1034D8002B689846670820003B001F2105E0400044
:1034E80001221A40104301395B08002BF7D18840AC
:1034F800FDF72AF8FF2318404000FC3B8340424672
:103508009A43904620001F2205E0400001233B40DB
:103518001843013A7F08002FF7D19040FDF714F8BF
:10352800FF2318404000FE3B834042461A432A606E
:10353800AB689846670820003B001F2105E0400063
:1035480001221A40104301395B08002BF7D188404B
:10355800FCF7FAFFFF2318404000FC3B834042463B
:103568009A43904620001F2205E0400001233B407B
:103578001843013A7F08002FF7D19040FCF7E4FF89
:10358800FF2318404000FD3B834042461A43AA608F
:10359800EB689846670820003B001F2105E04000C3
:1035A80001221A40104301395B08002BF7D18840EB
:1035B800FCF7CAFFFF2318404000FC3B834042460B
:1035C8009A43130000E07F08002FFCD1EB60002E27
:1035D80005D000239C40AC6180BCB846F0BD1023E8
:1035E800F8E7C04680001000014B18687047C046D5
:1035F8001842002010B5FDF779FCFCE77047000081
:1036080082B0084B1B680193019B431C00D001301A
:10361800002805D0034B1B68DB03F9D50138F7E711
:1036280002B0704710E000E0014B18607047C046D8
:1036380008000020F8B504000E0015001F001C2229
:10364800002100F027FA2A000021300000F022FAB9
:1036580066606561A760F8BD70B50400080025695B
:103668006169FCF781FE2161A94200D170BDFFF7B5
:10367800BBFF2060FAE710B50400426900214068EA
:1036880000F008FA00232360E3602361A36110BD02
:103698000369C360704770B50400C068A669F30782
:1036A8000ED42569854223D063681B5C0A2B17D08A
:1036B80001306169FCF758FE08008D42F4D117E02B
:1036C8002369834214D063681B5C0A2B10D1093B21
:1036D8001E43A66101306169FCF746FEE16007E020
:1036E800093B1E43A66101306169FCF73DFEE160BC
:1036F80070BDF0B5D6464F4680B583B005000C00C6
:1037080091460193C06848446969FCF72DFE0F0093
:10371800A868FCF791FD2B69BB4252D06B68DB1996
:10372800236004002600013C002E2CD06B689A46CA
:10373800BA44DA5DAB681B5D9A42F3D16C69E01953
:10374800EB68C01A4B46C01A2100FCF70DFE0E00AC
:10375800019B002B0DD0781C2100FCF705FEE960C9
:103768000123AA699A431300AA61524612780A2AC9
:1037780005D0300003B0C0BCBA46B146F0BD093A26
:103788001343AB61F5E701376B69BB4208D0EA68C0
:10379800BA42EED02A69BA42EBD0BB42C1D8E8E7B8
:1037A800EB68FE1A4B46F61A019B002B05D0002346
:1037B800EB600133AA699A43AA61802109060E4386
:1037C800D7E70026D5E710B501230022FFF791FFC0
:1037D80010BD10B541690369CB18C068181AFCF709
:1037E800C3FD080010BDF8B504000F001500FFF771
:1037F800F0FFA84200D80500E16863695E1AB54287
:1038080000D22E0063689C4661443200380000F004
:103818002EF9E36898196169FCF7A6FDE160B8190B
:10382800B5420FD02669B54200D22E0063689C4687
:103838006144320000F01BF9E36898196169FCF7EC
:1038480093FDE1602800F8BD70B50400FFF7C1FFE3
:10385800E168002504E0481C6169FCF785FD30003B
:10386800461E002805D0013563685B5C0A2BF2D13F
:10387800280070BDF0B5C64600B505000F0090469B
:10388800FFF7A7FF0400E968002308E05C1C0A2A88
:103898000FD0481C6969FCF767FD23003400661ED9
:1038A800002C0BD06A68525C4345EFD23A7001375E
:1038B800ECE7A04502D900223A709C1C200080BC8D
:1038C800B846F0BD30B583B005000023002201A939
:1038D800FFF70FFF002800D001DB03B030BD440024
:1038E80064080023220001A92800FFF702FF00282E
:1038F80001DB2018F1E70020EFE770B506000D00A6
:103908001400FFF7DFFF002800D170BD2900300048
:10391800FFF759FF206000236B6063602368002B6A
:1039280003DB20686368C018EFE75B005B0823606F
:10393800291D3000FFF747FF6060F2E770B584B0DB
:103948000C006A4602A9FFF7D8FF031E52D0E1B265
:1039580000250020002213E0019B002B4ED0013BE4
:103968000193039B5E1C03961B7815E0002A1BD06D
:103978000A291DD0102922D04843C018013223003B
:103988005C1E002B32D0009B002BE5D0013B00933E
:10399800029B5E1C02961B780028E7D1012AE5D11C
:1039A800782BE3D11021E9E72D2BE1D10125E5E7BB
:1039B800303BDBB2092BDFD9012040421CE01E005E
:1039C800303EF6B2092E0FD91E00613EF6B2052E22
:1039D80002D8573BDBB2CFE71E00413EF6B2052EB8
:1039E8000FD8373BDBB2C7E73300C5E7002D03D05C
:1039F800404201E00120404204B070BD0120404235
:103A0800FAE701204042F7E710B50A21FFF796FFD1
:103A180010BD000070B500260C4D0D4C641BA410A1
:103A2800A64209D1002600F0B5FC0A4D0A4C641BD9
:103A3800A410A64205D170BDB300EB5898470136D3
:103A4800EEE7B300EB5898470136F2E73C4600082A
:103A58003C4600083C46000840460008002310B5D4
:103A68009A4200D110BDCC5CC4540133F8E710B5BC
:103A7800884202D98B18984203D3002307E08B5C55
:103A88008354013AFBD210BDCC5CC45401339A4232
:103A9800FAD1F8E703008218934200D170471970F1
:103AA8000133F9E70CB430B5174B0C001D689DB015
:103AB800002908DA8B2301202B6040421DB030BC5E
:103AC80008BC02B0184782236A469B0093820023F1
:103AD80002900690994200D04B1E0493079301234D
:103AE8006A465B42D382280021AB209A02A901933F
:103AF80000F084F8431C01DA8B232B60002CDDD006
:103B08000023029A1370D9E70C0000200A7830B518
:103B1800002A0CD130BD9A4208D10123CC5C002C7C
:103B2800F8D0C55CA54201D10133F7E7013003782D
:103B3800002BF0D11800EDE7F0B58E6885B00700CE
:103B48000C00039201939E423CD890238A89DB00A3
:103B58001A4234D00969236860695B1A0293032307
:103B68004343DD0FED18019B029801331B186D10BC
:103B7800AB4200D91D00530532D52900380000F0AA
:103B880037FB061E09D10C233B6040230120A28984
:103B980040421343A38105B0F0BD029A2169FFF7A3
:103BA8005DFFA389144A1A4080231343A381029B13
:103BB8002661F61826606561019EED1AA560019BD5
:103BC8009E4200D9019E320003992068FFF74FFFFB
:103BD800A36800209B1BA36023689E192660DAE770
:103BE8002A00380000F07AFB061EE0D1380021696F
:103BF80000F092FAC7E7C0467FFBFFFFF0B5A1B01F
:103C080003901D008B890F0016001B0611D50B6948
:103C1800002B0ED1402100F0EBFA38603861002803
:103C280005D10C23039A0138136021B0F0BD40235D
:103C38007B61002308AC6361203363761033A3767D
:103C4800079535002B78002B01D0252B47D1AB1BCE
:103C58000593B5420CD0320039000398FFF76CFF8A
:103C6800431C00D1AEE06269059B944663446361DE
:103C78002B78002B00D1A5E001220023524262607C
:103C880004A9543252186E1C2360E360A3601370B9
:103C9800A36505223178544800F032FA751C0028D3
:103CA8001FD12268D30604D5532304A95B18202109
:103CB8001970130704D5532304A95B182B21197015
:103CC80033782A2B16D0350000210A20E3682A7899
:103CD8006E1C303A092A4ED9002911D117E0013556
:103CE800B0E7414B2268C01A0123834013432E00DA
:103CF8002360CEE7079B191D1B680791002B01DB8A
:103D08000B9304E05B42E3600223134323602B78A8
:103D18002E2B0AD16B782A2B35D1079B02351A1D19
:103D28001B680792002B2BDB0993304E03223000CF
:103D3800297800F0E5F9002806D04023801B83404D
:103D480022680135134323602978062228486E1C0F
:103D5800217600F0D5F900283CD0264B002B25D140
:103D68000722079B07339343083307936369049A31
:103D78009B18636165E74343350001219B18A6E75B
:103D880001235B42D0E700230A201A000135636053
:103D980029786E1C3039092903D9002BC5D009921E
:103DA800C3E74243350001235218F1E707AB0093FC
:103DB8003A002100104B0398AFF300800490049B55
:103DC8000133D3D1BB890D985B0600D42DE70120C0
:103DD80040422AE707AB00933A002100064B0398BC
:103DE80000F07CF8EAE7C046094600080F460008DC
:103DF8001346000800000000413B0008F7B5150015
:103E080001938A680B690C000090934200DA130052
:103E180022002B6043321278002A01D001332B6034
:103E280023689B0602D52B6802332B602268062381
:103E380017001F401A4227D0230043331B785A1E0D
:103E480093412268920630D4220001990098089E76
:103E58004332B047431C25D0062320682A68E1680E
:103E680000250340042B03D18D1AEB43DB171D40BB
:103E7800A3682269934201DD9B1AED180027BD4211
:103E880020D1002010E00137E3682A689B1ABB4262
:103E9800D2DD2200012301990098089E1932B0470B
:103EA800431CF0D101204042FEBD3020E1184331CF
:103EB800087021005A1C45310978A2184332023390
:103EC8001170C1E72200012301990098089E1A3257
:103ED800B047431CE6D00137D1E70000F0B58BB0FE
:103EE80006920A0043320793059004920A7E0C005A
:103EF800109B782A07D8622A09D8002A00D1C1E085
:103F0800582A00D18CE026004236327022E0100098
:103F180063381528F7D8FCF797F916001F00F6FF45
:103F2800F6FFF6FFF6FF1F00F6FFF6FFF6FFF6FFB7
:103F3800A80036009A00F6FFF6FFB900F6FF360033
:103F4800F6FFF6FF9E0026001A684236111D19601A
:103F5800136833700123A7E0086819680A1D05066D
:103F68000BD50D681A60002D03DA2D23049A6D42D3
:103F78001370614B0A2703931BE00D681A60410612
:103F8800F1D52DB2EFE70D681968081D18602E06E7
:103F980001D50D6803E06D06FBD50D68ADB2564B33
:103FA800082703936F2A00D00237230000224333E7
:103FB8001A706368A360002B03DB04222168914315
:103FC8002160002D02D1049E002B0CD0049E2800F5
:103FD8003900FCF7C9F9039B013E5B5C33702B0089
:103FE80005009F42F3D9082F09D12368DB0706D5BE
:103FF80063682269934202DC3023013E3370049BDC
:104008009B1B2361079B210000930598069B09AA27
:10401800FFF7F4FE431C4CD1012040420BB0F0BD29
:1040280045310A70344A03921A68216820CA1A6016
:10403800080616D5CB0702D520231943216010277F
:10404800002DB2D1202322689A432260ADE72022B6
:1040580009680A4322602200782145321170274AF4
:10406800E1E74806E6D5ADB2E4E71A680D68101D29
:104078004969186013682E0601D5196002E06D06BB
:10408800FBD519800023049E2361BBE71A68111D24
:104098001960166800213000626800F031F80028C5
:1040A80001D0801B6060636823610023049A137049
:1040B800A8E72369320006990598079DA847431C7D
:1040C800AAD023689B0715D4099BE0689842A5DA13
:1040D8001800A3E72200012306990598079E1932C4
:1040E800B047431C98D00135E368099A9B1AAB4244
:1040F800F0DCE9E70025F7E71A4600082B46000838
:10410800C9B28218904201D10020704703788B42CF
:10411800FBD00130F6E7000070B50500002910D08B
:104128000C1F2368002B00DAE418280000F018F9A7
:104138001D4A1368002B05D163601460280000F045
:1041480017F970BDA34208D9216860188342F3D1DA
:1041580018685B6841182160EEE71A005B68002B5D
:1041680001D0A342F9D911685018A0420BD1206898
:104178000918501811608342E0D118685B6841182B
:1041880011605360DAE7A04202D90C232B60D5E70F
:1041980021686018834203D118685B684118216060
:1041A80063605460CAE7C0461C42002070B50F4ED9
:1041B8000D0031680400002902D100F0BFF830601A
:1041C8002900200000F0BAF8431C0AD00323C51CBC
:1041D8009D43A84207D0291A200000F0AFF8431CDD
:1041E80001D101256D42280070BDC0462042002043
:1041F800F7B50322CB1C9343083306001F000C2B92
:1042080032D20C27B94231D8300000F0A9F8324D2B
:104218002B681C00002C2ED139003000FFF7C6FF98
:104228000400431C1ED12C682500002D4AD12368A8
:104238002900E3183000019300F080F8019B8342C5
:1042480043D123680337FF1A03239F4308370C2FF2
:1042580000D20C2739003000FFF7A8FF431C34D0E8
:104268002368DF19276013E0002BCBDA0C23002525
:1042780033602800FEBD2268D11B20D40B2917D932
:10428800E2192760A34211D12A6063681160536064
:104298003000250000F06CF807220B35231D9543EC
:1042A800EA1A9D42E5D05B1BA350E2E75A60ECE7AF
:1042B8006268A34201D12A60EAE75A60E8E723006E
:1042C8006468A7E72C006D68AFE70C233000336003
:1042D80000F04EF8CDE7C0461C420020F7B50700B5
:1042E8000E001400002905D11100FFF781FF050019
:1042F8002800FEBD002A03D1FFF70EFF2500F7E7CF
:1043080000F03EF80190844203D835004308A342E8
:10431800EED321003800FFF76BFF051EE8D0019BA4
:1043280022009C4200D91A0031002800FFF796FBB2
:1043380031003800FFF7F0FEDAE70000002370B51F
:10434800064D040008002B60FCF71CF9431C03D140
:104358002B68002B00D0236070BDC046244200208B
:1043680010B5024800F014F810BDC04628420020DD
:1043780010B5024800F00DF810BDC04628420020D4
:104388000B1F1B68181F002B01DA0B58C018704749
:1043980070477047F8B5C046F8BC08BC9E467047E1
:0C43A800F8B5C046F8BC08BC9E46704743
:1043B40001000100000000000000000000000000F7
:1043C40083000000000000002030780020652000F9
:1043D4002073200020552000202020203E3E3E2037
:1043E400696E76207C200000202020203E3E3E2066
:1043F400626D73207C200000200A00005265736502
:10440400740A0000494E56206F722043414E2061C9
:10441400637469766974792074696D656F75740A5B
:1044240000000000696E76203E3E3E2020202020C1
:104434007C200000626D732063616E2074696D6579
:104444006F75740A00000000626D73203E3E3E20CA
:10445400202020207C200000666F7263652062614A
:10446400747420736F630A00666F726365206261FF
:104474007474206368617267650A0000736F632057
:104484003C2031300A00000055415254424D5355EE
:10449400534552203E3E200055415254424D532034
:1044A4003E3E207077720A007077720A00000000A6
:1044B40055415254424D53203C3C20002020766FFD
:1044C4006C746167653A20256C640A2020637572F8
:1044D40072656E743A20256C640A202077617474C6
:1044E4006167653A20256C640A00000024240000FA
:1044F40070763120737769746368206F6E0A0000E8
:1045040070763220737769746368206F6E0A0000D6
:1045140055415254203E3E20000000005541525463
:104524002072656164696E67206572726F72200023
:1045340055415254203C3C200000000063617573D7
:10454400652037310A0000006361757365203738D0
:104554000A00000070763120737769746368206FF5
:1045640066660A0070763220737769746368206F18
:1045740066660A00636175736520330A00000000F3
:10458400636175736520380A000000006361757308
:104594006520360A00000000636175736520370AE0
:1045A40000000000554152542054494D454F555484
:1045B40000000000A8130008281300080C120008CB
:1045C400EA110008B0130008EA110008C213000839
:1045D400E6130008AA55090924000035010000006B
:1045E400AA550701858C0100AA550701131A010079
:1045F400AA5509091C03003001000000AA55090945
:104604001C00002D01232D302B2000686C4C00650C
:1046140066674546470030313233343536373839EA
:10462400414243444546003031323334353637381D
:084634003961626364656600F0
:04463C00210200084F
:04464000F901000874
:10464400FFFFFFFFFFFFFFFF0024F4001000002026
:104654000000000000000000000000000000000056
:104664000000000000000000000000000000000046
:104674000000000000000000000000000000000036
:104684000000000000000000000000000000000026
:104694000000000000000000000000000000000016
:1046A4000000000000000000000000000000000006
:0400000508001CAD26
:00000001FF
