:020000040800F2
:1000000000000820D9290008A5340008A5340008FC
:10001000A5340008A5340008A5340008000000003D
:10002000000000000000000000000000A5340008EF
:10003000A534000800000000A5340008A934000819
:10004000A5340008A5340008A5340008A53400082C
:10005000A5340008A5340008A5340008A53400081C
:10006000A5340008A5340008A5340008A53400080C
:10007000A5340008A5340008A5340008A5340008FC
:10008000A5340008A5340008A5340008A5340008EC
:10009000E92D0008F92D0008A5340008A534000852
:1000A000A5340008A5340008A5340008A5340008CC
:1000B000A5340008A5340008A5340008A5340008BC
:1000C000A5340008510E0008E50E0008A53400080C
:1000D000A5340008A5340008A5340008A53400089C
:1000E000A5340008A5340008A5340008A53400088C
:1000F000A5340008A5340008A5340008A53400087C
:10010000A5340008A5340008A5340008A53400086B
:10011000A5340008A5340008A5340008A53400085B
:10012000A5340008A5340008A5340008A53400084B
:10013000A5340008A5340008A5340008A53400083B
:10014000A5340008A5340008A5340008A53400082B
:10015000A5340008A5340008A5340008A53400081B
:10016000A5340008A5340008A5340008A53400080B
:10017000A5340008A5340008A534000800000000DC
:10018000A5340008A5340008A5340008A5340008EB
:10019000A5340008A5340008A5340008A5340008DB
:1001A000A5340008A5340008A5340008A5340008CB
:1001B000A5340008A5340008A5340008510E000835
:1001C000E50E0008A534000800000000A534000872
:1001D000A5340008A5340008A5340008A53400089B
:1001E000A5340008092E0008192E0008A5340008BF
:0801F000A5340008A534000845
:1001F80010B5064C2378002B07D1054B002B02D0F5
:100208000448AFF300800123237010BD7000002064
:1002180000000000C4510008044B10B5002B03D0A7
:1002280003490448AFF3008010BDC0460000000039
:1002380074000020C45100080023C25C0133002A66
:10024800FBD1581E7047000003B4714649084000AE
:100258004900095E49008E4403BC704700224308E8
:100268008B4274D303098B425FD3030A8B4244D376
:10027800030B8B4228D3030C8B420DD3FF220902B8
:1002880012BA030C8B4202D31212090265D0030B77
:100298008B4219D300E0090AC30B8B4201D3CB036D
:1002A800C01A5241830B8B4201D38B03C01A5241AF
:1002B800430B8B4201D34B03C01A5241030B8B42B1
:1002C80001D30B03C01A5241C30A8B4201D3CB029C
:1002D800C01A5241830A8B4201D38B02C01A524181
:1002E800430A8B4201D34B02C01A5241030A8B4284
:1002F80001D30B02C01A5241CDD2C3098B4201D39C
:10030800CB01C01A524183098B4201D38B01C01A19
:10031800524143098B4201D34B01C01A5241030990
:100328008B4201D30B01C01A5241C3088B4201D33F
:10033800CB00C01A524183088B4201D38B00C01AEC
:10034800524143088B4201D34B00C01A5241411A13
:1003580000D20146524110467047FFE701B5002020
:1003680000F0F0F802BDC0460029F7D076E77047E4
:1003780003460B437FD4002243088B4274D30309FE
:100388008B425FD3030A8B4244D3030B8B4228D39F
:10039800030C8B420DD3FF22090212BA030C8B42C5
:1003A80002D31212090265D0030B8B4219D300E065
:1003B800090AC30B8B4201D3CB03C01A5241830BEA
:1003C8008B4201D38B03C01A5241430B8B4201D39A
:1003D8004B03C01A5241030B8B4201D30B03C01AC3
:1003E8005241C30A8B4201D3CB02C01A5241830A3D
:1003F8008B4201D38B02C01A5241430A8B4201D36C
:100408004B02C01A5241030A8B4201D30B02C01A95
:100418005241CDD2C3098B4201D3CB01C01A5241FC
:1004280083098B4201D38B01C01A524143098B4285
:1004380001D34B01C01A524103098B4201D30B016E
:10044800C01A5241C3088B4201D3CB00C01A524193
:1004580083088B4201D38B00C01A524143088B4258
:1004680001D34B00C01A5241411A00D201465241F1
:10047800104670475DE0CA0F00D04942031000D310
:100488004042534000229C4603098B422DD3030A65
:100498008B4212D3FC22890112BA030A8B420CD375
:1004A800890192118B4208D3890192118B4204D39E
:1004B80089013AD0921100E08909C3098B4201D31E
:1004C800CB01C01A524183098B4201D38B01C01A58
:1004D800524143098B4201D34B01C01A52410309CF
:1004E8008B4201D30B01C01A5241C3088B4201D37E
:1004F800CB00C01A524183088B4201D38B00C01A2B
:100508005241D9D243088B4201D34B00C01A524101
:10051800411A00D20146634652415B10104601D38E
:100528004042002B00D54942704763465B1000D318
:10053800404201B5002000F005F802BD0029F8D0BE
:1005480016E770477047C0461C2101231B049842D8
:1005580001D3000C10391B0A984201D3000A08394C
:100568001B09984201D30009043902A2105C401803
:100578007047C046040302020101010100000000A7
:10058800000000007047000010B50400034802F0A6
:100598008FFF200002F0B6FF10BDC04600480040A3
:1005A80070B504000D00044802F082FF2900200005
:1005B80002F084FF70BDC0460048004070B50400DA
:1005C8000D00044802F074FF2900200002F0ABFF80
:1005D80070BDC0460048004070B582B0019115005A
:1005E8001E00FFF7D1FF1B48FFF7CEFF019C210E2D
:1005F800230AFF221202134019432302FF22120486
:10060800134019432406214301910B2D11D01D2DB0
:1006180017D1042101A8FFF7D1FF0F48FFF7B4FF56
:1006280006993000FFF7CAFF0C48FFF7ADFF02B08C
:1006380070BD022101A8FFF7C1FF0948FFF7A4FF19
:10064800EEE7042101A8FFF7B9FF0648FFF79CFF72
:10065800E6E7C046E8510008EC5100088854000855
:10066800F0510008F4510008F0B583B004000D0003
:1006780016001F00009313000A0001000548FFF749
:10068800ABFF009733002A002100034802F042FA2A
:1006980003B0F0BDF851000800640040F0B583B025
:1006A80004000D0016001F00009313000A0001004B
:1006B8000548FFF791FF009733002A0021000348FF
:1006C80002F028FA03B0F0BD0852000800340040D8
:1006D80010B5074C21000C311822200004F0D2F884
:1006E800200018300C22002104F0DFF810BDC046AD
:1006F8009C050020002000E0013043001B189A00F0
:10070800044B9B185B68002B01D00228F4D9032303
:10071800181A70479C05002070B5002400E00134C9
:1007280063001B199B00094DEB185B68002B01D077
:10073800022CF4D9022C07D8044D63001E19B60008
:100748007051A8194160826070BDC0469C050020A8
:1007580010B560220021024804F0A7F810BDC04679
:1007680008050020F8B50500002301E00133DBB2DD
:10077800072B25D81C005A00D21892002348125C77
:10078800D207F3D55A00D218920012585208AA423A
:10079800ECD107005E00F0188000381804300822F9
:1007A80004F070F833199B0068000125DA591540E8
:1007B8000543DD511E00DB5D01221343F35523E0A1
:1007C8000023072B20D81C005A00D21892000F488B
:1007D800125CD20702D50133DBB2F2E707005E00F4
:1007E800F018800038180430082204F04BF8331948
:1007F8009B006D000120DA5910400543DD511E00B1
:10080800DB5D01221343F355F8BDC04608050020FF
:1008180010B5040002000021012003F0E5FC2200CD
:100828000E21032003F0E0FC014A2923D45410BD13
:100838006C05002010B5040002000721012003F018
:10084800D3FC22000F21032003F0CEFC014A2A2307
:10085800D45410BD6C05002010B50400064B186078
:1008680002000E21012003F0BFFC22000C2105200C
:1008780003F0BAFC10BDC04690000020014B0022D6
:100888001A607047A0010020F8B5DE4657464E466C
:100898004546E0B5E04B1B68002B04D10022DF4938
:1008A8000A60DF490A605A1CDB490A60DD49486A68
:1008B800DD49C854012A08D0022A00D14EE2F0BC12
:1008C800BB46B246A946A046F8BD0B78132BF6D80E
:1008D8009B00D64AD3589F46D54B19684529EED870
:1008E800D44B187C0028EAD0FF28E8D0CB4B002254
:1008F8001A6001321A6002241C60CB4A5470013419
:100908001C60CD4CA57B957004251D60CB4D2D78C2
:10091800D5701826A55F05261E602E1216710626AC
:100928001E6055711626A55F07261E602E12967149
:1009380008261E60D571258901361E602E0A16729A
:100948000A261E605572658901361E602E0A967247
:100958000C261E60D5720C25645F0D251D602512BE
:1009680015730E251D605473B24B5C6A002C00D1C0
:100978001C6A2512A94A0F231360AB4B9D731025DF
:100988001560DC73112414601874AA488246282460
:10099800045F0235156025125D74132515609C747B
:1009A80050462A24045F013515602512DD7415258B
:1009B80015601C75A24C24682512162616605D75F4
:1009C800172515609C7518241460D97519211160B4
:1009D80099494C7C1C760C8803351560250A5D7690
:1009E8001B2515609C764C8801351560250ADD7637
:1009F8001D2515601C771C200C5E0135156025121D
:100A08005D771F2515609C774E8C01351560340A7B
:100A1800DC77212414605E552227176004354E5D6B
:100A28001E55232616600434085DD8551560043712
:100A3800C85D985514600436885D585517600535AB
:100A4800485D185516600534085DD8552027C85FDD
:100A58008446282717600012985515606046D855B7
:100A68001E200E5E146037125F55023515601E5544
:100A7800744C2668360E5E552668360C2C27DE55D3
:100A88002668360A2D201E542468013083461C54DB
:100A98002F2414601A26885F804630208446106010
:100AA80040460012185502341460604646461E54EB
:100AB80065480068804632208446106040461855D4
:100AC800624C2068804633241460604646461E54B3
:100AD8005F480068804634208446106040461855B8
:100AE800023414604D5D60461D5436251560C95D9D
:100AF80019550234146051465846095C59555146F7
:100B080049690D0E1D550D0C01341D550D0A013492
:100B18001D5501341955013414605146C9690D0E2B
:100B28001D550D0C01341D550D0A01341D55013498
:100B380019553F211160023414605246527C5A54B0
:100B4800002533E0AB005B19DB003A4AD3181A00E2
:100B58005C3210783038040101321278303A50B2E1
:100B6800771C2E490F6020432F4A9055B41C0C6007
:100B7800180042300078D055F01C08601E0043363B
:100B8800367816551C0044342688441C0C60370AF5
:100B9800175402300860165546331C88431C0B60F6
:100BA800260A165402300860D4540135214A4023DD
:100BB800D35CAB4205DD194B1E6833000833FF2BAD
:100BC800C0D9164B1A68184B1A7078E62148FFF7F7
:100BD800DBFCFFF78FFD012800D870E6072209210A
:100BE8001D48FFF799FD072209211C48FFF794FDCE
:100BF80065E61B48FFF7C8FCFFF77CFD012800D815
:100C08005DE6072209211448FFF786FD072209211E
:100C18001448FFF781FD52E6A0010020980100204A
:100C28009C01002000600040980000200453000848
:100C38008C000020A40100206C0500209A050020EB
:100C480000000020EC5500206805002094000020DA
:100C58009000002018520008C8580008E058000802
:100C68002C520008D45800084E48FFF78DFCFFF7B7
:100C780041FD012800D822E6072209214A48FFF74A
:100C88004BFD072209214948FFF746FD17E648486A
:100C9800FFF77AFCFFF72EFD012800D80FE60722A0
:100CA80009214148FFF738FD072209214148FFF78C
:100CB80033FD04E64048FFF767FC404B00221A600A
:100CC8000120FFF7C9FDFAE53D48FFF75DFC3B4B06
:100CD80001221A60F3E53B48FFF756FC374B002228
:100CE8001A600020FFF7B8FDE9E53748FFF74CFC2C
:100CF800364B00221A60FFF7FDFC012800D8DEE51C
:100D0800072209213248FFF707FD07220921314848
:100D1800FFF702FD304B03221A70D0E52F48FFF78A
:100D280033FC2A4B00221A60FFF7E4FC002800D1AC
:100D3800C5E5072209212A48FFF7EEFC264B0122C8
:100D48001A70BCE52748FFF71FFC204B01221A60E8
:100D5800B5E5254B012252421A60B0E5234B1B78BA
:100D6800122B19D00AD8102B10D0112B00D0A6E5C1
:100D78001E4B59781E4A2C23D154A0E5142B00D0C1
:100D88009DE51A4B5A78184B1A6098E5174B597815
:100D9800174A2B23D15492E5144B5978154A2E2320
:100DA800D1548CE544520008C8580008F858000887
:100DB80058520008EC5800087052000894000020AF
:100DC80084520008A0520008B452000868050020A8
:100DD80020590008045900089A050020D852000834
:100DE8002C590008F052000800000020980000204C
:100DF8006C050020A4010020084B1B68084A1268F3
:100E0800934207D2591C054A1160064AD25C064B28
:100E18009A627047044BAA229A62FAE79C01002062
:100E28009801002098000020006000400023034A39
:100E38001360034A1360034A13607047A00100203F
:100E4800980100209C01002010B5234B9B691B07CB
:100E58000FD5214B9B695B0C5B00FF221340442B91
:100E68001AD01D4AD36908210B43D361FFF7DEFF6F
:100E780010BD194B9B69DB0616D4174B9B695B07A2
:100E880018D4154B9B699B0717D4134B9B699B067A
:100E980016D4114B9B69EBE7FFF7F0FC0E4AD369B8
:100EA80008210B43D361E3E70B4AD36910210B43B5
:100EB800D361DDE7FFF7E8FCDAE7FFF79DFFD7E747
:100EC800054BDA6920210A43DA619B69DB07CFD435
:100ED800014B01229A61CBE70060004010B5FFF793
:100EE800A5FF10BD30B583B0C04A116B202319434C
:100EF8001163126B13400193019BBD4B1C681F21AA
:100F08008020C00180239B0105E0400001221A4097
:100F1800104301395B08002BF7D18840FFF714FB19
:100F2800FF2318404000FC3B83409C431F21802046
:100F3800C00180239B0105E0400001221A401043B4
:100F480001395B08002BF7D18840FFF7FDFAFF2332
:100F580018404000FD3B83401C43A54B1C605C6A65
:100F68001F214020202305E0400001221A401043A1
:100F780001395B08002BF7D18840FFF7E5FAFF231A
:100F880018408000F03B83409C431F2140202023D1
:100F980005E0400001221A40104301395B08002B8C
:100FA800F7D18840FFF7D0FAFF2318408000FB3BB9
:100FB80083401C438E4B5C629C681F218020C001CB
:100FC80080239B0105E0400001221A4010430139AB
:100FD8005B08002BF7D18840FFF7B6FAFF231840CB
:100FE8004000FC3B83409C431F218020C00180239C
:100FF8009B0105E0400001221A40104301395B08BB
:10100800002BF7D18840FFF79FFAFF2318404000D4
:10101800FD3B83401C43764A9460536875490B40F6
:101028008020C00103435360D4681F2180239B01A3
:1010380005E0400001221A40104301395B08002BEB
:10104800F7D18840FFF780FAFF2318404000FC3BA7
:1010580083409C431F218020C00180239B0105E021
:10106800400001221A40104301395B08002BF7D1D8
:101078008840FFF769FAFF2318404000FE3B834091
:101088001C435B4BDC601C681F218020000280230E
:10109800DB0105E0400001221A40104301395B08DA
:1010A800002BF7D18840FFF74FFAFF231840400084
:1010B800FC3B83409C431F21802000028023DB01EE
:1010C80005E0400001221A40104301395B08002B5B
:1010D800F7D18840FFF738FAFF2318404000FD3B5E
:1010E80083401C43424B1C605C6A1F2180204023C4
:1010F80005E0400001221A40104301395B08002B2B
:10110800F7D18840FFF720FAFF2318408000F03B12
:1011180083409C431F218020402305E0400001229A
:101128001A40104301395B08002BF7D18840FFF7BC
:101138000BFAFF2318408000FB3B83401C432C4BD9
:101148005C629C681F21802000028023DB0105E08F
:10115800400001221A40104301395B08002BF7D1E7
:101168008840FFF7F1F9FF2318404000FC3B83401B
:101178009C431F21802000028023DB0105E0400002
:1011880001221A40104301395B08002BF7D188402F
:10119800FFF7DAF9FF2318404000FD3B83401C436A
:1011A800134A9460536814490B408020000203439B
:1011B8005360D4681F218023DB0105E04000012231
:1011C8001A40104301395B08002BF7D18840FFF71C
:1011D800BBF9FF2318404000FC3B83409C431F2180
:1011E800802000028023DB010EE0C0460038024068
:1011F80000140240FFBFFFFFFF7FFFFF40000122F6
:101208001A40104301395B08002BF7D18840FFF7DB
:101218009BF9FF2303405B00012002009A4014431E
:10122800264BDC60264B196C802464042143196426
:101238001A6C22400092009A90241A5921491140B0
:101248008022D2030A431A511F4900231F4A8B5494
:10125800802424068C6001328B54C8601C4B1A68A9
:1012680082431A601B4A1A619A68D20AD20244253C
:101278002A439A609D68802212022A439A601A685B
:1012880002431A601A6808252A431A601A68083542
:101298002A431A601A6870352A431A601A68603D32
:1012A8002A431A601A681C3D2A431A601A68023DCC
:1012B8002A431A608C60C86003B030BD0014024035
:1012C80000380240FFFF3FFF00E100E05F0300003D
:1012D8000060004005011000F0B5DE4657464E4656
:1012E8004546E0B5B9B0D24C2E220021200003F0CB
:1012F800DCFAD04FD92292000021380003F0D5FA49
:1013080024220021CC4803F0D0FAFFF721FA012566
:10131800CA4B1D60CA4B1D600026CA4B1E602B239A
:101328001922E25401330532E25402334432FA54AA
:10133800C54CA368F027BB43A360A368C34A134006
:10134800A360A368C24A1340A360C24803F002F82E
:10135800C14BC24A5A60C24923228F549E601C3A2C
:101368001A60236B2B432363236B2B402093209B12
:10137800226B02231A432263226B13401F931F9B85
:10138800226B04231A432263226B13401E931E9B75
:10139800226B08231A432263226B13401D931D9B63
:1013A800226B10231A432263226B13401C931C9B4D
:1013B800226B20231A432263226B13401B931B9B2F
:1013C8000120FFF725FA0120FFF734FAE120000396
:1013D80002F0CAF8E1267602300002F0E5FCA14FDF
:1013E800380001F085FD380001F0E4FE9620800108
:1013F80002F0BAFA9C4802F05BF807219B4802F019
:101408005DF8FA2002F092FF300002F0ADFA0722F0
:1014180009219748FFF780F9964B1D70FFF762FD89
:1014280080267601944B320094492FA802F098FF49
:10143800934B3200934928A802F092FF8422924BE2
:10144800D200924921A802F08BFF9148FFF79CF83F
:101458000823904A1D219048FFF720F98F4B1A68FE
:101468008F498C4662440A921A688E49884690448D
:101478001A688B4693441F68FA239B009C4667446E
:10148800636F1D436567704B5B6F9B07FBD5864B8E
:10149800864A1A60864A1A6000225A60854A9A600B
:1014A800814BDB680722110019401A42F8D10B91D1
:1014B8007D4B814A1A6012910C91119189460E91C7
:1014C8000D910F91002600231C00454600F013FCE7
:1014D8007A48FFF759F8BFF34F8F6149CB68E0228C
:1014E800D2001A40764B1343CB60BFF34F8FC046F0
:1014F800FDE76A4B1D686B4B9C466544714B9A46E9
:101508008023DB000093534636AA37A96E4801F0C2
:1015180099FC804600905346369A37996B48FFF7F6
:101528005BF8369B002B01D100F0FCFB5A4B379A35
:101538009A4201D000F0F6FB624B1B78012B00D0D9
:10154800F0E3564B1A68120E10A9282009180A70E1
:101558001A68120C10A9013009180A701A68120AC0
:1015680010A9013009180A701B6810AA2B215218FB
:1015780013705748FFF708F804211AA8FFF71EF858
:101588004148FFF701F84F4B9A78294B1A74002FFE
:1015980005D1424B1F68FA239B009C46674443468B
:1015A800484A36993798FFF779F8BBE34948FEF778
:1015B800EBFF002701E00137FFB2072F12D87B00AD
:1015C800DB199B00444A9B5CDB07F4D57B00D919E7
:1015D8008900885840085218043208231D21FFF753
:1015E80043F8E8E70B9FA4E3364F8023DB00009322
:1015F8003B0036AA37A9394801F024FC1090009026
:101608003B00369A37993648FEF7E6FF00233B74CD
:10161800224B1B68234A93469B44379B314A944686
:101628006344072B00D908E29B002F4AD3589F46F2
:101638006C050020A40100209C05002068050020FE
:10164800940000209000002000380240FFE3FFFFD4
:10165800FF1FFFFF0024F40010E000E07F3E0000C1
:1016680000ED00E020A1070000100140105900081B
:101678002C5900089A05002074580008C83D00201D
:1016880060530008C82D002088540008C84D002069
:1016980064530008DC51000871180000EC55002064
:1016A8001027000020BF020000300040CCCC000012
:1016B80055550000EE0F0000AAAA00006C53000860
:1016C8000400FA05EC510020006400408C53000827
:1016D8009C530008B8530008080500200034004057
:1016E800CC5300088FE7FFFFA8580008E44B984642
:1016F8005B781B024246127813431A00E14B9A4664
:101708001A804346DF783F023FB29B781F43534617
:101718001F8143461B79514614930B741392100092
:1017280078436421FEF724FE524615901062424623
:10173800D3791B0292791800104380460A21139826
:10174800FEF78CFD82B2924664214046FEF70CFEFD
:10175800069164214046FEF781FD0590149B049391
:10176800159903910A213800FEF7E8FE09B20291A3
:101778000A213800FEF7FCFD00B201900A211398F7
:10178800FEF7F2FD89B200915346BF4AFC21890059
:10179800BE4803F093F8BE4B1B68002B15DABD4B0F
:1017A8001B68002B00DA3DE1B64A3C23D35C1E2BB4
:1017B80000D837E1222B00D934E1127C131C4B2AC4
:1017C80000D94B23AE4A13712CE1B348FEF7DCFE77
:1017D800AB4BAF4A12681A7100225A71DFE7A84A68
:1017E80053791B021BB211790B439A46D3791B021A
:1017F8001BB2927913431393002B00DC98E000236B
:10180800DBB219009F4A34231491D1549C4A904664
:1018180057783F023FB213781F430A213800FEF77A
:10182800A7FD02B215920A213800FEF787FE0AB218
:1018380016924246D7783F023FB293781F430A2157
:101848003800FEF795FD02B217920A213800FEF71C
:1018580075FE0AB218920A215046FEF789FD02B2B7
:1018680019920A215046FEF769FE0FB20A21139811
:10187800FEF77EFD02B290460A211398FEF75EFE3F
:101888000BB21499002960D0844AFC210792069370
:10189800434605930497199B0393189B0293179B40
:1018A8000193169B0093159B7D4A8900774803F0A6
:1018B80005F8744A3423D35C002B00D0BDE05346AE
:1018C800002B08D05246083213B29A466C4B1A7154
:1018D800524612125A716B4B52461A85139A5A8500
:1018E8001B7C0A2B33D9674B187C2E22995C8842C3
:1018F80003D3634B00221A715A71664B1A68002A87
:1019080000DA8FE05F4F3C23FB5C1F3BDBB2032B0D
:1019180025D817B2884203D2974200DA17003FB29F
:101928006048FEF731FE564B1F713F125F7179E038
:101938005346002B01DD002362E7524B1B7C092B29
:1019480001D800235CE701235AE7574A9DE7574827
:10195800FEF71AFE4A4B00229A71DA71C3E754481F
:10196800FEF712FE5EE046490B789A464F78C87833
:1019780000028B789C46CA7912028B791A431204AA
:101988004B791B0209790B43FC211A4302926346E7
:101998001843019000975346464A89003B4802F095
:1019A8008DFF384A3423D35C002B3BD0344B0022C4
:1019B800DA709A7036E0324BDA78120299780A4374
:1019C800304913928A8518792F22149088545F79A8
:1019D800BA4601328F54DA79120298791700074310
:1019E800B8464F865F783F023FB21B781F430A21F3
:1019F8003800FEF7BDFC03B21593414604915146E9
:101A0800039114980290139A01920A213800FEF764
:101A180095FD09B20091159B274AFC2189001B48B6
:101A280002F04CFF164F39003798FEF79BFE109BCB
:101A38003A0036993798FEF717FE1448FEF7A4FDCA
:101A48000B9F7CE10E4A53781B0212781343FC214A
:101A58001A4A89000D4802F031FF0A4A3423D35C40
:101A6800002B03D0064B00225A701A70044B8322B5
:101A78001A710022DA719A715A7108231093D1E70A
:101A8800EC510020A4010020DC530008FC51002088
:101A980004000020000000202454000854530008CB
:101AA800345400088C540008745800088054000806
:101AB800A0540008BC540008FC540008485500080D
:101AC800DB4B5A78120210921878DA493E22885471
:101AD800DF78380213909F781497987801328854E9
:101AE8005A7912021592187980463C228854DA797C
:101AF8001202987916909F79BA463D275046C855E4
:101B08006946402009180027C95F1B7819431091BE
:101B18006B464C215B1800201B5E149F1F436B46CD
:101B280008315B1800201B5E41461943884612B2F3
:101B38001698104382460A211098FEF719FC03B242
:101B480013930A215046FEF7F9FC09B206910A21BF
:101B58005046FEF70DFC00B205900A214046FEF7FC
:101B6800EDFC09B204910A214046FEF701FC00B2DF
:101B780003900A213800FEF7E1FC09B202910A211C
:101B88003800FEF7F5FB00B201900A211098FEF725
:101B9800D5FC09B20091139BA74AFC218900A748EC
:101BA80002F08CFE49E7A24B597809021878DF78D1
:101BB8003F023FB29A7817435A79120292461A792D
:101BC8001092DA79120212B29B791A4390460143B5
:101BD80013910A211000FEF7B1FC09B204910A2101
:101BE8004046FEF7C5FB00B203905346109A1343D4
:101BF80002930A213800FEF7A1FC09B201910A21DB
:101C08003800FEF7B5FB00B20090139B8C4AFC210C
:101C180089008A4802F052FE0FE721A802F0DEFC94
:101C2800002800D0B9E00F9A002A03D0854B1B6822
:101C38009B1A1AD428A802F0C1FB8348FEF7A4FC1B
:101C4800824801F035FC0421814801F037FC7D4BC6
:101C58001B68FA229200944663440F930324794B3D
:101C68001B687C4A944663440D934B46002B05D071
:101C7800744B1B684A469B1A00D4B7E20C9A002A98
:101C880004D0704B1B689B1A00D4BEE2724B5B6891
:101C980080214901C91A2FA802F074FB022E00D135
:101CA800FEE200D9E2E2002E00D1ECE2012E1BD1C7
:101CB8002FA802F083FB6948FEF766FC684E71683E
:101CC8003068FEF77BFC6748FEF75EFC664801F06B
:101CD800EFFB3068716801F0F1FB5A4B1B685D4AF5
:101CE800944663440E930226564B1B680A9A9B1A25
:101CF80001D40B9B0A935D4B5D4A1A60514B1B68DC
:101D08005B1B01D4FFF7E4FB4E4B1B685A469B1A3A
:101D180001D4FFF7DDFB574801F082F8002801D015
:101D2800FFF7E7FB002F04D0464B1B68DB1B00D4F2
:101D38003CE4514801F074F8002800D054E44F4BBB
:101D48005B688421C900C91A21A802F01BFB4C4B0F
:101D58005B6880214901C91A28A802F013FB002CEE
:101D680000D15AE7A31EDBB2032B00D97DE728A8D0
:101D780002F034FC00282FD10D9A002A00D174E714
:101D8800304B1B689B1A00D56FE72A4B00225A621A
:101D98000B9B0D930F93002467E78022244B9846F2
:101DA800D200190021A802F02FFC04003548FEF7E4
:101DB800EBFB21004046FEF7F3FB244801F078FBDB
:101DC8002100404601F07AFB28A802F02DFD21A849
:101DD80002F0F7FA022442E78022154B9A46D20015
:101DE800190028A802F010FC80462748FEF7CCFB13
:101DF80041465046FEF7D4FB042C00D128E1052CBF
:101E080000D186E1032C43D028A802F00DFD4346FB
:101E1800022B08D9064B98461C49180002F082FD8F
:101E2800804500D1DEE128A802F0CBFAA4E7C0463D
:101E3800EC510020A401002068550008FC51002046
:101E4800BC550008EC550020085600080014014055
:101E58001856000810270000406402401457000874
:101E68009C05002088540008001001400030004004
:101E7800AAAA000000640040003400402860024024
:101E880028640240F85500082056000898560008B3
:101E980028A802F0C9FC1A90431C12D14346022B11
:101EA80008D9E14B9846E149180002F03BFD80450E
:101EB80000D1B4E028A802F0B7FC28A802F081FA03
:101EC8005AE7DB4B9846586028A802F0B2FC434614
:101ED800D86004221AA928A802F012FC04221AA920
:101EE80028A802F00DFC04221AA928A802F008FC70
:101EF80004221AA928A802F003FC04221AA928A877
:101F080002F0FEFB04221AA928A802F0F9FB042219
:101F18001AA928A802F0F4FB04221AA928A802F09A
:101F2800EFFB04221AA928A802F0EAFB04221AA946
:101F380028A802F0E5FB04221AA928A802F0E0FB71
:101F480004221AA928A802F0DBFB04221AA928A84F
:101F580002F0D6FB04221AA928A802F0D1FB28A86F
:101F680002F062FC431C08D0B14B5B69834204D089
:101F7800B04B1A68AE4B9A61586104221AA928A876
:101F880002F0BEFB28A802F04FFC1A90431C01D0B7
:101F9800A74B587428A802F047FC1A90431C01D09C
:101FA800A34BD861A24B9846DB681093424652680F
:101FB800642113921000FEF7DBF9109B58439E49E9
:101FC800FEF7D6F9424650628021974A9246424629
:101FD800526902920190109B0093139B974AC90083
:101FE800504602F06BFC5046FEF7CEFA4346DB68DB
:101FF800002B06DB002B0EDD8D4B5B6A002B0ADA0B
:1020080003E08B4A526A002AF4DD8D48FEF7BCFAD9
:10201800874B00225A6228A802F0D3F9ACE628A818
:1020280002F0CCF98748FEF7AFFA874801F040FA8A
:102038000521864801F042FA7D4A41230021D15406
:102048007C4B1B687C4A944663440D93042493E6B6
:1020580043460C2B07D9744B9A467D49180002F069
:1020680061FC824511D04346022B07D96E4B984636
:102078006E49180002F056FC804530D028A802F0BE
:10208800D3FB28A802F09DF976E68023DB009A4668
:10209800654B98465246190028A802F031FB524673
:1020A800414628A802F02CFB614B984641239A46EA
:1020B800434652469B5C28215943403141440831EC
:1020C800203A28A802F01CFB434652469B5C013389
:1020D80042465146535428A802F073F94CE628A802
:1020E80002F06CF95B48FEF74FFA574801F0E0F947
:1020F8000521594801F0E2F94D4B4122995C013A1A
:1021080099544C4B1B684C4A944663440D930524E0
:1021180032E628A802F088FB431E9A46444A402328
:10212800D35C534502D95346132B11D94346022B8E
:1021380007D93D4B98463D49180002F0F3FB80450E
:1021480046D028A802F070FB28A802F03AF913E656
:1021580028A802F069FB28A802F066FB28A802F06C
:1021680063FB28A802F060FB28A802F05DFB28A802
:1021780002F05AFB2823524653432D4A904698446E
:1021880043464433188028A802F04EFB43464633A2
:10219800188028A802F048FB28A802F045FB28A8C8
:1021A80002F042FB28A802F03FFB43464233187076
:1021B80028A802F039FB28A802F036FB28A802F06C
:1021C80033FB43464333187028A802F0FAF8D3E5E6
:1021D80028A802F0F3F82148FEF7D6F90B9B0D93D7
:1021E8000024C9E50B9B0F9300241CE60120FEF791
:1021F8000FFB1B48FEF7C8F90E4B1B68194A94469B
:10220800634411930B9B994638E50120FEF712FBB6
:102218001548FEF7B9F9074B1B68124A9446634400
:1022280012930B9B0C9331E5EC5100209856000853
:10223800A4010020EC550020102700002C560008AF
:102248006C5600089C56000800140140B05600085F
:10225800B8560008C8560008DC560008E4560008BE
:10226800F4560008B80B000004570008F31EDBB250
:10227800012B00D938E5644B1B680E9A9B1A00D5D0
:102288007DE3002630E5FEF735FA032801D0012664
:102298002AE55E4A07215E48FEF73EFA012623E555
:1022A8002FA802F060F95B4B9A68904230D2FEF793
:1022B80021FA032800D117E5534B1B680E9A9B1A85
:1022C80000D511E55448FEF75FF94F4B1B68FA2219
:1022D8009200944663440E932FA802F062F8FEF72A
:1022E800F7F94E4B00221A609620800101F03CFB62
:1022F8004B4801F0DDF807214A4801F0DFF8FA20E1
:1023080002F014F8E120400201F02EFB0326EBE472
:1023180045492FA802F031F91A903E4B9B68984224
:1023280054D34248FEF730F93A4B99683E4E300094
:10233800FEF744F93E48FEF727F93378AA2B04D173
:10234800394B5B78552B00D180E03A48FEF71CF9F1
:10235800394E30000E300121FEF730F93748FEF7CC
:1023680013F930000F300121FEF728F93048FEF745
:102378000BF9F37B022B1ED9314B1B7C2E492C22E7
:102388008A5C93420CD22E4A2820115E2A20125EC3
:10239800914205DB2A492E228A5C934200D2BAE296
:1023A800284B1B68002B06D0234B9B7B042B02D0A9
:1023B800032B00D0A3E2144B1B68FA229200944628
:1023C80063440E93FEF784F903268DE41E48FEF756
:1023D800DBF804211AA8FEF7F1F82FA802F0C3F8D9
:1023E8001A9004211AA8FEF7E9F81148FEF7CCF86C
:1023F8002FA801F0D6FF044B1B68F533FF330E936B
:10240800FEF766F904266FE4EC5500205F02000031
:10241800185900089C050020985800088C000020D6
:102428000010014010590008EC51002034570008F2
:1024380088540008105800086C050020245800082B
:10244800A40100209400002020570008DA4B9B7854
:102458005F2B00D079E7D84BDB78812B00D074E76D
:10246800D54B1B79902B00D06FE7D34B9A7A120289
:1024780012B2597A0A43D149CA829A7B1202587B0E
:1024880002430E920A801A7C1202D87B02431092F1
:102498004A809A7C1202587C024313928A801A7DE1
:1024A8001202D87C02439246CA809A7D1202587D55
:1024B800024314920A811A7E1202D87D02431592B1
:1024C8004A815A7E8B7B9A4202D00B000021D97335
:1024D800BA4B9A73DB7BFF2B02D00133B74AD37315
:1024E800B54E2621735C1B021BB20139715C0B438C
:1024F800B248804683812820335C1B021BB2272107
:10250800725C1343424693822A23F35C1B022922FE
:10251800B25C1343424653823823F35C1B023722D2
:10252800B25C1343424653833E23F35C1B023D22B5
:10253800B25C1343424613844023F35C1B023F22E0
:10254800B25C13434246D3834223F35C1B0241220D
:10255800B25C1343424693834623F35C1B021BB2CF
:102568004522B25C134342461383CB23F35C1354D6
:10257800CC23F35C5354CD23F35C01395354CE235D
:10258800F35C01395354CF23F25CAB3B4146CA5448
:10259800AC33F35CFA22D200944663444B840A219C
:1025A8005046FDF7E1FE89B208910A215046FDF731
:1025B80055FE80B207900A21109B9A461800FDF735
:1025C800D3FE89B206910A215046FDF747FE80B234
:1025D8000590159B04930A21139B9A461800FDF752
:1025E800C3FE89B203910A215046FDF737FE80B237
:1025F80002900A210E9B9A461800FDF7B5FE89B293
:1026080001910A215046FDF729FE80B20090149BE3
:102618006B4A8021C900300002F050F93000FDF704
:10262800B3FF434616229B5E9C4642461821525EE3
:1026380041462020095E40461A23C05E029001915F
:10264800009263465F4A8021C900300002F036F9E3
:102658003000FDF799FF43461A885B4B9A4204D82D
:10266800564B5B8858498B4206D9584B47221A600B
:102678005748FDF789FFBBE650491620095E002937
:1026880017D1002A15D1002B13D14C490C20095E13
:1026980000290ED149491E20095E002909D1474960
:1026A8001A20095E002904D144491820095E00292E
:1026B8007BD0464900200860D318FA2149008B4294
:1026C80000DCF0E01199814204D0424B1B685B1A90
:1026D800834217DBE1239B009A4205D3374B1B89C2
:1026E800013B9BB2172B0DD83B48FDF74DFF00204F
:1026F800FEF78EF8374B1B68FA22D20091469944B0
:102708000B9B1193129A002A03D0324B1B689B1A19
:102718001AD42A4B5A88E1239B009A4205D3274BA7
:102728005B89013B9BB2172B0ED82C48FDF72CFF79
:102738000020FEF77FF8274B1B68FA22D200944648
:1027480063440C930B9B1293254B1B7C612B55D830
:102758001C2B7BD91D2B00D8F7E51C4B06221A60D1
:102768002048FDF711FFFDF7C5FF002800D1ECE573
:102778001D4B1B78012B00D1E7E50A9B002B00D0ED
:10278800E3E51A4B1B68002B00D1DEE5072209217F
:102798001748FDF7C1FF144B01221A700D4B1B6837
:1027A800144A944663440A93CFE5084B4E321A60A4
:1027B8001148FDF7E9FE1BE6EC5100206C050020EE
:1027C8004057000874570008701700008C0000205C
:1027D800A8570008EC550020C0570008D05700083B
:1027E800A4010020F85700089A0500206805002079
:1027F8002C59000810270000B4570008644B032226
:102808001A606448FDF7C0FE634B1B78012B00D1AA
:102818009BE5FDF76FFF002800D196E50A9B002B8A
:1028280000D092E55D4B1B68002B00D18DE5072297
:1028380009215B48FDF770FF574B01221A70594B6D
:102848001B68594A944663440A937EE5504B082214
:102858001A605648FDF798FEFDF74CFF012800D88E
:1028680073E54D4B1B78032B00D16EE50A9B002BBB
:1028780000D06AE5494B1B68002B00D165E50722AB
:1028880009214B48FDF748FF072209214948FDF770
:1028980043FF414B03221A70424B1B68424A94463D
:1028A80063440A9351E54B46002B00D04DE5384B65
:1028B80007221A604048FDF767FEFDF71BFF002856
:1028C80000D142E5344B1B78012B00D13DE50A9B32
:1028D800002B00D039E5314B1B68002B00D134E5C3
:1028E800072209212E48FDF717FF2B4B01221A70EA
:1028F8002C4B1B682C4A944663440A9325E52F48C1
:10290800FDF742FE0120FDF7A7FF2D4B0022DA73E9
:10291800244B1B684FE52A492B228A5C934210D826
:10292800284B1B68002B00D145E52748FDF72CFEF6
:102938000020FDF791FF224B0022DA73194B1B6828
:1029480039E51F4B9B7B052B03D8032B00D232E5BF
:1029580004E0093BDBB2012B00D92CE5194B1B68BD
:10296800002B00D127E51948FDF70EFE0020FDF7E2
:1029780073FF134B0022DA730A4B1B681BE5FDF744
:10298800B9FE032801D1FFF7AFF90026FFF7ACF92C
:102998008C000020E05700089A05002068050020F8
:1029A8002C590008EC55002010270000EC570008AF
:1029B8002059000804590008045800083058000835
:1029C8006C0500209400002058580008785800082A
:1029D800DFF834D00D480E490E4A002302E0D458DF
:1029E800C4500433C4188C42F9D30B4A0B4C00234F
:1029F80001E013600432A242FBD301F095FC01F020
:102A08001DFF01F08DFC7047000008200000002029
:102A18007000002070590008700000200056002047
:102A2800F0B583B006001D00089CC3689B070CD155
:102A380003690327380018401F4201D0012705E029
:102A4800002A4ED0002313604BE00027002A11D043
:102A58003B001B331B019B595B072FD51D201060C2
:102A6800002907D03B001B331B019B592022121A57
:102A7800D3400B603B001B331B01F3185A680F232C
:102A88001340A34206D83B001B331B01F3185B68B5
:102A98000F241C40002D26D008220021684601F092
:102AA80004FF3B01F3181A00B932FF321268009292
:102AB800BD33FF331B68019300220BE00B20CEE7E8
:102AC80093089B0069465B5803211140C900CB401D
:102AD800AB540132A242F3D32000002F05D0012FBE
:102AE80008D003B0F0BD0020F7E7F36820221343B5
:102AF800F360F6E73369202213433361F1E70000FE
:102B0800034B984201D0002070470120FCE7C046E3
:102B180000340040F0B585B0060001911F00032184
:102B280000E01900B068E0235B05184219D1B369C9
:102B3800FF20184210D0B36836481843B060B46814
:102B4800344D2C40AC42FAD04B1EDBB20029E8D100
:102B58000520404205B0F0BDB068E0235B0518428F
:102B68004FD0B3681B0E03241C40032C4CD00B2AF7
:102B780004D01D2A18D003204042EBE7019B5905D9
:102B8800230018331B0199510A9B082B3FD82300B7
:102B980018331B01F3180A9A5A600822002102A868
:102BA80001F083FE002316E0019BD900042319439A
:102BB800230018331B019951E6E79908F85C0322B2
:102BC8001A40D20090408A0002A951580191084346
:102BD80002A9505001330A9A9342EED32301F31805
:102BE8001A008932FF32029911608D33FF33039A3C
:102BF8001A6018342401A35901221343A3510A98D7
:102C0800A8E701204042A5E702204042A2E70420AD
:102C180040429FE78080800010B5034A00210348A6
:102C280001F043FE10BDC04608280000C005002082
:102C3800F0B5D6464F464646C0B504000D0016000E
:102C4800FFF7EAFF2300C82202E0002204C30A00BB
:102C5800511E002AF9D123680132134323606368A7
:102C6800DB07FCD5384B9D4206D0384B9D4203D03C
:102C7800374BE361374BE36123682022134323601A
:102C8800002E5CD02368103A9343236023680822FF
:102C98001343236080239B009946E25801231A437B
:102CA8004946625087229200A1589943A150812138
:102CB80089008C4661589943604621508327BF009C
:102CC800E1599943E1518526B600A1599943A1518B
:102CD80000218A4690218900504660500431605096
:102CE800A1581943A150A15888460221404688435B
:102CF800A050604620588843804660464546255087
:102D0800E0590843E051A7598F43A751343650463C
:102D1800A0510436A051A5582943A1506269122137
:102D28000A4362614A46A2589A4349466250226859
:102D38009A432260E0BCBA46B146A846F0BD236873
:102D4800102213432360A1E7A086010040420F0030
:102D580001002B0001001C00F0B5CE46474680B5A7
:102D680083B08146FFF7CCFE040083001B181B02CA
:102D78001B189B00194A9F58FF2F27D8174E85000C
:102D88002D182D022B189B007A1C9A51BB009846CF
:102D9800D91989002B189B00C9180B0008339B19F7
:102DA800043389190A000832043108200090484683
:102DB800FFF736FE4744BF002D19AD007F19F719FC
:102DC800786103B0C0BCB946B046F0BD002300939B
:102DD800002200214846FFF723FEF2E7C005002045
:102DE80010B50248FFF7B8FF10BDC04600640040A8
:102DF80010B50248FFF7B0FF10BDC04600640040A0
:102E080010B50248FFF7A8FF10BDC04600340040C7
:102E180010B50248FFF7A0FF10BDC04600340040BF
:102E280010B5FFF76DFE83001B181B021B189B00D3
:102E380003495858002801D0CA18506910BDC04627
:102E4800C0050020F0B583B00D0017000193FFF70F
:102E580057FE06008400241824022418A400234BDB
:102E6800E358002B01D0012805D900233B60002737
:102E7800380003B0F0BD83001B181B021B189B0011
:102E88001A4AD3185A682A609A683A605F69089B98
:102E98009F4200D91F00B400A4192402A119890077
:102EA8000831124D491904313A00019801F0EAFC41
:102EB80072B6A3199B005A59013A1C005A51FF2AAD
:102EC80001D962B6D4E7B3009B191B022000074C56
:102ED800001904309B199B0014331919043193000D
:102EE8009A18920001F0CEFCEBE7C046C00500201E
:102EF80010B582B00100A94A106C8024A4042043B4
:102F08001064136C23400193019B0022A448FFF72F
:102F18008FFEA44B1C681F2180204000802305E001
:102F2800400001221A40104301395B08002BF7D1F9
:102F38008840FDF709FBFF2318404000FC3B834015
:102F48009C431F2180204000802305E0400001228F
:102F58001A40104301395B08002BF7D18840FDF770
:102F6800F3FAFF2318404000FD3B83401C438D4A81
:102F78001460536A0F218B4306390B4353629468DC
:102F8800163180204000802305E0400001221A40CD
:102F9800104301395B08002BF7D18840FDF7D4FABC
:102FA800FF2318404000FC3B83409C431F218020A6
:102FB8004000802305E0400001221A4010430139F7
:102FC8005B08002BF7D18840FDF7BEFAFF231840B5
:102FD8004000FD3B83401C43724B9C605A68724919
:102FE8000A405A60DC682131FF318020400080238C
:102FF80005E0400001221A40104301395B08002B0C
:10300800F7D18840FDF7A0FAFF2318404000FC3BA9
:1030180083409C43802300E05B08002BFCD1614B7C
:10302800DC601C681F218020800080235B0005E095
:10303800400001221A40104301395B08002BF7D1E8
:103048008840FDF781FAFF2318404000FC3B83408D
:103058009C431F218020800080235B0005E0400006
:1030680001221A40104301395B08002BF7D1884030
:10307800FDF76AFAFF2318404000FD3B83401C43DC
:10308800484B1C605C6A1F210220012305E04000B8
:1030980001221A40104301395B08002BF7D1884000
:1030A800FDF752FAFF2318408000F03B83409C4311
:1030B8001F210220012305E0400001221A4010438D
:1030C80001395B08002BF7D18840FDF73DFAFF2353
:1030D80018408000F63B83401C43324B5C629C687E
:1030E8001F218020800080235B0005E04000012232
:1030F8001A40104301395B08002BF7D18840FDF7CF
:1031080023FAFF2318404000FC3B83409C431F21C7
:103118008020800080235B0005E0400001221A40E7
:10312800104301395B08002BF7D18840FDF70CFAF2
:10313800FF2318404000FD3B83401C43194B9C6013
:103148005A681A490A405A60DC681F2180208000AA
:1031580080235B0005E0400001221A40104301393A
:103168005B08002BF7D18840FDF7EEF9FF231840E4
:103178004000FC3B83409C4380235B0000E05B08ED
:10318800002BFCD1074BDC60094B802252031A60EC
:10319800802292031A6002B010BDC0460038024077
:1031A8000064004000040240FFFEFFFFFFFDFFFF38
:1031B80000E100E010B582B00100B44A106C802430
:1031C800A40120431064136C23400193019B002247
:1031D800AF48FFF72DFDAF4B1C681F2108200423C3
:1031E80005E0400001221A40104301395B08002B1A
:1031F800F7D18840FDF7A8F9FF2318404000FC3BB1
:1032080083409C431F210820042305E0400001223D
:103218001A40104301395B08002BF7D18840FDF7AD
:1032280093F9FF2318404000FD3B83401C43994B12
:103238001C601C6A1F210820042305E040000122AD
:103248001A40104301395B08002BF7D18840FDF77D
:103258007BF9FF2318408000F03B83409C431F21EB
:103268000820042305E0400001221A4010430139D8
:103278005B08002BF7D18840FDF766F9FF2318405B
:103288008000F43B83401C43824B1C629C681F21D6
:103298000820042305E0400001221A4010430139A8
:1032A8005B08002BF7D18840FDF74EF9FF23184043
:1032B8004000FC3B83409C431F210820042305E079
:1032C800400001221A40104301395B08002BF7D156
:1032D8008840FDF739F9FF2318404000FD3B834043
:1032E8001C436C4B9C605A6808218A435A60DC680E
:1032F80017310820042305E0400001221A4010433A
:1033080001395B08002BF7D18840FDF71DF9FF2331
:1033180018404000FC3B83409C43042300E05B08CA
:10332800002BFCD15B4BDC601C681F21102008239C
:1033380005E0400001221A40104301395B08002BC8
:10334800F7D18840FDF700F9FF2318404000FC3B07
:1033580083409C431F211020082305E040000122E0
:103368001A40104301395B08002BF7D18840FDF75C
:10337800EBF8FF2318404000FD3B83401C43454BBE
:103388001C601C6A1F211020082305E04000012250
:103398001A40104301395B08002BF7D18840FDF72C
:1033A800D3F8FF2318408000F03B83409C431F2143
:1033B8001020082305E0400001221A40104301397B
:1033C8005B08002BF7D18840FDF7BEF8FF231840B3
:1033D8008000F43B83401C432E4B1C629C681F21D9
:1033E8001020082305E0400001221A40104301394B
:1033F8005B08002BF7D18840FDF7A6F8FF2318409B
:103408004000FC3B83409C431F211020082305E01B
:10341800400001221A40104301395B08002BF7D104
:103428008840FDF791F8FF2318404000FD3B83409A
:103438001C43184B9C605A6810218A435A60DC6808
:103448000F311020082305E0400001221A401043E4
:1034580001395B08002BF7D18840FDF775F8FF2389
:1034680018404000FC3B83409C43082300E05B0875
:10347800002BFCD1074BDC60074B80229200DA60FE
:103488008022D200DA6002B010BDC0460038024087
:10349800003400400004024000E100E000BEFEE706
:1034A800024A1368013313607047C046EC55002088
:1034B800014B18607047C046E851002010B50E4B0C
:1034C8001B68DB0703D50C4B5B681B04F7D10B4A61
:1034D80093688024A343936003E002789A620130E2
:1034E80021004C1E002905D0054B1B68DA6912061D
:1034F800FAD5F2E710BDC0465860024000480040C7
:10350800E851002010B50400FCF796FE01002000E9
:10351800FFF7D4FF10BD092802D83030C0B2704779
:103528005730C0B2FBE730B583B0040001AB0022CE
:103538005A7014E020780009FFF7EDFF6B46187108
:1035480001A8FFF7DFFF23780F201840FFF7E3FFFC
:103558006B46187101A8FFF7D5FF013429004D1EED
:103568000029E7D103B030BD70B582B00400C84B64
:10357800196B80208003014319631A6B0240019282
:10358800019A1A6C8021C9020A431A641B6C0B4009
:103598000093009BBF4B1A68BF491140BF4A0A43BA
:1035A8001A60BF48BF491A68C0231340402B27D070
:1035B800B84B9860D960B74B5A68120C1204842132
:1035C800C9000A435A601A68B74E3240802109057B
:1035D8000A431A601A68012002431A60B34B18683C
:1035E800AD4D0540B248284318601A68324011436F
:1035F8001960B04B1D681F2180204000802309E01E
:10360800A44BD8609960D6E7400001221A401043C5
:1036180001395B08002BF7D18840FCF795FFFF23A1
:1036280018404000FC3B83409D431F218020400000
:10363800802305E0400001221A40104301395B084D
:10364800002BF7D18840FCF77FFFFF23184040008C
:10365800FD3B83401D43974A1560536A0F218B43F6
:1036680008390B4353629568183180204000802345
:1036780005E0400001221A40104301395B08002B85
:10368800F7D18840FCF760FFFF2318404000FC3B5F
:1036980083409D431F2180204000802305E0400097
:1036A80001221A40104301395B08002BF7D18840EA
:1036B800FCF74AFFFF2318404000FD3B83401D43B1
:1036C8007C4B9D605A687C490A405A60DD6821310C
:1036D800FF3180204000802305E0400001221A408D
:1036E800104301395B08002BF7D18840FCF72CFF09
:1036F800FF2318404000FC3B83409D431F2180204E
:103708004000802305E0400001221A40104301399F
:103718005B08002BF7D18840FCF716FFFF23184001
:103728004000FE3B83401D43624BDD601D681F2146
:103738008020800080235B0005E0400001221A40C1
:10374800104301395B08002BF7D18840FCF7FCFED9
:10375800FF2318404000FC3B83409D431F218020ED
:10376800800080235B0005E0400001221A401043DE
:1037780001395B08002BF7D18840FCF7E5FEFF23F1
:1037880018404000FD3B83401D434A4B1D605D6A65
:103798001F210220012305E0400001221A401043A6
:1037A80001395B08002BF7D18840FCF7CDFEFF23D9
:1037B80018408000F03B83409D431F2102200123D5
:1037C80005E0400001221A40104301395B08002B34
:1037D800F7D18840FCF7B8FEFF2318408000F83B7B
:1037E80083401D43334B5D629D681F21802080000C
:1037F80080235B0005E0400001221A401043013994
:103808005B08002BF7D18840FCF79EFEFF23184089
:103818004000FC3B83409D431F2180208000802383
:103828005B0005E0400001221A40104301395B08A3
:10383800002BF7D18840FCF787FEFF231840400093
:10384800FD3B83401D431B4B9D605A681B490A4042
:103858005A60DD681F218020800080235B0005E01E
:10386800400001221A40104301395B08002BF7D1B0
:103878008840FCF769FEFF2318404000FC3B83406A
:103888009D431F218020800080235B001EE0C046EE
:1038980000380240286002401F80FCFF000502003B
:1038A80024480040C84D0020FFFFFFE15860024057
:1038B80040040200000C0240FFFEFFFFFFFDFFFF77
:1038C800400001221A40104301395B08002BF7D150
:1038D8008840FCF739FEFF2303405B0001263200D5
:1038E8009A4015431A4BDD601A4990228B583020B4
:1038F80083438B50184D2B68843A934313432B60B2
:103908002B68164A13402B606B68154A13406B608E
:10391800144B18686308C0182100FCF79FFC0004CA
:10392800000CE8602B681E432E600B4BDB699B0282
:10393800FBD5094BDB695B02F7D5074B9A68402139
:103948000A439A609A6840318A439A6002B070BD0F
:10395800000C02400038024000480040FFE9FFEF39
:10396800FFCFFFFF0800002070B584B00400D64BDD
:10397800196B8020C003014319631A6B024003923C
:10398800039A596C1022114359645B6C1A400292D5
:10399800029BCE4A136801210B431360CC4B1A6873
:1039A8008A431A601A68CB491140CB4A0A431A6005
:1039B800CA48CB491A68C0231340402B1BD0C44BBC
:1039C8009860D960C24B5A68120C120480214901D0
:1039D8000A435A601A68C3491140802212050A43F3
:1039E8001A601A6801210A431A60BF4B1D681E310C
:1039F8004020202309E0B64BD8609960E2E74000F8
:103A080001221A40104301395B08002BF7D1884086
:103A1800FCF79AFDFF2318404000FC3B83409D4380
:103A28001F214020202305E0400001221A401043B6
:103A380001395B08002BF7D18840FCF785FDFF238F
:103A480018404000FD3B83401D43A74B1D601D6A85
:103A58001F214020202305E0400001221A40104386
:103A680001395B08002BF7D18840FCF76DFDFF2377
:103A780018408000F03B83409D431F2140202023B5
:103A880005E0400001221A40104301395B08002B71
:103A9800F7D18840FCF758FDFF2318408000F83B19
:103AA80083401D43904B1D629D681F2140202023A9
:103AB80005E0400001221A40104301395B08002B41
:103AC800F7D18840FCF740FDFF2318404000FC3B3D
:103AD80083409D431F214020202305E04000012210
:103AE8001A40104301395B08002BF7D18840FCF7D6
:103AF8002BFDFF2318404000FD3B83401D437A4BBC
:103B08009D605A6840218A435A60DD682139402007
:103B1800202305E0400001221A40104301395B08C8
:103B2800002BF7D18840FCF70FFDFF231840400019
:103B3800FC3B83409D431F214020202305E040009B
:103B480001221A40104301395B08002BF7D1884045
:103B5800FCF7FAFCFF2318404000FE3B83401D435E
:103B6800614BDD601D681F21802000028023DB017E
:103B780005E0400001221A40104301395B08002B80
:103B8800F7D18840FCF7E0FCFF2318404000FC3BDD
:103B980083409D431F21802000028023DB0105E034
:103BA800400001221A40104301395B08002BF7D16D
:103BB8008840FCF7C9FCFF2318404000FD3B8340C8
:103BC8001D43494B1D605D6A1F218020402305E08D
:103BD800400001221A40104301395B08002BF7D13D
:103BE8008840FCF7B1FCFF2318408000F03B83407D
:103BF8009D431F218020402305E0400001221A40F8
:103C0800104301395B08002BF7D18840FCF79CFC76
:103C1800FF2318408000FB3B83401D43324B5D620D
:103C28009D681F21802000028023DB0105E0400001
:103C380001221A40104301395B08002BF7D1884054
:103C4800FCF782FCFF2318404000FC3B83409D4367
:103C58001F21802000028023DB0105E040000122B3
:103C68001A40104301395B08002BF7D18840FCF754
:103C78006BFCFF2318404000FD3B83401D431A4B5B
:103C88009D605A6819490A405A60DD681F218020E2
:103C980000028023DB0105E0400001221A401043A6
:103CA80001395B08002BF7D18840FCF74DFCFF2356
:103CB80018404000FC3B83409D431F2180200002A8
:103CC8008023DB011AE0C0460038024000100140A2
:103CD800406402401F80FCFF0005020024100140E0
:103CE800C83D0020FFFFFFE100040240FF7FFFFF07
:103CF800400001221A40104301395B08002BF7D11C
:103D08008840FCF721FCFF2303405B0001263200BA
:103D18009A4015431E4BDD601E4B596C102211430F
:103D28005964596C0A400192019A90215A5803200B
:103D380082435A50184D2B680C22934313432B602F
:103D48002B68164A13402B606B68154A13406B604A
:103D5800144B18686308C0182100FCF77FFA0004A8
:103D6800000CE8602B681E432E600B4BDB699B023E
:103D7800FBD5094BDB695B02F7D5074B9A684021F5
:103D88000A439A609A6840318A439A6004B070BDC9
:103D9800000402400038024000100140FFE9FFEF34
:103DA800FFCFFFFF0800002030B585B00400CE4BE0
:103DB800196B8020C003014319631A6B02400392F8
:103DC800039A596C2022114359645B6C1A40029281
:103DD800029BC64B1A6801218A431A601A68C449B3
:103DE8001140C44A0A431A60C348C4491A68C02328
:103DF8001340402B1BD0BD4B9860D960BB4B5A6811
:103E0800120C1204802149010A435A601A68BC49FD
:103E18001140A02212050A431A601A6801210A43B8
:103E28001A60B84B1D681E314020202309E0AF4BB3
:103E3800D8609960E2E7400001221A401043013936
:103E48005B08002BF7D18840FCF77EFBFF23184066
:103E58004000FC3B83409D431F214020202305E078
:103E6800400001221A40104301395B08002BF7D1AA
:103E78008840FCF769FBFF2318404000FD3B834066
:103E88001D43A04B1D601D6A1F214020202305E013
:103E9800400001221A40104301395B08002BF7D17A
:103EA8008840FCF751FBFF2318408000F03B83401B
:103EB8009D431F214020202305E0400001221A4095
:103EC800104301395B08002BF7D18840FCF73CFB15
:103ED800FF2318408000F73B83401D43894B1D6238
:103EE8009D681F214020202305E0400001221A4040
:103EF800104301395B08002BF7D18840FCF724FBFD
:103F0800FF2318404000FC3B83409D431F21402075
:103F1800202305E0400001221A40104301395B08C4
:103F2800002BF7D18840FCF70FFBFF231840400017
:103F3800FD3B83401D43734B9D605A6840218A4373
:103F48005A60DD6821394020202305E04000012225
:103F58001A40104301395B08002BF7D18840FCF761
:103F6800F3FAFF2318404000FC3B83409D431F2188
:103F78004020202305E0400001221A401043013967
:103F88005B08002BF7D18840FCF7DEFAFF231840C6
:103F98004000FD3B83401D435A4BDD601D681F21D7
:103FA8008020402305E0400001221A4010430139D7
:103FB8005B08002BF7D18840FCF7C6FAFF231840AE
:103FC8004000FC3B83409D431F218020402305E0A7
:103FD800400001221A40104301395B08002BF7D139
:103FE8008840FCF7B1FAFF2318404000FD3B8340AE
:103FF8001D43444B1D601D6A1F218020402305E09E
:10400800400001221A40104301395B08002BF7D108
:104018008840FCF799FAFF2318408000F03B834062
:104028009D431F218020402305E0400001221A40C3
:10403800104301395B08002BF7D18840FCF784FA5C
:10404800FF2318408000F73B83401D432D4B1D6222
:104058009D681F218020402305E0400001221A406E
:10406800104301395B08002BF7D18840FCF76CFA44
:10407800FF2318404000FC3B83409D431F218020C4
:10408800402305E0400001221A40104301395B0833
:10409800002BF7D18840FCF757FAFF23184040005F
:1040A800FD3B83401D43174B9D605A6880218A431E
:1040B8005A60DD6861398020402305E04000012214
:1040C8001A40104301395B08002BF7D18840FCF7F0
:1040D8003BFAFF2318404000FC3B83409D431F21CF
:1040E8008020402316E0C046003802402864024081
:1040F8001F80FCFF0005020024140140C82D002089
:10410800FFFFFFE100080240400001221A4010436F
:1041180001395B08002BF7D18840FCF715FAFF231B
:1041280018404000FD3B83401D43264BDD60264B75
:10413800596C202211435964596C0A400192019A22
:1041480090215A58214802405A50214D2B680C2280
:10415800934313432B606B681E4A1A4080235B020B
:1041680013436B606B681C4A1A4080239B021343FD
:104178006B602B68194A13402B606B68184A134010
:104188006B60184B18686308C0182100FCF766F8C4
:104198000004000CE8602B68012213432B600C4BD1
:1041A800DB699B02FBD50A4BDB695B02F7D5084B41
:1041B8009A6840210A439A609A6840318A439A6013
:1041C80005B030BD0008024000380240FFF3FFFF91
:1041D80000140140FFFFFEFFFFFFFDFFFFE9FFEFB7
:1041E800FFCFFFFF08000020F0B5C64600B5160057
:1041F800474B9C466044850201248C402B689846B6
:10420800670820003B001F2105E0400001221A40FA
:10421800104301395B08002BF7D18840FCF794F96B
:10422800FF2318404000FC3B834042469A43904697
:1042380020001F2205E0400001233B401843013ABB
:104248007F08002FF7D19040FCF77EF9FF23184034
:104258004000FE3B834042461A432A60AB689846BA
:10426800670820003B001F2105E0400001221A409A
:10427800104301395B08002BF7D18840FCF764F93B
:10428800FF2318404000FC3B834042469A43904637
:1042980020001F2205E0400001233B401843013A5B
:1042A8007F08002FF7D19040FCF74EF9FF23184004
:1042B8004000FD3B834042461A43AA60EB6898469B
:1042C800670820003B001F2105E0400001221A403A
:1042D800104301395B08002BF7D18840FCF734F90B
:1042E800FF2318404000FC3B834042469A4313009A
:1042F80000E07F08002FFCD1EB60002E05D00023E2
:104308009C40AC6180BCB846F0BD1023F8E7C046BD
:1043180080001000014B18687047C046EC5500201B
:1043280010B5FCF7D9FFFCE77047000082B0084BD6
:104338001B680193019B431C00D00130002805D065
:10434800034B1B68DB03F9D50138F7E702B0704768
:1043580010E000E0014B18607047C04608000020DC
:10436800F8B504000E0015001F001C22002100F003
:104378009CFA2A000021300000F097FA6660656117
:10438800A760F8BD70B50400080025696169FBF7EE
:10439800EBFF2161A94200D170BDFFF7BBFF206090
:1043A800FAE710B5040042690021406800F07DFA80
:1043B80000232360E3602361A36110BD0369C36028
:1043C800704770B50400C068A669F3070ED4256964
:1043D800854223D063681B5C0A2B17D001306169C2
:1043E800FBF7C2FF08008D42F4D117E0236983422E
:1043F80014D063681B5C0A2B10D1093B1E43A661CD
:1044080001306169FBF7B0FFE16007E0093B1E433B
:10441800A66101306169FBF7A7FFE16070BDF0B5E7
:10442800DE4657464E464546E0B585B00600894605
:1044380093460393C06813689C4660447169FBF710
:1044480093FF0D00B068FBF7F7FE01903369AB42AC
:104458006FD073685B194A4613600023029311E01A
:10446800013202926B1CE4184B461C6001357369DB
:10447800AB4244D0F268AA4265D03269AA4265D0FC
:10448800AB4253D9019B1A00013B002AEED0746855
:104498006119625DB068C75CBA42F4D18846736935
:1044A8009A465819F368C01A5B461B68C01A5146E9
:1044B800FBF75AFF029A8B1A0A2F01D0002BCFD094
:1044C8000F001C00039B002B0DD0681C5146FBF706
:1044D8004BFFF1600123B2699A431300B26142466F
:1044E80012780A2A07D05B4639001B689C4661444B
:1044F8005B4619601FE0093A1343B361F3E7F368B9
:10450800ED1A5B461B68EB1A029A9B1A5A4615600D
:10451800039A002A05D00022F2600132B169914362
:10452800B161802212061A43140004E000231C0023
:1045380001E000231C00200005B0F0BCBB46B246D9
:10454800A946A046F0BD00231C00F4E700231C0088
:10455800F1E700B583B000230193013301AAFFF707
:104568005EFF03B000BD10B541690369CB18C06890
:10457800181AFBF7F9FE080010BDF8B504000F0083
:104588001500FFF7F0FFA84200D80500E16863694D
:104598005E1AB54200D22E0063689C466144320020
:1045A800380000F06FF9E36898196169FBF7DCFEE1
:1045B800E160B819B5420FD02669B54200D22E0085
:1045C80063689C466144320000F05CF9E36898191E
:1045D8006169FBF7C9FEE1602800F8BD70B5040009
:1045E800FFF7C1FFE168002504E0481C6169FBF79B
:1045F800BBFE3000461E002805D0013563685B5CB1
:104608000A2BF2D1280070BDF0B5C64600B50500EA
:104618000F009046FFF7A7FF0400E968002308E0B1
:104628005C1C0A2A0FD0481C6969FBF79DFE230011
:104638003400661E002C0BD06A68525C4345EFD2EA
:104648003A700137ECE7A04502D900223A709C1C69
:10465800200080BCB846F0BD30B583B0050000230B
:1046680000936A4601A9FFF7DAFE002800D001DBB3
:1046780003B030BD44006408009400236A4601A9D1
:104688002800FFF7CCFE002801DB2018F0E7002007
:10469800EEE7F0B5C64600B505000F001600FFF7B7
:1046A800DBFF041E03D1200080BCB846F0BD3900F2
:1046B8002800FFF74EFF306000237B60736034688A
:1046C800002C03DB346870682418ECE76400640885
:1046D8003460AB6898461800FBF7AEFD03001A007B
:1046E800013B002A06D06A6811784246D25C9142A2
:1046F800F5D1D8E7391D2800FFF72BFF7060E1E7F7
:1047080030B585B00C0015006A4602A9FFF7C1FF55
:10471800002821D0A84200D92800030008E0013B66
:10472800013A0092029A511C0291127822700134C7
:10473800002B0CD0009A002AF1D108E0013B013A85
:104748000192039A511C0391127822700134002BB4
:1047580002D0019A002AF1D105B030BD70B584B0FD
:104768000C006A4602A9FFF794FF031E52D0E1B27B
:1047780000250020002213E0019B002B4ED0013BB6
:104788000193039B5E1C03961B7815E0002A1BD03F
:104798000A291DD0102922D04843C018013223000D
:1047A8005C1E002B32D0009B002BE5D0013B009310
:1047B800029B5E1C02961B780028E7D1012AE5D1EE
:1047C800782BE3D11021E9E72D2BE1D10125E5E78D
:1047D800303BDBB2092BDFD9012040421CE01E0030
:1047E800303EF6B2092E0FD91E00613EF6B2052EF4
:1047F80002D8573BDBB2CFE71E00413EF6B2052E8A
:104808000FD8373BDBB2C7E73300C5E7002D03D02D
:10481800404201E00120404204B070BD0120404206
:10482800FAE701204042F7E710B50A21FFF796FFA3
:1048380010BD10B50A21FFF791FF10BD70B5002615
:104848000C4D0D4C641BA410A64209D1002600F0A3
:10485800B5FC0A4D0A4C641BA410A64205D170BDD4
:10486800B300EB5898470136EEE7B300EB5898478A
:104878000136F2E7685900086859000868590008C5
:104888006C59000810B5884202D98B18984203D396
:10489800002307E08B5C8354013AFBD210BDCC5C4B
:1048A800C45401339A42FAD1F8E7030082189342BC
:1048B80000D1704719700133F9E700000CB430B526
:1048C800174B0C001D689DB0002908DA8B230120C6
:1048D8002B6040421DB030BC08BC02B01847822390
:1048E8006A469B009382002302900690994200D06A
:1048F8004B1E0493079301236A465B42D382280028
:1049080021AB209A02A9019300F084F8431C01DA34
:104918008B232B60002CDDD00023029A1370D9E77B
:104928000C0000200A7830B5002A0CD130BD9A421C
:1049380008D10123CC5C002CF8D0C55CA54201D17C
:104948000133F7E701300378002BF0D11800EDE7C9
:10495800F0B58E6885B007000C00039201939E4263
:104968003CD890238A89DB001A4234D0096923682D
:1049780060695B1A029303234343DD0FED18019B23
:10498800029801331B186D10AB4200D91D00530566
:1049980032D52900380000F03FFB061E09D10C2350
:1049A8003B6040230120A28940421343A38105B004
:1049B800F0BD029A216900F0BAFAA389144A1A4094
:1049C80080231343A381029B2661F6182660656144
:1049D800019EED1AA560019B9E4200D9019E3200FE
:1049E80003992068FFF74EFFA36800209B1BA36074
:1049F80023689E192660DAE72A00380000F082FB57
:104A0800061EE0D13800216900F09AFAC7E7C046CF
:104A18007FFBFFFFF0B5A1B003901D008B890F004D
:104A280016001B0611D50B69002B0ED1402100F092
:104A3800F3FA38603861002805D10C23039A01384D
:104A4800136021B0F0BD40237B61002308AC636193
:104A5800203363761033A376079535002B78002B27
:104A680001D0252B47D1AB1B0593B5420CD03200A2
:104A780039000398FFF76CFF431C00D1AEE0626970
:104A8800059B9446634463612B78002B00D1A5E015
:104A9800012200235242626004A9543252186E1C4B
:104AA8002360E360A3601370A3650522317854483E
:104AB80000F032FA751C00281FD12268D30604D5ED
:104AC800532304A95B1820211970130704D5532315
:104AD80004A95B182B21197033782A2B16D03500BE
:104AE80000210A20E3682A786E1C303A092A4ED938
:104AF800002911D117E00135B0E7414B2268C01AEF
:104B08000123834013432E002360CEE7079B191D22
:104B18001B680791002B01DB0B9304E05B42E36009
:104B28000223134323602B782E2B0AD16B782A2B70
:104B380035D1079B02351A1D1B680792002B2BDB0A
:104B48000993304E03223000297800F0E5F9002857
:104B580006D04023801B834022680135134323601D
:104B68002978062228486E1C217600F0D5F90028FD
:104B78003CD0264B002B25D10722079B07339343B4
:104B8800083307936369049A9B18636165E7434395
:104B9800350001219B18A6E701235B42D0E70023DB
:104BA8000A201A000135636029786E1C30390929FA
:104BB80003D9002BC5D00992C3E74243350001232E
:104BC8005218F1E707AB00933A002100104B039805
:104BD800AFF300800490049B0133D3D1BB890D98B7
:104BE8005B0600D42DE7012040422AE707AB00937B
:104BF8003A002100064B039800F07CF8EAE7C0462B
:104C0800355900083B5900083F59000800000000CA
:104C180059490008F7B5150001938A680B690C001B
:104C28000090934200DA130022002B60433212787E
:104C3800002A01D001332B6023689B0602D52B681C
:104C480002332B602268062317001F401A4227D020
:104C5800230043331B785A1E93412268920630D4AE
:104C6800220001990098089E4332B047431C25D082
:104C7800062320682A68E16800250340042B03D135
:104C88008D1AEB43DB171D40A3682269934201DDAF
:104C98009B1AED180027BD4220D1002010E00137F3
:104CA800E3682A689B1ABB42D2DD220001230199DE
:104CB8000098089E1932B047431CF0D101204042A9
:104CC800FEBD3020E1184331087021005A1C4531DF
:104CD8000978A218433202331170C1E72200012378
:104CE80001990098089E1A32B047431CE6D0013754
:104CF800D1E70000F0B58BB006920A004332079363
:104D0800059004920A7E0C00109B782A07D8622A24
:104D180009D8002A00D1C1E0582A00D18CE0260029
:104D28004236327022E0100063381528F7D8FBF7B6
:104D38008BFA16001F00F6FFF6FFF6FFF6FF1F00BE
:104D4800F6FFF6FFF6FFF6FFA80036009A00F6FF1A
:104D5800F6FFB900F6FF3600F6FFF6FF9E002600C4
:104D68001A684236111D1960136833700123A7E0D1
:104D7800086819680A1D05060BD50D681A60002D0C
:104D880003DA2D23049A6D421370614B0A270393AB
:104D98001BE00D681A604106F1D52DB2EFE70D68EA
:104DA8001968081D18602E0601D50D6803E06D0608
:104DB800FBD50D68ADB2564B082703936F2A00D078
:104DC80002372300002243331A706368A360002B64
:104DD80003DB0422216891432160002D02D1049E47
:104DE800002B0CD0049E28003900FBF7BDFA039B6A
:104DF800013E5B5C33702B0005009F42F3D9082FFE
:104E080009D12368DB0706D563682269934202DC6F
:104E18003023013E3370049B9B1B2361079B2100B9
:104E280000930598069B09AAFFF7F4FE431C4CD192
:104E3800012040420BB0F0BD45310A70344A03925C
:104E48001A68216820CA1A60080616D5CB0702D549
:104E58002023194321601027002DB2D12023226876
:104E68009A432260ADE7202209680A4322602200A3
:104E7800782145321170274AE1E74806E6D5ADB2F8
:104E8800E4E71A680D68101D4969186013682E0652
:104E980001D5196002E06D06FBD519800023049E38
:104EA8002361BBE71A68111D1960166800213000DC
:104EB800626800F031F8002801D0801B60606368E8
:104EC80023610023049A1370A8E723693200069926
:104ED8000598079DA847431CAAD023689B0715D4AB
:104EE800099BE0689842A5DA1800A3E7220001238D
:104EF80006990598079E1932B047431C98D001358A
:104F0800E368099A9B1AAB42F0DCE9E70025F7E76A
:104F18004659000857590008C9B28218904201D171
:104F28000020704703788B42FBD00130F6E700235E
:104F380010B59A4200D110BDCC5CC4540133F8E7D7
:104F480070B50500002910D00C1F2368002B00DA6B
:104F5800E418280000F018F91D4A1368002B05D141
:104F680063601460280000F017F970BDA34208D9E7
:104F7800216860188342F3D118685B684118216082
:104F8800EEE71A005B68002B01D0A342F9D911683B
:104F98005018A0420BD1206809185018116083429C
:104FA800E0D118685B68411811605360DAE7A042E5
:104FB80002D90C232B60D5E721686018834203D1FE
:104FC80018685B684118216063605460CAE7C0468E
:104FD800F055002070B50F4E0D003168040000290F
:104FE80002D100F0BFF830602900200000F0BAF8C4
:104FF800431C0AD00323C51C9D43A84207D0291A85
:10500800200000F0AFF8431C01D101256D422800B3
:1050180070BDC046F4550020F7B50322CB1C93435E
:10502800083306001F000C2B32D20C27B94231D8A6
:10503800300000F0A9F8324D2B681C00002C2ED14E
:1050480039003000FFF7C6FF0400431C1ED12C684E
:105058002500002D4AD123682900E3183000019368
:1050680000F080F8019B834243D123680337FF1A7D
:1050780003239F4308370C2F00D20C273900300038
:10508800FFF7A8FF431C34D02368DF19276013E01B
:10509800002BCBDA0C23002533602800FEBD2268E4
:1050A800D11B20D40B2917D9E2192760A34211D1AB
:1050B8002A606368116053603000250000F06CF8C6
:1050C80007220B35231D9543EA1A9D42E5D05B1B49
:1050D800A350E2E75A60ECE76268A34201D12A6074
:1050E800EAE75A60E8E723006468A7E72C006D68E0
:1050F800AFE70C233000336000F04EF8CDE7C04630
:10510800F0550020F7B507000E001400002905D15E
:105118001100FFF781FF05002800FEBD002A03D11A
:10512800FFF70EFF2500F7E700F03EF801908442F4
:1051380003D835004308A342EED321003800FFF717
:105148006BFF051EE8D0019B22009C4200D91A0083
:1051580031002800FFF7EBFE31003800FFF7F0FEC2
:10516800DAE70000002370B5064D040008002B6044
:10517800FBF708FA431C03D12B68002B00D02360EF
:1051880070BDC046F855002010B5024800F014F86C
:1051980010BDC046FC55002010B5024800F00DF8BF
:1051A80010BDC046FC5500200B1F1B68181F002BA4
:1051B80001DA0B58C018704770477047F8B5C046F9
:1051C800F8BC08BC9E467047F8B5C046F8BC08BC99
:0451D8009E46704738
:1051DC000100010000000000000000003078000019
:1051EC002065200020732000205520002020202046
:1051FC003E3E3E20696E76207C2000002020202040
:10520C003E3E3E20626D73207C2000004932433AC2
:10521C002070763120676D707074206F66660A009E
:10522C004932433A2070763120676D707074206873
:10523C006967680A000000004932433A20707632F0
:10524C0020676D707074206F66660A004932433AAD
:10525C002070763220676D70707420686967680AF8
:10526C00000000004932433A20666F726365206F7C
:10527C006666677269640A004932433A2061757444
:10528C006F206772696420636F6E6E656374696FFB
:10529C006E0A00004932433A20666F7263652067DC
:1052AC007269647469650A004932433A20666F7208
:1052BC006365206D616E75616C2073746F70206412
:1052CC0069736368617267650A0000004932433A8A
:1052DC0020666F7263652073656C66207573650A52
:1052EC00000000004932433A206175746F207365E9
:1052FC006C66207573650A00E0080008D40B000882
:10530C00FA0B0008700C0008960C0008C608000880
:10531C00C6080008C6080008C6080008C608000829
:10532C00BC0C0008D00C0008DE0C0008F20C0008C5
:10533C00240D00084C0D0008C6080008C60800081B
:10534C00C60800085A0D000820325E3331666978B1
:10535C000000000020250A0052657365740A0000E5
:10536C00494E56206F722043414E2061637469761A
:10537C006974792074696D656F75740A000000009A
:10538C00696E76203E3E3E20202020207C200000AE
:10539C002020202020202020202020207C20546928
:1053AC006D657374616D703A20000000626D73203E
:1053BC0063616E2074696D656F75740A000000007E
:1053CC00626D73203E3E3E20202020207C20000079
:1053DC002020202020202020202020207C205662ED
:1053EC0061743D25642E25645609496261743D251E
:1053FC00642E25644109576261743D256C6457091C
:10540C00536F433D256409456261743D25642E2527
:10541C00646B57680A000000666F726365206261F6
:10542C00747420736F630A00202020202020202019
:10543C00202020207C20566261746D61783D2564AB
:10544C002E25645609566261746D696E3D25642E75
:10545C002564560949636D61783D25642E256441A8
:10546C000949646D61783D25642E25644125730AD4
:10547C0000000000736F63203C2031300A000000F4
:10548C00666F726365206261747420636861726711
:10549C00650A0000666F7263656420626174742033
:1054AC006368617267652069676E6F7265640A0074
:1054BC002020202020202020202020207C20466F0F
:1054CC00726D61743D256409556E6B3D256409460A
:1054DC006C616773424D533C3C31363D253034781A
:1054EC000943617061636974793D256457680A00EA
:1054FC002020202020202020202020207C205462CE
:10550C006D733D25642E2564C2B04309426174431A
:10551C006F756E743D256409436F6E746163743DE1
:10552C002564094368617267655265713D2564099C
:10553C004379636C65733D25640A000020202020AC
:10554C0020202020202020207C20466C6167734284
:10555C004D533D253034780A0000000020202020D7
:10556C0020202020202020207C205463656C6C6D32
:10557C0061783D25642E2564C2B043095463656C83
:10558C006C6D696E3D25642E2564C2B0430956636B
:10559C00656C6C6D61783D25642E256456095663E7
:1055AC00656C6C6D696E3D25642E2564560A000091
:1055BC002020202020202020202020207C20646CF3
:1055CC00696D3D25640949646C696D3D25642E2522
:1055DC00644109636C696D3D25640949636C696DAF
:1055EC003D25642E2564410A0000000055415254AB
:1055FC00424D5355534552203E3E20005541525486
:10560C00424D53203E3E207077720A007077720A2A
:10561C000000000055415254424D53203C3C2000A8
:10562C002020766F6C746167653A20256C640A20C3
:10563C002063757272656E743A20256C640A2020A2
:10564C00776174746167653A20256C640A20636124
:10565C007061636974793A20256C640A000000005B
:10566C006572726F723A20696E76616C6964207033
:10567C007265636973652077617474616765206313
:10568C006F6D7075746174696F6E0A000D2424005F
:10569C0055415254424D53203E3E20696E666F0A6E
:1056AC0000000000696E666F0A0000000D50434256
:1056BC00413A20202020203A20000000554152542D
:1056CC00424D53203E3E20756E69740A0000000066
:1056DC00756E69740A00000055415254424D5320B6
:1056EC00656E640A0000000070763120737769746F
:1056FC006368206F6E0A00007076322073776974CD
:10570C006368206F6E0A000055415254203E3E20C3
:10571C0000000000554152542072656164696E6747
:10572C00206572726F72200055415254203C3C200F
:10573C00000000005056313A20256457202825647B
:10574C002E2564562025642E256441290A50563294
:10575C003A20256457202825642E2564562025647C
:10576C002E256441290A000041433A20477269649E
:10577C003A2025645720286D65746572202564577E
:10578C0029204550533A20256457204F7574707565
:10579C00743A20256456410A000000006361757359
:1057AC00652037310A000000636175736520373856
:1057BC000A00000070763120737769746368206F7B
:1057CC0066660A0070763220737769746368206F9E
:1057DC0066660A00636175736520330A0000000079
:1057EC00636175736520380A00000000636175738E
:1057FC006520360A00000000636175736520370A66
:10580C0000000000536F6C61783A207374617475FA
:10581C00733D30780000000020636F756E743D306E
:10582C0078000000416E746973757267653A206484
:10583C006973636F6E6E65637420475249442C2004
:10584C00666F726365204550530A0000416E74699F
:10585C0073757267653A20636F6E6E65637420476B
:10586C00524944202832290A00000000416E746914
:10587C0073757267653A20636F6E6E65637420474B
:10588C00524944202833290A000000005541525443
:10589C002054494D454F5554000000006E19000826
:1058AC00E6170008F4160008C81A0008BE1900080C
:1058BC00AE1B00084C1A00086E190008AA550909FD
:1058CC0000DE07F601000000AA5509096A03007EF4
:1058DC0001000000AA5509096A00007B01000000C4
:1058EC00AA550909C20300D601000000AA550909EE
:1058FC00C20000D301000000AA550909240000359C
:10590C0001000000AA550701858C0100AA5507016A
:10591C00131A0100AA5509091C03003001000000EC
:10592C00AA5509091C00002D01232D302B200068DD
:10593C006C4C006566674546470030313233343570
:10594C0036373839414243444546003031323334DE
:0C595C00353637383961626364656600D7
:045968002102000810
:04596C00F901000835
:10597000FFFFFFFFFFFFFFFF0024F40010000020E7
:105980000000000000000000000000000000000017
:105990000000000000000000000000000000000007
:1059A00000000000000000000000000000000000F7
:1059B00000000000000000000000000000000000E7
:1059C00000000000000000000000000000000000D7
:1059D00000000000000000000000000000000000C7
:04000005080029D9ED
:00000001FF
