:020000040800F2
:1000000000000820992600086531000865310008C5
:100010006531000865310008653100080000000006
:100020000000000000000000000000006531000832
:1000300065310008000000006531000869310008E2
:100040006531000865310008653100086531000838
:100050006531000865310008653100086531000828
:100060006531000865310008653100086531000818
:100070006531000865310008653100086531000808
:1000800065310008653100086531000865310008F8
:10009000A92A0008B92A000865310008653100085E
:1000A00065310008653100086531000865310008D8
:1000B00065310008653100086531000865310008C8
:1000C000653100089D0D0008310E000865310008FB
:1000D00065310008653100086531000865310008A8
:1000E0006531000865310008653100086531000898
:1000F0006531000865310008653100086531000888
:100100006531000865310008653100086531000877
:100110006531000865310008653100086531000867
:100120006531000865310008653100086531000857
:100130006531000865310008653100086531000847
:100140006531000865310008653100086531000837
:100150006531000865310008653100086531000827
:100160006531000865310008653100086531000817
:1001700065310008653100086531000800000000A5
:1001800065310008653100086531000865310008F7
:1001900065310008653100086531000865310008E7
:1001A00065310008653100086531000865310008D7
:1001B0006531000865310008653100089D0D0008B3
:1001C000310E0008653100080000000065310008AC
:1001D00065310008653100086531000865310008A7
:1001E00065310008C92A0008D92A000865310008CD
:0801F0006531000865310008CB
:1001F80010B5064C2378002B07D1054B002B02D0F5
:100208000448AFF300800123237010BD7000002064
:1002180000000000844E0008044B10B5002B03D0EA
:1002280003490448AFF3008010BDC0460000000039
:1002380074000020844E00080023C25C0133002AA9
:10024800FBD1581E7047000003B4714649084000AE
:100258004900095E49008E4403BC704700224308E8
:100268008B4274D303098B425FD3030A8B4244D376
:10027800030B8B4228D3030C8B420DD3FF220902B8
:1002880012BA030C8B4202D31212090265D0030B77
:100298008B4219D300E0090AC30B8B4201D3CB036D
:1002A800C01A5241830B8B4201D38B03C01A5241AF
:1002B800430B8B4201D34B03C01A5241030B8B42B1
:1002C80001D30B03C01A5241C30A8B4201D3CB029C
:1002D800C01A5241830A8B4201D38B02C01A524181
:1002E800430A8B4201D34B02C01A5241030A8B4284
:1002F80001D30B02C01A5241CDD2C3098B4201D39C
:10030800CB01C01A524183098B4201D38B01C01A19
:10031800524143098B4201D34B01C01A5241030990
:100328008B4201D30B01C01A5241C3088B4201D33F
:10033800CB00C01A524183088B4201D38B00C01AEC
:10034800524143088B4201D34B00C01A5241411A13
:1003580000D20146524110467047FFE701B5002020
:1003680000F0F0F802BDC0460029F7D076E77047E4
:1003780003460B437FD4002243088B4274D30309FE
:100388008B425FD3030A8B4244D3030B8B4228D39F
:10039800030C8B420DD3FF22090212BA030C8B42C5
:1003A80002D31212090265D0030B8B4219D300E065
:1003B800090AC30B8B4201D3CB03C01A5241830BEA
:1003C8008B4201D38B03C01A5241430B8B4201D39A
:1003D8004B03C01A5241030B8B4201D30B03C01AC3
:1003E8005241C30A8B4201D3CB02C01A5241830A3D
:1003F8008B4201D38B02C01A5241430A8B4201D36C
:100408004B02C01A5241030A8B4201D30B02C01A95
:100418005241CDD2C3098B4201D3CB01C01A5241FC
:1004280083098B4201D38B01C01A524143098B4285
:1004380001D34B01C01A524103098B4201D30B016E
:10044800C01A5241C3088B4201D3CB00C01A524193
:1004580083088B4201D38B00C01A524143088B4258
:1004680001D34B00C01A5241411A00D201465241F1
:10047800104670475DE0CA0F00D04942031000D310
:100488004042534000229C4603098B422DD3030A65
:100498008B4212D3FC22890112BA030A8B420CD375
:1004A800890192118B4208D3890192118B4204D39E
:1004B80089013AD0921100E08909C3098B4201D31E
:1004C800CB01C01A524183098B4201D38B01C01A58
:1004D800524143098B4201D34B01C01A52410309CF
:1004E8008B4201D30B01C01A5241C3088B4201D37E
:1004F800CB00C01A524183088B4201D38B00C01A2B
:100508005241D9D243088B4201D34B00C01A524101
:10051800411A00D20146634652415B10104601D38E
:100528004042002B00D54942704763465B1000D318
:10053800404201B5002000F005F802BD0029F8D0BE
:1005480016E770477047C0461C2101231B049842D8
:1005580001D3000C10391B0A984201D3000A08394C
:100568001B09984201D30009043902A2105C401803
:100578007047C046040302020101010100000000A7
:10058800000000007047000010B50400034802F0A6
:10059800EFFD200002F016FE10BDC04600480040E6
:1005A80070B504000D00044802F0E2FD29002000A7
:1005B80002F0E4FD70BDC0460048004070B504007C
:1005C8000D00044802F0D4FD2900200002F00BFEC3
:1005D80070BDC0460048004070B582B0019115005A
:1005E8001E00FFF7D1FF1B48FFF7CEFF019C210E2D
:1005F800230AFF221202134019432302FF22120486
:10060800134019432406214301910B2D11D01D2DB0
:1006180017D1042101A8FFF7D1FF0F48FFF7B4FF56
:1006280006993000FFF7CAFF0C48FFF7ADFF02B08C
:1006380070BD022101A8FFF7C1FF0948FFF7A4FF19
:10064800EEE7042101A8FFF7B9FF0648FFF79CFF72
:10065800E6E7C046A84E0008AC4E00085451000812
:10066800B04E0008B44E0008F0B583B004000D0089
:1006780016001F00009313000A0001000548FFF749
:10068800ABFF009733002A002100034802F0A2F8CC
:1006980003B0F0BDB84E000800640040F0B583B068
:1006A80004000D0016001F00009313000A0001004B
:1006B8000548FFF791FF009733002A0021000348FF
:1006C80002F088F803B0F0BDC84E000800340040BE
:1006D80010B5074C21000C311822200003F032FF1E
:1006E800200018300C22002103F03FFF10BDC04647
:1006F800F4010020002000E0013043001B189A009C
:10070800044B9B185B68002B01D00228F4D9032303
:10071800181A7047F401002070B5002400E0013475
:1007280063001B199B00094DEB185B68002B01D077
:10073800022CF4D9022C07D8044D63001E19B60008
:100748007051A8194160826070BDC046F401002054
:1007580010B560220021024803F007FF10BDC04613
:1007680060010020F8B50500002301E00133DBB289
:10077800072B25D81C005A00D21892002348125C77
:10078800D207F3D55A00D218920012585208AA423A
:10079800ECD107005E00F0188000381804300822F9
:1007A80003F0D0FE33199B0068000125DA59154083
:1007B8000543DD511E00DB5D01221343F35523E0A1
:1007C8000023072B20D81C005A00D21892000F488B
:1007D800125CD20702D50133DBB2F2E707005E00F4
:1007E800F018800038180430082203F0ABFE3319E3
:1007F8009B006D000120DA5910400543DD511E00B1
:10080800DB5D01221343F355F8BDC04660010020AB
:1008180010B5040002000021012003F045FB22006E
:100828000E21032003F040FB014A2923D45410BDB4
:10083800C401002010B5040002000721012003F0C4
:1008480033FB22000F21032003F02EFB014A2A2349
:10085800D45410BDC401002010B50400064B186024
:1008680002000E21012003F01FFB22000C210520AD
:1008780003F01AFB10BDC04690000020014B002277
:100888001A60704720010020F8B5DE4657464E46EC
:100898004546E0B5DD4B1B68002B04D10022DC493E
:1008A8000A60DC490A605A1CD8490A60DA49486A71
:1008B800DA49C854012A08D0022A00D110E2F0BC53
:1008C800BB46B246A946A046F8BD0B780F2BF6D812
:1008D8009B00D34AD3589F46D24B1C68452CEED870
:1008E800CB4B00221A6001321A6002211960CB4AF0
:1008F800517001311960CC49887B907004201860D0
:10090800CA480078D0701825485F05251D60051273
:10091800157106251D6050711625485F07251D6055
:100928000512957108251D60D071088901351D6073
:10093800050A15720A251D605072488901351D6027
:10094800050A95720C251D60D0720C20095E0D20D9
:100958001860081210730E2018605173B44B596A4E
:10096800002900D1196A0812A94A0F231360AB4B5A
:10097800987310201060D97311211160AC498A4610
:10098800097C197451462820095E122515600D123C
:100998005D7413251560997451462A20095E013546
:1009A80015600D12DD74152515601975A1490968C2
:1009B8000D12162616605D75172515609975182194
:1009C8001160DC750131116097494C7C1C760C88EC
:1009D80003351560250A5D761B2515609C764C88C5
:1009E80001351560250ADD761D2515601C771C204C
:1009F8000C5E0135156025125D771F2515609C7703
:100A08004E8C01351560340ADC77212414605E555C
:100A18002227176004354E5D1E55232616600434C0
:100A2800085DD85515600437C85D985514600436BC
:100A3800885D585517600535485D185516600534AA
:100A4800085DD8552027C85F8446282717600012FC
:100A5800985515606046D8551E200E5E14603712F2
:100A68005F55023515601E55734C2668360E5E5567
:100A78002668360C2C27DE552668360A2D201E548B
:100A88002468013083461C542F2414601A26885F7A
:100A980080463020844610604046001218550234C3
:100AA8001460604646461E546448006880463220FA
:100AB8008446106040461855614C206880463324AF
:100AC8001460604646461E545E48006880463420DE
:100AD8008446106040461855023414604D5D6046E7
:100AE8001D5436251560C95D1955023414605146E8
:100AF8005846095C5955514649690D0E1D550D0C4E
:100B080001341D550D0A01341D55013419550134A0
:100B180014605146C9690D0E1D550D0C01341D5543
:100B28000D0A01341D550134195501341460402152
:100B380011605246527C1A551970C0E64248FFF7B8
:100B480023FDFFF7D7FD012800D8B8E607220921C1
:100B58003E48FFF7E1FD072209213D48FFF7DCFD8C
:100B6800ADE63C48FFF710FDFFF7C4FD012800D8AB
:100B7800A5E6072209213548FFF7CEFD07220921FE
:100B88003548FFF7C9FD9AE63448FFF7FDFCFFF743
:100B9800B1FD012800D892E6072209212B48FFF76A
:100BA800BBFD072209212E48FFF7B6FD87E62D4831
:100BB800FFF7EAFCFFF79EFD012800D87FE6072231
:100BC80009212248FFF7A8FD072209212648FFF737
:100BD800A3FD74E62548FFF7D7FC194B00221A60DD
:100BE8000120FFF739FE6AE62148FFF7CDFC144BD8
:100BF80001221A6063E61F48FFF7C6FC104B00226B
:100C08001A600020FFF728FE59E6C04620010020A0
:100C1800180100201C0100200060004098000020FE
:100C2800C44F00088C000020C4010020F2010020FD
:100C3800240100200000002044420020C0010020C0
:100C48009400002090000020D84E00080C550008A1
:100C580024550008EC4E000818550008044F0008F9
:100C68003C550008184F000830550008304F000860
:100C7800444F0008604F00082748FFF785FC274BC2
:100C880000221A60FFF736FD012800D817E6072270
:100C980009212348FFF740FD072209212148FFF7D2
:100CA8003BFD214B03221A7009E62048FFF76CFC34
:100CB8001A4B00221A60FFF71DFD002800D1FEE53F
:100CC800072209211A48FFF727FD174B01221A703E
:100CD800F5E51848FFF758FC104B01221A60EEE5BD
:100CE800154B1B78112B0AD0122B0ED0102B00D0CD
:100CF800E5E5114B5978114A2B23D154DFE50E4B0A
:100D080059780E4A2C23D154D9E50B4B59780C4A03
:100D18002E23D154D3E5C046744F0008C0010020EB
:100D28006455000848550008F2010020984F000853
:100D380070550008B04F000898000020C40100203A
:100D480024010020084B1B68084A1268934207D206
:100D5800591C054A1160064AD25C064B9A627047D4
:100D6800044BAA229A62FAE71C010020180100200D
:100D780098000020006000400023034A1360034AE3
:100D88001360034A136070472001002018010020F7
:100D98001C01002010B5234B9B691B070FD5214B65
:100DA8009B695B0C5B00FF221340442B1AD01D4A41
:100DB800D36908210B43D361FFF7DEFF10BD194B40
:100DC8009B69DB0616D4174B9B695B0718D4154B38
:100DD8009B699B0717D4134B9B699B0616D4114B31
:100DE8009B69EBE7FFF74AFD0E4AD36908210B43DD
:100DF800D361E3E70B4AD36910210B43D361DDE7E5
:100E0800FFF742FDDAE7FFF79DFFD7E7054BDA6901
:100E180020210A43DA619B69DB07CFD4014B012209
:100E28009A61CBE70060004010B5FFF7A5FF10BD41
:100E380030B583B0C04A116B202319431163126B7C
:100E480013400193019BBD4B1C681F218020C001EA
:100E580080239B0105E0400001221A40104301391C
:100E68005B08002BF7D18840FFF76EFBFF23184083
:100E78004000FC3B83409C431F218020C00180230D
:100E88009B0105E0400001221A40104301395B082C
:100E9800002BF7D18840FFF757FBFF23184040008D
:100EA800FD3B83401C43A54B1C605C6A1F2140200E
:100EB800202305E0400001221A40104301395B0855
:100EC800002BF7D18840FFF73FFBFF231840800035
:100ED800F03B83409C431F214020202305E0400035
:100EE80001221A40104301395B08002BF7D18840D2
:100EF800FFF72AFBFF2318408000FB3B83401C437D
:100F08008E4B5C629C681F218020C00180239B015E
:100F180005E0400001221A40104301395B08002B0C
:100F2800F7D18840FFF710FBFF2318404000FC3B37
:100F380083409C431F218020C00180239B0105E042
:100F4800400001221A40104301395B08002BF7D1F9
:100F58008840FFF7F9FAFF2318404000FD3B834023
:100F68001C43764A9460536875490B408020C00141
:100F780003435360D4681F2180239B0105E0400090
:100F880001221A40104301395B08002BF7D1884031
:100F9800FFF7DAFAFF2318404000FC3B83409C43EC
:100FA8001F218020C00180239B0105E04000012211
:100FB8001A40104301395B08002BF7D18840FFF72E
:100FC800C3FAFF2318404000FE3B83401C435B4BA1
:100FD800DC601C681F21802000028023DB0105E003
:100FE800400001221A40104301395B08002BF7D159
:100FF8008840FFF7A9FAFF2318404000FC3B8340D4
:101008009C431F21802000028023DB0105E0400073
:1010180001221A40104301395B08002BF7D18840A0
:10102800FFF792FAFF2318404000FD3B83401C4322
:10103800424B1C605C6A1F218020402305E0400071
:1010480001221A40104301395B08002BF7D1884070
:10105800FFF77AFAFF2318408000F03B83409C4357
:101068001F218020402305E0400001221A40104340
:1010780001395B08002BF7D18840FFF765FAFF2399
:1010880018408000FB3B83401C432C4B5C629C68EF
:101098001F21802000028023DB0105E0400001229F
:1010A8001A40104301395B08002BF7D18840FFF73D
:1010B8004BFAFF2318404000FC3B83409C431F2110
:1010C800802000028023DB0105E0400001221A4055
:1010D800104301395B08002BF7D18840FFF734FA39
:1010E800FF2318404000FD3B83401C43134A946093
:1010F800536814490B408020000203435360D468AE
:101108001F218023DB0105E0400001221A40104323
:1011180001395B08002BF7D18840FFF715FAFF2348
:1011280018404000FC3B83409C431F218020000264
:101138008023DB010EE0C046003802400014024064
:10114800FFBFFFFFFF7FFFFF400001221A4010434F
:1011580001395B08002BF7D18840FFF7F5F9FF2329
:1011680003405B00012002009A401443264BDC60D8
:10117800264B196C80246404214319641A6C22409C
:101188000092009A90241A59214911408022D203D2
:101198000A431A511F4900231F4A8B5480242406EE
:1011A8008C6001328B54C8601C4B1A6882431A60E9
:1011B8001B4A1A619A68D20AD20244252A439A60C5
:1011C8009D68802212022A439A601A6802431A60B4
:1011D8001A6808252A431A601A6808352A431A60CB
:1011E8001A6870352A431A601A68603D2A431A60E3
:1011F8001A681C3D2A431A601A68023D2A431A607D
:101208008C60C86003B030BD001402400038024052
:10121800FFFF3FFF00E100E05F03000000600040C7
:1012280005011000F0B5DE4657464E464546E0B586
:10123800B9B0D44C2E220021200003F096F9D24FE9
:101248003C220021380003F090F924220021CF48E5
:1012580003F08BF9FFF77CFA0125CD4B1D60CD4BD0
:101268001D600026CC4B1E602B231922E25401334B
:101278000532E25402334332FA54C84CA368F027CB
:10128800BB43A360A368C64A1340A360A368C54ACA
:101298001340A360C44802F0BDFEC44BC44A5A6060
:1012A800C44923228F549E601C3A1A60236B2B4337
:1012B8002363236B2B402093209B226B02231A432A
:1012C8002263226B13401F931F9B226B04231A4334
:1012D8002263226B13401E931E9B226B08231A4322
:1012E8002263226B13401D931D9B226B10231A430C
:1012F8002263226B13401C931C9B226B20231A43EE
:101308002263226B13401B931B9B0120FFF780FA7B
:101318000120FFF78FFAE120000301F085FFE126A5
:101328007602300002F0A0FBA34F380001F040FC29
:10133800380001F09FFD9620800102F075F99F4862
:1013480001F016FF07219E4801F018FFFA2002F06D
:101358004DFE300002F068F9072209219948FFF78D
:10136800DBF9994B1D70FFF763FD80263601974B1B
:10137800320097492FA802F053FE964B3200964947
:1013880028A802F04DFE8422944BD200944921A84B
:1013980002F046FE9348FFF7F7F80823924A1D210A
:1013A8009248FFF77BF9924B1A6892498C4662443F
:1013B8000A921A689049884690441A688B46934462
:1013C8001F68FA239B009C466744636F1D4365674B
:1013D800724B5B6F9B07FBD5884B894A1A60894A19
:1013E8001A6000225A60884A9A60844BDB68072298
:1013F800110019401A42F8D10B91804B834A1A60A8
:1014080012910C91119189460E910D910F91002620
:1014180000231C004546C7E37D48FFF7B5F8BFF336
:101428004F8F6449CB68E022D2001A40794B1343AE
:10143800CB60BFF34F8FC046FDE76D4B1D686E4B09
:101448009C4665448023DB000093734B36AA37A97A
:10145800724801F057FB8046644B379A9A424AD04B
:10146800434600936C4B369A37996D48FFF7B4F8AA
:10147800369B002B00D1ABE35C4B379A9A4200D0E5
:10148800A6E3654B1B78012B00D0A1E3584B1A68E3
:10149800120E10A9282009180A701A68120C10A92F
:1014A800013009180A701A68120A10A901300918BF
:1014B8000A701B6810AA2B21521813705948FFF79D
:1014C80063F804211AA8FFF779F84448FFF75CF895
:1014D800514B9A782B4B1A74002F05D1444B1F6837
:1014E800FA239B009C46674443464B4A36993798F3
:1014F800FFF7D4F86CE34C48FFF746F8B0E74B48E1
:10150800FFF742F8002701E00137FFB2072F12D892
:101518007B00DB199B00464A9B5CDB07F4D57B000C
:10152800D9198900885840085218043208231D2107
:10153800FFF79AF8E8E70B9F51E3374F8023DB006A
:1015480000933B0036AA37A93A4801F0DBFA10901D
:1015580000903B00369A37993748FFF73DF800234B
:101568003B74234B1B68244A93469B44379B334A5E
:1015780094466344072B00D9DCE19B00304AD358DA
:101588009F46C046C401002024010020F401002029
:10159800C001002094000020900000200038024084
:1015A800FFE3FFFFFF1FFFFF0024F40010E000E04F
:1015B8007F3E000000ED00E020A107000010014080
:1015C8005455000870550008F2010020B85400086E
:1015D8002032002010500008202A00205451000812
:1015E800203A0020145000089C4E00087118000092
:1015F800444200201027000020BF020000300040B5
:10160800CCCC000055550000EE0F0000AAAA00003F
:101618001C5000080400FA05443E00200064004005
:1016280044500008545000083C500008705000080E
:101638006001002000340040845000088FE7FFFF5D
:10164800EC540008CD4B98465B781B024246127852
:1016580013431A00CA4B9A461A804346DF783F0262
:101668003FB29B781F4353461F8143461B7951461F
:1016780014930B741392100078436421FEF778FEDC
:101688005246159010624246D3791B02927918008F
:10169800104380460A211398FEF7E0FD82B2924675
:1016A80064214046FEF760FE069164214046FEF73D
:1016B800D5FD0590149B0493159903910A213800D0
:1016C800FEF73CFF09B202910A213800FEF750FEEE
:1016D80000B201900A211398FEF746FE89B20091E4
:1016E8005346A84AFC218900A74802F047FFA74BA8
:1016F8001B68002B00DA12E1A548FEF745FF9F4B57
:10170800A24A12681A7100225A7108E19B4A537959
:101718001B021BB211790B4319001393D3791B02D7
:101728001BB2927913439A46002B79DD0023DBB272
:101738001900934A34231491D154904A904657780B
:101748003F023FB213781F430A213800FEF710FE0C
:1017580002B215920A213800FEF7F0FE0AB216927C
:101768004246D7783F023FB293781F430A21380098
:10177800FEF7FEFD02B217920A213800FEF7DEFEE0
:101788000AB218920A21139F3800FEF7F1FD02B23F
:1017980019920A213800FEF7D1FE0FB20A215046ED
:1017A800FEF7E6FD02B290460A215046FEF7C6FE55
:1017B8000BB2149900293FD0764AFC210792069370
:1017C800434605930497199B0393189B0293179B11
:1017D8000193169B0093159B6F4A89006A4802F093
:1017E800CDFE674A3423D35C002B00D0A2E013005F
:1017F800139A1A8552465A85684B1B68002B1DDAC6
:101808005F4B1B7C0A2B23D95D4B1A7C2E215B5C1A
:101818009A4200D283E0594B00221A715A717EE035
:10182800002901DD002382E7554B1B7C092B01D8D9
:1018380000237CE701237AE7594ABEE75948FEF7B7
:10184800A3FE564B1B684D4A13711B125371D7E701
:101858005548FEF799FE494B00229A71DA71D3E791
:1018680046490B789A464F78C87800028B789C4690
:10187800CA7912028B791A4312044B791B0209792F
:101888000B43FC211A4302926346184301900097C8
:101898005346464A89003C4802F070FE384A3423D1
:1018A800D35C002B3BD0354B0022DA709A7036E0BF
:1018B800324BDA78120299780A43314913928A85B1
:1018C80018792F22149088545F79BA4601328F54C0
:1018D800DA791202987917000743B8464F865F787D
:1018E8003F023FB21B781F430A213800FEF740FD34
:1018F80003B21593414604915146039114980290FE
:10190800139A01920A213800FEF718FE09B20091D5
:10191800159B274AFC2189001B4802F02FFE174F10
:1019280039003798FEF71EFF109B3A003699379812
:10193800FEF79AFE1448FEF727FE0B9F55E10F4A63
:1019480053781B0212781343FC211A4A89000E4867
:1019580002F014FE0A4A3423D35C002B03D0074B51
:1019680000225A701A70054B83221A710022DA710C
:101978009A715A7108231093D1E7C046443E00205B
:101988002401002094500008543E00200400002048
:10199800DC50000804500008EC500008000000204B
:1019A800B8540008385100084C5100085851000834
:1019B80098510008E4510008C84B5A78120212B234
:1019C80019780A431000DF783F023FB29A7817432C
:1019D8005A79120212B219790A439046DA79120238
:1019E80012B29B791A4392460A211090FEF7C0FC66
:1019F80003B213930A215046FEF7A0FD09B20691DF
:101A08000A215046FEF7B4FC00B205900A21404670
:101A1800FEF794FD09B204910A214046FEF7A8FC9E
:101A280000B203900A213800FEF788FD09B202913E
:101A38000A213800FEF79CFC00B201900A21109898
:101A4800FEF77CFD09B20091139BA54AFC21890091
:101A5800A44802F093FD6DE7A04B59780902187865
:101A6800DF783F023FB29A7817435A7912029246BA
:101A78001A791092DA79120212B29B791A439046B7
:101A8800014313910A211000FEF758FD09B2049191
:101A98000A214046FEF76CFC00B203905346109AA8
:101AA800134302930A213800FEF748FD09B2019159
:101AB8000A213800FEF75CFC00B20090139B8A4AAA
:101AC800FC218900874802F059FD33E721A802F07C
:101AD800E5FB002800D0B5E00F9A002A03D0834B1D
:101AE8001B689B1A1AD428A802F0C8FA8048FEF787
:101AF8004BFD804801F03CFB04217F4801F03EFB90
:101B08007A4B1B68FA229200944663440F9301248F
:101B1800764B1B68794A944663440D934B46002BD9
:101B280005D0724B1B684A469B1A00D4B3E10C9A45
:101B3800002A04D06D4B1B689B1A00D4BAE1704B85
:101B48005B6880210901C91A2FA802F07BFA022ECE
:101B580000D1D8E100D9BCE1002E00D1C6E1012EA8
:101B68001BD12FA802F08AFA6648FEF70DFD664ED3
:101B780071683068FEF722FD6448FEF705FD644889
:101B880001F0F6FA3068716801F0F8FA574B1B68F3
:101B98005A4A944663440E930226544B1B680A9A89
:101BA8009B1A01D40B9B0A935A4B5B4A1A604F4B02
:101BB8001B685B1B00D42FE44C4B1B685A469B1ACE
:101BC80000D429E4554800F08BFF002800D034E405
:101BD800002F04D0454B1B68DB1B00D48FE4504812
:101BE80000F07EFF002800D0A7E44E4B5B688421FC
:101BF800C900C91A21A802F025FA4B4B5B6880215D
:101C08000901C91A28A802F01DFA002C00D15DE7C5
:101C1800631EDBB2012B00D980E728A802F03EFB47
:101C280000282ED10D9A002A00D177E72F4B1B6888
:101C38009B1A00D572E73D4B00225A620B9B0F930B
:101C480000246BE78022254B9846D200190021A872
:101C580002F03AFB04003648FEF796FC21004046A5
:101C6800FEF79EFC234801F083FA2100404601F06C
:101C780085FA28A802F038FC21A802F002FA02240A
:101C880046E78022154B9A46D200190028A802F090
:101C98001BFB80462748FEF777FC41465046FEF777
:101CA8007FFC012C0FD028A802F01EFC22490B480B
:101CB80002F098FC002802D00B9B0F93002428A860
:101CC80002F0DFF9AEE728A802F00EFC1A90431CD8
:101CD80034D128A802F0D5F9A4E7C046443E002034
:101CE80004520008543E0020585200084442002084
:101CF800A452000800140140B45200081027000044
:101D08004064024058530008F40100205451000870
:101D18000010014000300040AAAA00000064004002
:101D2800003400402860024028640240240100205A
:101D380094520008BC52000834530008D14C60602B
:101D480028A802F0D6FBE06004221AA928A802F00D
:101D580037FB04221AA928A802F032FB04221AA988
:101D680028A802F02DFB04221AA928A802F028FBB3
:101D780004221AA928A802F023FB04221AA928A8D9
:101D880002F01EFB04221AA928A802F019FB04225B
:101D98001AA928A802F014FB04221AA928A802F0FC
:101DA8000FFB04221AA928A802F00AFB04221AA988
:101DB80028A802F005FB04221AA928A802F000FBB3
:101DC80004221AA928A802F0FBFA04221AA928A8B2
:101DD80002F0F6FA28A802F087FB431C08D0A94BAA
:101DE8005B69834204D0A84B1A68A64B9A61586174
:101DF80004221AA928A802F0E3FA28A802F074FB22
:101E08001A90431C01D09F4B587428A802F06CFB11
:101E18001A90431C01D09B4BD8619A4CE3689A46B0
:101E2800636864210D931800FEF7A2FA52465043E6
:101E38009649FEF79DFA60628021954A904662694C
:101E480002920190524600920D9B924AC900404668
:101E580002F094FB4046FEF797FBE368002B09DB92
:101E6800002B14DD874B5B6A002B07DB0B9B0D9364
:101E780000242EE7834A526A002AF1DD8648FEF7DD
:101E880083FB00247F4B5C620B9B0D9321E70B9B2C
:101E98000D9300241DE70120FEF7BAFC7F48FEF7EA
:101EA80073FB794B1B687E4A9446634411930B9BE2
:101EB80099463CE60120FEF7BDFC7A48FEF764FB34
:101EC800714B1B68764A9446634412930B9B0C93A0
:101ED80035E6F31EDBB2012B00D95EE66A4B1B68C0
:101EE8000E9A9B1A00D5A7E3002656E6FEF702FCD9
:101EF800032801D0012650E66B4A07216B48FEF7FC
:101F08000BFC012649E62FA802F08DF9684B9A6868
:101F1800904236D2FEF7EEFB032800D13DE65A4B3D
:101F28001B680E9A9B1A00D537E66248FEF72CFB11
:101F3800554B1B68FA229200944663440E932FA8CF
:101F480002F08FF8FEF7C4FB5B4B00221A600123F6
:101F58005B425A4A13605A4A13609620800101F086
:101F680063FB584801F004F90721574801F006F9C6
:101F7800FA2002F03BF8E120400201F055FB03266D
:101F88000BE643492FA802F058F91A90484B9B6872
:101F9800984258D34D48FEF7F7FA454B99683C4E9E
:101FA8003000FEF70BFB4A48FEF7EEFA3378AA2B0F
:101FB80004D1374B5B78552B00D195E04548FEF7A7
:101FC800E3FA454E30000E300121FEF7F7FA434898
:101FD800FEF7DAFA30000F300121FEF7EFFA3C483D
:101FE800FEF7D2FAF37B042B22D9264B1B7C3A4905
:101FF8002C228A5C93420CD2224A2820115E2A2085
:10200800125E914205DB1F492E228A5C934200D260
:10201800DEE2334B1B68002B0AD02F4B9B7B042B33
:1020280006D0032B04D0072B02D0062B00D0C3E226
:10203800154B1B68FA229200944663440E93FEF7F0
:1020480047FB0326A9E52748FEF79EFA04211AA8AC
:10205800FEF7B4FA2FA802F0E6F81A9004211AA89D
:10206800FEF7ACFA1A48FEF78FFA2FA801F0F9FF2D
:10207800054B1B68F533FF330E93FEF729FB042647
:102088008BE5C046240100204442002010270000B0
:10209800443E0020C852000808530008385300087E
:1020A800B80B0000485300085F0200005C550008A8
:1020B800F4010020DC5400088C00002000000020FF
:1020C800040000200010014054550008785300080F
:1020D8005451000854540008C401002068540008F2
:1020E8009400002064530008DE4B9B785F2B00D0DF
:1020F80064E7DC4BDB78812B00D05FE7D94B1B7999
:10210800902B00D05AE7D74B997A090209B25A7A2C
:102118001143D54AD182997B0902587B01430E911C
:102128001180197C0902D87B014310915180997C58
:102138000902587C014313919180197D0902D87CCA
:1021480001438A46D180997D0902587D0143149143
:102158001181197E0902D87D014315915181597E5B
:10216800937B994202D013000022DA73BE4B997315
:10217800DB7BFF2B02D00133BB4AD373B94E262138
:10218800735C1B021BB20139715C0B43B648804675
:1021980083812820335C1B021BB22721725C134306
:1021A800424693822A23F35C1B022922B25C134322
:1021B800424653823823F35C1B023722B25C134336
:1021C800424653833E23F35C1B023D22B25C134319
:1021D800424613844023F35C1B023F22B25C134344
:1021E8004246D3834223F35C1B024122B25C134371
:1021F800424693834623F35C1B021BB24522B25C22
:10220800134342461383CB23F35C1354CC23F35C70
:102218005354CD23F35C01395354CE23F35C013975
:102228005354CF23F25CAB3B4146CA54AC33F35C06
:10223800FA22D200944663444B840A215046FEF7A2
:1022480093F889B208910A215046FEF707F880B240
:1022580007900A21109B9A461800FEF785F889B264
:1022680006910A215046FDF7F9FF80B20590159BAB
:1022780004930A21139B9A461800FEF775F889B251
:1022880003910A215046FDF7E9FF80B202900A2126
:102298000E9B9A461800FEF767F889B201910A2149
:1022A8005046FDF7DBFF80B20090149B6F4A8021F7
:1022B800C900300002F062F93000FEF765F94346C4
:1022C80016229B5E9C4642461821525E41462020BB
:1022D800095E40461A23C05E02900191009263464F
:1022E800634A8021C900300002F048F93000FEF747
:1022F8004BF943461A885F4B9A4204D85A4B5B887D
:102308005C498B4206D95C4B47221A605B48FEF752
:102318003BF9AAE654491620095E002918D1002A7B
:1023280016D1002B14D150490C20095E00290FD179
:102338004D491E20095E00290AD14B491A20095E21
:10234800002905D148491820095E002900D182E0FA
:10235800012149424A4801604A4801604649002033
:102368000860D318FA2149008B4200DCF8E0119983
:10237800814204D0444B1B685B1A834217DBE1237C
:102388009B009A4205D3384B1B89013B9BB2172B04
:102398000DD83E48FEF7F8F80020FEF739FA3A4B18
:1023A8001B68FA22D200914699440B9B1193129A0A
:1023B800002A03D0344B1B689B1A1AD42A4B5A881C
:1023C800E1239B009A4205D3274B5B89013B9BB2D3
:1023D800172B0ED82E48FEF7D7F80020FEF72AFA5A
:1023E800294B1B68FA22D200944663440C930B9B3A
:1023F8001293284B1B7C612B5AD81C2B00D882E0E7
:102408001D2B00D8DAE51C4B06221A602248FEF77D
:10241800BBF8FEF76FF9002800D1CFE51F4B1B78FA
:10242800012B00D1CAE50A9B002B00D0C6E51C4B46
:102438001B68002B00D1C1E5072209211948FEF7C6
:102448006BF9164B01221A700F4B1B68164A9446FB
:1024580063440A93B2E5084B4E321A601348FEF7FC
:1024680093F802E6443E0020C4010020845300088B
:10247800B8530008701700008C000020EC530008C7
:1024880000000020040000204442002004540008FA
:1024980014540008240100203C540008F2010020D4
:1024A800C00100207055000810270000F8530008EC
:1024B800664B03221A606648FEF766F8654B0022F1
:1024C8001A60654B1B78012B00D177E5FEF712F9EE
:1024D800002800D172E50A9B002B00D06EE55F4B07
:1024E8001B68002B00D169E5072209215C48FEF72B
:1024F80013F9594B01221A705A4B1B685A4A9446D1
:1025080063440A935AE5514B08221A605748FEF76C
:102518003BF8FEF7EFF8012800D84FE54E4B1B7843
:10252800032B00D14AE50A9B002B00D046E54B4B14
:102538001B68002B00D141E5072209214C48FEF712
:10254800EBF8072209214B48FEF7E6F8424B032235
:102558001A70444B1B68444A944663440A932DE519
:102568004B46002B00D029E5384B07221A60424819
:10257800FEF70AF8FEF7BEF8002800D11EE5364B34
:102588001B78012B00D119E50A9B002B00D015E51B
:10259800324B1B68002B00D110E507220921304877
:1025A800FEF7BAF82C4B01221A702E4B1B682E4AE4
:1025B800944663440A9301E53048FDF7E5FF01209E
:1025C800FEF74AF92E4B0022DA73264B1B682FE5DB
:1025D8002B492B228A5C934210D82A4B1B68002B6C
:1025E80000D125E52848FDF7CFFF0020FEF734F994
:1025F800234B0022DA731B4B1B6819E5204B9B7B8E
:10260800052B03D8032B00D212E504E0093BDBB20B
:10261800012B00D90CE51B4B1B68002B00D107E5EB
:102628001A48FDF7B1FF0020FEF716F9144B0022F7
:10263800DA730C4B1B68FBE4FEF75CF8032801D146
:10264800FFF7ABFA0026FFF7A8FAC0468C00002077
:102658002454000800000020F2010020C0010020DE
:10266800705500084442002010270000305400082C
:102678006455000848550008485400087454000878
:10268800C4010020940000209C540008BC54000899
:10269800DFF834D00D480E490E4A002302E0D45822
:1026A800C4500433C4188C42F9D30B4A0B4C002392
:1026B80001E013600432A242FBD301F095FC01F063
:1026C8001DFF01F08DFC704700000820000000206D
:1026D80070000020B4550008700000205842002007
:1026E800F0B583B006001D00089CC3689B070CD199
:1026F80003690327380018401F4201D0012705E06D
:10270800002A4ED0002313604BE00027002A11D086
:102718003B001B331B019B595B072FD51D20106005
:10272800002907D03B001B331B019B592022121A9A
:10273800D3400B603B001B331B01F3185A680F236F
:102748001340A34206D83B001B331B01F3185B68F8
:102758000F241C40002D26D008220021684601F0D5
:1027680004FF3B01F3181A00B932FF3212680092D5
:10277800BD33FF331B68019300220BE00B20CEE72B
:1027880093089B0069465B5803211140C900CB4060
:10279800AB540132A242F3D32000002F05D0012F01
:1027A80008D003B0F0BD0020F7E7F36820221343F8
:1027B800F360F6E73369202213433361F1E7000041
:1027C800034B984201D0002070470120FCE7C04627
:1027D80000340040F0B585B0060001911F000321C8
:1027E80000E01900B068E0235B05184219D1B3690D
:1027F800FF20184210D0B36836481843B060B46858
:10280800344D2C40AC42FAD04B1EDBB20029E8D143
:102818000520404205B0F0BDB068E0235B051842D2
:102828004FD0B3681B0E03241C40032C4CD00B2A3A
:1028380004D01D2A18D003204042EBE7019B59051C
:10284800230018331B0199510A9B082B3FD82300FA
:1028580018331B01F3180A9A5A600822002102A8AB
:1028680001F083FE002316E0019BD90004231943DD
:10287800230018331B019951E6E79908F85C0322F5
:102888001A40D20090408A0002A951580191084389
:1028980002A9505001330A9A9342EED32301F31848
:1028A8001A008932FF32029911608D33FF33039A7F
:1028B8001A6018342401A35901221343A3510A981A
:1028C800A8E701204042A5E702204042A2E70420F1
:1028D80040429FE78080800010B5034A00210348EA
:1028E80001F043FE10BDC046082800001802002071
:1028F800F0B5D6464F464646C0B504000D00160052
:10290800FFF7EAFF2300C82202E0002204C30A00FE
:10291800511E002AF9D123680132134323606368EA
:10292800DB07FCD5384B9D4206D0384B9D4203D07F
:10293800374BE361374BE36123682022134323605D
:10294800002E5CD02368103A934323602368082242
:102958001343236080239B009946E25801231A43BE
:102968004946625087229200A1589943A15081217B
:1029780089008C4661589943604621508327BF00DF
:10298800E1599943E1518526B600A1599943A151CE
:1029980000218A46902189005046605004316050D9
:1029A800A1581943A150A15888460221404688439E
:1029B800A0506046205888438046604645462550CA
:1029C800E0590843E051A7598F43A7513436504680
:1029D800A0510436A051A5582943A150626912217B
:1029E8000A4362614A46A2589A434946625022689D
:1029F8009A432260E0BCBA46B146A846F0BD2368B7
:102A0800102213432360A1E7A086010040420F0073
:102A180001002B0001001C00F0B5CE46474680B5EA
:102A280083B08146FFF7CCFE040083001B181B020D
:102A38001B189B00194A9F58FF2F27D8174E85004F
:102A48002D182D022B189B007A1C9A51BB00984612
:102A5800D91989002B189B00C9180B0008339B193A
:102A6800043389190A0008320431082000904846C6
:102A7800FFF736FE4744BF002D19AD007F19F7193F
:102A8800786103B0C0BCB946B046F0BD00230093DE
:102A9800002200214846FFF723FEF2E71802002033
:102AA80010B50248FFF7B8FF10BDC04600640040EB
:102AB80010B50248FFF7B0FF10BDC04600640040E3
:102AC80010B50248FFF7A8FF10BDC046003400400B
:102AD80010B50248FFF7A0FF10BDC0460034004003
:102AE80010B5FFF76DFE83001B181B021B189B0017
:102AF80003495858002801D0CA18506910BDC0466B
:102B080018020020F0B583B00D0017000193FFF7FD
:102B180057FE06008400241824022418A400234B1E
:102B2800E358002B01D0012805D900233B6000277A
:102B3800380003B0F0BD83001B181B021B189B0054
:102B48001A4AD3185A682A609A683A605F69089BDB
:102B58009F4200D91F00B400A4192402A1198900BA
:102B68000831124D491904313A00019801F0EAFC84
:102B780072B6A3199B005A59013A1C005A51FF2AF0
:102B880001D962B6D4E7B3009B191B022000074C99
:102B9800001904309B199B00143319190431930050
:102BA8009A18920001F0CEFCEBE7C046180200200C
:102BB80010B582B00100A94A106C8024A4042043F7
:102BC8001064136C23400193019B0022A448FFF773
:102BD8008FFEA44B1C681F2180204000802305E045
:102BE800400001221A40104301395B08002BF7D13D
:102BF8008840FDF7A9FCFF2318404000FC3B8340B8
:102C08009C431F2180204000802305E040000122D2
:102C18001A40104301395B08002BF7D18840FDF7B3
:102C280093FCFF2318404000FD3B83401C438D4A22
:102C38001460536A0F218B4306390B43536294681F
:102C4800163180204000802305E0400001221A4010
:102C5800104301395B08002BF7D18840FDF774FC5D
:102C6800FF2318404000FC3B83409C431F218020E9
:102C78004000802305E0400001221A40104301393A
:102C88005B08002BF7D18840FDF75EFCFF23184056
:102C98004000FD3B83401C43724B9C605A6872495C
:102CA8000A405A60DC682131FF31802040008023CF
:102CB80005E0400001221A40104301395B08002B4F
:102CC800F7D18840FDF740FCFF2318404000FC3B4B
:102CD80083409C43802300E05B08002BFCD1614BC0
:102CE800DC601C681F218020800080235B0005E0D9
:102CF800400001221A40104301395B08002BF7D12C
:102D08008840FDF721FCFF2318404000FC3B83402E
:102D18009C431F218020800080235B0005E0400049
:102D280001221A40104301395B08002BF7D1884073
:102D3800FDF70AFCFF2318404000FD3B83401C437D
:102D4800484B1C605C6A1F210220012305E04000FB
:102D580001221A40104301395B08002BF7D1884043
:102D6800FDF7F2FBFF2318408000F03B83409C43B3
:102D78001F210220012305E0400001221A401043D0
:102D880001395B08002BF7D18840FDF7DDFBFF23F5
:102D980018408000F63B83401C43324B5C629C68C1
:102DA8001F218020800080235B0005E04000012275
:102DB8001A40104301395B08002BF7D18840FDF712
:102DC800C3FBFF2318404000FC3B83409C431F216A
:102DD8008020800080235B0005E0400001221A402B
:102DE800104301395B08002BF7D18840FDF7ACFB95
:102DF800FF2318404000FD3B83401C43194B9C6057
:102E08005A681A490A405A60DC681F2180208000ED
:102E180080235B0005E0400001221A40104301397D
:102E28005B08002BF7D18840FDF78EFBFF23184085
:102E38004000FC3B83409C4380235B0000E05B0830
:102E4800002BFCD1074BDC60094B802252031A602F
:102E5800802292031A6002B010BDC04600380240BA
:102E68000064004000040240FFFEFFFFFFFDFFFF7B
:102E780000E100E010B582B00100B44A106C802473
:102E8800A40120431064136C23400193019B00228A
:102E9800AF48FFF72DFDAF4B1C681F210820042306
:102EA80005E0400001221A40104301395B08002B5D
:102EB800F7D18840FDF748FBFF2318404000FC3B52
:102EC80083409C431F210820042305E04000012281
:102ED8001A40104301395B08002BF7D18840FDF7F1
:102EE80033FBFF2318404000FD3B83401C43994BB4
:102EF8001C601C6A1F210820042305E040000122F1
:102F08001A40104301395B08002BF7D18840FDF7C0
:102F18001BFBFF2318408000F03B83409C431F218C
:102F28000820042305E0400001221A40104301391B
:102F38005B08002BF7D18840FDF706FBFF231840FC
:102F48008000F43B83401C43824B1C629C681F2119
:102F58000820042305E0400001221A4010430139EB
:102F68005B08002BF7D18840FDF7EEFAFF231840E5
:102F78004000FC3B83409C431F210820042305E0BC
:102F8800400001221A40104301395B08002BF7D199
:102F98008840FDF7D9FAFF2318404000FD3B8340E5
:102FA8001C436C4B9C605A6808218A435A60DC6851
:102FB80017310820042305E0400001221A4010437D
:102FC80001395B08002BF7D18840FDF7BDFAFF23D4
:102FD80018404000FC3B83409C43042300E05B080E
:102FE800002BFCD15B4BDC601C681F2110200823E0
:102FF80005E0400001221A40104301395B08002B0C
:10300800F7D18840FDF7A0FAFF2318404000FC3BA9
:1030180083409C431F211020082305E04000012223
:103028001A40104301395B08002BF7D18840FDF79F
:103038008BFAFF2318404000FD3B83401C43454B5F
:103048001C601C6A1F211020082305E04000012293
:103058001A40104301395B08002BF7D18840FDF76F
:1030680073FAFF2318408000F03B83409C431F21E4
:103078001020082305E0400001221A4010430139BE
:103088005B08002BF7D18840FDF75EFAFF23184054
:103098008000F43B83401C432E4B1C629C681F211C
:1030A8001020082305E0400001221A40104301398E
:1030B8005B08002BF7D18840FDF746FAFF2318403C
:1030C8004000FC3B83409C431F211020082305E05F
:1030D800400001221A40104301395B08002BF7D148
:1030E8008840FDF731FAFF2318404000FD3B83403C
:1030F8001C43184B9C605A6810218A435A60DC684C
:103108000F311020082305E0400001221A40104327
:1031180001395B08002BF7D18840FDF715FAFF232A
:1031280018404000FC3B83409C43082300E05B08B8
:10313800002BFCD1074BDC60074B80229200DA6041
:103148008022D200DA6002B010BDC04600380240CA
:10315800003400400004024000E100E000BEFEE749
:10316800024A1368013313607047C0464442002086
:10317800014B18607047C046403E002010B50E4B0A
:103188001B68DB0703D50C4B5B681B04F7D10B4AA4
:1031980093688024A343936003E002789A62013025
:1031A80021004C1E002905D0054B1B68DA69120660
:1031B800FAD5F2E710BDC04658600240004800400A
:1031C800403E002010B50400FDF736F8010020004D
:1031D800FFF7D4FF10BD092802D83030C0B27047BD
:1031E8005730C0B2FBE730B583B0040001AB002212
:1031F8005A7014E020780009FFF7EDFF6B4618714C
:1032080001A8FFF7DFFF23780F201840FFF7E3FF3F
:103218006B46187101A8FFF7D5FF013429004D1E30
:103228000029E7D103B030BD70B582B00400C84BA7
:10323800196B80208003014319631A6B02400192C5
:10324800019A1A6C8021C9020A431A641B6C0B404C
:103258000093009BBF4B1A68BF491140BF4A0A43FD
:103268001A60BF48BF491A68C0231340402B27D0B3
:10327800B84B9860D960B74B5A68120C1204842175
:10328800C9000A435A601A68B74E324080210905BE
:103298000A431A601A68012002431A60B34B18687F
:1032A800AD4D0540B248284318601A6832401143B2
:1032B8001960B04B1D681F2180204000802309E061
:1032C800A44BD8609960D6E7400001221A40104309
:1032D80001395B08002BF7D18840FDF735F9FF234A
:1032E80018404000FC3B83409D431F218020400044
:1032F800802305E0400001221A40104301395B0891
:10330800002BF7D18840FDF71FF9FF231840400034
:10331800FD3B83401D43974A1560536A0F218B4339
:1033280008390B4353629568183180204000802388
:1033380005E0400001221A40104301395B08002BC8
:10334800F7D18840FDF700F9FF2318404000FC3B07
:1033580083409D431F2180204000802305E04000DA
:1033680001221A40104301395B08002BF7D188402D
:10337800FDF7EAF8FF2318404000FD3B83401D435A
:103388007C4B9D605A687C490A405A60DD6821314F
:10339800FF3180204000802305E0400001221A40D0
:1033A800104301395B08002BF7D18840FDF7CCF8B2
:1033B800FF2318404000FC3B83409D431F21802091
:1033C8004000802305E0400001221A4010430139E3
:1033D8005B08002BF7D18840FDF7B6F8FF231840AB
:1033E8004000FE3B83401D43624BDD601D681F218A
:1033F8008020800080235B0005E0400001221A4005
:10340800104301395B08002BF7D18840FDF79CF881
:10341800FF2318404000FC3B83409D431F21802030
:10342800800080235B0005E0400001221A40104321
:1034380001395B08002BF7D18840FDF785F8FF2399
:1034480018404000FD3B83401D434A4B1D605D6AA8
:103458001F210220012305E0400001221A401043E9
:1034680001395B08002BF7D18840FDF76DF8FF2381
:1034780018408000F03B83409D431F210220012318
:1034880005E0400001221A40104301395B08002B77
:10349800F7D18840FDF758F8FF2318408000F83B23
:1034A80083401D43334B5D629D681F21802080004F
:1034B80080235B0005E0400001221A4010430139D7
:1034C8005B08002BF7D18840FDF73EF8FF23184032
:1034D8004000FC3B83409D431F21802080008023C7
:1034E8005B0005E0400001221A40104301395B08E7
:1034F800002BF7D18840FDF727F8FF23184040003C
:10350800FD3B83401D431B4B9D605A681B490A4085
:103518005A60DD681F218020800080235B0005E061
:10352800400001221A40104301395B08002BF7D1F3
:103538008840FDF709F8FF2318404000FC3B834012
:103548009D431F218020800080235B001EE0C04631
:1035580000380240286002401F80FCFF000502007E
:1035680024480040203A0020FFFFFFE15860024055
:1035780040040200000C0240FFFEFFFFFFFDFFFFBA
:10358800400001221A40104301395B08002BF7D193
:103598008840FCF7D9FFFF2303405B000126320077
:1035A8009A4015431A4BDD601A4990228B583020F7
:1035B80083438B50184D2B68843A934313432B60F5
:1035C8002B68164A13402B606B68154A13406B60D2
:1035D800144B18686308C0182100FCF73FFE00046C
:1035E800000CE8602B681E432E600B4BDB699B02C6
:1035F800FBD5094BDB695B02F7D5074B9A6840217D
:103608000A439A609A6840318A439A6002B070BD52
:10361800000C02400038024000480040FFE9FFEF7C
:10362800FFCFFFFF0800002070B584B00400D64B20
:10363800196B8020C003014319631A6B024003927F
:10364800039A596C1022114359645B6C1A40029218
:10365800029BCE4A136801210B431360CC4B1A68B6
:103668008A431A601A68CB491140CB4A0A431A6048
:10367800CA48CB491A68C0231340402B1BD0C44BFF
:103688009860D960C24B5A68120C12048021090153
:103698000A435A601A68C3491140802212050A4336
:1036A8001A601A6801210A431A60BF4B1D681E314F
:1036B8004020202309E0B64BD8609960E2E740003B
:1036C80001221A40104301395B08002BF7D18840CA
:1036D800FCF73AFFFF2318404000FC3B83409D4322
:1036E8001F214020202305E0400001221A401043FA
:1036F80001395B08002BF7D18840FCF725FFFF2331
:1037080018404000FD3B83401D43A74B1D601D6AC8
:103718001F214020202305E0400001221A401043C9
:1037280001395B08002BF7D18840FCF70DFFFF2318
:1037380018408000F03B83409D431F2140202023F8
:1037480005E0400001221A40104301395B08002BB4
:10375800F7D18840FCF7F8FEFF2318408000F83BBB
:1037680083401D43904B1D629D681F2140202023EC
:1037780005E0400001221A40104301395B08002B84
:10378800F7D18840FCF7E0FEFF2318404000FC3BDF
:1037980083409D431F214020202305E04000012253
:1037A8001A40104301395B08002BF7D18840FCF719
:1037B800CBFEFF2318404000FD3B83401D437A4B5E
:1037C8009D605A6840218A435A60DD68213940204B
:1037D800202305E0400001221A40104301395B080C
:1037E800002BF7D18840FCF7AFFEFF2318404000BC
:1037F800FC3B83409D431F214020202305E04000DF
:1038080001221A40104301395B08002BF7D1884088
:10381800FCF79AFEFF2318404000FE3B83401D43FF
:10382800614BDD601D681F21802000028023DB01C1
:1038380005E0400001221A40104301395B08002BC3
:10384800F7D18840FCF780FEFF2318404000FC3B7E
:1038580083409D431F21802000028023DB0105E077
:10386800400001221A40104301395B08002BF7D1B0
:103878008840FCF769FEFF2318404000FD3B834069
:103888001D43494B1D605D6A1F218020402305E0D0
:10389800400001221A40104301395B08002BF7D180
:1038A8008840FCF751FEFF2318408000F03B83401E
:1038B8009D431F218020402305E0400001221A403B
:1038C800104301395B08002BF7D18840FCF73CFE18
:1038D800FF2318408000FB3B83401D43324B5D6251
:1038E8009D681F21802000028023DB0105E0400045
:1038F80001221A40104301395B08002BF7D1884098
:10390800FCF722FEFF2318404000FC3B83409D4308
:103918001F21802000028023DB0105E040000122F6
:103928001A40104301395B08002BF7D18840FCF797
:103938000BFEFF2318404000FD3B83401D431A4BFC
:103948009D605A6819490A405A60DD681F21802025
:1039580000028023DB0105E0400001221A401043E9
:1039680001395B08002BF7D18840FCF7EDFDFF23F8
:1039780018404000FC3B83409D431F2180200002EB
:103988008023DB011AE0C0460038024000100140E5
:10399800406402401F80FCFF000502002410014023
:1039A80020320020FFFFFFE100040240FF7FFFFFFD
:1039B800400001221A40104301395B08002BF7D15F
:1039C8008840FCF7C1FDFF2303405B00012632005D
:1039D8009A4015431E4BDD601E4B596C1022114353
:1039E8005964596C0A400192019A90215A5803204F
:1039F80082435A50184D2B680C22934313432B6073
:103A08002B68164A13402B606B68154A13406B608D
:103A1800144B18686308C0182100FCF71FFC000449
:103A2800000CE8602B681E432E600B4BDB699B0281
:103A3800FBD5094BDB695B02F7D5074B9A68402138
:103A48000A439A609A6840318A439A6004B070BD0C
:103A5800000402400038024000100140FFE9FFEF77
:103A6800FFCFFFFF0800002030B585B00400CE4B23
:103A7800196B8020C003014319631A6B024003923B
:103A8800039A596C2022114359645B6C1A400292C4
:103A9800029BC64B1A6801218A431A601A68C449F6
:103AA8001140C44A0A431A60C348C4491A68C0236B
:103AB8001340402B1BD0BD4B9860D960BB4B5A6854
:103AC800120C1204802109010A435A601A68BC4981
:103AD8001140A02212050A431A601A6801210A43FC
:103AE8001A60B84B1D681E314020202309E0AF4BF7
:103AF800D8609960E2E7400001221A40104301397A
:103B08005B08002BF7D18840FCF71EFDFF23184007
:103B18004000FC3B83409D431F214020202305E0BB
:103B2800400001221A40104301395B08002BF7D1ED
:103B38008840FCF709FDFF2318404000FD3B834007
:103B48001D43A04B1D601D6A1F214020202305E056
:103B5800400001221A40104301395B08002BF7D1BD
:103B68008840FCF7F1FCFF2318408000F03B8340BD
:103B78009D431F214020202305E0400001221A40D8
:103B8800104301395B08002BF7D18840FCF7DCFCB7
:103B9800FF2318408000F73B83401D43894B1D627B
:103BA8009D681F214020202305E0400001221A4083
:103BB800104301395B08002BF7D18840FCF7C4FC9F
:103BC800FF2318404000FC3B83409D431F214020B9
:103BD800202305E0400001221A40104301395B0808
:103BE800002BF7D18840FCF7AFFCFF2318404000BA
:103BF800FD3B83401D43734B9D605A6840218A43B7
:103C08005A60DD6821394020202305E04000012268
:103C18001A40104301395B08002BF7D18840FCF7A4
:103C280093FCFF2318404000FC3B83409D431F2129
:103C38004020202305E0400001221A4010430139AA
:103C48005B08002BF7D18840FCF77EFCFF23184067
:103C58004000FD3B83401D435A4BDD601D681F211A
:103C68008020402305E0400001221A40104301391A
:103C78005B08002BF7D18840FCF766FCFF2318404F
:103C88004000FC3B83409D431F218020402305E0EA
:103C9800400001221A40104301395B08002BF7D17C
:103CA8008840FCF751FCFF2318404000FD3B83404F
:103CB8001D43444B1D601D6A1F218020402305E0E1
:103CC800400001221A40104301395B08002BF7D14C
:103CD8008840FCF739FCFF2318408000F03B834004
:103CE8009D431F218020402305E0400001221A4007
:103CF800104301395B08002BF7D18840FCF724FCFE
:103D0800FF2318408000F73B83401D432D4B1D6265
:103D18009D681F218020402305E0400001221A40B1
:103D2800104301395B08002BF7D18840FCF70CFCE5
:103D3800FF2318404000FC3B83409D431F21802007
:103D4800402305E0400001221A40104301395B0876
:103D5800002BF7D18840FCF7F7FBFF231840400001
:103D6800FD3B83401D43174B9D605A6880218A4361
:103D78005A60DD6861398020402305E04000012257
:103D88001A40104301395B08002BF7D18840FCF733
:103D9800DBFBFF2318404000FC3B83409D431F2171
:103DA8008020402316E0C0460038024028640240C4
:103DB8001F80FCFF0005020024140140202A002077
:103DC800FFFFFFE100080240400001221A401043B3
:103DD80001395B08002BF7D18840FCF7B5FBFF23BE
:103DE80018404000FD3B83401D43264BDD60264BB9
:103DF800596C202211435964596C0A400192019A66
:103E080090215A58214802405A50214D2B680C22C3
:103E1800934313432B606B681E4A1A4080235B024E
:103E280013436B606B681C4A1A4080239B02134340
:103E38006B602B68194A13402B606B68184A134053
:103E48006B60184B18686308C0182100FCF706FA65
:103E58000004000CE8602B68012213432B600C4B14
:103E6800DB699B02FBD50A4BDB695B02F7D5084B84
:103E78009A6840210A439A609A6840318A439A6056
:103E880005B030BD0008024000380240FFF3FFFFD4
:103E980000140140FFFFFEFFFFFFFDFFFFE9FFEFFA
:103EA800FFCFFFFF08000020F0B5C64600B516009A
:103EB800474B9C466044850201248C402B689846F9
:103EC800670820003B001F2105E0400001221A403E
:103ED800104301395B08002BF7D18840FCF734FB0D
:103EE800FF2318404000FC3B834042469A439046DB
:103EF80020001F2205E0400001233B401843013AFF
:103F08007F08002FF7D19040FCF71EFBFF231840D5
:103F18004000FE3B834042461A432A60AB689846FD
:103F2800670820003B001F2105E0400001221A40DD
:103F3800104301395B08002BF7D18840FCF704FBDC
:103F4800FF2318404000FC3B834042469A4390467A
:103F580020001F2205E0400001233B401843013A9E
:103F68007F08002FF7D19040FCF7EEFAFF231840A6
:103F78004000FD3B834042461A43AA60EB689846DE
:103F8800670820003B001F2105E0400001221A407D
:103F9800104301395B08002BF7D18840FCF7D4FAAD
:103FA800FF2318404000FC3B834042469A431300DD
:103FB80000E07F08002FFCD1EB60002E05D0002325
:103FC8009C40AC6180BCB846F0BD1023F8E7C04601
:103FD80080001000014B18687047C046444200201A
:103FE80010B5FDF71FF9FCE77047000082B0084BD9
:103FF8001B680193019B431C00D00130002805D0A9
:10400800034B1B68DB03F9D50138F7E702B07047AB
:1040180010E000E0014B18607047C046080000201F
:10402800F8B504000E0015001F001C22002100F046
:104038009CFA2A000021300000F097FA666065615A
:10404800A760F8BD70B50400080025696169FCF730
:104058008BF92161A94200D170BDFFF7BBFF206039
:10406800FAE710B5040042690021406800F07DFAC3
:1040780000232360E3602361A36110BD0369C3606B
:10408800704770B50400C068A669F3070ED42569A7
:10409800854223D063681B5C0A2B17D00130616905
:1040A800FCF762F908008D42F4D117E023698342D6
:1040B80014D063681B5C0A2B10D1093B1E43A66110
:1040C80001306169FCF750F9E16007E0093B1E43E4
:1040D800A66101306169FCF747F9E16070BDF0B590
:1040E800DE4657464E464546E0B585B00600894649
:1040F80093460393C06813689C4660447169FCF753
:1041080033F90D00B068FCF797F801903369AB42BA
:104118006FD073685B194A4613600023029311E05D
:10412800013202926B1CE4184B461C60013573691E
:10413800AB4244D0F268AA4265D03269AA4265D03F
:10414800AB4253D9019B1A00013B002AEED0746898
:104158006119625DB068C75CBA42F4D18846736978
:104168009A465819F368C01A5B461B68C01A51462C
:10417800FCF7FAF8029A8B1A0A2F01D0002BCFD03D
:104188000F001C00039B002B0DD0681C5146FCF748
:10419800EBF8F1600123B2699A431300B261424619
:1041A80012780A2A07D05B4639001B689C4661448E
:1041B8005B4619601FE0093A1343B361F3E7F368FC
:1041C800ED1A5B461B68EB1A029A9B1A5A46156051
:1041D800039A002A05D00022F2600132B1699143A6
:1041E800B161802212061A43140004E000231C0067
:1041F80001E000231C00200005B0F0BCBB46B2461D
:10420800A946A046F0BD00231C00F4E700231C00CB
:10421800F1E700B583B000230193013301AAFFF74A
:104228005EFF03B000BD10B541690369CB18C068D3
:10423800181AFCF799F8080010BDF8B504000F002B
:104248001500FFF7F0FFA84200D80500E168636990
:104258005E1AB54200D22E0063689C466144320063
:10426800380000F06FF9E36898196169FCF77CF889
:10427800E160B819B5420FD02669B54200D22E00C8
:1042880063689C466144320000F05CF9E368981961
:104298006169FCF769F8E1602800F8BD70B50400B1
:1042A800FFF7C1FFE168002504E0481C6169FCF7DD
:1042B8005BF83000461E002805D0013563685B5C5A
:1042C8000A2BF2D1280070BDF0B5C64600B505002E
:1042D8000F009046FFF7A7FF0400E968002308E0F5
:1042E8005C1C0A2A0FD0481C6969FCF73DF82300BA
:1042F8003400661E002C0BD06A68525C4345EFD22E
:104308003A700137ECE7A04502D900223A709C1CAC
:10431800200080BCB846F0BD30B583B0050000234E
:1043280000936A4601A9FFF7DAFE002800D001DBF6
:1043380003B030BD44006408009400236A4601A914
:104348002800FFF7CCFE002801DB2018F0E700204A
:10435800EEE7F0B5C64600B505000F001600FFF7FA
:10436800DBFF041E03D1200080BCB846F0BD390035
:104378002800FFF74EFF306000237B6073603468CD
:10438800002C03DB346870682418ECE764006408C8
:104398003460AB6898461800FBF74EFF03001A001C
:1043A800013B002A06D06A6811784246D25C9142E5
:1043B800F5D1D8E7391D2800FFF72BFF7060E1E73A
:1043C80030B585B00C0015006A4602A9FFF7C1FF99
:1043D800002821D0A84200D92800030008E0013BAA
:1043E800013A0092029A511C02911278227001340B
:1043F800002B0CD0009A002AF1D108E0013B013AC9
:104408000192039A511C0391127822700134002BF7
:1044180002D0019A002AF1D105B030BD70B584B040
:104428000C006A4602A9FFF794FF031E52D0E1B2BE
:1044380000250020002213E0019B002B4ED0013BF9
:104448000193039B5E1C03961B7815E0002A1BD082
:104458000A291DD0102922D04843C0180132230050
:104468005C1E002B32D0009B002BE5D0013B009353
:10447800029B5E1C02961B780028E7D1012AE5D131
:10448800782BE3D11021E9E72D2BE1D10125E5E7D0
:10449800303BDBB2092BDFD9012040421CE01E0073
:1044A800303EF6B2092E0FD91E00613EF6B2052E37
:1044B80002D8573BDBB2CFE71E00413EF6B2052ECD
:1044C8000FD8373BDBB2C7E73300C5E7002D03D071
:1044D800404201E00120404204B070BD012040424A
:1044E800FAE701204042F7E710B50A21FFF796FFE7
:1044F80010BD10B50A21FFF791FF10BD70B5002659
:104508000C4D0D4C641BA410A64209D1002600F0E6
:10451800B5FC0A4D0A4C641BA410A64205D170BD17
:10452800B300EB5898470136EEE7B300EB589847CD
:104538000136F2E7AC550008AC550008AC55000848
:10454800B055000810B5884202D98B18984203D399
:10455800002307E08B5C8354013AFBD210BDCC5C8E
:10456800C45401339A42FAD1F8E7030082189342FF
:1045780000D1704719700133F9E700000CB430B569
:10458800174B0C001D689DB0002908DA8B23012009
:104598002B6040421DB030BC08BC02B018478223D3
:1045A8006A469B009382002302900690994200D0AD
:1045B8004B1E0493079301236A465B42D38228006B
:1045C80021AB209A02A9019300F084F8431C01DA78
:1045D8008B232B60002CDDD00023029A1370D9E7BF
:1045E8000C0000200A7830B5002A0CD130BD9A4260
:1045F80008D10123CC5C002CF8D0C55CA54201D1C0
:104608000133F7E701300378002BF0D11800EDE70C
:10461800F0B58E6885B007000C00039201939E42A6
:104628003CD890238A89DB001A4234D00969236870
:1046380060695B1A029303234343DD0FED18019B66
:10464800029801331B186D10AB4200D91D005305A9
:1046580032D52900380000F03FFB061E09D10C2393
:104668003B6040230120A28940421343A38105B047
:10467800F0BD029A216900F0BAFAA389144A1A40D7
:1046880080231343A381029B2661F6182660656187
:10469800019EED1AA560019B9E4200D9019E320041
:1046A80003992068FFF74EFFA36800209B1BA360B7
:1046B80023689E192660DAE72A00380000F082FB9A
:1046C800061EE0D13800216900F09AFAC7E7C04613
:1046D8007FFBFFFFF0B5A1B003901D008B890F0091
:1046E80016001B0611D50B69002B0ED1402100F0D6
:1046F800F3FA38603861002805D10C23039A013891
:10470800136021B0F0BD40237B61002308AC6361D6
:10471800203363761033A376079535002B78002B6A
:1047280001D0252B47D1AB1B0593B5420CD03200E5
:1047380039000398FFF76CFF431C00D1AEE06269B3
:10474800059B9446634463612B78002B00D1A5E058
:10475800012200235242626004A9543252186E1C8E
:104768002360E360A3601370A36505223178544881
:1047780000F032FA751C00281FD12268D30604D530
:10478800532304A95B1820211970130704D5532358
:1047980004A95B182B21197033782A2B16D0350001
:1047A80000210A20E3682A786E1C303A092A4ED97B
:1047B800002911D117E00135B0E7414B2268C01A32
:1047C8000123834013432E002360CEE7079B191D66
:1047D8001B680791002B01DB0B9304E05B42E3604D
:1047E8000223134323602B782E2B0AD16B782A2BB4
:1047F80035D1079B02351A1D1B680792002B2BDB4E
:104808000993304E03223000297800F0E5F900289A
:1048180006D04023801B8340226801351343236060
:104828002978062228486E1C217600F0D5F9002840
:104838003CD0264B002B25D10722079B07339343F7
:10484800083307936369049A9B18636165E74343D8
:10485800350001219B18A6E701235B42D0E700231E
:104868000A201A000135636029786E1C303909293D
:1048780003D9002BC5D00992C3E742433500012371
:104888005218F1E707AB00933A002100104B039848
:10489800AFF300800490049B0133D3D1BB890D98FA
:1048A8005B0600D42DE7012040422AE707AB0093BE
:1048B8003A002100064B039800F07CF8EAE7C0466E
:1048C800795500087F55000883550008000000004E
:1048D80019460008F7B5150001938A680B690C00A2
:1048E8000090934200DA130022002B6043321278C2
:1048F800002A01D001332B6023689B0602D52B6860
:1049080002332B602268062317001F401A4227D063
:10491800230043331B785A1E93412268920630D4F1
:10492800220001990098089E4332B047431C25D0C5
:10493800062320682A68E16800250340042B03D178
:104948008D1AEB43DB171D40A3682269934201DDF2
:104958009B1AED180027BD4220D1002010E0013736
:10496800E3682A689B1ABB42D2DD22000123019921
:104978000098089E1932B047431CF0D101204042EC
:10498800FEBD3020E1184331087021005A1C453122
:104998000978A218433202331170C1E722000123BB
:1049A80001990098089E1A32B047431CE6D0013797
:1049B800D1E70000F0B58BB006920A0043320793A6
:1049C800059004920A7E0C00109B782A07D8622A68
:1049D80009D8002A00D1C1E0582A00D18CE026006D
:1049E8004236327022E0100063381528F7D8FBF7FA
:1049F8002BFC16001F00F6FFF6FFF6FFF6FF1F0060
:104A0800F6FFF6FFF6FFF6FFA80036009A00F6FF5D
:104A1800F6FFB900F6FF3600F6FFF6FF9E00260007
:104A28001A684236111D1960136833700123A7E014
:104A3800086819680A1D05060BD50D681A60002D4F
:104A480003DA2D23049A6D421370614B0A270393EE
:104A58001BE00D681A604106F1D52DB2EFE70D682D
:104A68001968081D18602E0601D50D6803E06D064B
:104A7800FBD50D68ADB2564B082703936F2A00D0BB
:104A880002372300002243331A706368A360002BA7
:104A980003DB0422216891432160002D02D1049E8A
:104AA800002B0CD0049E28003900FBF75DFC039B0B
:104AB800013E5B5C33702B0005009F42F3D9082F41
:104AC80009D12368DB0706D563682269934202DCB3
:104AD8003023013E3370049B9B1B2361079B2100FD
:104AE80000930598069B09AAFFF7F4FE431C4CD1D6
:104AF800012040420BB0F0BD45310A70344A0392A0
:104B08001A68216820CA1A60080616D5CB0702D58C
:104B18002023194321601027002DB2D120232268B9
:104B28009A432260ADE7202209680A4322602200E6
:104B3800782145321170274AE1E74806E6D5ADB23B
:104B4800E4E71A680D68101D4969186013682E0695
:104B580001D5196002E06D06FBD519800023049E7B
:104B68002361BBE71A68111D19601668002130001F
:104B7800626800F031F8002801D0801B606063682B
:104B880023610023049A1370A8E723693200069969
:104B98000598079DA847431CAAD023689B0715D4EE
:104BA800099BE0689842A5DA1800A3E722000123D0
:104BB80006990598079E1932B047431C98D00135CD
:104BC800E368099A9B1AAB42F0DCE9E70025F7E7AE
:104BD8008A5500089B550008C9B28218904201D135
:104BE8000020704703788B42FBD00130F6E70023A2
:104BF80010B59A4200D110BDCC5CC4540133F8E71B
:104C080070B50500002910D00C1F2368002B00DAAE
:104C1800E418280000F018F91D4A1368002B05D184
:104C280063601460280000F017F970BDA34208D92A
:104C3800216860188342F3D118685B6841182160C5
:104C4800EEE71A005B68002B01D0A342F9D911687E
:104C58005018A0420BD120680918501811608342DF
:104C6800E0D118685B68411811605360DAE7A04228
:104C780002D90C232B60D5E721686018834203D141
:104C880018685B684118216063605460CAE7C046D1
:104C98004842002070B50F4E0D003168040000290D
:104CA80002D100F0BFF830602900200000F0BAF807
:104CB800431C0AD00323C51C9D43A84207D0291AC8
:104CC800200000F0AFF8431C01D101256D422800F7
:104CD80070BDC0464C420020F7B50322CB1C93435D
:104CE800083306001F000C2B32D20C27B94231D8EA
:104CF800300000F0A9F8324D2B681C00002C2ED192
:104D080039003000FFF7C6FF0400431C1ED12C6891
:104D18002500002D4AD123682900E31830000193AB
:104D280000F080F8019B834243D123680337FF1AC0
:104D380003239F4308370C2F00D20C27390030007B
:104D4800FFF7A8FF431C34D02368DF19276013E05E
:104D5800002BCBDA0C23002533602800FEBD226827
:104D6800D11B20D40B2917D9E2192760A34211D1EE
:104D78002A606368116053603000250000F06CF809
:104D880007220B35231D9543EA1A9D42E5D05B1B8C
:104D9800A350E2E75A60ECE76268A34201D12A60B7
:104DA800EAE75A60E8E723006468A7E72C006D6823
:104DB800AFE70C233000336000F04EF8CDE7C04673
:104DC80048420020F7B507000E001400002905D15D
:104DD8001100FFF781FF05002800FEBD002A03D15E
:104DE800FFF70EFF2500F7E700F03EF80190844238
:104DF80003D835004308A342EED321003800FFF75B
:104E08006BFF051EE8D0019B22009C4200D91A00C6
:104E180031002800FFF7EBFE31003800FFF7F0FE05
:104E2800DAE70000002370B5064D040008002B6087
:104E3800FBF7A8FB431C03D12B68002B00D0236091
:104E480070BDC0465042002010B5024800F014F86A
:104E580010BDC0465442002010B5024800F00DF8BD
:104E680010BDC046544200200B1F1B68181F002BA2
:104E780001DA0B58C018704770477047F8B5C0463C
:104E8800F8BC08BC9E467047F8B5C046F8BC08BCDC
:044E98009E4670477B
:104E9C00010001000000000000000000307800005C
:104EAC002065200020732000205520002020202089
:104EBC003E3E3E20696E76207C2000002020202083
:104ECC003E3E3E20626D73207C2000004932433A06
:104EDC002070763120676D707074206F66660A00E2
:104EEC004932433A2070763120676D7070742068B7
:104EFC006967680A000000004932433A2070763234
:104F0C0020676D707074206F66660A004932433AF0
:104F1C002070763220676D70707420686967680A3B
:104F2C00000000004932433A20666F726365206FBF
:104F3C006666677269640A004932433A2061757487
:104F4C006F206772696420636F6E6E656374696F3E
:104F5C006E0A00004932433A20666F72636520671F
:104F6C007269647469650A004932433A20666F724B
:104F7C006365206D616E75616C2073746F70206455
:104F8C0069736368617267650A0000004932433ACD
:104F9C0020666F7263652073656C66207573650A95
:104FAC00000000004932433A206175746F2073652C
:104FBC006C66207573650A00E0080008440B000855
:104FCC006A0B0008900B0008B60B0008C608000816
:104FDC00C6080008C6080008C6080008C60800086D
:104FEC00DC0B0008F00B0008FE0B0008800C00081E
:104FFC00B20C0008DA0C000820325E333166697896
:10500C000000000020250A0052657365740A000038
:10501C00494E56206F722043414E2061637469766D
:10502C006974792074696D656F75740A00000000ED
:10503C001B5B324A00000000696E76203E3E3E202B
:10504C00202020207C200000202020202020202038
:10505C00202020207C2054696D657374616D703A3A
:10506C0020000000626D732063616E2074696D65B1
:10507C006F75740A00000000626D73203E3E3E2086
:10508C00202020207C2000002020202020202020F8
:10509C00202020207C20566261743D25642E2564DE
:1050AC005609496261743D25642E25644109576295
:1050BC0061743D256C645709536F433D2564094564
:1050CC006261743D25642E25646B57680A000000EC
:1050DC00666F726365206261747420736F630A007B
:1050EC002020202020202020202020207C205662E0
:1050FC0061746D61783D25642E2564560956626194
:10510C00746D696E3D25642E2564560949636D6185
:10511C00783D25642E2564410949646D61783D25EF
:10512C00642E25644125730A00000000666F7263CB
:10513C00652062617474206368617267650A00009F
:10514C00736F63203C2031300A00000020202020A7
:10515C0020202020202020207C20466F726D61743E
:10516C003D256409556E6B3D256409466C6167737A
:10517C00424D533C3C31363D253034780943617007
:10518C0061636974793D256457680A0020202020EA
:10519C0020202020202020207C2054626D733D256F
:1051AC00642E2564C2B04309426174436F756E74FA
:1051BC003D256409436F6E746163743D2564094336
:1051CC0068617267655265713D2564094379636C4A
:1051DC0065733D25640A000020202020202020201B
:1051EC00202020207C20466C616773424D533D2566
:1051FC003034780A000000002020202020202020BD
:10520C00202020207C205463656C6C6D61783D25DA
:10521C00642E2564C2B043095463656C6C6D696E71
:10522C003D25642E2564C2B043095663656C6C6DD4
:10523C0061783D25642E256456095663656C6C6D4A
:10524C00696E3D25642E2564560A0000202020201E
:10525C0020202020202020207C20646C696D3D259E
:10526C00640949646C696D3D25642E2564410963AC
:10527C006C696D3D25640949636C696D3D25642E2F
:10528C002564410A0000000055415254424D5355CB
:10529C00534552203E3E200055415254424D53201E
:1052AC003E3E207077720A007077720A0000000090
:1052BC0055415254424D53203C3C20002020766FE7
:1052CC006C746167653A20256C640A2020637572E2
:1052DC0072656E743A20256C640A202077617474B0
:1052EC006167653A20256C640A20636170616369AB
:1052FC0074793A20256C640A000000006572726FA4
:10530C00723A20696E76616C6964207072656369AB
:10531C007365207761747461676520636F6D707558
:10532C00746174696F6E0A00242400007076312059
:10533C00737769746368206F6E0A00007076322090
:10534C00737769746368206F6E0A0000554152547C
:10535C00203E3E20000000005541525420726561F1
:10536C0064696E67206572726F72200055415254E9
:10537C00203C3C20000000005056313A2025645758
:10538C00202825642E2564562025642E2564412969
:10539C000A5056323A20256457202825642E25645D
:1053AC00562025642E256441290A000041433A20E9
:1053BC00477269643A2025645720286D65746572BC
:1053CC002025645729204550533A20256457204FF7
:1053DC0075747075743A20256456410A00000000FB
:1053EC0063617573652037310A0000006361757362
:1053FC00652037380A0000007076312073776974A5
:10540C006368206F66660A00707632207377697461
:10541C006368206F66660A00636175736520330AE2
:10542C0000000000636175736520380A00000000FD
:10543C00636175736520360A000000006361757343
:10544C006520370A00000000536F6C61783A2073B6
:10545C0074617475733D30780000000020636F75C3
:10546C006E743D3078000000416E7469737572671C
:10547C00653A20646973636F6E6E6563742047527E
:10548C0049442C20666F726365204550530A000016
:10549C00416E746973757267653A20636F6E6E65E1
:1054AC0063742047524944202832290A0000000026
:1054BC00416E746973757267653A20636F6E6E65C1
:1054CC0063742047524944202833290A0000000005
:1054DC00554152542054494D454F5554000000003D
:1054EC0068180008141700084C160008C0190008AA
:1054FC00B8180008601A0008461900086818000857
:10550C00AA55090900DE07F601000000AA55090991
:10551C006A03007E01000000AA5509096A00007B9D
:10552C0001000000AA550909C20300D601000000C1
:10553C00AA550909C20000D301000000AA550909A7
:10554C002400003501000000AA550701858C0100DC
:10555C00AA550701131A0100AA5509091C030030AA
:10556C0001000000AA5509091C00002D01232D3053
:10557C002B2000686C4C006566674546470030314F
:10558C00323334353637383941424344454600309E
:10559C0031323334353637383961626364656600CD
:0455AC0021020008D0
:0455B000F9010008F5
:1055B400FFFFFFFFFFFFFFFF0024F40010000020A7
:1055C40000000000000000000000000000000000D7
:1055D40000000000000000000000000000000000C7
:1055E40000000000000000000000000000000000B7
:1055F40000000000000000000000000000000000A7
:105604000000000000000000000000000000000096
:105614000000000000000000000000000000000086
:040000050800269930
:00000001FF
