:020000040800F2
:1000000000000820DD430008894C0008894C0008E6
:10001000894C0008894C0008894C00080000000049
:10002000000000000000000000000000894C0008F3
:10003000894C000800000000894C0008994C000819
:10004000894C0008894C0008894C0008894C00083C
:10005000894C0008894C0008894C0008894C00082C
:10006000894C0008894C0008894C0008894C00081C
:10007000894C0008894C0008894C0008894C00080C
:10008000894C0008894C0008894C0008894C0008FC
:100090000D4A00081D4A0008894C0008894C0008D8
:1000A000894C0008894C0008894C0008894C0008DC
:1000B000894C0008894C0008894C0008894C0008CC
:1000C000894C00085D280008F5280008894C0008C4
:1000D000894C0008894C0008894C0008894C0008AC
:1000E000894C0008894C0008894C0008894C00089C
:1000F000894C0008894C0008894C0008894C00088C
:10010000894C0008894C0008894C0008894C00087B
:10011000894C0008894C0008894C0008894C00086B
:10012000894C0008894C0008894C0008894C00085B
:10013000894C0008894C0008894C0008894C00084B
:10014000894C0008894C0008894C0008894C00083B
:10015000894C0008894C0008894C0008894C00082B
:10016000894C0008894C0008894C0008894C00081B
:10017000894C0008894C0008894C000800000000E8
:10018000894C0008894C0008894C0008894C0008FB
:10019000894C0008894C0008894C0008894C0008EB
:1001A000894C0008894C0008894C0008894C0008DB
:1001B000894C0008894C0008894C00085D2800081B
:1001C000F5280008894C000800000000894C000850
:1001D000894C0008894C0008894C0008894C0008AB
:1001E000894C00082D4A00083D4A0008894C000847
:0801F000894C0008894C00084D
:1001F8000448054B10B5834203D0044B002B00D0B4
:10020800984710BD54000020540000200000000052
:1002180006480749091A8B10C90FC91810B54910A3
:1002280003D0044B002B00D0984710BD5400002089
:10023800540000200000000010B5074C2378002B64
:1002480009D1FFF7D5FF054B002B02D00448AFF3C7
:1002580000800123237010BD54000020000000001E
:10026800345B0008054B10B5002B03D00449054842
:10027800AFF30080FFF7CCFF10BDC04600000000C0
:1002880058000020345B000810B583070AD003002B
:10029800032102E001330B4205D01A78002AF9D174
:1002A800181A10BD030019680C4A0D4C8A188A43A5
:1002B80022420FD15968094A04338A188A432242D4
:1002C80008D15968054A04338A188A432242F1D072
:1002D80000E001331A78002AFBD1E1E7FFFEFEFEB9
:1002E80080808080F0B588420AD98B18984207D25E
:1002F800531E002A03D0CA5CC254013BFBD2F0BD96
:1003080005000F2A0AD8561E002AF8D00023CC5C14
:100318001A00EC5401339642F9D1F0E703273E0066
:100328000D430C0003002E402F422DD11500103D27
:100338002D09AC462F013F1825681D6065685D6072
:10034800A5689D60E5681034DD601D001033BD426E
:10035800F2D165460F230C2401352D0149191340AC
:100368004519144213D0043B9B0801339B008C5958
:10037800AC5104369E42FAD103231A40AD198919AB
:10038800561E002AC2D1BAE70500561EBEE71A005B
:10039800B9E7C04670B50D4B0D4D5E1BB610AB42AC
:1003A80005D0002408CD01349847A642FAD805F0B4
:1003B800BDFB084B084D5E1BB610AB4205D00024B0
:1003C80008CD01349847A642FAD870BDF0660008F7
:1003D800F0660008F4660008F0660008F0B5CE463E
:1003E80047460300944680B5012959D901220120C6
:1003F8009046012500260124404206E0221A904634
:10040800260001257419A1420DD91F181A5D7F5DB8
:10041800BA42F3D336D001250122300001367419CF
:100428009046A142F1D844466246146001229146A2
:10043800023A012500269046012407E04246A21A06
:100448009146260001257419A1420ED94746DF19A5
:100458001A5D7F5DBA42F1D818D001250122B04655
:10046800013674199146A142F0D843460130013350
:10047800834203D36246494618001160C0BCB9469E
:10048800B046F0BD454505D00135BBE74D4504D024
:100498000135D8E776190125B4E776190125D2E7A1
:1004A800012399460023E5E7F0B54546DE46574661
:1004B8004E461400E0B585B003AA80468A4620005F
:1004C80019001D00FFF78AFF039B81460200E1180F
:1004D8002000019300F0D6FA00285ED15346591B3C
:1004E80080231B012B4300930123002700269B46F2
:1004F8000800B0421CD33B004F4500D24B46424651
:1005080091199D4227D98446080002E001339D4293
:1005180020D0E15CC25C9142F8D060469D421AD975
:100528005A464946521A9619F6180027B042E2D29E
:1005380040460099504400F0C9FA82445346581B7B
:10054800B042D8D2002005B0F0BCBB46B246A9469E
:10055800A046F0BD60464B464246013B91194F45C7
:1005680065D28446080003E05A1E9F420ED013004D
:10057800E15CC25C9142F7D06046013301379F428B
:1005880008D8019B9C46EF1A6644B2E701376046DB
:100598009F42F6D930004044D5E74B46EB1A4B450D
:1005A80000D24B460133009303935346591B8023D3
:1005B8001B012B4300269B4601270800B04218D395
:1005C80042464B4691194D4520D98446080002E021
:1005D80001339D4218D0E15CC25C9142F8D0010021
:1005E80060469D4212D94A46BA1A9619F618B04280
:1005F800E6D240465946504400F068FA82445346D1
:10060800581BB042DCD29DE7010060464B46013BD7
:100618000FD38446080001E0013B94D3E15CC25C3F
:100628009142F9D0009B60469C466644C6E74B461B
:10063800A4E7080087E7C046F0B5DE4657464546BA
:100648004E46E0B5844C8346A54414008A4605AA64
:10065800190020001D00FFF7C1FEFFAA019006AB9C
:100668001C3220C39342FCD1002D0FD02300A44696
:10067800681E6619201808241A7804AFC11A920057
:100688003F190133B9509E42F5D16446059B2000BD
:10069800019AE118984600F0F5F9002800D07AE0B0
:1006A800002399465346591B80231B012B43039370
:1006B8002B006F1E00264D4608009946029408E05C
:1006C800002D04D0984502D94B4642469B1A002576
:1006D800F618B04224D35B4608249919CB5D04AAC6
:1006E8009B001219D358002BEAD1019A2B0095428E
:1006F80000D213009F422AD98446029C080002E0D7
:1007080001339F4220D0E15CC25C9142F8D00100E5
:10071800029460469F421AD9019AB61A0136D6E762
:1007280058460399504400F0D1F9824453464A464A
:10073800981AB042CFD20020484B9D44F0BCBB462B
:10074800B246A946A046F0BD010060460294019A4F
:10075800531E95427DD28446029C080003E05A1E2F
:100768009D4210D01300E15CC25C9142F7D00100B9
:1007780060460294013301359D420AD84B464246F1
:1007880046449D1AA5E701350100029460469D4242
:10079800F4D90800D0E7019AAB1A934257D3013332
:1007A800039305935346591B80231B012B439946FA
:1007B8006B1E002608001F000294B0420CD35B4653
:1007C80008249919CB5D04AA9B001219D358002B51
:1007D8000DD0F618B042F2D258464946504400F0BF
:1007E80075F982445346581BB042E8D2A3E7019AF0
:1007F8001300BA4217D28446029C080002E0013373
:10080800BB420DD0E15CC25C9142F8D00100029479
:1008180060469F4207D9019AB61A0136F618D9E7F9
:10082800010060460294019B013BB2D38446029CBE
:10083800080002E0013B00D27EE7E15CC25C914225
:10084800F8D0039B60469C4602946644B5E71300C3
:10085800A5E713008FE7C046E4FBFFFF1C04000078
:10086800F0B5CE46474680B50E000978050004006D
:1008780091B0002958D07278002A00D178E0B07879
:10088800002857D013020B4307041F43F3789C46F4
:100898001B063B436746002F00D180E03279002ACF
:1008A8006AD03000FFF7F0FC80218900070001437F
:1008B800280000F00BF987424AD8FE2F00D985E0BE
:1008C800C01B804640226846791CA84400F086F880
:1008D800002F0FD0BA1994463F2233009146F8B240
:1008E800301849466C461A780A40C11A0133A15497
:1008F8009C45F6D12C003F256A46013CE35D2B4020
:10090800D35CE418A04503D224E04C44A04521D38D
:100918006A46E35D31002B40D35C20003A009946DB
:1009280000F0B0F80028F0D1200011B0C0BCB946E2
:10093800B046F0BD0904114300232A7806E02C00D4
:100948001B04013513432A7899423DD0002AF6D179
:100958000024E9E74346D819DB5D002BF8D0802155
:10096800090100F0B3F88044A045C5D20024DBE7B4
:1009780000F03EF90400D7E72A78002AE8D019BA2F
:10098800002301E08B4208D02C001B0201351343E1
:100998002A78002AF6D18B42DAD1033CC4E7120444
:1009A800090611432A7800020143002AD0D0002307
:1009B80001E0002ACCD02C00134301351B022A7811
:1009C8009942F6D1023CAFE7013CADE701003B009C
:1009D80032002800FFF730FE0400A5E7F0B5050057
:1009E800830749D0541E002A45D003000326CAB203
:1009F80002E00135013C3ED301332A703342F8D17D
:100A0800032C30D9FF220A401502AD182A04AD186C
:100A18000F2C34D92700103F3F093E01B4461E0071
:100A28001A0010366644156055609560D56010321E
:100A38009642F8D101373F01DB190F270C222740D6
:100A480022403C00002A0ED03E1FB608B400A4463F
:100A58001A001C1D644420C2A242FCD103240136A2
:100A6800B6009B193C40002C05D0C9B21C1919705E
:100A780001339C42FBD1F0BD03001400C0E72700FE
:100A8800E2E7C04630B5032A1AD90B0003439B0797
:100A980011D0551E002303E05A1C9D4213D01300A9
:100AA800C25CCC5CA242F7D0101B0DE0043A0430C3
:100AB8000431032A04D904680B689C42F6D0E8E79D
:100AC800551E002AE6D1002030BDC04610B50300EF
:100AD8004418002903D109E001339C4204D01A7854
:100AE800002AF9D1181A10BD201AFCE70020FAE7ED
:100AF80008B410B504009DB0002A32DB8223684692
:100B08009B008382002302911B930691002A13D035
:100B1800013A013BC382049220AB079220001F9A3E
:100B280002A9019300F0BAF9431C01DA8B23236070
:100B38000022029B1A700FE001235B42C3820492D9
:100B480020AB079220001F9A02A9019300F0A6F992
:100B5800431C01DA8B2323601DB010BC08BC01B014
:100B680018478B23036001204042F5E70CB410B509
:100B78001E4B9CB01C68002933DB82236A469B000D
:100B88009382002302901B930690002913D0013909
:100B9800013BD38204911FAB079120001E9A02A942
:100BA800019300F07BF9431C01DA8B2323600022B8
:100BB800029B1A7010E001236A465B42D3820491BB
:100BC8001FAB079120001E9A02A9019300F066F955
:100BD800431C01DA8B2323601CB010BC08BC02B094
:100BE80018478B23012023604042F5E700000020CE
:100BF8000323CAB2F0B50340002A35D00324002BE2
:100C08002DD1FF230B401D02ED182B04ED182C00ED
:100C18000168264E4C408B198B43A119A143244EE1
:100C28000B43334211D14168204F0C00CB196C4063
:100C38008B43E119A1430B4304303342F3D00378CB
:100C4800002B05D09A4204D001300378002BF9D14B
:100C58000020F0BD9342FCD001302042D1D003786F
:100C6800002BF7D10020F4E7002B08D0032202E084
:100C78000130104203D00378002BF9D1E9E702686C
:100C88000A4B0B49D31893430B4206D14268074BD2
:100C98000430D31893430B42F8D00378002BD8D0F4
:100CA80043780130002BFBD1D3E7C046FFFEFEFEA0
:100CB80080808080F0B546464F46D646C0B58E68DF
:100CC80080460C0091461D0008689E4239D80C22C7
:100CD8008B5E9022D200134210D135002A0049467B
:100CE800FFF700FB0020A3689B1BA36023685B1928
:100CF8002360E0BCBA46B146A846F0BD0969421A6D
:100D08009246606942001218D70FBF18681C7F10FE
:100D180050443A00B84201D9070002005B0512D5D9
:100D28001100404600F03CFA061E1FD052462169C9
:100D380000F02EFDA389124A134080221343A38199
:100D480006E01E00CAE7404600F00EFB061E09D06A
:100D58003000534650446761FF1A266120602E0018
:100D6800A760BBE74046216900F0A2FA0C2342467F
:100D7800136040220120A38940421343A381B8E7AE
:100D88007FFBFFFFF0B545465746DE464E46E0B5C9
:100D9800136883B0984693680D0092460190002B23
:100DA8006FD0002300249B460A688B6849E00C2119
:100DB8006B5E9021C9000B422BD068692969561ACD
:100DC80042001218D00F8218701C52100019914658
:100DD800904201D9814602008020C00003423AD0E7
:100DE8001100019800F0DCF9071E3DD03200296996
:100DF80000F0CEFCAB89284A134080221343AB8114
:100E08004B46B8199E1B2F61AE602700260028604C
:100E18006B6132005946FFF765FA51465046AB6898
:100E28002A688968DB1B9219091BAB602A608160FC
:100E380027D0414609688B4641464C6808218C46B4
:100E4800E0441F001000002CF3D01E009C42AED2DC
:100E580027002600DDE7019800F086FA071ECFD1AB
:100E68002969019800F024FA0C23019A01201360E3
:100E78004022AB8940421343AB8152460023936022
:100E880000E0002000235246536003B0F0BCBB468C
:100E9800B246A946A046F0BD7FFBFFFFF0B5DE468F
:100EA80057464E464546E0B51C008B898246894622
:100EB80093469DB01B0603D50B69002B00D1F5E0C6
:100EC800002304AD6B6120336B761033AB765B4641
:100ED8001B787F4F0394002B78D05C4604E063783E
:100EE8000134002B00D17EE0252BF8D15B46E61AB1
:100EF8005C4500D07BE02378002B67D001230022DB
:100F08005B42049205930022002306920793002374
:100F18004332AB54AB6501339B46013406E05A4675
:100F2800C01B82401C0029680A432A600522380039
:100F3800217800F0D7F8631C1E000028EFD12A683A
:100F4800D10602D5432120306854110702D5432128
:100F58002B20685421782A2955D1039B191D1B6819
:100F68000391002B00DA7CE0EB6061782E2960D0D9
:100F7800584C0322200000F0B5F8002806D0402382
:100F8800001B83402A68013613432B603178731C99
:100F9800062251489B46297600F0A4F8002866D01E
:100FA8004E4B002B56D003AA009229004A465046C1
:100FB8004B4BAFF3008080464346013306D06B6944
:100FC80043446B615B461B78002B86D14B469B895B
:100FD8005B0600D579E068691DB0F0BCBB46B24637
:100FE800A946A046F0BD5B46E61A5C45EED0330044
:100FF8005A4649465046FFF75DFE0130E6D06B6918
:101008009B196B6177E70800303826000928ADD8AE
:10101800EA68140000E00133A2001219197852009E
:101028001418080030380928F5D91E00EC602E295C
:101038009ED171782A2924D1039BB01C1A1D1B68E4
:1010480003926B60002B02DA01235B426B60B1787C
:1010580006008DE70722039B073393430833039366
:10106800ADE75B42EB6002231A432A607DE703AADF
:10107800009229004A465046194B00F055FA80461E
:101088009AE708000023303801366B60092800D938
:101098006EE71A0093009B1871785B001A18080015
:1010A800303801360928F5D96A6061E7402100F037
:1010B80077F84B4618601861002803D040234A4649
:1010C8005361FDE60C23524613600120404283E73A
:1010D800E4640008EC640008F06400080000000004
:1010E800BD0C000870B5CCB283070DD0531E002A82
:1010F8000FD0032504E00130284206D0013B08D375
:101108000278A242F7D170BD1300032B03D8002B3D
:1011180014D10020F7E7FF220A401502AD182A046F
:101128000B4EAD1803E0043B0430032BEFD90268E3
:1011380008496A40511891433142F4D0C31802E07B
:1011480001309842E5D00278A242F9D1DBE7C046E7
:1011580080808080FFFEFEFE70B5104E050033686B
:101168000C00002B15D02100280000F057FB431C71
:101178000CD00323C41C9C43A04205D0211A28008C
:1011880000F04CFB013001D0200070BD0124644206
:10119800FAE7002100F042FB3060E4E7AC010020F0
:1011A800F8B50323CE464746CD1C9D4308350600B7
:1011B80080B50C2D1ED20C25A9421DD8300000F098
:1011C800E3FA3A4F7A68002A1AD0140004E06368F8
:1011D8002200002B14D01C0023685B1BF7D40B2BB8
:1011E80027D96119256094425BD051600B60636810
:1011F8004B600DE0002DDFDA0C230020336014E093
:1012080029003000FFF7A8FF0400431C19D005602F
:10121800300000F0BBFA200007220B30231D90435A
:10122800C21A984201D01B1AA350C0BCB946B04696
:10123800F8BD6368944202D05360E9E743467B6097
:10124800E6E77B689846002B24D0444663689846B6
:10125800002BFAD12368002199463000A14400F000
:10126800DDFA814516D123683000ED1A2900FFF711
:1012780073FF01300ED023687A685B1923605368C6
:10128800002B02D1DAE71A005B689C42FBD10023ED
:101298005360BDE70C233000336000F077FA00207C
:1012A800C3E779600B6063684B60B1E7AC0100206D
:1012B80070B50500002915D00C1F2368002B23DB0F
:1012C800280000F061FA274A1368002B05D0A342D2
:1012D8000BD92168601883422CD028006360146001
:1012E80000F054FA70BDA34210D81A005B68002BB6
:1012F800F9D1106811188C4218D02CD3636054604F
:10130800280000F043FAEDE7E418D9E7116850180F
:10131800A04214D01FD8216860188342EED1186803
:101328005B684118216063605460E9E723681B1813
:101338001360E5E718685B6841182160CDE720680D
:101348000918501811608342DAD118685B6841188F
:1013580011605360D4E70C2328002B6000F016FAC4
:10136800C0E7C046B0010020F0B5C64607000E0031
:10137800140000B500292DD0002A27D000F060FA0B
:101388008046844203D835004308A34210D3210085
:101398003800FFF705FF051E0AD0220044450BD888
:1013A8003100280000F0F4F931003800FFF780FF21
:1013B800280080BCB846F0BD31004246280000F045
:1013C800E7F931003800FFF773FFF1E7FFF770FF27
:1013D8000025EDE71100FFF7E3FE0500E8E7C0464A
:1013E800F8B557464E464546DE46E0B51F000A9B0F
:1013F800924698460A698B6806000C009A4200DA01
:101408001A0053461A604323E35C002B02D051466E
:1014180001320A602268910661D553465246062079
:101428001B680233136022681100104208D10020A3
:10143800814619308346E168A344994247DC11008C
:101448004323E35C5A1E934189060AD53020E118EC
:101458004331087045215A1C615CA218433202339B
:1014680011702200390030004332C04701301DD0CE
:10147800534606251B68E1689C462368A2682069D4
:101488002B40042B31D0824239DD00239946121AB1
:10149800914400251A3402E001354D452FDA012325
:1014A800220039003000C0470130F5D10120404208
:1014B800F0BCBB46B246A946A046F8BD01239C46EF
:1014C8005346E5681B68E144ED1A4D4524DD0123C8
:1014D8005A4639003000C0470130EFD1E6E706210F
:1014E80011420ED05A1E9341BBE76346C91ACB433B
:1014F800DB170B4099468242C9DC0029C9DC002071
:10150800D6E7002053468146193083461B68E168B8
:10151800A3449942DBDC92E743232168E35C5A1E2B
:101528009341890692D49CE7F0B54E4699464323E9
:101538009C4657464546DE468C446346E0B587B030
:1015480002930C00097E90460700109A002914D0D7
:101558000B00583BDBB2202B48D888489B00C35867
:101568009F46136821681D1D606915601B680E067B
:1015780002D4490600D5DCE018600023029D2361EF
:101588004B46210000933800434605AAFFF728FF81
:1015980001301ED02A00414638002369C84701306F
:1015A80017D02368E068059E9B071BD5B04219DD5C
:1015B80019239A460025A24404E0E0680135831BFC
:1015C800AB420FDD0123524641463800C84701307F
:1015D800F3D10120404207B0F0BCBB46B246A94651
:1015E800A046F0BDB042F6DA3000F4E72500422309
:1015F80001204235E154432300222061E254BFE731
:1016080013682168181D10600D0602D44D0600D518
:1016180094E01A6816006368002A00DA92E0584AD3
:1016280093460A2203924BE01368206840CB0506D4
:1016380001D440067FD41360514B9B466F2900D1DB
:1016480091E00A23039337E013682500191D116000
:101658001A68422301204235E254CCE71368191D69
:1016680011601D68002128006268FFF73BFD002813
:1016780000D181E0401B6060BDE7202321680B4357
:1016880023604521782060543E498B46116840C943
:10169800180603D4580601D53604360C1160DA074B
:1016A80002D5202213432360002E03D12022236871
:1016B800934323601023039343230022E254636877
:1016C800A360002B18DB042122688A432260002EC5
:1016D80012D1029D002B49D1039B082B1ED0029BDF
:1016E8005B1B23614CE745235821E15424492368B7
:1016F8008B46CBE72368C4E7039B9A46029D3000DC
:10170800514600F02DF95B465B5C013D2B703300C0
:1017180006005345F3D2039B082BE0D12368DB076F
:10172800DDD5626823699A42D9DC3023013D2B70EC
:10173800D5E7188021E73604360C7CE700269E5F43
:10174800320068E743222D20A054A360002B02DB5F
:101758000423994321600A239A46094B76429B4603
:101768000A230393CAE708230393A5E75B462500EA
:101778001B7842352B70AFE760683CE7585B000880
:10178800F86400080C6500087047C0467047C046FA
:10179800F0B505000F2A31D903273E000D430C0090
:1017A80003002E402F4234D11500103D2D09AC46C0
:1017B8002F013F1865685D60A5689D60E568DD607C
:1017C800256810341D601D001033BD42F2D16546F6
:1017D8000F230C2401352D014919134045191442D2
:1017E8001AD0043B9B0801339B008C59AC5104363A
:1017F8009E42FAD10323AD1989191A40561E002AB0
:1018080006D00023CC5C1A00EC5401339642F9D17F
:10181800F0BD0500561EF4E71A00EFE7002370B587
:10182800064C05000800236000F08EFA431C00D027
:1018380070BD2368002BFBD02B60F9E7B4010020B2
:101848000B1F1B68181F002B00DB70470B58C018B4
:10185800FBE7C046002243088B4274D303098B423E
:101868005FD3030A8B4244D3030B8B4228D3030C68
:101878008B420DD3FF22090212BA030C8B4202D30A
:101888001212090265D0030B8B4219D300E0090A32
:10189800C30B8B4201D3CB03C01A5241830B8B423B
:1018A80001D38B03C01A5241430B8B4201D34B0324
:1018B800C01A5241030B8B4201D30B03C01A524189
:1018C800C30A8B4201D3CB02C01A5241830A8B420E
:1018D80001D38B02C01A5241430A8B4201D34B02F7
:1018E800C01A5241030A8B4201D30B02C01A52415B
:1018F800CDD2C3098B4201D3CB01C01A524183090F
:101908008B4201D38B01C01A524143098B4201D348
:101918004B01C01A524103098B4201D30B01C01A73
:101928005241C3088B4201D3CB00C01A52418308ED
:101938008B4201D38B00C01A524143088B4201D31A
:101948004B00C01A5241411A00D20146524110467A
:101958007047FFE701B5002000F0F0F802BDC0466F
:101968000029F7D076E7704703460B437FD400225F
:1019780043088B4274D303098B425FD3030A8B421B
:1019880044D3030B8B4228D3030C8B420DD3FF2285
:10199800090212BA030C8B4202D31212090265D053
:1019A800030B8B4219D300E0090AC30B8B4201D306
:1019B800CB03C01A5241830B8B4201D38B03C01A4D
:1019C8005241430B8B4201D34B03C01A5241030BC4
:1019D8008B4201D30B03C01A5241C30A8B4201D375
:1019E800CB02C01A5241830A8B4201D38B02C01A20
:1019F8005241430A8B4201D34B02C01A5241030A97
:101A08008B4201D30B02C01A5241CDD2C3098B427B
:101A180001D3CB01C01A524183098B4201D38B01F8
:101A2800C01A524143098B4201D34B01C01A52419B
:101A380003098B4201D30B01C01A5241C3088B42E0
:101A480001D3CB00C01A524183088B4201D38B00CB
:101A5800C01A524143088B4201D34B00C01A52416D
:101A6800411A00D201465241104670475DE0CA0F44
:101A780000D04942031000D34042534000229C4604
:101A880003098B422DD3030A8B4212D3FC2289010E
:101A980012BA030A8B420CD3890192118B4208D3E4
:101AA800890192118B4204D389013AD0921100E046
:101AB8008909C3098B4201D3CB01C01A524183095A
:101AC8008B4201D38B01C01A524143098B4201D387
:101AD8004B01C01A524103098B4201D30B01C01AB2
:101AE8005241C3088B4201D3CB00C01A524183082C
:101AF8008B4201D38B00C01A5241D9D243088B4282
:101B080001D34B00C01A5241411A00D20146634624
:101B180052415B10104601D34042002B00D5494288
:101B2800704763465B1000D3404201B5002000F0C7
:101B380005F802BD0029F8D016E770477047C0467F
:101B48001C2101231B04984201D3000C10391B0AE5
:101B5800984201D3000A08391B09984201D30009A9
:101B6800043902A2105C40187047C0460403020200
:101B7800010101010000000000000000BFF34F8FC9
:101B88000549CA68E023DB001A40044B1343CB60C5
:101B9800BFF34F8FC046FDE700ED00E00400FA05F3
:101BA800F0B5C64600B580460C00170006684D081B
:101BB80008002B001F2105E0400001221A401043B5
:101BC80001395B08002BF7D18840FFF7B9FFFF23E5
:101BD80018404000FC3B83409E431F2205E0640000
:101BE80001232B401C43013A6D08002DF7D120003A
:101BF8009040FFF7A5FFFF2303405B009F403E4353
:101C080043461E6080BCB846F0BDF0B5C64600B578
:101C180080461700466A0D0A4C0A280023001F2137
:101C280005E0400001221A40104301395B08002BEF
:101C3800F7D18840FFF784FFFF2318408000F03B6E
:101C480083409E431F2205E06D00012323401D436E
:101C5800013A6408002CF7D128009040FFF770FF84
:101C6800FF2303409B009F403E4343465E6280BC87
:101C7800B846F0BDF0B5C64600B580460C00170062
:101C880086684D0808002B001F2105E0400001224E
:101C98001A40104301395B08002BF7D18840FFF741
:101CA8004FFFFF2318404000FC3B83409E431F2208
:101CB80005E0640001232B401C43013A6D08002D08
:101CC800F7D120009040FFF73BFFFF2303405B0064
:101CD8009F403E4343469E6080BCB846F0BDF0B589
:101CE800C64600B580460C001700C6684D080800B7
:101CF8002B001F2105E0400001221A401043013942
:101D08005B08002BF7D18840FFF71AFFFF23184024
:101D18004000FC3B83409E431F2205E064000123F2
:101D28002B401C43013A6D08002DF7D1200090404C
:101D3800FFF706FFFF2303405B009F403E434346F7
:101D4800DE6080BCB846F0BD7047000010B50400E6
:101D5800034803F0AFF8200003F0ECF810BDC046CC
:101D68000048004070B504000D00044803F0A2F8D4
:101D78002900200003F0A4F870BDC04600480040C8
:101D880070B504000D00044803F094F82900200001
:101D980003F0E1F870BDC0460048004070B582B05D
:101DA800019115001E00FFF7D1FF1B48FFF7CEFF7A
:101DB800019C210E230AFF22120213401943230219
:101DC800FF221204134019432406214301910B2DCD
:101DD80011D01D2D17D1042101A8FFF7D1FF0F48FD
:101DE800FFF7B4FF06993000FFF7CAFF0C48FFF76A
:101DF800ADFF02B070BD022101A8FFF7C1FF09487D
:101E0800FFF7A4FFEEE7042101A8FFF7B9FF064892
:101E1800FFF79CFFE6E7C046DC5B0008E05B0008D4
:101E280040610008E45B0008E85B0008F0B583B097
:101E380004000D0016001F000748009313000A0055
:101E48002100FFF7ABFF009733002A002100034869
:101E580002F06EFC03B0F0BDEC5B000800640040CB
:101E6800F0B583B004000D0016001F00074800936A
:101E780013000A002100FFF791FF009733002A00A2
:101E88002100034802F054FC03B0F0BDFC5B0008DD
:101E98000034004010B507490C000C3C1822200003
:101EA800FEF720FA200018300C220021FEF796FDDC
:101EB80010BDC04624070020002100E00131064B78
:101EC8004A00521890001B185B68002B01D00229A9
:101ED800F4D90320401A70471807002070B5002570
:101EE80000E001350A4B6C006419A4001B195B68FB
:101EF800002B01D0022DF4D9022D07D8044B6C0019
:101F08006619B600F05098194160826070BDC046ED
:101F18001807002010B5034860220021FEF75EFD77
:101F280010BDC046B8060020F8B50500002401E041
:101F38000134E4B2072C24D8244A63001B199B00FF
:101F48009B5CDB07F4D563001B199B009B585B085F
:101F5800AB42EDD1660030198000170080180430BC
:101F68000822FEF7BFF933199B006A00D9590125E9
:101F78000D401543DD511E00DB5D01221343F3556F
:101F880022E00024072C1FD8104A63001B199B006D
:101F98009B5CDB0702D50134E4B2F3E76600301935
:101FA80080001700801804300822FEF79BF93219C8
:101FB80092006D00D15901230B402B43D3511600D9
:101FC800D35D01221343F355F8BDC046B80600207F
:101FD80010B5040002000E21012003F0F5FA2200DA
:101FE8000C21052003F0F0FA10BD000010B50A001E
:101FF8000F280ED800290DD00A4C636801218140B2
:102008000B436360084C4300185DE418617803F0E3
:10201800DBFA10BD034C6368012181408B43636088
:10202800F0E7C046C40200207866000810B5002416
:1020380004E000212000FFF7D9FF01340F2CF8D964
:10204800024B00229A60013A1A6110BDC4020020B6
:10205800F0B5C64600B582B0604B1B68002B00D1B6
:10206800B8E05F4B1B685D4AD2689B1A00D5B1E0A7
:102078005C4B5C229E5C0196002E00D1AAE05B6A54
:10208800002B01D1574B1B6AC8225200934205DC32
:1020980033000020002401256D420AE05248FFF772
:1020A80055FEFFF7C3FF95E0644500D20C000130F0
:1020B80013005A1E002B17D04A4B91008918CF00E5
:1020C800DB19603319888C468D42EDD9454B970052
:1020D800BF18FF00B846434462331F88434B9F42F2
:1020E800E2D80D000190DFE73D4B1B68404A9A1883
:1020F8003A49CA60002A04D10A003E498C46634422
:10210800D360364B1A69964209D9364B91008A1822
:10211800D1005B1862331A88344B9A4239D82B00A5
:102128000A33A34251DA2F4B5C229A5C019B9A42F4
:102138004BD02A4909698A420BD98B4209D0053507
:10214800284A88004118C80012186032128895423F
:1021580025DB224A516801229A400A422AD1FFF718
:1021680065FF01980121FFF741FF1C4A019B13619C
:102178001B4B1B6820498C46634493601F48FFF73C
:10218800E5FD012101A8FFF7FBFD1D48FFF7DEFD76
:1021980020E01C48FFF7DAFDFFF748FFBFE7104BC8
:1021A8001B68154A944663440C4A93601648FFF727
:1021B800CDFD0FE00A4B1B680F4A94466344074A5B
:1021C80093601248FFF7C2FD04E01148FFF7BEFD17
:1021D800FFF72CFF02B080BCB846F0BDC402002057
:1021E80068570020E80200200C5C0008AB0D0000D6
:1021F8003075000031750000A0BB0D009C5C000824
:1022080040610008405C00085C5C0008B45C0008A1
:10221800C85C0008014B00221A607047C00100200A
:10222800F0B5C64600B5E24B1B68002B04D1E14A65
:1022380000211160E04A11605A1CDD490A60DF493B
:10224800486ADF49C854012A05D0022A00D153E25E
:1022580080BCB846F0BD0B78312BF9D89B00D94A21
:10226800D3589F46D84B2E229B5C002BF0D0D74BDF
:10227800187C0028ECD0FF28EAD0CE4B00221A6048
:1022880001321A6001321A60CD4A062555700321C1
:102298001960CD498C7B947018268C5F04261E60CB
:1022A8002612D67005261E60147116268C5F1D60D6
:1022B8002512557107251D60947120254C5F08254E
:1022C8001D602512D57109251D6014721C254C5FEF
:1022D8000A251D60251255720B251D6094721E2556
:1022E8004C5F0C251D602512D5720D251D601473D9
:1022F8000C8901351D60250A55730F251D609473DF
:102308004C8901351D60250AD57311251D6014748B
:102318000C8801351D60250A557413251D609474B9
:102328004C8801351D60250AD57415251D60147566
:102338000C24095F16241C600C12547517241C60A9
:102348009175A24B5B6A002B01D1A04B1B6A1A1234
:10235800984D182129609A4CE27519222A60237633
:102368001A232B606076994E2822B35E1B222A60BE
:102378001A12A2761C222A60E3762A22B35E1D2254
:102388002A601A1222771E222A6063772C22B35EF3
:102398001F222A601A12A27720222A60E3778A4B2A
:1023A800588C09312960070AA75402322A60605400
:1023B8000231296024201F5CA754286003329F5CE7
:1023C80067542A6003315F5C275429602727D85D4A
:1023D800A0547F4A1068000E60541168090CE1553A
:1023E8001168090A2820215411682922A1540230B1
:1023F80028601A21595E02322A600B1223542C23BA
:102408002B60A154734A11682D222A60E154724B43
:1024180019682E232B60A15402322A60717CE15482
:102428007369190EA154190C0132A154190A013209
:10243800A1540132A35401322A60F369190EA15440
:10244800190C0132A154190A0132A1540132A354C2
:1024580037232B6038212960B27CE25439222A6064
:102468005E4B187A6054196813372F60A154586866
:102478000A21FFF779FA3B232B60E055584A126886
:102488003C212960E254574BDA883D232B60100A1F
:1024980060543E202860E25453490B683F222A606A
:1024A8005F1EBB4123544B6840212960A3545C2321
:1024B800F35C36E0454BA1000919C9005B18190007
:1024C800783109781800793000783038C0B2561C55
:1024D800384D2E6030390901084339498854901C19
:1024E80028601F005E373F788F55D61C2E601F006E
:1024F8005F373F780F54180060300788101D8046FA
:102508002860380A8855561D2E6040460F5462339D
:102518001888931D2B60070A8F5507322A60C85404
:1025280023005C1E002B05D0224B1A6813000833C9
:10253800FF2BBFD9224B1F4A12681A7088E62B4816
:10254800FFF704FCFFF7B8FC012800D880E628480C
:1025580007220921FFF7C2FC264807220921FFF7B5
:10256800BDFC75E62448FFF7F1FBFFF7A5FC012841
:1025780000D86DE61E4807220921FFF7AFFC1F4867
:1025880007220921FFF7AAFC62E61D48FFF7DEFBD8
:10259800FFF792FC012800D85AE6154807220921BE
:1025A800FFF79CFC174807220921FFF797FC4FE625
:1025B800C0010020B8010020BC01002000600040DC
:1025C800C4010020206500086C060020E8020020F5
:1025D80068570020A8060020A4060020AC060020AA
:1025E800A0060020D8020020C4020020EC5C0008ED
:1025F800C8660008BC660008005D0008B0660008F0
:10260800185D0008A46600086348FFF79FFBFFF702
:1026180053FC012800D81BE6604807220921FFF770
:102628005DFC5F4807220921FFF758FC10E65D486A
:10263800FFF78CFB5C4B00221A600120FFF7C8FCF7
:1026480006E65A48FFF782FB574B01221A60FFE55E
:102658005748FFF77BFB544B02221A600020FFF714
:10266800B7FCF5E55348FFF771FB534B00221A609E
:10267800524B2D329B5C002B01D0013BDBB2504A00
:102688005374E5E54F48FFF761FB4B4B02221A6094
:102698004B4B49325A74DBE54B48FFF757FB464B27
:1026A80001221A60D4E54948FFF750FB484B012244
:1026B8001A60CDE54748FFF749FB454A00231360F8
:1026C800454A137053809380C2E54448FFF73EFBA8
:1026D8003F4B00221A60404B01321A70B8E5404B5C
:1026E80000221A60FFF7A2FCB2E53D4B01221A60F6
:1026F8003C4A1268DA60ABE53B4B1B78173BDAB211
:102708001C2A00D9A4E59300384AD3589F46364B73
:102718005A78374B1A729BE5334B5B78642B00D998
:102728000023334A136093E52F4B5A7893009B1884
:102738005B002F4C63602F48FFF708FB201D042126
:10274800FFF71EFB2C48FFF701FB81E5264B597864
:10275800214B64224A43DA807AE5214C0023236026
:10276800214B58780121FFF741FC1E4B1B68234A77
:102778009A18A260002A00D06AE5194A20498C46B6
:102788006344936064E5164B00221A60164B587830
:102798000021FFF72BFC5BE52C5D0008C8660008EC
:1027A80098660008445D0008A4060020585D0008EB
:1027B800745D0008885D0008A80600206C060020EB
:1027C800E8020020A85D0008C85D0008E85D000870
:1027D800A0060020005E0008D8020020185E00084D
:1027E800C402002068570020C4010020E8650008E2
:1027F800AC060020305E00084061000840771B00EE
:1028080041771B00084B1B68084A1268934207D29D
:10281800054A591C1160064AD25C064B9A627047F9
:10282800044BAA229A62FAE7BC010020B8010020F2
:10283800C401002000600040034A00231360034ADB
:102848001360034A13607047C0010020B8010020DC
:10285800BC01002010B5244B9B691B0710D5224BE7
:102868009B69FE22120413408822D20393421AD095
:102878001D4AD36908210B43D361FFF7DDFF10BD63
:10288800194B9B69DB0616D4174B9B695B0718D459
:10289800154B9B699B0717D4134B9B699B0616D452
:1028A800114B9B69EBE7FFF7B5FC0F4AD369082189
:1028B8000B43D361E3E70C4AD36910210B43D3617F
:1028C800DDE7FFF7ADFCDAE7FFF79CFFD7E7064B3C
:1028D800DA6920210A43DA619B69DB07CFD4024B0E
:1028E80001229A61CBE7C0460060004010B5114B49
:1028F800D969802292000A43DA61D969802252009C
:102908000A43DA61D9698022D2000A43DA61D969B7
:10291800802252010A43DA61D969802292010A436E
:10292800DA61D969802212010A43DA61FFF784FF6C
:1029380010BDC04600600040F0B583B0404E336B18
:1029480020273B433363336B3B400193019B802536
:10295800ED013C4C022229002000FFF721F9042256
:1029680029002000FFF751F9022229002000FFF773
:1029780081F963682B436360012229002000FFF777
:10298800AEF980252D02022229002000FFF708F960
:10299800042229002000FFF738F90222290020002C
:1029A800FFF768F963682B43636001222900200060
:1029B800FFF795F9336C8022520413433364336C68
:1029C80013400093009B902172581F4B1A4080239C
:1029D800DB03134373501D4900231D4A8B54802485
:1029E80024068C6001328B540120C860194B1A6888
:1029F80082431A60184A1A619A68D20AD202442697
:102A080032439A609A6815439D601A6802431A60B7
:102A18001A6808252A431A601A6808352A431A6072
:102A28001A683A431A601A680C3D2A431A601A68F1
:102A3800023D2A431A608C60C86003B0F0BDC046EE
:102A48000038024000140240FFFF3FFF00E100E0B1
:102A58005F0300000060004005011000F0B5CE469D
:102A6800474680B587B0734B46229A5E724B5D68C5
:102A7800002D1CDD2C00FA239B009D4200DA1C006F
:102A88006C4E338899460A211800FEF76DFF24180A
:102A9800A034642060434946FEF766FF0590336A18
:102AA800766A002E00D11E00002300270CE01500D6
:102AB800E0E7604A190025314900885E1900243191
:102AC800490088523F180133082BF2DD594A5A232E
:102AD8001400D652F0190A21FEF746FF8046574BDC
:102AE8001B68226C9B1A76D4544B1B68544A944634
:102AF8006344236468000321FEF736FF4346C31A84
:102B0800642058434946FEF72FFF07000321280099
:102B1800FEF72AFF404514DD4422A35EDF19059B1A
:102B28009F4200DD1F00434B44229F52414B5C22D1
:102B3800995C00294FD004329D5A02329C5A0023D6
:102B480013E045450BDA3B4B44229B5EDB19002B17
:102B580003DD384A44215352E8E70123F9E73948AD
:102B6800FFF7F4F8E2E70133DBB2994215D91F0009
:102B7800304A9800C018C000121860321288AA4261
:102B880000D215002B4AB800C019C00012186232D2
:102B98001288A242E7D91400E5E7264B2A4A9C523C
:102BA800E02189005D52294A294F00942B00380002
:102BB800FDF7DCFF3800FFF7C9F80535AC4202DD48
:102BC800244B9C4222D9244B9C466444A4B2F9234A
:102BD8005B009C4222D9174B4622985E44229D5E98
:102BE8001E4AE0211A4C64236B430293019043462A
:102BF8000093330089002000FDF7B8FF2000FFF79D
:102C0800A5F807B0C0BCB946B046F0BD1448FFF7F8
:102C18009DF8084B4622A0219952DCE71148FFF79E
:102C280095F8044B462200219952023A01319952F3
:102C3800D1E7C046E8020020AC0600206857002013
:102C4800581B0000505E00087E030000705E0008FC
:102C5800E8530020790D000053F2FFFFF05E0008F2
:102C6800945E0008C45E000870B5684B1A6A5D6A15
:102C7800002D00D11500664B2E229B5C002B00D145
:102C880070BD6448FFF762F8634C01212000FFF72C
:102C980077F86248FFF75AF8601C0121FFF770F8CF
:102CA8005F48FFF753F86378022B03D95D4B1B6825
:102CB800012B41D05C4B1B68012B00D183E05B4B9F
:102CC8001C68002C2AD0514B1A7C514B2B215B5C81
:102CD8009A4202D2564B002119704D4B2C215B5C55
:102CE8009A4202D8524B01221A70514B1B78002B82
:102CF80014D04F4B1E89588970436421FEF734FE67
:102D08000300322D77DD0A3B32003232484D6A80AB
:102D1800642058433100FEF79DFDA880002CAFD1F8
:102D2800434C21890B0032336380E3886420584385
:102D3800FEF71AFEA080A3E7344B1A7C344B2A21F5
:102D48005B5C9A4206D8314B2820195E2A201B5E0C
:102D5800994213DA2E4B9B7B022B01D0072BA9D16A
:102D6800344B1B78012BA5D13348FEF7EFFF012028
:102D7800FFF72EF9264B0022DA739BE7244B292113
:102D88005B5C9A420FD9224B9B7B052B15D8032BF2
:102D980090D32A48FEF7DAFF0020FFF719F91C4BF9
:102DA8000022DA7386E72648FEF7D0FF0020FFF7F7
:102DB8000FF9174B0022DA737CE7093BDBB2012BD2
:102DC80000D977E7E5E7114B1A7C114B2D215B5CA5
:102DD8009A4206D80E4B0231002058540B4B5A74B5
:102DE8006DE70B4B2B215B5C9A42F7D3084B043100
:102DF80001205854F2E7002D86DA0D4B0A22521BA7
:102E0800DB88934200DC7FE713007DE7E8020020BF
:102E18006C060020345F00087A060020485F00082E
:102E280040610008A4060020A8060020A006002093
:102E3800D80200209C060020545F00089C5F000810
:102E48007C5F0008F0B5DE4657464E464546E0B57D
:102E5800B5B0EB4F0C2200213800FDF7BFFDE94C5F
:102E6800302200212000FDF7B9FDE74DE122920054
:102E780000212800FDF7B2FDE44B0E2200219A46FE
:102E88001800FDF7ABFDE24824220021FDF7A6FD5E
:102E9800FFF740F844230322EA52DE4B98461B68AA
:102EA8002B640023994646334A46EA5228004830A4
:102EB800142514320021FDF791FDD74B01261E6021
:102EC800D64B1E60D64B1E602923E55401334B2296
:102ED800E2540133233AE25401330A3AE254083BFC
:102EE8003B72013B9B467B720A33E5540233E6543E
:102EF800FA23DB005246D380CA4B1E60012252429D
:102F0800DA604A465A609A60FFF790F8C64DAB6897
:102F1800F024A343AB60AB68C44A1340AB60AB6812
:102F2800C34A1340AB60C34802F090FBC24BC34A8C
:102F38005A60C34A594654544A469A6007321A603E
:102F48002B6B33432B632B6B33401C931C9B2A6BDB
:102F580002231A432A632A6B13401B931B9B2A6B79
:102F680004231A432A632A6B13401A931A9B2A6B69
:102F780008231A432A632A6B13401993199B2A6B57
:102F880010231A432A632A6B13401893189B2A6B41
:102F980020231A432A632A6B13401793179BE120B7
:102FA800000301F0F9FFE1246402200002F098F91F
:102FB800A44F380001F0B4FD380001F00DFE962052
:102FC800800102F0BDF8A04801F074FF9F48072176
:102FD80001F076FFFA2002F025FB200002F0B0F89D
:102FE8009B4807220921FEF779FF9A4B1E70FFF7CD
:102FF800A3FC994B80246401984922002BA802F075
:103008002BFB974B9749220024A802F025FB964BEF
:1030180084229649D2001DA802F01EFB9448FEF7B0
:1030280095FE944A08231D219348FEF719FF43464D
:103038001B68924A92469A4443461B6891469944B3
:1030480043461C68FA239B009C4664446B6F3343D9
:103058006B67754B5B6F9B07FBD5894B894A1A6079
:10306800894A1A6000225A60884A9A6002E000235E
:10307800012B05D0824BDB685B07F8D10123F7E70A
:103088007F4B834A1A6000230B930D930C930E9386
:1030980000271D00564600F0E7FC7E48FEF756FE66
:1030A800FEF76CFD7C48FEF751FEFEF767FD594BB5
:1030B8001E68724B9C466644784B8022D200009270
:1030C800984632AA33A9764801F0D4FC8246329A4F
:1030D80033997448534600934346FEF75FFE329B8C
:1030E800002B01D100F0D7FC339A634B9A4201D0F0
:1030F80000F0D1FC694B1B78012B01D000F0CBFC10
:10310800444B1A68120E16A988460A701A68120CDF
:103118004A701A68120A8A701B68CB706248FEF7F8
:1031280015FE04214046FEF72BFE4F48FEF70EFE23
:103138005A4B9A78334B1A74002C05D1354B1C68BE
:10314800FA239B009C466444544A53463299339868
:10315800FEF786FE00F09FFC504808220021FDF78C
:103168003DFC2A4B1B78002B0BD0284A90465088F0
:103178004A4A010A1170507041468988080A9070BD
:10318800D1705A425341454A137108231D214748BB
:10319800FEF766FE1F4B1B68AF22920094466344FD
:1031A8000B9300F07FFC4248FEF7D0FD002401E0BD
:1031B8000134E4B2072C15D83E4A63001B199B0062
:1031C8009B5CDB07F4D5110063001A199200505874
:1031D80040081A1992005218043208231D21FEF7DC
:1031E80025FEE5E7002400F065FC3348FEF7AEFD58
:1031F800FEF71CFF00F068FCFEF72AFF00F06CFCED
:10320800AC0600206C060020E8020020D80200204E
:103218001807002068570020A8060020A4060020F0
:10322800A0060020C402002000380240FFE3FFFF90
:10323800FF1FFFFF0024F40010E000E07F3E0000C5
:1032480000ED00E020A1070000100140E86600083A
:10325800D46600089C060020985F0008483F0020BC
:10326800F45F0008482F002040610008484F002004
:10327800F85F00084C5B00087118000020BF0200CE
:1032880000300040CCCC000055550000EE0F000087
:10329800AAAA00000060000818600008685300200F
:1032A800006400403060000840600008F4E506183B
:1032B8005C600008B806002070600008E84C8023B5
:1032C800DB000093230032AA33A9E64801F0D2FBC1
:1032D80003000F90329A3399E34800932300FEF7D6
:1032E8005DFD00232374E14B1B68E14A9146994434
:1032F800339BE04A93420DD8DF4A934200D273E2EF
:10330800DE4A94466344062B00D96DE29B00DC4AF2
:10331800D3589F46DB4A934200D065E2D04B1A78D7
:10332800120259780A439246D74A51461181997830
:103338000902D8780143884651811C7914730A21FF
:103348005046FEF787FA83B20F930A215046FEF7DC
:1033580007FB8BB210930A214046FEF77BFA83B233
:1033680011930A214046FEF7FBFA8BB2E20700D41C
:10337800F9E2C64A9446A20700D4F7E2C44A904646
:10338800620700D4F5E2C34A9246220700D4F3E26A
:10339800C14A9346E40600D4F1E2C04CC04AFC217D
:1033A800C04807945C4606945446059444460494E1
:1033B800644603940293119B0193109B00930F9B07
:1033C8008900FDF7D3FB0FE2A54B9A465B781B02F9
:1033D8005246127813439846B34B9B4642461A808E
:1033E8005346DC78240224B29B781C435B461C813C
:1033F80053461B79594610930B7440466043642129
:10340800FEF7B2FA5A46119010625046C3791B0271
:1034180082791800104382460A214046FEF71AFABC
:1034280080B2129064215046FEF79AFA0691642100
:103438005046FEF70FFA0590109A049211990391DD
:103448000A212000FEF776FB09B202910A2120002A
:10345800FEF78AFA00B201900A214046FEF780FA88
:1034680089B20091129B914AFC2189008D48FDF791
:103478007DFB5B465B7C002B00D14B338A4A127C78
:103488009A4200DD1A00764B1A7100225A71884B55
:103498001B68934200DC9CE18648FEF757FC844B8E
:1034A8001A686F4B1A7100225A7192E16C4A54796A
:1034B800240224B213791C43D3791B021BB29279DC
:1034C80013439B46002B00DCBFE00023D9B2764BA8
:1034D800362210919954624B9A465B781B021BB2B4
:1034E80052461278134398460A211800FEF73CFA10
:1034F80003B211930A214046FEF71CFB0BB212934C
:103508005346DB781B021BB2524692781343984607
:103518000A211800FEF728FA03B213930A2140463D
:10352800FEF708FB0BB214930A212000FEF71CFAE1
:1035380003B215930A212000FEF7FCFA0BB29A4653
:103548000A215846FEF710FA03B298460A2158464F
:10355800FEF7F0FA0BB21099002900D1B6E0564AEE
:103568009446564A4F486146079106934346059349
:1035780053460493159B0393149B0293139B019347
:10358800129B0093119BFC218900FDF7EFFA464B33
:1035980036229B5C002B01D1002C0DDA424A2A21ED
:1035A800535E9B462E4B594699710912D9712824AE
:1035B800145F1C7122125A71002C07D0621D14B2BC
:1035C800274B1A7122125A71374B9C85364B1C8532
:1035D8005A465A851B7C0A2B7BD9FFF73FFA324B98
:1035E8003C229A5C324B5B7A9A427AD22E4A282144
:1035F800535E4421525E1C1C934200DA141C24B210
:103608002B4B5B68002B70DC154B1C7122125A7116
:10361800254B9C853C229A5C254B1B7A9A4200D20A
:10362800D7E02748FEF792FB0D4B00221A715A711A
:103638001D4B9A85012444329C522000FEF7C8FC99
:10364800204B1C60FEF7F2FCC3E0002C01DD0023D8
:103658003CE7154B1B7C092B36D8002336E7C046C0
:103668006853002000340040846000086857002038
:1036780020BF020078180000721800008EE7FFFFD4
:103688005C660008E550FF18D8020020C85F0008F3
:10369800D05F0008D85F0008E05F0008E85F000816
:1036A800DC62000878530020E802002094600008DB
:1036B800AC060020DC600008BC5F0008EC60000875
:1036C8005C610008A40600200123FFE6AD4A944689
:1036D80047E7AD48FEF73AFBAC4B00229A71DA7126
:1036E8007BE7AB4B44229C5E8AE7AA48FEF72EFB99
:1036F800A94B5B6864205843A54B1988FEF734F939
:10370800844200DD040024B27EE7A04A137898467C
:1037180053789A46D178090293789B46D479240243
:1037280093791C43240453791B02127913439B4A4F
:10373800FC2084469A481C4302945B461943019135
:1037480053460093434661468900FDF70FFA904BB4
:1037580036229B5C002B3CD08C4B0022DA709A708E
:1037680037E08A4BDA78120299780A439346884AF6
:103778005946D185197908003121109050545C7947
:10378800A24601315454D9790902987901438846EF
:1037980091865C78240224B21B781C430A212000FD
:1037A800FEF7E2F803B2119342460492524603929E
:1037B800109802905A4601920A212000FEF7BAF9A1
:1037C80009B20091119B774AFC2189007448FDF7E2
:1037D800CDF96E4C33982100FEF7A6FB3299339849
:1037E8000F9B2200FEF722FB6D48FEF7AFFA00247C
:1037F80079E1664A53781B02127813436A4AFC211E
:1038080067488900FDF7B2F9614B36229B5C002BB3
:1038180003D05E4B00225A701A705C4B83221A71D7
:103828000022DA719A715A7108230F93D1E7574B26
:103838001C78574A3E215454997888463F2140467F
:10384800505419798A463C215046505499798B46F0
:103858003D21584650545A78120212B21443DA786D
:10386800120212B24146114388465A79120212B224
:10387800504610438246DB791B021BB25946194356
:103888008B460A212000FEF76FF803B20F930A2136
:103898005846FEF74FF909B206910A215846FEF735
:1038A80063F800B205900A215046FEF743F909B2C1
:1038B80004910A215046FEF757F800B203900A21F6
:1038C8004046FEF737F909B202910A214046FEF751
:1038D8004BF800B201900A212000FEF72BF909B23B
:1038E80000910F9B314AFC2189002D48FDF73EF9D4
:1038F8007AE7264B597809021878DC78240224B232
:103908009A7814435A79120292461A799346DA79C8
:10391800120212B29B791A43904601430F910A2171
:103928001000FEF707F909B204910A214046FEF794
:103938001BF800B2039053465A46134302930A21D8
:103948002000FEF7F7F809B201910A212000FEF7DE
:103958000BF800B200900F9B154AFC218900104813
:10396800FDF704F940E7074A944604E5054A9046FE
:1039780006E5044A924608E5024A93460AE5014CE0
:103988000CE5C046985F00083861000868530020BD
:10399800E802002044610008AC060020A06100088D
:1039A80078530020E06100082C6200084C6200088F
:1039B800A06200081DA801F089FF002800D0C2E01D
:1039C8000E9A002A03D0DD4B1B689B1A1ED424A82C
:1039D80001F070FEDA48FEF7B9F9DA4801F06AFA40
:1039E800D948042101F06CFAD84B5C220021995483
:1039F800D24B1B68FA229200944663440E93022726
:103A0800CE4B1B68D24A944663440C93D14B5B68F7
:103A180080214901C91A2BA801F030FE022D00D1DE
:103A2800E1E200D9C5E2002D00D1CFE2012D1BD182
:103A38002BA801F03FFEC848FEF788F9C74D286853
:103A48006968FEF79DF9C648FEF780F9C54801F098
:103A580031FA2868696801F033FAB84B1B68BC4A28
:103A6800944663440D930225BF4BC04A1A60B34B7A
:103A78001B689B1B01D4FFF710FBB04B1B684A4621
:103A88009B1A01D4FFF70EFBB94800F0DBFF0028B2
:103A980001D0FFF70CFBA94B1B680B9A9B1A01D4AA
:103AA800FFF75AFB002C05D0A44B1B681B1B01D445
:103AB800FFF779FBAF4B9B68002B05D09F4A126834
:103AC800D31A01D4FFF791FB002F05D1A94B1B682E
:103AD800002B01D0FFF790FBA74800F0B3FF0028A8
:103AE80001D0FFF7EBFBA54B5B688421C900C91A1D
:103AF8001DA801F0C3FDA24B5B6880214901C91ACA
:103B080024A801F0BBFD002F00D153E77B1EDBB2D8
:103B1800032B00D97AE724A801F0D8FE002833D176
:103B28000C9A002A00D171E7844B1B689B1A00D5B8
:103B38006CE7864B00225A625C215A5400230C938E
:103B48000E93002762E780228E4B1DA98A46D20079
:103B580098461900504601F0CFFE07008A48FEF744
:103B6800F5F839004046FEF7FDF8764801F0A2F96D
:103B78003900404601F0A4F924A801F0CDFF5046D1
:103B880001F09BFD01273BE780227E4BD2009A463D
:103B9800190024A801F0B0FE80467C48FEF7D6F84C
:103BA80041465046FEF7DEF8032F00D11BE1042FF3
:103BB80000D17BE1022F00D0E5E124A801F0ACFFA1
:103BC8001690431C14D14346022B08D970496D4BFB
:103BD80098461800FCF744FE804500D1EAE024AB83
:103BE8009846180001F098FF404601F066FD97E7F7
:103BF800564B9A46586024AB9846180001F091FF3E
:103C08005346D86016AB9A4604221900404601F084
:103C1800EFFE04225146404601F0EAFE04225146D6
:103C2800404601F0E5FE04225146404601F0E0FE20
:103C380004225146404601F0DBFE0422514640462C
:103C480001F0D6FE04225146404601F0D1FE04227E
:103C58005146404601F0CCFE04225146404601F050
:103C6800C7FE04225146404601F0C2FE04225146D6
:103C7800404601F0BDFE04225146404601F0B8FE20
:103C880004225146404601F0B3FE04225146404604
:103C980001F0AEFE404601F03FFF431C08D02B4B1D
:103CA8005B69834204D0254B1A68284B9A61586196
:103CB80024AB9846042216A9180001F099FE404644
:103CC80001F02AFF1690431C01D0204B987424A8B9
:103CD80001F022FF1690431C01D01C4BD8611B4BEE
:103CE8009846DB689B4643465B689A466421180001
:103CF800FDF73AFE5B4658431549FDF735FE0300CC
:103D080042465062234A1F4841464969029101933D
:103D18005B46009353468021C9008246FCF726FF84
:103D28005046FEF713F84346DB68002B34DB002BC4
:103D38003CDD064B5B6A002B38DA31E0685700201F
:103D48002C630008001401403C630008E8020020CE
:103D5800102700004064024018640008180700207B
:103D6800406100080010014000300040AAAA00008D
:103D780000640040C4020020003400402860024073
:103D880028640240685300201C630008446300084C
:103D9800BC63000850630008D04A526A002AC6DD96
:103DA800CF48FDF7D3FFCD4B00225A6224A801F07B
:103DB80084FCB5E624A801F07DFCCA48FDF7C6FFDF
:103DC800C94801F077F8C948052101F079F8C34BD3
:103DD8005D2200219954C64B1B68C64A9446634429
:103DE8000C9303279CE643460C2B07D9C249C34BC7
:103DF8009A461800FCF734FD824513D04346022B3F
:103E080007D9BF49BD4B98461800FCF729FD8045E6
:103E180032D024AB9846180001F07EFE404601F0EF
:103E28004CFC7DE68023DB009B46534624AA924641
:103E38005A4698461900504601F0DAFD5A4641465E
:103E4800504601F0D5FDA54B5D22934698469B5CF4
:103E580028215943583141440C313C3A504601F02D
:103E6800C7FD43465A469B5C013342465946535464
:103E7800504601F022FC53E624A801F01BFCA1489F
:103E8800FDF764FF984801F015F89F48052101F0F7
:103E980017F8924B5D22995C013A9954944B1B6830
:103EA800944A944663440C93042739E624A801F005
:103EB80033FE431E9A46894B5C229B5C534502D9CC
:103EC8005346132B13D94346022B07D98C498B4BE6
:103ED80098461800FCF7C4FC80454AD024AB9846A5
:103EE800180001F019FE404601F0E7FB18E624AB84
:103EF8009846180001F010FE404601F00DFE4046BD
:103F080001F00AFE404601F007FE404601F004FEBB
:103F1800404601F001FE714A282351464B43924620
:103F28009A44534660331880404601F0F5FD5346E5
:103F380062331880404601F0EFFD404601F0ECFD89
:103F4800404601F0E9FD404601F0E6FD53465E3388
:103F58001870404601F0E0FD404601F0DDFD4046A6
:103F680001F0DAFD53465F331870404601F0A5FBB7
:103F7800D6E524A801F09EFB6448FDF7E7FE002380
:103F88000C931F0042E524A801F0C6FD4346022B0E
:103F980007D95B49594B98461800FCF761FC8045E6
:103FA80003D024A801F089FBBAE500230E931F0073
:103FB800F7E7EB1EDBB2012B00D955E54C4B1B682C
:103FC8000D9A9B1A00D5EEE100254DE5FDF774FF2B
:103FD800032801D0012547E54D484E4A0721FDF742
:103FE8007DFF012540E52BA801F037FC4A4B9A6874
:103FF80090422DD2FDF760FF032800D134E53C4BF9
:104008001B680D9A9B1A00D52EE54448FDF79EFEC5
:10401800374B1B68FA229200944663440D932BA8F1
:1040280001F03BFBFDF736FF9620800101F088F890
:104038003B4800F03FFF3B48072100F041FFFA20D2
:1040480001F0F0FAE120400201F07AF803250BE5CF
:104058002A492BA801F00BFC16902F4B9B6898421D
:104068001DD33148FDF772FE2B4B9968234D28006C
:10407800FDF786FE2D48FDF769FE2B78AA2B03D1A4
:104088001E4B5B78552B55D0194B1B68FA229200B2
:10409800944663440D93FDF7FDFE0325E4E42448AC
:1040A800FDF754FE16AD04212800FDF769FE2BA884
:1040B80001F0D3FB169004212800FDF761FE1B4890
:1040C800FDF744FE2BA801F0E8FA094B1B68F5330D
:1040D800FF330D93FDF7DEFE0425C5E4E80200205A
:1040E80090630008C063000800140140D46300080E
:1040F8006857002010270000DC6300086853002080
:10410800BC630008EC630008006400080864000849
:10411800E06600085F02000018070020C464000879
:1041280000100140E8660008386400084061000893
:1041380024640008A04B9B785F2BA5D19E4BDB78AD
:10414800812BA1D19C4B1B79902B9DD19B4A623B23
:104158000021D154984B997A090209B2587A01433F
:10416800D182997B0902587B01430D911180197CFA
:104178000902D87B01438A465180997C0902587C00
:1041880001430F919180197D0902D87C01438B4628
:10419800D180997D0902587D014310911181197EC2
:1041A8000902D87D014311915181597E937B99422F
:1041B80002D013000022DA73804B9973DB7BFF2B4C
:1041C80002D07E4A0133D3737B4D26216B5C1B02E0
:1041D8001BB20139695C0B437848804683812820EB
:1041E8002B5C1B021BB227216A5C13434246938255
:1041F8002A23EB5C1B022922AA5C13434246538202
:104208003823EB5C1B023722AA5C134342465383D4
:104218003E23EB5C1B023D22AA5C134342461384F7
:104228004023EB5C1B023F22AA5C13434246D38324
:104238004223EB5C1B024122AA5C13434246938350
:104248004623EB5C1B021BB24522AA5C1343424681
:104258001383CB23EB5C1354CC23EB5C5354CD2357
:10426800EB5C01395354CE23EB5C01395354CF2313
:10427800EA5CAB3B4146CA54AC33EB5CFA22D20051
:10428800944663444B840A215846FDF769FB89B27A
:1042980008910A215846FDF7DDFA80B207900A21F5
:1042A8005046FDF75DFB89B206910A215046FDF79D
:1042B800D1FA80B20590119B04930A210F9B9A466C
:1042C8001800FDF74DFB89B203910A215046FDF70E
:1042D800C1FA80B202900A210D9B9A461800FDF798
:1042E8003FFB89B201910A215046FDF7B3FA80B22B
:1042F8000090109B324A8021C9002800FCF736FC48
:104308002800FDF723FD434616229A5E9246424650
:104318001823D15E2023D05E1A23D25E9446294A00
:10432800634602930190009153468021C9002800FA
:10433800FCF71CFC2800FDF709FD43461A88224BB0
:104348009A4204D81D4B5B881F498B4203D91F48EA
:10435800FDF7FCFCB6E619491620095E002917D1BD
:10436800002A15D1002B13D1144B0C229B5E002B75
:104378000ED1124B1E229B5E002B09D10F4B1A2225
:104388009B5E002B04D10D4B18229B5E002B06D0A0
:104398000A4B2E2201219954FEF766FC74E60C485C
:1043A800FDF7D4FC8EE6FDF787FD032801D1FFF762
:1043B8005BFB0025FFF758FB685300206C060020C4
:1043C800446400087864000870170000AC640008B2
:1043D800B8640008DFF834D00D480E490E4A0023AF
:1043E80002E0D458C4500433C4188C42F9D30B4AA1
:1043F8000B4C002301E013600432A242FBD301F00E
:104408000FF9FBF7C7FF01F007F970470000082014
:104418000000002054000020F86600085400002026
:104428006C570020F0B5C64600B582B006001D00E6
:10443800089CC3689B070CD1036903273800184000
:104448001F4201D0012705E0002A4ED00023136047
:104458004BE00027002A11D03B001B331B019B595E
:104468005B072FD51D201060002907D03B001B33A8
:104478001B019B592022121AD3400B603B001B33AF
:104488001B01F3185A680F231340A34206D83B00B8
:104498001B331B01F3185B680F241C40002D28D028
:1044A800082200216846FCF799FA3B01F3181A0024
:1044B800B932FF3212680092BD33FF331B68019393
:1044C80000220BE00B20CEE793089B0069465B585F
:1044D80003211140C900CB40AB540132A242F3D3AF
:1044E8002000002F07D0012F0AD002B080BCB846A8
:1044F800F0BD0020F5E7F36820221343F360F4E7EA
:104508003369202213433361EFE7F0B5C64600B59F
:1045180080460C00170006684D0808002B001F2174
:1045280005E0400001221A40104301395B08002BC6
:10453800F7D18840FDF704FBFF2318404000FC3BFF
:1045480083409E431F2205E0640001232B401C4347
:10455800013A6D08002DF7D120009040FDF7F0FAE0
:10456800FF2303405B009F403E4343461E6080BCE0
:10457800B846F0BDF0B5C64600B580461700466A95
:104588000D0A4C0A280023001F2105E040000122E3
:104598001A40104301395B08002BF7D18840FDF71A
:1045A800CFFAFF2318408000F03B83409E431F2230
:1045B80005E06D00012323401D43013A6408002CE7
:1045C800F7D128009040FDF7BBFAFF2303409B007A
:1045D8009F403E4343465E6280BCB846F0BDF0B59E
:1045E800C64600B580460C00170086684D080800CE
:1045F8002B001F2105E0400001221A401043013919
:104608005B08002BF7D18840FDF79AFAFF23184082
:104618004000FC3B83409E431F2205E064000123C9
:104628002B401C43013A6D08002DF7D12000904023
:10463800FDF786FAFF2303405B009F403E43434655
:104648009E6080BCB846F0BDF0B5C64600B5804651
:104658000C001700C6684D0808002B001F2105E054
:10466800400001221A40104301395B08002BF7D1A2
:104678008840FDF765FAFF2318404000FC3B834063
:104688009E431F2205E0640001232B401C43013A8E
:104698006D08002DF7D120009040FDF751FAFF2357
:1046A80003405B009F403E434346DE6080BCB84603
:1046B800F0BDF0B5C64600B580460C001700066A86
:1046C8004D0808002B001F2105E0400001221A4078
:1046D800104301395B08002BF7D18840FDF730FA09
:1046E800FF2318408000F03B83409E431F2205E0D3
:1046F800640001232B401C43013A6D08002DF7D1BB
:1047080020009040FDF71CFAFF2303409B009F40C8
:104718003E4343461E6280BCB846F0BD034B9842F8
:1047280001D0002070470120FCE7C046003400405B
:10473800F0B5C64600B584B0060001911F000321FC
:1047480000E01900B068E0235B0518421BD1B3698B
:10475800FF20184212D0B36839481843B060B468D3
:10476800374D2C40AC42FAD04B1EDBB20029E8D1C1
:104778000520404204B080BCB846F0BDB068E023D4
:104788005B05184253D0B3681B0E03241C40A04697
:10479800032C4FD00B2A04D01D2A18D003204042E6
:1047A800E8E7019B5905230018331B0199510A9B1F
:1047B800082B42D8434618331B01F3180A9A5A604B
:1047C8000822002102A8FCF709F9002317E0019B41
:1047D800D90004231943230018331B019951E6E734
:1047E800990802AD89004859FA5C944603221A4098
:1047F800D20064469440220002434A5101330A9A87
:104808009342EDD3029943461B01F3181A008932EB
:10481800FF321160039A8D33FF331A60444618340F
:104828002401A35901221343A3510A98A2E70120A6
:1048380040429FE7022040429CE70420404299E71B
:104848008080800010B50348034A0021FCF7C6F8B1
:1048580010BDC0463C07002008280000F0B5D64629
:104868004F464646C0B504000D001600FFF7EAFFA4
:104878002300C82202E0002204C30A00511E002AB5
:10488800F9D123680132134323606368DB07FCD541
:10489800374B9D4204D0374B9D4201D0364BE361E4
:1048A8002368202213432360002E5CD02368103A2B
:1048B80093432360236808221343236080239B00CB
:1048C8009946E25801231A434946625087229200CA
:1048D800A1589943A150812189008C466158994378
:1048E800604621508327BF00E1599943E15185264D
:1048F800B600A1599943A15100218A469021890007
:104908005046605004316050A1581943A150A15835
:104918008846022140468843A05060462058884374
:104928008046604645462550E0590843E051A7595E
:104938008F43A75134365046A0510436A051A5588C
:104948002943A150626912210A4362614A46A2586A
:104958009A434946625022689A432260E0BCBA46AC
:10496800B146A846F0BD2368102213432360A1E78F
:10497800A086010040420F0001001C00F0B5CE46A1
:10498800474680B583B08146FFF7C8FE04001C4A3D
:1049980083001B181B021B189B009F58FF2F27D84A
:1049A800174E85002D182D022B189B007A1C9A5142
:1049B800BB009846D91989002B189B00C9180B0011
:1049C80008339B19043389190A0008320431082076
:1049D80000904846FFF726FD4744BF002D19AD005B
:1049E8007F19F719786103B0C0BCB946B046F0BD6D
:1049F80000230093002200214846FFF713FDF2E749
:104A08003C07002010B50248FFF7B8FF10BDC046AC
:104A18000064004010B50248FFF7B0FF10BDC04663
:104A28000064004010B50248FFF7A8FF10BDC0465B
:104A38000034004010B50248FFF7A0FF10BDC04683
:104A48000034004010B5FFF769FE020008498300F2
:104A58001B181B021B189B005858002806D09300EF
:104A68009B181B029B189B00C918486910BDC046BB
:104A78003C070020F0B583B00D0017000193FFF745
:104A88004DFE0600254B8400241824022418A40097
:104A9800E358002B01D0012805D900233B600027EB
:104AA800380003B0F0BD1D4A83001B181B021B18F9
:104AB8009B00D21853682B6093683B605769089B2A
:104AC8009F4200D91F00B400A4192402A11989002B
:104AD8000831124D491904313A000198FBF702FCDC
:104AE80072B6A3199B005B59013BA419A40063513A
:104AF800FF2B01D962B6D3E7B20092191202200047
:104B0800064C00190430911989001431091904312F
:104B18009A00D2189200FBF7E5FBEBE73C07002070
:104B280030B583B00100264B1A6C80208004024304
:104B38001A641B6C03400193019B00222148FFF774
:104B48008DFE80256D00204C022229002000FFF7F1
:104B5800DCFC092229002000FFF70CFD02222900B5
:104B68002000FFF73CFD6368184A13406360002289
:104B780029002000FFF768FD0135FF3502222900D2
:104B88002000FFF7C2FC092229002000FFF7F2FCF1
:104B9800022229002000FFF722FD63680C4A134017
:104BA8006360002229002000FFF74EFD094B802298
:104BB80052031A60802292031A6003B030BDC046C7
:104BC800003802400064004000040240FFFEFFFF7E
:104BD800FFFDFFFF00E100E010B582B00100244BAB
:104BE8001A6C8020800102431A641B6C03400193F5
:104BF800019B00221F48FFF731FE1F4C02220821AB
:104C08002000FFF782FC0B2208212000FFF751FD4E
:104C1800022208212000FFF7E2FC63680822934380
:104C28006360002208212000FFF70EFD02221021F8
:104C38002000FFF76AFC0B2210212000FFF739FD46
:104C4800022210212000FFF7CAFC63681022934358
:104C58006360002210212000FFF7F6FC074B80223A
:104C68009200DA608022D200DA6002B010BDC0463D
:104C780000380240003400400004024000E100E037
:104C880010B50248FDF762F800BEFEE7D4640008DC
:104C9800024A1368013313607047C0466857002002
:104CA800F0B5C64600B580460C00170006684D08EA
:104CB80008002B001F2105E0400001221A40104384
:104CC80001395B08002BF7D18840FCF739FFFF2337
:104CD80018404000FC3B83409E431F2205E06400CF
:104CE80001232B401C43013A6D08002DF7D1200009
:104CF8009040FCF725FFFF2303405B009F403E43A5
:104D080043461E6080BCB846F0BDF0B5C64600B547
:104D180080461700466A0D0A4C0A280023001F2106
:104D280005E0400001221A40104301395B08002BBE
:104D3800F7D18840FCF704FFFF2318408000F03BC0
:104D480083409E431F2205E06D00012323401D433D
:104D5800013A6408002CF7D128009040FCF7F0FED7
:104D6800FF2303409B009F403E4343465E6280BC56
:104D7800B846F0BDF0B5C64600B580460C00170031
:104D880086684D0808002B001F2105E0400001221D
:104D98001A40104301395B08002BF7D18840FCF713
:104DA800CFFEFF2318404000FC3B83409E431F2258
:104DB80005E0640001232B401C43013A6D08002DD7
:104DC800F7D120009040FCF7BBFEFF2303405B00B7
:104DD8009F403E4343469E6080BCB846F0BDF0B558
:104DE800C64600B580460C001700C6684D08080086
:104DF8002B001F2105E0400001221A401043013911
:104E08005B08002BF7D18840FCF79AFEFF23184077
:104E18004000FC3B83409E431F2205E064000123C1
:104E28002B401C43013A6D08002DF7D1200090401B
:104E3800FCF786FEFF2303405B009F403E4343464A
:104E4800DE6080BCB846F0BDF0B5C64600B5804609
:104E58000C001700066A4D0808002B001F2105E00A
:104E6800400001221A40104301395B08002BF7D19A
:104E78008840FCF765FEFF2318408000F03B834024
:104E88009E431F2205E0640001232B401C43013A86
:104E98006D08002DF7D120009040FCF751FEFF234C
:104EA80003409B009F403E4343461E6280BCB84679
:104EB800F0BD0000014B18607047C046442F002029
:104EC80030B5184B1A68FA239B009C466244164B6F
:104ED8001B68DB0708D5144B5B681B0404D0114B17
:104EE8001B689B1AF3D430BD104A93688024A343EF
:104EF80093600C4B1D68FA239B009C4665444C1E2E
:104F08000029F0D00A4B1A68D3691B0604D5037828
:104F1800936201302100F2E7024B1B685B1BF1D45E
:104F2800E1E7C0466857002058600240004800404A
:104F3800442F002010B50400FBF7A6F9010020005B
:104F4800FFF7BEFF10BD092802D83030C0B2704745
:104F58005730C0B2FBE770B582B0050001AB002244
:104F68005A7013E028780009FFF7EDFF01AC2070B4
:104F78002000FFF7DFFF2B780F201840FFF7E3FF33
:104F880020702000FFF7D6FF013531004E1E0029A2
:104F9800E8D102B070BD0000F0B583B00500584BF1
:104FA8001A6B802189030A431A631A6B0A4001921B
:104FB800019A1A6C8021C9020A431A641B6C0B40BF
:104FC8000093009B4F4B19684F4A11404F4A0A43C0
:104FD8001A604F4A1968C0230B40402B00D18AE061
:104FE800484B4C499960DA60464B5A68120C1204D7
:104FF8008421C9000A435A601A68474C224080211C
:1050080009050A431A601A68012632431A60434B9D
:1050180018683D4A1040424A02431A601A68224002
:105028001143196080277F003E4C0222390020007E
:10503800FFF736FE072239002000FFF766FE02223E
:1050480039002000FFF796FE6368374A1340636013
:105058000332FF3239002000FFF7C1FE0137FF3766
:10506800022239002000FFF71BFE0722390020002A
:10507800FFF74BFE022239002000FFF77BFE636832
:105088002A4A13406360012239002000FFF7A7FE77
:105098001B4990228B58302083438B50244C236823
:1050A800843A134323602368224A134023606368C9
:1050B800214A13406360214B18686B08C018290007
:1050C800FCF7C8FB0004000CE0602368334323604E
:1050D800174BDB699B02FBD5154BDB695B02F7D5E8
:1050E800134B9A6840210A439A609A6840318A4370
:1050F8009A6003B0F0BD034B0649D9609A6073E724
:1051080000380240286002401F80FCFF00050200B2
:10511800484F002024480040FFFFFFE1586002404C
:1051280040040200000C0240FFFEFFFFFFFDFFFFEE
:1051380000480040FFE9FFEFFFCFFFFF50000020CD
:10514800F0B585B00600594B1A6B8021C9030A4394
:105158001A631A6B0A400392039A596C102211437E
:1051680059645B6C1A400292029B514A13680121F0
:105178000B4313604F4B1A688A431A6019684E4AEA
:1051880011404E4A0A431A604D4A1968C0230B4021
:10519800402B00D184E0474B4A499960DA60454B7F
:1051A8005A68120C1204802149010A435A6019688E
:1051B800454A1140802212050A431A601A680125DF
:1051C8002A431A60414C022240212000FFF768FD63
:1051D800072240212000FFF737FE0222402120004D
:1051E800FFF7C8FD63684022934363603F3A40215C
:1051F8002000FFF7F4FD80273F020222390020003B
:10520800FFF74EFD042239002000FFF77EFD022241
:1052180039002000FFF7AEFD63682D4A1340636034
:10522800012239002000FFF7DAFD204B596C1022CB
:1052380011435964596C0A400192019A90215A58B5
:10524800032082435A501A4C23680C2213432360CC
:105258002368204A1340236063681F4A1340636031
:105268001E4B18687308C0183100FCF7F3FA0004E5
:10527800000CE06023682B4323600D4BDB699B0225
:10528800FBD50B4BDB695B02F7D5094B9A684021CC
:105298000A439A609A6840318A439A6005B0F0BD23
:1052A800044B0849D9609A6079E7C0460038024043
:1052B80000100140406402401F80FCFF000502000E
:1052C800483F002024100140FFFFFFE10004024096
:1052D800FF7FFFFFFFE9FFEFFFCFFFFF5000002038
:1052E80070B584B006005B4B1A6B8021C9030A4372
:1052F8001A631A6B0A400392039A596C20221143CD
:1053080059645B6C1A400292029B534B1A68012144
:105318008A431A601968514A1140514A0A431A606F
:10532800504A1968C0230B40402B00D18CE04A4BEF
:105338004D499960DA60484B5A68120C1204802172
:1053480049010A435A601968484A1140A0221205C7
:105358000A431A601A6801252A431A60444C02223B
:1053680040212000FFF79CFC082240212000FFF785
:105378006BFD022240212000FFF7FCFC63684022FD
:10538800934363603E3A40212000FFF728FD022244
:1053980080212000FFF784FC082280212000FFF7ED
:1053A80053FD022280212000FFF7E4FC636880227D
:1053B800934363607E3A80212000FFF710FD254B60
:1053C800596C202211435964596C0A400192019A80
:1053D80090215A58274802405A50274C23680C22DB
:1053E80013432360626880235B021343636062682F
:1053F80080239B02134363602368204A1340236081
:1054080063681F4A134063601E4B18687308C0180E
:105418003100FCF71FFA0004000CE06023682B43FE
:105428002360154BDB699B02FBD5134BDB695B02E1
:10543800F7D5114B9A6840210A439A609A6840311F
:105448008A439A6004B070BD034B0749D9609A60DB
:1054580071E7C04600380240286402401F80FCFF04
:1054680000050200482F002024140140FFFFFFE13F
:1054780000080240FFF3FFFF00140140FFE9FFEFBF
:10548800FFCFFFFF50000020F0B5C64600B58046AC
:105498000C00170006684D0808002B001F2105E0C6
:1054A800400001221A40104301395B08002BF7D154
:1054B8008840FCF745FBFF2318404000FC3B834035
:1054C8009E431F2205E0640001232B401C43013A40
:1054D8006D08002DF7D120009040FCF731FBFF2329
:1054E80003405B009F403E4343461E6080BCB84675
:1054F800F0BDF0B5C64600B580460C0017008668BA
:105508004D0808002B001F2105E0400001221A4029
:10551800104301395B08002BF7D18840FCF710FBDA
:10552800FF2318404000FC3B83409E431F2205E0B8
:10553800640001232B401C43013A6D08002DF7D16C
:1055480020009040FCF7FCFAFF2303405B009F40DB
:105558003E4343469E6080BCB846F0BDF0B5C646A3
:1055680000B580460C001700C6684D0808002B00DF
:105578001F2105E0400001221A40104301395B0851
:10558800002BF7D18840FCF7DBFAFF2318404000D6
:10559800FC3B83409E431F2205E0640001232B400F
:1055A8001C43013A6D08002DF7D120009040FCF70C
:1055B800C7FAFF2303405B009F403E434346DE603B
:1055C80080BCB846F0BD000070B516000E4B9C4676
:1055D8006044840201258D40012229002000FFF744
:1055E80053FF022229002000FFF783FF0022290031
:1055F8002000FFF7B3FF002E03D000239D40A561D4
:1056080070BD1023FAE7C04680001000014B1868EF
:105618007047C0466857002010B5FDF713FCFCE73B
:105628007047000082B0084B1B680193019B431C24
:1056380000D00130002805D0034B1B68DB03F9D5E7
:105648000138F7E702B0704710E000E0014B18603E
:105658007047C04650000020F8B504000E00150041
:105668001F001C220021FBF7B9F92A000021300095
:10567800FBF7B4F966606561A760F8BD70B5040012
:10568800080025696169FCF76BF92161A94200D11D
:1056980070BDFFF7BBFF2060FAE710B50400406853
:1056A80062690021FBF79AF900232360E360236114
:1056B800A36110BD0369C360704770B50400C0687A
:1056C800A669F3070ED42569854223D063681B5C5D
:1056D8000A2B17D001306169FCF742F908008D42A6
:1056E800F4D117E02369834214D063681B5C0A2B4A
:1056F80010D1093B3343A36101306169FCF730F9EC
:10570800E16007E0093B1E43A66101306169FCF7CF
:1057180027F9E16070BDF0B5DE4657464E4645466E
:10572800E0B585B006008B4691461F00C068136837
:10573800C0187169FCF714F90D00B068FAF7A4FDF8
:1057480001903369AB426ED073685B195A46136097
:1057580000230293039711E0013202926B1CE418B4
:105768005B461C6001357369AB4242D0F268AA42BD
:1057780063D03269AA4263D0AB4251D9019B1A0067
:10578800013B002AEED074686019625DB168CF5C95
:10579800BA42F4D1804673699A465819F368C01A18
:1057A8004B461B68C01A5146FCF7DAF8029A8B1A66
:1057B8000A2F01D0002BCFD08B461C00039F002F4F
:1057C8000DD0681C5146FCF7CBF8F160B369012293
:1057D80019009143B161424612780A2A05D04B4616
:1057E8001B685B444A4613601FE0093A1343B361E0
:1057F800F5E7039FF368ED1A4B461B68EB1A029A0C
:105808009B1A4A461560002F05D00022F260B26943
:1058180001218A43B261802212061A43140004E06F
:1058280000231C0001E000231C00200005B0F0BC90
:10583800BB46B246A946A046F0BD00231C00F4E7CB
:1058480000231C00F1E700B583B000230193013366
:1058580001AAFFF760FF03B000BD10B541690369F5
:10586800CB18C068181AFCF77BF8080010BDF8B50B
:1058780004000F001500FFF7F0FFA84200D805004C
:105888006669E368F61AB54200D22E006168C91845
:1058980032003800FAF726FDE06880196169FCF7E4
:1058A8005FF8E160B819B5420ED02669B54200D25A
:1058B8002E00636859183200FAF714FDE068801961
:1058C8006169FCF74DF8E1602800F8BD70B5040087
:1058D800FFF7C3FFE168002504E0481C6169FCF795
:1058E8003FF83000461E002805D0013563685B5C30
:1058F8000A2BF2D1280070BDF0B5C64600B50500E8
:105908000F009046FFF7A9FF0400E968002308E0AC
:105918005C1C0A2A0FD0481C6969FCF721F823008F
:105928003400661E002C0BD06A68525C4345EFD2E7
:105938003A700137ECE7A04502D900223A709C1C66
:10594800200080BCB846F0BD30B583B00500002308
:1059580000936A4601A9FFF7DEFE002800D001DBAC
:1059680003B030BD44006408009400236A4601A9CE
:105978002800FFF7D0FE002801DB2018F0E7002000
:10598800EEE7F0B5C64600B505000F001600FFF7B4
:10599800DBFF041E03D1200080BCB846F0BD3900EF
:1059A8002800FFF750FF306000237B607360346885
:1059B800002C03DB34687368E418ECE764006408BF
:1059C8003460AB6898461800FAF75EFC03001A00CA
:1059D800013B002A06D06A6811784246D25C91429F
:1059E800F5D1D8E7391D2800FFF72DFF7060E1E7F2
:1059F80030B585B00C0015006A4602A9FFF7C1FF53
:105A0800002821D0A84200D92800030008E0013B63
:105A1800013A0092029A511C0291127822700134C4
:105A2800002B0CD0009A002AF1D108E0013B013A82
:105A38000192039A551C0395127822700134002BA9
:105A480002D0019A002AF1D105B030BDF0B585B079
:105A58000C006A4602A9FFF794FF031E52D0E1B278
:105A680000250020002219E0019B002B4ED0013BAD
:105A78000193039B5F1C03971B781BE0782B1DD1B8
:105A8800102109E02D2B1BD1012505E0303BDBB2AD
:105A9800092B26D84843C018013223005C1E002B6E
:105AA8002CD0009B002BDFD0013B0093029B5E1C97
:105AB80002961B78002801D1012ADFD0002AE1D004
:105AC8000A29E3D01029E5D11E00303EF6B2092E8E
