:020000040800F2
:100000000000082089110008091C0008091C0008CC
:10001000091C0008091C0008091C00080000000059
:10002000000000000000000000000000091C0008A3
:10003000091C000800000000091C00080D1C000835
:10004000091C0008091C0008091C0008091C0008FC
:10005000091C0008091C0008091C0008091C0008EC
:10006000091C0008091C0008091C0008091C0008DC
:10007000091C0008091C0008091C0008091C0008CC
:10008000091C0008091C0008091C0008091C0008BC
:1000900091150008A1150008091C0008091C00089A
:1000A000091C0008091C0008091C0008091C00089C
:1000B000091C0008091C0008091C0008091C00088C
:1000C000091C0008091C0008091C0008091C00087C
:1000D000091C0008091C0008091C0008091C00086C
:1000E000091C0008091C0008091C0008091C00085C
:1000F000091C0008091C0008091C0008091C00084C
:10010000091C0008091C0008091C0008091C00083B
:10011000091C0008091C0008091C0008091C00082B
:10012000091C0008091C0008091C0008091C00081B
:10013000091C0008091C0008091C0008091C00080B
:10014000091C0008091C0008091C0008091C0008FB
:10015000091C0008091C0008091C0008091C0008EB
:10016000091C0008091C0008091C0008091C0008DB
:10017000091C0008091C0008091C000800000000F8
:10018000091C0008091C0008091C0008091C0008BB
:10019000091C0008091C0008091C0008091C0008AB
:1001A000091C0008091C0008091C0008091C00089B
:1001B000091C0008091C0008091C0008091C00088B
:1001C000091C0008091C000800000000091C0008A8
:1001D000091C0008091C0008091C0008091C00086B
:1001E000091C0008B1150008C1150008091C000809
:0801F000091C0008091C0008AD
:1001F80010B5064C2378002B07D1054B002B02D0F5
:100208000448AFF300800123237010BD680000206C
:10021800000000009C390008044B10B5002B03D0E7
:1002280003490448AFF3008010BDC0460000000039
:100238006C0000209C3900080023C25C0133002AAE
:10024800FBD1581E7047000003B4714649084000AE
:100258004900095E49008E4403BC704700224308E8
:100268008B4274D303098B425FD3030A8B4244D376
:10027800030B8B4228D3030C8B420DD3FF220902B8
:1002880012BA030C8B4202D31212090265D0030B77
:100298008B4219D300E0090AC30B8B4201D3CB036D
:1002A800C01A5241830B8B4201D38B03C01A5241AF
:1002B800430B8B4201D34B03C01A5241030B8B42B1
:1002C80001D30B03C01A5241C30A8B4201D3CB029C
:1002D800C01A5241830A8B4201D38B02C01A524181
:1002E800430A8B4201D34B02C01A5241030A8B4284
:1002F80001D30B02C01A5241CDD2C3098B4201D39C
:10030800CB01C01A524183098B4201D38B01C01A19
:10031800524143098B4201D34B01C01A5241030990
:100328008B4201D30B01C01A5241C3088B4201D33F
:10033800CB00C01A524183088B4201D38B00C01AEC
:10034800524143088B4201D34B00C01A5241411A13
:1003580000D20146524110467047FFE701B5002020
:1003680000F0F0F802BDC0460029F7D076E77047E4
:1003780003460B437FD4002243088B4274D30309FE
:100388008B425FD3030A8B4244D3030B8B4228D39F
:10039800030C8B420DD3FF22090212BA030C8B42C5
:1003A80002D31212090265D0030B8B4219D300E065
:1003B800090AC30B8B4201D3CB03C01A5241830BEA
:1003C8008B4201D38B03C01A5241430B8B4201D39A
:1003D8004B03C01A5241030B8B4201D30B03C01AC3
:1003E8005241C30A8B4201D3CB02C01A5241830A3D
:1003F8008B4201D38B02C01A5241430A8B4201D36C
:100408004B02C01A5241030A8B4201D30B02C01A95
:100418005241CDD2C3098B4201D3CB01C01A5241FC
:1004280083098B4201D38B01C01A524143098B4285
:1004380001D34B01C01A524103098B4201D30B016E
:10044800C01A5241C3088B4201D3CB00C01A524193
:1004580083088B4201D38B00C01A524143088B4258
:1004680001D34B00C01A5241411A00D201465241F1
:10047800104670475DE0CA0F00D04942031000D310
:100488004042534000229C4603098B422DD3030A65
:100498008B4212D3FC22890112BA030A8B420CD375
:1004A800890192118B4208D3890192118B4204D39E
:1004B80089013AD0921100E08909C3098B4201D31E
:1004C800CB01C01A524183098B4201D38B01C01A58
:1004D800524143098B4201D34B01C01A52410309CF
:1004E8008B4201D30B01C01A5241C3088B4201D37E
:1004F800CB00C01A524183088B4201D38B00C01A2B
:100508005241D9D243088B4201D34B00C01A524101
:10051800411A00D20146634652415B10104601D38E
:100528004042002B00D54942704763465B1000D318
:10053800404201B5002000F005F802BD0029F8D0BE
:1005480016E770477047C0461C2101231B049842D8
:1005580001D3000C10391B0A984201D3000A08394C
:100568001B09984201D30009043902A2105C401803
:100578007047C046040302020101010100000000A7
:10058800000000007047000010B50400034801F0A7
:1005980041FB200001F068FB10BDC0460048004048
:1005A80070B504000D00044801F034FB2900200058
:1005B80001F06BFB70BDC0460048004070B582B0CA
:1005C800019115001E00FFF7DFFF1B48FFF7DCFF56
:1005D800019C210E230AFF22120213401943230211
:1005E800FF221204134019432406214301910B2DC5
:1005F80011D01D2D17D1042101A8FFF7D1FF0F48F5
:10060800FFF7C2FF06993000FFF7CAFF0C48FFF753
:10061800BBFF02B070BD022101A8FFF7C1FF094866
:10062800FFF7B2FFEEE7042101A8FFF7B9FF06487C
:10063800FFF7AAFFE6E7C046CC390008D039000822
:10064800DC390008D4390008D8390008F0B583B07F
:1006580004000D0016001F00009313000A0001009B
:100668000548FFF7ABFF009733002A002100034835
:1006780000F028FE03B0F0BDE03900080064004037
:10068800F0B583B004000D0016001F00009313009E
:100698000A0001000548FFF791FF009733002A0080
:1006A8002100034800F00EFE03B0F0BDF039000849
:1006B8000034004010B5074C21000C3118222000EE
:1006C80002F0EBFC200018300C22002102F0F8FCAC
:1006D80010BDC04684000020002000E00130430027
:1006E8001B189A00044B9B185B68002B01D002284A
:1006F800F4D90323181A70478400002070B5002429
:1007080000E0013463001B199B00094DEB185B687E
:10071800002B01D0022CF4D9022C07D8044D630019
:100728001E19B6007051A8194160826070BDC0469C
:1007380084000020F0B5DE4657464E464546E0B5F3
:10074800A5B0BE4C23689A4624220021BC4802F07A
:10075800B7FC07220921BB48FFF7D0FF2368BA4A34
:1007680093469B448022B94B9200B94910A802F0E5
:100778005FFBB848FFF708FF0823B74A1D21B748B1
:10078800FFF77EFF23682368099300239946013306
:1007980007930026023B059300230893002554463F
:1007A80000F038FCAE4B984680239B0000934346EC
:1007B80022AA23A9AB4800F019FF0700009043467E
:1007C800229A2399A848FFF7F9FE229B002B01D112
:1007D80000F027FCA14B239A9A4201D000F021FC9B
:1007E8009F4B1B78022B37D0032B3DD0012B1FD0FA
:1007F8000023002B01D100F014FC904B1B68099AD0
:100808009B1A01D500F00DFC8C4B98461B68099388
:100818003B00934A22992398FFF732FF43461B680F
:10082800FA225200914699440023089300F0F9FBFC
:10083800089B012B07D00823874A1D218B48FFF707
:1008480005FF0123D5E700231A001D218848FFF77B
:10085800FDFE02230893EEE7784B1B68854A944611
:10086800634409930023C4E77D4B5B78062B07D0CC
:10087800724B1B687F4A9446634409930023B8E788
:100888000023B6E71022002117A802F019FC002364
:100898009946CFE3724F80239B0000933B0022AA26
:1008A80023A9754800F0A2FE804600903B00229ADA
:1008B80023997248FFF782FE239B9A46704B534454
:1008C800072B03D89B006F4AD3589F46002352E05A
:1008D800634A53781B021078034317AF3B80D078E4
:1008E800000200B2917808437880517909021279A0
:1008F8000A43BA8058436421FFF73AFD199001234F
:1009080039E057494F793F023FB20B791F4317AA85
:100918009781CB791B021BB289790B43D381002FB6
:100928000BD09388642B08D011885748FFF720FD17
:100938003A184B4B1A71170A5F71059A002A03DBA4
:10094800474B1A7112125A7117AB9B880A2B1CD885
:10095800434B00229A71DA7101230CE03E490822C8
:100968000C313F4802F090FB012308930733984667
:10097800073B00E00123002B00D161E34346384ADE
:1009880022995046FFF762FE5AE30123F3E7EB1E74
:10099800DBB2012B00D978E3284B1B68069A9B1A17
:1009A80000D59EE2002570E3FFF796FE032801D0EC
:1009B80001256AE39822FF3207213448FFF79EFE9B
:1009C800012562E310A802F0C7FA1D4B9B68984204
:1009D80017D21A4B1B68069A9B1A00D555E310A824
:1009E80002F047FA154B1B68FA22920094466344BA
:1009F8000693FFF75FFE002601235B42059303255C
:100A080043E38022164D9200290010A802F0EAFA6A
:100A18002B78AA2B03D1124B5B78552B38D010A812
:100A280002F027FA054B1B68FA22920094466344A9
:100A38000693FFF73FFE032527E3C046D430002086
:100A480084000020443B000810270000803A00087A
:100A5800B02800200C3A0008B439000871180000CA
:100A6800D42E002000640040143A00080118000049
:100A780001A00001204E000000340040243A000884
:100A88008FE7FFFFD43A000850460000303B0008CB
:100A9800CD4B9B78972BC2D1CB4BDB780693012BA0
:100AA800BDD1C94B1B79902BB9D1C74B9A7A120289
:100AB80012B2597A0A4311001BAA0A9191829D7BAE
:100AC8002D02597B0D4315801F7C3F02D97B0F43B4
:100AD8005780987C0002597C08430B909080187DC1
:100AE8000002D97C08430C90D080997D0902587D7A
:100AF80001438A4611811E7E3602D97D0E435681F6
:100B0800597E91732621595C090209B22520185C87
:100B1800014391812821595C090209B22720185CF8
:100B2800014351822A21595C09022920185C01439A
:100B380011824221595C09024120185C014311834A
:100B48004621595C090209B245201B5C19430D91E5
:100B5800D182B046D044199B0A9A944663444246CF
:100B6800D31A0E93994B9D420DD89F4219D96526E9
:100B780010A802F07EF9964B1B6864330693FFF7C2
:100B880099FD042581E26526F2E76626F0E76726E7
:100B9800EEE76826ECE76926EAE76A26E8E76B26C7
:100BA800E6E7002D16D05346642B13D90A212800F6
:100BB800FFF754FB80B20B9B58430A21FFF7D8FB81
:100BC8000F909620534658436421FFF7D1FB0F9BA3
:100BD8008342DADC002D11D05346642B0ED90A214A
:100BE8002800FFF73BFB80B20B9B434318000A2108
:100BF800FFF7BEFB53465B089842C8DB002F13D0B3
:100C0800642E11D90A213800FFF728FB80B20C9B0B
:100C180058430A21FFF7ACFB8246962070436421B3
:100C2800FFF7A6FB8245B4DC002F0FD0642E0DD948
:100C38000A213800FFF712FB80B20C9B43431800CF
:100C48000A21FFF795FB7608B042A4DB0E9A130041
:100C5800B433A2DBB42AA2DC17AB9B88632B1DD963
:100C6800079B012B3AD0FFF737FD00283AD05B46A7
:100C7800002B03D003260023059313E00722092144
:100C88005448FFF73BFD524B1B68534A93469B441D
:100C9800069B079303260023059303E00026012300
:100CA8005B420593ED19FA235B009D4200DCE2E00C
:100CB8004A4B9D422FDC4346182B2CDCFFF70CFDDA
:100CC800012800D8F1E0079B032B00D1F1E05B4637
:100CD800002B0BD0012600230593A0E60326002352
:100CE8000593DFE7032600230593DBE707220921A5
:100CF8003B48FFF703FD072209213A48FFF7FEFCAE
:100D0800334B1B68344A93469B44032307930126BD
:100D18000023059383E60A9B002B27D04346B32B79
:100D280024DCFFF7D9FC012800D8C6E0079B032B79
:100D380000D1C6E05B46002B03D0042600230593B0
:100D48006DE6072209212648FFF7D8FC072209216A
:100D58002448FFF7D3FC1E4B1B681F4A93469B444D
:100D68000323079304260023059358E60A9B002BC8
:100D78003AD04246282A37DDB333984534DCFFF7AA
:100D8800ABFC012800D8A0E0079B032B00D1A0E012
:100D98005B46002B03D00526002305933FE6072278
:100DA80009210F48FFF7AAFC072209210D48FFF780
:100DB800A5FC074B1B68084A93469B4403230793EB
:100DC8000526002305932AE6D42E0020701700007C
:100DD800D4300020443B000810270000DB05000049
:100DE800383B0008243B00084346002B00D116E698
:100DF80017AB9B884F2B24D80D9B323300DB0EE6B4
:100E080017AB02229D5E0C229F5E0A2149423800E0
:100E1800FFF7AEFA3F18BD4200DA00E60D9B5B42D1
:100E2800984617AB1F886F4364213800FFF7A0FA74
:100E38000500BB493800FFF79BFA2D18A84500DBD1
:100E4800EDE5FFF749FC002847D0079B012B46D06A
:100E58005B46002B01D00626E1E507220921B148AF
:100E6800FFF74CFCB04B1B68B04A93469B44069B6B
:100E780007930626D3E5FFF72FFC002800D1CEE51F
:100E8800079B012B00D1CAE55B46002B00D0C6E5C5
:100E980007220921A348FFF731FCA34B1B68A34A8B
:100EA80093469B44069B0793B9E5012600230593C7
:100EB800B5E5012600230593B1E504260023059333
:100EC800ADE5042600230593A9E50526002305932F
:100ED800A5E5052600230593A1E506269FE5062638
:100EE8009DE5FFF7F9FB032800D1CEE00025CCE013
:100EF80000239A46BA448E4800F08CFE1BAB16229B
:100F08009B5E002B00DADDE01BAA927B8021029613
:100F18000192079A9200874812580092864A8900DF
:100F2800864802F0D5F8854B98461800FFF784F9F3
:100F38000100404600F074FE1BAB14229B5E002BA0
:100F480000DAD0E0802100977D4A89007B4802F0D2
:100F5800BFF87A4F3800FFF76FF90100380000F04A
:100F68005FFE199B002B00DAC6E08021754A8900D4
:100F7800724802F0ADF8714F3800FFF75DF90100D3
:100F8800380000F04DFE17AB9B889846059B01334F
:100F980000D1B9E00A210598FFF7EAF98021674FE7
:100FA80000904346684A8900380002F091F83800FA
:100FB800FFF742F90100380000F032FE1BAF3B8812
:100FC80098460A211800FFF749F983B238897A88C8
:100FD8004244FA2149008A4200DD9CE05B4A012E26
:100FE80000D19AE05A498C4680218846534F514691
:100FF80003916146029101920090564A4146890048
:10100800380002F065F83800FFF716F901003800DB
:1010180000F006FE504800F0D7FA002801D0FFF78C
:10102800C1FB4B46002B05D03F4B1B684A469B1A19
:1010380000D427E4494800F0C7FA002800D029E482
:10104800474B5B6880218900C91A10A801F002FF8C
:10105800022D00D1B6E400D999E4002D00D1A3E413
:10106800012D12D110A801F004FF3E4800F0D2FD76
:101078003D4B1868596800F0D3FD2B4B1B68FA22CA
:1010880092009446634406930225274B1B685A46F0
:101098009B1A01D400239B46234B1B681B1BB9D406
:1010A800214B1C68FA239B009C4664441BAB0C270D
:1010B800DF5F002F00D11BE702DDB4235B4218E796
:1010C800B42316E71BAA927B5B4280210296019209
:1010D800079A9200174812580092244A8900174824
:1010E80001F0F6FF1FE75B4280210097204A890044
:1010F800124801F0EDFF2CE75B4280211D4A890070
:101108000E4801F0E5FF36E717AB0C20185E0A2100
:10111800FFF72EF942E7184A61E718498C4663E75A
:1011280018FCFFFF443B0008D430002010270000C3
:10113800005000400C3B0008343A0008D42E002030
:101148006C3A00089C3A0008B43A0008043A0008CF
:10115800803A0008C03A00080064004000340040AB
:1011680040600240004C004084000020503A0008D3
:10117800843A0008A83A0008003A0008083A00082B
:10118800DFF834D00D480E490E4A002302E0D45847
:10119800C4500433C4188C42F9D30B4A0B4C0023B7
:1011A80001E013600432A242FBD301F0F3FB01F02B
:1011B80047FF01F0ABFB704700000820000000204B
:1011C80068000020883B000868000020E830002004
:1011D800F0B583B006001D00089CC3689B070CD1BE
:1011E80003690327380018401F4201D0012705E092
:1011F800002A4ED0002313604BE00027002A11D0AC
:101208003B001B331B019B595B072FD51D2010602A
:10121800002907D03B001B331B019B592022121ABF
:10122800D3400B603B001B331B01F3185A680F2394
:101238001340A34206D83B001B331B01F3185B681D
:101248000F241C40002D26D008220021684601F0FA
:1012580037FF3B01F3181A00B932FF3212680092C7
:10126800BD33FF331B68019300220BE00B20CEE750
:1012780093089B0069465B5803211140C900CB4085
:10128800AB540132A242F3D32000002F05D0012F26
:1012980008D003B0F0BD0020F7E7F368202213431D
:1012A800F360F6E73369202213433361F1E7000066
:1012B800034B984201D0002070470120FCE7C0464C
:1012C80000340040F0B585B0060001911F000321ED
:1012D80000E01900B068E0235B05184219D1B36932
:1012E800FF20184210D0B36836481843B060B4687D
:1012F800344D2C40AC42FAD04B1EDBB20029E8D169
:101308000520404205B0F0BDB068E0235B051842F7
:101318004FD0B3681B0E03241C40032C4CD00B2A5F
:1013280004D01D2A18D003204042EBE7019B590541
:10133800230018331B0199510A9B082B3FD823001F
:1013480018331B01F3180A9A5A600822002102A8D0
:1013580001F0B6FE002316E0019BD90004231943CF
:10136800230018331B019951E6E79908F85C03221A
:101378001A40D20090408A0002A9515801910843AE
:1013880002A9505001330A9A9342EED32301F3186D
:101398001A008932FF32029911608D33FF33039AA4
:1013A8001A6018342401A35901221343A3510A983F
:1013B800A8E701204042A5E702204042A2E7042016
:1013C80040429FE78080800010B5034A002103480F
:1013D80001F076FE10BDC04608280000A8000020D5
:1013E800F0B5D6464F464646C0B504000D00160077
:1013F800FFF7EAFF2300C82202E0002204C30A0024
:10140800511E002AF9D1236801321343236063680F
:10141800DB07FCD5374B9D4204D0374B9D4201D0AA
:10142800364BE3612368202213432360002E5CD0EF
:101438002368103A934323602368082213432360E8
:1014480080239B009946E25801231A43494662507B
:1014580087229200A1589943A150812189008C4686
:1014680061589943604621508327BF00E159994349
:10147800E1518526B600A1599943A15100218A4618
:10148800902189005046605004316050A15819439A
:10149800A150A1588846022140468843A050604682
:1014A800205888438046604645462550E059084301
:1014B800E051A7598F43A75134365046A0510436FE
:1014C800A051A5582943A150626912210A436261BB
:1014D8004A46A2589A434946625022689A43226073
:1014E800E0BCBA46B146A846F0BD236810221343B3
:1014F8002360A1E7A086010040420F0001002B00F5
:10150800F0B5CE46474680B583B08146FFF7D0FE9A
:10151800040083001B181B021B189B00194A9F58C4
:10152800FF2F27D8174E85002D182D022B189B004A
:101538007A1C9A51BB009846D91989002B189B0030
:10154800C9180B0008339B19043389190A0008329B
:101558000431082000904846FFF73AFE4744BF0090
:101568002D19AD007F19F719786103B0C0BCB946D1
:10157800B046F0BD00230093002200214846FFF743
:1015880027FEF2E7A800002010B50248FFF7B8FFD1
:1015980010BDC0460064004010B50248FFF7B0FF18
:1015A80010BDC0460064004010B50248FFF7A8FF10
:1015B80010BDC0460034004010B50248FFF7A0FF38
:1015C80010BDC0460034004010B5FFF771FE83001F
:1015D8001B181B021B189B0003495858002801D0F0
:1015E800CA18506910BDC046A8000020F0B5C6460C
:1015F80000B582B0884617000193FFF759FE040032
:1016080085002D182D022D18AD001F4BEE58002E09
:1016180006D100233B60300002B080BCB846F0BD64
:1016280083001B181B021B189B00174AD31842463D
:10163800596811609A683A605E69089B9E4200D9B1
:101648001E00A5002D192D022919890008310E4FF9
:10165800C91904313200019801F01FFD72B62B1927
:101668009B00DB59013B2A199200D351D019043051
:1016780011001431C91904319A00D218920001F0EE
:101688000CFD62B6C7E7C046A800002010B582B0BE
:101698000100A94A106C8024A40420431064136C30
:1016A80023400193019B0022A448FFF799FEA44B15
:1016B8001C681F2180204000802305E04000012293
:1016C8001A40104301395B08002BF7D18840FEF718
:1016D8003BFFFF2318404000FC3B83409C431F21F5
:1016E80080204000802305E0400001221A4010437A
:1016F80001395B08002BF7D18840FEF725FFFF234F
:1017080018404000FD3B83401C438D4A1460536AD7
:101718000F218B4306390B4353629468163180209E
:101728004000802305E0400001221A40104301399F
:101738005B08002BF7D18840FEF706FFFF2318400F
:101748004000FC3B83409C431F21802040008023B5
:1017580005E0400001221A40104301395B08002BC4
:10176800F7D18840FEF7F0FEFF2318404000FD3B0C
:1017780083401C43724B9C605A6872490A405A6005
:10178800DC682131FF3180204000802305E04000E3
:1017980001221A40104301395B08002BF7D1884019
:1017A800FEF7D2FEFF2318404000FC3B83409C43D9
:1017B800802300E05B08002BFCD1614BDC601C68D7
:1017C8001F218020800080235B0005E0400001226B
:1017D8001A40104301395B08002BF7D18840FEF707
:1017E800B3FEFF2318404000FC3B83409C431F216D
:1017F8008020800080235B0005E0400001221A4021
:10180800104301395B08002BF7D18840FEF79CFE96
:10181800FF2318404000FD3B83401C43484B1C609D
:101828005C6A1F210220012305E0400001221A40C2
:10183800104301395B08002BF7D18840FEF784FE7E
:10184800FF2318408000F03B83409C431F21022067
:10185800012305E0400001221A40104301395B08CA
:10186800002BF7D18840FEF76FFEFF231840800059
:10187800F63B83401C43324B5C629C681F218020EE
:10188800800080235B0005E0400001221A401043DD
:1018980001395B08002BF7D18840FEF755FEFF237E
:1018A80018404000FC3B83409C431F21802080005F
:1018B80080235B0005E0400001221A4010430139F3
:1018C8005B08002BF7D18840FEF73EFEFF23184047
:1018D8004000FD3B83401C43194B9C605A681A49E1
:1018E8000A405A60DC681F218020800080235B004A
:1018F80005E0400001221A40104301395B08002B23
:10190800F7D18840FEF720FEFF2318404000FC3B3B
:1019180083409C4380235B0000E05B08002BFCD1E4
:10192800074BDC60094B802252031A608022920325
:101938001A6002B010BDC046003802400064004082
:1019480000040240FFFEFFFFFFFDFFFF00E100E093
:1019580010B582B00100A44A106C8024A401204371
:101968001064136C23400193019B00229F48FFF7EA
:1019780037FD9F4B1C681F2180204000802305E015
:10198800400001221A40104301395B08002BF7D1AF
:101998008840FEF7D9FDFF2318404000FC3B8340F8
:1019A8009C431F2180204000802305E04000012245
:1019B8001A40104301395B08002BF7D18840FEF725
:1019C800C3FDFF2318404000FD3B83401C43884A69
:1019D8001460536A0F218B4304390B435362946894
:1019E800143180204000802305E0400001221A4085
:1019F800104301395B08002BF7D18840FEF7A4FD9E
:101A0800FF2318404000FC3B83409C431F2180205B
:101A18004000802305E0400001221A4010430139AC
:101A28005B08002BF7D18840FEF78EFDFF23184096
:101A38004000FD3B83401C436D4B9C605A686D49D8
:101A48000A405A60DC682131FF3180204000802341
:101A580005E0400001221A40104301395B08002BC1
:101A6800F7D18840FEF770FDFF2318404000FC3B8B
:101A780083409C43802300E05B08002BFCD15C4B37
:101A8800DC605D4B1C681F211020082305E0400026
:101A980001221A40104301395B08002BF7D1884016
:101AA800FEF752FDFF2318404000FC3B83409C4357
:101AB8001F211020082305E0400001221A4010438E
:101AC80001395B08002BF7D18840FEF73DFDFF2365
:101AD80018404000FD3B83401C43474B1C601C6A78
:101AE8001F211020082305E0400001221A4010435E
:101AF80001395B08002BF7D18840FEF725FDFF234D
:101B080018408000F03B83409C431F21102008238D
:101B180005E0400001221A40104301395B08002B00
:101B2800F7D18840FEF710FDFF2318408000F43BF2
:101B380083401C43304B1C629C681F2110200823E3
:101B480005E0400001221A40104301395B08002BD0
:101B5800F7D18840FEF7F8FCFF2318404000FC3B13
:101B680083409C431F211020082305E040000122E8
:101B78001A40104301395B08002BF7D18840FEF763
:101B8800E3FCFF2318404000FD3B83401C431A4BF5
:101B98009C605A6810218A435A60DC680F31102013
:101BA800082305E0400001221A40104301395B0870
:101BB800002BF7D18840FEF7C7FCFF2318404000F0
:101BC800FC3B83409C43082300E05B08002BFCD1CE
:101BD800094BDC60094B80229200DA608022D20037
:101BE800DA6002B010BDC046003802400034004040
:101BF80000000240FFFEFFFF0004024000E100E099
:101C080000BEFEE7024A1368013313607047C046FE
:101C1800D4300020014B18607047C046D02E0020F9
:101C280010B50E4B1B68DB0703D50C4B5B681B0418
:101C3800F7D10B4A93688024A343936003E00278AA
:101C48009A62013021004C1E002905D0054B1B6803
:101C5800DA691206FAD5F2E710BDC04658600240AC
:101C680000480040D02E002010B50400FEF7E4FA2A
:101C780001002000FFF7D4FF10BD092802D830303A
:101C8800C0B270475730C0B2FBE730B583B004002C
:101C980001AB00225A7014E020780009FFF7EDFF2D
:101CA8006B46187101A8FFF7DFFF23780F20184053
:101CB800FFF7E3FF6B46187101A8FFF7D5FF013462
:101CC80029004D1E0029E7D103B030BD70B582B0A0
:101CD8000400C84B196B80208003014319631A6BF9
:101CE80002400192019A1A6C8021C9020A431A64BF
:101CF8001B6C0B400093009BBF4B1A68BF491140F7
:101D0800BF4A0A431A60BF48BF491A68C023134034
:101D1800402B27D0B84B9860D960B74B5A68120C43
:101D280012048421C9000A435A601A68B74E324027
:101D3800802109050A431A601A68012002431A60C3
:101D4800B34B1868AD4D0540B248284318601A686F
:101D5800324011431960B04B1D681F21802040009C
:101D6800802309E0A44BD8609960D6E7400001229F
:101D78001A40104301395B08002BF7D18840FEF761
:101D8800E3FBFF2318404000FC3B83409D431F2199
:101D980080204000802305E0400001221A401043C3
:101DA80001395B08002BF7D18840FEF7CDFBFF23F4
:101DB80018404000FD3B83401D43974A1560536A15
:101DC8000F218B4308390B435362956818318020E3
:101DD8004000802305E0400001221A4010430139E9
:101DE8005B08002BF7D18840FEF7AEFBFF231840B5
:101DF8004000FC3B83409D431F21802040008023FE
:101E080005E0400001221A40104301395B08002B0D
:101E1800F7D18840FEF798FBFF2318404000FD3BB0
:101E280083401D437C4B9D605A687C490A405A6038
:101E3800DD682131FF3180204000802305E040002B
:101E480001221A40104301395B08002BF7D1884062
:101E5800FEF77AFBFF2318404000FC3B83409D437C
:101E68001F2180204000802305E0400001221A4005
:101E7800104301395B08002BF7D18840FEF764FB5B
:101E8800FF2318404000FE3B83401D43624BDD604A
:101E98001D681F218020800080235B0005E0400032
:101EA80001221A40104301395B08002BF7D1884002
:101EB800FEF74AFBFF2318404000FC3B83409D434C
:101EC8001F218020800080235B0005E04000012264
:101ED8001A40104301395B08002BF7D18840FEF700
:101EE80033FBFF2318404000FD3B83401D434A4B12
:101EF8001D605D6A1F210220012305E040000122C8
:101F08001A40104301395B08002BF7D18840FEF7CF
:101F18001BFBFF2318408000F03B83409D431F219B
:101F28000220012305E0400001221A401043013934
:101F38005B08002BF7D18840FEF706FBFF2318400B
:101F48008000F83B83401D43334B5D629D681F2131
:101F58008020800080235B0005E0400001221A40B9
:101F6800104301395B08002BF7D18840FEF7ECFAE3
:101F7800FF2318404000FC3B83409D431F218020E5
:101F8800800080235B0005E0400001221A401043D6
:101F980001395B08002BF7D18840FEF7D5FAFF23FB
:101FA80018404000FD3B83401D431B4B9D605A6811
:101FB8001B490A405A60DD681F2180208000802369
:101FC8005B0005E0400001221A40104301395B081C
:101FD800002BF7D18840FEF7B7FAFF2318404000DE
:101FE800FC3B83409D431F218020800080235B00B1
:101FF8001EE0C04600380240286002401F80FCFFF7
:102008000005020024480040B02A0020FFFFFFE13D
:102018005860024040040200000C0240FFFEFFFF2F
:10202800FFFDFFFF400001221A40104301395B0801
:10203800002BF7D18840FEF787FAFF2303405B00A7
:10204800012632009A4015431A4BDD601A49902246
:102058008B58302083438B50184D2B68843A934318
:1020680013432B602B68164A13402B606B68154A84
:1020780013406B60144B18686308C0182100FEF702
:10208800EDF80004000CE8602B681E432E600B4B33
:10209800DB699B02FBD5094BDB695B02F7D5074B74
:1020A8009A6840210A439A609A6840318A439A6044
:1020B80002B070BD000C02400038024000480040E9
:1020C800FFE9FFEFFFCFFFFF0000002070B582B0EF
:1020D8000400D34A116B8020800301431163136B02
:1020E80003400193019BCF4B1A68CF491140CF4A57
:1020F8000A431A60CE48CF491A68C0231340402BC0
:102108001BD0C84B9860D960C6494A68120C1204A3
:1021180080239B001A434A600A68C74810408022FF
:10212800120502430A600A68012002430A60C34A92
:1021380015681F218020C00009E0BA4BD86099605B
:10214800E2E7400001221A40104301395B08002BE6
:10215800F7D18840FEF7F8F9FF2318404000FC3B10
:1021680083409D431F218020C00080239B0005E001
:10217800400001221A40104301395B08002BF7D1B7
:102188008840FEF7E1F9FF2318404000FD3B8340FB
:102198001D43AA4B1D605D6A1F210420022305E030
:1021A800400001221A40104301395B08002BF7D187
:1021B8008840FEF7C9F9FF2318408000F03B8340B0
:1021C8009D431F210420022305E0400001221A40FC
:1021D800104301395B08002BF7D18840FEF7B4F9AA
:1021E800FF2318408000F73B83401D43934B5D62FB
:1021F8009D681F218020C00080239B0005E04000CF
:1022080001221A40104301395B08002BF7D188409E
:10221800FEF79AF9FF2318404000FC3B83409D439A
:102228001F218020C00080239B0005E04000012280
:102238001A40104301395B08002BF7D18840FEF79C
:1022480083F9FF2318404000FD3B83401D437B4B2F
:102258009D605A687A490A405A60DD681F218020CB
:10226800C00080239B0005E0400001221A40104373
:1022780001395B08002BF7D18840FEF765F9FF2389
:1022880018404000FC3B83409D431F218020C00034
:1022980080239B0005E0400001221A4010430139C9
:1022A8005B08002BF7D18840FEF74EF9FF23184052
:1022B8004000FE3B83401D43604BDD601D681F21CD
:1022C800802000018023DB0005E0400001221A4045
:1022D800104301395B08002BF7D18840FEF734F929
:1022E800FF2318404000FC3B83409D431F21802072
:1022F80000018023DB0005E0400001221A40104362
:1023080001395B08002BF7D18840FEF71DF9FF2340
:1023180018404000FD3B83401D43484B1D605D6AEB
:102328001F210820042305E0400001221A40104321
:1023380001395B08002BF7D18840FEF705F9FF2328
:1023480018408000F03B83409D431F210820042350
:1023580005E0400001221A40104301395B08002BB8
:10236800F7D18840FEF7F0F8FF2318408000F73BCC
:1023780083401D43314B5D629D681F218020000111
:102388008023DB0005E0400001221A401043013998
:102398005B08002BF7D18840FEF7D6F8FF231840DA
:1023A8004000FC3B83409D431F2180200001802387
:1023B800DB0005E0400001221A40104301395B08A8
:1023C800002BF7D18840FEF7BFF8FF2318404000E4
:1023D800FD3B83401D43194B9D605A6819490A40CB
:1023E8005A60DD681F21802000018023DB0005E0A2
:1023F800400001221A40104301395B08002BF7D135
:102408008840FEF7A1F8FF2318404000FC3B8340BA
:102418009D431F21802000018023DB001AE0C04675
:1024280000380240406002401F80FCFF00050200A7
:10243800244C0040B0280020FFFFFFE100080240C4
:10244800FFFBFFFFFFF7FFFF400001221A40104388
:1024580001395B08002BF7D18840FEF775F8FF2398
:1024680003405B00012632009A4015431F4BDD6094
:102478001F4B196C80200003014319641A6C024039
:102488000092009A90215A58C02082435A50194D00
:102498002B680C22934313432B602B68164A134076
:1024A8002B606B68154A13406B60154B18686308FE
:1024B800C0182100FDF7D2FE0004000CE8602B686C
:1024C8001E432E600B4BDB699B02FBD5094BDB6976
:1024D8005B02F7D5074B9A6840210A439A609A68CD
:1024E80040318A439A6002B070BDC046000802407D
:1024F80000380240004C0040FFE9FFEFFFCFFFFF2C
:102508000000002070B582B00400B54B1D681F2183
:102518008020400180231B0105E0400001221A4071
:10252800104301395B08002BF7D18840FEF70CF8FF
:10253800FF2318404000FC3B83409D431F2180201F
:10254800400180231B0105E0400001221A4010438E
:1025580001395B08002BF7D18840FDF7F5FFFF2311
:1025680018404000FD3B83401D439D4B1D605D6A44
:102578001F211020082305E0400001221A401043C3
:1025880001395B08002BF7D18840FDF7DDFFFF23F9
:1025980018408000F03B83409D431F2110200823F2
:1025A80005E0400001221A40104301395B08002B66
:1025B800F7D18840FDF7C8FFFF2318408000F73B9C
:1025C80083401D43864B5D629D681F21802040012A
:1025D80080231B0105E0400001221A401043013905
:1025E8005B08002BF7D18840FDF7AEFFFF231840AA
:1025F8004000FC3B83409D431F21802040018023F5
:102608001B0105E0400001221A40104301395B0814
:10261800002BF7D18840FDF797FFFF2318404000B3
:10262800FD3B83401D436E4B9D605A686D490A40CF
:102638005A60DD681F218020400180231B0105E0CE
:10264800400001221A40104301395B08002BF7D1E2
:102658008840FDF779FFFF2318404000FC3B83408A
:102668009D431F218020400180231B0105E040007D
:1026780001221A40104301395B08002BF7D188402A
:10268800FDF762FFFF2318404000FE3B83401D43D7
:10269800534BDD60544B1D681F210420022305E0C5
:1026A800400001221A40104301395B08002BF7D182
:1026B8008840FDF749FFFF2318404000FC3B83405A
:1026C8009D431F210420022305E0400001221A40F7
:1026D800104301395B08002BF7D18840FDF734FF20
:1026E800FF2318404000FD3B83401D433E4B1D60C7
:1026F8001D6A1F210420022305E0400001221A4020
:10270800104301395B08002BF7D18840FDF71CFF07
:10271800FF2318408000F03B83409D431F21042085
:10272800022305E0400001221A40104301395B08EA
:10273800002BF7D18840FDF707FFFF2318408000E2
:10274800F73B83401D43284B1D629D681F210420D1
:10275800022305E0400001221A40104301395B08BA
:10276800002BF7D18840FDF7EFFEFF23184040000B
:10277800FC3B83409D431F210420022305E04000C9
:1027880001221A40104301395B08002BF7D1884019
:10279800FDF7DAFEFF2318404000FD3B83401D4350
:1027A800114B9D605A6804218A435A60DD681B31C9
:1027B8000420022305E0400001221A401043013999
:1027C8005B08002BF7D18840FDF7BEFEFF231840B9
:1027D8004000FC3B83409D431F21042002230BE063
:1027E80000080240FFEFFFFF000C024040000122FA
:1027F8001A40104301395B08002BF7D18840FDF7D8
:10280800A3FEFF2303405B00012632009A401543D4
:102818001F4BDD601F4B196C802040030143196476
:102828001A6C02400192019A90215A581A480240A3
:102838005A501A4D2B680C22934313432B602B6874
:10284800174A13402B606B68164A13406B60164B8F
:1028580018686308C0182100FDF700FD0004000C8B
:10286800E8602B681E432E600C4BDB699B02FBD58E
:102878000A4BDB695B02F7D5084B9A6840218A430B
:102888009A609A6840318A439A6002B070BDC04627
:10289800000C024000380240FFFCFFFF00500040DF
:1028A800FFE9FFEFFFCFFFFF00000020014B186892
:1028B8007047C046D430002010B50D4B9A68F024FC
:1028C800A2439A609A680B490A409A609A680A4932
:1028D8000A409A60094800F0A5FA094B094A5A606B
:1028E800094923228C5400229A6007321A6010BDCD
:1028F80000380240FFE3FFFFFF1FFFFF0024F40042
:1029080010E000E07F3E000000ED00E010B584B06C
:10291800FFF7D2FF1D4B196B012211431963196B85
:102928000A400392039A196B022211431963196B27
:102938000A400292029A196B042211431963196B17
:102948000A400192019A196B0822114319631B6B03
:102958001A400092009BE1200003FFF7B7F9962088
:102968008001FFF7B3FBE1204002FFF7CBFDFA201F
:10297800800000F011F8064C2000FEF787FE2000CA
:10298800FEF7E6FFFDF7D6FEFCE7C046003802403A
:1029980020A107007047000030B583B0D04B196CF8
:1029A8008024A403214319641A6C22400192019ADD
:1029B800596C8024E401214359645A6C22400092E6
:1029C800009A90241A59C7491140802252020A439A
:1029D8001A51C54A136801218B431360AF239B002A
:1029E800984220D010D9FA239B0098421FD0BF4BA1
:1029F800984200D00DE2BE4BBB4A1361BD4B1C6828
:102A08001F21402020231AE064280ED02D3BFF3BD5
:102A1800984201D1B84BEFE7002801D1B64BEBE75C
:102A280001204042F3E1B54BE6E7B34BE4E7B44B92
:102A3800E2E7400001221A40104301395B08002BED
:102A4800F7D18840FDF780FDFF2318404000FC3B8C
:102A580083409C43202300E05B08002BFCD1A54B5E
:102A68001C609C681F214020202305E040000122B3
:102A78001A40104301395B08002BF7D18840FDF755
:102A880063FDFF2318404000FC3B83409C431F210B
:102A98004020202305E0400001221A40104301395C
:102AA8005B08002BF7D18840FDF74EFDFF23184047
:102AB8004000FD3B83401C438E4B9C60DC681F211B
:102AC8004020202305E0400001221A40104301392C
:102AD8005B08002BF7D18840FDF736FDFF2318402F
:102AE8004000FC3B83409C431F214020202305E0FD
:102AF800400001221A40104301395B08002BF7D12E
:102B08008840FDF721FDFF2318404000FE3B83402D
:102B18001C43784BDC607B4B1C681F2180208000A5
:102B280080235B0005E0400001221A401043013970
:102B38005B08002BF7D18840FDF706FDFF231840FE
:102B48004000FC3B83409C431F2180208000802361
:102B58005B0005E0400001221A40104301395B0880
:102B6800002BF7D18840FDF7EFFCFF231840400009
:102B7800FD3B83401C43634B1C609C681F218020E5
:102B8800800080235B0005E0400001221A401043CA
:102B980001395B08002BF7D18840FDF7D5FCFF23EE
:102BA80018404000FC3B83409C431F21802080004C
:102BB80080235B0005E0400001221A4010430139E0
:102BC8005B08002BF7D18840FDF7BEFCFF231840B7
:102BD8004000FD3B83401C434A4A946053684A497D
:102BE8000B408020800003435360D4681F2180235A
:102BF8005B0005E0400001221A40104301395B08E0
:102C0800002BF7D18840FDF79FFCFF2318404000B8
:102C1800FC3B83409C431F218020800080235B0075
:102C280005E0400001221A40104301395B08002BDF
:102C3800F7D18840FDF788FCFF2318404000FE3B91
:102C480083401C432F4BDC601C681F218020400000
:102C5800802305E0400001221A40104301395B0837
:102C6800002BF7D18840FDF76FFCFF231840400088
:102C7800FC3B83409C431F2180204000802305E0CB
:102C8800400001221A40104301395B08002BF7D19C
:102C98008840FDF759FCFF2318404000FD3B834066
:102CA8001C43184B1C609C681F2180204000802317
:102CB80005E0400001221A40104301395B08002B4F
:102CC800F7D18840FDF740FCFF2318404000FC3B4B
:102CD80083409C431F218020400080231CE0C04685
:102CE80000380240FFFFFCFF00540040DC050000F4
:102CF800100E300000000240862BF0003D0E300020
:102D0800220E300000040240FFFDFFFF40000122B8
:102D18001A40104301395B08002BF7D18840FDF7B2
:102D280013FCFF2318404000FD3B83401C433A4AF4
:102D38009460536839490B40802040000343536036
:102D4800D4682131FF31802305E0400001221A4078
:102D5800104301395B08002BF7D18840FDF7F4FBDD
:102D6800FF2318404000FC3B83409C431F218020E8
:102D78004000802305E0400001221A401043013939
:102D88005B08002BF7D18840FDF7DEFBFF230340EB
:102D98005B0001252A009A4014431F4AD460204949
:102DA8000B682B430B60546A1F210220012305E0A6
:102DB800400001221A40104301395B08002BF7D16B
:102DC8008840FDF7C1FBFF2318408000F03B83409B
:102DD8009C431F210220012305E0400001221A40E4
:102DE800104301395B08002BF7D18840FDF7ACFB95
:102DF800FF2303409B0004210A009A401443064A1B
:102E08005462536A0F2083430B435362002003B07C
:102E180030BD01204042FAE700040240FFFEFFFFF8
:102E280000540040014B18607047C0460000002065
:102E3800F8B504000E0015001F001C22002100F048
:102E48003FF92A000021300000F03AF96660656118
:102E5800A760F8BD70B50400080025696169FDF731
:102E680083FA2161A94200D170BDFFF71FFD2060E0
:102E7800FAE70369C3607047F0B5D6464F4680B598
:102E880083B005000C0091460193C0684844696905
:102E9800FDF76AFA0F00A868FDF7CEF92B69BB4267
:102EA80052D06B68DB19236004002600013C002E19
:102EB8002CD06B689A46BA44DA5DAB681B5D9A42BF
:102EC800F3D16C69E019EB68C01A4B46C01A2100AF
:102ED800FDF74AFA0E00019B002B0DD0781C21004B
:102EE800FDF742FAE9600123AA699A431300AA612F
:102EF800524612780A2A05D0300003B0C0BCBA4640
:102F0800B146F0BD093A1343AB61F5E701376B6988
:102F1800BB4208D0EA68BA42EED02A69BA42EBD07E
:102F2800BB42C1D8E8E7EB68FE1A4B46F61A019B8C
:102F3800002B05D00023EB600133AA699A43AA61EC
:102F4800802109060E43D7E70026D5E710B50123EF
:102F58000022FFF791FF10BD10B541690369CB1836
:102F6800C068181AFDF700FA080010BD30B583B024
:102F780005000023002201A9FFF77EFF002800D0EA
:102F880001DB03B030BD440064080023220001A91E
:102F98002800FFF771FF002801DB2018F1E7002067
:102FA800EFE770B506000D001400FFF7DFFF0028FB
:102FB80000D170BD29003000FFF7C8FF2060002352
:102FC8006B6063602368002B03DB20686368C018AC
:102FD800EFE75B005B082360291D3000FFF7B6FFB1
:102FE8006060F2E730B585B00C0015006A4602A9AA
:102FF800FFF7D7FF002821D0A84200D928000300F6
:1030080008E0013B013A0092029A511C02911278A1
:1030180022700134002B0CD0009A002AF1D108E06C
:10302800013B013A0192039A511C039112782270D4
:103038000134002B02D0019A002AF1D105B030BD2D
:1030480070B500260C4D0D4C641BA410A64209D186
:10305800002600F09FFC0A4D0A4C641BA410A642EF
:1030680005D170BDB300EB5898470136EEE7B300C1
:10307800EB5898470136F2E7803B0008803B000890
:10308800803B0008843B0008002310B59A4200D119
:1030980010BDCC5CC4540133F8E710B5884202D99E
:1030A8008B18984203D3002307E08B5C8354013AC2
:1030B800FBD210BDCC5CC45401339A42FAD1F8E774
:1030C80003008218934200D1704719700133F9E761
:1030D8000CB430B5174B0C001D689DB0002908DAF8
:1030E8008B2301202B6040421DB030BC08BC02B0CD
:1030F800184782236A469B00938200230290069019
:10310800994200D04B1E0493079301236A465B4201
:10311800D382280021AB209A02A9019300F06EF80F
:10312800431C01DA8B232B60002CDDD00023029A8C
:103138001370D9E704000020F0B58E6885B0070049
:103148000C00039201939E423CD890238A89DB00AD
:103158001A4234D00969236860695B1A0293032311
:103168004343DD0FED18019B029801331B186D10C6
:10317800AB4200D91D00530532D52900380000F0B4
:1031880037FB061E09D10C233B6040230120A2898E
:1031980040421343A38105B0F0BD029A2169FFF7AD
:1031A80073FFA389144A1A4080231343A381029B07
:1031B8002661F61826606561019EED1AA560019BDF
:1031C8009E4200D9019E320003992068FFF765FFEF
:1031D800A36800209B1BA36023689E192660DAE77A
:1031E8002A00380000F07AFB061EE0D13800216979
:1031F80000F092FAC7E7C0467FFBFFFFF0B5A1B029
:1032080003901D008B890F0016001B0611D50B6952
:10321800002B0ED1402100F0EBFA3860386100280D
:1032280005D10C23039A0138136021B0F0BD402367
:103238007B61002308AC6361203363761033A37687
:10324800079535002B78002B01D0252B47D1AB1BD8
:103258000593B5420CD0320039000398FFF76CFF94
:10326800431C00D1AEE06269059B944663446361E8
:103278002B78002B00D1A5E0012200235242626086
:1032880004A9543252186E1C2360E360A3601370C3
:10329800A36505223178544800F032FA751C0028DD
:1032A8001FD12268D30604D5532304A95B18202113
:1032B8001970130704D5532304A95B182B2119701F
:1032C80033782A2B16D0350000210A20E3682A78A3
:1032D8006E1C303A092A4ED9002911D117E0013560
:1032E800B0E7414B2268C01A0123834013432E00E4
:1032F8002360CEE7079B191D1B680791002B01DB94
:103308000B9304E05B42E3600223134323602B78B2
:103318002E2B0AD16B782A2B35D1079B02351A1D23
:103328001B680792002B2BDB0993304E03223000D9
:10333800297800F0E5F9002806D04023801B834057
:1033480022680135134323602978062228486E1C19
:10335800217600F0D5F900283CD0264B002B25D14A
:103368000722079B07339343083307936369049A3B
:103378009B18636165E74343350001219B18A6E765
:1033880001235B42D0E700230A201A00013563605D
:1033980029786E1C3039092903D9002BC5D0099228
:1033A800C3E74243350001235218F1E707AB009306
:1033B8003A002100104B0398AFF300800490049B5F
:1033C8000133D3D1BB890D985B0600D42DE70120CA
:1033D80040422AE707AB00933A002100064B0398C6
:1033E80000F07CF8EAE7C0464D3B0008533B000874
:1033F800573B00080000000041310008F7B51500F0
:1034080001938A680B690C000090934200DA13005C
:1034180022002B6043321278002A01D001332B603E
:1034280023689B0602D52B6802332B60226806238B
:1034380017001F401A4227D0230043331B785A1E17
:1034480093412268920630D4220001990098089E80
:103458004332B047431C25D0062320682A68E16818
:1034680000250340042B03D18D1AEB43DB171D40C5
:10347800A3682269934201DD9B1AED180027BD421B
:1034880020D1002010E00137E3682A689B1ABB426C
:10349800D2DD2200012301990098089E1932B04715
:1034A800431CF0D101204042FEBD3020E1184331D9
:1034B800087021005A1C45310978A218433202339A
:1034C8001170C1E72200012301990098089E1A3261
:1034D800B047431CE6D00137D1E70000F0B58BB008
:1034E80006920A0043320793059004920A7E0C0064
:1034F800109B782A07D8622A09D8002A00D1C1E08F
:10350800582A00D18CE026004236327022E01000A2
:1035180063381528F7D8FCF797FE16001F00F6FF4A
:10352800F6FFF6FFF6FF1F00F6FFF6FFF6FFF6FFC1
:10353800A80036009A00F6FFF6FFB900F6FF36003D
:10354800F6FFF6FF9E0026001A684236111D196024
:10355800136833700123A7E0086819680A1D050677
:103568000BD50D681A60002D03DA2D23049A6D42DD
:103578001370614B0A2703931BE00D681A6041061C
:10358800F1D52DB2EFE70D681968081D18602E06F1
:1035980001D50D6803E06D06FBD50D68ADB2564B3D
:1035A800082703936F2A00D00237230000224333F1
:1035B8001A706368A360002B03DB0422216891431F
:1035C8002160002D02D1049E002B0CD0049E2800FF
:1035D8003900FCF7C9FE039B013E5B5C33702B008E
:1035E80005009F42F3D9082F09D12368DB0706D5C8
:1035F80063682269934202DC3023013E3370049BE6
:103608009B1B2361079B210000930598069B09AA31
:10361800FFF7F4FE431C4CD1012040420BB0F0BD33
:1036280045310A70344A03921A68216820CA1A6020
:10363800080616D5CB0702D5202319432160102789
:10364800002DB2D1202322689A432260ADE72022C0
:1036580009680A4322602200782145321170274AFE
:10366800E1E74806E6D5ADB2E4E71A680D68101D33
:103678004969186013682E0601D5196002E06D06C5
:10368800FBD519800023049E2361BBE71A68111D2E
:103698001960166800213000626800F031F80028CF
:1036A80001D0801B6060636823610023049A137053
:1036B800A8E72369320006990598079DA847431C87
:1036C800AAD023689B0715D4099BE0689842A5DA1D
:1036D8001800A3E72200012306990598079E1932CE
:1036E800B047431C98D00135E368099A9B1AAB424E
:1036F800F0DCE9E70025F7E75E3B00086F3B0008D0
:10370800C9B28218904201D10020704703788B42D9
:10371800FBD00130F6E7000070B50500002910D095
:103728000C1F2368002B00DAE418280000F018F9B1
:103738001D4A1368002B05D163601460280000F04F
:1037480017F970BDA34208D9216860188342F3D1E4
:1037580018685B6841182160EEE71A005B68002B67
:1037680001D0A342F9D911685018A0420BD12068A2
:103778000918501811608342E0D118685B68411835
:1037880011605360DAE7A04202D90C232B60D5E719
:1037980021686018834203D118685B68411821606A
:1037A80063605460CAE7C046D830002070B50F4E39
:1037B8000D0031680400002902D100F0BFF8306024
:1037C8002900200000F0BAF8431C0AD00323C51CC6
:1037D8009D43A84207D0291A200000F0AFF8431CE7
:1037E80001D101256D42280070BDC046DC300020A3
:1037F800F7B50322CB1C9343083306001F000C2B9C
:1038080032D20C27B94231D8300000F0A9F8324D35
:103818002B681C00002C2ED139003000FFF7C6FFA2
:103828000400431C1ED12C682500002D4AD12368B2
:103838002900E3183000019300F080F8019B8342CF
:1038480043D123680337FF1A03239F4308370C2FFC
:1038580000D20C2739003000FFF7A8FF431C34D0F2
:103868002368DF19276013E0002BCBDA0C2300252F
:1038780033602800FEBD2268D11B20D40B2917D93C
:10388800E2192760A34211D12A606368116053606E
:103898003000250000F06CF807220B35231D9543F6
:1038A800EA1A9D42E5D05B1BA350E2E75A60ECE7B9
:1038B8006268A34201D12A60EAE75A60E8E7230078
:1038C8006468A7E72C006D68AFE70C23300033600D
:1038D80000F04EF8CDE7C046D8300020F7B5070015
:1038E8000E001400002905D11100FFF781FF050023
:1038F8002800FEBD002A03D1FFF70EFF2500F7E7D9
:1039080000F03EF80190844203D835004308A342F2
:10391800EED321003800FFF76BFF051EE8D0019BAE
:1039280022009C4200D91A0031002800FFF7ACFBA6
:1039380031003800FFF7F0FEDAE70000002370B529
:10394800064D040008002B60FCF71CFE431C03D145
:103958002B68002B00D0236070BDC046E0300020EB
:1039680010B5024800F014F810BDC046E43000203D
:1039780010B5024800F00DF810BDC046E430002034
:103988000B1F1B68181F002B01DA0B58C018704753
:1039980070477047F8B5C046F8BC08BC9E467047EB
:0C39A800F8B5C046F8BC08BC9E4670474D
:1039B4000100010000000000000000000000000001
:1039C4005200000000000000203078002065200034
:1039D40020732000205520000A0000002020202011
:1039E4003E3E3E20696E76207C2000002020202070
:1039F4003E3E3E20626D73207C2000002044410046
:103A0400204E4900204C4F0052657365740A000033
:103A1400696E76203E3E3E20202020207C2000003F
:103A2400626D73203E3E3E20202020207C2000003A
:103A340076313220475249443C3C20256457207C4F
:103A44002025733A25642025640A0000763132204B
:103A5400475249443E3E20256457207C2025733A32
:103A640025642025640A0000484F5553453C3C20FA
:103A7400256457204241543A2564570A0000000047
:103A8400484F5553453E3E20256457204241543A01
:103A94002564570A000000004241543C3C20256440
:103AA400570000004241543E3E2025645700000068
:103AB4002025752525202564410A0000505620251F
:103AC400755620256457257325732025640A000044
:103AD4007C0900080A090008D80800087C090008C5
:103AE4007C0900087C090008640900087C090008B6
:103AF4002D2D000053550000424B0000462D0000C0
:103B04004643000046440000F43A0008F83A00082E
:103B1400FC3A0008003B0008043B0008083B00088E
:103B2400AA5509092400003501000000AA5507011F
:103B340010170100AA5509091C03003001000000F8
:103B4400AA5509091C00002D01232D302B200068E3
:103B54006C4C006566674546470030313233343576
:103B640036373839414243444546003031323334E4
:0C3B7400353637383961626364656600DD
:043B80002102000816
:043B8400F90100083B
:103B88000024F400080000200000000000000000ED
:103B9800000000000000000000000000000000001D
:103BA800000000000000000000000000000000000D
:103BB80000000000000000000000000000000000FD
:103BC80000000000000000000000000000000000ED
:103BD80000000000000000000000000000000000DD
:083BE8000000000000000000D5
:040000050800118955
:00000001FF
