:020000040800F2
:1000000000000820E5460008914F0008914F0008C5
:10001000914F0008914F0008914F00080000000028
:10002000000000000000000000000000914F0008E8
:10003000914F000800000000914F0008A14F0008F8
:10004000914F0008914F0008914F0008914F000810
:10005000914F0008914F0008914F0008914F000800
:10006000914F0008914F0008914F0008914F0008F0
:10007000914F0008914F0008914F0008914F0008E0
:10008000914F0008914F0008914F0008914F0008D0
:10009000154D0008254D0008914F0008914F0008AC
:1000A000914F0008914F0008914F0008914F0008B0
:1000B000914F0008914F0008914F0008914F0008A0
:1000C000914F000861290008F9290008914F0008A4
:1000D000914F0008914F0008914F0008914F000880
:1000E000914F0008914F0008914F0008914F000870
:1000F000914F0008914F0008914F0008914F000860
:10010000914F0008914F0008914F0008914F00084F
:10011000914F0008914F0008914F0008914F00083F
:10012000914F0008914F0008914F0008914F00082F
:10013000914F0008914F0008914F0008914F00081F
:10014000914F0008914F0008914F0008914F00080F
:10015000914F0008914F0008914F0008914F0008FF
:10016000914F0008914F0008914F0008914F0008EF
:10017000914F0008914F0008914F000800000000C7
:10018000914F0008914F0008914F0008914F0008CF
:10019000914F0008914F0008914F0008914F0008BF
:1001A000914F0008914F0008914F0008914F0008AF
:1001B000914F0008914F0008914F000861290008F5
:1001C000F9290008914F000800000000914F000835
:1001D000914F0008914F0008914F0008914F00087F
:1001E000914F0008354D0008454D0008914F00081B
:0801F000914F0008914F000837
:1001F8000448054B10B5834203D0044B002B00D0B4
:10020800984710BD54000020540000200000000052
:1002180006480749091A8B10C90FC91810B54910A3
:1002280003D0044B002B00D0984710BD5400002089
:10023800540000200000000010B5074C2378002B64
:1002480009D1FFF7D5FF054B002B02D00448AFF3C7
:1002580000800123237010BD54000020000000001E
:100268003C5E0008054B10B5002B03D00449054837
:10027800AFF30080FFF7CCFF10BDC04600000000C0
:10028800580000203C5E000810B583070AD0030020
:10029800032102E001330B4205D01A78002AF9D174
:1002A800181A10BD030019680C4A0D4C8A188A43A5
:1002B80022420FD15968094A04338A188A432242D4
:1002C80008D15968054A04338A188A432242F1D072
:1002D80000E001331A78002AFBD1E1E7FFFEFEFEB9
:1002E80080808080F0B588420AD98B18984207D25E
:1002F800531E002A03D0CA5CC254013BFBD2F0BD96
:1003080005000F2A0AD8561E002AF8D00023CC5C14
:100318001A00EC5401339642F9D1F0E703273E0066
:100328000D430C0003002E402F422DD11500103D27
:100338002D09AC462F013F1825681D6065685D6072
:10034800A5689D60E5681034DD601D001033BD426E
:10035800F2D165460F230C2401352D0149191340AC
:100368004519144213D0043B9B0801339B008C5958
:10037800AC5104369E42FAD103231A40AD198919AB
:10038800561E002AC2D1BAE70500561EBEE71A005B
:10039800B9E7C04670B50D4B0D4D5E1BB610AB42AC
:1003A80005D0002408CD01349847A642FAD805F0B4
:1003B80041FD084B084D5E1BB610AB4205D000242A
:1003C80008CD01349847A642FAD870BD686B00087A
:1003D800686B00086C6B0008686B0008F0B5CE46C7
:1003E80047460300944680B5012959D901220120C6
:1003F8009046012500260124404206E0221A904634
:10040800260001257419A1420DD91F181A5D7F5DB8
:10041800BA42F3D336D001250122300001367419CF
:100428009046A142F1D844466246146001229146A2
:10043800023A012500269046012407E04246A21A06
:100448009146260001257419A1420ED94746DF19A5
:100458001A5D7F5DBA42F1D818D001250122B04655
:10046800013674199146A142F0D843460130013350
:10047800834203D36246494618001160C0BCB9469E
:10048800B046F0BD454505D00135BBE74D4504D024
:100498000135D8E776190125B4E776190125D2E7A1
:1004A800012399460023E5E7F0B54546DE46574661
:1004B8004E461400E0B585B003AA80468A4620005F
:1004C80019001D00FFF78AFF039B81460200E1180F
:1004D8002000019300F0D6FA00285ED15346591B3C
:1004E80080231B012B4300930123002700269B46F2
:1004F8000800B0421CD33B004F4500D24B46424651
:1005080091199D4227D98446080002E001339D4293
:1005180020D0E15CC25C9142F8D060469D421AD975
:100528005A464946521A9619F6180027B042E2D29E
:1005380040460099504400F0C9FA82445346581B7B
:10054800B042D8D2002005B0F0BCBB46B246A9469E
:10055800A046F0BD60464B464246013B91194F45C7
:1005680065D28446080003E05A1E9F420ED013004D
:10057800E15CC25C9142F7D06046013301379F428B
:1005880008D8019B9C46EF1A6644B2E701376046DB
:100598009F42F6D930004044D5E74B46EB1A4B450D
:1005A80000D24B460133009303935346591B8023D3
:1005B8001B012B4300269B4601270800B04218D395
:1005C80042464B4691194D4520D98446080002E021
:1005D80001339D4218D0E15CC25C9142F8D0010021
:1005E80060469D4212D94A46BA1A9619F618B04280
:1005F800E6D240465946504400F068FA82445346D1
:10060800581BB042DCD29DE7010060464B46013BD7
:100618000FD38446080001E0013B94D3E15CC25C3F
:100628009142F9D0009B60469C466644C6E74B461B
:10063800A4E7080087E7C046F0B5DE4657464546BA
:100648004E46E0B5844C8346A54414008A4605AA64
:10065800190020001D00FFF7C1FEFFAA019006AB9C
:100668001C3220C39342FCD1002D0FD02300A44696
:10067800681E6619201808241A7804AFC11A920057
:100688003F190133B9509E42F5D16446059B2000BD
:10069800019AE118984600F0F5F9002800D07AE0B0
:1006A800002399465346591B80231B012B43039370
:1006B8002B006F1E00264D4608009946029408E05C
:1006C800002D04D0984502D94B4642469B1A002576
:1006D800F618B04224D35B4608249919CB5D04AAC6
:1006E8009B001219D358002BEAD1019A2B0095428E
:1006F80000D213009F422AD98446029C080002E0D7
:1007080001339F4220D0E15CC25C9142F8D00100E5
:10071800029460469F421AD9019AB61A0136D6E762
:1007280058460399504400F0D1F9824453464A464A
:10073800981AB042CFD20020484B9D44F0BCBB462B
:10074800B246A946A046F0BD010060460294019A4F
:10075800531E95427DD28446029C080003E05A1E2F
:100768009D4210D01300E15CC25C9142F7D00100B9
:1007780060460294013301359D420AD84B464246F1
:1007880046449D1AA5E701350100029460469D4242
:10079800F4D90800D0E7019AAB1A934257D3013332
:1007A800039305935346591B80231B012B439946FA
:1007B8006B1E002608001F000294B0420CD35B4653
:1007C80008249919CB5D04AA9B001219D358002B51
:1007D8000DD0F618B042F2D258464946504400F0BF
:1007E80075F982445346581BB042E8D2A3E7019AF0
:1007F8001300BA4217D28446029C080002E0013373
:10080800BB420DD0E15CC25C9142F8D00100029479
:1008180060469F4207D9019AB61A0136F618D9E7F9
:10082800010060460294019B013BB2D38446029CBE
:10083800080002E0013B00D27EE7E15CC25C914225
:10084800F8D0039B60469C4602946644B5E71300C3
:10085800A5E713008FE7C046E4FBFFFF1C04000078
:10086800F0B5CE46474680B50E000978050004006D
:1008780091B0002958D07278002A00D178E0B07879
:10088800002857D013020B4307041F43F3789C46F4
:100898001B063B436746002F00D180E03279002ACF
:1008A8006AD03000FFF7F0FC80218900070001437F
:1008B800280000F00BF987424AD8FE2F00D985E0BE
:1008C800C01B804640226846791CA84400F086F880
:1008D800002F0FD0BA1994463F2233009146F8B240
:1008E800301849466C461A780A40C11A0133A15497
:1008F8009C45F6D12C003F256A46013CE35D2B4020
:10090800D35CE418A04503D224E04C44A04521D38D
:100918006A46E35D31002B40D35C20003A009946DB
:1009280000F0B0F80028F0D1200011B0C0BCB946E2
:10093800B046F0BD0904114300232A7806E02C00D4
:100948001B04013513432A7899423DD0002AF6D179
:100958000024E9E74346D819DB5D002BF8D0802155
:10096800090100F0B3F88044A045C5D20024DBE7B4
:1009780000F03EF90400D7E72A78002AE8D019BA2F
:10098800002301E08B4208D02C001B0201351343E1
:100998002A78002AF6D18B42DAD1033CC4E7120444
:1009A800090611432A7800020143002AD0D0002307
:1009B80001E0002ACCD02C00134301351B022A7811
:1009C8009942F6D1023CAFE7013CADE701003B009C
:1009D80032002800FFF730FE0400A5E7F0B5050057
:1009E800830749D0541E002A45D003000326CAB203
:1009F80002E00135013C3ED301332A703342F8D17D
:100A0800032C30D9FF220A401502AD182A04AD186C
:100A18000F2C34D92700103F3F093E01B4461E0071
:100A28001A0010366644156055609560D56010321E
:100A38009642F8D101373F01DB190F270C222740D6
:100A480022403C00002A0ED03E1FB608B400A4463F
:100A58001A001C1D644420C2A242FCD103240136A2
:100A6800B6009B193C40002C05D0C9B21C1919705E
:100A780001339C42FBD1F0BD03001400C0E72700FE
:100A8800E2E7C04630B5032A1AD90B0003439B0797
:100A980011D0551E002303E05A1C9D4213D01300A9
:100AA800C25CCC5CA242F7D0101B0DE0043A0430C3
:100AB8000431032A04D904680B689C42F6D0E8E79D
:100AC800551E002AE6D1002030BDC04610B50300EF
:100AD8004418002903D109E001339C4204D01A7854
:100AE800002AF9D1181A10BD201AFCE70020FAE7ED
:100AF80008B410B504009DB0002A32DB8223684692
:100B08009B008382002302911B930691002A13D035
:100B1800013A013BC382049220AB079220001F9A3E
:100B280002A9019300F0BAF9431C01DA8B23236070
:100B38000022029B1A700FE001235B42C3820492D9
:100B480020AB079220001F9A02A9019300F0A6F992
:100B5800431C01DA8B2323601DB010BC08BC01B014
:100B680018478B23036001204042F5E70CB410B509
:100B78001E4B9CB01C68002933DB82236A469B000D
:100B88009382002302901B930690002913D0013909
:100B9800013BD38204911FAB079120001E9A02A942
:100BA800019300F07BF9431C01DA8B2323600022B8
:100BB800029B1A7010E001236A465B42D3820491BB
:100BC8001FAB079120001E9A02A9019300F066F955
:100BD800431C01DA8B2323601CB010BC08BC02B094
:100BE80018478B23012023604042F5E700000020CE
:100BF8000323CAB2F0B50340002A35D00324002BE2
:100C08002DD1FF230B401D02ED182B04ED182C00ED
:100C18000168264E4C408B198B43A119A143244EE1
:100C28000B43334211D14168204F0C00CB196C4063
:100C38008B43E119A1430B4304303342F3D00378CB
:100C4800002B05D09A4204D001300378002BF9D14B
:100C58000020F0BD9342FCD001302042D1D003786F
:100C6800002BF7D10020F4E7002B08D0032202E084
:100C78000130104203D00378002BF9D1E9E702686C
:100C88000A4B0B49D31893430B4206D14268074BD2
:100C98000430D31893430B42F8D00378002BD8D0F4
:100CA80043780130002BFBD1D3E7C046FFFEFEFEA0
:100CB80080808080F0B546464F46D646C0B58E68DF
:100CC80080460C0091461D0008689E4239D80C22C7
:100CD8008B5E9022D200134210D135002A0049467B
:100CE800FFF700FB0020A3689B1BA36023685B1928
:100CF8002360E0BCBA46B146A846F0BD0969421A6D
:100D08009246606942001218D70FBF18681C7F10FE
:100D180050443A00B84201D9070002005B0512D5D9
:100D28001100404600F03CFA061E1FD052462169C9
:100D380000F02EFDA389124A134080221343A38199
:100D480006E01E00CAE7404600F00EFB061E09D06A
:100D58003000534650446761FF1A266120602E0018
:100D6800A760BBE74046216900F0A2FA0C2342467F
:100D7800136040220120A38940421343A381B8E7AE
:100D88007FFBFFFFF0B545465746DE464E46E0B5C9
:100D9800136883B0984693680D0092460190002B23
:100DA8006FD0002300249B460A688B6849E00C2119
:100DB8006B5E9021C9000B422BD068692969561ACD
:100DC80042001218D00F8218701C52100019914658
:100DD800904201D9814602008020C00003423AD0E7
:100DE8001100019800F0DCF9071E3DD03200296996
:100DF80000F0CEFCAB89284A134080221343AB8114
:100E08004B46B8199E1B2F61AE602700260028604C
:100E18006B6132005946FFF765FA51465046AB6898
:100E28002A688968DB1B9219091BAB602A608160FC
:100E380027D0414609688B4641464C6808218C46B4
:100E4800E0441F001000002CF3D01E009C42AED2DC
:100E580027002600DDE7019800F086FA071ECFD1AB
:100E68002969019800F024FA0C23019A01201360E3
:100E78004022AB8940421343AB8152460023936022
:100E880000E0002000235246536003B0F0BCBB468C
:100E9800B246A946A046F0BD7FFBFFFFF0B5DE468F
:100EA80057464E464546E0B51C008B898246894622
:100EB80093469DB01B0603D50B69002B00D1F5E0C6
:100EC800002304AD6B6120336B761033AB765B4641
:100ED8001B787F4F0394002B78D05C4604E063783E
:100EE8000134002B00D17EE0252BF8D15B46E61AB1
:100EF8005C4500D07BE02378002B67D001230022DB
:100F08005B42049205930022002306920793002374
:100F18004332AB54AB6501339B46013406E05A4675
:100F2800C01B82401C0029680A432A600522380039
:100F3800217800F0D7F8631C1E000028EFD12A683A
:100F4800D10602D5432120306854110702D5432128
:100F58002B20685421782A2955D1039B191D1B6819
:100F68000391002B00DA7CE0EB6061782E2960D0D9
:100F7800584C0322200000F0B5F8002806D0402382
:100F8800001B83402A68013613432B603178731C99
:100F9800062251489B46297600F0A4F8002866D01E
:100FA8004E4B002B56D003AA009229004A465046C1
:100FB8004B4BAFF3008080464346013306D06B6944
:100FC80043446B615B461B78002B86D14B469B895B
:100FD8005B0600D579E068691DB0F0BCBB46B24637
:100FE800A946A046F0BD5B46E61A5C45EED0330044
:100FF8005A4649465046FFF75DFE0130E6D06B6918
:101008009B196B6177E70800303826000928ADD8AE
:10101800EA68140000E00133A2001219197852009E
:101028001418080030380928F5D91E00EC602E295C
:101038009ED171782A2924D1039BB01C1A1D1B68E4
:1010480003926B60002B02DA01235B426B60B1787C
:1010580006008DE70722039B073393430833039366
:10106800ADE75B42EB6002231A432A607DE703AADF
:10107800009229004A465046194B00F055FA80461E
:101088009AE708000023303801366B60092800D938
:101098006EE71A0093009B1871785B001A18080015
:1010A800303801360928F5D96A6061E7402100F037
:1010B80077F84B4618601861002803D040234A4649
:1010C8005361FDE60C23524613600120404283E73A
:1010D800446900084C6900085069000800000000D5
:1010E800BD0C000870B5CCB283070DD0531E002A82
:1010F8000FD0032504E00130284206D0013B08D375
:101108000278A242F7D170BD1300032B03D8002B3D
:1011180014D10020F7E7FF220A401502AD182A046F
:101128000B4EAD1803E0043B0430032BEFD90268E3
:1011380008496A40511891433142F4D0C31802E07B
:1011480001309842E5D00278A242F9D1DBE7C046E7
:1011580080808080FFFEFEFE70B5104E050033686B
:101168000C00002B15D02100280000F057FB431C71
:101178000CD00323C41C9C43A04205D0211A28008C
:1011880000F04CFB013001D0200070BD0124644206
:10119800FAE7002100F042FB3060E4E7AC010020F0
:1011A800F8B50323CE464746CD1C9D4308350600B7
:1011B80080B50C2D1ED20C25A9421DD8300000F098
:1011C800E3FA3A4F7A68002A1AD0140004E06368F8
:1011D8002200002B14D01C0023685B1BF7D40B2BB8
:1011E80027D96119256094425BD051600B60636810
:1011F8004B600DE0002DDFDA0C230020336014E093
:1012080029003000FFF7A8FF0400431C19D005602F
:10121800300000F0BBFA200007220B30231D90435A
:10122800C21A984201D01B1AA350C0BCB946B04696
:10123800F8BD6368944202D05360E9E743467B6097
:10124800E6E77B689846002B24D0444663689846B6
:10125800002BFAD12368002199463000A14400F000
:10126800DDFA814516D123683000ED1A2900FFF711
:1012780073FF01300ED023687A685B1923605368C6
:10128800002B02D1DAE71A005B689C42FBD10023ED
:101298005360BDE70C233000336000F077FA00207C
:1012A800C3E779600B6063684B60B1E7AC0100206D
:1012B80070B50500002915D00C1F2368002B23DB0F
:1012C800280000F061FA274A1368002B05D0A342D2
:1012D8000BD92168601883422CD028006360146001
:1012E80000F054FA70BDA34210D81A005B68002BB6
:1012F800F9D1106811188C4218D02CD3636054604F
:10130800280000F043FAEDE7E418D9E7116850180F
:10131800A04214D01FD8216860188342EED1186803
:101328005B684118216063605460E9E723681B1813
:101338001360E5E718685B6841182160CDE720680D
:101348000918501811608342DAD118685B6841188F
:1013580011605360D4E70C2328002B6000F016FAC4
:10136800C0E7C046B0010020F0B5C64607000E0031
:10137800140000B500292DD0002A27D000F060FA0B
:101388008046844203D835004308A34210D3210085
:101398003800FFF705FF051E0AD0220044450BD888
:1013A8003100280000F0F4F931003800FFF780FF21
:1013B800280080BCB846F0BD31004246280000F045
:1013C800E7F931003800FFF773FFF1E7FFF770FF27
:1013D8000025EDE71100FFF7E3FE0500E8E7C0464A
:1013E800F8B557464E464546DE46E0B51F000A9B0F
:1013F800924698460A698B6806000C009A4200DA01
:101408001A0053461A604323E35C002B02D051466E
:1014180001320A602268910661D553465246062079
:101428001B680233136022681100104208D10020A3
:10143800814619308346E168A344994247DC11008C
:101448004323E35C5A1E934189060AD53020E118EC
:101458004331087045215A1C615CA218433202339B
:1014680011702200390030004332C04701301DD0CE
:10147800534606251B68E1689C462368A2682069D4
:101488002B40042B31D0824239DD00239946121AB1
:10149800914400251A3402E001354D452FDA012325
:1014A800220039003000C0470130F5D10120404208
:1014B800F0BCBB46B246A946A046F8BD01239C46EF
:1014C8005346E5681B68E144ED1A4D4524DD0123C8
:1014D8005A4639003000C0470130EFD1E6E706210F
:1014E80011420ED05A1E9341BBE76346C91ACB433B
:1014F800DB170B4099468242C9DC0029C9DC002071
:10150800D6E7002053468146193083461B68E168B8
:10151800A3449942DBDC92E743232168E35C5A1E2B
:101528009341890692D49CE7F0B54E4699464323E9
:101538009C4657464546DE468C446346E0B587B030
:1015480002930C00097E90460700109A002914D0D7
:101558000B00583BDBB2202B48D888489B00C35867
:101568009F46136821681D1D606915601B680E067B
:1015780002D4490600D5DCE018600023029D2361EF
:101588004B46210000933800434605AAFFF728FF81
:1015980001301ED02A00414638002369C84701306F
:1015A80017D02368E068059E9B071BD5B04219DD5C
:1015B80019239A460025A24404E0E0680135831BFC
:1015C800AB420FDD0123524641463800C84701307F
:1015D800F3D10120404207B0F0BCBB46B246A94651
:1015E800A046F0BDB042F6DA3000F4E72500422309
:1015F80001204235E154432300222061E254BFE731
:1016080013682168181D10600D0602D44D0600D518
:1016180094E01A6816006368002A00DA92E0584AD3
:1016280093460A2203924BE01368206840CB0506D4
:1016380001D440067FD41360514B9B466F2900D1DB
:1016480091E00A23039337E013682500191D116000
:101658001A68422301204235E254CCE71368191D69
:1016680011601D68002128006268FFF73BFD002813
:1016780000D181E0401B6060BDE7202321680B4357
:1016880023604521782060543E498B46116840C943
:10169800180603D4580601D53604360C1160DA074B
:1016A80002D5202213432360002E03D12022236871
:1016B800934323601023039343230022E254636877
:1016C800A360002B18DB042122688A432260002EC5
:1016D80012D1029D002B49D1039B082B1ED0029BDF
:1016E8005B1B23614CE745235821E15424492368B7
:1016F8008B46CBE72368C4E7039B9A46029D3000DC
:10170800514600F02DF95B465B5C013D2B703300C0
:1017180006005345F3D2039B082BE0D12368DB076F
:10172800DDD5626823699A42D9DC3023013D2B70EC
:10173800D5E7188021E73604360C7CE700269E5F43
:10174800320068E743222D20A054A360002B02DB5F
:101758000423994321600A239A46094B76429B4603
:101768000A230393CAE708230393A5E75B462500EA
:101778001B7842352B70AFE760683CE7605E000875
:10178800586900086C6900087047C0467047C04631
:10179800F0B505000F2A31D903273E000D430C0090
:1017A80003002E402F4234D11500103D2D09AC46C0
:1017B8002F013F1865685D60A5689D60E568DD607C
:1017C800256810341D601D001033BD42F2D16546F6
:1017D8000F230C2401352D014919134045191442D2
:1017E8001AD0043B9B0801339B008C59AC5104363A
:1017F8009E42FAD10323AD1989191A40561E002AB0
:1018080006D00023CC5C1A00EC5401339642F9D17F
:10181800F0BD0500561EF4E71A00EFE7002370B587
:10182800064C05000800236000F08EFA431C00D027
:1018380070BD2368002BFBD02B60F9E7B4010020B2
:101848000B1F1B68181F002B00DB70470B58C018B4
:10185800FBE7C046002243088B4274D303098B423E
:101868005FD3030A8B4244D3030B8B4228D3030C68
:101878008B420DD3FF22090212BA030C8B4202D30A
:101888001212090265D0030B8B4219D300E0090A32
:10189800C30B8B4201D3CB03C01A5241830B8B423B
:1018A80001D38B03C01A5241430B8B4201D34B0324
:1018B800C01A5241030B8B4201D30B03C01A524189
:1018C800C30A8B4201D3CB02C01A5241830A8B420E
:1018D80001D38B02C01A5241430A8B4201D34B02F7
:1018E800C01A5241030A8B4201D30B02C01A52415B
:1018F800CDD2C3098B4201D3CB01C01A524183090F
:101908008B4201D38B01C01A524143098B4201D348
:101918004B01C01A524103098B4201D30B01C01A73
:101928005241C3088B4201D3CB00C01A52418308ED
:101938008B4201D38B00C01A524143088B4201D31A
:101948004B00C01A5241411A00D20146524110467A
:101958007047FFE701B5002000F0F0F802BDC0466F
:101968000029F7D076E7704703460B437FD400225F
:1019780043088B4274D303098B425FD3030A8B421B
:1019880044D3030B8B4228D3030C8B420DD3FF2285
:10199800090212BA030C8B4202D31212090265D053
:1019A800030B8B4219D300E0090AC30B8B4201D306
:1019B800CB03C01A5241830B8B4201D38B03C01A4D
:1019C8005241430B8B4201D34B03C01A5241030BC4
:1019D8008B4201D30B03C01A5241C30A8B4201D375
:1019E800CB02C01A5241830A8B4201D38B02C01A20
:1019F8005241430A8B4201D34B02C01A5241030A97
:101A08008B4201D30B02C01A5241CDD2C3098B427B
:101A180001D3CB01C01A524183098B4201D38B01F8
:101A2800C01A524143098B4201D34B01C01A52419B
:101A380003098B4201D30B01C01A5241C3088B42E0
:101A480001D3CB00C01A524183088B4201D38B00CB
:101A5800C01A524143088B4201D34B00C01A52416D
:101A6800411A00D201465241104670475DE0CA0F44
:101A780000D04942031000D34042534000229C4604
:101A880003098B422DD3030A8B4212D3FC2289010E
:101A980012BA030A8B420CD3890192118B4208D3E4
:101AA800890192118B4204D389013AD0921100E046
:101AB8008909C3098B4201D3CB01C01A524183095A
:101AC8008B4201D38B01C01A524143098B4201D387
:101AD8004B01C01A524103098B4201D30B01C01AB2
:101AE8005241C3088B4201D3CB00C01A524183082C
:101AF8008B4201D38B00C01A5241D9D243088B4282
:101B080001D34B00C01A5241411A00D20146634624
:101B180052415B10104601D34042002B00D5494288
:101B2800704763465B1000D3404201B5002000F0C7
:101B380005F802BD0029F8D016E770477047C0467F
:101B48001C2101231B04984201D3000C10391B0AE5
:101B5800984201D3000A08391B09984201D30009A9
:101B6800043902A2105C40187047C0460403020200
:101B7800010101010000000000000000BFF34F8FC9
:101B88000549CA68E023DB001A40044B1343CB60C5
:101B9800BFF34F8FC046FDE700ED00E00400FA05F3
:101BA800F0B5C64600B580460C00170006684D081B
:101BB80008002B001F2105E0400001221A401043B5
:101BC80001395B08002BF7D18840FFF7B9FFFF23E5
:101BD80018404000FC3B83409E431F2205E0640000
:101BE80001232B401C43013A6D08002DF7D120003A
:101BF8009040FFF7A5FFFF2303405B009F403E4353
:101C080043461E6080BCB846F0BDF0B5C64600B578
:101C180080461700466A0D0A4C0A280023001F2137
:101C280005E0400001221A40104301395B08002BEF
:101C3800F7D18840FFF784FFFF2318408000F03B6E
:101C480083409E431F2205E06D00012323401D436E
:101C5800013A6408002CF7D128009040FFF770FF84
:101C6800FF2303409B009F403E4343465E6280BC87
:101C7800B846F0BDF0B5C64600B580460C00170062
:101C880086684D0808002B001F2105E0400001224E
:101C98001A40104301395B08002BF7D18840FFF741
:101CA8004FFFFF2318404000FC3B83409E431F2208
:101CB80005E0640001232B401C43013A6D08002D08
:101CC800F7D120009040FFF73BFFFF2303405B0064
:101CD8009F403E4343469E6080BCB846F0BDF0B589
:101CE800C64600B580460C001700C6684D080800B7
:101CF8002B001F2105E0400001221A401043013942
:101D08005B08002BF7D18840FFF71AFFFF23184024
:101D18004000FC3B83409E431F2205E064000123F2
:101D28002B401C43013A6D08002DF7D1200090404C
:101D3800FFF706FFFF2303405B009F403E434346F7
:101D4800DE6080BCB846F0BD7047000010B50400E6
:101D5800034803F033FA200003F070FA10BDC046C0
:101D68000048004070B504000D00044803F026FA4E
:101D78002900200003F028FA70BDC0460048004042
:101D880070B504000D00044803F018FA290020007B
:101D980003F065FA70BDC0460048004070B582B0D7
:101DA800019115001E00FFF7D1FF1B48FFF7CEFF7A
:101DB800019C210E230AFF22120213401943230219
:101DC800FF221204134019432406214301910B2DCD
:101DD80011D01D2D17D1042101A8FFF7D1FF0F48FD
:101DE800FFF7B4FF06993000FFF7CAFF0C48FFF76A
:101DF800ADFF02B070BD022101A8FFF7C1FF09487D
:101E0800FFF7A4FFEEE7042101A8FFF7B9FF064892
:101E1800FFF79CFFE6E7C046E45E0008E85E0008BE
:101E280028650008EC5E0008F05E0008F0B583B095
:101E380004000D0016001F000748009313000A0055
:101E48002100FFF7ABFF009733002A002100034869
:101E580002F0F2FD03B0F0BDF45E0008006400403B
:101E6800F0B583B004000D0016001F00074800936A
:101E780013000A002100FFF791FF009733002A00A2
:101E88002100034802F0D8FD03B0F0BD045F00084C
:101E98000034004010B507490C000C3C1822200003
:101EA800FEF720FA200018300C220021FEF796FDDC
:101EB80010BDC0462C070020002100E00131064B70
:101EC8004A00521890001B185B68002B01D00229A9
:101ED800F4D90320401A70472007002070B5002568
:101EE80000E001350A4B6C006419A4001B195B68FB
:101EF800002B01D0022DF4D9022D07D8044B6C0019
:101F08006619B600F05098194160826070BDC046ED
:101F18002007002010B5034860220021FEF75EFD6F
:101F280010BDC046C0060020F8B50500002401E039
:101F38000134E4B2072C24D8244A63001B199B00FF
:101F48009B5CDB07F4D563001B199B009B585B085F
:101F5800AB42EDD1660030198000170080180430BC
:101F68000822FEF7BFF933199B006A00D9590125E9
:101F78000D401543DD511E00DB5D01221343F3556F
:101F880022E00024072C1FD8104A63001B199B006D
:101F98009B5CDB0702D50134E4B2F3E76600301935
:101FA80080001700801804300822FEF79BF93219C8
:101FB80092006D00D15901230B402B43D3511600D9
:101FC800D35D01221343F355F8BDC046C006002077
:101FD80010B5040002000E21012003F079FC220054
:101FE8000C21052003F074FC10BD000010B50A0098
:101FF8000F280ED800290DD00A4C636801218140B2
:102008000B436360084C4300185DE418617803F0E3
:102018005FFC10BD034C6368012181408B43636002
:10202800F0E7C046C4020020F06A000810B500249A
:1020380004E000212000FFF7D9FF01340F2CF8D964
:10204800024B00229A60013A1A6110BDC4020020B6
:10205800F0B5C64600B582B0674B1B68002B00D1AF
:10206800C5E0664B1B68644AD2689B1A00D5BEE07F
:10207800634B61229E5C0196002E00D1B7E05B6A3B
:10208800002B01D15E4B1B6AC8225200934205DC2B
:1020980033000020002401256D4217E05948FFF75E
:1020A80055FE564B1B68584A9A185349CA60002A6D
:1020B80004D10A0055498C466344D360FFF7B6FF44
:1020C80095E0644500D20C00013013005A1E002B25
:1020D80017D04B4B91008918CF00DB19663319884C
:1020E8008C468D42EDD9464B9700BF18FF00B84685
:1020F800434468331F88464B9F42E2D80D00019045
:10210800DFE73E4B1B68404A9A183B49CA60002AE1
:1021180004D10A003D498C466344D360364B1A69A2
:10212800964209D9364B91008A18D1005B1868335A
:102138001A88374B9A4239D82B000A33A34251DA0E
:102148002F4B61229A5C019B9A424BD02A4909691C
:102158008A420BD98B4209D00535294A8800411893
:10216800C800121866321288954225DB224A516847
:1021780001229A400A422AD1FFF758FF019801210B
:10218800FFF734FF1C4A019B13611C4B1B68214954
:102198008C46634493602048FFF7D8FD012101A8CD
:1021A800FFF7EEFD1D48FFF7D1FD20E01C48FFF7C3
:1021B800CDFDFFF73BFFBFE7104B1B68154A944660
:1021C80063440D4A93601748FFF7C0FD0FE00B4BBF
:1021D8001B68104A94466344074A93601248FFF705
:1021E800B5FD04E01148FFF7B1FDFFF71FFF02B08E
:1021F80080BCB846F0BDC046C4020020705700201D
:10220800E8020020145F00083075000031750000F6
:10221800AB0D0000A0BB0D00A45F000828650008F6
:10222800485F0008645F0008BC5F0008D05F0008D2
:1022380070B582B004002B4B2A229B5E002B01D084
:10224800002312E02848FFF781FD264B28215A5E1B
:102258005A85F5E7254A5900C91849005218528885
:10226800002A0ED0A2420CD20133032B29D81F49D1
:102278005A00D2185200525A002AEBD0A242F3D880
:10228800E8E71A4A5900CB185B00D2189488FF2C4B
:102298001CD0002C22D00526124B2A229B5E144A01
:1022A800E021144D01930096230089002800FEF7D1
:1022B8005DFC2800FFF74AFD012C11D9A419094B30
:1022C8005C850D48FFF742FD02B070BD0648FFF778
:1022D8003DFD044B28215A5E5A85F2E72600DBE7CC
:1022E8000026EBE7E8020020F45F0008D86A00083F
:1022F8000C600008F053002030600008014B0022F9
:102308001A607047C0010020F0B5C64600B5E04B22
:102318001B68002B04D1DF4A00211160DE4A1160DE
:102328005A1CDB490A60DD49486ADD49C854012A5C
:1023380005D0022A00D15EE280BCB846F0BD0B7819
:10234800312BF9D89B00D74AD3589F46D64B2E221B
:102358009B5C002BF0D0D54B187C0028ECD0FF28D4
:10236800EAD0CC4B00221A6001321A6001321A609E
:10237800CB4A0625557003211960CB498C7B947094
:1023880018268C5F04261E602612D67005261E604D
:10239800147116268C5F1D602512557107251D6066
:1023A800947120254C5F08251D602512D5710925DB
:1023B8001D6014721C254C5F0A251D60251255727C
:1023C8000B251D6094721E254C5F0C251D6025127F
:1023D800D5720D251D6014730C8901351D60250A01
:1023E80055730F251D6094734C8901351D60250AAE
:1023F800D57311251D6014740C8801351D60250ADC
:10240800557413251D6094744C8801351D60250A88
:10241800D57415251D6014750C24095F16241C60DD
:102428000C12547517241C609175A04B5B6A002B25
:1024380001D19E4B1B6A1A12964D18212960984C9F
:10244800E27519222A6023761A232B606076974E4C
:102458002822B35E1B222A601A12A2761C222A6046
:10246800E3762C22B35E1D222A601A1222771E22DE
:102478002A6063772E22B35E1F222A601A12A2777F
:1024880020222A60E377884B588C09312960070A93
:10249800A75402322A6060540231296024201F5C4C
:1024A800A754286003329F5C67542A6003315F5C3D
:1024B800275429602727D85DA0547D4A1068000E4C
:1024C80060541168090CE1551168090A2820215443
:1024D80011682922A154023028601A21595E02325B
:1024E8002A600B1223542C232B60A154714A1168C3
:1024F8002D222A60E154704B19682E232B60A154B9
:1025080002322A60717CE1547369190EA154190CC6
:102518000132A154190A0132A1540132A3540132E3
:102528002A60F369190EA154190C0132A154190A31
:102538000132A1540132A35437232B6002322A609E
:10254800B17CE15402332B605C4F397AA1543A686C
:102558003A212960E25478683039FFF705FA3B23BD
:102568002B603A216054564A126802312960E254BD
:10257800544BDA883D232B60100A60543E202860B3
:10258800E25451490B683F2294462A605A1E9341EF
:102598002354496840232B606246A15402322A60C2
:1025A800BA7AE254F8680A21FFF7DEF942232B6071
:1025B8004122A0541F33F35C36E03C4BA1000919BB
:1025C800C9005B1819007E31097818007F3000783F
:1025D8003038C0B2561C2F4D2E60303909010843DF
:1025E8002F498854901C28601F0064373F788F5506
:1025F800D61C2E601F0065373F780F5418006630D0
:102608000788101D80462860380A8855561D2E6098
:1026180040460F5468331888931D2B60070A8F555E
:1026280007322A60C85423005C1E002B05D0194BC2
:102638001A6813000833FF2BBFD9194B154A1268C3
:102648001A7079E62148FFF781FBFFF735FC01286E
:1026580000D871E61E4807220921FFF73FFC1D48F4
:1026680007220921FFF73AFC66E61B48FFF76EFBD5
:10267800FFF722FC012800D85EE615480722092149
:10268800FFF72CFC154807220921FFF727FC53E622
:10269800C0010020B8010020BC01002000600040FB
:1026A800C40100208069000870060020E8020020AC
:1026B80070570020AC060020A8060020B0060020B5
:1026C800A4060020D8020020C40200204C600008A4
:1026D800406B0008346B000860600008286B000835
:1026E8006E48FFF733FBFFF7E7FB012800D823E626
:1026F8006B4807220921FFF7F1FB6A4807220921E5
:10270800FFF7ECFB18E66848FFF720FBFFF7D4FB60
:10271800012800D810E6624807220921FFF7DEFBEE
:10272800624807220921FFF7D9FB05E66048FFF751
:102738000DFB604B00221A600120FFF749FCFBE506
:102748005D48FFF703FB5B4B01221A60F4E55B4829
:10275800FFF7FCFA574B02221A600020FFF738FCFB
:10276800EAE55748FFF7F2FA564B00221A60564B33
:102778002D329B5C002B01D0013BDBB2534A5374D2
:10278800DAE55348FFF7E2FA4E4B02221A604F4B44
:1027980049325A74D0E54F48FFF7D8FA494B01221D
:1027A8001A60C9E54C48FFF7D1FA4C4B01221A6070
:1027B800C2E54B48FFF7CAFA484A00231360494A62
:1027C800137053809380B7E54748FFF7BFFA434B30
:1027D80000221A60434B01321A70ADE5434B0022C8
:1027E8001A60FFF723FCA7E5404B01221A60404A14
:1027F8001268DA60A0E53F4B1B78173BDAB21C2A57
:1028080000D999E593003C4AD3589F46394B5A78EA
:102818003A4B1A7290E5374B5B78642B00D900234A
:10282800364A136088E5334B5A7893009B185B004F
:10283800324A536080E52F4B5A78304B9A727BE5C9
:102848002C4B5A7893009B185B002C4AD36073E595
:10285800284B5978234B64224A43DA806CE5234C91
:1028680000232360234B58780121FFF7BFFB204B3F
:102878001B68234A9A18A260002A00D05CE51B4A0C
:1028880020498C466344936056E5184B00221A6031
:10289800184B58780021FFF7A9FB4DE57860000830
:1028A800406B00081C6B00088C600008106B000867
:1028B800A4600008A8060020B8600008D4600008DA
:1028C800E8600008AC06002070060020E80200203E
:1028D800086100082861000848610008A406002073
:1028E80060610008D802002078610008C402002056
:1028F80070570020C4010020486A0008B006002074
:1029080040771B0041771B00084B1B68084A126878
:10291800934207D2054A591C1160064AD25C064BFD
:102928009A627047044BAA229A62FAE7BC01002017
:10293800B8010020C401002000600040034A0023C1
:102948001360034A1360034A13607047C0010020F4
:10295800B8010020BC01002010B5244B9B691B075F
:1029680010D5224B9B69FE22120413408822D20301
:1029780093421AD01D4AD36908210B43D361FFF74C
:10298800DDFF10BD194B9B69DB0616D4174B9B69FD
:102998005B0718D4154B9B699B0717D4134B9B698E
:1029A8009B0616D4114B9B69EBE7FFF7A7FC0F4A70
:1029B800D36908210B43D361E3E70C4AD36910219B
:1029C8000B43D361DDE7FFF79FFCDAE7FFF79CFFD6
:1029D800D7E7064BDA6920210A43DA619B69DB07EE
:1029E800CFD4024B01229A61CBE7C0460060004079
:1029F80010B5114BD969802292000A43DA61D9696E
:102A0800802252000A43DA61D9698022D2000A433F
:102A1800DA61D969802252010A43DA61D9698022D0
:102A280092010A43DA61D969802212010A43DA6104
:102A3800FFF784FF10BDC04600600040F0B583B0CA
:102A4800404E336B20273B433363336B3B4001934A
:102A5800019B8025ED013C4C022229002000FFF754
:102A68009FF8042229002000FFF7CFF8022229004E
:102A78002000FFF7FFF863682B43636001222900F9
:102A88002000FFF72CF980252D02022229002000C2
:102A9800FFF786F8042229002000FFF7B6F8022283
:102AA80029002000FFF7E6F863682B4363600122E2
:102AB80029002000FFF713F9336C802252041343D6
:102AC8003364336C13400093009B902172581F4B62
:102AD8001A408023DB03134373501D4900231D4A0A
:102AE8008B54802424068C6001328B540120C860EA
:102AF800194B1A6882431A60184A1A619A68D20AEE
:102B0800D202442632439A609A6815439D601A6837
:102B180002431A601A6808252A431A601A68083599
:102B28002A431A601A683A431A601A680C3D2A4305
:102B38001A601A68023D2A431A608C60C86003B0A4
:102B4800F0BDC0460038024000140240FFFF3FFFBE
:102B580000E100E05F030000006000400501100094
:102B6800F0B5DE4657464E464546E0B58FB0BF4BFA
:102B78001A6A5F6A002F00D11700002100200DE0BB
:102B8800BA4B0A00253252009A180424145F0A002E
:102B9800243252009B189C80001901310829EFDD6E
:102BA800B24C5E23E75238180A21FEF7DDFE060014
:102BB8006123E15C002976D06622A55A0232A45A24
:102BC8000023BC46804601E00133DBB2994222D99A
:102BD8001E00A64A9800C018C0001218663217884E
:102BE800AF420AD2A14A9800C018C0001218683231
:102BF80010889F4A904200D83D009C4AB000801936
:102C0800C000121868321288A242DDD99848824260
:102C1800DAD81400D8E767464646944BE12292007A
:102C28009C52944A9D52944AE021944800942B0067
:102C380089008046FDF79AFF4046FFF787F8904BDA
:102C48001B688A4A526C9B1A00D5F0E08C4B1B68B3
:102C58008C4A94466344854A53644A23D35E994612
:102C6800894B9B7A9846002B20D0874BDB689A4685
:102C7800002B61DD7D4BE1229200985A002803D198
:102C880040229B5C98455AD8002805D06421FEF75D
:102C9800E1FD80B2404555D3744B1B7C632B54D95E
:102CA80000230C9304E000240025C8E700230C93BC
:102CB800754B5B689846002B4BDD01230C936B4BDF
:102CC80060229B5C002B59D0684B602201219954EB
:102CD800C146FA239B00984500DA9946634B1B8846
:102CE8009B460A211800FEF73FFE4844A0306423A3
:102CF8009A4658435946FEF737FE0D9064215846C8
:102D0800FEF7A8FD80B243461B1A9946981B534606
:102D180058435946FEF728FE0B90B14500DCBFE04A
:102D2800524B48229B5E9946092B2EDD0A2118003A
:102D3800FEF71AFE0B902AE000230C93B8E7002355
:102D48000C93B5E700230C93B2E7D14601230C930B
:102D5800AEE70C9B002B0DD1444B2A229B5E002B27
:102D68000AD0012B04D0414B6022002199545EE027
:102D7800C846A4E7C846A2E7C846A0E743484C3A75
:102D88000021FDF72BFE00269EE701230B930B9BEA
:102D98004B440D9A934200DD1300344A48215352A4
:102DA800324B4A229A5E924648229A5E93462A21DC
:102DB8005A5E914618886421FEF74CFD80B209904E
:102DC8004B4608934346079364235A465A43069250
:102DD8000B9A5A4305920D9A534304932A4BDA6887
:102DE80003925B6802935346019300963B00284A7E
:102DF800E021890021488046FDF7B8FE4046FEF7ED
:102E0800A5FF0C9B002B12D1184B61229B5C002B59
:102E18000DD00535A54202DA1E4B9C4260D91E4BE7
:102E28009C466444A4B2F9235B009C4260D90F4BD2
:102E38004A22985E48229D5E184AE0210F4C64237E
:102E48006B430393104B5B680293019000963B0021
:102E580089002000FDF78AFE2000FEF777FF0FB0FB
:102E6800F0BCBB46B246A946A046F0BDE802002029
:102E78006F1700008603000090610008F0530020DF
:102E88007057002088130000B0060020340300208B
:102E9800D4610008790D000053F2FFFFCC620008EE
:102EA800464519DD194B48229B5E9946092B0DDDD5
:102EB8000A2149421800FEF757FD0B900B9B4B4423
:102EC800002B07DD114A4821535269E701235B4271
:102ED8000B93F3E70123F5E70D48FEF737FF5FE7AC
:102EE8000C48FEF733FF094B4A22A02199529EE76E
:102EF8000948FEF72BFF054B4A2200219952023A56
:102F08000131995200211832995490E7E8020020C3
:102F1800B461000870620008A062000870B5684BD0
:102F28001A6A5D6A002D00D11500664B2E229B5C43
:102F3800002B00D170BD6448FEF708FF634C0121E7
:102F48002000FEF71DFF6248FEF700FF601C01210C
:102F5800FEF716FF5F48FEF7F9FE6378022B03D9E8
:102F68005D4B1B68012B41D05C4B1B68012B00D1CA
:102F780083E05B4B1C68002C2AD0514B1A7C514BC8
:102F88002B215B5C9A4202D2564B002119704D4BA3
:102F98002C215B5C9A4202D8524B01221A70514B89
:102FA8001B78002B14D04F4B1E895889704364211D
:102FB800FEF7DAFC0300322D76DD0A3B32003232AE
:102FC800484D6A80642058433100FEF743FCA880CE
:102FD800002CAFD1434C21890B0032336380E38846
:102FE80064205843FEF7C0FCA080A3E7344B1A7C4A
:102FF800344B2A215B5C9A4206D8314B2820195E53
:103008002C201B5E994213DA2E4B9B7B022B01D09E
:10301800072BA9D1344B1B78012BA5D13348FEF7D8
:1030280095FE0120FEF7D4FF264B0022DA739BE7BA
:10303800244B29215B5C9A420FD9224B9B7B052BA1
:1030480015D8032B90D32A48FEF780FE0020FEF700
:10305800BFFF1C4B0022DA7386E72648FEF776FE90
:103068000020FEF7B5FF174B0022DA737CE7093B17
:10307800DBB2012B00D977E7E5E7114B1A7C114B3E
:103088002D215B5C9A4204D80E4B2F2200219954C3
:103098006FE70C4B2B215B5C9A4200D269E7094B26
:1030A8002F222A39995464E7002D87DA0D4B0A221A
:1030B800521BDB88934200DC80E713007EE7C046A2
:1030C800E8020020700600201C6300087E0600202D
:1030D8003063000828650008A8060020AC06002018
:1030E800A4060020D8020020A00600203C630008A7
:1030F8008463000864630008F0B5DE4657464E4610
:103108004546E0B5B5B0EB4E102398461022002195
:103118003000FDF763FCE84D302200212800FDF760
:103128005DFCE64CE222920000212000FDF756FCEF
:10313800E34B0E2200210B931800FDF74FFCE148EA
:1031480024220021FDF74AFCFEF7E4FE482303226F
:10315800E252DD4F3B686364002399464A334A468E
:10316800E2524C342000363B9B4614320021FDF7D6
:1031780035FCD64B01241C60D54B1C60D54B1C601C
:1031880029235A46EA5401333732EA540133233AA1
:10319800EA5401330A3AEA54083B3372013B9A462F
:1031A8007372013BB3721F3AF2600B335946E9540C
:1031B8000233EC54FA23DB000B99CB80C64B1C601E
:1031C800DA604A465A609A60FEF730FFC34EB36829
:1031D800F025AB43B360B368C14A1340B360B3682A
:1031E800C04A1340B360C04802F0B4FBBF4BC04AAA
:1031F8005A60C04A514655544A469A6007321A6086
:10320800336B23433363336B23401C931C9B326B18
:1032180002231A433263326B13401B931B9B326B9E
:1032280004231A433263326B13401A931A9B326B8E
:1032380008231A433263326B13401993199B336B7B
:10324800424613433363336B13401893189B326B16
:1032580020231A433263326B13401793179BE120E4
:10326800000302F01DF8E1256D02280002F0BCF908
:10327800A14B9846180001F0D7FD404601F030FEFA
:103288009620800102F0E0F89C4801F097FF9C48E6
:10329800072101F099FFFA2002F048FB280002F00C
:1032A800D3F8984807220921FEF718FE964B1C70A0
:1032B800FFF7C4FB954B80256D0195492A002BA883
:1032C80002F04EFB934B94492A0024A802F048FBD5
:1032D800924B84229249D2001DA802F041FB9148EA
:1032E800FEF734FD904A08231D219048FEF7B8FDEB
:1032F8003B688F4A92469A443B68904698443D689A
:10330800FA239B009C466544736F23437367734B92
:103318005B6F9B07FBD5874B874A1A60874A1A6001
:1033280000225A60864A9A6002E00023012B05D0E9
:10333800804BDB685B07F8D10123F7E77D4B814AB7
:103348001A6000230C930B930D9300271C001E009A
:1033580000F00EFD7C48FEF7F9FCFEF70FFC7B48F9
:10336800FEF7F4FCFEF70AFC574B1B68704A9246BE
:103378009A44774B8022D2000092994632AA33A908
:10338800744801F0FBFC8346329A339972485B46D5
:1033980000934B46FEF702FD329B002B01D100F053
:1033A800FFFC339A614B9A4201D000F0F9FC684B5C
:1033B8001B78012B01D000F0F3FC434B1A68120E66
:1033C80016A989460A701A68120C4A701A68120AF5
:1033D8008A701B68CB706148FEF7B8FC0421484628
:1033E800FEF7CEFC4D48FEF7B1FC594B9A78324BAC
:1033F8001A74002D05D1344B1D68FA239B009C4696
:103408006544534A5B4632993398FEF729FD00F02C
:10341800C7FC4F4808220021FDF7E0FA284B1B782B
:10342800002B09D026494888494A060A1670507068
:103438008988080A9070D1705A425341444A1371DE
:1034480008231D214648FEF70BFD1F4B1E68AF23BE
:103458009B009C46664400F0A9FC4248FEF776FCB7
:10346800002501E00135EDB2072D15D83E4A6B0065
:103478005B199B009B5CDB07F4D511006B005A19A4
:103488009200505840085A199200521804320823E2
:103498001D21FEF7CBFCE5E7002500F08FFC334843
:1034A800FEF754FCFEF7C2FD00F092FCFEF7D0FDDB
:1034B80000F096FCB006002070060020E80200200C
:1034C800D80200202007002070570020AC060020FA
:1034D800A8060020A4060020C402002000380240EC
:1034E800FFE3FFFFFF1FFFFF0024F40010E000E0F0
:1034F8007F3E000000ED00E020A107000010014021
:10350800606B00084C6B0008A00600208063000870
:10351800503F0020DC630008502F00202865000879
:10352800504F0020E0630008545E00087118000046
:1035380020BF020000300040CCCC000055550000F0
:10354800EE0F0000AAAA0000E86300080064000863
:1035580070530020006400401864000828640008C4
:10356800F4E5061844640008C00600205864000802
:10357800E64D8023DB0000932B0032AA33A9E448F0
:1035880001F0FCFB03000E90329A3399E148009356
:103598002B00FEF703FC00232B74DF4B1B68DF4A6C
:1035A80090469844339BDE4A93420DD8DD4A9342B5
:1035B80000D296E2DC4A94466344062B00D990E296
:1035C8009B00DA4AD3589F46D94A934200D088E2F2
:1035D800CE4B1A78120259780A439346D54A59466F
:1035E800118199780902D8780143894651811D795A
:1035F80015730A215846FEF72DF983B20E930A2156
:103608005846FEF7ADF98BB20F930A214846FEF7EC
:1036180021F983B210930A214846FEF7A1F988B22E
:10362800EB0700D421E3C44BAA0700D41FE3C34A25
:1036380094466A0700D41DE3C14A91462A0700D47C
:103648001BE3C04A9346ED0600D419E3BE4DBF4ABA
:10365800FC2107955D4606954D46059565460495FA
:1036680003930290109B01930F9B00930E9B89007C
:10367800B748FDF77BFA34E2A44B9B465B781B0204
:103688005A46127813431A00B24B99461A805B4681
:10369800DD782D022DB29B781D434B461D815B467C
:1036A8001B794846109303740F92100068436421F5
:1036B800FEF75AF94946119008625946CB791B0220
:1036C8008A79190011438B460A210F98FEF7C2F830
:1036D80081B2129164215846FEF742F9069164219D
:1036E8005846FEF7B7F8059010990491119A03927D
:1036F8000A212800FEF71EFA09B202910A212800C1
:10370800FEF732F900B201900A210F98FEF728F966
:1037180089B20091129B904AFC2189008C48FDF7E0
:1037280025FA4B465B7C002B00D14B33894A127C2F
:103738009A4200DD1A00754B1A7100225A71874BA4
:103748001B68934200DCC1E18548FEF7FFFA834B12
:103758001A686E4B1A7100225A71B7E16B4A557993
:103768002D022DB213791D43D3791B021BB2927916
:1037780013439B46002B00DCC4E00023D9B2754BF1
:1037880038220F919954614B99465B781B021BB202
:103798004A46127813430A2110931800FEF7E4F8FA
:1037A80002B211920A211098FEF7C4F90BB21093D5
:1037B8004B46DB781B021BB24A4692781343994664
:1037C8000A211800FEF7D0F803B212930A214846DE
:1037D800FEF7B0F90BB213930A212800FEF7C4F8DC
:1037E80003B214930A212800FEF7A4F90BB215932B
:1037F8000A215846FEF7B8F803B299460A215846F6
:10380800FEF798F90BB20F99002900D1BCE0554A90
:103818009446554A4E486146079106934B46059390
:10382800159B0493149B0393139B0293129B019380
:10383800109B0093119BFC218900FDF797F9454BDC
:1038480038229B5C002B01D1002D0DDA414A2C2136
:10385800535E9B462D4B594699710912D9712825FB
:10386800555F1D712A125A71002D01D005352DB2F0
:10387800384B1D855A469A851B7C0A2B00D886E052
:10388800FFF76EF9334AE1239B009146D05AFEF7C1
:10389800CFFC40234A46D35C304D6A7A9446A87AD6
:1038A8004A462A21525E9146304AE0218B464946D3
:1038B800069105900493E968039102906868019065
:1038C800614600915946890029488146FDF74EF91D
:1038D8004846FEF73BFA6B68002B0CD11F4B9B7ACE
:1038E800002B5CD01D4AD268002A58D0194A4021C2
:1038F800525C934253D81F48FEF728FA154B4822CA
:103908009B5E59E0002D37DD002337E77053002018
:10391800003400406C6400087057002020BF02008B
:1039280078180000721800008EE7FFFFBC6A0008D4
:10393800E550FF18D8020020B0630008B8630008FB
:10394800C0630008C8630008D06300083C6700082B
:1039580080530020E80200207C640008B0060020A4
:10396800C4640008A4630008D46400082C65000837
:10397800F05300205C650008C24B1B7C092B01D862
:103988000023FBE60123F9E6BF4A944641E7BF4816
:10399800FEF7DCF9BE4B00229A71DA7170E7BD4878
:1039A800FEF7D4F9B74B2A215A5E4821595E131CF9
:1039B8008A4200DA0B1C1BB2B54A137119125171F5
:1039C800B04AD3854023D25CB34B1B7A9A427DD34D
:1039D800B248FEF7BBF9AE4B00221A715A71A94BD7
:1039E800DA85012548329D522800FEF7F1FAAC4BE2
:1039F8001D60FEF71BFB69E0A54A137899465078CD
:103A0800D178090293789B46D5792D0293791D4385
:103A18002D0453791B02127913430F93A14AFC23F7
:103A28009C460F9B1D4302955B46194301910090EC
:103A38004B46614689009C48FDF798F8914B38221F
:103A48009B5C002B42D0924B0022DA709A703DE0CA
:103A58008F4AD3781B02927813439B46894B5A4668
:103A68001A868D4BDB68013340D0894B1879854A1B
:103A780033210F90505459790D0034211095555425
:103A8800D9790902987901438946D1865D782D0252
:103A98002DB21B781D430A212800FDF765FF03B2EC
:103AA80011934A460492109903910F9802905A462E
:103AB80001920A212800FEF73DF809B20091119BF6
:103AC8007A4AFC2189007848FDF750F8704D339800
:103AD8002900FEF729FA329933980E9B2A00FEF73F
:103AE800A5F97148FEF732F9002580E11A235343FE
:103AF800694AD360B9E7664A53781B0212781343C0
:103B08006B4AFC2168488900FDF730F85D4B382284
:103B18009B5C002B03D05E4B00225A701A705C4BE2
:103B280083221A710022DA719A715A7108230E934E
:103B3800CCE7574B1A789446524A42216046505473
:103B48009D780131555419790E9140210E985054A1
:103B580099798B464121584650545A78120212B22C
:103B6800614611430F91DA78120212B215435A795D
:103B7800120212B20E9810438146DB791B021BB267
:103B88005A461A4393460A210F98FDF7EDFE03B2F1
:103B98000E930A215846FDF7CDFF09B206910A2176
:103BA8005846FDF7E1FE00B205900A214846FDF7A8
:103BB800C1FF09B204910A214846FDF7D5FE00B2BB
:103BC80003900A212800FDF7B5FF09B202910A21E6
:103BD8002800FDF7C9FE00B201900A210F98FDF7F1
:103BE800A9FF09B200910E9B324AFC2189002E4898
:103BF800FCF7BCFF75E7264B597809021878DD7881
:103C08002D022DB29A7815435A79120293461A79E1
:103C18000E92DA79120212B29B791A439146014345
:103C28000F910A211000FDF785FF09B204910A21BE
:103C38004846FDF799FE00B203905B460E9A13437F
:103C480002930A212800FDF775FF09B201910A21A4
:103C58002800FDF789FE00B200900F9B164AFC2150
:103C680089001148FCF782FF3BE7074BDCE4064A72
:103C78009446DEE4044A9146E0E4034A9346E2E4CB
:103C8800014DE4E4E8020020806300082065000894
:103C98007053002084650008B0060020BC65000849
:103CA800A80600200066000880530020406600082F
:103CB8008C660008AC660008006700081DA801F0C3
:103CC80089FF002800D0C2E00D9A002A03D0DD4BFE
:103CD8001B689B1A1ED424A801F070FEDA48FEF770
:103CE80035F8DA4801F06AFAD948042101F06CFA8B
:103CF800D84B612200219954D24B1B68FA229200BA
:103D0800944663440D930227CE4B1B68D24A9446CF
:103D180063440B93D14B5B6880214901C91A2BA8D6
:103D280001F030FE022C00D1DFE200D9C3E2002C02
:103D380000D1CDE2012C1BD12BA801F03FFEC848D1
:103D4800FEF704F8C74C20686168FEF719F8C64802
:103D5800FDF7FCFFC54801F031FA2068616801F001
:103D680033FAB84B1B68BC4A944663440C9302244C
:103D7800BF4BC04A1A60B34B1B6852469B1A01D40A
:103D8800FFF7E8FAAF4B1B6842469B1A01D4FFF7CE
:103D9800E6FAB94800F0DAFF002801D0FFF7E4FAA4
:103DA800A84B1B689B1B01D4FFF733FB002D05D0E4
:103DB800A44B1B685B1B01D4FFF74FFBAF4B9B6801
:103DC800002B05D09F4A1268D31A01D4FFF767FB6E
:103DD800002F05D1A94B1B68002B01D0FFF766FB0C
:103DE800A74800F0B3FF002801D0FFF7C1FBA54B9F
:103DF8005B688421C900C91A1DA801F0C3FDA24B44
:103E08005B6880214901C91A24A801F0BBFD002F75
:103E180000D153E77B1EDBB2032B00D97AE724A835
:103E280001F0D8FE002832D10B9A002A00D171E7A0
:103E3800844B1B689B1A00D56CE7864B00225A629C
:103E480061215A5400230B930D93002762E78022C7
:103E58008E4F1DAB9B46D2003900180001F0D0FEF2
:103E680081468B48FDF772FF49463800FDF77AFF17
:103E7800764801F0A3F94946380001F0A5F924A8CD
:103E880001F0CEFF584601F09CFD01273CE7802257
:103E98007E4BD2009B46190024A801F0B1FE814652
:103EA8007C48FDF753FF49465846FDF75BFF032F53
:103EB80000D11CE1042F00D17AE1022F00D0E4E107
:103EC80024A801F0ADFF1690431C14D14B46022BD9
:103ED80008D971496D4B99461800FCF7C1FC81451A
:103EE80000D1EBE024AB9946180001F099FF484651
:103EF80001F067FD98E7574B9B46586024AB9946FD
:103F0800180001F092FF5B46D86016AB9B4604226E
:103F18001900484601F0F0FE04225946484601F0CF
:103F2800EBFE04225946484601F0E6FE04225946B3
:103F3800484601F0E1FE04225946484601F0DCFEFD
:103F480004225946484601F0D7FE042259464846FD
:103F580001F0D2FE04225946484601F0CDFE042263
:103F68005946484601F0C8FE04225946484601F021
:103F7800C3FE04225946484601F0BEFE04225946B3
:103F8800484601F0B9FE04225946484601F0B4FEFD
:103F980004225946484601F0AFFE484601F040FF6A
:103FA800431C08D02B4B5B69834204D0254B1A680D
:103FB800284B9A61586124AB9946042216A9180027
:103FC80001F09AFE484601F02BFF1690431C01D0E1
:103FD800204B987424A801F023FF1690431C01D0AD
:103FE8001C4BD8611B4B9946DB689B464B465B686C
:103FF80064210E931800FDF7B7FC5A465043164942
:10400800FDF7B2FC03004A465062244A1F4849465D
:10401800496902910193594600910E9B8021C9007C
:104028008346FCF7A3FD5846FDF790FE4B46DB6838
:10403800002B35DB002B3DDD064B5B6A002B39DAA4
:1040480032E0C046705700208C6700080014014019
:104058009C670008E8020020102700004064024026
:104068007868000820070020286500080010014033
:1040780000300040AAAA000000640040C4020020EA
:104088000034004028600240286402407053002039
:104098007C670008A46700081C680008B06700086F
:1040A800CF4A526A002AC5DDCE48FDF74FFECC4BF9
:1040B80000225A6224A801F084FCB5E624A801F085
:1040C8007DFCC948FDF742FEC84801F077F8C848AA
:1040D800052101F079F8C24B622200219954C54BA1
:1040E8001B68C54A944663440B9303279CE64B46DA
:1040F8000C2B07D9C149C24B9B461800FCF7B0FBF3
:10410800834513D04B46022B07D9BE49BC4B994671
:104118001800FCF7A5FB814530D024AB9946180060
:1041280001F07EFE484601F04CFC7DE68023DB0072
:1041380099465B4624AA93464A460E931900584668
:1041480001F0DAFD4A460E99584601F0D5FDA44B18
:10415800994662229B5C28215943603149440A31BF
:10416800413A584601F0C8FD4B4662229B5C013338
:1041780049468B54584601F024FC55E624A801F022
:104188001DFCA148FDF7E2FD984801F017F89F488B
:10419800052101F019F8924B6222995C013A995471
:1041A800944B1B68944A944663440B9304273BE65C
:1041B80024A801F035FE431E9B46894B61229B5C77
:1041C8005B4502D95B46132B13D94B46022B07D903
:1041D8008C498B4B99461800FCF742FB81454AD025
:1041E80024AB9946180001F01BFE484601F0E9FB94
:1041F8001AE624AB9946180001F012FE484601F071
:104208000FFE484601F00CFE484601F009FE4846FC
:1042180001F006FE484601F003FE714A282359467C
:104228004B4393469B445B4666331880484601F0EF
:10423800F7FD5B4668331880484601F0F1FD4846B3
:1042480001F0EEFD484601F0EBFD484601F0E8FDBF
:104258005B4664331870484601F0E2FD484601F0B9
:10426800DFFD484601F0DCFD5B46653318704846C3
:1042780001F0A7FBD8E524A801F0A0FB6448FDF7EE
:1042880065FD00230B931F0044E524A801F0C8FD39
:104298004B46022B07D95B49594B99461800FCF746
:1042A800DFFA814503D024A801F08BFBBCE500238D
:1042B8000D931F00F7E7E31EDBB2012B00D957E58A
:1042C8004C4B1B680C9A9B1A00D5F0E100244FE573
:1042D800FDF7F2FD032801D0012449E54D484E4A77
:1042E8000721FDF7FBFD012442E52BA801F039FC6D
:1042F8004A4B9A6890422DD2FDF7DEFD032800D183
:1043080036E53C4B1B680C9A9B1A00D530E54448AF
:10431800FDF71CFD374B1B68FA2292009446634454
:104328000C932BA801F03DFBFDF7B4FD962080010E
:1043380001F08AF83B4800F041FF3B48072100F0B4
:1043480043FFFA2001F0F2FAE120400201F07CF884
:1043580003240DE52A492BA801F00DFC16902F4BDC
:104368009B6898421DD33148FDF7F0FC2B4B9968A8
:10437800234C2000FDF704FD2D48FDF7E7FC2378CA
:10438800AA2B03D11E4B5B78552B55D0194B1B68B4
:10439800FA229200944663440C93FDF77BFD0324B4
:1043A800E6E42448FDF7D2FC16AC04212000FDF712
:1043B800E7FC2BA801F0D5FB169004212000FDF79F
:1043C800DFFC1B48FDF7C2FC2BA801F0EAFA094BF9
:1043D8001B68F533FF330C93FDF75CFD0424C7E439
:1043E800E8020020F0670008206800080014014077
:1043F8003468000870570020102700003C68000847
:10440800705300201C6800084C68000860680008A9
:1044180068680008586B00085F0200002007002049
:104428002469000800100140606B000898680008C3
:104438002865000884680008A14B9B785F2BA5D1EC
:104448009F4BDB78812BA1D19D4B1B79902B9DD164
:104458009C4A623B0021D154994B997A090209B2CE
:10446800587A0143D182997B0902587B01430C9108
:104478001180197C0902D87B01430E915180997CE7
:104488000902587C01430F919180197D0902D87C5B
:1044980001438B46D180997D0902587D01431091D3
:1044A8001181197E0902D87D014311915181597EEC
:1044B800937B994202D013000022DA73814B9973DF
:1044C800DB7BFF2B02D07F4A0133D3737C4C262140
:1044D800635C1B021BB20139615C0B43794881465E
:1044E80083812820235C1B021BB22721625C1343B3
:1044F8004A4693822A23E35C1B022922A25C1343C7
:104508004A4653823823E35C1B023722A25C1343DA
:104518004A4653833E23E35C1B023D22A25C1343BD
:104528004A4613844023E35C1B023F22A25C1343E8
:104538004A46D3834223E35C1B024122A25C134315
:104548004A4693834623E35C1B021BB24522A25CC6
:1045580013434A461383CB23E35C1354CC23E35C15
:104568005354CD23E35C01395354CE23E35C013922
:104578005354CF23E25CAB3B4946CA54AC33E35CAB
:10458800FA22D200944663444B840A215846FDF728
:10459800E7F989B208910A215846FDF75BF980B21C
:1045A80007900A210E9B9B461800FDF7D9F989B29E
:1045B80006910A215846FDF74DF980B20590119BE6
:1045C80004930A210F9B9B461800FDF7C9F989B28D
:1045D80003910A215846FDF73DF980B202900A215D
:1045E8000C9B9B461800FDF7BBF989B201910A2183
:1045F8005846FDF72FF980B20090109B324A80216F
:10460800C9002000FCF7B2FA2000FDF79FFB4B46DB
:1046180016229A5E93464A461823D15E2023D05E1E
:104628001A23D25E9446294A634602930190009168
:104638005B468021C9002000FCF798FA2000FDF7AE
:1046480085FB4B461A88224B9A4204D81D4B5B883F
:104658001F498B4203D91F48FDF778FBB4E6194977
:104668001620095E002917D1002A15D1002B13D175
:10467800144B0C229B5E002B0ED1124B1E229B5E0C
:10468800002B09D10F4B1A229B5E002B04D10D4B36
:1046980018229B5E002B06D00A4B2E22012199542A
:1046A800FEF73CFC72E60C48FDF750FB8CE6FDF784
:1046B80003FC032801D1FFF75BFB0024FFF758FB3D
:1046C8007053002070060020A4680008D86800080D
:1046D800701700000C69000818690008DFF834D06A
:1046E8000D480E490E4A002302E0D458C450043342
:1046F800C4188C42F9D30B4A0B4C002301E0136019
:104708000432A242FBD301F00FF9FBF743FE01F09C
:1047180007F970470000082000000020540000201E
:10472800706B00085400002074570020F0B5C6468E
:1047380000B582B006001D00089CC3689B070CD119
:1047480003690327380018401F4201D0012705E0FC
:10475800002A4ED0002313604BE00027002A11D016
:104768003B001B331B019B595B072FD51D20106095
:10477800002907D03B001B331B019B592022121A2A
:10478800D3400B603B001B331B01F3185A680F23FF
:104798001340A34206D83B001B331B01F3185B6888
:1047A8000F241C40002D28D0082200216846FCF761
:1047B80015F93B01F3181A00B932FF32126800925A
:1047C800BD33FF331B68019300220BE00B20CEE7BB
:1047D80093089B0069465B5803211140C900CB40F0
:1047E800AB540132A242F3D32000002F07D0012F8F
:1047F8000AD002B080BCB846F0BD0020F5E7F368E7
:1048080020221343F360F4E7336920221343336112
:10481800EFE7F0B5C64600B580460C0017000668FD
:104828004D0808002B001F2105E0400001221A4016
:10483800104301395B08002BF7D18840FDF780F958
:10484800FF2318404000FC3B83409E431F2205E0A5
:10485800640001232B401C43013A6D08002DF7D159
:1048680020009040FDF76CF9FF2303405B009F4058
:104878003E4343461E6080BCB846F0BDF0B5C64610
:1048880000B580461700466A0D0A4C0A2800230026
:104898001F2105E0400001221A40104301395B083E
:1048A800002BF7D18840FDF74BF9FF231840800013
:1048B800F03B83409E431F2205E06D000123234007
:1048C8001D43013A6408002CF7D128009040FDF7F9
:1048D80037F9FF2303409B009F403E4343465E62F7
:1048E80080BCB846F0BDF0B5C64600B580460C00A1
:1048F800170086684D0808002B001F2105E04000BE
:1049080001221A40104301395B08002BF7D1884077
:10491800FDF716F9FF2318404000FC3B83409E43F7
:104928001F2205E0640001232B401C43013A6D0857
:10493800002DF7D120009040FDF702F9FF23034036
:104948005B009F403E4343469E6080BCB846F0BD36
:10495800F0B5C64600B580460C001700C6684D087D
:1049680008002B001F2105E0400001221A401043D7
:1049780001395B08002BF7D18840FDF7E1F8FF23E8
:1049880018404000FC3B83409E431F2205E0640022
:1049980001232B401C43013A6D08002DF7D120005C
:1049A8009040FDF7CDF8FF2303405B009F403E4356
:1049B8004346DE6080BCB846F0BDF0B5C64600B5DB
:1049C80080460C001700066A4D0808002B001F21BE
:1049D80005E0400001221A40104301395B08002B12
:1049E800F7D18840FDF7ACF8FF2318408000F03B72
:1049F80083409E431F2205E0640001232B401C4393
:104A0800013A6D08002DF7D120009040FDF798F885
:104A1800FF2303409B009F403E4343461E6280BCE9
:104A2800B846F0BD034B984201D0002070470120E2
:104A3800FCE7C04600340040F0B5C64600B584B077
:104A4800060001911F00032100E01900B068E0236F
:104A58005B0518421BD1B369FF20184212D0B36816
:104A680039481843B060B468374D2C40AC42FAD08E
:104A78004B1EDBB20029E8D10520404204B080BCBF
:104A8800B846F0BDB068E0235B05184253D0B36860
:104A98001B0E03241C40A046032C4FD00B2A04D025
:104AA8001D2A18D003204042E8E7019B590523003E
:104AB80018331B0199510A9B082B42D843461833D7
:104AC8001B01F3180A9A5A600822002102A8FBF772
:104AD80085FF002317E0019BD90004231943230015
:104AE80018331B019951E6E7990802AD8900485926
:104AF800FA5C944603221A40D2006446944022008D
:104B080002434A5101330A9A9342EDD3029943462C
:104B18001B01F3181A008932FF321160039A8D3392
:104B2800FF331A60444618342401A3590122134361
:104B3800A3510A98A2E7012040429FE70220404281
:104B48009CE70420404299E78080800010B5034824
:104B5800034A0021FBF742FF10BDC046440700206E
:104B680008280000F0B5D6464F464646C0B50400B2
:104B78000D001600FFF7EAFF2300C82202E000221A
:104B880004C30A00511E002AF9D1236801321343D5
:104B980023606368DB07FCD5374B9D4204D0374B55
:104BA8009D4201D0364BE3612368202213432360E2
:104BB800002E5CD02368103A9343236023680822B0
:104BC8001343236080239B009946E25801231A432C
:104BD8004946625087229200A1589943A1508121E9
:104BE80089008C4661589943604621508327BF004D
:104BF800E1599943E1518526B600A1599943A1513C
:104C080000218A4690218900504660500431605046
:104C1800A1581943A150A15888460221404688430B
:104C2800A050604620588843804660464546255037
:104C3800E0590843E051A7598F43A75134365046ED
:104C4800A0510436A051A5582943A15062691221E8
:104C58000A4362614A46A2589A434946625022680A
:104C68009A432260E0BCBA46B146A846F0BD236824
:104C7800102213432360A1E7A086010040420F00E1
:104C880001001C00F0B5CE46474680B583B081468A
:104C9800FFF7C8FE04001C4A83001B181B021B18E0
:104CA8009B009F58FF2F27D8174E85002D182D02DF
:104CB8002B189B007A1C9A51BB009846D919890079
:104CC8002B189B00C9180B0008339B19043389194A
:104CD8000A0008320431082000904846FFF726FDF4
:104CE8004744BF002D19AD007F19F719786103B04B
:104CF800C0BCB946B046F0BD002300930022002195
:104D08004846FFF713FDF2E74407002010B50248B4
:104D1800FFF7B8FF10BDC0460064004010B5024858
:104D2800FFF7B0FF10BDC0460064004010B5024850
:104D3800FFF7A8FF10BDC0460034004010B5024878
:104D4800FFF7A0FF10BDC0460034004010B5FFF7C4
:104D580069FE0200084983001B181B021B189B00F0
:104D68005858002806D093009B181B029B189B00DC
:104D7800C918486910BDC04644070020F0B583B083
:104D88000D0017000193FFF74DFE0600254B840028
:104D9800241824022418A400E358002B01D0012869
:104DA80005D900233B600027380003B0F0BD1D4A39
:104DB80083001B181B021B189B00D21853682B601A
:104DC80093683B605769089B9F4200D91F00B40055
:104DD800A4192402A11989000831124D4919043176
:104DE8003A000198FBF77EFA72B6A3199B005B594B
:104DF800013BA419A4006351FF2B01D962B6D3E784
:104E0800B200921912022000064C001904309119C0
:104E180089001431091904319A00D2189200FBF75D
:104E280061FAEBE74407002030B583B00100264B58
:104E38001A6C8020800402431A641B6C034001939F
:104E4800019B00222148FFF78DFE80256D00204C34
:104E5800022229002000FFF7DCFC0922290020009B
:104E6800FFF70CFD022229002000FFF73CFD6368D4
:104E7800184A13406360002229002000FFF768FDEC
:104E88000135FF35022229002000FFF7C2FC092264
:104E980029002000FFF7F2FC022229002000FFF77A
:104EA80022FD63680C4A1340636000222900200039
:104EB800FFF74EFD094B802252031A6080229203AD
:104EC8001A6003B030BDC04600380240006400409C
:104ED80000040240FFFEFFFFFFFDFFFF00E100E0CE
:104EE80010B582B00100244B1A6C80208001024367
:104EF8001A641B6C03400193019B00221F48FFF7B3
:104F080031FE1F4C022208212000FFF782FC0B22F1
:104F180008212000FFF751FD022208212000FFF799
:104F2800E2FC6368082293436360002208212000A2
:104F3800FFF70EFD022210212000FFF76AFC0B226A
:104F480010212000FFF739FD022210212000FFF771
:104F5800CAFC63681022934363600022102120007A
:104F6800FFF7F6FC074B80229200DA608022D2001D
:104F7800DA6002B010BDC04600380240003400407C
:104F88000004024000E100E010B50248FCF7DEFE34
:104F980000BEFEE734690008024A13680133136053
:104FA8007047C04670570020F0B5C64600B5804629
:104FB8000C00170006684D0808002B001F2105E0AB
:104FC800400001221A40104301395B08002BF7D139
:104FD8008840FCF7B5FDFF2318404000FC3B8340A8
:104FE8009E431F2205E0640001232B401C43013A25
:104FF8006D08002DF7D120009040FCF7A1FDFF239C
:1050080003405B009F403E4343461E6080BCB84659
:10501800F0BDF0B5C64600B580461700466A0D0AD1
:105028004C0A280023001F2105E0400001221A40F5
:10503800104301395B08002BF7D18840FCF780FD4D
:10504800FF2318408000F03B83409E431F2205E069
:105058006D00012323401D43013A6408002CF7D159
:1050680028009040FCF76CFDFF2303409B009F4005
:105078003E4343465E6280BCB846F0BDF0B5C646C6
:1050880000B580460C00170086684D0808002B0004
:105098001F2105E0400001221A40104301395B0836
:1050A800002BF7D18840FCF74BFDFF231840400048
:1050B800FC3B83409E431F2205E0640001232B40F4
:1050C8001C43013A6D08002DF7D120009040FCF7F1
:1050D80037FDFF2303405B009F403E4343469E60ED
:1050E80080BCB846F0BDF0B5C64600B580460C0099
:1050F8001700C6684D0808002B001F2105E0400076
:1051080001221A40104301395B08002BF7D188406F
:10511800FCF716FDFF2318404000FC3B83409E43EC
:105128001F2205E0640001232B401C43013A6D084F
:10513800002DF7D120009040FCF702FDFF2303402B
:105148005B009F403E434346DE6080BCB846F0BDEE
:10515800F0B5C64600B580460C001700066A4D0833
:1051680008002B001F2105E0400001221A401043CF
:1051780001395B08002BF7D18840FCF7E1FCFF23DD
:1051880018408000F03B83409E431F2205E06400E6
:1051980001232B401C43013A6D08002DF7D1200054
:1051A8009040FCF7CDFCFF2303409B009F403E430B
:1051B80043461E6280BCB846F0BD0000014B186033
:1051C8007047C0464C2F002030B5184B1A68FA2398
:1051D8009B009C466244164B1B68DB0708D5144BA2
:1051E8005B681B0404D0114B1B689B1AF3D430BDB9
:1051F800104A93688024A34393600C4B1D68FA23DC
:105208009B009C4665444C1E0029F0D00A4B1A6846
:10521800D3691B0604D50378936201302100F2E7B5
:10522800024B1B685B1BF1D4E1E7C04670570020B6
:1052380058600240004800404C2F002010B5040080
:10524800FBF722F801002000FFF7BEFF10BD092878
:1052580002D83030C0B270475730C0B2FBE770B5E3
:1052680082B0050001AB00225A7013E028780009CB
:10527800FFF7EDFF01AC20702000FFF7DFFF2B7870
:105288000F201840FFF7E3FF20702000FFF7D6FF3C
:10529800013531004E1E0029E8D102B070BD000072
:1052A800F0B583B00500584B1A6B802189030A4377
:1052B8001A631A6B0A400192019A1A6C8021C9027A
:1052C8000A431A641B6C0B400093009B4F4B1968F0
:1052D8004F4A11404F4A0A431A604F4A1968C0237F
:1052E8000B40402B00D18AE0484B4C499960DA606A
:1052F800464B5A68120C12048421C9000A435A60AA
:105308001A68474C2240802109050A431A601A6826
:10531800012632431A60434B18683D4A1040424AFE
:1053280002431A601A6822401143196080277F00DF
:105338003E4C022239002000FFF736FE07223900D2
:105348002000FFF766FE022239002000FFF796FED4
:105358006368374A134063600332FF323900200024
:10536800FFF7C1FE0137FF37022239002000FFF79F
:105378001BFE072239002000FFF74BFE02223900EE
:105388002000FFF77BFE63682A4A1340636001220E
:1053980039002000FFF7A7FE1B4990228B583020C8
:1053A80083438B50244C2368843A13432360236837
:1053B800224A134023606368214A13406360214BEB
:1053C80018686B08C0182900FCF744FA0004000CA0
:1053D800E060236833432360174BDB699B02FBD5EE
:1053E800154BDB695B02F7D5134B9A6840210A43DA
:1053F8009A609A6840318A439A6003B0F0BD034BC3
:105408000649D9609A6073E7003802402860024074
:105418001F80FCFF00050200504F00202448004078
:10542800FFFFFFE15860024040040200000C024008
:10543800FFFEFFFFFFFDFFFF00480040FFE9FFEF11
:10544800FFCFFFFF50000020F0B585B00600594B94
:105458001A6B8021C9030A431A631A6B0A40039224
:10546800039A596C1022114359645B6C1A400292DA
:10547800029B514A136801210B4313604F4B1A6872
:105488008A431A6019684E4A11404E4A0A431A6004
:105498004D4A1968C0230B40402B00D184E0474B8C
:1054A8004A499960DA60454B5A68120C1204802107
:1054B80049010A435A601968454A11408022120579
:1054C8000A431A601A6801252A431A60414C0222CD
:1054D80040212000FFF768FD072240212000FFF748
:1054E80037FE022240212000FFF7C8FD63684022F2
:1054F800934363603F3A40212000FFF7F4FD802783
:105508003F02022239002000FFF74EFD0422390035
:105518002000FFF77EFD022239002000FFF7AEFDD4
:1055280063682D4A13406360012239002000FFF7A9
:10553800DAFD204B596C102211435964596C0A400A
:105548000192019A90215A58032082435A501A4CCA
:1055580023680C22134323602368204A13402360E6
:1055680063681F4A134063601E4B18687308C018AD
:105578003100FCF76FF90004000CE06023682B434E
:1055880023600D4BDB699B02FBD50B4BDB695B0290
:10559800F7D5094B9A6840210A439A609A684031C6
:1055A8008A439A6005B0F0BD044B0849D9609A60F7
:1055B80079E7C046003802400010014040640240CC
:1055C8001F80FCFF00050200503F0020241001400E
:1055D800FFFFFFE100040240FF7FFFFFFFE9FFEF4D
:1055E800FFCFFFFF5000002070B584B006005B4B72
:1055F8001A6B8021C9030A431A631A6B0A40039283
:10560800039A596C2022114359645B6C1A40029228
:10561800029B534B1A6801218A431A601968514A40
:105628001140514A0A431A60504A1968C0230B4076
:10563800402B00D18CE04A4B4D499960DA60484BC9
:105648005A68120C1204802149010A435A601968E9
:10565800484A1140A02212050A431A601A68012517
:105668002A431A60444C022240212000FFF79CFC88
:10567800082240212000FFF76BFD02224021200074
:10568800FFF7FCFC63684022934363603E3A402185
:105698002000FFF728FD022280212000FFF784FC6C
:1056A800082280212000FFF753FD022280212000DC
:1056B800FFF7E4FC63688022934363607E3A8021AD
:1056C8002000FFF710FD254B596C20221143596427
:1056D800596C0A400192019A90215A582748024071
:1056E8005A50274C23680C22134323606268802396
:1056F8005B0213436360626880239B021343636009
:105708002368204A1340236063681F4A134063607C
:105718001E4B18687308C0183100FCF79BF800048A
:10572800000CE06023682B432360154BDB699B0268
:10573800FBD5134BDB695B02F7D5114B9A68402107
:105748000A439A609A6840318A439A6004B070BDEF
:10575800034B0749D9609A6071E7C0460038024098
:10576800286402401F80FCFF00050200502F002023
:1057780024140140FFFFFFE100080240FFF3FFFF90
:1057880000140140FFE9FFEFFFCFFFFF50000020AA
:10579800F0B5C64600B580460C00170006684D08EF
:1057A80008002B001F2105E0400001221A40104389
:1057B80001395B08002BF7D18840FCF7C1F9FF23BA
:1057C80018404000FC3B83409E431F2205E06400D4
:1057D80001232B401C43013A6D08002DF7D120000E
:1057E8009040FCF7ADF9FF2303405B009F403E4328
:1057F80043461E6080BCB846F0BDF0B5C64600B54D
:1058080080460C00170086684D0808002B001F21F1
:1058180005E0400001221A40104301395B08002BC3
:10582800F7D18840FCF78CF9FF2318404000FC3B77
:1058380083409E431F2205E0640001232B401C4344
:10584800013A6D08002DF7D120009040FCF778F957
:10585800FF2303405B009F403E4343469E6080BC5D
:10586800B846F0BDF0B5C64600B580460C00170036
:10587800C6684D0808002B001F2105E040000122E2
:105888001A40104301395B08002BF7D18840FCF718
:1058980057F9FF2318404000FC3B83409E431F22DA
:1058A80005E0640001232B401C43013A6D08002DDC
:1058B800F7D120009040FCF743F9FF2303405B0039
:1058C8009F403E434346DE6080BCB846F0BD0000C2
:1058D80070B516000E4B9C466044840201258D402D
:1058E800012229002000FFF753FF0222290020008F
:1058F800FFF783FF002229002000FFF7B3FF002EE7
:1059080003D000239D40A56170BD1023FAE7C0466F
:1059180080001000014B18687047C046705700207F
:1059280010B5FDF7E9FBFCE77047000082B0084BB3
:105938001B680193019B431C00D00130002805D04F
:10594800034B1B68DB03F9D50138F7E702B0704752
:1059580010E000E0014B18607047C046500000207E
:10596800F8B504000E0015001F001C220021FBF7EB
:1059780035F82A0000213000FBF730F866606561D1
:10598800A760F8BD70B50400080025696169FBF7D8
:10599800E7FF2161A94200D170BDFFF7BBFF20607E
:1059A800FAE710B50400406862690021FBF716F8B1
:1059B80000232360E3602361A36110BD0369C36012
:1059C800704770B50400C068A669F3070ED425694E
:1059D800854223D063681B5C0A2B17D001306169AC
:1059E800FBF7BEFF08008D42F4D117E0236983421C
:1059F80014D063681B5C0A2B10D1093B3343A361A5
:105A080001306169FBF7ACFFE16007E0093B1E4329
:105A1800A66101306169FBF7A3FFE16070BDF0B5D5
:105A2800DE4657464E464546E0B585B006008B46ED
:105A380091461F00C0681368C0187169FBF790FF92
:105A48000D00B068FAF720FC01903369AB426ED0C4
:105A580073685B195A46136000230293039711E099
:105A6800013202926B1CE4185B461C6001357369B5
:105A7800AB4242D0F268AA4263D03269AA4263D0EC
:105A8800AB4251D9019B1A00013B002AEED0746841
:105A98006019625DB168CF5CBA42F4D1804673691F
:105AA8009A465819F368C01A4B461B68C01A5146E3
:105AB800FBF756FF029A8B1A0A2F01D0002BCFD082
:105AC8008B461C00039F002F0DD0681C5146FBF726
