:020000040800F2
:1000000000000820614200085D4900085D490008C1
:100010005D4900085D4900085D49000800000000D6
:100020000000000000000000000000005D49000822
:100030005D490008000000005D4900086D490008A6
:100040005D4900085D4900085D4900085D490008F8
:100050005D4900085D4900085D4900085D490008E8
:100060005D4900085D4900085D4900085D490008D8
:100070005D4900085D4900085D4900085D490008C8
:100080005D4900085D4900085D4900085D490008B8
:100090006D4700087D4700085D4900085D4900087C
:1000A0005D4900085D4900085D4900085D49000898
:1000B0005D4900085D4900085D4900085D49000888
:1000C0005D49000835270008B12700085D49000890
:1000D0005D4900085D4900085D4900085D49000868
:1000E0005D4900085D4900085D4900085D49000858
:1000F0005D4900085D4900085D4900085D49000848
:100100005D4900085D4900085D4900085D49000837
:100110005D4900085D4900085D4900085D49000827
:100120005D4900085D4900085D4900085D49000817
:100130005D4900085D4900085D4900085D49000807
:100140005D4900085D4900085D4900085D490008F7
:100150005D4900085D4900085D4900085D490008E7
:100160005D4900085D4900085D4900085D490008D7
:100170005D4900085D4900085D4900080000000075
:100180005D4900085D4900085D4900085D490008B7
:100190005D4900085D4900085D4900085D490008A7
:1001A0005D4900085D4900085D4900085D49000897
:1001B0005D4900085D4900085D49000835270008D1
:1001C000B12700085D490008000000005D490008F3
:1001D0005D4900085D4900085D4900085D49000867
:1001E0005D49000885470008954700085D490008FB
:0801F0005D4900085D490008AB
:1001F8000448054B10B5834203D0044B002B00D0B4
:10020800984710BD54000020540000200000000052
:1002180006480749091A8B10C90FC91810B54910A3
:1002280003D0044B002B00D0984710BD5400002089
:10023800540000200000000010B5074C2378002B64
:1002480009D1FFF7D5FF054B002B02D00448AFF3C7
:1002580000800123237010BD54000020000000001E
:10026800CC560008054B10B5002B03D004490548AF
:10027800AFF30080FFF7CCFF10BDC04600000000C0
:1002880058000020CC56000810B583070AD0030098
:10029800032102E001330B4205D01A78002AF9D174
:1002A800181A10BD030019680C4A0D4C8A188A43A5
:1002B80022420FD15968094A04338A188A432242D4
:1002C80008D15968054A04338A188A432242F1D072
:1002D80000E001331A78002AFBD1E1E7FFFEFEFEB9
:1002E80080808080F0B588420AD98B18984207D25E
:1002F800531E002A03D0CA5CC254013BFBD2F0BD96
:1003080005000F2A0AD8561E002AF8D00023CC5C14
:100318001A00EC5401339642F9D1F0E703273E0066
:100328000D430C0003002E402F422DD11500103D27
:100338002D09AC462F013F1825681D6065685D6072
:10034800A5689D60E5681034DD601D001033BD426E
:10035800F2D165460F230C2401352D0149191340AC
:100368004519144213D0043B9B0801339B008C5958
:10037800AC5104369E42FAD103231A40AD198919AB
:10038800561E002AC2D1BAE70500561EBEE71A005B
:10039800B9E7C04670B50D4B0D4D5E1BB610AB42AC
:1003A80005D0002408CD01349847A642FAD805F0B4
:1003B80089F9084B084D5E1BB610AB4205D00024E6
:1003C80008CD01349847A642FAD870BD2C610008C0
:1003D8002C610008306100082C610008F0B5CE4699
:1003E80047460300944680B5012959D901220120C6
:1003F8009046012500260124404206E0221A904634
:10040800260001257419A1420DD91F181A5D7F5DB8
:10041800BA42F3D336D001250122300001367419CF
:100428009046A142F1D844466246146001229146A2
:10043800023A012500269046012407E04246A21A06
:100448009146260001257419A1420ED94746DF19A5
:100458001A5D7F5DBA42F1D818D001250122B04655
:10046800013674199146A142F0D843460130013350
:10047800834203D36246494618001160C0BCB9469E
:10048800B046F0BD454505D00135BBE74D4504D024
:100498000135D8E776190125B4E776190125D2E7A1
:1004A800012399460023E5E7F0B54546DE46574661
:1004B8004E461400E0B585B003AA80468A4620005F
:1004C80019001D00FFF78AFF039B81460200E1180F
:1004D8002000019300F0D6FA00285ED15346591B3C
:1004E80080231B012B4300930123002700269B46F2
:1004F8000800B0421CD33B004F4500D24B46424651
:1005080091199D4227D98446080002E001339D4293
:1005180020D0E15CC25C9142F8D060469D421AD975
:100528005A464946521A9619F6180027B042E2D29E
:1005380040460099504400F0C9FA82445346581B7B
:10054800B042D8D2002005B0F0BCBB46B246A9469E
:10055800A046F0BD60464B464246013B91194F45C7
:1005680065D28446080003E05A1E9F420ED013004D
:10057800E15CC25C9142F7D06046013301379F428B
:1005880008D8019B9C46EF1A6644B2E701376046DB
:100598009F42F6D930004044D5E74B46EB1A4B450D
:1005A80000D24B460133009303935346591B8023D3
:1005B8001B012B4300269B4601270800B04218D395
:1005C80042464B4691194D4520D98446080002E021
:1005D80001339D4218D0E15CC25C9142F8D0010021
:1005E80060469D4212D94A46BA1A9619F618B04280
:1005F800E6D240465946504400F068FA82445346D1
:10060800581BB042DCD29DE7010060464B46013BD7
:100618000FD38446080001E0013B94D3E15CC25C3F
:100628009142F9D0009B60469C466644C6E74B461B
:10063800A4E7080087E7C046F0B5DE4657464546BA
:100648004E46E0B5844C8346A54414008A4605AA64
:10065800190020001D00FFF7C1FEFFAA019006AB9C
:100668001C3220C39342FCD1002D0FD02300A44696
:10067800681E6619201808241A7804AFC11A920057
:100688003F190133B9509E42F5D16446059B2000BD
:10069800019AE118984600F0F5F9002800D07AE0B0
:1006A800002399465346591B80231B012B43039370
:1006B8002B006F1E00264D4608009946029408E05C
:1006C800002D04D0984502D94B4642469B1A002576
:1006D800F618B04224D35B4608249919CB5D04AAC6
:1006E8009B001219D358002BEAD1019A2B0095428E
:1006F80000D213009F422AD98446029C080002E0D7
:1007080001339F4220D0E15CC25C9142F8D00100E5
:10071800029460469F421AD9019AB61A0136D6E762
:1007280058460399504400F0D1F9824453464A464A
:10073800981AB042CFD20020484B9D44F0BCBB462B
:10074800B246A946A046F0BD010060460294019A4F
:10075800531E95427DD28446029C080003E05A1E2F
:100768009D4210D01300E15CC25C9142F7D00100B9
:1007780060460294013301359D420AD84B464246F1
:1007880046449D1AA5E701350100029460469D4242
:10079800F4D90800D0E7019AAB1A934257D3013332
:1007A800039305935346591B80231B012B439946FA
:1007B8006B1E002608001F000294B0420CD35B4653
:1007C80008249919CB5D04AA9B001219D358002B51
:1007D8000DD0F618B042F2D258464946504400F0BF
:1007E80075F982445346581BB042E8D2A3E7019AF0
:1007F8001300BA4217D28446029C080002E0013373
:10080800BB420DD0E15CC25C9142F8D00100029479
:1008180060469F4207D9019AB61A0136F618D9E7F9
:10082800010060460294019B013BB2D38446029CBE
:10083800080002E0013B00D27EE7E15CC25C914225
:10084800F8D0039B60469C4602946644B5E71300C3
:10085800A5E713008FE7C046E4FBFFFF1C04000078
:10086800F0B5CE46474680B50E000978050004006D
:1008780091B0002958D07278002A00D178E0B07879
:10088800002857D013020B4307041F43F3789C46F4
:100898001B063B436746002F00D180E03279002ACF
:1008A8006AD03000FFF7F0FC80218900070001437F
:1008B800280000F00BF987424AD8FE2F00D985E0BE
:1008C800C01B804640226846791CA84400F086F880
:1008D800002F0FD0BA1994463F2233009146F8B240
:1008E800301849466C461A780A40C11A0133A15497
:1008F8009C45F6D12C003F256A46013CE35D2B4020
:10090800D35CE418A04503D224E04C44A04521D38D
:100918006A46E35D31002B40D35C20003A009946DB
:1009280000F0B0F80028F0D1200011B0C0BCB946E2
:10093800B046F0BD0904114300232A7806E02C00D4
:100948001B04013513432A7899423DD0002AF6D179
:100958000024E9E74346D819DB5D002BF8D0802155
:10096800090100F0B3F88044A045C5D20024DBE7B4
:1009780000F03EF90400D7E72A78002AE8D019BA2F
:10098800002301E08B4208D02C001B0201351343E1
:100998002A78002AF6D18B42DAD1033CC4E7120444
:1009A800090611432A7800020143002AD0D0002307
:1009B80001E0002ACCD02C00134301351B022A7811
:1009C8009942F6D1023CAFE7013CADE701003B009C
:1009D80032002800FFF730FE0400A5E7F0B5050057
:1009E800830749D0541E002A45D003000326CAB203
:1009F80002E00135013C3ED301332A703342F8D17D
:100A0800032C30D9FF220A401502AD182A04AD186C
:100A18000F2C34D92700103F3F093E01B4461E0071
:100A28001A0010366644156055609560D56010321E
:100A38009642F8D101373F01DB190F270C222740D6
:100A480022403C00002A0ED03E1FB608B400A4463F
:100A58001A001C1D644420C2A242FCD103240136A2
:100A6800B6009B193C40002C05D0C9B21C1919705E
:100A780001339C42FBD1F0BD03001400C0E72700FE
:100A8800E2E7C04630B5032A1AD90B0003439B0797
:100A980011D0551E002303E05A1C9D4213D01300A9
:100AA800C25CCC5CA242F7D0101B0DE0043A0430C3
:100AB8000431032A04D904680B689C42F6D0E8E79D
:100AC800551E002AE6D1002030BDC04610B50300EF
:100AD8004418002903D109E001339C4204D01A7854
:100AE800002AF9D1181A10BD201AFCE70020FAE7ED
:100AF80008B410B504009DB0002A32DB8223684692
:100B08009B008382002302911B930691002A13D035
:100B1800013A013BC382049220AB079220001F9A3E
:100B280002A9019300F0BAF9431C01DA8B23236070
:100B38000022029B1A700FE001235B42C3820492D9
:100B480020AB079220001F9A02A9019300F0A6F992
:100B5800431C01DA8B2323601DB010BC08BC01B014
:100B680018478B23036001204042F5E70CB410B509
:100B78001E4B9CB01C68002933DB82236A469B000D
:100B88009382002302901B930690002913D0013909
:100B9800013BD38204911FAB079120001E9A02A942
:100BA800019300F07BF9431C01DA8B2323600022B8
:100BB800029B1A7010E001236A465B42D3820491BB
:100BC8001FAB079120001E9A02A9019300F066F955
:100BD800431C01DA8B2323601CB010BC08BC02B094
:100BE80018478B23012023604042F5E700000020CE
:100BF8000323CAB2F0B50340002A35D00324002BE2
:100C08002DD1FF230B401D02ED182B04ED182C00ED
:100C18000168264E4C408B198B43A119A143244EE1
:100C28000B43334211D14168204F0C00CB196C4063
:100C38008B43E119A1430B4304303342F3D00378CB
:100C4800002B05D09A4204D001300378002BF9D14B
:100C58000020F0BD9342FCD001302042D1D003786F
:100C6800002BF7D10020F4E7002B08D0032202E084
:100C78000130104203D00378002BF9D1E9E702686C
:100C88000A4B0B49D31893430B4206D14268074BD2
:100C98000430D31893430B42F8D00378002BD8D0F4
:100CA80043780130002BFBD1D3E7C046FFFEFEFEA0
:100CB80080808080F0B546464F46D646C0B58E68DF
:100CC80080460C0091461D0008689E4239D80C22C7
:100CD8008B5E9022D200134210D135002A0049467B
:100CE800FFF700FB0020A3689B1BA36023685B1928
:100CF8002360E0BCBA46B146A846F0BD0969421A6D
:100D08009246606942001218D70FBF18681C7F10FE
:100D180050443A00B84201D9070002005B0512D5D9
:100D28001100404600F03CFA061E1FD052462169C9
:100D380000F02EFDA389124A134080221343A38199
:100D480006E01E00CAE7404600F00EFB061E09D06A
:100D58003000534650446761FF1A266120602E0018
:100D6800A760BBE74046216900F0A2FA0C2342467F
:100D7800136040220120A38940421343A381B8E7AE
:100D88007FFBFFFFF0B545465746DE464E46E0B5C9
:100D9800136883B0984693680D0092460190002B23
:100DA8006FD0002300249B460A688B6849E00C2119
:100DB8006B5E9021C9000B422BD068692969561ACD
:100DC80042001218D00F8218701C52100019914658
:100DD800904201D9814602008020C00003423AD0E7
:100DE8001100019800F0DCF9071E3DD03200296996
:100DF80000F0CEFCAB89284A134080221343AB8114
:100E08004B46B8199E1B2F61AE602700260028604C
:100E18006B6132005946FFF765FA51465046AB6898
:100E28002A688968DB1B9219091BAB602A608160FC
:100E380027D0414609688B4641464C6808218C46B4
:100E4800E0441F001000002CF3D01E009C42AED2DC
:100E580027002600DDE7019800F086FA071ECFD1AB
:100E68002969019800F024FA0C23019A01201360E3
:100E78004022AB8940421343AB8152460023936022
:100E880000E0002000235246536003B0F0BCBB468C
:100E9800B246A946A046F0BD7FFBFFFFF0B5DE468F
:100EA80057464E464546E0B51C008B898246894622
:100EB80093469DB01B0603D50B69002B00D1F5E0C6
:100EC800002304AD6B6120336B761033AB765B4641
:100ED8001B787F4F0394002B78D05C4604E063783E
:100EE8000134002B00D17EE0252BF8D15B46E61AB1
:100EF8005C4500D07BE02378002B67D001230022DB
:100F08005B42049205930022002306920793002374
:100F18004332AB54AB6501339B46013406E05A4675
:100F2800C01B82401C0029680A432A600522380039
:100F3800217800F0D7F8631C1E000028EFD12A683A
:100F4800D10602D5432120306854110702D5432128
:100F58002B20685421782A2955D1039B191D1B6819
:100F68000391002B00DA7CE0EB6061782E2960D0D9
:100F7800584C0322200000F0B5F8002806D0402382
:100F8800001B83402A68013613432B603178731C99
:100F9800062251489B46297600F0A4F8002866D01E
:100FA8004E4B002B56D003AA009229004A465046C1
:100FB8004B4BAFF3008080464346013306D06B6944
:100FC80043446B615B461B78002B86D14B469B895B
:100FD8005B0600D579E068691DB0F0BCBB46B24637
:100FE800A946A046F0BD5B46E61A5C45EED0330044
:100FF8005A4649465046FFF75DFE0130E6D06B6918
:101008009B196B6177E70800303826000928ADD8AE
:10101800EA68140000E00133A2001219197852009E
:101028001418080030380928F5D91E00EC602E295C
:101038009ED171782A2924D1039BB01C1A1D1B68E4
:1010480003926B60002B02DA01235B426B60B1787C
:1010580006008DE70722039B073393430833039366
:10106800ADE75B42EB6002231A432A607DE703AADF
:10107800009229004A465046194B00F055FA80461E
:101088009AE708000023303801366B60092800D938
:101098006EE71A0093009B1871785B001A18080015
:1010A800303801360928F5D96A6061E7402100F037
:1010B80077F84B4618601861002803D040234A4649
:1010C8005361FDE60C23524613600120404283E73A
:1010D800F0600008F8600008FC60000800000000EC
:1010E800BD0C000870B5CCB283070DD0531E002A82
:1010F8000FD0032504E00130284206D0013B08D375
:101108000278A242F7D170BD1300032B03D8002B3D
:1011180014D10020F7E7FF220A401502AD182A046F
:101128000B4EAD1803E0043B0430032BEFD90268E3
:1011380008496A40511891433142F4D0C31802E07B
:1011480001309842E5D00278A242F9D1DBE7C046E7
:1011580080808080FFFEFEFE70B5104E050033686B
:101168000C00002B15D02100280000F057FB431C71
:101178000CD00323C41C9C43A04205D0211A28008C
:1011880000F04CFB013001D0200070BD0124644206
:10119800FAE7002100F042FB3060E4E7AC010020F0
:1011A800F8B50323CE464746CD1C9D4308350600B7
:1011B80080B50C2D1ED20C25A9421DD8300000F098
:1011C800E3FA3A4F7A68002A1AD0140004E06368F8
:1011D8002200002B14D01C0023685B1BF7D40B2BB8
:1011E80027D96119256094425BD051600B60636810
:1011F8004B600DE0002DDFDA0C230020336014E093
:1012080029003000FFF7A8FF0400431C19D005602F
:10121800300000F0BBFA200007220B30231D90435A
:10122800C21A984201D01B1AA350C0BCB946B04696
:10123800F8BD6368944202D05360E9E743467B6097
:10124800E6E77B689846002B24D0444663689846B6
:10125800002BFAD12368002199463000A14400F000
:10126800DDFA814516D123683000ED1A2900FFF711
:1012780073FF01300ED023687A685B1923605368C6
:10128800002B02D1DAE71A005B689C42FBD10023ED
:101298005360BDE70C233000336000F077FA00207C
:1012A800C3E779600B6063684B60B1E7AC0100206D
:1012B80070B50500002915D00C1F2368002B23DB0F
:1012C800280000F061FA274A1368002B05D0A342D2
:1012D8000BD92168601883422CD028006360146001
:1012E80000F054FA70BDA34210D81A005B68002BB6
:1012F800F9D1106811188C4218D02CD3636054604F
:10130800280000F043FAEDE7E418D9E7116850180F
:10131800A04214D01FD8216860188342EED1186803
:101328005B684118216063605460E9E723681B1813
:101338001360E5E718685B6841182160CDE720680D
:101348000918501811608342DAD118685B6841188F
:1013580011605360D4E70C2328002B6000F016FAC4
:10136800C0E7C046B0010020F0B5C64607000E0031
:10137800140000B500292DD0002A27D000F060FA0B
:101388008046844203D835004308A34210D3210085
:101398003800FFF705FF051E0AD0220044450BD888
:1013A8003100280000F0F4F931003800FFF780FF21
:1013B800280080BCB846F0BD31004246280000F045
:1013C800E7F931003800FFF773FFF1E7FFF770FF27
:1013D8000025EDE71100FFF7E3FE0500E8E7C0464A
:1013E800F8B557464E464546DE46E0B51F000A9B0F
:1013F800924698460A698B6806000C009A4200DA01
:101408001A0053461A604323E35C002B02D051466E
:1014180001320A602268910661D553465246062079
:101428001B680233136022681100104208D10020A3
:10143800814619308346E168A344994247DC11008C
:101448004323E35C5A1E934189060AD53020E118EC
:101458004331087045215A1C615CA218433202339B
:1014680011702200390030004332C04701301DD0CE
:10147800534606251B68E1689C462368A2682069D4
:101488002B40042B31D0824239DD00239946121AB1
:10149800914400251A3402E001354D452FDA012325
:1014A800220039003000C0470130F5D10120404208
:1014B800F0BCBB46B246A946A046F8BD01239C46EF
:1014C8005346E5681B68E144ED1A4D4524DD0123C8
:1014D8005A4639003000C0470130EFD1E6E706210F
:1014E80011420ED05A1E9341BBE76346C91ACB433B
:1014F800DB170B4099468242C9DC0029C9DC002071
:10150800D6E7002053468146193083461B68E168B8
:10151800A3449942DBDC92E743232168E35C5A1E2B
:101528009341890692D49CE7F0B54E4699464323E9
:101538009C4657464546DE468C446346E0B587B030
:1015480002930C00097E90460700109A002914D0D7
:101558000B00583BDBB2202B48D888489B00C35867
:101568009F46136821681D1D606915601B680E067B
:1015780002D4490600D5DCE018600023029D2361EF
:101588004B46210000933800434605AAFFF728FF81
:1015980001301ED02A00414638002369C84701306F
:1015A80017D02368E068059E9B071BD5B04219DD5C
:1015B80019239A460025A24404E0E0680135831BFC
:1015C800AB420FDD0123524641463800C84701307F
:1015D800F3D10120404207B0F0BCBB46B246A94651
:1015E800A046F0BDB042F6DA3000F4E72500422309
:1015F80001204235E154432300222061E254BFE731
:1016080013682168181D10600D0602D44D0600D518
:1016180094E01A6816006368002A00DA92E0584AD3
:1016280093460A2203924BE01368206840CB0506D4
:1016380001D440067FD41360514B9B466F2900D1DB
:1016480091E00A23039337E013682500191D116000
:101658001A68422301204235E254CCE71368191D69
:1016680011601D68002128006268FFF73BFD002813
:1016780000D181E0401B6060BDE7202321680B4357
:1016880023604521782060543E498B46116840C943
:10169800180603D4580601D53604360C1160DA074B
:1016A80002D5202213432360002E03D12022236871
:1016B800934323601023039343230022E254636877
:1016C800A360002B18DB042122688A432260002EC5
:1016D80012D1029D002B49D1039B082B1ED0029BDF
:1016E8005B1B23614CE745235821E15424492368B7
:1016F8008B46CBE72368C4E7039B9A46029D3000DC
:10170800514600F041F95B465B5C013D2B703300AC
:1017180006005345F3D2039B082BE0D12368DB076F
:10172800DDD5626823699A42D9DC3023013D2B70EC
:10173800D5E7188021E73604360C7CE700269E5F43
:10174800320068E743222D20A054A360002B02DB5F
:101758000423994321600A239A46094B76429B4603
:101768000A230393CAE708230393A5E75B462500EA
:101778001B7842352B70AFE760683CE7F0560008ED
:1017880004610008186100087047C0467047C046E9
:10179800F0B505000F2A31D903273E000D430C0090
:1017A80003002E402F4234D11500103D2D09AC46C0
:1017B8002F013F1865685D60A5689D60E568DD607C
:1017C800256810341D601D001033BD42F2D16546F6
:1017D8000F230C2401352D014919134045191442D2
:1017E8001AD0043B9B0801339B008C59AC5104363A
:1017F8009E42FAD10323AD1989191A40561E002AB0
:1018080006D00023CC5C1A00EC5401339642F9D17F
:10181800F0BD0500561EF4E71A00EFE7002370B587
:10182800064C05000800236000F098FA431C00D01D
:1018380070BD2368002BFBD02B60F9E7B4010020B2
:101848000B1F1B68181F002B00DB70470B58C018B4
:10185800FBE7C04603B47146490840004900095EE9
:1018680049008E4403BC704703B4714649084000E0
:101878004900095A49008E4403BC704700224308B6
:101888008B4274D303098B425FD3030A8B4244D340
:10189800030B8B4228D3030C8B420DD3FF22090282
:1018A80012BA030C8B4202D31212090265D0030B41
:1018B8008B4219D300E0090AC30B8B4201D3CB0337
:1018C800C01A5241830B8B4201D38B03C01A524179
:1018D800430B8B4201D34B03C01A5241030B8B427B
:1018E80001D30B03C01A5241C30A8B4201D3CB0266
:1018F800C01A5241830A8B4201D38B02C01A52414B
:10190800430A8B4201D34B02C01A5241030A8B424D
:1019180001D30B02C01A5241CDD2C3098B4201D365
:10192800CB01C01A524183098B4201D38B01C01AE3
:10193800524143098B4201D34B01C01A524103095A
:101948008B4201D30B01C01A5241C3088B4201D309
:10195800CB00C01A524183088B4201D38B00C01AB6
:10196800524143088B4201D34B00C01A5241411ADD
:1019780000D20146524110467047FFE701B50020EA
:1019880000F0F0F802BDC0460029F7D076E77047AE
:1019980003460B437FD4002243088B4274D30309C8
:1019A8008B425FD3030A8B4244D3030B8B4228D369
:1019B800030C8B420DD3FF22090212BA030C8B428F
:1019C80002D31212090265D0030B8B4219D300E02F
:1019D800090AC30B8B4201D3CB03C01A5241830BB4
:1019E8008B4201D38B03C01A5241430B8B4201D364
:1019F8004B03C01A5241030B8B4201D30B03C01A8D
:101A08005241C30A8B4201D3CB02C01A5241830A06
:101A18008B4201D38B02C01A5241430A8B4201D335
:101A28004B02C01A5241030A8B4201D30B02C01A5F
:101A38005241CDD2C3098B4201D3CB01C01A5241C6
:101A480083098B4201D38B01C01A524143098B424F
:101A580001D34B01C01A524103098B4201D30B0138
:101A6800C01A5241C3088B4201D3CB00C01A52415D
:101A780083088B4201D38B00C01A524143088B4222
:101A880001D34B00C01A5241411A00D201465241BB
:101A9800104670475DE0CA0F00D04942031000D3DA
:101AA8004042534000229C4603098B422DD3030A2F
:101AB8008B4212D3FC22890112BA030A8B420CD33F
:101AC800890192118B4208D3890192118B4204D368
:101AD80089013AD0921100E08909C3098B4201D3E8
:101AE800CB01C01A524183098B4201D38B01C01A22
:101AF800524143098B4201D34B01C01A5241030999
:101B08008B4201D30B01C01A5241C3088B4201D347
:101B1800CB00C01A524183088B4201D38B00C01AF4
:101B28005241D9D243088B4201D34B00C01A5241CB
:101B3800411A00D20146634652415B10104601D358
:101B48004042002B00D54942704763465B1000D3E2
:101B5800404201B5002000F005F802BD0029F8D088
:101B680016E770477047C0461C2101231B049842A2
:101B780001D3000C10391B0A984201D3000A083916
:101B88001B09984201D30009043902A2105C4018CD
:101B98007047C04604030202010101010000000071
:101BA80000000000BFF34F8FE0230549DB00CA683F
:101BB8001A40044B1343CB60BFF34F8FC046FDE779
:101BC80000ED00E00400FA05054B82B01A6B0243F1
:101BD8001A631B6B18400190019B02B07047C04606
:101BE80000380240F7B5440A050A230028001F22DE
:101BF800134F7E6A410001911800012108400199A4
:101C0800013A014308005B08F4D19040FFF7ACFFAC
:101C18000F238000834001219E431F2322006D0073
:101C28000A401543013B6408F8D128009840FFF7A3
:101C38009BFF04238000834033437B62F7BDC0468B
:101C480000140240F7B54608040033001F22144F61
:101C5800FD68410001911800012108400199013AED
:101C6800014308005B08F4D19040FFF77DFF032390
:101C7800400083409D4301951F23012532006400E5
:101C88002A401443013B7608F8D120009840FFF71A
:101C98006BFF40008540019B1D43FD60F7BDC046BA
:101CA80000140240F7B5470804003B001F22134EFA
:101CB800B568410001911800012108400199013AD5
:101CC800014308005B08F4D19040FFF74DFF032360
:101CD8004000834001219D431F233A0064000A40CD
:101CE8001443013B7F08F8D120009840FFF73CFFE0
:101CF8000223400083402B43B360F7BD0014024029
:101D0800F7B5470804003B001F22134E3568410011
:101D180001911800012108400199013A0143080086
:101D28005B08F4D19040FFF71FFF03234000834076
:101D380001219D431F233A0064000A401443013BDC
:101D48007F08F8D120009840FFF70EFF02234000DB
:101D580083402B433360F7BD0014024070470000F6
:101D680010B50400034802F019FF200002F050FFEC
:101D780010BDC0460048004070B50D00040004487E
:101D880002F00CFF2900200002F00EFF70BDC046D3
:101D98000048004070B50D000400044802F0FEFE43
:101DA8002900200002F045FF70BDC04600480040F1
:101DB80037B51D0014000191FFF7D2FF1148FFF756
:101DC800CFFF019B1BBA01930B2C10D0042101A853
:101DD8001D2C12D1FFF7DEFF0B48FFF7C1FF2800CB
:101DE8000699FFF7D7FF0948FFF7BAFF37BD01A8E3
:101DF8000221FFF7CFFF0648EFE7FFF7CBFF0548C3
:101E0800EBE7C0463D58000874570008585A0008C8
:101E1800785700087C570008F7B504000D00160035
:101E28001F000093064813000A002100FFF7C0FFB7
:101E380033002A0000972100024802F0F1FAF7BDAA
:101E48008057000800640040F7B504000D00160034
:101E58001F000093064813000A002100FFF7A8FF9F
:101E680033002A0000972100024802F0D9FAF7BD92
:101E78008F5700080034004010B51822044905485F
:101E8800FEF730FA0C2200210348FEF7A7FD10BD2B
:101E9800540300204803002060030020054A5368CB
:101EA800002B03D013695A1E934101330320C01A33
:101EB8007047C04648030020074B30B55C68002CCB
:101EC80003D01C69651EAC4101340C256C431851C4
:101ED8001B1959609A6030BD4803002010B5602274
:101EE80000210248FEF77AFD10BDC046E802002036
:101EF80070B5002304000C20104D06005E43725D8F
:101F0800D2070DD572595208A24209D1301D0822B4
:101F18002818FEF7E7F9630001241C43AC5170BD93
:101F28000133082BE9D100230C2006005E43AA5D8B
:101F3800D207EBD50133082BF7D1F0E7E8020020F0
:101F480010B5040002000E21012003F0F1F8220070
:101F58000C21052003F0ECF810BD00000A0070B554
:101F68000F2811D80123094983404D682C009C4350
:101F7800002A01D02B431C00054B40004C60191867
:101F88004978C05C03F0D4F870BDC046C402002094
:101F98005160000810B50024200000210134FFF72B
:101FA800DDFF102CF8D10022024B9A60013A1A6129
:101FB80010BDC046C4020020F0B5614C87B023684C
:101FC800002B60D05F4DE2682B689B1A5BD45E4A99
:101FD8005E4B11780591002955D05A6A002A00D124
:101FE8001A6AC820400082424FDC282200260800D6
:101FF8004A439A1802960192013E421E52D22A681A
:1020080053484F4F1218002A00D101323869FA603C
:10201800814210D9282242439B184E334D4A1B88CF
:102028009B18FA229BB25200934204D84A48FFF701
:1020380097FEFFF7AFFF3300029A0A339A4200DC9B
:102048007AE0414A414B1178059A914200D173E0F8
:10205800386981424FD982424DD028214143FA2024
:102068005B184C3319883D4BC000CB189BB2834298
:1020780041D805368E423EDA2B68394A39489B18D2
:10208800BB60FFF76DFE07B0F0BD3748FFF768FE8D
:102098002B682F4A9B18002B00D10133E360FFF710
:1020A80079FFF0E70392019A978CB74214D22B4A32
:1020B8009446FA22BC44D20094450DD8019AD28C99
:1020C8009446264A9444624692B29446274A9445D6
:1020D80002D83E00081A0590029A974206D91F4A6C
:1020E800B818FA22D200904200D80297019A0398B1
:1020F800283A019281E701263300934062681A4228
:1021080014D1FFF747FF31000598FFF727FF059B1C
:10211800134A23612B6816489B18A360FFF720FE1B
:1021280005A83100FFF736FE1248AAE72B680C4ACB
:1021380011489B18A360A4E71048FFF711FEAEE70B
:10214800C40200208857002005040020BC0300209A
:102158003075000054F2FFFFD157000830F8FFFF38
:10216800A0BB0D00EA5700089E570008DB050000D9
:1021780028580008585A00084058000854580008C1
:10218800CF49F8B50B68002B03D1CE4A1360CE4A6D
:1021980013605A1C0A60CD49CD4C496AE154012AA2
:1021A80000D01CE22078222824D8FFF75DFB2A0003
:1021B80048015B016A0179012900290029002900E9
:1021C8002900BB01C501CC01D401E301ED012900BF
:1021D80029002900290029002900290029002900AF
:1021E8002900290029002900290029002900F201D5
:1021F800F7010202302800D1E5E1312800D1E8E1F9
:10220800F8BDB44AB44B1278002AF9D0B34D297CF2
:102218004A1ED2B2FD2AF3D8062262709A7BA270B7
:1022280018201A5E1012E070227116201A5E101221
:102238006071A27120201A5E1012E07122721C20B7
:102248001A5E10126072A2721E201A5E1012E072DC
:1022580022731A89100A6073A2735A892274100AA9
:102268001A88E073100A6074A2745A88100AE0741D
:1022780022750C201A5E10126075A2756A6A002A0F
:1022880000D12A6A1012E0756176227628216A5EEA
:102298001112A176E2762C216A5E111221776277FB
:1022A8002E216A5E1112A177E2775A8C611C100AFE
:1022B800C877A11CCA77591DC97FE21CD177991D1F
:1022C800C97F221DD177D91DC97F621DD177190019
:1022D8000831C97FA21DD177814AE01D1168090E16
:1022E800C177200011680830090CC17720001168F7
:1022F8002830090A017011682200293211701A2247
:102308009B5E220019122A32117022002B321370A0
:10231800744B754E1A6823002C331A70734B70680F
:102328001A6823002D331A7023006A7C2E331A7022
:1023380022006B692F32190E11702200190C3032ED
:1023480011702200190A31321170220032321370D2
:102358002200EB693332190E11702200190C343245
:1023680011702200190A35321170220036321370AA
:102378002300AA7C37331A702300327A38331A7054
:102388002300326839331A700A21FFF701FB230052
:102398003A331870564BF0681A6823003B331A70AA
:1023A8002200544B3C32DB88190A117022003D325E
:1023B8001370514A13685268591E8B4121003E31EF
:1023C8000B7023003F331A702300B27A40331A701F
:1023D8000A21FFF7DDFA23004133187042212B0050
:1023E800384E493331601878282343432233EB1899
:1023F8000025424ACF1D013805D2002D00D031609A
:1024080033682370FCE6DD7E997EAC4630256D424C
:10241800AC44654630390901294311701978517067
:102428005978283B9170598D0D0A1171998DD57085
:102438000D0A55719171012539000732DAE73048E4
:10244800FFF78EFCFFF72AFD012800D1D8E62D48BA
:1024580007220921FFF730FD2B4807220921FFF742
:102468002BFDCDE62948FFF77BFCFFF717FD012878
:1024780000D1C5E6234807220921FFF71DFD24489E
:10248800EBE72448FFF76CFCFFF708FD012800D1B3
:10249800B6E61C4807220921FFF70EFD1E48DCE7B7
:1024A8001E48FFF75DFCFFF7F9FC012800D1A7E6FD
:1024B800144807220921FFF7FFFC1948CDE7C04659
:1024C800C0010020B8010020BC01002000600040CD
:1024D800C40100205A0700202C070020BC0300205C
:1024E80088570020780300207C0300207403002014
:1024F80070030020D8020020C40200200602002039
:1025080078580008956000088C6000088C5800080E
:1025180083600008A15800087A600008B5580008D0
:10252800716000085B48FFF71BFC002201205A4B32
:102538001A60FFF705FD63E65848FFF711FC564B94
:1025480001221A605CE65648FFF70AFC0222524B49
:1025580000201A60EDE75348FFF702FC0022524BB7
:102568001A60524B1B78934201D0013BDBB2504AB0
:10257800537445E64F48FFF7F3FB02224A4B1A60B3
:102588004B4B49325A743BE64B48FFF7E9FB464B45
:10259800D6E74A48FFF7E4FB494BD1E74948FFF73C
:1025A800DFFB0023464A1360474A13705380938029
:1025B80026E64648FFF7D4FB0022414B1A60424BFF
:1025C80001321A701CE60022414B1A60FFF7E2FC48
:1025D80016E63F4B1A603F4A1268DA6010E6022A94
:1025E80000D00DE62078232815D8162800D807E64D
:1025F80017380C2800D903E6FFF72CF919001D003D
:1026080002FE24002A002E0002FE02FE02FE02FE46
:1026180002FE02FE340032282AD0332800D0EFE52B
:1026280000212B4B19606078FFF798FCE8E52A4BEE
:1026380062781A72E4E56378642B00D90023264A8D
:102648001360DDE50A236178234A4B435360D7E5DD
:10265800214B62789A72D3E50A2361781E4A4B436C
:10266800D360CDE564216278174B4A43DA80C7E529
:102678000023174D01212B606078FFF76FFC154B85
:10268800164A1B689B18002B01D0AB60B8E50123E4
:10269800FBE7C046CA58000874030020DE5800084B
:1026A800F95800080D590008780300205907002040
:1026B800BC0300202B5900084A5900086859000833
:1026C800700300207E590008D802002094590008A1
:1026D800C4020020885700207C03002040771B009C
:1026E800074A084910680B68074A834205D2581CF4
:1026F80008600649CB5C93627047AA23FBE7C04693
:10270800B8010020BC01002000600040C401002086
:102718000023034A1360034A1360034A1360704797
:10272800C0010020B8010020BC01002008221C4B79
:1027380010B5996911420DD0FE2099690004014035
:102748008820C003814215D0D9690A43DA61FFF7AE
:10275800DFFF10BD1022996911420ED19A69520704
:102768000FD49A6992070FD42022996911420ED189
:102778009B69EEE700200B490860D9690A43DA61D2
:10278800E7E7FFF7FDFCE4E7FFF7AAFFE1E7D96910
:102798000A43DA61012299691142DAD19A61D8E7CC
:1027A80000600040C00100208022114B9200D969CE
:1027B80010B50A43DA618022D96952000A43DA6106
:1027C8008022D969D2000A43DA618022D96952018C
:1027D8000A43DA618022D96992010A43DA618022C8
:1027E800D96912010A43DA61FFF792FF10BDC046AA
:1027F8000060004073B58024E4012020FFF7E4F96D
:102808002000FFF77DFA324D2000FFF7EBF920009A
:10281800FFF748FA6B682000234380246B6024028A
:10282800FFF710FA2000FFF76BFA2000FFF7DAF93C
:102838002000FFF737FA6B68200023436B60FFF72F
:1028480001FA8021234B49041A6C80250A431A6433
:102858001A6C90330A400192019A19681E4A0120A5
:1028680011408022D2030A431A60002344261B4ADF
:102878001B492D065354013195605354194BD060B0
:10288800196881431960184919619968C90AC90208
:102898003143996099680C439C6019680143196039
:1028A80008211C682143196010211C682143196004
:1028B80020211C682143196004211C6821431960E8
:1028C80002211C68214319609560D06073BDC04621
:1028D8000014024000380240FFFF3FFF00E100E023
:1028E8005F0300000060004005011000F8B5554F77
:1028F8007E6A002E00D13E6A534C544D23002E337D
:102908001B78002B00D192E05148FFF729FA0121EA
:102918002800FFF73FFA4F48FFF722FA01214E48F7
:10292800FFF738FA4D48FFF71BFAE37B022B34D93F
:102938004B4B1B68012B30D122002A323B7C12788A
:102948009A4205D32822B95E2C203A5E914211DAC8
:10295800A37B022B01D0072B1FD1424B1D78012DE1
:102968001BD14148FFF7FCF92800FFF7E9FA0023DB
:10297800E37312E02200293212783C489A4205D2C9
:10298800A37B052B06D8022B07D93948FFF7E8F9AE
:102998000020EAE7093B012BF7D9364B1B68012BCE
:1029A80009D121002D313A7C0978914213D32300B3
:1029B80000222F331A70304B304D1B68002B13D177
:1029C800298964200B0032336B80EB885843FEF76B
:1029D800DFFFA8802BE021002B3109789142EAD84B
:1029E80022002F321370E6E722002B323B7C12784C
:1029F8009A4201D900222A702C3422789A4213D3A1
:102A080001232B702C89688964216043FEF7C0FF7D
:102A1800322E0DDD0A38230032336B806423210007
:102A28005843FEF72BFFD4E72B78002BEAD1F8BDEB
:102A3800002EF0DA0A23E8889B1B9842EBDD180089
:102A4800E9E7C046BC0300202C0700203A07002015
:102A5800AB590008BC5900083B070020585A000829
:102A6800740300206C030020C6590008ED590008C3
:102A78000A5A00087803002070030020D8020020BA
:102A8800F0B5844EB3B00C2200213000FDF7A6FF4C
:102A9800814D2F2200212800FDF7A0FFDC22002114
:102AA80092007E48FDF79AFF7D4F0E2200213800E4
:102AB800FDF794FF2C2200217A48FDF78FFF7A4B0F
:102AC8007A4A01241A601A002C321470784A0021BC
:102AD800DA611E225A81774A7748DA60774A5C833E
:102AE8001A61774A5A612422FDF778FFFFF7F6F951
:102AF800744B14211C60744B01221C60734B5242AE
:102B08001C60734BF26033812323B3722B0029338B
:102B18001970704B00266B856F4BAB85FA23DB0071
:102B2800FB80F0272F356D4B2C706D4D1C60DA60E3
:102B38005E609E60FFF72EFAAB686A4ABB43AB60E3
:102B4800AB6869481340AB60AB68684A1340AB6038
:102B580002F06AFB664B674A20005A60664AD777DC
:102B68009E6007361E60FFF72FF80220FFF72CF84B
:102B78000420FFF729F80820FFF726F81020FFF7B0
:102B880023F82020FFF720F8E120000302F06EF878
:102B9800E120400202F0E6F9584801F051FE57489A
:102BA80001F09AFE9620800102F02AF9544801F0BB
:102BB800F5FF3100534801F0F7FFFA2002F01EFB41
:102BC800E120400202F01CF9320009214E48FFF7CB
:102BD80073F94E4B1C70FFF70DFE80224C4B4D498C
:102BE80052011DA802F026FB80224B4B4B49520193
:102BF80024A802F01FFB8422494B4A49D2002BA883
:102C080002F018FB4848FFF7ABF808231D21474A94
:102C18004748FFF719F9474B47491A685218149261
:102C28001A681B6852181592FA2292009B18109382
:102C38006B6F1C4302236C676A6F1A42FCD03F4AD1
:102C48003F4B13603F4B1360002353603E4B936030
:102C580007233A48C268110019401A42F9D13B4B80
:102C680003600E910F910D9111910C910B91334BC3
:102C7800364A304C1A602368149A9B1A04D4344894
:102C8800FFF76EF8FEF78EFF2368159A9B1A63D438
:102C98003048F5E77C0300202C070020BC03002007
:102CA800D8020020900300208C030020320002008C
:102CB8007A0DDE0D05000A004803002014001400F8
:102CC8003200050078030020740300207003002000
:102CD800242300004B2800001E140000C40200201A
:102CE80000380240FFE3FFFF0024F400FF1FFFFF4E
:102CF80010E000E07F3E000004ED00E020A10700A6
:102D080000100140AE6000089E6000086C030020BF
:102D1800595A0008683F0020565A0008682F0020BA
:102D2800585A0008684F00205A5A0008E45600080C
:102D3800711800008857002020BF020000300040B2
:102D4800CCCC000055550000EE0F0000AAAA0000E8
:102D5800615A0008775A0008D64801F01BFD002880
:102D680046D02368D44AD54F9B1814938023DB00A0
:102D780000931BAA3B001AA9CE4801F01FFD0600CC
:102D88003B00CF481B9A1A990096FFF711F81B9B36
:102D9800002B2DD0CB4B1A9A9A4229D13B78012B84
:102DA80026D123681CAD1B0E2B702368C6481B0C4C
:102DB8006B7023681B0AAB702368EB70FEF7D0FFBB
:102DC80004212800FEF7E6FFC048FEF7C9FFC04B04
:102DD800BA781A74109B002B04D1FA222368920047
:102DE8009B1810933300B54A1B991A98FFF72CF8D3
:102DF800B84B0E9A1B689B1A20D4B04C08220021AD
:102E08002000FDF7EBFDB44A1378002B07D051885A
:102E1800080A617020709288110AA170E270594204
:102E28004B41A64A1D211371AC480823FFF70CF843
:102E3800AF22A84B92001B689B180E93109B002B87
:102E48004AD100231093A64B9A68002A08D0A14BB8
:102E58001B689B1A04D4A348FEF782FFFFF79AF871
:102E68000B9B002B05D19E4B1B68002B01D0FFF755
:102E7800A3F89D4801F08EFC002853D080238F4C86
:102E8800DB0000931BAA23001AA9974801F096FCBF
:102E98001290129B95481B9A1A9900932300FEF7EB
:102EA80087FF00228B4B84491B681A985B1815937F
:102EB8008F4B227498422CD8824B98422DD98D4B37
:102EC800C018052800D939E1FEF7CEFC8A0059025E
:102ED8000302B0023E02E1017E4B109A1B689B1A66
:102EE800B1D400240C268448FEF73AFF834D320003
:102EF8006243834BD15CC90706D5D0581D210823EE
:102F08002A004008FEF788FF01340C35082CEED162
:102F180097E77C4B984200D1E2E27B48FEF720FF1E
:102F2800002310938421794BC9005B682BA8C91A28
:102F380002F092F98021764B49015B6824A8C91AEE
:102F480002F08AF90B9B013B032B00D83BE32BA82B
:102F580002F098FA002800D113E38022574CD200DF
:102F680021002BA802F0A4FA05006A48FEF7F8FE33
:102F780029002000FEF700FF674801F00FFE290036
:102F8800200001F011FE24A802F092FB2BA802F009
:102F980081F901230B934F4B604A1B689B180D93D3
:102FA80080215F4B49015B681DA8C91A02F054F9DA
:102FB8000C9B022B01D100F049FD01D900F01CFD4A
:102FC800012B01D100F027FDFEF768FF032804D18B
:102FD80007215448544AFEF76FFF012300F018FDFB
:102FE80063782778E5781B021F43A3782D021D43D9
:102FF8002DB228004D4E64213780358123797843DE
:1030080033741093FEF7C4FCA379E4790A21139072
:103018003062240238001C43FEF730FC642183B27E
:1030280020001693FEF7B0FC200006916421FEF7FD
:1030380025FC109B05900493139B0A2128000393F9
:10304800FEF78CFD09B2029128000A21FEF7A0FCC8
:1030580000B201900A213800FEF796FC89B200916F
:10306800FC21169B324A28488900FDF77FFD737CB6
:10307800002B00D14B33327C104C9A4200DD1A00F1
:1030880000252C4E227133686571AB4205DD2A4854
:10309800FEF766FE336865712371084C1A982100A3
:1030A800FEF726FF2200129B1B991A98FEF7B4FE22
:1030B80033E7C0460064004020BF02008853002068
:1030C8008D5A0008711800009C5A0008585A0008C8
:1030D8002C07002088570020D8020020F4E50618A5
:1030E800C4020020C75A000800340040D95A00081A
:1030F800781800008DE7FFFFB65A0008EC020020A0
:10310800E8020020E550FF1898530020286002408C
:1031180028640240465D00080014014010270000A2
:1031280040640240A76000085F020000BC03002062
:10313800E85A00087C0300202E5B00086579237993
:103148002D021D43E379A1791B020B431FB22DB257
:103158001092002F08DC002D06DCCF4B1A7C0923C7
:1031680093429B415B421093CC4E109ACC4B74789F
:103178001A70337824021C4324B20A212000FEF777
:1031880007FC0A2103B220001393FEF7E7FCF4784A
:103198000BB21693B37824021C4324B20A212000F0
:1031A800FEF7F6FB0A2103B220001793FEF7D6FCC0
:1031B80028000BB20A211893FEF7EAFB0A2104B291
:1031C8002800FEF7CBFC38000EB20A21FEF7E0FB20
:1031D8000A2103B238001993FEF7C0FC109AB14BCC
:1031E80009B2002A00D0B04B0691FC210793199B25
:1031F800AE4A0593189BAE480293179B0496019319
:10320800169B039400938900139BFDF7AFFCA44B16
:10321800A14A1B78002B01D1002D0ADA2C23D75E96
:103228009E4B39129F71D9712825555F2A121D713D
:103238005A71994B1D859F851B7C0A2B06D89D4882
:10324800FEF78EFD0022954B9A71DA71280000F086
:103258005DFF914D914C2A0003126371964B2071CA
:10326800E885403212781B7A9A4200D215E79348D3
:10327800FEF776FD0023012023716371EB85FEF7CD
:103288005FFE01228E4B1A60FEF784FE05E7617926
:10329800257909022943A57923782D040D43E1797D
:1032A800884A090629430291E178A5780902294349
:1032B800019161787E480091FC218900FDF756FC58
:1032C800774B1B78002B00D1E7E60023E370A3704F
:1032D800E3E6E378A6781B021E43774A6E4B1E8608
:1032E800D368013302D11A237343D3606B4B7649F9
:1032F8001A79DD7910921098674A087011005F7981
:1033080034310F7099792D025C780D43D5861A787F
:103318002402144324B20A212000FEF739FB03B229
:103328001393109B20000A2102930495039701969A
:10333800FEF714FC09B20091FC21139B634A890033
:103348005B48FDF713FCA8E6FC21637822781B0292
:10335800134357485E4A8900FDF708FC504B1B7819
:10336800002B02D000236370237083224B4B1A7109
:103378000022DA719A715A71082312938DE6267821
:10338800454B544A16701A00A078433210701A0040
:10339800217940321170A27941331A7065786779C2
:1033A8002D023543E678E4792DB236023F02064312
:1033B8000F4328000A2124021443FEF7E9FA24B235
:1033C80003B20A2120001093FEF7C8FB09B2069148
:1033D80020000A21FEF7DCFA3FB200B205900A216C
:1033E8003800FEF7BBFB09B2049138000A21FEF74A
:1033F800CFFA36B200B203900A213000FEF7AEFBD6
:1034080009B2029130000A21FEF7C2FA00B2019017
:103418000A212800FEF7A2FB09B20091FC21109BAB
:103428002D4A89002248FDF7A1FB76E5E578A378C7
:10343800E6792D021D43A37936021E43637822786C
:1034480036B21B02134330000A211093FEF786FBA5
:1034580009B2049130000A21FEF79AFA00B20390EB
:10346800637922792DB21B02134328000A210293A3
:10347800FEF774FB09B2019128000A21FEF788FAC9
:10348800FC21164F00B200903A00109B89000848B2
:10349800FDF76CFB41E5C046BC03002088530020C3
:1034A800F4030020595A0008275A00083E5B000818
:1034B80098530020875B00087C030020915B00087C
:1034C80074030020D55B0008EF030020155C00089A
:1034D800605C0008FE0300207D5C0008D05C0008EA
:1034E800637822781B021343D84A5BBA13819EB2D1
:1034F800E378A1781B020B435BBA538124790A2134
:10350800147330009DB2FEF7B9F90A2183B2300076
:103518001093FEF739FA28008BB20A211293FEF7AE
:10352800ADF90A2183B228001393FEF72DFAC84B90
:1035380089B2E20700D5C74BC54DA20700D5C64DD5
:10354800C34E620700D5C54EC14F220700D5C44FF0
:10355800BF4A9446E40601D5C24A9446644602919D
:10356800FC210393139BC04A0193129B0794009379
:103578000697109B059604958900BC48FDF7F6FA56
:10358800CBE4119B002B06D0B94B119A1B680B900A
:103598009B1A00D504E524A801F079FEB548FEF78A
:1035A800DFFBB54801F0FAFA0421B44801F0FCFA4F
:1035B8000022B34B1A70FA22AD4B92001B689B187D
:1035C80011930223E6E424A801F05CFF002800D14F
:1035D800DDE08022AB4CD200210024A801F068FF76
:1035E8000600A948FEF7BCFB31002000FEF7C4FB2B
:1035F8000B9B032B00D1DFE024A8042B00D15FE153
:10360800022B00D0E6E102F053F81C90431C00D1D5
:103618009CE09E4C606024A802F04FF80422E06011
:103628001CA924A801F0B1FF04221CA924A801F0B8
:10363800ACFF04221CA924A801F0A7FF04221CA99E
:1036480024A801F0A2FF04221CA924A801F09DFFD0
:1036580004221CA924A801F098FF04221CA924A86C
:1036680001F093FF04221CA924A801F08EFF042274
:103678001CA924A801F089FF04221CA924A801F090
:1036880084FF04221CA924A801F07FFF04221CA99E
:1036980024A801F07AFF04221CA924A801F075FFD0
:1036A80004221CA924A801F070FF24A802F000F845
:1036B800431C06D06369834203D06D4B60611B686D
:1036C800A36104221CA924A801F05FFF24A801F02B
:1036D800EFFF1C90431C01D06C4B987424A801F098
:1036E800E7FF6A4C1C90431C00D0E06165686421C8
:1036F8002800FEF74DF9E66865497043FEF748F97A
:10370800802163695F4F6062624A029301902B00D7
:10371800C90038000096FDF729FA3800FEF720FBAB
:10372800E368002B06DA636A002B08DC24A801F0A2
:10373800B1FD2CE0002BF9D0636A002BF6DA56486D
:10374800FEF70EFB0022514B5A62EFE7022E00D81B
:103758003CE120005149FDF783F8844200D035E16F
:1037680024A801F094FD4E48FEF7FAFA424801F009
:1037780015FA05214B4801F017FA00224A4B1A7036
:103788003B4B434A1B689B180D9303230B930D9BDC
:10379800002B01D1FFF704FC354B0D9A1B689B1ACF
:1037A80001D5FFF7FDFB0022384B0D925A624933D1
:1037B8001A701192130006E10C2E20D920003B4903
:1037C800FDF74EF80500A0421CD180220100D2006E
:1037D80024A801F0DAFE80222900D20024A801F0F2
:1037E800D4FE2821304C2122237824A85943304B79
:1037F800C91801F0CAFE23780133237096E7022E18
:1038080000D8E3E01F4C25492000FDF729F8844241
:1038180000D0DBE024A801F03AFD2648FEF7A0FA24
:10382800154801F0BBF90521234801F0BDF9002135
:103838000F4B174A1B689B180D93204A134B99523C
:103848000232013999520423A0E7C046D802002069
:10385800595A0008305A0008375A00083F5A0008D9
:10386800465A00084D5A0008095D00089853002080
:1038780088570020565D000800140140615D00086B
:103888000504002088530020665D0008BC03002062
:1038980010270000725D0008AF5D0008DB5D0008BE
:1038A800DF5D0008EA5D000804040020F05D000800
:1038B8000C040020FE5D0008095E00086A03000091
:1038C80001F0F6FE794B471E1B78794DBB4259D95A
:1038D800132F57D8282424A87C4301F0E9FE24A8F4
:1038E80001F0E6FE24A801F0E3FE24A801F0E0FEC2
:1038F8002C1924A801F0DCFE270024A801F0D8FE2A
:103908004C372600388024A801F0D2FE4E3630808D
:1039180024A801F0CDFE24A801F0CAFE24A801F0D5
:10392800C7FE24A801F0C4FE23004A33187024A857
:1039380001F0BEFE24A801F0BBFE24A801F0B8FEE9
:103948004B34207024A801F0A5FCFA203A88594984
:10395800C00053189BB2834200D918E7338859181E
:1039680089B2814200D912E7DB218900685A904266
:1039780000D96A524E49504A885A984200D306E7FD
:103988008B5204E7022E21D94C4C4D492000FCF7FC
:1039980067FF84421AD124A801F079FC4948FEF750
:1039A800DFF9434B484A180019004830007849317C
:1039B8000870DB218900595AD1873F499A1D5B5A03
:1039C800D38700230D930B93FFF7EAFA24A801F09D
:1039D8006FFEABE601F06CFE01230B93022E00D8BC
:1039E800A4E620003649FCF73BFF844200D09DE660
:1039F800002311930B9399E6344B0F9A1B689B1A7B
:103A080005D5FEF74BFA032801D1FFF730F900235B
:103A18000C93FFF72CF91DA801F039FC2C48FEF790
:103A28009FF92C4C61682068FEF7B4F92A48FEF724
:103A380097F92A4801F0B2F803CC01F0B5F8234B06
:103A4800274A1B689B180F930223E1E71DA801F082
:103A5800DDFC204DAA68904200D26EE1174C1DA8EB
:103A6800210001F0DDFCAB681C9098423CD21D4857
:103A7800FEF776F904211CA8FEF78CF91DA801F0C1
:103A8800C5FC04211C901CA8FEF784F91248FEF717
:103A980067F91DA801F0EEFB0C4B1B68F533FF33EB
:103AA8000F93FEF7E9F90423B2E7C04604040020A7
:103AB800BC03002030F8FFFF6A0300008853002091
:103AC800DB5D00080F5E0008C40300208857002053
:103AD8001C5E000848030020585A000800100140E6
:103AE80010270000255E0008AA48FEF739F92000D3
:103AF800A968FEF74FF9A848FEF732F92378AA2BF0
:103B080000D010E16378552B00D00CE1A3785F2B2F
:103B180000D008E1E378812B00D004E12379902BD1
:103B280000D000E100219D4A607A1170A27A9C4B76
:103B380012020243DA82A27B677B12021743227CBD
:103B4800E07B120202430C925A80A27C607C120233
:103B58000243267D0F929A80E27C36021643A27DAC
:103B6800607D1202024312921A81227EE07D1202C7
:103B7800024313921F80DE805A81627E987B9042B6
:103B880000D0D9739A73DA7BFF2A01D00132DA7335
:103B9800844B834C1A785B78834D1B021343A381B3
:103BA8002B0027331A785B7829001B021343A38262
:103BB8002B0029331A785B78CB311B0213436382BD
:103BC8002B0037331A785B7830001B02134363836A
:103BD8002B003D331A785B781B02134323842B0098
:103BE8003F331A785B781B021343E3832B0041337E
:103BF8001A782B0042331B781B021343A3832B0034
:103C080045331A782B0046331B781B0213432200D6
:103C180023830978283211702A002300CC321278C5
:103C28000833DA772A00CD321278E31DDA772A00D2
:103C3800CE321278A31DDA772A00CF321278631DAC
:103C4800DA772B00FA22D0331B78D2009B186384D2
:103C58000A21FDF799FE89B2089130000A21FDF783
:103C68000DFE80B207900A210C98FDF78DFE89B2EF
:103C78000C9806910A21FDF701FE139B80B205906E
:103C88000A210F980493FDF77FFE89B20F980391DC
:103C98000A21FDF7F3FD80B202900A213800FDF7F2
:103CA80073FE89B2019138000A21FDF7E7FD8021F2
:103CB80080B23E4A129BC90000902800FCF756FFCC
:103CC8002800FEF74DF81A20215E1622A35E029105
:103CD8002020215E364A01911820215E280000919B
:103CE8008021C900FCF742FF2800FEF739F8228836
:103CF800304B9A4202D86188994201D92E48C6E6CB
:103D0800A089E38A0A430343E08B0343608B0343A0
:103D1800208B03431343294800D1B8E601232E34EE
:103D28002370FEF7E3FDFA22254B92001B689B18CF
:103D38000F93FEF7A1F803236AE6FEF7AFF803280E
:103D480001D1FEF794FF1E4C0F9A23689B1A01D5E8
:103D5800FEF78DFF1B48FEF703F8FA22236892004E
:103D68009B181DA80F9301F085FAFEF785F8962099
:103D7800800101F045F8144800F010FF07211348AE
:103D880000F012FFFA2001F039FAE120400201F0B8
:103D980037F8D0E7395E0008585A00085A0700205B
:103DA8002C070020AD53002088530020425E0008F5
:103DB800755E000870170000A65E0008B05E000877
:103DC80088570020BA5E000800100140AE60000865
:103DD800F0B58FB001900291D98B1C002C33914221
:103DE80007D800221A701A22A35E98B263850FB012
:103DF800F0BDA18B914200D8FDE001221A70642623
:103E08003F21019A236A7243D21AD01708408018BA
:103E18008011C01831002062FDF7BAFD6B461B897E
:103E2800089003931D1A0222A35E2DB2AB4200DB59
:103E3800E6E00E23E05E31006843FDF7A9FD00B21D
:103E48000022A35E1A1C834200DD021C12B25B42F0
:103E580006929A4201DA1BB206931F23EA171A4008
:103E68005219238B52119B180299019A9BB28A42CC
:103E780007DD0720511ACA1702405218D2109B1AA0
:103E88009BB2FF211BB24B43DA170A40D3181B120F
:103E9800059323831623E25E029BD3180B936B468C
:103EA8009B8809930999039B5F1A64213FB2794360
:103EB8000A910399636A8A1805998A1812B20792B7
:103EC8002A22A65E1A21625E0492079A964201DBB4
:103ED800002F11DC049A964202DC002F00DA9AE0E7
:103EE8001F214B43DA170A40D3180A9A5B119B1813
:103EF8006362002F00DC8BE0002B00DB94E0DA0F1C
:103F0800D3185B1063624B4A934200DC86E0494B4E
:103F180063620A23E05E64217843FDF739FD0C9063
:103F28002822A35E0C22A05EFB1A58436421FDF7E9
:103F38002FFD656A0D90642128002785FDF728FD6F
:103F48000C9B0D9AC3189B18069A9B199B18059AE7
:103F58009B180B9A9A4204DA002D01DD6D106562F8
:103F68000B9B019A042A07DC642E05DD626AD30FD5
:103F78009B185B10636273109A1B1221635E934255
:103F880000DD13001421625E5242934200DA1300EE
:103F9800049AF3189A4205DD626AD30F9B185B10E6
:103FA8006362049B079A9A4206DA002F03DD636A6C
:103FB8000A9A9B1A6362079B019A02998A4213DD47
:103FC8006A462021525E01990132914209DD099A1F
:103FD8000399521A12B29B1A626A002A01DD521022
:103FE8006262B34200DD33000498984200DA180098
:103FF80003B280B2FAE61B78002B00D0FFE6F2E6A7
:104008005B420020AB4200DC1AE71023E05E12E7B7
:10401800002F00D177E7002B00DD70E7064A9342B6
:1040280000DB76E7626274E7024A934200DD6EE7DE
:104038006FE7C046204E0000E0B1FFFF73B52B4C80
:1040480005002A23E15E00290ED12822A35E0091F3
:10405800E021274E274A89003000FCF787FD300011
:10406800FDF77EFE238D6385237C632B05D92248CB
:10407800FDF776FE0123638573BD204B00221900EE
:104088001888A8422CD85888002801D0854227D8FB
:1040980006235343C9188E88154D2A23E15EFF2E47
:1040A80011D12822A35E0091E021154A8900280039
:1040B800FCF75CFD2800FDF753FE238D638511484E
:1040C800FDF74EFED8E70091E02133000E4A890043
:1040D8002800FCF74BFD2800FDF742FE6685EEE759
:1040E80001320633082ACBD1E9E7C046BC030020D9
:1040F80008540020C85E0008F55E0008B660000895
:10410800195F0008695F00084A5F0008F0B5474C6E
:10411800474BA61DF18F87B0DB8F0091E021454DFD
:10412800454A89002800FCF721FD2800FDF718FE04
:10413800F08FFFF783FF636A002B48D10822A35E44
:104148000493227C3D4B632A47D8220040321178E1
:104158009A7A914241D22A22A35E0593374EA31D33
:104168007068DF8F364D00284CD02B0001222C338D
:104178001A70642321885843FDF70AFC2B003A0083
:1041880001B20498FFF724FE76682488050003909E
:10419800642021007043FDF7FBFBFC21049B294FA1
:1041A800029001933A003300274800948900FCF7F5
:1041B800DDFC2548FDF7D4FD059B08339D4203D956
:1041C80022489DB2FDF7CCFD280007B0F0BD642160
:1041D800E068FDF7DDFB03B2B2E76420DE682788FC
:1041E80070433900FDF7D4FBE021059001903300BE
:1041F8002800174A00978900FCF7B8FC2800FDF74B
:10420800AFFDABE76B463A001421595E04982B00CA
:10421800FFF7DEFDFC210500059B0E4A0093019582
:10422800049B89000848FCF7A1FCC2E7BC030020F6
:10423800C403002008540020855F00087C03002088
:104248008C030020D85F00089853002021600008E4
:10425800B05F000800600008DFF834D00D480E4950
:104268000E4A002302E0D458C4500433C4188C42C8
:10427800F9D30B4A0B4C002301E013600432A2422D
:10428800FBD300F0B9FFFCF785F800F0B1FF7047E9
:1042980000000820000000205400002034610008BD
:1042A800540000208C570020802170B50A4D1E2232
:1042B80005236C6A4900884201D10132043B9340CE
:1042C8001800FDF751FC0F23800083409C4309230D
:1042D80083401C436C6270BD00040240F7B5470878
:1042E80004003B001F22134E356A4100019118005B
:1042F800012108400199013A014308005B08F4D103
:104308009040FDF731FC0F238000834001219D433D
:104318001F233A0064000A401443013B7F08F8D188
:1043280020009840FDF720FC0B23800083402B439E
:104338003362F7BD0004024070B51F220126094D03
:104348004308EC681900400031400843013A5B0813
:10435800F8D19040FDF708FC0323400083409C43BC
:10436800EC6070BD00040240F7B5470804003B004C
:104378001F22134EB5684100019118000121084021
:104388000199013A014308005B08F4D19040FDF718
:10439800EBFB03234000834001219D431F233A0088
:1043A80064000A401443013B7F08F8D1200098407C
:1043B800FDF7DAFB0223400083402B43B360F7BDCF
:1043C80000040240F7B5470804003B001F22134EC3
:1043D8003568410001911800012108400199013A0E
:1043E800014308005B08F4D19040FDF7BDFB0323AF
:1043F8004000834001219D431F233A0064000A4086
:104408001443013B7F08F8D120009840FDF7ACFB2E
:104418000223400083402B433360F7BD0004024071
:10442800F0B50400FF2087B0E026039384460423F8
:104438000C9F7605A568354206D0A568AD01AD0F7D
:10444800032D1AD1022711E06046A56905420FD055
:10445800A5682F480543A560A5682D4805408542F5
:10446800FAD0013BDBB2002BE4D105277F4232E0D2
:10447800A3683342E1D10127F8E70B2A03D01D2AAC
:104488002CD00327F2E72B00183349051B011951DB
:10449800082F3BD82B010193E518C22304AE5B001B
:1044A800EF50082200213000FCF798FA002303207F
:1044B800BB421BD1019B049AE41823008933FF33C4
:1044C8001A60C02273688D34FF34236001235200C0
:1044D800A9580B43AB50380007B0F0BD2B0004229D
:1044E800C90018330A431B011A51D1E799088A00F9
:1044F80019000292039A0140D25CC9008A400299CD
:10450800013371580A4302997250D1E70427ADE785
:104518008080800010B500210248034AFCF75EFA4B
:1045280010BDC0465C07002008280000F8B504004C
:104538000D00FFF7EFFFC822002192002000FCF7D2
:104548004DFA012223681343236063681342FCD0A9
:104558002C4B9D4204D02C4B9D4201D02B4BE36148
:1045680020232268802113432360102322688900B6
:104578001343236008232268812713432360012300
:10458800625883261A436250872285259200A158D3
:10459800BF009943A150E159B6009943E151A1598F
:1045A800AD009943A151615900209943615190216F
:1045B8008900605004316050A1581943A15002216C
:1045C800A0588843A050E0598843E0510020A759DB
:1045D8000F43A75166598E436651343560510435EF
:1045E8006051A0580143A150122261690A438021F9
:1045F8006261890062589A43625022689A43226035
:10460800F8BDC046A086010040420F0001001C0012
:104618004F4BF0B5C21853425A4187B0D3B20193F9
:104628004C4B4D4D5A435459FF2C1DD90323C26896
:104638001A4213D102691A420ED00122DA2113015B
:10464800C31849005C58240700D15B582023012A6D
:1046580006D0C2681343C36007B0F0BD0022EDE77F
:10466800026913430361F7E7631C5351019B032756
:10467800591E3A4B19403A4BC91814236343C918B9
:1046880069180391C1680293394214D1016901265E
:104698008C46634639403B420ED1029B9B18EB186F
:1046A80099601422019862432A4C2B4B60431218DC
:1046B8009B185961D0E70026D823320182185B0085
:1046C800D3580B215B0700D5123114236343214FC4
:1046D8009C46019B5F433B006344EB18D825202789
:1046E8006D0055597F1AFD40DA2799605D600821F1
:1046F8000F257F00D3592B408B4201D8D15929402F
:104708003301C3181A00B932FF321268BD3304925C
:104718000322FF331B6894460593002304AF8B42A2
:1047280006D12023012E0ED0C2681343C360B8E718
:1047380065469A0892001D40BA58ED00EA40039D6C
:10474800EA540133EBE7026913430361A9E7C04662
:1047580000CCFFBF041400005C070020FCEBFFFF47
:104768001014000010B50248FFF752FF10BDC046F4
:104778000064004010B5FFF7F5FF10BD10B5024802
:10478800FFF746FF10BDC0460034004010B5FFF7E4
:10479800F5FF10BD064B074AC01843425841424333
:1047A800054BD058002801D09B1858697047C0465F
:1047B80000CCFFBF041400005C070020F7B51C4CB8
:1047C8001C4F051968424541E8B27D431A4C0190D7
:1047D8002E59002E02D116603000FEBD651968689A
:1047E8000860A96811606E69089A964200D9160097
:1047F800019A1800551E114A15400E4AAD18290095
:104808000C3132006118FBF76DFD72B6019B5F43F6
:10481800E359013BE351FF2B08D829001422183132
:1048280004355A4361186019FBF75CFD62B6D3E79B
:1048380000CCFFBF041400005C070020FCEBFFFF66
:1048480013B5010080201E4B80041A6C1D4C0243D6
:104858001A641B6C034001931B48019BFFF766FE1B
:1048680080204000FFF7AEFD80204000FFF71CFDD0
:1048780080204000FFF778FD8020144A63684000DC
:1048880013406360FFF758FD80208000FFF79AFD12
:1048980080208000FFF708FD80208000FFF764FD7E
:1048A800802063680A4A800013406360FFF744FD74
:1048B8008022084B52031A60802292031A6013BDAB
:1048C800003802400004024000640040FFFEFFFF81
:1048D800FFFDFFFF00E100E013B501008020194B48
:1048E80080011A6C184C02431A641B6C0340019334
:1048F8001648019BFFF71AFE0820FFF763FD082002
:10490800FFF7ECFC0820FFF72FFD082063688343BE
:104918006360FFF711FD1020FFF754FD1020FFF72B
:10492800DDFC1020FFF720FD1020636883436360DF
:10493800FFF702FD8022064B9200DA608022D20047
:10494800DA6013BD00380240000402400034004021
:1049580000E100E010B50248FDF702FA00BEFEE7EC
:1049680044600008024A1368013313607047C04668
:104978008857002010B5064C615C40180299402900
:1049880002D1C260836010BD8260C360FBE7C0468D
:10499800E6600008054B82B01A6B02431A631B6B72
:1049A80018400190019B02B07047C0460038024091
:1049B800054B82B05A6C02435A645B6C18400190F4
:1049C800019B02B07047C04600380240F7B50D0A97
:1049D8004C0A0600476A0192280023001F22002B78
:1049E80014D19040FDF7C0F80F23800083400122C6
:1049F8009F431F23002C14D128009840FDF7B4F8DA
:104A0800019B800083403B437362F7BD41000091E6
:104A18001800012108400099013A014308005B0889
:104A2800DDE721006D0011400D43013B6408E1E71B
:104A3800F7B54D080600C76801920C002B00080066
:104A48001F22410000911800012108400099013AF5
:104A5800014308005B08F4D19040FDF785F8032373
:104A68004000834001219F431F232A0064000A401D
:104A78001443013B6D08F8D120009840FDF774F805
:104A8800019B400083403B43F360F7BDF7B54D08F9
:104A98000600076A01920C002B0008001F22410043
:104AA80000911800012108400099013A01430800CB
:104AB8005B08F4D19040FDF757F80F23800083403E
:104AC80001219F431F232A0064000A401443013B2D
:104AD8006D08F8D120009840FDF746F8019B80004A
:104AE80083403B433362F7BDF7B54F08050086683E
:104AF8000C003B0008001F22410001911800012111
:104B080008400199013A014308005B08F4D190403C
:104B1800FDF72AF803234000834001219E431F2309
:104B28003A0064000A401443013B7F08F8D1200092
:104B38009840FDF719F80223400083403343AB60E7
:104B4800F7BDF7B54F08050006680C003B000800E4
:104B58001F22410001911800012108400199013AE2
:104B6800014308005B08F4D19040FCF7FDFF0323E4
:104B78004000834001219E431F233A0064000A40FD
:104B88001443013B7F08F8D120009840FCF7ECFF64
:104B980002234000834033432B60F7BD014B18606C
:104BA8007047C046642F0020FA2270B50126144BC6
:104BB80092001C68134DA4182A68324203D06A6810
:104BC80092B2002A0ED180250F4C4118A268AA4340
:104BD800A260FA241A68A40012190C4C26688842AC
:104BE80007D102E01A68121BE6D470BD1C68A41A2B
:104BF800FBD5F4692C42F9D004780130B462EEE7B1
:104C0800885700205860024000480040642F002068
:104C180010B50400FBF738FB01002000FFF7C4FFC4
:104C280010BD03005730C0B2092B01D83033D8B2B9
:104C380070470023F7B504000F2701AD6B704618C5
:104C4800B44200D1F7BD20780009FFF7EAFF2870C9
:104C58002800FFF7DDFF207801343840FFF7E1FF37
:104C680028702800FFF7D4FFEAE70000F0B5060037
:104C7800802085B08003FFF78DFE80214E4BC9024E
:104C88001A6C4E4C0A431A641B6C4D4F0B40C021E2
:104C98000393039B22684B4B3A40134323602268DB
:104CA800494B0A4049480092BF39494AFFF762FE1A
:104CB8008422802101256368D2001B0C1B04134346
:104CC80063602368434A090513400B432360236844
:104CD80041482B432360414B1C683C4020431860EB
:104CE80018683F4C02401143196080212000490098
:104CF800FFF727FF8021072220004900FFF766FE03
:104D0800802120004900FFF7EFFE80216368354AC3
:104D18002000134063602A004900FFF789FE8021C4
:104D280020008900FFF70DFF80210722200089005D
:104D3800FFF74CFE802120008900FFF7D5FE802177
:104D48006368294A2000134063602A008900FFF73E
:104D58006FFE3021254A264C136870088B43136078
:104D68000C2322683100134323602368214A13402F
:104D780023606368204A13406360204B1B68C01897
:104D8800FCF77CFD80B2E060236880211D4380230E
:104D980025608903DB03E2690A42FCD0E2691A4212
:104DA800F9D04023A26813438022A360A3689343E9
:104DB800A36005B0F0BDC04600380240286002403C
:104DC8001F80FCFF00050200684F002000600240C1
:104DD80024480040FFFFFFE1400402005860024001
:104DE800000C0240FFFEFFFFFFFDFFFF903802406E
:104DF80000480040FFE9FFEFFFCFFFFF5000002011
:104E0800F7B5070080200126C003FFF7C3FD102077
:104E1800FFF7CEFDC021454C454D23684548334337
:104E280023602B68B3432B602A68434B1A40434BDB
:104E380013432B602A68424B0A400092BE39414A0C
:104E4800FFF798FD80226B6852011B0C1B0413436B
:104E58006B602A683C4B40211A4080231B05134392
:104E68002B602B6833432B60384D2800FFF769FE11
:104E7800072240212800FFF709FE40212800FFF7FC
:104E880033FE40216B6832008B436B602800FFF7CC
:104E9800CFFD802128000902FFF753FE802104225C
:104EA80028000902FFF792FD802128000902FFF778
:104EB8001BFE80216B68264A090213406B60320092
:104EC8002800FFF7B5FD1020FFF772FD0321214AE6
:104ED800780813688B4313600C2322683900134346
:104EE800236023681C4A1340236063681B4A1340ED
:104EF80063601B4B1B68C018FCF7C0FC80B2E06005
:104F0800236880211E43802326608903DB03E2692E
:104F18000A42FCD0E2691A42F9D04023A26813433E
:104F28008022A360A3689343A360F7BD00100140EB
:104F380040640240006402401F80FCFF000502003C
:104F4800683F002024100140FFFFFFE100040240F9
:104F5800FF7FFFFF90380240FFE9FFEFFFCFFFFF21
:104F68005000002073B5060080200125C003FFF71C
:104F780011FD2020FFF71CFDC021464C4648236840
:104F8800AB4323602268454B1A40454B13432360CB
:104F98002268444B0A4000922900434AFFF7EAFC82
:104FA8008022636852011B0C1B0413436360226850
:104FB8003E4B40211A40A0231B051343236023685E
:104FC8002B4323603A4C2000FFF7BBFD082220004A
:104FD8004021FFF75BFD20004021FFF785FD4021C0
:104FE800636802228B4363602000FFF721FD2000E5
:104FF8008021FFF7A6FD082220008021FFF746FD4B
:1050080020008021FFF770FD8021636802228B4316
:1050180063602000FFF70CFD2020FFF7C9FC254A3C
:1050280025491368254C0B4013600C23226870082F
:1050380013432360802362685B0213436360802309
:1050480062689B021343636023681D4A3100134062
:10505800236063681B4A134063601B4B1B68C018BE
:10506800FCF70CFC80B2E060236880211D4380239C
:1050780025608903DB03E2690A42FCD0E2691A422F
:10508800F9D04023A26813438022A360A368934306
:10509800A36073BD28640240006402401F80FCFFC7
:1050A80000050200682F002024140140FFFFFFE1E3
:1050B8000008024090380240FFF3FFFF001401404F
:1050C800FFE9FFEFFFCFFFFF50000020F7B54D08C5
:1050D8000600076801920C0008002B001F22002B15
:1050E80014D19040FCF740FD032340008340012287
:1050F8009F431F23002D14D120009840FCF734FD56
:10510800019B400083403B433360F7BD4100009161
:105118001800012108400099013A014308005B0882
:10512800DDE72900640011400C43013B6D08E1E70D
:10513800F7B501273D008D40294B0192C018840224
:105148003A0020002900FFF7C1FFA3686E0800930A
:10515800280033001F22002B29D19040FCF704FDC2
:10516800032340008340009F28009F431F223300F1
:10517800002B23D19040FCF7F7FC0223400083402A
:105188003B43A36028001F230122E768002E20D19B
:105198009840FCF7E9FC0323400083409F43019BB0
:1051A800E7605A4253411B019D40A561F7BD1900B4
:1051B800400039400843013A5B08CCE741000091C0
:1051C8001800012108400099013A014308005B08D2
:1051D800CEE73100400011400843013B7608D5E78F
:1051E80080001000014B18687047C046885700209F
:1051F80010B5FDF745FCFCE770470000094A82B08E
:1052080013680193019B431C591E8B41C0188023CE
:105218005B0211681942FCD001380028F9D102B0AC
:105228007047C04610E000E0014B18607047C04668
:1052380050000020F8B50E00150004001F001C22C5
:105248000021FBF7CBFB2A0030000021FBF7C6FB4F
:1052580066606561A760F8BD70B504000800616903
:10526800FCF792FB25692161A94202D0FFF7BAFF3A
:10527800206070BD10B50400002162694068FBF72A
:10528800ADFB00232360E3602361A36110BD0369C4
:10529800C3607047F7B504000123A669C068256993
:1052A8001E420DD0A8420AD06268125C0A2A06D1B2
:1052B80033436169A3610130FCF766FBE160F7BD28
:1052C800A842FCD06368009363690193009B01992D
:1052D8001F5C0130FCF758FB08000A2F04D101239A
:1052E8003343A361E160EAE7A942EFD1E7E7F0B50C
:1052F8008FB00893C3684769019313681600049335
:10530800049A019B0500079198183900FCF73CFBAB
:105318002B690C0006938B4200D16CE0A868FAF761
:10532800B3FF6B68079A1B19136000230293049B51
:10533800019AFB1A9B1A0C900D930C9B013B21D3ED
:105348006A680592121905990B92AA68095DD25CE0
:1053580009919142F2D10D9B39001819FCF714FB01
:10536800029A0A918B1A0393099B0A2B22D0039B5A
:10537800002B1FD11300059A01330293631CD31825
:10538800079A13600134019BA7422DD1FF1A049B91
:10539800029AFB1A9B1A089A3760002A05D0002245
:1053A8000121EA60AA698A43AA61802636061E435B
:1053B800039616E0089B002B0FD03900601CFCF701
:1053C800E3FAAA69E960012311009943A9610B99DD
:1053D80009780A2901D11343AB6133680A9A9B18EB
:1053E800336003980FB0F0BDA34204D0069BA342DC
:1053F80001D0A742A1D800230393F2E7002307B501
:10540800019301AA0133FFF772FF0EBD41690369D9
:10541800C068CB1810B5181AFCF7B6FA080010BD0A
:10542800F7B5040016000191FFF7F0FF0500B04240
:1054380000D93500E3686669F61A3700AE4200D92C
:105448002F0061683A00C9180198FAF74BFFE06825
:1054580061693818FCF798FAE160AE4210D2266903
:10546800AE4200D92E00636832005918019BD81942
:10547800FAF738FFE06861693018FCF785FAE160EF
:105488002800FEBD70B50500FFF7C0FF0400060048
:10549800E968013E01D2002004E06B685B5C0A2BDE
:1054A80001D1A01B70BD481C6969FCF76DFAF0E7D3
:1054B800F7B504000D001700FFF7A8FF0023E16807
:1054C8000190019A934201D100260DE06268525C76
:1054D800BB4201D22A7001355E1C0A2A06D1B742A6
:1054E80002D900229E1C2A703000FEBD481C61694A
:1054F800FCF74AFA3300E4E773B50026694633003F
:1055080001AA05000196FFF7F2FEB04201D1002082
:1055180076BD0028FCDA40004408330069462800BC
:1055280001AA0194FFF7E3FE0028F0DB2018EFE75B
:10553800F7B506000F001500FFF7DEFF041E22D0A6
:1055480039003000FFF75AFF002428607C606C6047
:10555800A0420FDAB368400044082C601800019399
:10556800FAF792FE013808D23000391DFFF746FFDE
:10557800040068602B68E41805E073681A78019BDA
:105588001B5C9A42EED12000FEBD0023F0B585B029
:1055980002AE0C0015006946320000930193029395
:1055A8000393FFF7C5FF00281DD0009B019A9C4676
:1055B800029F0399A84200D928000023984201D0ED
:1055C8009F4203D11B19C918041908E06546ED5C10
:1055D800E5540133F2E7157801321D700133A34217
:1055E80001D08B42F7D105B0F0BD0023F0B587B0EC
:1055F80002AE04AD0C002A00310002930393049319
:105608000593FFF795FF0190002839D0E1B20024F7
:10561800029B20000093049B22009C46039E059F4A
:105628006346002B0FD001235B42009D9C44009BE6
:1056380001351B78009500280BD1012A09D1782B58
:105648000BD110210FE0002F1AD03378013F01361B
:10565800F1E7002A01D12D2B28D00A290CD01029D6
:1056680010D048431818019B01329342D8D1002C1E
:1056780000D0404207B0F0BD303BDBB2092BF0D977
:105688000120F6E71D00303DEDB2092D0CD91D00B3
:10569800613D052D02D8573BDBB2E2E71D00413DD5
:1056A800052DEDD8373BF7E72B00DAE70124DAE7D9
:1056B80010B50A21FFF799FF10BD10B50A21FFF7B1
:1056C80094FF10BDF8B5C046F8BC08BC9E467047AC
:0C56D800F8B5C046F8BC08BC9E46704700
:1056E400010001000000000000000000EE160008A8
:1056F400F4150008F4150008F4150008F415000862
:10570400F4150008F4150008F4150008F415000851
:10571400F4150008F41500085016000808160008CF
:10572400F4150008F4150008F4150008F415000831
:1057340008160008F4150008F4150008F41500080C
:10574400F41500086A1500083016000882160008CF
:10575400F4150008F415000864160008F415000890
:1057640030160008F4150008F4150008FC160008AB
:1057740020652000207320002055200020202020B8
:105784003E3E3E20696E76207C2000202020203E74
:105794003E3E20626D73207C200042414C414E43CA
:1057A400453A20736B69707065642C20746F6F20A8
:1057B4006D756368206368617267652077617474CE
:1057C40061676520616C72656164790A0042414CCD
:1057D400414E43453A2073746F70206F766572634F
:1057E40068617267650042414C414E43453A206E00
:1057F4006F74206368617267656420656E6F756796
:10580400682C20636F6E74696E75652063686172BD
:1058140067696E67207468652073616D65207061C7
:10582400636B0A0042414C414E43453A2063686130
:10583400726765207061636B2030780042414C418F
:105844004E43453A206E6F206368616E67650A00B7
:1058540042414C414E43453A2064697361626C6530
:1058640020616C6C207061636B206368617267698E
:105874006E670A004932433A2070763120676D70B2
:105884007074206F66660A004932433A207076319C
:1058940020676D70707420686967680A0049324334
:1058A4003A2070763220676D707074206F66660AD5
:1058B400004932433A2070763220676D707074204C
:1058C400686967680A004932433A20666F72636503
:1058D400206F6666677269640A004932433A206140
:1058E40075746F206772696420636F6E6E6563748C
:1058F400696F6E0A004932433A20666F726365200D
:10590400677269647469650A004932433A207374A2
:105914006F702073656C66207573652066726F6D99
:1059240020626174740A004932433A20666F7263DC
:10593400652073656C66207573652066726F6D20D3
:10594400626174740A004932433A206175746F20AD
:1059540073656C66207573652066726F6D20626175
:1059640074740A004932433A206175746F2062618D
:1059740074206368617267650A004932433A207390
:10598400746F7020626174206368617267650A00D5
:105994004932433A20666F72636520626174206302
:1059A40068617267650A00536F6C61783A2073749A
:1059B400617475733D30780020636F756E743D308B
:1059C4007800416E746973757267653A206469730F
:1059D400636F6E6E65637420475249442C20666F72
:1059E400726365204550530A00416E746973757281
:1059F40067653A20636F6E6E65637420475249444D
:105A0400202832290A00416E746973757267653AF9
:105A140020636F6E6E6563742047524944202833B7
:105A2400290A0020325E33316669780048574552AE
:105A3400522C004F5654454D502C00414345525270
:105A44002C0053574552522C0054494D454F555440
:105A54002C0020250A0052657365740A00494E56CD
:105A64002061637469766974792074696D656F75F2
:105A7400740A0043414E2061637469766974792025
:105A840074696D656F75740A00696E76203E3E3EDA
:105A940020202020207C20002020202020202020C6
:105AA400202020207C2054696D657374616D703AE8
:105AB4002000626D732063616E2074696D656F757B
:105AC400740A0042414C414E43453A2074696D6565
