:020000040800F2
:10000000000008205D230008292E0008292E000882
:10001000292E0008292E0008292E000800000000C3
:10002000000000000000000000000000292E000871
:10003000292E000800000000292E00082D2E00089F
:10004000292E0008292E0008292E0008292E000834
:10005000292E0008292E0008292E0008292E000824
:10006000292E0008292E0008292E0008292E000814
:10007000292E0008292E0008292E0008292E000804
:10008000292E0008292E0008292E0008292E0008F4
:100090006D2700087D270008292E0008292E00085A
:1000A000292E0008292E0008292E0008292E0008D4
:1000B000292E0008292E0008292E0008292E0008C4
:1000C000292E0008C50C0008590D0008292E00082B
:1000D000292E0008292E0008292E0008292E0008A4
:1000E000292E0008292E0008292E0008292E000894
:1000F000292E0008292E0008292E0008292E000884
:10010000292E0008292E0008292E0008292E000873
:10011000292E0008292E0008292E0008292E000863
:10012000292E0008292E0008292E0008292E000853
:10013000292E0008292E0008292E0008292E000843
:10014000292E0008292E0008292E0008292E000833
:10015000292E0008292E0008292E0008292E000823
:10016000292E0008292E0008292E0008292E000813
:10017000292E0008292E0008292E00080000000062
:10018000292E0008292E0008292E0008292E0008F3
:10019000292E0008292E0008292E0008292E0008E3
:1001A000292E0008292E0008292E0008292E0008D3
:1001B000292E0008292E0008292E0008C50C000849
:1001C000590D0008292E000800000000292E000803
:1001D000292E0008292E0008292E0008292E0008A3
:1001E000292E00088D2700089D270008292E0008C9
:0801F000292E0008292E000849
:1001F80010B5064C2378002B07D1054B002B02D0F5
:100208000448AFF300800123237010BD7000002064
:10021800000000004C4A0008044B10B5002B03D026
:1002280003490448AFF3008010BDC0460000000039
:10023800740000204C4A00080023C25C0133002AE5
:10024800FBD1581E7047000003B4714649084000AE
:100258004900095E49008E4403BC704700224308E8
:100268008B4274D303098B425FD3030A8B4244D376
:10027800030B8B4228D3030C8B420DD3FF220902B8
:1002880012BA030C8B4202D31212090265D0030B77
:100298008B4219D300E0090AC30B8B4201D3CB036D
:1002A800C01A5241830B8B4201D38B03C01A5241AF
:1002B800430B8B4201D34B03C01A5241030B8B42B1
:1002C80001D30B03C01A5241C30A8B4201D3CB029C
:1002D800C01A5241830A8B4201D38B02C01A524181
:1002E800430A8B4201D34B02C01A5241030A8B4284
:1002F80001D30B02C01A5241CDD2C3098B4201D39C
:10030800CB01C01A524183098B4201D38B01C01A19
:10031800524143098B4201D34B01C01A5241030990
:100328008B4201D30B01C01A5241C3088B4201D33F
:10033800CB00C01A524183088B4201D38B00C01AEC
:10034800524143088B4201D34B00C01A5241411A13
:1003580000D20146524110467047FFE701B5002020
:1003680000F0F0F802BDC0460029F7D076E77047E4
:1003780003460B437FD4002243088B4274D30309FE
:100388008B425FD3030A8B4244D3030B8B4228D39F
:10039800030C8B420DD3FF22090212BA030C8B42C5
:1003A80002D31212090265D0030B8B4219D300E065
:1003B800090AC30B8B4201D3CB03C01A5241830BEA
:1003C8008B4201D38B03C01A5241430B8B4201D39A
:1003D8004B03C01A5241030B8B4201D30B03C01AC3
:1003E8005241C30A8B4201D3CB02C01A5241830A3D
:1003F8008B4201D38B02C01A5241430A8B4201D36C
:100408004B02C01A5241030A8B4201D30B02C01A95
:100418005241CDD2C3098B4201D3CB01C01A5241FC
:1004280083098B4201D38B01C01A524143098B4285
:1004380001D34B01C01A524103098B4201D30B016E
:10044800C01A5241C3088B4201D3CB00C01A524193
:1004580083088B4201D38B00C01A524143088B4258
:1004680001D34B00C01A5241411A00D201465241F1
:10047800104670475DE0CA0F00D04942031000D310
:100488004042534000229C4603098B422DD3030A65
:100498008B4212D3FC22890112BA030A8B420CD375
:1004A800890192118B4208D3890192118B4204D39E
:1004B80089013AD0921100E08909C3098B4201D31E
:1004C800CB01C01A524183098B4201D38B01C01A58
:1004D800524143098B4201D34B01C01A52410309CF
:1004E8008B4201D30B01C01A5241C3088B4201D37E
:1004F800CB00C01A524183088B4201D38B00C01A2B
:100508005241D9D243088B4201D34B00C01A524101
:10051800411A00D20146634652415B10104601D38E
:100528004042002B00D54942704763465B1000D318
:10053800404201B5002000F005F802BD0029F8D0BE
:1005480016E770477047C0461C2101231B049842D8
:1005580001D3000C10391B0A984201D3000A08394C
:100568001B09984201D30009043902A2105C401803
:100578007047C046040302020101010100000000A7
:10058800000000007047000010B50400034802F0A6
:1005980051FC200002F078FC10BDC0460048004025
:1005A80070B504000D00044802F044FC2900200046
:1005B80002F046FC70BDC0460048004070B504001B
:1005C8000D00044802F036FC2900200002F06DFC02
:1005D80070BDC0460048004070B582B0019115005A
:1005E8001E00FFF7D1FF1B48FFF7CEFF019C210E2D
:1005F800230AFF221202134019432302FF22120486
:10060800134019432406214301910B2D11D01D2DB0
:1006180017D1042101A8FFF7D1FF0F48FFF7B4FF56
:1006280006993000FFF7CAFF0C48FFF7ADFF02B08C
:1006380070BD022101A8FFF7C1FF0948FFF7A4FF19
:10064800EEE7042101A8FFF7B9FF0648FFF79CFF72
:10065800E6E7C046704A0008744A0008E84C0008FB
:10066800784A00087C4A0008F0B583B004000D0001
:1006780016001F00009313000A0001000548FFF749
:10068800ABFF009733002A002100034801F004FF64
:1006980003B0F0BD804A000800640040F0B583B0A4
:1006A80004000D0016001F00009313000A0001004B
:1006B8000548FFF791FF009733002A0021000348FF
:1006C80001F0EAFE03B0F0BD904A00080034004093
:1006D80010B5074C21000C311822200003F016FD3C
:1006E800200018300C22002103F023FD10BDC04665
:1006F800DC010020002000E0013043001B189A00B4
:10070800044B9B185B68002B01D00228F4D9032303
:10071800181A7047DC01002070B5002400E001348D
:1007280063001B199B00094DEB185B68002B01D077
:10073800022CF4D9022C07D8044D63001E19B60008
:100748007051A8194160826070BDC046DC0100206C
:1007580010B560220021024803F0EBFC10BDC04632
:1007680048010020F8B504000023072B20D81D00FD
:100778005A00D21892000F48125CD20702D50133F2
:10078800DBB2F2E707005E00F0188000381804308A
:10079800082203F0BBFC73199B0064000120DA599E
:1007A80010400443DC511E00DB5D01221343F35566
:1007B800F8BDC0464801002010B504000200002121
:1007C800012003F0D3F922000E21032003F0CEF913
:1007D800014A2923D45410BDAC01002010B50400EF
:1007E80002000721012003F0C1F922000F21032094
:1007F80003F0BCF9014A2A23D45410BDAC010020EF
:1008080010B50400064B186002000E21012003F009
:10081800ADF922000C21052003F0A8F910BDC0464F
:1008280090000020014B00221A6070472001002030
:10083800F8B5DE4657464E464546E0B5DD4B1B68E3
:10084800002B04D10022DC490A60DC490A605A1CEA
:10085800D8490A60DA49486ADA49C854012A08D0EE
:10086800022A00D1E0E1F0BCBB46B246A946A04648
:10087800F8BD0B780F2BF6D89B00D34AD3589F4668
:10088800D24B1C68452CEED8CB4B00221A600121B4
:10089800196002321A60CB4A517002311960CC4992
:1008A800887B907004201860CA480078D07018259A
:1008B800485F05251D600512157106251D605071DC
:1008C8001625485F07251D600512957108251D60CE
:1008D800D071088901351D60050A15720A251D6049
:1008E8005072488901351D60050A95720C251D60F6
:1008F800D0720C20095E0D201860081210730E20AB
:1009080018605173B44B9969002900D159690812CC
:10091800A94A0F231360AB4B987310201060D9734A
:10092800AD48018A112515600D0A1D741225156040
:1009380059741C25415F132515600D129D741425EB
:100948001560D9741E25415F152515600D121D759A
:10095800162515605975A14909680D1217261660E4
:100968009D7518251560D975192111601C760131FE
:10097800116097494C7C5C760C8803351560250A14
:100988009D761C251560DC764C8801351560250A96
:100998001D771E2515605C771C254C5F1F2515608B
:1009A80025129D7720251560DC774E8C2124146054
:1009B800370A5F550235AA4615601E550234146081
:1009C8002427CE5D5E55176025268D5D1D55166062
:1009D80003340D5DDD5514600337CD5D9D551760FB
:1009E80004368D5D1D550234A44614600234A146B8
:1009F8000D5DDD5520240F5F16603D12A846654643
:100A080044465C554C4614609F551E254C5FA446D1
:100A18002B27176026124C461E550234A346146035
:100A28006446DC556E4C25682D0E5E469D5525683E
:100A38002D0CAC462D2566465E5525682D0AAC461C
:100A48002E2566465E552468A4462F2465461D5506
:100A58000134A44614601A254C5FA0463124146062
:100A680045462D12A94665464E465E550235AC46AA
:100A7800156045461D555B4C2468A0463324146018
:100A8800654646465E55584D2D68A8463425AC4601
:100A9800156045461D55554C2468A04635241460FC
:100AA800654646465E550235AC461560CF5D1F5516
:100AB800023414605D46495D654659553821116018
:100AC8005246825C1A551970CDE64948FFF75CFD1D
:100AD800FFF710FE012800D8C5E60722092145487E
:100AE800FFF71AFE072209214348FFF715FEBAE669
:100AF8004248FFF749FDFFF7FDFD012800D8B2E69F
:100B0800072209213B48FFF707FE072209213C4835
:100B1800FFF702FEA7E63B48FFF736FD324B0022FF
:100B28001A600120FFF76CFE9DE63748FFF72CFDA1
:100B38002D4B01221A6096E63448FFF725FD2A4B13
:100B480000221A600020FFF75BFE8CE63048FFF7B2
:100B58001BFD244B00221A60FFF7CCFD012800D8AA
:100B680081E6072209212B48FFF7D6FD0722092134
:100B78002948FFF7D1FD174B03221A7073E627485F
:100B8800FFF702FD174B00221A60FFF7B3FD00289C
:100B980000D168E6072209212148FFF7BDFD0D4B6A
:100BA80001221A705FE61F48FFF7EEFC0D4B012289
:100BB8001A6058E620010020180100201C010020BE
:100BC8000060004098000020604B00088C00002066
:100BD800AC010020DA0100202401002000000020E0
:100BE8002C420020A8010020940000209000002042
:100BF800A04A0008FC4F000814500008B44A000836
:100C080008500008CC4A0008E04A0008FC4A0008DE
:100C1800104B00083C50000820500008344B0008D6
:100C2800485000084C4B00080D4B1B78112B0AD07C
:100C3800122B0ED0102B00D015E6094B5978094A13
:100C48002B23D1540FE6064B5978064A2C23D1544E
:100C580009E6034B5978044A2223D15403E6C046D7
:100C680098000020AC01002024010020084B1B68DC
:100C7800084A1268934207D2591C054A1160064A6D
:100C8800D25C064B9A627047044BAA229A62FAE732
:100C98001C0100201801002098000020006000407E
:100CA8000023034A1360034A1360034A1360704722
:100CB80020010020180100201C01002010B5234B42
:100CC8009B691B070FD5214B9B695B0C5B00FF22BF
:100CD8001340442B1AD01D4AD36908210B43D36112
:100CE800FFF7DEFF10BD194B9B69DB0616D4174BC7
:100CF8009B695B0718D4154B9B699B0717D4134B4B
:100D08009B699B0616D4114B9B69EBE7FFF78AFD9D
:100D18000E4AD36908210B43D361E3E70B4AD36931
:100D280010210B43D361DDE7FFF782FDDAE7FFF718
:100D38009DFFD7E7054BDA6920210A43DA619B69F1
:100D4800DB07CFD4014B01229A61CBE7006000405A
:100D580010B5FFF7A5FF10BD30B583B0C04A116BC1
:100D6800202319431163126B13400193019BBD4B60
:100D78001C681F218020C00180239B0105E04000E2
:100D880001221A40104301395B08002BF7D1884033
:100D9800FFF7DAFBFF2318404000FC3B83409C43ED
:100DA8001F218020C00180239B0105E04000012213
:100DB8001A40104301395B08002BF7D18840FFF730
:100DC800C3FBFF2318404000FD3B83401C43A54B59
:100DD8001C605C6A1F214020202305E0400001229E
:100DE8001A40104301395B08002BF7D18840FFF700
:100DF800ABFBFF2318408000F03B83409C431F213E
:100E08004020202305E0400001221A401043013908
:100E18005B08002BF7D18840FFF796FBFF231840AB
:100E28008000FB3B83401C438E4B5C629C681F2107
:100E38008020C00180239B0105E0400001221A4068
:100E4800104301395B08002BF7D18840FFF77CFB82
:100E5800FF2318404000FC3B83409C431F21802017
:100E6800C00180239B0105E0400001221A40104385
:100E780001395B08002BF7D18840FFF765FBFF239A
:100E880018404000FD3B83401C43764A94605368F9
:100E980075490B408020C00103435360D4681F216B
:100EA80080239B0105E0400001221A4010430139CC
:100EB8005B08002BF7D18840FFF746FBFF2318405B
:100EC8004000FC3B83409C431F218020C0018023BD
:100ED8009B0105E0400001221A40104301395B08DC
:100EE800002BF7D18840FFF72FFBFF231840400065
:100EF800FE3B83401C435B4BDC601C681F21802049
:100F080000028023DB0105E0400001221A40104363
:100F180001395B08002BF7D18840FFF715FBFF2349
:100F280018404000FC3B83409C431F218020000266
:100F38008023DB0105E0400001221A4010430139FB
:100F48005B08002BF7D18840FFF7FEFAFF23184013
:100F58004000FD3B83401C43424B1C605C6A1F21E0
:100F68008020402305E0400001221A401043013947
:100F78005B08002BF7D18840FFF7E6FAFF231840FB
:100F88008000F03B83409C431F218020402305E0E4
:100F9800400001221A40104301395B08002BF7D1A9
:100FA8008840FFF7D1FAFF2318408000FB3B8340BD
:100FB8001C432C4B5C629C681F218020000280230C
:100FC800DB0105E0400001221A40104301395B08AB
:100FD800002BF7D18840FFF7B7FAFF2318404000ED
:100FE800FC3B83409C431F21802000028023DB01BF
:100FF80005E0400001221A40104301395B08002B2C
:10100800F7D18840FFF7A0FAFF2318404000FD3BC6
:1010180083401C43134A9460536814490B40802052
:10102800000203435360D4681F218023DB0105E0DD
:10103800400001221A40104301395B08002BF7D108
:101048008840FFF781FAFF2318404000FC3B8340AB
:101058009C431F21802000028023DB010EE0C04654
:101068000038024000140240FFBFFFFFFF7FFFFF70
:10107800400001221A40104301395B08002BF7D1C8
:101088008840FFF761FAFF2303405B00012002005C
:101098009A401443264BDC60264B196C8024640468
:1010A800214319641A6C22400092009A90241A591C
:1010B800214911408022D2030A431A511F490023B3
:1010C8001F4A8B54802424068C6001328B54C860DC
:1010D8001C4B1A6882431A601B4A1A619A68D20A22
:1010E800D20244252A439A609D68802212022A432C
:1010F8009A601A6802431A601A6808252A431A6017
:101108001A6808352A431A601A6870352A431A6023
:101118001A68603D2A431A601A681C3D2A431A60FF
:101128001A68023D2A431A608C60C86003B030BD5B
:101138000014024000380240FFFF3FFF00E100E0DA
:101148005F0300000060004005011000F0B5DE46B6
:1011580057464E464546E0B5B5B0CA4C2E2200214A
:10116800200002F0E6FFC84F24220021380002F0D8
:10117800E0FF24220021C54802F0DBFF0125C44B13
:101188001D60C44B1D600026C34B1E602B23192213
:10119800E25401330532E2540A3B4132FA54BF4C5F
:1011A800A368F027BB43A360A368BD4A1340A360AC
:1011B800A368BC4A1340A360BB4802F08DFDBB4B3B
:1011C800BB4A5A60BB4923228F549E601C3A1A605E
:1011D800236B2B432363236B2B401C931C9B226B99
:1011E80002231A432263226B13401B931B9B226B1F
:1011F80004231A432263226B13401A931A9B226B0F
:1012080008231A432263226B13401993199B226BFC
:1012180010231A432263226B13401893189B226BE6
:1012280020231A432263226B13401793179B012034
:10123800FFF7C2FA0120FFF7D1FAE120000301F01D
:1012480055FEE1267602300002F070FA9A4F380017
:1012580001F010FB380001F06FFC9620800102F0CD
:1012680045F8964801F0E6FD0721954801F0E8FDAC
:10127800FA2002F01DFD300002F038F8072209219B
:101288009048FFF749FA904B1D70FFF765FD8026DF
:1012980036018E4B32008E492BA802F023FD8D4B70
:1012A80032008D4924A802F01DFD84228B4BD20008
:1012B8008B491DA802F016FD8A48FFF765F9082337
:1012C800894A1D218948FFF7E9F9894B1A68894934
:1012D8008C46624408921A688A4692441A6888467C
:1012E80090441F68FA23DB009C466744636F1D43E4
:1012F80065676A4B5B6F9B07FBD57F4B7F4A1A601C
:101308007F4A1A6000225A607E4A9A607A4BDB68EC
:101318000722110019401A42F8D10991764B7A4AEE
:101328001A6010910A910F9189460C910B910D91B9
:10133800002600231C00554698E37448FFF724F95B
:10134800BFF34F8F5B49CB68E022D2001A40704B45
:101358001343CB60BFF34F8FC046FDE7644B1D6856
:10136800644B9C4665446B4B9B468023DB00009393
:101378005B4632AA33A9684801F026FA82460090F3
:101388005B46329A33996548FFF726F9329B002B62
:1013980000D17FE3554B339A9A4200D07AE35D4BF4
:1013A8001B78012B00D075E3514B9B461B681B0E25
:1013B80016AF3B705B461B681B0C7B705B461B685B
:1013C8001B0ABB705B461B68FB705548FFF7DCF8CF
:1013D80004213800FFF7F2F84048FFF7D5F84D4AE6
:1013E8009178284B19745B461F68FA23DB009C46EA
:1013F8006744534632993398FFF750F94AE349480E
:10140800FFF7C2F8002701E00137FFB2072F12D813
:101418007B00DB199B00444A9B5CDB07F4D57B000F
:10142800D9198900885840085218043208231D2108
:10143800FFF71AF9E8E7099F33E3364F8023DB000B
:1014480000933B0032AA33A9384801F0BDF90E9049
:1014580000903B00329A33993548FFF7BDF80023D6
:101468003B74234B1B68234A90469844339B314A6C
:1014780094466344072B00D992E19B002E4AD35827
:101488009F46C046AC01002024010020DC0100205A
:10149800A80100209400002090000020003802409D
:1014A800FFE3FFFFFF1FFFFF0024F40010E000E050
:1014B8007F3E000000ED00E020A107000010014081
:1014C8002C50000848500008DA010020A84F0008F6
:1014D80008320020AC4B0008082A0020E84C00081D
:1014E800083A0020B04B0008644A00087118000050
:1014F8002C4200201027000000300040CCCC000017
:1015080055550000EE0F0000AAAA0000B84B0008CD
:101518000400FA052C3E002000640040D84B000867
:10152800E84B0008044C0008480100200034004043
:10153800184C00088FE7FFFFDC4F0008E74B9A467E
:101548005B781B025246127819001143E44B9B4604
:1015580019805346DF783F023FB29B781F435B46B2
:101568001F8153465B791B025246127913435A4630
:10157800129313821191080078436421FEF7F8FE54
:101588005946139048615146CB791B028A79190054
:1015980011438A460A211198FEF760FE81B28B46F4
:1015A80064215046FEF7E0FE069164215046FEF79E
:1015B80055FE0590129B0493139A03920A21380052
:1015C800FEF7BCFF09B202910A213800FEF7D0FEEF
:1015D80000B201900A211198FEF7C6FE89B2009167
:1015E8005B46C04AFC218900BF4802F0ABFDBF4BF7
:1015F8001B68002B00DAC8E0BD48FEF7C5FFB74BF3
:10160800BA4A12681A7100225A71BEE0B34B9A4660
:101618005F793F023FB21B791F43B14A9783534614
:10162800DB791B021BB2514689790B431193D38393
:10163800524653781B021BB21278190011438B468D
:101648000A215846FEF794FE02B212920A21584621
:10165800FEF774FF0AB213925246D3781B021BB2EC
:101668009278190011438A460A215046FEF780FEF7
:1016780002B214920A215046FEF760FF0AB2159290
:101688000A213800FEF774FE02B293460A21380098
:10169800FEF754FF0AB292460A211198FEF768FE37
:1016A80007B20A211198FEF749FF0BB2119A002AD6
:1016B8002CDD904AFC210792069305975346049324
:1016C8005B460393159B0293149B0193139B009312
:1016D800129B894A8900844802F034FD804B1E22FF
:1016E8009B5E002B1ADD854B1B68002B1BDA7C4B9D
:1016F8001B8A0A2B21D97A4B1A8A22215B5C9A42CF
:1017080043D3764B00221A715A713EE0744A128A0A
:10171800092A01D8774ACDE7794ACBE7704B1B8A6B
:10172800092B3DD8DFE77748FEF72EFF734B1B6880
:101738006A4A13711B125371D9E77348FEF724FFE5
:10174800664B00229A71DA71D5E7FFF701F8634911
:101758000B789B464F78C87800028B789C46CA79EC
:1017680012028B791A4312044B791B0209790B4335
:10177800FC211A43029263461843019000975B4686
:10178800624A8900584802F0DDFC544F390033980A
:10179800FEF7E8FF0E9B3A0032993398FEF764FF94
:1017A8005148FEF7F1FE099F81E14C4BDA781202AD
:1017B80099780A4392464A4A514611845F783F0213
:1017C8003FB21A7817431A79119259791291DA7936
:1017D80012021392987983460A213800FEF7C8FD51
:1017E80000B21490139B5846034304931299039133
:1017F800119A0292524601920A213800FEF79EFE83
:1018080009B20091149B424AFC218900364802F033
:1018180099FCBAE7314F7B781B023A781343FC21D5
:101828003C4A8900304802F08DFC83233B71002339
:10183800FB71BB717B7108330E93A6E7274B5A786F
:10184800120212B219780A431000DF783F023FB241
:101858009A7817435A79120212B219790A439246B2
:10186800DA79120212B29B791A4393460A210E9032
:10187800FEF77EFD03B211930A215846FEF75EFE7D
:1018880009B206910A215846FEF772FD00B205908A
:101898000A215046FEF752FE09B204910A21504629
:1018A800FEF766FD00B203900A213800FEF746FEF7
:1018B80009B202910A213800FEF75AFD00B20190E0
:1018C8000A210E98FEF73AFE09B20091119B124ABE
:1018D800FC218900044802F035FC61E72C3E002019
:1018E80024010020284C00083C3E00200400002071
:1018F800704C0008A84F0008804C00080000002029
:10190800A04B0008CC4C0008E04C0008EC4C000848
:101918002C4D0008784D0008984D0008CF4B597899
:1019280009021878DF783F023FB29A7817435A794C
:10193800120293461A790E92DA79120212B29B7940
:101948001A439246014311910A211000FEF7F6FD51
:1019580009B204910A215046FEF70AFD00B203902D
:101968005B460E9A134302930A213800FEF7E6FD00
:1019780009B201910A213800FEF7FAFC00B2009082
:10198800119BB74AFC218900B64802F0DBFB07E748
:101998001DA802F0B1FA002800D0B5E00D9A002A7F
:1019A80003D0B14B1B689B1A1AD424A802F0C8F9BB
:1019B800AE48FEF7E9FDAE4801F03CFA0421AD4817
:1019C80001F03EFAA84B1B68FA2292009446634441
:1019D8000D930124A44B1B68A74A944663440B93B8
:1019E8004B46002B05D0A04B1B684A469B1A00D4D7
:1019F800FBE00A9A002A04D09B4B1B689B1A00D470
:101A080002E19E4B5B6880210901C91A2BA802F0EC
:101A18007BF9022E00D15DE100D904E1002E00D14E
:101A28000EE1012E1BD12BA802F08AF99448FEF78B
:101A3800ABFD944E71683068FEF7C0FD9248FEF722
:101A4800A3FD924801F0F6F93068716801F0F8F9E1
:101A5800854B1B68884A944663440C930226824B44
:101A68001B68089A9B1A01D4099B0893884B894ADA
:101A78001A607D4B1B685B1B00D45EE47A4B1B68C5
:101A880042469B1A00D458E4834800F08BFE002895
:101A980000D063E4002F04D0734B1B68DB1B00D419
:101AA800ADE47E4800F07EFE002800D0C5E47C4B03
:101AB8005B688421C900C91A1DA802F025F9794B71
:101AC8005B6880210901C91A24A802F01DF9002CBD
:101AD80000D15DE7631EDBB2012B00D980E724A8A3
:101AE80002F00AFA00282ED10B9A002A00D177E7D3
:101AF8005D4B1B689B1A00D572E76B4B00229A61FD
:101B0800099B0D9300246BE78022544B9A46D20020
:101B180019001DA802F006FA04006448FEF734FD17
:101B280021005046FEF73CFD514801F083F92100A1
:101B3800504601F085F924A802F0BEFA1DA802F06B
:101B480002F9022446E78022444B9B46D200190042
:101B580024A802F0E7F982465548FEF715FD5146DC
:101B68005846FEF71DFD012C0FD024A802F0A4FA58
:101B780050493A4802F01AFB002802D0099B0D93FD
:101B8800002424A802F0DFF8AEE724A802F094FAB3
:101B9800431C03D124A802F0D6F8A5E7424B9A4685
:101BA800586024A802F088FA04005346D8600A2135
:101BB800FEF7DEFB53465B689B4658433E49FEF7FB
:101BC800D7FB534698618021244B9A460190009494
:101BD8005B463A4AC900504602F0B4FA5046FEF74E
:101BE800D3FC099B0B930024D4E70120FEF7E4FD06
:101BF8003348FEF7C9FC1C4B1B68324A94466344C1
:101C08000F93099B9946F4E60120FEF7E7FD2E485D
:101C1800FEF7BAFC144B1B682A4A94466344109397
:101C2800099B0A93EDE6F31EDBB2012B00D916E7F8
:101C38000D4B1B680C9A9B1A00D554E300260EE73F
:101C4800FEF758FD032801D0012608E71F4A07219F
:101C58001F48FEF761FD012601E7C0462C3E002023
:101C6800EC4D00083C3E00202C420020384E000875
:101C780000140140484E000810270000406402404C
:101C8800B04E0008DC010020E84C000800100140BC
:101C980000300040AAAA0000006400400034004060
:101CA800286002402864024024010020284E0008D1
:101CB800504E00088C4E0008A08601005C4E0008BB
:101CC800904E0008B80B0000A04E00085F0200000C
:101CD800345000082BA802F0D4F8BD4B9A68904203
:101CE80036D2FEF707FD032800D1B8E6B94B1B68CA
:101CF8000C9A9B1A00D5B2E6B748FEF745FCB54BDF
:101D08001B68FA229200944663440C932BA802F0B5
:101D18000AF8FEF7DDFCB14B00221A6001235B4292
:101D2800AF4A1360AF4A13609620800101F0DEFAD3
:101D3800AD4801F07FF80721AC4801F081F8FA209E
:101D480001F0B6FFE120400201F0D0FA032686E652
:101D5800A7492BA802F09FF816909D4B9B689842C4
:101D680053D3A448FEF710FC994B9968A04E300055
:101D7800FEF724FCA048FEF707FC3378AA2B03D112
:101D88009B4B5B78552B5ED09C48FEF7FDFB9C4E29
:101D980030000E300121FEF711FC9A48FEF7F4FBE3
:101DA80030000F300121FEF709FC9348FEF7ECFBE9
:101DB800F37B042B1ED9944B1B8A91492C228A5CF5
:101DC80093420CD2904A1C20115E1E20125E914252
:101DD80005DB8D4922228A5C934200D24FE28B4B6D
:101DE8001B68002B06D0864B9B7B042B02D0032B51
:101DF80000D038E2774B1B68FA229200944663447D
:101E08000C93FEF765FC032629E68148FEF7BCFB28
:101E1800042116A8FEF7D2FB2BA802F032F8169080
:101E2800042116A8FEF7CAFB7348FEF7ADFB2BA8E2
:101E380001F079FF674B1B68F533FF330C93FEF70E
:101E480047FC04260BE66A4B9B785F2B9CD1684BBA
:101E5800DB78812B98D1664B1B79902B94D1644BFE
:101E68009A7A120212B2597A0A439446644A61462F
:101E7800D182987B0002597B08430C901080197C12
:101E88000902DE7B31430E9151809E7C3602597CDB
:101E98000E4396801E7D3602D97C0E43D6809E7DE9
:101EA8003602597D3143119111811E7E3602D97D4A
:101EB8000E4356815E7E937B9E4202D01300002221
:101EC800DA734F4B9E73DB7BFF2B02D001334C4AF6
:101ED800D373474B26215E5C360236B225229A5CC4
:101EE800300010431290464A908128269E5D3602A3
:101EF80036B2B24627269E5DB34656465846064336
:101F080096822A20185C000282462920185C5646D0
:101F1800064356823820185C000282463720185C37
:101F28005646064336B2139656833E20185C000286
:101F380082463D20185C5646064316844020185CAD
:101F4800000282463F20185C5646064336B2149675
:101F5800D6834220185C000282464120185C56460F
:101F6800064396834620185C000200B2824645204C
:101F7800185C56460643B3461683CB20185C2826C1
:101F88009055CC20185C013E9055CD20185C5054DB
:101F9800CE20185C01395054AA31595C8A46242154
:101FA80050465054AC315B5CFA21C9008A46534410
:101FB8005384184B0C9A9A4202D80E9A9A422DD9F9
:101FC800064B47221A601448FEF7DEFA2FE7C04690
:101FD800DC0100202C420020CC4F00088C0000209F
:101FE8000000002004000020001001402C500008D0
:101FF8002C3E0020D04E0008E84C0008444F000852
:10200800AC010020584F0008240100209400002053
:10201800BC4E000870170000DC4E00086346002B19
:1020280012D10C9B002B0FD10E9B002B0CD1129BB5
:10203800002B09D1149B002B06D1139B002B03D135
:102048005B46002B00D183E001235B42AA4A136060
:10205800AA4A1360AA4B00221A600E990C9B9C4650
:102068006144FA235B00994200DCD0E00F9A002A11
:1020780003D0A44B1B689B1A17D4E1239B000C9A2E
:102088009A4204D3119B013B9BB2172B0DD89E4853
:10209800FEF77AFA0020FEF78FFB9A4B1B68FA22AC
:1020A800D20091469944099B0F93109A002A03D0B5
:1020B800944B1B689B1A1AD4944B5A88E1239B00B3
:1020C8009A4205D3914B5B89013B9BB2172B0ED8E3
:1020D8008F48FEF759FA0020FEF780FB894B1B68F2
:1020E800FA22D200944663440A93099B1093894BC1
:1020F8001B8A612B33D8272B5CD9282B00D843E6C1
:102108007F4B06221A608448FEF73EFAFEF7F2FA81
:10211800002800D138E6814B1B78012B00D133E62B
:10212800089B002B00D02FE67D4B1B68002B00D1AD
:102138002AE6072209217B48FEF7EEFA774B0122AF
:102148001A70704B1B68784A9446634408931BE6E0
:102158006B4B4E221A607548FEF716FA67E6684B15
:1021680003221A607248FEF70FFA634B00221A60C6
:102178006A4B1B78012B00D106E6FEF7BBFA002854
:1021880000D101E6089B002B00D0FDE5644B1B68DD
:10219800002B00D1F8E5072209216248FEF7BCFAB6
:1021A8005E4B01221A70574B1B685F4A9446634482
:1021B8000893E9E5524B08221A605E48FEF7E4F9F5
:1021C800FEF798FA012800D8DEE5544B1B78032B5C
:1021D80000D1D9E5089B002B00D0D5E5504B1B68F2
:1021E800002B00D1D0E5072209215348FEF794FAC5
:1021F800072209215148FEF78FFA484B03221A702B
:10220800404B1B68484A944663440893BCE54B46D8
:10221800002B00D0B8E53A4B07221A604848FEF771
:10222800B3F9FEF767FA002800D1ADE53B4B1B7800
:10223800012B00D1A8E5089B002B00D0A4E5384B62
:102248001B68002B00D19FE5072209213548FEF7BE
:1022580063FA324B01221A702A4B1B68324A9446A1
:102268006344089390E53748FEF78EF90120FEF79E
:10227800C7FA264B0022DA73224B1B68BAE52349BA
:102288002B228A5C934210D82F4B1B68002B00D15D
:10229800B0E52E48FEF778F90020FEF7B1FA1B4B9F
:1022A8000022DA73174B1B68A4E5184B9B7B052BA0
:1022B80003D8032B00D29DE504E0093BDBB2012BD8
:1022C80000D997E5204B1B68002B00D192E52048E8
:1022D800FEF75AF90020FEF793FA0C4B0022DA7346
:1022E800084B1B6886E5FEF705FA032801D1FFF7BE
:1022F800B6FB0026FFF7B3FB000000200400002017
:102308008C0000202C420020F44E0008AC01002074
:10231800044F0008240100202C4F0008DA01002097
:10232800A80100204850000810270000E84E0008C7
:10233800144F0008204F00083C50000820500008A7
:10234800384F0008644F0008940000208C4F0008A4
:10235800AC4F0008DFF834D00D480E490E4A002370
:1023680002E0D458C4500433C4188C42F9D30B4A41
:102378000B4C002301E013600432A242FBD301F0AE
:1023880095FC01F09FFE01F08DFC704700000820CD
:1023980000000020700000208C5000087000002011
:1023A80040420020F0B583B006001D00089CC368B9
:1023B8009B070CD103690327380018401F4201D03E
:1023C800012705E0002A4ED0002313604BE00027C8
:1023D800002A11D03B001B331B019B595B072FD5EB
:1023E8001D201060002907D03B001B331B019B599F
:1023F8002022121AD3400B603B001B331B01F31839
:102408005A680F231340A34206D83B001B331B0115
:10241800F3185B680F241C40002D26D008220021E9
:10242800684601F086FE3B01F3181A00B932FF3204
:1024380012680092BD33FF331B68019300220BE042
:102448000B20CEE793089B0069465B580321114097
:10245800C900CB40AB540132A242F3D32000002F75
:1024680005D0012F08D003B0F0BD0020F7E7F368CE
:1024780020221343F360F6E73369202213433361C4
:10248800F1E70000034B984201D00020704701207B
:10249800FCE7C04600340040F0B585B00600019165
:1024A8001F00032100E01900B068E0235B05184213
:1024B80019D1B369FF20184210D0B36836481843C1
:1024C800B060B468344D2C40AC42FAD04B1EDBB23D
:1024D8000029E8D10520404205B0F0BDB068E023EE
:1024E8005B0518424FD0B3681B0E03241C40032C15
:1024F8004CD00B2A04D01D2A18D003204042EBE709
:10250800019B5905230018331B0199510A9B082B7D
:102518003FD8230018331B01F3180A9A5A6008227F
:10252800002102A801F005FE002316E0019BD90056
:1025380004231943230018331B019951E6E799082E
:10254800F85C03221A40D20090408A0002A9515830
:102558000191084302A9505001330A9A9342EED3DD
:102568002301F3181A008932FF32029911608D3362
:10257800FF33039A1A6018342401A3590122134324
:10258800A3510A98A8E701204042A5E7022040424B
:10259800A2E7042040429FE78080800010B5034AEC
:1025A8000021034801F0C5FD10BDC0460828000001
:1025B80000020020F0B5D6464F464646C0B5040096
:1025C8000D001600FFF7EAFF2300C82202E00022F0
:1025D80004C30A00511E002AF9D1236801321343AB
:1025E80023606368DB07FCD5384B9D4206D0384B27
:1025F8009D4203D0374BE361374BE36123682022C8
:1026080013432360002E5CD02368103A9343236061
:10261800236808221343236080239B009946E258CD
:1026280001231A434946625087229200A1589943D0
:10263800A150812189008C466158994360462150F8
:102648008327BF00E1599943E1518526B600A15976
:102658009943A15100218A46902189005046605033
:1026680004316050A1581943A150A158884602214D
:1026780040468843A05060462058884380466046BC
:1026880045462550E0590843E051A7598F43A751C3
:1026980034365046A0510436A051A5582943A150BC
:1026A800626912210A4362614A46A2589A4349461E
:1026B800625022689A432260E0BCBA46B146A846F6
:1026C800F0BD2368102213432360A1E7A086010010
:1026D80040420F0001002B0001001C00F0B5CE465F
:1026E800474680B583B08146FFF7CCFE04008300DF
:1026F8001B181B021B189B00194A9F58FF2F27D82D
:10270800174E85002D182D022B189B007A1C9A5104
:10271800BB009846D91989002B189B00C9180B00D3
:1027280008339B19043389190A0008320431082038
:1027380000904846FFF736FE4744BF002D19AD000C
:102748007F19F719786103B0C0BCB946B046F0BD2F
:1027580000230093002200214846FFF723FEF2E7FA
:102768000002002010B50248FFF7B8FF10BDC046B0
:102778000064004010B50248FFF7B0FF10BDC04626
:102788000064004010B50248FFF7A8FF10BDC0461E
:102798000034004010B50248FFF7A0FF10BDC04646
:1027A8000034004010B5FFF76DFE83001B181B02B4
:1027B8001B189B0003495858002801D0CA185069B3
:1027C80010BDC04600020020F0B583B00D00170010
:1027D8000193FFF757FE06008400241824022418EA
:1027E800A400234BE358002B01D0012805D900236E
:1027F8003B600027380003B0F0BD83001B181B02A4
:102808001B189B001A4AD3185A682A609A683A60BB
:102818005F69089B9F4200D91F00B400A4192402D5
:10282800A11989000831124D491904313A0001985B
:1028380001F06CFC72B6A3199B005A59013A1C00AE
:102848005A51FF2A01D962B6D4E7B3009B191B027B
:102858002000074C001904309B199B0014331919E8
:10286800043193009A18920001F050FCEBE7C0463F
:102878000002002010B582B00100A94A106C802423
:10288800A40420431064136C23400193019B00228D
:10289800A448FFF78FFEA44B1C681F21802040002E
:1028A800802305E0400001221A40104301395B08EB
:1028B800002BF7D18840FDF747FEFF231840400062
:1028C800FC3B83409C431F2180204000802305E07F
:1028D800400001221A40104301395B08002BF7D150
:1028E8008840FDF731FEFF2318404000FD3B834040
:1028F8001C438D4A1460536A0F218B4306390B43DE
:1029080053629468163180204000802305E040001F
:1029180001221A40104301395B08002BF7D1884087
:10292800FDF712FEFF2318404000FC3B83409C4308
:102938001F2180204000802305E0400001221A402A
:10294800104301395B08002BF7D18840FDF7FCFDE7
:10295800FF2318404000FD3B83401C43724B9C60A2
:102968005A6872490A405A60DC682131FF31802078
:102978004000802305E0400001221A40104301393D
:102988005B08002BF7D18840FDF7DEFDFF231840D8
:102998004000FC3B83409C43802300E05B08002B05
:1029A800FCD1614BDC601C681F21802080008023E3
:1029B8005B0005E0400001221A40104301395B0822
:1029C800002BF7D18840FDF7BFFDFF2318404000DA
:1029D800FC3B83409C431F218020800080235B00B8
:1029E80005E0400001221A40104301395B08002B22
:1029F800F7D18840FDF7A8FDFF2318404000FD3BB4
:102A080083401C43484B1C605C6A1F210220012341
:102A180005E0400001221A40104301395B08002BF1
:102A2800F7D18840FDF790FDFF2318408000F03B68
:102A380083409C431F210220012305E0400001221E
:102A48001A40104301395B08002BF7D18840FDF785
:102A58007BFDFF2318408000F63B83401C43324B2C
:102A68005C629C681F218020800080235B0005E059
:102A7800400001221A40104301395B08002BF7D1AE
:102A88008840FDF761FDFF2318404000FC3B834070
:102A98009C431F218020800080235B0005E04000CC
:102AA80001221A40104301395B08002BF7D18840F6
:102AB800FDF74AFDFF2318404000FD3B83401C43BF
:102AC800194B9C605A681A490A405A60DC681F21F1
:102AD8008020800080235B0005E0400001221A402E
:102AE800104301395B08002BF7D18840FDF72CFD16
:102AF800FF2318404000FC3B83409C4380235B003D
:102B080000E05B08002BFCD1074BDC60094B8022FE
:102B180052031A60802292031A6002B010BDC046A8
:102B2800003802400064004000040240FFFEFFFF3E
:102B3800FFFDFFFF00E100E010B582B00100B44ADC
:102B4800106C8024A40120431064136C234001936B
:102B5800019B0022AF48FFF72DFDAF4B1C681F21DA
:102B68000820042305E0400001221A4010430139DF
:102B78005B08002BF7D18840FDF7E6FCFF231840DF
:102B88004000FC3B83409C431F210820042305E0B0
:102B9800400001221A40104301395B08002BF7D18D
:102BA8008840FDF7D1FCFF2318404000FD3B8340DF
:102BB8001C43994B1C601C6A1F210820042305E054
:102BC800400001221A40104301395B08002BF7D15D
:102BD8008840FDF7B9FCFF2318408000F03B834094
:102BE8009C431F210820042305E0400001221A40CD
:102BF800104301395B08002BF7D18840FDF7A4FC8E
:102C0800FF2318408000F43B83401C43824B1C6226
:102C18009C681F210820042305E0400001221A4077
:102C2800104301395B08002BF7D18840FDF78CFC75
:102C3800FF2318404000FC3B83409C431F21082091
:102C4800042305E0400001221A40104301395B08C3
:102C5800002BF7D18840FDF777FCFF231840400090
:102C6800FD3B83401C436C4B9C605A6808218A4397
:102C78005A60DC6817310820042305E0400001226F
:102C88001A40104301395B08002BF7D18840FDF743
:102C98005BFCFF2318404000FC3B83409C4304231B
:102CA80000E05B08002BFCD15B4BDC601C681F213B
:102CB8001020082305E0400001221A401043013982
:102CC8005B08002BF7D18840FDF73EFCFF23184036
:102CD8004000FC3B83409C431F211020082305E053
:102CE800400001221A40104301395B08002BF7D13C
:102CF8008840FDF729FCFF2318404000FD3B834036
:102D08001C43454B1C601C6A1F211020082305E04A
:102D1800400001221A40104301395B08002BF7D10B
:102D28008840FDF711FCFF2318408000F03B8340EA
:102D38009C431F211020082305E0400001221A406F
:102D4800104301395B08002BF7D18840FDF7FCFBE5
:102D5800FF2318408000F43B83401C432E4B1C6229
:102D68009C681F211020082305E0400001221A401A
:102D7800104301395B08002BF7D18840FDF7E4FBCD
:102D8800FF2318404000FC3B83409C431F21102038
:102D9800082305E0400001221A40104301395B086E
:102DA800002BF7D18840FDF7CFFBFF2318404000E8
:102DB800FD3B83401C43184B9C605A6810218A4392
:102DC8005A60DC680F311020082305E0400001221A
:102DD8001A40104301395B08002BF7D18840FDF7F2
:102DE800B3FBFF2318404000FC3B83409C4308236F
:102DF80000E05B08002BFCD1074BDC60074B80220E
:102E08009200DA608022D200DA6002B010BDC046BB
:102E180000380240003400400004024000E100E0B5
:102E280000BEFEE7024A1368013313607047C046CC
:102E38002C420020014B18607047C046283E0020F5
:102E480010B50E4B1B68DB0703D50C4B5B681B04E6
:102E5800F7D10B4A93688024A343936003E0027878
:102E68009A62013021004C1E002905D0054B1B68D1
:102E7800DA691206FAD5F2E710BDC046586002407A
:102E880000480040283E002010B50400FDF7D4F9A2
:102E980001002000FFF7D4FF10BD092802D8303008
:102EA800C0B270475730C0B2FBE730B583B00400FA
:102EB80001AB00225A7014E020780009FFF7EDFFFB
:102EC8006B46187101A8FFF7DFFF23780F20184021
:102ED800FFF7E3FF6B46187101A8FFF7D5FF013430
:102EE80029004D1E0029E7D103B030BD70B582B06E
:102EF8000400C84B196B80208003014319631A6BC7
:102F080002400192019A1A6C8021C9020A431A648C
:102F18001B6C0B400093009BBF4B1A68BF491140C4
:102F2800BF4A0A431A60BF48BF491A68C023134002
:102F3800402B27D0B84B9860D960B74B5A68120C11
:102F480012048421C9000A435A601A68B74E3240F5
:102F5800802109050A431A601A68012002431A6091
:102F6800B34B1868AD4D0540B248284318601A683D
:102F7800324011431960B04B1D681F21802040006A
:102F8800802309E0A44BD8609960D6E7400001226D
:102F98001A40104301395B08002BF7D18840FDF730
:102FA800D3FAFF2318404000FC3B83409D431F2178
:102FB80080204000802305E0400001221A40104391
:102FC80001395B08002BF7D18840FDF7BDFAFF23D4
:102FD80018404000FD3B83401D43974A1560536AE3
:102FE8000F218B4308390B435362956818318020B1
:102FF8004000802305E0400001221A4010430139B7
:103008005B08002BF7D18840FDF79EFAFF23184094
:103018004000FC3B83409D431F21802040008023CB
:1030280005E0400001221A40104301395B08002BDB
:10303800F7D18840FDF788FAFF2318404000FD3B90
:1030480083401D437C4B9D605A687C490A405A6006
:10305800DD682131FF3180204000802305E04000F9
:1030680001221A40104301395B08002BF7D1884030
:10307800FDF76AFAFF2318404000FC3B83409D435C
:103088001F2180204000802305E0400001221A40D3
:10309800104301395B08002BF7D18840FDF754FA3B
:1030A800FF2318404000FE3B83401D43624BDD6018
:1030B8001D681F218020800080235B0005E0400000
:1030C80001221A40104301395B08002BF7D18840D0
:1030D800FDF73AFAFF2318404000FC3B83409D432C
:1030E8001F218020800080235B0005E04000012232
:1030F8001A40104301395B08002BF7D18840FDF7CF
:1031080023FAFF2318404000FD3B83401D434A4BF0
:103118001D605D6A1F210220012305E04000012295
:103128001A40104301395B08002BF7D18840FDF79E
:103138000BFAFF2318408000F03B83409D431F217A
:103148000220012305E0400001221A401043013902
:103158005B08002BF7D18840FDF7F6F9FF231840EC
:103168008000F83B83401D43334B5D629D681F21FF
:103178008020800080235B0005E0400001221A4087
:10318800104301395B08002BF7D18840FDF7DCF9C3
:10319800FF2318404000FC3B83409D431F218020B3
:1031A800800080235B0005E0400001221A401043A4
:1031B80001395B08002BF7D18840FDF7C5F9FF23DB
:1031C80018404000FD3B83401D431B4B9D605A68DF
:1031D8001B490A405A60DD681F2180208000802337
:1031E8005B0005E0400001221A40104301395B08EA
:1031F800002BF7D18840FDF7A7F9FF2318404000BE
:10320800FC3B83409D431F218020800080235B007E
:103218001EE0C04600380240286002401F80FCFFC4
:103228000005020024480040083A0020FFFFFFE1A3
:103238005860024040040200000C0240FFFEFFFFFD
:10324800FFFDFFFF400001221A40104301395B08CF
:10325800002BF7D18840FDF777F9FF2303405B0087
:10326800012632009A4015431A4BDD601A49902214
:103278008B58302083438B50184D2B68843A9343E6
:1032880013432B602B68164A13402B606B68154A52
:1032980013406B60144B18686308C0182100FCF7D2
:1032A800DDFF0004000CE8602B681E432E600B4B0A
:1032B800DB699B02FBD5094BDB695B02F7D5074B42
:1032C8009A6840210A439A609A6840318A439A6012
:1032D80002B070BD000C02400038024000480040B7
:1032E800FFE9FFEFFFCFFFFF0800002070B584B0B3
:1032F8000400D64B196B8020C003014319631A6B75
:1033080002400392039A596C1022114359645B6C72
:103318001A400292029BCE4A136801210B431360A4
:10332800CC4B1A688A431A601A68CB491140CB4AB9
:103338000A431A60CA48CB491A68C0231340402B75
:103348001BD0C44B9860D960C24B5A68120C120447
:10335800802109010A435A601A68C3491140802232
:1033680012050A431A601A6801210A431A60BF4B02
:103378001D681E314020202309E0B64BD8609960B3
:10338800E2E7400001221A40104301395B08002B94
:10339800F7D18840FDF7D8F8FF2318404000FC3BE0
:1033A80083409D431F214020202305E04000012247
:1033B8001A40104301395B08002BF7D18840FDF70C
:1033C800C3F8FF2318404000FD3B83401D43A74B33
:1033D8001D601D6A1F214020202305E040000122B6
:1033E8001A40104301395B08002BF7D18840FDF7DC
:1033F800ABF8FF2318408000F03B83409D431F211A
:103408004020202305E0400001221A4010430139E2
:103418005B08002BF7D18840FDF796F8FF2318408A
:103428008000F83B83401D43904B1D629D681F211F
:103438004020202305E0400001221A4010430139B2
:103448005B08002BF7D18840FDF77EF8FF23184072
:103458004000FC3B83409D431F214020202305E082
:10346800400001221A40104301395B08002BF7D1B4
:103478008840FDF769F8FF2318404000FD3B834072
:103488001D437A4B9D605A6840218A435A60DD6823
:1034980021394020202305E0400001221A40104332
:1034A80001395B08002BF7D18840FDF74DF8FF2361
:1034B80018404000FC3B83409D431F2140202023AF
:1034C80005E0400001221A40104301395B08002B37
:1034D800F7D18840FDF738F8FF2318404000FE3B3D
:1034E80083401D43614BDD601D681F218020000261
:1034F8008023DB0105E0400001221A401043013916
:103508005B08002BF7D18840FDF71EF8FF23184011
:103518004000FC3B83409D431F2180200002802304
:10352800DB0105E0400001221A40104301395B0825
:10353800002BF7D18840FDF707F8FF23184040001B
:10354800FD3B83401D43494B1D605D6A1F21802060
:10355800402305E0400001221A40104301395B086E
:10356800002BF7D18840FCF7EFFFFF2318408000BD
:10357800F03B83409D431F218020402305E040000D
:1035880001221A40104301395B08002BF7D188400B
:10359800FCF7DAFFFF2318408000FB3B83401D4304
:1035A800324B5D629D681F21802000028023DB0171
:1035B80005E0400001221A40104301395B08002B46
:1035C800F7D18840FCF7C0FFFF2318404000FC3BC0
:1035D80083409D431F21802000028023DB0105E0FA
:1035E800400001221A40104301395B08002BF7D133
:1035F8008840FCF7A9FFFF2318404000FD3B8340AB
:103608001D431A4B9D605A6819490A405A60DD6883
:103618001F21802000028023DB0105E040000122F9
:103628001A40104301395B08002BF7D18840FCF79A
:103638008BFFFF2318404000FC3B83409D431F2124
:10364800802000028023DB011AE0C04600380240D7
:1036580000100140406402401F80FCFF000502008A
:103668002410014008320020FFFFFFE1000402405F
:10367800FF7FFFFF400001221A40104301395B0819
:10368800002BF7D18840FCF75FFFFF2303405B0066
:10369800012632009A4015431E4BDD601E4B596CC3
:1036A800102211435964596C0A400192019A9021E1
:1036B8005A58032082435A50184D2B680C229343C2
:1036C80013432B602B68164A13402B606B68154A0E
:1036D80013406B60144B18686308C0182100FCF78E
:1036E800BDFD0004000CE8602B681E432E600B4BE8
:1036F800DB699B02FBD5094BDB695B02F7D5074BFE
:103708009A6840210A439A609A6840318A439A60CD
:1037180004B070BD000402400038024000100140AF
:10372800FFE9FFEFFFCFFFFF0800002030B585B0AD
:103738000400CE4B196B8020C003014319631A6B38
:1037480002400392039A596C2022114359645B6C1E
:103758001A400292029BC64B1A6801218A431A60DA
:103768001A68C4491140C44A0A431A60C348C44984
:103778001A68C0231340402B1BD0BD4B9860D960FA
:10378800BB4B5A68120C1204802109010A435A6083
:103798001A68BC491140A02212050A431A601A6827
:1037A80001210A431A60B84B1D681E3140202023AE
:1037B80009E0AF4BD8609960E2E7400001221A4067
:1037C800104301395B08002BF7D18840FCF7BCFE99
:1037D800FF2318404000FC3B83409D431F214020AD
:1037E800202305E0400001221A40104301395B08FC
:1037F800002BF7D18840FCF7A7FEFF2318404000B4
:10380800FD3B83401D43A04B1D601D6A1F214020C6
:10381800202305E0400001221A40104301395B08CB
:10382800002BF7D18840FCF78FFEFF23184080005B
:10383800F03B83409D431F214020202305E04000AA
:1038480001221A40104301395B08002BF7D1884048
:10385800FCF77AFEFF2318408000F73B83401D43A6
:10386800894B1D629D681F214020202305E04000F0
:1038780001221A40104301395B08002BF7D1884018
:10388800FCF762FEFF2318404000FC3B83409D4349
:103898001F214020202305E0400001221A40104348
:1038A80001395B08002BF7D18840FCF74DFEFF2358
:1038B80018404000FD3B83401D43734B9D605A6890
:1038C80040218A435A60DD6821394020202305E0E1
:1038D800400001221A40104301395B08002BF7D140
:1038E8008840FCF731FEFF2318404000FC3B834032
:1038F8009D431F214020202305E0400001221A405B
:10390800104301395B08002BF7D18840FCF71CFEF7
:10391800FF2318404000FD3B83401D435A4BDD60A8
:103928001D681F218020402305E0400001221A4025
:10393800104301395B08002BF7D18840FCF704FEDF
:10394800FF2318404000FC3B83409D431F218020FB
:10395800402305E0400001221A40104301395B086A
:10396800002BF7D18840FCF7EFFDFF2318404000FB
:10397800FD3B83401D43444B1D601D6A1F21802071
:10398800402305E0400001221A40104301395B083A
:10399800002BF7D18840FCF7D7FDFF2318408000A3
:1039A800F03B83409D431F218020402305E04000D9
:1039B80001221A40104301395B08002BF7D18840D7
:1039C800FCF7C2FDFF2318408000F73B83401D43EE
:1039D8002D4B1D629D681F218020402305E040007B
:1039E80001221A40104301395B08002BF7D18840A7
:1039F800FCF7AAFDFF2318404000FC3B83409D4391
:103A08001F218020402305E0400001221A40104376
:103A180001395B08002BF7D18840FCF795FDFF239F
:103A280018404000FD3B83401D43174B9D605A687A
:103A380080218A435A60DD6861398020402305E08F
:103A4800400001221A40104301395B08002BF7D1CE
:103A58008840FCF779FDFF2318404000FC3B834079
:103A68009D431F218020402316E0C04600380240B5
:103A7800286402401F80FCFF000502002414014056
:103A8800082A0020FFFFFFE1000802404000012251
:103A98001A40104301395B08002BF7D18840FCF726
:103AA80053FDFF2318404000FD3B83401D43264B38
:103AB800DD60264B596C202211435964596C0A4029
:103AC8000192019A90215A58214802405A50214D9A
:103AD8002B680C22934313432B606B681E4A1A40D1
:103AE80080235B0213436B606B681C4A1A40802377
:103AF8009B0213436B602B68194A13402B606B6859
:103B0800184A13406B60184B18686308C0182100E6
:103B1800FCF7A4FB0004000CE8602B6801221343A7
:103B28002B600C4BDB699B02FBD50A4BDB695B0204
:103B3800F7D5084B9A6840210A439A609A68403141
:103B48008A439A6005B030BD000802400038024040
:103B5800FFF3FFFF00140140FFFFFEFFFFFFFDFF23
:103B6800FFE9FFEFFFCFFFFF08000020F0B5C646D2
:103B780000B51600474B9C466044850201248C40E2
:103B88002B689846670820003B001F2105E040008D
:103B980001221A40104301395B08002BF7D18840F5
:103BA800FCF7D2FCFF2318404000FC3B8340424610
:103BB8009A43904620001F2205E0400001233B4025
:103BC8001843013A7F08002FF7D19040FCF7BCFC5E
:103BD800FF2318404000FE3B834042461A432A60B8
:103BE800AB689846670820003B001F2105E04000AD
:103BF80001221A40104301395B08002BF7D1884095
:103C0800FCF7A2FCFF2318404000FC3B83404246DF
:103C18009A43904620001F2205E0400001233B40C4
:103C28001843013A7F08002FF7D19040FCF78CFC2D
:103C3800FF2318404000FD3B834042461A43AA60D8
:103C4800EB689846670820003B001F2105E040000C
:103C580001221A40104301395B08002BF7D1884034
:103C6800FCF772FCFF2318404000FC3B83404246AF
:103C78009A43130000E07F08002FFCD1EB60002E70
:103C880005D000239C40AC6180BCB846F0BD102331
:103C9800F8E7C04680001000014B18687047C0461E
:103CA8002C42002010B5FDF751FAFCE770470000E0
:103CB80082B0084B1B680193019B431C00D0013064
:103CC800002805D0034B1B68DB03F9D50138F7E75B
:103CD80002B0704710E000E0014B18607047C04622
:103CE80008000020F8B504000E0015001F001C2273
:103CF800002100F01EFA2A000021300000F019FA15
:103D080066606561A760F8BD70B5040008002569A4
:103D18006169FCF729FB2161A94200D170BDFFF759
:103D2800BBFF2060FAE710B5040042690021406833
:103D380000F0FFF900232360E3602361A36110BD55
:103D48000369C360704770B50400C068A669F307CB
:103D58000ED42569854223D063681B5C0A2B17D0D3
:103D680001306169FCF700FB08008D42F4D117E0CF
:103D78002369834214D063681B5C0A2B10D1093B6A
:103D88001E43A66101306169FCF7EEFAE16007E0C5
:103D9800093B1E43A66101306169FCF7E5FAE16061
:103DA80070BDF0B5D6464F4680B583B005000C000F
:103DB80091460193C06848446969FCF7D5FA0F0039
:103DC800A868FCF739FA2B69BB4252D06B68DB193B
:103DD800236004002600013C002E2CD06B689A4614
:103DE800BA44DA5DAB681B5D9A42F3D16C69E0199D
:103DF800EB68C01A4B46C01A2100FCF7B5FA0E0052
:103E0800019B002B0DD0781C2100FCF7ADFAE9606E
:103E18000123AA699A431300AA61524612780A2A12
:103E280005D0300003B0C0BCBA46B146F0BD093A6F
:103E38001343AB61F5E701376B69BB4208D0EA6809
:103E4800BA42EED02A69BA42EBD0BB42C1D8E8E701
:103E5800EB68FE1A4B46F61A019B002B05D000238F
:103E6800EB600133AA699A43AA61802109060E43CF
:103E7800D7E70026D5E710B501230022FFF791FF09
:103E880010BD10B541690369CB18C068181AFCF752
:103E98006BFA080010BDF8B504000F001500FFF715
:103EA800F0FFA84200D80500E16863695E1AB542D0
:103EB80000D22E0063689C4661443200380000F04E
:103EC80025F9E36898196169FCF74EFAE160B819B9
:103ED800B5420FD02669B54200D22E0063689C46D1
:103EE8006144320000F012F9E36898196169FCF73F
:103EF8003BFAE1602800F8BD70B50400FFF7C1FF88
:103F0800E168002504E0481C6169FCF72DFA3000DF
:103F1800461E002805D0013563685B5C0A2BF2D188
:103F2800280070BDF0B5C64600B505000F009046E4
:103F3800FFF7A7FF0400E968002308E05C1C0A2AD1
:103F48000FD0481C6969FCF70FFA23003400661E7D
:103F5800002C0BD06A68525C4345EFD23A700137A7
:103F6800ECE7A04502D900223A709C1C200080BCD6
:103F7800B846F0BD30B583B005000023002201A982
:103F8800FFF70FFF002800D001DB03B030BD44006D
:103F980064080023220001A92800FFF702FF002877
:103FA80001DB2018F1E70020EFE770B506000D00EF
:103FB8001400FFF7DFFF002800D170BD2900300092
:103FC800FFF759FF206000236B6063602368002BB4
:103FD80003DB20686368C018EFE75B005B082360B9
:103FE800291D3000FFF747FF6060F2E770B584B025
:103FF8000C006A4602A9FFF7D8FF031E52D0E1B2AF
:1040080000250020002213E0019B002B4ED0013B2D
:104018000193039B5E1C03961B7815E0002A1BD0B6
:104028000A291DD0102922D04843C0180132230084
:104038005C1E002B32D0009B002BE5D0013B009387
:10404800029B5E1C02961B780028E7D1012AE5D165
:10405800782BE3D11021E9E72D2BE1D10125E5E704
:10406800303BDBB2092BDFD9012040421CE01E00A7
:10407800303EF6B2092E0FD91E00613EF6B2052E6B
:1040880002D8573BDBB2CFE71E00413EF6B2052E01
:104098000FD8373BDBB2C7E73300C5E7002D03D0A5
:1040A800404201E00120404204B070BD012040427E
:1040B800FAE701204042F7E710B50A21FFF796FF1B
:1040C80010BD000070B500260C4D0D4C641BA410EB
:1040D800A64209D1002600F0B5FC0A4D0A4C641B23
:1040E800A410A64205D170BDB300EB58984701361D
:1040F800EEE7B300EB5898470136F2E78450000822
:1041080084500008845000088850000810B5884280
:1041180002D98B18984203D3002307E08B5C8354A1
:10412800013AFBD210BDCC5CC45401339A42FAD197
:10413800F8E703008218934200D1704719700133E1
:10414800F9E700000CB430B5174B0C001D689DB0A2
:10415800002908DA8B2301202B6040421DB030BCB7
:1041680008BC02B0184782236A469B00938200234A
:1041780002900690994200D04B1E049307930123A6
:104188006A465B42D382280021AB209A02A9019398
:1041980000F084F8431C01DA8B232B60002CDDD05F
:1041A8000023029A1370D9E70C0000200A7830B572
:1041B800002A0CD130BD9A4208D10123CC5C002CD6
:1041C800F8D0C55CA54201D10133F7E70130037887
:1041D800002BF0D11800EDE7F0B58E6885B0070028
:1041E8000C00039201939E423CD890238A89DB00FD
:1041F8001A4234D00969236860695B1A0293032361
:104208004343DD0FED18019B029801331B186D1015
:10421800AB4200D91D00530532D52900380000F003
:104228003FFB061E09D10C233B6040230120A289D5
:1042380040421343A38105B0F0BD029A216900F002
:10424800BAFAA389144A1A4080231343A381029B14
:104258002661F61826606561019EED1AA560019B2E
:104268009E4200D9019E320003992068FFF74EFF55
:10427800A36800209B1BA36023689E192660DAE7C9
:104288002A00380000F082FB061EE0D138002169C0
:1042980000F09AFAC7E7C0467FFBFFFFF0B5A1B070
:1042A80003901D008B890F0016001B0611D50B69A2
:1042B800002B0ED1402100F0F3FA38603861002855
:1042C80005D10C23039A0138136021B0F0BD4023B7
:1042D8007B61002308AC6361203363761033A376D7
:1042E800079535002B78002B01D0252B47D1AB1B28
:1042F8000593B5420CD0320039000398FFF76CFFE4
:10430800431C00D1AEE06269059B94466344636137
:104318002B78002B00D1A5E00122002352426260D5
:1043280004A9543252186E1C2360E360A360137012
:10433800A36505223178544800F032FA751C00282C
:104348001FD12268D30604D5532304A95B18202162
:104358001970130704D5532304A95B182B2119706E
:1043680033782A2B16D0350000210A20E3682A78F2
:104378006E1C303A092A4ED9002911D117E00135AF
:10438800B0E7414B2268C01A0123834013432E0033
:104398002360CEE7079B191D1B680791002B01DBE3
:1043A8000B9304E05B42E3600223134323602B7802
:1043B8002E2B0AD16B782A2B35D1079B02351A1D73
:1043C8001B680792002B2BDB0993304E0322300029
:1043D800297800F0E5F9002806D04023801B8340A7
:1043E80022680135134323602978062228486E1C69
:1043F800217600F0D5F900283CD0264B002B25D19A
:104408000722079B07339343083307936369049A8A
:104418009B18636165E74343350001219B18A6E7B4
:1044280001235B42D0E700230A201A0001356360AC
:1044380029786E1C3039092903D9002BC5D0099277
:10444800C3E74243350001235218F1E707AB009355
:104458003A002100104B0398AFF300800490049BAE
:104468000133D3D1BB890D985B0600D42DE7012019
:1044780040422AE707AB00933A002100064B039815
:1044880000F07CF8EAE7C046515000085750000891
:104498005B50000800000000E1410008F7B5150076
:1044A80001938A680B690C000090934200DA1300AC
:1044B80022002B6043321278002A01D001332B608E
:1044C80023689B0602D52B6802332B6022680623DB
:1044D80017001F401A4227D0230043331B785A1E67
:1044E80093412268920630D4220001990098089ED0
:1044F8004332B047431C25D0062320682A68E16868
:1045080000250340042B03D18D1AEB43DB171D4014
:10451800A3682269934201DD9B1AED180027BD426A
:1045280020D1002010E00137E3682A689B1ABB42BB
:10453800D2DD2200012301990098089E1932B04764
:10454800431CF0D101204042FEBD3020E118433128
:10455800087021005A1C45310978A21843320233E9
:104568001170C1E72200012301990098089E1A32B0
:10457800B047431CE6D00137D1E70000F0B58BB057
:1045880006920A0043320793059004920A7E0C00B3
:10459800109B782A07D8622A09D8002A00D1C1E0DE
:1045A800582A00D18CE026004236327022E01000F2
:1045B80063381528F7D8FBF747FE16001F00F6FFEB
:1045C800F6FFF6FFF6FF1F00F6FFF6FFF6FFF6FF11
:1045D800A80036009A00F6FFF6FFB900F6FF36008D
:1045E800F6FFF6FF9E0026001A684236111D196074
:1045F800136833700123A7E0086819680A1D0506C7
:104608000BD50D681A60002D03DA2D23049A6D422C
:104618001370614B0A2703931BE00D681A6041066B
:10462800F1D52DB2EFE70D681968081D18602E0640
:1046380001D50D6803E06D06FBD50D68ADB2564B8C
:10464800082703936F2A00D0023723000022433340
:104658001A706368A360002B03DB0422216891436E
:104668002160002D02D1049E002B0CD0049E28004E
:104678003900FBF779FE039B013E5B5C33702B002E
:1046880005009F42F3D9082F09D12368DB0706D517
:1046980063682269934202DC3023013E3370049B35
:1046A8009B1B2361079B210000930598069B09AA81
:1046B800FFF7F4FE431C4CD1012040420BB0F0BD83
:1046C80045310A70344A03921A68216820CA1A6070
:1046D800080616D5CB0702D52023194321601027D9
:1046E800002DB2D1202322689A432260ADE7202210
:1046F80009680A4322602200782145321170274A4E
:10470800E1E74806E6D5ADB2E4E71A680D68101D82
:104718004969186013682E0601D5196002E06D0614
:10472800FBD519800023049E2361BBE71A68111D7D
:104738001960166800213000626800F031F800281E
:1047480001D0801B6060636823610023049A1370A2
:10475800A8E72369320006990598079DA847431CD6
:10476800AAD023689B0715D4099BE0689842A5DA6C
:104778001800A3E72200012306990598079E19321D
:10478800B047431C98D00135E368099A9B1AAB429D
:10479800F0DCE9E70025F7E76250000873500008ED
:1047A800C9B28218904201D10020704703788B4229
:1047B800FBD00130F6E7002310B59A4200D110BDB6
:1047C800CC5CC4540133F8E770B50500002910D05B
:1047D8000C1F2368002B00DAE418280000F018F9F1
:1047E8001D4A1368002B05D163601460280000F08F
:1047F80017F970BDA34208D9216860188342F3D124
:1048080018685B6841182160EEE71A005B68002BA6
:1048180001D0A342F9D911685018A0420BD12068E1
:104828000918501811608342E0D118685B68411874
:1048380011605360DAE7A04202D90C232B60D5E758
:1048480021686018834203D118685B6841182160A9
:1048580063605460CAE7C0463042002070B50F4E0E
:104868000D0031680400002902D100F0BFF8306063
:104878002900200000F0BAF8431C0AD00323C51C05
:104888009D43A84207D0291A200000F0AFF8431C26
:1048980001D101256D42280070BDC0463442002078
:1048A800F7B50322CB1C9343083306001F000C2BDB
:1048B80032D20C27B94231D8300000F0A9F8324D75
:1048C8002B681C00002C2ED139003000FFF7C6FFE2
:1048D8000400431C1ED12C682500002D4AD12368F2
:1048E8002900E3183000019300F080F8019B83420F
:1048F80043D123680337FF1A03239F4308370C2F3C
:1049080000D20C2739003000FFF7A8FF431C34D031
:104918002368DF19276013E0002BCBDA0C2300256E
:1049280033602800FEBD2268D11B20D40B2917D97B
:10493800E2192760A34211D12A60636811605360AD
:104948003000250000F06CF807220B35231D954335
:10495800EA1A9D42E5D05B1BA350E2E75A60ECE7F8
:104968006268A34201D12A60EAE75A60E8E72300B7
:104978006468A7E72C006D68AFE70C23300033604C
:1049880000F04EF8CDE7C04630420020F7B50700EA
:104998000E001400002905D11100FFF781FF050062
:1049A8002800FEBD002A03D1FFF70EFF2500F7E718
:1049B80000F03EF80190844203D835004308A34232
:1049C800EED321003800FFF76BFF051EE8D0019BEE
:1049D80022009C4200D91A0031002800FFF7EBFEA4
:1049E80031003800FFF7F0FEDAE70000002370B569
:1049F800064D040008002B60FBF7C4FD431C03D1DF
:104A08002B68002B00D0236070BDC04638420020C0
:104A180010B5024800F014F810BDC0463C42002012
:104A280010B5024800F00DF810BDC0463C42002009
:104A38000B1F1B68181F002B01DA0B58C018704792
:104A480070477047F8B5C046F8BC08BC9E4670472A
:0C4A5800F8B5C046F8BC08BC9E4670478C
:104A64000100010000000000000000003078000098
:104A740020652000207320002055200020202020C5
:104A84003E3E3E20696E76207C20000020202020BF
:104A94003E3E3E20626D73207C2000004932433A42
:104AA4002070763120676D707074206F66660A001E
:104AB4004932433A2070763120676D7070742068F3
:104AC4006967680A000000004932433A20666F7241
:104AD4006365206F6666677269640A004932433A07
:104AE400206175746F206772696420636F6E6E65F0
:104AF4006374696F6E0A00004932433A20666F722C
:104B0400636520677269647469650A004932433ACF
:104B140020666F726365206D616E75616C207374BD
:104B24006F70206469736368617267650A000000CE
:104B34004932433A20666F7263652073656C662060
:104B44007573650A000000004932433A20617574A8
:104B54006F2073656C66207573650A008808000809
:104B6400D20A0008F80A00086E0800086E08000857
:104B74006E0800086E0800086E0800086E08000839
:104B84006E0800081E0B0008320B0008400B0008DA
:104B9400540B0008860B0008AE0B000820325E336D
:104BA4003266697800000000200A000052657365CF
:104BB400740A0000494E56206F722043414E206112
:104BC400637469766974792074696D656F75740AA4
:104BD40000000000696E76203E3E3E20202020200A
:104BE4007C200000202020202020202020202020A5
:104BF4007C2054696D657374616D703A2000000007
:104C0400626D732063616E2074696D656F75740ADB
:104C140000000000626D73203E3E3E2020202020D4
:104C24007C20000020202020202020202020202064
:104C34007C20566261743D25642E256456094962C0
:104C440061743D25642E25644109576261743D25D4
:104C54006C645709536F433D256409456261743D93
:104C640025642E25646B57680A000000666F726322
:104C740065206261747420736F630A002020202011
:104C840020202020202020207C20566261746D6129
:104C9400783D25642E25645609566261746D696EEB
:104CA4003D25642E2564560949636D61783D25646C
:104CB4002E2564410949646D61783D25642E25647F
:104CC4004125730A00000000666F7263652062610B
:104CD4007474206368617267650A0000736F6320EF
:104CE4003C2031300A0000002020202020202020F9
:104CF400202020207C20466F726D61743D2564095C
:104D0400556E6B3D256409466C616773424D533C97
:104D14003C31363D253034780943617061636974F0
:104D2400793D256457680A00202020202020202077
:104D3400202020207C2054626D733D25642E256440
:104D4400C2B04309426174436F756E743D256409B2
:104D5400436F6E746163743D2564094368617267CF
:104D6400655265713D2564094379636C65733D251E
:104D7400640A000020202020202020202020202041
:104D84007C20466C616773424D533D253034780A6C
:104D9400000000002020202020202020202020208F
:104DA4007C205463656C6C6D61783D25642E2564AC
:104DB400C2B043095463656C6C6D696E3D25642E05
:104DC4002564C2B043095663656C6C6D61783D25FA
:104DD400642E256456095663656C6C6D696E3D25B9
:104DE400642E2564560A0000202020202020202044
:104DF400202020207C20646C696D3D256409496471
:104E04006C696D3D25642E25644109636C696D3DB3
:104E140025640949636C696D3D25642E2564410A46
:104E24000000000055415254424D53555345522001
:104E34003E3E200055415254424D53203E3E207088
:104E440077720A007077720A0000000055415254CC
:104E5400424D53203C3C20002020766F6C746167E7
:104E6400653A20256C640A202063757272656E743D
:104E74003A20256C640A2020776174746167653A6E
:104E840020256C640A000000242400007076312080
:104E9400737769746368206F6E0A0000707632203D
:104EA400737769746368206F6E0A00005541525429
:104EB400203E3E200000000055415254207265619E
:104EC40064696E67206572726F7220005541525496
:104ED400203C3C200000000063617573652037317D
:104EE4000A00000063617573652037380A0000000A
:104EF40070763120737769746368206F66660A0080
:104F040070763220737769746368206F66660A006E
:104F1400636175736520330A000000006361757373
:104F24006520380A00000000636175736520360A45
:104F340000000000636175736520370A00000000FB
:104F4400536F6C61783A207374617475733D307873
:104F54000000000020636F756E743D30780000001F
:104F6400416E746973757267653A20646973636F1F
:104F74006E6E65637420475249442C20666F7263D9
:104F840065204550530A0000416E74697375726759
:104F9400653A20636F6E6E656374204752494420FE
:104FA4002832290A00000000416E74697375726723
:104FB400653A20636F6E6E656374204752494420DE
:104FC4002833290A00000000554152542054494D09
:104FD400454F5554000000005217000814160008ED
:104FE4004415000844180008B217000824190008E2
:104FF4001C18000856170008AA55090900DE07F610
:1050040001000000AA5509096A03007E010000009E
:10501400AA5509096A00007B01000000AA55090984
:105024002400003501000000AA550701858C010009
:10503400AA550701131A0100AA5509091C030030D7
:1050440001000000AA5509091C00002D01232D3080
:105054002B2000686C4C006566674546470030317C
:1050640032333435363738394142434445460030CB
:1050740031323334353637383961626364656600FA
:0450840021020008FD
:04508800F901000822
:10508C00FFFFFFFFFFFFFFFF0024F40010000020D4
:10509C000000000000000000000000000000000004
:1050AC0000000000000000000000000000000000F4
:1050BC0000000000000000000000000000000000E4
:1050CC0000000000000000000000000000000000D4
:1050DC0000000000000000000000000000000000C4
:1050EC0000000000000000000000000000000000B4
:040000050800235D6F
:00000001FF
