:020000040800F2
:1000000000000820D12B000895360008953600081E
:100010009536000895360008953600080000000067
:1000200000000000000000000000000095360008FD
:10003000953600080000000095360008A536000837
:100040009536000895360008953600089536000864
:100050009536000895360008953600089536000854
:100060009536000895360008953600089536000844
:100070009536000895360008953600089536000834
:100080009536000895360008953600089536000824
:10009000D92F0008E92F000895360008953600088A
:1000A0009536000895360008953600089536000804
:1000B00095360008953600089536000895360008F4
:1000C00095360008ED0D0008810E000895360008F1
:1000D00095360008953600089536000895360008D4
:1000E00095360008953600089536000895360008C4
:1000F00095360008953600089536000895360008B4
:1001000095360008953600089536000895360008A3
:100110009536000895360008953600089536000893
:100120009536000895360008953600089536000883
:100130009536000895360008953600089536000873
:100140009536000895360008953600089536000863
:100150009536000895360008953600089536000853
:100160009536000895360008953600089536000843
:100170009536000895360008953600080000000006
:100180009536000895360008953600089536000823
:100190009536000895360008953600089536000813
:1001A0009536000895360008953600089536000803
:1001B000953600089536000895360008ED0D0008C4
:1001C000810E0008953600080000000095360008F2
:1001D00095360008953600089536000895360008D3
:1001E00095360008F92F00080930000895360008F8
:0801F000953600089536000861
:1001F80010B5064C2378002B07D1054B002B02D0F5
:100208000448AFF300800123237010BD680000206C
:1002180000000000EC530008044B10B5002B03D07D
:1002280003490448AFF3008010BDC0460000000039
:100238006C000020EC5300080023C25C0133002A44
:10024800FBD1581E7047000003B4714649084000AE
:100258004900095E49008E4403BC704700224308E8
:100268008B4274D303098B425FD3030A8B4244D376
:10027800030B8B4228D3030C8B420DD3FF220902B8
:1002880012BA030C8B4202D31212090265D0030B77
:100298008B4219D300E0090AC30B8B4201D3CB036D
:1002A800C01A5241830B8B4201D38B03C01A5241AF
:1002B800430B8B4201D34B03C01A5241030B8B42B1
:1002C80001D30B03C01A5241C30A8B4201D3CB029C
:1002D800C01A5241830A8B4201D38B02C01A524181
:1002E800430A8B4201D34B02C01A5241030A8B4284
:1002F80001D30B02C01A5241CDD2C3098B4201D39C
:10030800CB01C01A524183098B4201D38B01C01A19
:10031800524143098B4201D34B01C01A5241030990
:100328008B4201D30B01C01A5241C3088B4201D33F
:10033800CB00C01A524183088B4201D38B00C01AEC
:10034800524143088B4201D34B00C01A5241411A13
:1003580000D20146524110467047FFE701B5002020
:1003680000F0F0F802BDC0460029F7D076E77047E4
:1003780003460B437FD4002243088B4274D30309FE
:100388008B425FD3030A8B4244D3030B8B4228D39F
:10039800030C8B420DD3FF22090212BA030C8B42C5
:1003A80002D31212090265D0030B8B4219D300E065
:1003B800090AC30B8B4201D3CB03C01A5241830BEA
:1003C8008B4201D38B03C01A5241430B8B4201D39A
:1003D8004B03C01A5241030B8B4201D30B03C01AC3
:1003E8005241C30A8B4201D3CB02C01A5241830A3D
:1003F8008B4201D38B02C01A5241430A8B4201D36C
:100408004B02C01A5241030A8B4201D30B02C01A95
:100418005241CDD2C3098B4201D3CB01C01A5241FC
:1004280083098B4201D38B01C01A524143098B4285
:1004380001D34B01C01A524103098B4201D30B016E
:10044800C01A5241C3088B4201D3CB00C01A524193
:1004580083088B4201D38B00C01A524143088B4258
:1004680001D34B00C01A5241411A00D201465241F1
:10047800104670475DE0CA0F00D04942031000D310
:100488004042534000229C4603098B422DD3030A65
:100498008B4212D3FC22890112BA030A8B420CD375
:1004A800890192118B4208D3890192118B4204D39E
:1004B80089013AD0921100E08909C3098B4201D31E
:1004C800CB01C01A524183098B4201D38B01C01A58
:1004D800524143098B4201D34B01C01A52410309CF
:1004E8008B4201D30B01C01A5241C3088B4201D37E
:1004F800CB00C01A524183088B4201D38B00C01A2B
:100508005241D9D243088B4201D34B00C01A524101
:10051800411A00D20146634652415B10104601D38E
:100528004042002B00D54942704763465B1000D318
:10053800404201B5002000F005F802BD0029F8D0BE
:1005480016E770477047C0461C2101231B049842D8
:1005580001D3000C10391B0A984201D3000A08394C
:100568001B09984201D30009043902A2105C401803
:100578007047C046040302020101010100000000A7
:1005880000000000BFF34F8F0549CB68E022D2007E
:100598001A40044B1343CB60BFF34F8FC046FDE7AF
:1005A80000ED00E00400FA057047000010B50400F3
:1005B800034803F07BF8200003F0B8F810BDC046EC
:1005C8000048004070B504000D00044803F06EF8C0
:1005D8002900200003F070F870BDC04600480040B4
:1005E80070B504000D00044803F060F829002000ED
:1005F80003F0ADF870BDC0460048004070B582B049
:10060800019115001E00FFF7D1FF1B48FFF7CEFF31
:10061800019C210E230AFF221202134019432302D0
:10062800FF221204134019432406214301910B2D84
:1006380011D01D2D17D1042101A8FFF7D1FF0F48B4
:10064800FFF7B4FF06993000FFF7CAFF0C48FFF721
:10065800ADFF02B070BD022101A8FFF7C1FF094834
:10066800FFF7A4FFEEE7042101A8FFF7B9FF06484A
:10067800FFF79CFFE6E7C046105400081454000832
:10068800EC580008185400081C540008F0B583B052
:1006980004000D0016001F00009313000A0001005B
:1006A8000548FFF7ABFF009733002A0021000348F5
:1006B80002F02CFB03B0F0BD205400080064004099
:1006C800F0B583B004000D0016001F00009313005E
:1006D8000A0001000548FFF791FF009733002A0040
:1006E8002100034802F012FB03B0F0BD30540008AB
:1006F8000034004010B5074C21000C3118222000AE
:1007080004F0D4F9200018300C22002104F0E1F99B
:1007180010BDC046D0050020002000E00130430095
:100728001B189A00044B9B185B68002B01D0022809
:10073800F4D90323181A7047D005002070B5002497
:1007480000E0013463001B199B00094DEB185B683E
:10075800002B01D0022CF4D9022C07D8044D6300D9
:100768001E19B6007051A8194160826070BDC0465C
:10077800D005002010B560220021024804F0A9F934
:1007880010BDC0463C050020F8B50500002301E077
:100798000133DBB2072B25D81C005A00D21892006F
:1007A8002348125CD207F3D55A00D2189200125887
:1007B8005208AA42ECD107005E00F01880003818F1
:1007C8000430082204F072F933199B0068000125EF
:1007D800DA5915400543DD511E00DB5D0122134344
:1007E800F35523E00023072B20D81C005A00D21809
:1007F80092000F48125CD20702D50133DBB2F2E750
:1008080007005E00F018800038180430082204F051
:100818004DF933199B006D000120DA59104005434A
:10082800DD511E00DB5D01221343F355F8BDC046C0
:100838003C05002010B5040002000E21012003F041
:10084800E7FD22000C21052003F0E2FD10BD0000A9
:10085800014B00221A607047A8010020F8B5DA4B56
:100868001B68002B04D10022D8490A60D8490A60C5
:100878005A1CD5490A60D749486AD749C854012A39
:1008880003D0022A00D134E2F8BD0B78222BFBD822
:100898009B00D24AD3589F46D14A2E23D35C002BC3
:1008A800F2D0D04B187C0028EED0FF28ECD0C74BF4
:1008B80000221A6001321A6001321A60C64A052500
:1008C800557003211960C6498C7B947018268C5F7B
:1008D80004261E602612D6701D60147116254C5F02
:1008E80006251D602512557107251D609471202568
:1008F8004C5F08251D602512D57109251D601472ED
:100908001C254C5F0A251D60251255720B251D609C
:1009180094721E254C5F0C251D602512D5720D257D
:100928001D6014730C8901351D60250A55730F2548
:100938001D6094734C8901351D60250AD5731125F6
:100948001D6014740C8801351D60250A5574132523
:100958001D6094744C8801351D60250AD5741525D1
:100968001D6014750C24095F16241C600C12547544
:1009780017241C6091759B4B5B6A002B01D1994B26
:100988001B6A1A12914D18212960934CE27519229D
:100998002A6023761A232B606076924E2822B35E53
:1009A8001B222A601A12A2761C222A60E3762A22C7
:1009B800B35E1D222A601A1222771E222A606377EC
:1009C8002C22B35E1F222A601A12A27720222A60E4
:1009D800E377834B588C09312960070AA754023200
:1009E8002A6060540231296024201F5CA7542860C3
:1009F80003329F5C67542A6003315F5C2754296087
:100A08002727D85DA054784A1068000E60541168F2
:100A1800090CE1551168090A282021541168292276
:100A2800A154023028601A21595E02322A600B1242
:100A380023542C232B60A1546C4A11682D222A6060
:100A4800E1546B4B19682E232B60A15402322A60A3
:100A5800717CE1547369190EA154190C0132A15427
:100A6800190A0132A1540132A35401322A60F369F0
:100A7800190EA154190C0132A154190A0132A154BA
:100A88000132A35437232B6038212960B27CE25409
:100A980039222A60574B187A605413372F60196827
:100AA800A15458680A21FFF763FC3B232B60E055EB
:100AB800514A12683C212960E254504BDA883D23A0
:100AC8002B60100A605402312960E2541F33F35C32
:100AD80033E0AB005B19DB00424AD3181A007832C6
:100AE80010783038040101321278303A50B2771C4D
:100AF80036490F602043384A9055B41C0C601800E2
:100B08005E300078D055F01C08601E005F363678DD
:100B180016551C0060342688441C0C60370A17548C
:100B280002300860165562331C88431C0B60260A85
:100B3800165402300860D4542B005D1E002B05D0DB
:100B4800224B1E6833000833FF2BC2D91F4B1A688B
:100B5800214B1A7098E62A48FFF728FDFFF7DCFDBD
:100B6800012800D890E6072209212648FFF7E6FD6C
:100B7800072209212448FFF7E1FD85E62348FFF70E
:100B880015FDFFF7C9FD012800D87DE607220921D8
:100B98001C48FFF7D3FD072209211D48FFF7CEFDAA
:100BA80072E61C48FFF702FDFFF7B6FD012800D8E2
:100BB8006AE6072209211348FFF7C0FD0722092129
:100BC8001548FFF7BBFD5FE6A8010020A001002043
:100BD800A401002000600040A00000208455000807
:100BE8009C050020B8010020205600208C00002021
:100BF80088000020AC010020840000209000002024
:100C080040540008845C00089C5C000854540008A8
:100C1800905C00086C540008B45C00084948FFF771
:100C2800C5FCFFF779FD012800D82DE60722092128
:100C38004548FFF783FD072209214448FFF77EFD59
:100C480022E64348FFF7B2FC424B00221A6001201B
:100C5800FFF7F0FD18E64048FFF7A8FC3D4B0122DE
:100C68001A6011E63D48FFF7A1FC3A4B02221A60D0
:100C78000020FFF7DFFD07E63948FFF797FC394BFF
:100C880000221A60384A2D23D35C002B01D0013B87
:100C9800DBB2364A5374F7E53548FFF787FC314B2A
:100CA80002221A60314B49325A74EDE53148FFF798
:100CB8007DFC2C4B01221A60E6E52F48FFF776FCF5
:100CC8002E4B01221A60DFE52D48FFF76FFC002349
:100CD8002A4A13602B4A137053809380D4E52A481C
:100CE800FFF764FC254B00221A60264B01321A706C
:100CF800CAE5264B1B781A2B1CD00CD8172B14D0FE
:100D0800182B00D0C0E5214B5B78642B00D9002359
:100D18001F4A1360B8E5232B00D0B5E51B4B5B7861
:100D280064225343174AD380AEE5184B5A78184BC0
:100D38001A72A9E5154B5A7893009B185B00144A60
:100D48005360A1E580540008845C0008A85C000892
:100D58009854000888000020AC540008C8540008C3
:100D6800DC5400088C0000209C050020B8010020FD
:100D7800FC5400081C5500083C550008840000205D
:100D880054550008900000206C550008A000002071
:100D9800AC010020084B1B68084A1268934207D22E
:100DA800591C054A1160064AD25C064B9A62704784
:100DB800044BAA229A62FAE7A4010020A0010020AD
:100DC800A0000020006000400023034A1360034A8B
:100DD8001360034A13607047A8010020A001002097
:100DE800A401002010B5234B9B691B070FD5214B8D
:100DF8009B695B0C5B00FF221340442B1AD01D4AF1
:100E0800D36908210B43D361FFF7DEFF10BD194BEF
:100E18009B69DB0616D4174B9B695B0718D4154BE7
:100E28009B699B0717D4134B9B699B0616D4114BE0
:100E38009B69EBE7FFF70CFD0E4AD36908210B43CA
:100E4800D361E3E70B4AD36910210B43D361DDE794
:100E5800FFF704FDDAE7FFF79DFFD7E7054BDA69EF
:100E680020210A43DA619B69DB07CFD4014B0122B9
:100E78009A61CBE70060004010B5114BD969802218
:100E880092000A43DA61D969802252000A43DA6182
:100E9800D9698022D2000A43DA61D96980225201D5
:100EA8000A43DA61D969802292010A43DA61D96971
:100EB800802212010A43DA61FFF786FF10BDC0469F
:100EC8000060004030B583B0C04A116B202319433D
:100ED8001163126B13400193019BBD4B1C681F21CA
:100EE8008020C00180239B0105E0400001221A40B8
:100EF800104301395B08002BF7D18840FFF724FB2A
:100F0800FF2318404000FC3B83409C431F21802066
:100F1800C00180239B0105E0400001221A401043D4
:100F280001395B08002BF7D18840FFF70DFBFF2341
:100F380018404000FD3B83401C43A54B1C605C6A85
:100F48001F214020202305E0400001221A401043C1
:100F580001395B08002BF7D18840FFF7F5FAFF232A
:100F680018408000F03B83409C431F2140202023F1
:100F780005E0400001221A40104301395B08002BAC
:100F8800F7D18840FFF7E0FAFF2318408000FB3BC9
:100F980083401C438E4B5C629C681F218020C001EB
:100FA80080239B0105E0400001221A4010430139CB
:100FB8005B08002BF7D18840FFF7C6FAFF231840DB
:100FC8004000FC3B83409C431F218020C0018023BC
:100FD8009B0105E0400001221A40104301395B08DB
:100FE800002BF7D18840FFF7AFFAFF2318404000E5
:100FF800FD3B83401C43764A9460536875490B4017
:101008008020C00103435360D4681F2180239B01C3
:1010180005E0400001221A40104301395B08002B0B
:10102800F7D18840FFF790FAFF2318404000FC3BB7
:1010380083409C431F218020C00180239B0105E041
:10104800400001221A40104301395B08002BF7D1F8
:101058008840FFF779FAFF2318404000FE3B8340A1
:101068001C435B4BDC601C681F218020000280232E
:10107800DB0105E0400001221A40104301395B08FA
:10108800002BF7D18840FFF75FFAFF231840400094
:10109800FC3B83409C431F21802000028023DB010E
:1010A80005E0400001221A40104301395B08002B7B
:1010B800F7D18840FFF748FAFF2318404000FD3B6E
:1010C80083401C43424B1C605C6A1F2180204023E4
:1010D80005E0400001221A40104301395B08002B4B
:1010E800F7D18840FFF730FAFF2318408000F03B23
:1010F80083409C431F218020402305E040000122BB
:101108001A40104301395B08002BF7D18840FFF7DC
:101118001BFAFF2318408000FB3B83401C432C4BE9
:101128005C629C681F21802000028023DB0105E0AF
:10113800400001221A40104301395B08002BF7D107
:101148008840FFF701FAFF2318404000FC3B83402A
:101158009C431F21802000028023DB0105E0400022
:1011680001221A40104301395B08002BF7D188404F
:10117800FFF7EAF9FF2318404000FD3B83401C437A
:10118800134A9460536814490B40802000020343BB
:101198005360D4681F218023DB0105E04000012251
:1011A8001A40104301395B08002BF7D18840FFF73C
:1011B800CBF9FF2318404000FC3B83409C431F2190
:1011C800802000028023DB010EE0C0460038024088
:1011D80000140240FFBFFFFFFF7FFFFF4000012216
:1011E8001A40104301395B08002BF7D18840FFF7FC
:1011F800ABF9FF2303405B00012002009A4014432F
:10120800244BDC60244B196C80246404214319644A
:101218001A6C22400092009A90241A591F491140D2
:101228008022D2030A431A511D4900231D4A8B54B8
:10123800802424068C6001328B54C8601A4B1A68CB
:1012480082431A60194A1A619A68D20AD20244255E
:101258002A439A609D68802212022A439A601A687B
:1012680002431A601A6808252A431A601A68083562
:101278002A431A601A6810352A431A601A681C3DF6
:101288002A431A601A68023D2A431A608C60C860B3
:1012980003B030BD0014024000380240FFFF3FFF9A
:1012A80000E100E05F03000000600040050110005D
:1012B800F0B5CE46474680B587B0764A4623D25E1B
:1012C800754B5D68002D1CDD2C00FA239B009D42A8
:1012D80000DA1C006F4E338899460A211800FFF780
:1012E80047F82018A030642460434946FFF740F8C7
:1012F8000590336A766A002E00D11E00002300276D
:101308000CE01500E0E763481A0025325200115E30
:101318001A002432520011527F180133082BF2DDD3
:101328005C4C5A23E652F0190A21FFF721F880464F
:101338005A4B1B68226C9B1A00D57CE0574B1B68E4
:10134800574A94466344236468000321FFF710F862
:101358004346C31A642058434946FFF709F8070073
:1013680003212800FFF704F8404515DD4423E05E1B
:10137800C019059B984200DD1800464A4423D05204
:10138800444A5C23D75C002F55D0130060229D5A35
:1013980002329C5A002313E045450BDA3D4A4423A8
:1013A800D05EC019002803DD3A4A4423D052E7E74B
:1013B8000120F9E73B48FFF7F9F8E1E70133DBB231
:1013C8009F4216D99C469800C018C1003148401861
:1013D80060300288AA4200D2150062469200624438
:1013E800D1002C4A521862321288A242E6D914005F
:1013F800E4E7284B2C4A9C52E02189005D522B4F90
:1014080000942B002A4A380003F06CFB3800FFF7E1
:10141800CDF80535AC4206DD264B9C4203D8FA23AD
:101428001B019C4222D3244B9C466444A4B2F9235A
:101438005B009C4222D9174B46229A5E4421585E93
:101448009C311A4C64234343029301924346009310
:1014580033001A4A8900200003F044FB2000FFF7FC
:10146800A5F807B0C0BCB946B046F0BD1448FFF7B0
:101478009DF8084A4623A021D152DCE71148FFF71E
:1014880095F8044B462200219952023A01319952AB
:10149800D1E7C046B8010020AC010020205600204A
:1014A800581B0000105600087E030000A0520020C0
:1014B80030560008790D000053F2FFFFB0560008BF
:1014C800545600088456000870B5804B1A6A5C6A46
:1014D800002C00D114007E4A2E23D35C002B00D1AF
:1014E80070BD7C48FFF762F8794D28000E30012165
:1014F800FFF776F87848FFF759F828000F300121F0
:10150800FFF76EF87548FFF751F8EB7B022B03D90C
:10151800734B1B68012B4BD0724B1B68012B00D1FE
:101528008DE06A4B1B7C6A492C228A5C934201D26B
:10153800664A53746C4B1D68002D2BD0634B1B7C83
:1015480063492B228A5C934202D2684A00211170B7
:101558005F492C228A5C934202D8644B01221A709C
:10156800624B1B78002B15D0604B1E89588970433D
:101578006421FEF7FDFE0300322C00DC9AE00A3BF2
:1015880032003232594C6280642058433100FEF7F1
:1015980065FEA080002DA3D1544C21890B00323365
:1015A8006380E38864205843FEF7E2FEA08097E753
:1015B800464B1B7C46492A228A5C934206D8434AFA
:1015C8002820115E2A20125E914213DA404B9B7B41
:1015D800022B01D0072B9FD1454B1B78012B9BD1A8
:1015E8004448FEF7E3FF0120FFF724F9384B0022B7
:1015F800DA7391E7364929228A5C934206D9344B3B
:101608009B7B052B0CD8032B86D30EE03A48FEF7BC
:10161800CDFF0020FFF70EF92D4B0022DA737BE790
:10162800093BDBB2012B00D976E73448FEF7BEFF51
:101638000020FFF7FFF8264B0022DA736CE7234BF4
:101648001B7C23492C228A5C934224D8312C16DC3B
:101658000A8949895218322A11DD1D481625415F29
:101668002025405F09184F318A4208DC18492D228D
:101678008A5C002A01D0013AD2B214494A7414494A
:101688000A89498952188C2149008A4200DC51E7AD
:101698000E4A53744EE70E492B228A5C934200D2BD
:1016A80048E70A8949895218C72A00DC42E7074AED
:1016B80053743FE7002C00DB62E70A231C1B0B4B2B
:1016C800DB88A34200DC5BE7230059E7B801002070
:1016D8009C050020F456000808570008EC5800083C
:1016E800880000208C00002084000020900000204A
:1016F800CC050020145700083C5700085C57000828
:10170800F0B5DE4657464E464546E0B5B5B0E14B26
:1017180098460C220021180003F0DBF9DE4D302238
:101728000021280003F0D5F9DC4CE12292000021C9
:10173800200003F0CEF9DA4B9A460E220021180059
:1017480003F0C7F924220021D64803F0C2F9FFF7B5
:1017580011F844230322E252D34F3B682364002349
:10176800994646334A46E25220004830323B9B466F
:101778001432002103F0ADF90126CC4B1E60CC4B8E
:101788001E60CC4B1E6029235A46EA5401331E3290
:10179800EA5401330A3AEA5401330A3AEA54083B54
:1017A80042461372232454722D235A46EA54FA23CC
:1017B800DB005246D380C04DAB68F022904693437D
:1017C800AB60AB68BD4A1340AB60AB68BC4A134022
:1017D800AB60BC4802F0D2FEBB4BBC4A5A60BC4A64
:1017E800414611554A469A6007321A602B6B3343BB
:1017F8002B632B6B33401C931C9B2A6B02231A43CD
:101808002A632A6B13401B931B9B2A6B04231A43DE
:101818002A632A6B13401A931A9B2A6B08231A43CC
:101828002A632A6B13401993199B2A6B10231A43B6
:101838002A632A6B13401893189B2A6B20231A4398
:101848002A632A6B13401793179BE120000301F0CA
:101858009FFFE1246402200002F0BAFB9D4B9846EA
:10186800180001F03DFC404601F09CFD96208001E7
:1018780002F08EF9984801F019FF0721974801F006
:101888001BFFFA2002F066FE200002F081F9072211
:1018980009219348FEF752FF924B1E70FFF712FB87
:1018A80080246401904B220090492BA802F06CFE22
:1018B8008F4B22008F4924A802F066FE84228E4BAB
:1018C800D2008E491DA802F05FFE8D48FEF76EFE1D
:1018D80008238C4A1D218C48FEF7F2FE3B688B4A90
:1018E800904698443B68914699443C68FA239B008B
:1018F8009C4664446B6F1E436E676F4B5B6F9B0720
:10190800FBD5834B834A1A60834A1A6000225A60C7
:10191800824A9A607E4BDB680722110019401A42FE
:10192800F8D10C917A4B7E4A1A600B910A910D916D
:10193800002700231D000E0000F0B6FC7948FEF7D2
:1019480035FEFEF71FFE7848FEF730FEFEF71AFE5A
:10195800554B1B686D4A90469844744B9B468023B0
:10196800DB0000935B4632AA33A9714801F062FBA1
:10197800824600905B46329A33996E48FEF73EFEE7
:10198800329B002B01D100F0A7FC5F4B339A9A429F
:1019980001D000F0A1FC654B1B78012B01D000F0B1
:1019A8009BFC414B1A68120E0CA9282009180A70D2
:1019B8001A68120C0CA9013009180A701A68120A60
:1019C8000CA9013009180A701B680CAA2B2152189F
:1019D80013705948FEF7EAFD042116A8FEF700FE29
:1019E8004548FEF7E3FD514B9A782B4B1A74002CAF
:1019F80005D12D4B1C68FA239B009C466444534632
:101A08004A4A32993398FEF75BFE00F065FC0822DB
:101A18000021464803F05DF8214B1B78002B09D0C4
:101A28001F494888414A060A167050708988080A72
:101A38009070D1705A4253413C4A137108231D21BA
:101A48003E48FEF73DFE184B1E68AF239B009C46A0
:101A5800664400F047FC3A48FEF7A8FD002401E080
:101A68000134E4B2072C12D863001B199B00354AD5
:101A78009B5CDB07F4D56300191989008858400876
:101A88005218043208231D21FEF700FEE8E70C9CDB
:101A980000F030FCAC0100209C050020B8010020BB
:101AA80090000020D0050020205600208C00002047
:101AB800880000208400002000380240FFE3FFFF78
:101AC800FF1FFFFF0024F40010E000E07F3E00004D
:101AD80000ED00E020A1070000100140C05C0008F4
:101AE800D05C0008CC05002058570008FC3D0020B9
:101AF800B4570008FC2D0020EC580008FC4D0020CD
:101B0800B8570008045400087118000020BF0200EC
:101B180000300040CCCC000055550000EE0F00000E
:101B2800AAAA0000C0570008D85700082052002071
:101B380000640040F057000800580008F4E5061853
:101B48001C5800083C050020E64C8023DB0000936D
:101B5800230032AA33A9E44801F06CFA0E900090F1
:101B68002300329A3399E148FEF748FD0023237495
:101B7800DF4B1B68DF4A91469944339BDE4A934208
:101B88000DD8DE4A934200D24EE2DD4A94466344C1
:101B9800062B00D948E29B00DA4AD3589F46DA4A16
:101BA800934200D040E2CF4B1A78120259780A4388
:101BB8009346D64A594611819C782402D9780C4319
:101BC80054811B799A4613730A215846FEF746FB3F
:101BD80083B20E930A215846FEF7C6FB8BB20F93C9
:101BE8000A212000FEF73AFB83B29B460A21200017
:101BF800FEF7BAFB8BB25246D20700D4E0E2C44AE1
:101C08005146890700D4DDE2C2485146490700D44D
:101C1800DAE2C14C5146090700D4D7E2BF498C46E5
:101C28005146C90600D4D4E2BD498A4651460791B7
:101C38006146069105940490039202935B460193D2
:101C48000F9B00930E9BB74AFC218900B64802F00F
:101C580049FFE9E1A34B9A465B781B02524612788A
:101C680013431A00B14B9B461A805346DC78240272
:101C780024B29B781C435B461C8153461B7958460B
:101C8800119303740F92100060436421FEF770FBF8
:101C98005946129008625146CB791B028A7919007D
:101CA800114310910A210F98FEF7D8FA81B21391C7
:101CB80064211098FEF758FB069164211098FEF7EE
:101CC800CDFA059011990491129A03920A212000E5
:101CD800FEF734FC09B202910A212000FEF748FB06
:101CE80000B201900A210F98FEF73EFB89B20091DD
:101CF800139B8F4AFC2189008B4802F0F3FE5B4658
:101D08005B7C52461371002353718A4B1B68002B6E
:101D180000DC7EE18848FEF749FC864B1A68714B67
:101D28001A7100225A7174E16E4A5479240224B25D
:101D380013791C43D3791B021BB2927913439B4638
:101D4800002B00DCB3E00023DBB21900774A36230E
:101D58000F91D154634A924653781B021BB21278F2
:101D680013430A2110931800FEF702FB02B21192E6
:101D78000A211098FEF7E2FB0AB210925246D37875
:101D88001B021BB2927813439A460A211800FEF7E9
:101D9800EFFA02B212920A215046FEF7CFFB0AB2BE
:101DA80013920A212000FEF7E3FA02B214920A21E4
:101DB8002000FEF7C3FB0AB215920A215846FEF727
:101DC800D7FA02B292460A215846FEF7B7FB0BB281
:101DD8000F99002977D0594AFC2107920693534658
:101DE8000593159B0493149B0393139B0293129BD7
:101DF8000193109B0093119B514A89004A4802F0B5
:101E080071FE4A4A3623D35C002B01D1002C0DDA2F
:101E1800464A2A21535E9B46324B5946997109120C
:101E2800D9712824145F1C7122125A71002C07D012
:101E3800621D14B22B4B1A7122125A713B4B9C85AE
:101E48003A4B1C855A465A851B7C0A2B3DD9FFF70D
:101E58002FFA364A3C23D25C364B5B7A9A423CD204
:101E6800324B2820195E4420185E0B1C814200DA90
:101E7800031C1BB21B490B71181248712B498B8527
:101E88002C4B1B7A9A4200D2C3E02E48FEF78EFBF9
:101E9800144A002313715371244A9385012444334F
:101EA800D4522000FEF7C6FC274B1C60B1E0002C82
:101EB80001DD002348E71D4B1B7C092B01D80023BB
:101EC80042E7012340E7214A86E72148FEF76EFBF7
:101ED800044B00229A71DA71B9E714494423CB5EA6
:101EE800C8E7C0462052002000340040305800089F
:101EF8002056002020BF0200781800007218000049
:101F08008EE7FFFF685C0008E550FF18900000208E
:101F1800885700089057000898570008A0570008ED
:101F2800A8570008705A000830520020B801002055
:101F380040580008AC010020885800087C57000869
:101F480098580008F05800088800002058570008E2
:101F5800E4580008A0490B789B464C78C8780002E2
:101F68008B789C46CA7912028B791A4312044B79F2
:101F78001B0209790B43FC211A430292634618435A
:101F8800019000945B46954A8900954802F0AAFDA5
:101F9800944A3623D35C002B3BD08F4B0022DA7057
:101FA8009A7036E08C4BDA78120299780A43934695
:101FB8008C49CA851A79100031220F9088545C79AF
:101FC800013210948C54DA791202987902439246BD
:101FD8008A865C78240224B21B781C430A212000DC
:101FE800FEF7C6F903B21193524604921099039171
:101FF8000F9802905A4601920A212000FEF79EFA95
:1020080009B20091119B784AFC218900744802F0BA
:1020180069FD714C21003398FEF7B6FB0E9B220038
:1020280032993398FEF732FB6D48FEF7BFFA0C9CE5
:1020380066E1694A53781B0212781343FC216B4A04
:102048008900674802F04EFD664A3623D35C002BB0
:1020580003D0614B00225A701A705F4B83221A71A9
:102068000022DA719A715A7108230E93D1E75A4BFC
:102078005A7812020E9218785A493E228854DC780F
:1020880020020F909C7810949878013288545A79DD
:1020980012021192187982463C228854DA79120287
:1020A800987912909C79A3463D245846085569466C
:1020B8003824095F1B7819430E916B463C201B5E40
:1020C800109C1C436B4644215B1800201B5E514644
:1020D80019438A4612B21298104383460A210E9871
:1020E800FEF746F903B20F930A215846FEF726FA7F
:1020F80009B206910A215846FEF73AF900B205904E
:102108000A215046FEF71AFA09B204910A215046EC
:10211800FEF72EF900B203900A212000FEF70EFA0E
:1021280009B202910A212000FEF722F900B20190BB
:102138000A210E98FEF702FA09B200910F9B2C4A69
:10214800FC218900264802F0CDFC6DE7224B597826
:1021580009021878DC78240224B29A7814435A7950
:1021680012020E921A790F92DA79120212B29B7940
:102178001A43924601438B460A211000FEF7DEF906
:1021880009B204910A215046FEF7F2F800B2039012
:102198000E9B0F9A134302930A212000FEF7CEF9F3
:1021A80009B201910A212000FEF7E2F800B200907E
:1021B8005B46104AFC218900094802F093FC33E78A
:1021C8000D4A1DE50C4820E50B4C23E50A498C46D1
:1021D80026E509498A4629E5205200203459000895
:1021E80030520020B801002074590008C059000876
:1021F800E0590008345A0008585700081DA802F092
:1022080001FB002800D0A7E00D9A002A03D0DB4B81
:102218001B689B1A1AD424A802F0E4F9D848FEF7E0
:10222800C5F9D84801F042FA0421D74801F044FA28
:10223800D24B1B68FA229200944663440D93022500
:10224800CE4B1B68D14A944663440A93D04B5B68D3
:1022580080214901C91A2BA802F0A8F9022F00D140
:10226800BBE200D99FE2002F00D1A9E2012F1BD1C8
:102278002BA802F0B7F9C748FEF798F9C64F796856
:102288003868FEF7ADF9C548FEF790F9C44801F083
:102298000DFA3868796801F00FFAB84B1B68BB4A29
:1022A800944663440B930227BE4BBF4A1A60B34B54
:1022B8001B6842469B1A01D4FFF740FBAF4B1B68D3
:1022C8004A469B1A01D4FFF73EFBB84800F0A0FE2F
:1022D800002801D0FFF73CFBA84B1B689B1B01D4CF
:1022E800FFF795FB002C05D0A44B1B681B1B01D4E2
:1022F800FFF7B1FBAE4800F08BFE002800D023E4C6
:10230800AC4B5B688421C900C91A1DA802F04EF9BC
:10231800A94B5B6880214901C91A24A802F046F933
:10232800002D00D16AE76B1EDBB2032B8ED824A8E0
:1023380002F068FA00282ED10A9A002A86D08F4B1C
:102348001B689B1A00D581E79C4B00225A620C9BA4
:102358000A930D93002579E78022994B9A46D2007B
:1023680019001DA802F064FA05009648FEF71EF948
:1023780029005046FEF726F9824801F097F929000E
:10238800504601F099F924A802F062FB1DA802F05A
:102398002CF9012554E78022894B9B46D20019006D
:1023A80024A802F045FA82468748FEF7FFF851460E
:1023B8005846FEF707F9032D00D126E1042D00D178
:1023C80084E1022D12D024A802F042FB5346022BCE
:1023D80008D97B4B9A467D49180002F0B7FB824525
:1023E80000D1DCE124A802F000F9A5E724A802F056
:1023F8002FFB1690431C12D15346022B08D9704B61
:102408009A467249180002F0A1FB824500D1E3E028
:1024180024A802F01DFB24A802F0E7F88CE7674B1C
:102428009A46586024A802F018FB5346D860042244
:1024380016A924A802F078FA042216A924A802F002
:1024480073FA042216A924A802F06EFA042216A927
:1024580024A802F069FA042216A924A802F064FA52
:10246800042216A924A802F05FFA042216A924A8B7
:1024780002F05AFA042216A924A802F055FA0422F6
:1024880016A924A802F050FA042216A924A802F0DA
:102498004BFA042216A924A802F046FA042216A927
:1024A80024A802F041FA042216A924A802F03CFA52
:1024B800042216A924A802F037FA24A802F0C8FAC0
:1024C800431C08D03D4B5B69834204D02B4B1A68F0
:1024D8003A4B9A615861042216A924A802F024FAFA
:1024E80024A802F0B5FA1690431C01D0334B987417
:1024F80024A802F0ADFA1690431C01D02F4BD861E6
:102508002E4B9A46DB680E935146496808006421B1
:102518000F90FDF72DFF0E9A50431C49FDF728FF39
:10252800514648628021264B9B4653465B6902937D
:1025380001900E9A00920F9B254AC900584602F056
:10254800D1FA5846FEF732F85346DB68002B06DB13
:10255800002B0EDD194B5B6A002B0ADA03E0174AE1
:10256800526A002AF4DD1B48FEF720F8134B0022BC
:102578005A6224A802F039F8DEE6C0462056002048
:10258800C05A000800140140D05A00081027000063
:1025980040640240AC5B0008D0050020EC580008FD
:1025A8000010014000300040AAAA0000006400406A
:1025B800003400402860024028640240B80100202E
:1025C80020520020B05A0008D85A0008505B000872
:1025D800E45A0008245B000824A802F003F8BC4869
:1025E800FDF7E4FFBB4801F061F80521BA4801F0A6
:1025F80063F8BA4A5D230021D154B94B1B68B94A24
:10260800944663440A93032596E653460C2B07D950
:10261800B54B9B46B549180002F098FA834511D08E
:102628005346022B07D9B04B9A46B149180002F01D
:102638008DFA824530D024A802F00AFA24A801F0C5
:10264800D4FF79E68023DB009B46A74B9A465A467F
:10265800190024A802F068F95A46514624A802F045
:1026680063F99E4B9A465D239B4653465A469B5CAC
:1026780028215943583151440C313C3A24A802F0DE
:1026880053F953465A469B5C0133524659465354B4
:1026980024A801F0AAFF4FE624A801F0A3FF95485B
:1026A800FDF784FF8B4801F001F80521924801F0FD
:1026B80003F88A4B5D22995C013A9954884B1B6850
:1026C800884A944663440A93042535E624A802F010
:1026D800BFF9431E9B46814A5C23D35C5B4502D904
:1026E8005B46132B11D95346022B07D97E4B9A46CA
:1026F8007F49180002F02AFA824546D024A802F041
:10270800A7F924A801F071FF16E624A802F0A0F9A1
:1027180024A802F09DF924A802F09AF924A802F04E
:1027280097F924A802F094F924A802F091F9282333
:102738005A465343694A93469B445B466033188024
:1027480024A802F085F95B466233188024A802F0B9
:102758007FF924A802F07CF924A802F079F924A8CA
:1027680002F076F95B465E33187024A802F070F91F
:1027780024A802F06DF924A802F06AF95B465F33D9
:10278800187024A801F031FFD6E524A801F02AFF2B
:102798005A48FDF70BFF0C9B0A930025CCE50C9BD0
:1027A8000D9300251EE6FB1EDBB2012B00D97BE54D
:1027B8004B4B1B680B9A9B1A00D5EEE1002773E57B
:1027C800FDF7AAFF032801D001276DE54C4A072130
:1027D8004C48FDF7B3FF012766E52BA801F0D7FFAA
:1027E800494B9A6890422DD2FDF796FF032800D1F5
:1027F8005AE53B4B1B680B9A9B1A00D554E5434896
:10280800FDF7D4FE364B1B68FA22920094466344C7
:102818000B932BA801F0D9FEFDF76CFF96208001E1
:1028280001F0B6F93A4800F041FF0721394800F0B5
:1028380043FFFA2001F08EFEE120400201F0A8F9E2
:10284800032731E528492BA801F0ABFF16902E4B42
:102858009B6898421DD33048FDF7A8FE2A4B99681B
:10286800214F3800FDF7BCFE2C48FDF79FFE3B7852
:10287800AA2B03D11C4B5B78552B53D0184B1B68E4
:10288800FA229200944663440B93FDF733FF032723
:102898000AE52348FDF78AFE042116A8FDF7A0FEE5
:1028A8002BA801F074FF1690042116A8FDF798FED6
:1028B8001A48FDF77BFE2BA801F087FE084B1B6822
:1028C800F533FF330B93FDF715FF0427ECE4C046FF
:1028D800545B000800140140685B0008B801002040
:1028E800205600201027000020520020705B0008AE
:1028F800505B0008805B0008945B00089C5B000844
:102908005F020000C85C0008D0050020585C000881
:1029180000100140C05C0008CC5B0008EC580008BF
:10292800B85B0008A14B9B785F2BA7D19F4BDB7846
:10293800812BA3D19D4B1B79902B9FD19C4A623B45
:102948000021D154994B997A090209B2587A014366
:10295800D182997B0902587B01430B911180197C24
:102968000902D87B01430E915180997C0902587C59
:1029780001430F919180197D0902D87C01438B4650
:10298800D180997D0902587D014310911181197EEA
:102998000902D87D014311915181597E937B994257
:1029A80002D013000022DA73814B9973DB7BFF2B73
:1029B80002D001337E4AD3737C4F26217B5C1B02F5
:1029C8001BB20139795C0B43794882468381282000
:1029D8003B5C1B021BB227217A5C1343524693824D
:1029E8002A23FB5C1B022922BA5C134352465382FA
:1029F8003823FB5C1B023722BA5C134352465383CD
:102A08003E23FB5C1B023D22BA5C134352461384EF
:102A18004023FB5C1B023F22BA5C13435246D3831C
:102A28004223FB5C1B024122BA5C13435246938348
:102A38004623FB5C1B021BB24522BA5C1343524679
:102A48001383CB23FB5C1354CC23FB5C5354CD235F
:102A5800FB5C01395354CE23FB5C01395354CF231B
:102A6800FA5CAB3B5146CA54AC33FB5CFA22D20049
:102A7800944663444B840A215846FDF775FC89B295
:102A880008910A215846FDF7E9FB80B207900A2110
:102A98000E9B9B461800FDF767FC89B206910A2138
:102AA8005846FDF7DBFB80B20590119B04930A2181
:102AB8000F9B9B461800FDF757FC89B203910A212A
:102AC8005846FDF7CBFB80B202900A210B9B9B4630
:102AD8001800FDF749FC89B201910A215846FDF713
:102AE800BDFB80B20090109B324A8021C90038009B
:102AF80001F0F8FF3800FDF759FD534616229B5E9A
:102B08009C4652461821525E51462020095E504686
:102B18001A23C05E0290019100926346264A8021E2
:102B2800C900380001F0DEFF3800FDF73FFD5346CD
:102B38001A88224B9A4204D81D4B5B881F498B4246
:102B480003D91F48FDF732FDB5E619491620095E7D
:102B5800002917D1002A15D1002B13D1144B0C22B0
:102B68009B5E002B0ED1124B1E229B5E002B09D1BF
:102B78000F4B1A229B5E002B04D10D4B18229B5E33
:102B8800002B06D00A4A2E230121D154FEF79CFCC3
:102B980074E60C48FDF70AFD8DE6FDF7BDFD032838
:102BA80001D1FFF781FB0027FFF77EFB20520020B1
:102BB8009C050020D85B00080C5C0008701700001A
:102BC800405C00084C5C0008DFF834D00D480E4922
:102BD8000E4A002302E0D458C4500433C4188C426F
:102BE800F9D30B4A0B4C002301E013600432A242D4
:102BF800FBD301F0ADFC01F035FF01F0A5FC7047F7
:102C0800000008200000002068000020245D000863
:102C18006800002034560020F0B583B006001D007F
:102C2800089CC3689B070CD1036903273800184028
:102C38001F4201D0012705E0002A4ED0002313606F
:102C48004BE00027002A11D03B001B331B019B5986
:102C58005B072FD51D201060002907D03B001B33D0
:102C68001B019B592022121AD3400B603B001B33D7
:102C78001B01F3185A680F231340A34206D83B00E0
:102C88001B331B01F3185B680F241C40002D26D052
:102C980008220021684601F01CFF3B01F3181A00C6
:102CA800B932FF3212680092BD33FF331B680193BB
:102CB80000220BE00B20CEE793089B0069465B5887
:102CC80003211140C900CB40AB540132A242F3D3D7
:102CD8002000002F05D0012F08D003B0F0BD002040
:102CE800F7E7F36820221343F360F6E733692022FD
:102CF80013433361F1E70000034B984201D00020F1
:102D080070470120FCE7C04600340040F0B585B0AC
:102D1800060001911F00032100E01900B068E023BC
:102D28005B05184219D1B369FF20184210D0B36867
:102D380036481843B060B468344D2C40AC42FAD0E1
:102D48004B1EDBB20029E8D10520404205B0F0BD9A
:102D5800B068E0235B0518424FD0B3681B0E03240C
:102D68001C40032C4CD00B2A04D01D2A18D0032059
:102D78004042EBE7019B5905230018331B01995189
:102D88000A9B082B3FD8230018331B01F3180A9A13
:102D98005A600822002102A801F09BFE002316E0D9
:102DA800019BD90004231943230018331B019951AF
:102DB800E6E79908F85C03221A40D20090408A009E
:102DC80002A951580191084302A9505001330A9AA7
:102DD8009342EED32301F3181A008932FF32029985
:102DE80011608D33FF33039A1A6018342401A359F4
:102DF80001221343A3510A98A8E701204042A5E7FE
:102E080002204042A2E7042040429FE780808000E1
:102E180010B5034A0021034801F05BFE10BDC0460F
:102E280008280000F4050020F0B5D6464F4646466F
:102E3800C0B504000D001600FFF7EAFF2300C82202
:102E480002E0002204C30A00511E002AF9D12368B7
:102E58000132134323606368DB07FCD5374B9D427F
:102E680004D0374B9D4201D0364BE36123682022C2
:102E780013432360002E5CD02368103A93432360E9
:102E8800236808221343236080239B009946E25855
:102E980001231A434946625087229200A158994358
:102EA800A150812189008C46615899436046215080
:102EB8008327BF00E1599943E1518526B600A159FE
:102EC8009943A15100218A469021890050466050BB
:102ED80004316050A1581943A150A15888460221D5
:102EE80040468843A0506046205888438046604644
:102EF80045462550E0590843E051A7598F43A7514B
:102F080034365046A0510436A051A5582943A15043
:102F1800626912210A4362614A46A2589A434946A5
:102F2800625022689A432260E0BCBA46B146A8467D
:102F3800F0BD2368102213432360A1E7A086010097
:102F480040420F0001001C00F0B5CE46474680B550
:102F580083B08146FFF7D0FE040083001B181B02D4
:102F68001B189B00194A9F58FF2F27D8174E85001A
:102F78002D182D022B189B007A1C9A51BB009846DD
:102F8800D91989002B189B00C9180B0008339B1905
:102F9800043389190A000832043108200090484691
:102FA800FFF73AFE4744BF002D19AD007F19F71906
:102FB800786103B0C0BCB946B046F0BD00230093A9
:102FC800002200214846FFF727FEF2E7F40500201B
:102FD80010B50248FFF7B8FF10BDC04600640040B6
:102FE80010B50248FFF7B0FF10BDC04600640040AE
:102FF80010B50248FFF7A8FF10BDC04600340040D6
:1030080010B50248FFF7A0FF10BDC04600340040CD
:1030180010B5FFF771FE83001B181B021B189B00DD
:1030280003495858002801D0CA18506910BDC04635
:10303800F4050020F0B583B00D0017000193FFF7E9
:103048005BFE06008400241824022418A400234BE5
:10305800E358002B01D0012805D900233B60002745
:10306800380003B0F0BD83001B181B021B189B001F
:103078001A4AD3185A682A609A683A605F69089BA6
:103088009F4200D91F00B400A4192402A119890085
:103098000831124D491904313A00019801F006FD32
:1030A80072B6A3199B005A59013A1C005A51FF2ABB
:1030B80001D962B6D4E7B3009B191B022000074C64
:1030C800001904309B199B0014331919043193001B
:1030D8009A18920001F0EAFCEBE7C046F4050020DC
:1030E80010B582B00100A94A106C8024A4042043C2
:1030F8001064136C23400193019B0022A448FFF73E
:1031080093FEA44B1C681F2180204000802305E00B
:10311800400001221A40104301395B08002BF7D107
:103128008840FDF711FAFF2318404000FC3B83401C
:103138009C431F2180204000802305E0400001229D
:103148001A40104301395B08002BF7D18840FDF77E
:10315800FBF9FF2318404000FD3B83401C438D4A88
:103168001460536A0F218B4306390B4353629468EA
:10317800163180204000802305E0400001221A40DB
:10318800104301395B08002BF7D18840FDF7DCF9C3
:10319800FF2318404000FC3B83409C431F218020B4
:1031A8004000802305E0400001221A401043013905
:1031B8005B08002BF7D18840FDF7C6F9FF231840BC
:1031C8004000FD3B83401C43724B9C605A68724927
:1031D8000A405A60DC682131FF318020400080239A
:1031E80005E0400001221A40104301395B08002B1A
:1031F800F7D18840FDF7A8F9FF2318404000FC3BB1
:1032080083409C43802300E05B08002BFCD1614B8A
:10321800DC601C681F218020800080235B0005E0A3
:10322800400001221A40104301395B08002BF7D1F6
:103238008840FDF789F9FF2318404000FC3B834094
:103248009C431F218020800080235B0005E0400014
:1032580001221A40104301395B08002BF7D188403E
:10326800FDF772F9FF2318404000FD3B83401C43E3
:10327800484B1C605C6A1F210220012305E04000C6
:1032880001221A40104301395B08002BF7D188400E
:10329800FDF75AF9FF2318408000F03B83409C4318
:1032A8001F210220012305E0400001221A4010439B
:1032B80001395B08002BF7D18840FDF745F9FF235A
:1032C80018408000F63B83401C43324B5C629C688C
:1032D8001F218020800080235B0005E04000012240
:1032E8001A40104301395B08002BF7D18840FDF7DD
:1032F8002BF9FF2318404000FC3B83409C431F21CF
:103308008020800080235B0005E0400001221A40F5
:10331800104301395B08002BF7D18840FDF714F9F9
:10332800FF2318404000FD3B83401C43194B9C6021
:103338005A681A490A405A60DC681F2180208000B8
:1033480080235B0005E0400001221A401043013948
:103358005B08002BF7D18840FDF7F6F8FF231840EB
:103368004000FC3B83409C4380235B0000E05B08FB
:10337800002BFCD1074BDC60094B802252031A60FA
:10338800802292031A6002B010BDC0460038024085
:103398000064004000040240FFFEFFFFFFFDFFFF46
:1033A80000E100E010B582B00100B44A106C80243E
:1033B800A40120431064136C23400193019B002255
:1033C800AF48FFF731FDAF4B1C681F2108200423CD
:1033D80005E0400001221A40104301395B08002B28
:1033E800F7D18840FDF7B0F8FF2318404000FC3BB8
:1033F80083409C431F210820042305E0400001224C
:103408001A40104301395B08002BF7D18840FDF7BB
:103418009BF8FF2318404000FD3B83401C43994B19
:103428001C601C6A1F210820042305E040000122BB
:103438001A40104301395B08002BF7D18840FDF78B
:1034480083F8FF2318408000F03B83409C431F21F2
:103458000820042305E0400001221A4010430139E6
:103468005B08002BF7D18840FDF76EF8FF23184062
:103478008000F43B83401C43824B1C629C681F21E4
:103488000820042305E0400001221A4010430139B6
:103498005B08002BF7D18840FDF756F8FF2318404A
:1034A8004000FC3B83409C431F210820042305E087
:1034B800400001221A40104301395B08002BF7D164
:1034C8008840FDF741F8FF2318404000FD3B83404A
:1034D8001C436C4B9C605A6808218A435A60DC681C
:1034E80017310820042305E0400001221A40104348
:1034F80001395B08002BF7D18840FDF725F8FF2339
:1035080018404000FC3B83409C43042300E05B08D8
:10351800002BFCD15B4BDC601C681F2110200823AA
:1035280005E0400001221A40104301395B08002BD6
:10353800F7D18840FDF708F8FF2318404000FC3B0E
:1035480083409C431F211020082305E040000122EE
:103558001A40104301395B08002BF7D18840FCF76B
:10356800F3FFFF2318404000FD3B83401C43454BBD
:103578001C601C6A1F211020082305E0400001225E
:103588001A40104301395B08002BF7D18840FCF73B
:10359800DBFFFF2318408000F03B83409C431F2142
:1035A8001020082305E0400001221A401043013989
:1035B8005B08002BF7D18840FCF7C6FFFF231840B3
:1035C8008000F43B83401C432E4B1C629C681F21E7
:1035D8001020082305E0400001221A401043013959
:1035E8005B08002BF7D18840FCF7AEFFFF2318409B
:1035F8004000FC3B83409C431F211020082305E02A
:10360800400001221A40104301395B08002BF7D112
:103618008840FCF799FFFF2318404000FD3B83409A
:103628001C43184B9C605A6810218A435A60DC6816
:103638000F311020082305E0400001221A401043F2
:1036480001395B08002BF7D18840FCF77DFFFF2389
:1036580018404000FC3B83409C43082300E05B0883
:10366800002BFCD1074BDC60074B80229200DA600C
:103678008022D200DA6002B010BDC0460038024095
:10368800003400400004024000E100E010B50248A8
:10369800FCF78CFF00BEFEE7DC5C0008024A1368FA
:1036A800013313607047C04620560020014B186054
:1036B8007047C0461C52002030B5184B1A68FA23D0
:1036C8009B009C466244164B1B68DB0708D5144BCD
:1036D8005B681B0404D0114B1B689B1AF3D430BDE4
:1036E800104A93688024A34393600C4B1D68FA2307
:1036F8009B009C46654403E002789A6201302100F1
:103708004C1E0029EBD0084B1B68DA691206F3D46B
:10371800024B1B685B1BF6D4E1E7C046205600202D
:1037280058600240004800401C52002010B50400B8
:10373800FCF782FD01002000FFF7BEFF10BD09283D
:1037480002D83030C0B270475730C0B2FBE730B54E
:1037580083B0040001AB00225A7014E020780009FD
:10376800FFF7EDFF6B46187101A8FFF7DFFF23781D
:103778000F201840FFF7E3FF6B46187101A8FFF709
:10378800D5FF013429004D1E0029E7D103B030BD13
:1037980070B582B00400C84B196B802080030143C8
:1037A80019631A6B02400192019A1A6C8021C902AE
:1037B8000A431A641B6C0B400093009BBF4B1A68AA
:1037C800BF491140BF4A0A431A60BF48BF491A6837
:1037D800C0231340402B27D0B84B9860D960B74B13
:1037E8005A68120C12048421C9000A435A601A68E4
:1037F800B74E3240802109050A431A601A68012031
:1038080002431A60B34B1868AD4D0540B2482843CF
:1038180018601A68324011431960B04B1D681F21A7
:1038280080204000802309E0A44BD8609960D6E747
:10383800400001221A40104301395B08002BF7D1E0
:103848008840FCF781FEFF2318404000FC3B834082
:103858009D431F2180204000802305E04000012275
:103868001A40104301395B08002BF7D18840FCF758
:103878006BFEFF2318404000FD3B83401D43974AE1
:103888001560536A0F218B4308390B4353629568BF
:10389800183180204000802305E0400001221A40B2
:1038A800104301395B08002BF7D18840FCF74CFE28
:1038B800FF2318404000FC3B83409D431F2180208C
:1038C8004000802305E0400001221A4010430139DE
:1038D8005B08002BF7D18840FCF736FEFF23184021
:1038E8004000FD3B83401D437C4B9D605A687C49EA
:1038F8000A405A60DD682131FF3180204000802372
:1039080005E0400001221A40104301395B08002BF2
:10391800F7D18840FCF718FEFF2318404000FC3B15
:1039280083409D431F2180204000802305E0400004
:1039380001221A40104301395B08002BF7D1884057
:10394800FCF702FEFF2318404000FE3B83401D4366
:10395800624BDD601D681F218020800080235B0092
:1039680005E0400001221A40104301395B08002B92
:10397800F7D18840FCF7E8FDFF2318404000FC3BE6
:1039880083409D431F218020800080235B0005E049
:10399800400001221A40104301395B08002BF7D17F
:1039A8008840FCF7D1FDFF2318404000FD3B8340D1
:1039B8001D434A4B1D605D6A1F210220012305E05B
:1039C800400001221A40104301395B08002BF7D14F
:1039D8008840FCF7B9FDFF2318408000F03B834086
:1039E8009D431F210220012305E0400001221A40C7
:1039F800104301395B08002BF7D18840FCF7A4FD80
:103A0800FF2318408000F83B83401D43334B5D6221
:103A18009D681F218020800080235B0005E0400016
:103A280001221A40104301395B08002BF7D1884066
:103A3800FCF78AFDFF2318404000FC3B83409D4370
:103A48001F218020800080235B0005E040000122C8
:103A58001A40104301395B08002BF7D18840FCF766
:103A680073FDFF2318404000FD3B83401D431B4B63
:103A78009D605A681B490A405A60DD681F218020F2
:103A8800800080235B0005E0400001221A401043BB
:103A980001395B08002BF7D18840FCF755FDFF235F
:103AA80018404000FC3B83409D431F21802080003C
:103AB80080235B001EE0C0460038024028600240B8
:103AC8001F80FCFF0005020024480040FC4D002038
:103AD800FFFFFFE15860024040040200000C024072
:103AE800FFFEFFFFFFFDFFFF400001221A401043C9
:103AF80001395B08002BF7D18840FCF725FDFF232F
:103B080003405B00012632009A4015431A4BDD60E2
:103B18001A4990228B58302083438B50184D2B68BC
:103B2800843A934313432B602B68164A13402B6047
:103B38006B68154A13406B60144B18686308C0180B
:103B48002100FCF78BFB0004000CE8602B681E4387
:103B58002E600B4BDB699B02FBD5094BDB695B02D3
:103B6800F7D5074B9A6840210A439A609A68403112
:103B78008A439A6002B070BD000C024000380240CF
:103B880000480040FFE9FFEFFFCFFFFF00000020E3
:103B980070B584B00400D64B196B8020C003014374
:103BA80019631A6B02400392039A596C102211434D
:103BB80059645B6C1A400292029BCE4A1368012139
:103BC8000B431360CC4B1A688A431A601A68CB49B6
:103BD8001140CB4A0A431A60CA48CB491A68C02325
:103BE8001340402B1BD0C44B9860D960C24B5A6815
:103BF800120C1204802149010A435A601A68C34909
:103C08001140802212050A431A601A6801210A43EA
:103C18001A60BF4B1D681E314020202309E0B64BB7
:103C2800D8609960E2E7400001221A401043013948
:103C38005B08002BF7D18840FCF786FCFF2318406F
:103C48004000FC3B83409D431F214020202305E08A
:103C5800400001221A40104301395B08002BF7D1BC
:103C68008840FCF771FCFF2318404000FD3B83406F
:103C78001D43A74B1D601D6A1F214020202305E01E
:103C8800400001221A40104301395B08002BF7D18C
:103C98008840FCF759FCFF2318408000F03B834024
:103CA8009D431F214020202305E0400001221A40A7
:103CB800104301395B08002BF7D18840FCF744FC1E
:103CC800FF2318408000F83B83401D43904B1D6242
:103CD8009D681F214020202305E0400001221A4052
:103CE800104301395B08002BF7D18840FCF72CFC06
:103CF800FF2318404000FC3B83409D431F21402088
:103D0800202305E0400001221A40104301395B08D6
:103D1800002BF7D18840FCF717FCFF231840400020
:103D2800FD3B83401D437A4B9D605A6840218A437E
:103D38005A60DD6821394020202305E04000012237
:103D48001A40104301395B08002BF7D18840FCF773
:103D5800FBFBFF2318404000FC3B83409D431F2191
:103D68004020202305E0400001221A401043013979
:103D78005B08002BF7D18840FCF7E6FBFF231840CF
:103D88004000FE3B83401D43614BDD601D681F21E1
:103D9800802000028023DB0105E0400001221A4058
:103DA800104301395B08002BF7D18840FCF7CCFBA6
:103DB800FF2318404000FC3B83409D431F21802087
:103DC80000028023DB0105E0400001221A40104375
:103DD80001395B08002BF7D18840FCF7B5FBFF23BE
:103DE80018404000FD3B83401D43494B1D605D6A00
:103DF8001F218020402305E0400001221A40104383
:103E080001395B08002BF7D18840FCF79DFBFF23A5
:103E180018408000F03B83409D431F2180204023B1
:103E280005E0400001221A40104301395B08002BCD
:103E3800F7D18840FCF788FBFF2318408000FB3B44
:103E480083401D43324B5D629D681F218020000224
:103E58008023DB0105E0400001221A4010430139AC
:103E68005B08002BF7D18840FCF76EFBFF23184056
:103E78004000FC3B83409D431F218020000280239B
:103E8800DB0105E0400001221A40104301395B08BC
:103E9800002BF7D18840FCF757FBFF231840400060
:103EA800FD3B83401D431A4B9D605A6819490A40DF
:103EB8005A60DD681F21802000028023DB0105E0B5
:103EC800400001221A40104301395B08002BF7D14A
:103ED8008840FCF739FBFF2318404000FC3B834037
:103EE8009D431F21802000028023DB011AE0C04689
:103EF8000038024000100140406402401F80FCFF6F
:103F08000005020024100140FC3D0020FFFFFFE1F6
:103F180000040240FF7FFFFF400001221A401043C7
:103F280001395B08002BF7D18840FCF70DFBFF2314
:103F380003405B00012632009A4015431E4BDD60AA
:103F48001E4B596C102211435964596C0A40019256
:103F5800019A90215A58032082435A50184D2B68D1
:103F68000C22934313432B602B68164A13402B6093
:103F78006B68154A13406B60144B18686308C018C7
:103F88002100FCF76BF90004000CE8602B681E4365
:103F98002E600B4BDB699B02FBD5094BDB695B028F
:103FA800F7D5074B9A6840210A439A609A684031CE
:103FB8008A439A6004B070BD000402400038024091
:103FC80000100140FFE9FFEFFFCFFFFF00000020D6
:103FD80030B585B00400CE4B196B8020C003014377
:103FE80019631A6B02400392039A596C20221143F9
:103FF80059645B6C1A400292029BC64B1A680121F5
:104008008A431A601A68C4491140C44A0A431A60AC
:10401800C348C4491A68C0231340402B1BD0BD4B6A
:104028009860D960BB4B5A68120C12048021490170
:104038000A435A601A68BC491140A02212050A4373
:104048001A601A6801210A431A60B84B1D681E31AC
:104058004020202309E0AF4BD8609960E2E7400098
:1040680001221A40104301395B08002BF7D1884020
:10407800FCF76AFAFF2318404000FC3B83409D434D
:104088001F214020202305E0400001221A40104350
:1040980001395B08002BF7D18840FCF755FAFF235C
:1040A80018404000FD3B83401D43A04B1D601D6A26
:1040B8001F214020202305E0400001221A40104320
:1040C80001395B08002BF7D18840FCF73DFAFF2344
:1040D80018408000F03B83409D431F21402020234F
:1040E80005E0400001221A40104301395B08002B0B
:1040F800F7D18840FCF728FAFF2318408000F73BE7
:1041080083401D43894B1D629D681F214020202349
:1041180005E0400001221A40104301395B08002BDA
:10412800F7D18840FCF710FAFF2318404000FC3B09
:1041380083409D431F214020202305E040000122A9
:104148001A40104301395B08002BF7D18840FCF76F
:10415800FBF9FF2318404000FD3B83401D43734B90
:104168009D605A6840218A435A60DD6821394020A1
:10417800202305E0400001221A40104301395B0862
:10418800002BF7D18840FCF7DFF9FF2318404000E7
:10419800FC3B83409D431F214020202305E0400035
:1041A80001221A40104301395B08002BF7D18840DF
:1041B800FCF7CAF9FF2318404000FD3B83401D432C
:1041C8005A4BDD601D681F218020402305E0400018
:1041D80001221A40104301395B08002BF7D18840AF
:1041E800FCF7B2F9FF2318404000FC3B83409D4395
:1041F8001F218020402305E0400001221A4010437F
:1042080001395B08002BF7D18840FCF79DF9FF23A3
:1042180018404000FD3B83401D43444B1D601D6A10
:104228001F218020402305E0400001221A4010434E
:1042380001395B08002BF7D18840FCF785F9FF238B
:1042480018408000F03B83409D431F21802040237D
:1042580005E0400001221A40104301395B08002B99
:10426800F7D18840FCF770F9FF2318408000F73B2E
:1042780083401D432D4B1D629D681F2180204023D4
:1042880005E0400001221A40104301395B08002B69
:10429800F7D18840FCF758F9FF2318404000FC3B51
:1042A80083409D431F218020402305E040000122D8
:1042B8001A40104301395B08002BF7D18840FCF7FE
:1042C80043F9FF2318404000FD3B83401D43174B33
:1042D8009D605A6880218A435A60DD686139802070
:1042E800402305E0400001221A40104301395B08D1
:1042F800002BF7D18840FCF727F9FF23184040002E
:10430800FC3B83409D431F218020402316E0C0468C
:1043180000380240286402401F80FCFF00050200AC
:1043280024140140FC2D0020FFFFFFE1000802409B
:10433800400001221A40104301395B08002BF7D1D5
:104348008840FCF701F9FF2318404000FD3B8340FB
:104358001D43264BDD60264B596C202211435964BE
:10436800596C0A400192019A90215A5821480240FA
:104378005A50214D2B680C22934313432B606B68D2
:104388001E4A1A4080235B0213436B606B681C4A09
:104398001A4080239B0213436B602B68194A134011
:1043A8002B606B68184A13406B60184B18686308D9
:1043B800C0182100FBF752FF0004000CE8602B68CE
:1043C800012213432B600C4BDB699B02FBD50A4B84
:1043D800DB695B02F7D5084B9A6840210A439A606B
:1043E8009A6840318A439A6005B030BD000802409F
:1043F80000380240FFF3FFFF00140140FFFFFEFFFB
:10440800FFFFFDFFFFE9FFEFFFCFFFFF00000020E8
:10441800F0B5C64600B51600474B9C466044850279
:1044280001248C402B689846670820003B001F2118
:1044380005E0400001221A40104301395B08002BB7
:10444800F7D18840FCF780F8FF2318404000FC3B78
:10445800834042469A43904620001F2205E04000D0
:1044680001233B401843013A7F08002FF7D19040C1
:10447800FCF76AF8FF2318404000FE3B83404246A1
:104488001A432A60AB689846670820003B001F2142
:1044980005E0400001221A40104301395B08002B57
:1044A800F7D18840FCF750F8FF2318404000FC3B48
:1044B800834042469A43904620001F2205E0400070
:1044C80001233B401843013A7F08002FF7D1904061
:1044D800FCF73AF8FF2318404000FD3B8340424672
:1044E8001A43AA60EB689846670820003B001F2122
:1044F80005E0400001221A40104301395B08002BF7
:10450800F7D18840FCF720F8FF2318404000FC3B17
:10451800834042469A43130000E07F08002FFCD1F5
:10452800EB60002E05D000239C40AC6180BCB846EF
:10453800F0BD1023F8E7C04680001000014B186852
:104548007047C0462056002010B5FDF7D9F8FCE7A3
:104558007047000082B0084B1B680193019B431C05
:1045680000D00130002805D0034B1B68DB03F9D5C8
:104578000138F7E702B0704710E000E0014B18601F
:104588007047C04600000020F8B504000E00150072
:104598001F001C22002100F09CFA2A000021300094
:1045A80000F097FA66606561A760F8BD70B5040011
:1045B800080025696169FBF7D7FE2161A94200D18E
:1045C80070BDFFF7BBFF2060FAE710B50400426931
:1045D8000021406800F07DFA00232360E360236136
:1045E800A36110BD0369C360704770B50400C0685B
:1045F800A669F3070ED42569854223D063681B5C3E
:104608000A2B17D001306169FBF7AEFE08008D4216
:10461800F4D117E02369834214D063681B5C0A2B2A
:1046280010D1093B1E43A66101306169FBF79CFE6E
:10463800E16007E0093B1E43A66101306169FBF7B1
:1046480093FEE16070BDF0B5DE4657464E464546DE
:10465800E0B585B00600894693460393C0681368A1
:104668009C4660447169FBF77FFE0D00B068FBF75C
:10467800E3FD01903369AB426FD073685B194A461A
:1046880013600023029311E0013202926B1CE418BC
:104698004B461C6001357369AB4244D0F268AA42AC
:1046A80065D03269AA4265D0AB4253D9019B1A0042
:1046B800013B002AEED074686119625DB068C75C7E
:1046C800BA42F4D1884673699A465819F368C01AF1
:1046D8005B461B68C01A5146FBF746FE029A8B1AC6
:1046E8000A2F01D0002BCFD00F001C00039B002BFA
:1046F8000DD0681C5146FBF737FEF1600123B26903
:104708009A431300B261424612780A2A07D05B46E0
:1047180039001B689C4661445B4619601FE0093AF2
:104728001343B361F3E7F368ED1A5B461B68EB1AB2
:10473800029A9B1A5A461560039A002A05D000224D
:10474800F2600132B1699143B161802212061A43C5
:10475800140004E000231C0001E000231C002000DA
:1047680005B0F0BCBB46B246A946A046F0BD002342
:104778001C00F4E700231C00F1E700B583B0002318
:104788000193013301AAFFF75EFF03B000BD10B526
:1047980041690369CB18C068181AFBF7E5FD0800E2
:1047A80010BDF8B504000F001500FFF7F0FFA84290
:1047B80000D80500E16863695E1AB54200D22E0090
:1047C80063689C4661443200380000F06FF9E36882
:1047D80098196169FBF7C8FDE160B819B5420FD0B7
:1047E8002669B54200D22E0063689C4661443200B7
:1047F80000F05CF9E36898196169FBF7B5FDE160C1
:104808002800F8BD70B50400FFF7C1FFE168002576
:1048180004E0481C6169FBF7A7FD3000461E00282C
:1048280005D0013563685B5C0A2BF2D1280070BDA6
:10483800F0B5C64600B505000F009046FFF7A7FF84
:104848000400E968002308E05C1C0A2A0FD0481C11
:104858006969FBF789FD23003400661E002C0BD024
:104868006A68525C4345EFD23A700137ECE7A045DD
:1048780002D900223A709C1C200080BCB846F0BDCA
:1048880030B583B00500002300936A4601A9FFF7FD
:10489800DAFE002800D001DB03B030BD4400640814
:1048A800009400236A4601A92800FFF7CCFE0028DF
:1048B80001DB2018F0E70020EEE7F0B5C64600B5AA
:1048C80005000F001600FFF7DBFF041E03D12000D0
:1048D80080BCB846F0BD39002800FFF74EFF3060B5
:1048E80000237B6073603468002C03DB34687068D5
:1048F8002418ECE7640064083460AB689846180034
:10490800FBF79AFC03001A00013B002A06D06A68EC
:1049180011784246D25C9142F5D1D8E7391D28007A
:10492800FFF72BFF7060E1E730B585B00C0015008C
:104938006A4602A9FFF7C1FF002821D0A84200D982
:104948002800030008E0013B013A0092029A511C3A
:104958000291127822700134002B0CD0009A002AA0
:10496800F1D108E0013B013A0192039A511C0391ED
:10497800127822700134002B02D0019A002AF1D15A
:1049880005B030BD70B584B00C006A4602A9FFF7C7
:1049980094FF031E52D0E1B200250020002213E04C
:1049A800019B002B4ED0013B0193039B5E1C039699
:1049B8001B7815E0002A1BD00A291DD0102922D007
:1049C8004843C018013223005C1E002B32D0009BE4
:1049D800002BE5D0013B0093029B5E1C02961B78DE
:1049E8000028E7D1012AE5D1782BE3D11021E9E7A6
:1049F8002D2BE1D10125E5E7303BDBB2092BDFD9CF
:104A0800012040421CE01E00303EF6B2092E0FD9AC
:104A18001E00613EF6B2052E02D8573BDBB2CFE747
:104A28001E00413EF6B2052E0FD8373BDBB2C7E772
:104A38003300C5E7002D03D0404201E00120404289
:104A480004B070BD01204042FAE701204042F7E778
:104A580010B50A21FFF796FF10BD10B50A21FFF720
:104A680091FF10BD70B500260C4D0D4C641BA410B1
:104A7800A64209D1002600F0B5FC0A4D0A4C641B79
:104A8800A410A64205D170BDB300EB589847013673
:104A9800EEE7B300EB5898470136F2E71C5D0008D3
:104AA8001C5D00081C5D0008205D000810B58842E8
:104AB80002D98B18984203D3002307E08B5C8354F8
:104AC800013AFBD210BDCC5CC45401339A42FAD1EE
:104AD800F8E703008218934200D170471970013338
:104AE800F9E700000CB430B5174B0C001D689DB0F9
:104AF800002908DA8B2301202B6040421DB030BC0E
:104B080008BC02B0184782236A469B0093820023A0
:104B180002900690994200D04B1E049307930123FC
:104B28006A465B42D382280021AB209A02A90193EE
:104B380000F084F8431C01DA8B232B60002CDDD0B5
:104B48000023029A1370D9E7040000200A7830B5D0
:104B5800002A0CD130BD9A4208D10123CC5C002C2C
:104B6800F8D0C55CA54201D10133F7E701300378DD
:104B7800002BF0D11800EDE7F0B58E6885B007007E
:104B88000C00039201939E423CD890238A89DB0053
:104B98001A4234D00969236860695B1A02930323B7
:104BA8004343DD0FED18019B029801331B186D106C
:104BB800AB4200D91D00530532D52900380000F05A
:104BC8003FFB061E09D10C233B6040230120A2892C
:104BD80040421343A38105B0F0BD029A216900F059
:104BE800BAFAA389144A1A4080231343A381029B6B
:104BF8002661F61826606561019EED1AA560019B85
:104C08009E4200D9019E320003992068FFF74EFFAB
:104C1800A36800209B1BA36023689E192660DAE71F
:104C28002A00380000F082FB061EE0D13800216916
:104C380000F09AFAC7E7C0467FFBFFFFF0B5A1B0C6
:104C480003901D008B890F0016001B0611D50B69F8
:104C5800002B0ED1402100F0F3FA386038610028AB
:104C680005D10C23039A0138136021B0F0BD40230D
:104C78007B61002308AC6361203363761033A3762D
:104C8800079535002B78002B01D0252B47D1AB1B7E
:104C98000593B5420CD0320039000398FFF76CFF3A
:104CA800431C00D1AEE06269059B9446634463618E
:104CB8002B78002B00D1A5E001220023524262602C
:104CC80004A9543252186E1C2360E360A360137069
:104CD800A36505223178544800F032FA751C002883
:104CE8001FD12268D30604D5532304A95B182021B9
:104CF8001970130704D5532304A95B182B211970C5
:104D080033782A2B16D0350000210A20E3682A7848
:104D18006E1C303A092A4ED9002911D117E0013505
:104D2800B0E7414B2268C01A0123834013432E0089
:104D38002360CEE7079B191D1B680791002B01DB39
:104D48000B9304E05B42E3600223134323602B7858
:104D58002E2B0AD16B782A2B35D1079B02351A1DC9
:104D68001B680792002B2BDB0993304E032230007F
:104D7800297800F0E5F9002806D04023801B8340FD
:104D880022680135134323602978062228486E1CBF
:104D9800217600F0D5F900283CD0264B002B25D1F0
:104DA8000722079B07339343083307936369049AE1
:104DB8009B18636165E74343350001219B18A6E70B
:104DC80001235B42D0E700230A201A000135636003
:104DD80029786E1C3039092903D9002BC5D00992CE
:104DE800C3E74243350001235218F1E707AB0093AC
:104DF8003A002100104B0398AFF300800490049B05
:104E08000133D3D1BB890D985B0600D42DE701206F
:104E180040422AE707AB00933A002100064B03986B
:104E280000F07CF8EAE7C046E95C0008EF5C00089F
:104E3800F35C000800000000814B0008F7B515007E
:104E480001938A680B690C000090934200DA130002
:104E580022002B6043321278002A01D001332B60E4
:104E680023689B0602D52B6802332B602268062331
:104E780017001F401A4227D0230043331B785A1EBD
:104E880093412268920630D4220001990098089E26
:104E98004332B047431C25D0062320682A68E168BE
:104EA80000250340042B03D18D1AEB43DB171D406B
:104EB800A3682269934201DD9B1AED180027BD42C1
:104EC80020D1002010E00137E3682A689B1ABB4212
:104ED800D2DD2200012301990098089E1932B047BB
:104EE800431CF0D101204042FEBD3020E11843317F
:104EF800087021005A1C45310978A2184332023340
:104F08001170C1E72200012301990098089E1A3206
:104F1800B047431CE6D00137D1E70000F0B58BB0AD
:104F280006920A0043320793059004920A7E0C0009
:104F3800109B782A07D8622A09D8002A00D1C1E034
:104F4800582A00D18CE026004236327022E0100048
:104F580063381528F7D8FBF777F916001F00F6FF16
:104F6800F6FFF6FFF6FF1F00F6FFF6FFF6FFF6FF67
:104F7800A80036009A00F6FFF6FFB900F6FF3600E3
:104F8800F6FFF6FF9E0026001A684236111D1960CA
:104F9800136833700123A7E0086819680A1D05061D
:104FA8000BD50D681A60002D03DA2D23049A6D4283
:104FB8001370614B0A2703931BE00D681A604106C2
:104FC800F1D52DB2EFE70D681968081D18602E0697
:104FD80001D50D6803E06D06FBD50D68ADB2564BE3
:104FE800082703936F2A00D0023723000022433397
:104FF8001A706368A360002B03DB042221689143C5
:105008002160002D02D1049E002B0CD0049E2800A4
:105018003900FBF7A9F9039B013E5B5C33702B0059
:1050280005009F42F3D9082F09D12368DB0706D56D
:1050380063682269934202DC3023013E3370049B8B
:105048009B1B2361079B210000930598069B09AAD7
:10505800FFF7F4FE431C4CD1012040420BB0F0BDD9
:1050680045310A70344A03921A68216820CA1A60C6
:10507800080616D5CB0702D520231943216010272F
:10508800002DB2D1202322689A432260ADE7202266
:1050980009680A4322602200782145321170274AA4
:1050A800E1E74806E6D5ADB2E4E71A680D68101DD9
:1050B8004969186013682E0601D5196002E06D066B
:1050C800FBD519800023049E2361BBE71A68111DD4
:1050D8001960166800213000626800F031F8002875
:1050E80001D0801B6060636823610023049A1370F9
:1050F800A8E72369320006990598079DA847431C2D
:10510800AAD023689B0715D4099BE0689842A5DAC2
:105118001800A3E72200012306990598079E193273
:10512800B047431C98D00135E368099A9B1AAB42F3
:10513800F0DCE9E70025F7E7FA5C00080B5D0008FA
:10514800C9B28218904201D10020704703788B427F
:10515800FBD00130F6E7002310B59A4200D110BD0C
:10516800CC5CC4540133F8E770B50500002910D0B1
:105178000C1F2368002B00DAE418280000F018F947
:105188001D4A1368002B05D163601460280000F0E5
:1051980017F970BDA34208D9216860188342F3D17A
:1051A80018685B6841182160EEE71A005B68002BFD
:1051B80001D0A342F9D911685018A0420BD1206838
:1051C8000918501811608342E0D118685B684118CB
:1051D80011605360DAE7A04202D90C232B60D5E7AF
:1051E80021686018834203D118685B684118216000
:1051F80063605460CAE7C0462456002070B50F4E5D
:105208000D0031680400002902D100F0BFF83060B9
:105218002900200000F0BAF8431C0AD00323C51C5B
:105228009D43A84207D0291A200000F0AFF8431C7C
:1052380001D101256D42280070BDC04628560020C6
:10524800F7B50322CB1C9343083306001F000C2B31
:1052580032D20C27B94231D8300000F0A9F8324DCB
:105268002B681C00002C2ED139003000FFF7C6FF38
:105278000400431C1ED12C682500002D4AD1236848
:105288002900E3183000019300F080F8019B834265
:1052980043D123680337FF1A03239F4308370C2F92
:1052A80000D20C2739003000FFF7A8FF431C34D088
:1052B8002368DF19276013E0002BCBDA0C230025C5
:1052C80033602800FEBD2268D11B20D40B2917D9D2
:1052D800E2192760A34211D12A6063681160536004
:1052E8003000250000F06CF807220B35231D95438C
:1052F800EA1A9D42E5D05B1BA350E2E75A60ECE74F
:105308006268A34201D12A60EAE75A60E8E723000D
:105318006468A7E72C006D68AFE70C2330003360A2
:1053280000F04EF8CDE7C04624560020F7B5070038
:105338000E001400002905D11100FFF781FF0500B8
:105348002800FEBD002A03D1FFF70EFF2500F7E76E
:1053580000F03EF80190844203D835004308A34288
:10536800EED321003800FFF76BFF051EE8D0019B44
:1053780022009C4200D91A0031002800FFF7EBFEFA
:1053880031003800FFF7F0FEDAE70000002370B5BF
:10539800064D040008002B60FBF706F9431C03D1F7
:1053A8002B68002B00D0236070BDC0462C5600200F
:1053B80010B5024800F014F810BDC0463056002061
:1053C80010B5024800F00DF810BDC0463056002058
:1053D8000B1F1B68181F002B01DA0B58C0187047E9
:1053E80070477047F8B5C046F8BC08BC9E46704781
:0C53F800F8B5C046F8BC08BC9E467047E3
:1054040001000100000000000000000030780000EE
:10541400206520002073200020552000202020201B
:105424003E3E3E20696E76207C2000002020202015
:105434003E3E3E20626D73207C2000004932433A98
:105444002070763120676D707074206F66660A0074
:105454004932433A2070763120676D707074206849
:105464006967680A000000004932433A20707632C6
:1054740020676D707074206F66660A004932433A83
:105484002070763220676D70707420686967680ACE
:10549400000000004932433A20666F726365206F52
:1054A4006666677269640A004932433A206175741A
:1054B4006F206772696420636F6E6E656374696FD1
:1054C4006E0A00004932433A20666F7263652067B2
:1054D4007269647469650A004932433A2073746FCF
:1054E400702073656C66207573652066726F6D201D
:1054F400626174740A0000004932433A20666F7294
:1055040063652073656C66207573652066726F6DC4
:1055140020626174740A00004932433A2061757450
:105524006F2073656C66207573652066726F6D20DD
:10553400626174740A0000004932433A2061757450
:105544006F20626174206368617267650A000000FD
:105554004932433A2073746F702062617420636827
:10556400617267650A0000004932433A20666F722F
:10557400636520626174206368617267650A000074
:10558400A00800085E0B0008840B0008AA0B0008A2
:10559400240C0008900800089008000890080008EF
:1055A40090080008900800084A0C00085E0C0008E7
:1055B4006C0C0008800C0008A00C0008B40C000857
:1055C4009008000890080008900800089008000857
:1055D4009008000890080008900800089008000847
:1055E4009008000890080008900800089008000837
:1055F4009008000890080008900800089008000827
:10560400C20C0008D00C0008E60C00086E6F206382
:1056140068616E676520696E2063686172676520E2
:1056240063757272656E740A0000000063656C6CC9
:10563400207374617465206D696E563A2025645632
:105644002C206D6178563A202564560A000000002B
:1056540063656C6C20766F6C74616765206163634D
:105664006570747320776F726B61726F756E6420EE
:105674006D61785F776174746167650A000000008A
:1056840063656C6C20746F6F20686967682C207385
:10569400746F7020776F726B61726F756E64206DBA
:1056A40061785F776174746167650A00626174741C
:1056B4002063757272656E743A20256C64572C20D1
:1056C4006176673A20256C64572C206D6178616C93
:1056D4006C6F773A202564572C20666F726365647B
:1056E4002076616C75652025646D410A0000000018
:1056F400536F6C61783A207374617475733D3078BC
:105704000000000020636F756E743D307800000067
:10571400416E746973757267653A20646973636F67
:105724006E6E65637420475249442C20666F726321
:1057340065204550530A0000416E746973757267A1
:10574400653A20636F6E6E65637420475249442046
:105754002832290A00000000416E7469737572676B
:10576400653A20636F6E6E65637420475249442026
:105774002833290A0000000020325E33316669783C
:105784000000000048574552522C00004F56544523
:105794004D502C0041434552522C00005357455262
:1057A400522C000054494D454F55542C0000000024
:1057B40020250A0052657365740A0000494E56207C
:1057C40061637469766974792074696D656F757441
:1057D4000A00000043414E2061637469766974795C
:1057E4002074696D656F75740A000000696E762017
:1057F4003E3E3E20202020207C200000202020202F
:1058040020202020202020207C2054696D65737482
:10581400616D703A20000000626D732063616E2038
:1058240074696D656F75740A00000000626D732001
:105834003E3E3E20202020207C20000020202020EE
:1058440020202020202020207C20566261743D25C9
:10585400642E25645609496261743D25642E2564CD
:105864004109576261743D256C645709536F433D88
:10587400256409456261743D25642E25646B57686F
:105884000A000000666F726365206261747420739D
:105894006F630A00202020202020202020202020A8
:1058A4007C20566261746D61783D25642E256456B2
:1058B40009566261746D696E3D25642E256456092E
:1058C40049636D61783D25642E2564410949646D01
:1058D40061783D25642E25644125730A000000008B
:1058E400736F63203C2031300A00000062617474DD
:1058F40020766F6C746167652064616E6765726F92
:1059040075732028332E3656292C2073746F70201B
:10591400666F726365642063686172676520746F83
:105924002061766F69642077656172696E670A0029
:105934002020202020202020202020207C20466F92
:10594400726D61743D256409556E6B3D256409468D
:105954006C616773424D533C3C31363D253034789D
:105964000943617061636974793D256457680A006D
:105974002020202020202020202020207C20546251
:105984006D733D25642E2564C2B04309426174439E
:105994006F756E743D256409436F6E746163743D65
:1059A4002564094368617267655265713D25640920
:1059B4004379636C65733D25640A00002020202030
:1059C40020202020202020207C20466C6167734208
:1059D4004D533D253034780A00000000202020205B
:1059E40020202020202020207C205463656C6C6DB6
:1059F40061783D25642E2564C2B043095463656C07
:105A04006C6D696E3D25642E2564C2B043095663EE
:105A1400656C6C6D61783D25642E2564560956636A
:105A2400656C6C6D696E3D25642E2564560A000014
:105A34002020202020202020202020207C20646C76
:105A4400696D3D25640949646C696D3D25642E25A5
:105A5400644109636C696D3D25640949636C696D32
:105A64003D25642E2564410A0000000020202020EA
:105A740020202020202020207C204F4243205662DA
:105A840061743D25642E25645609496261743D257F
:105A9400642E256441097374617475733D257325FF
:105AA400732573257325730A000000005541525471
:105AB400424D5355534552203E3E200055415254C9
:105AC400424D53203E3E207077720A007077720A6E
