:020000040800F2
:100000000000082059460008054F0008054F000869
:10001000054F0008054F0008054F000800000000CC
:10002000000000000000000000000000054F000874
:10003000054F000800000000054F0008154F00089C
:10004000054F0008054F0008054F0008054F000840
:10005000054F0008054F0008054F0008054F000830
:10006000054F0008054F0008054F0008054F000820
:10007000054F0008054F0008054F0008054F000810
:10008000054F0008054F0008054F0008054F000800
:10009000894C0008994C0008054F0008054F0008DE
:1000A000054F0008054F0008054F0008054F0008E0
:1000B000054F0008054F0008054F0008054F0008D0
:1000C000054F000825290008BD290008054F000834
:1000D000054F0008054F0008054F0008054F0008B0
:1000E000054F0008054F0008054F0008054F0008A0
:1000F000054F0008054F0008054F0008054F000890
:10010000054F0008054F0008054F0008054F00087F
:10011000054F0008054F0008054F0008054F00086F
:10012000054F0008054F0008054F0008054F00085F
:10013000054F0008054F0008054F0008054F00084F
:10014000054F0008054F0008054F0008054F00083F
:10015000054F0008054F0008054F0008054F00082F
:10016000054F0008054F0008054F0008054F00081F
:10017000054F0008054F0008054F0008000000006B
:10018000054F0008054F0008054F0008054F0008FF
:10019000054F0008054F0008054F0008054F0008EF
:1001A000054F0008054F0008054F0008054F0008DF
:1001B000054F0008054F0008054F000825290008D5
:1001C000BD290008054F000800000000054F000889
:1001D000054F0008054F0008054F0008054F0008AF
:1001E000054F0008A94C0008B94C0008054F00084D
:0801F000054F0008054F00084F
:1001F8000448054B10B5834203D0044B002B00D0B4
:10020800984710BD54000020540000200000000052
:1002180006480749091A8B10C90FC91810B54910A3
:1002280003D0044B002B00D0984710BD5400002089
:10023800540000200000000010B5074C2378002B64
:1002480009D1FFF7D5FF054B002B02D00448AFF3C7
:1002580000800123237010BD54000020000000001E
:10026800B05D0008054B10B5002B03D004490548C4
:10027800AFF30080FFF7CCFF10BDC04600000000C0
:1002880058000020B05D000810B583070AD00300AD
:10029800032102E001330B4205D01A78002AF9D174
:1002A800181A10BD030019680C4A0D4C8A188A43A5
:1002B80022420FD15968094A04338A188A432242D4
:1002C80008D15968054A04338A188A432242F1D072
:1002D80000E001331A78002AFBD1E1E7FFFEFEFEB9
:1002E80080808080F0B588420AD98B18984207D25E
:1002F800531E002A03D0CA5CC254013BFBD2F0BD96
:1003080005000F2A0AD8561E002AF8D00023CC5C14
:100318001A00EC5401339642F9D1F0E703273E0066
:100328000D430C0003002E402F422DD11500103D27
:100338002D09AC462F013F1825681D6065685D6072
:10034800A5689D60E5681034DD601D001033BD426E
:10035800F2D165460F230C2401352D0149191340AC
:100368004519144213D0043B9B0801339B008C5958
:10037800AC5104369E42FAD103231A40AD198919AB
:10038800561E002AC2D1BAE70500561EBEE71A005B
:10039800B9E7C04670B50D4B0D4D5E1BB610AB42AC
:1003A80005D0002408CD01349847A642FAD805F0B4
:1003B800FBFC084B084D5E1BB610AB4205D0002471
:1003C80008CD01349847A642FAD870BD986A00084B
:1003D800986A00089C6A0008986A0008F0B5CE463A
:1003E80047460300944680B5012959D901220120C6
:1003F8009046012500260124404206E0221A904634
:10040800260001257419A1420DD91F181A5D7F5DB8
:10041800BA42F3D336D001250122300001367419CF
:100428009046A142F1D844466246146001229146A2
:10043800023A012500269046012407E04246A21A06
:100448009146260001257419A1420ED94746DF19A5
:100458001A5D7F5DBA42F1D818D001250122B04655
:10046800013674199146A142F0D843460130013350
:10047800834203D36246494618001160C0BCB9469E
:10048800B046F0BD454505D00135BBE74D4504D024
:100498000135D8E776190125B4E776190125D2E7A1
:1004A800012399460023E5E7F0B54546DE46574661
:1004B8004E461400E0B585B003AA80468A4620005F
:1004C80019001D00FFF78AFF039B81460200E1180F
:1004D8002000019300F0D6FA00285ED15346591B3C
:1004E80080231B012B4300930123002700269B46F2
:1004F8000800B0421CD33B004F4500D24B46424651
:1005080091199D4227D98446080002E001339D4293
:1005180020D0E15CC25C9142F8D060469D421AD975
:100528005A464946521A9619F6180027B042E2D29E
:1005380040460099504400F0C9FA82445346581B7B
:10054800B042D8D2002005B0F0BCBB46B246A9469E
:10055800A046F0BD60464B464246013B91194F45C7
:1005680065D28446080003E05A1E9F420ED013004D
:10057800E15CC25C9142F7D06046013301379F428B
:1005880008D8019B9C46EF1A6644B2E701376046DB
:100598009F42F6D930004044D5E74B46EB1A4B450D
:1005A80000D24B460133009303935346591B8023D3
:1005B8001B012B4300269B4601270800B04218D395
:1005C80042464B4691194D4520D98446080002E021
:1005D80001339D4218D0E15CC25C9142F8D0010021
:1005E80060469D4212D94A46BA1A9619F618B04280
:1005F800E6D240465946504400F068FA82445346D1
:10060800581BB042DCD29DE7010060464B46013BD7
:100618000FD38446080001E0013B94D3E15CC25C3F
:100628009142F9D0009B60469C466644C6E74B461B
:10063800A4E7080087E7C046F0B5DE4657464546BA
:100648004E46E0B5844C8346A54414008A4605AA64
:10065800190020001D00FFF7C1FEFFAA019006AB9C
:100668001C3220C39342FCD1002D0FD02300A44696
:10067800681E6619201808241A7804AFC11A920057
:100688003F190133B9509E42F5D16446059B2000BD
:10069800019AE118984600F0F5F9002800D07AE0B0
:1006A800002399465346591B80231B012B43039370
:1006B8002B006F1E00264D4608009946029408E05C
:1006C800002D04D0984502D94B4642469B1A002576
:1006D800F618B04224D35B4608249919CB5D04AAC6
:1006E8009B001219D358002BEAD1019A2B0095428E
:1006F80000D213009F422AD98446029C080002E0D7
:1007080001339F4220D0E15CC25C9142F8D00100E5
:10071800029460469F421AD9019AB61A0136D6E762
:1007280058460399504400F0D1F9824453464A464A
:10073800981AB042CFD20020484B9D44F0BCBB462B
:10074800B246A946A046F0BD010060460294019A4F
:10075800531E95427DD28446029C080003E05A1E2F
:100768009D4210D01300E15CC25C9142F7D00100B9
:1007780060460294013301359D420AD84B464246F1
:1007880046449D1AA5E701350100029460469D4242
:10079800F4D90800D0E7019AAB1A934257D3013332
:1007A800039305935346591B80231B012B439946FA
:1007B8006B1E002608001F000294B0420CD35B4653
:1007C80008249919CB5D04AA9B001219D358002B51
:1007D8000DD0F618B042F2D258464946504400F0BF
:1007E80075F982445346581BB042E8D2A3E7019AF0
:1007F8001300BA4217D28446029C080002E0013373
:10080800BB420DD0E15CC25C9142F8D00100029479
:1008180060469F4207D9019AB61A0136F618D9E7F9
:10082800010060460294019B013BB2D38446029CBE
:10083800080002E0013B00D27EE7E15CC25C914225
:10084800F8D0039B60469C4602946644B5E71300C3
:10085800A5E713008FE7C046E4FBFFFF1C04000078
:10086800F0B5CE46474680B50E000978050004006D
:1008780091B0002958D07278002A00D178E0B07879
:10088800002857D013020B4307041F43F3789C46F4
:100898001B063B436746002F00D180E03279002ACF
:1008A8006AD03000FFF7F0FC80218900070001437F
:1008B800280000F00BF987424AD8FE2F00D985E0BE
:1008C800C01B804640226846791CA84400F086F880
:1008D800002F0FD0BA1994463F2233009146F8B240
:1008E800301849466C461A780A40C11A0133A15497
:1008F8009C45F6D12C003F256A46013CE35D2B4020
:10090800D35CE418A04503D224E04C44A04521D38D
:100918006A46E35D31002B40D35C20003A009946DB
:1009280000F0B0F80028F0D1200011B0C0BCB946E2
:10093800B046F0BD0904114300232A7806E02C00D4
:100948001B04013513432A7899423DD0002AF6D179
:100958000024E9E74346D819DB5D002BF8D0802155
:10096800090100F0B3F88044A045C5D20024DBE7B4
:1009780000F03EF90400D7E72A78002AE8D019BA2F
:10098800002301E08B4208D02C001B0201351343E1
:100998002A78002AF6D18B42DAD1033CC4E7120444
:1009A800090611432A7800020143002AD0D0002307
:1009B80001E0002ACCD02C00134301351B022A7811
:1009C8009942F6D1023CAFE7013CADE701003B009C
:1009D80032002800FFF730FE0400A5E7F0B5050057
:1009E800830749D0541E002A45D003000326CAB203
:1009F80002E00135013C3ED301332A703342F8D17D
:100A0800032C30D9FF220A401502AD182A04AD186C
:100A18000F2C34D92700103F3F093E01B4461E0071
:100A28001A0010366644156055609560D56010321E
:100A38009642F8D101373F01DB190F270C222740D6
:100A480022403C00002A0ED03E1FB608B400A4463F
:100A58001A001C1D644420C2A242FCD103240136A2
:100A6800B6009B193C40002C05D0C9B21C1919705E
:100A780001339C42FBD1F0BD03001400C0E72700FE
:100A8800E2E7C04630B5032A1AD90B0003439B0797
:100A980011D0551E002303E05A1C9D4213D01300A9
:100AA800C25CCC5CA242F7D0101B0DE0043A0430C3
:100AB8000431032A04D904680B689C42F6D0E8E79D
:100AC800551E002AE6D1002030BDC04610B50300EF
:100AD8004418002903D109E001339C4204D01A7854
:100AE800002AF9D1181A10BD201AFCE70020FAE7ED
:100AF80008B410B504009DB0002A32DB8223684692
:100B08009B008382002302911B930691002A13D035
:100B1800013A013BC382049220AB079220001F9A3E
:100B280002A9019300F0BAF9431C01DA8B23236070
:100B38000022029B1A700FE001235B42C3820492D9
:100B480020AB079220001F9A02A9019300F0A6F992
:100B5800431C01DA8B2323601DB010BC08BC01B014
:100B680018478B23036001204042F5E70CB410B509
:100B78001E4B9CB01C68002933DB82236A469B000D
:100B88009382002302901B930690002913D0013909
:100B9800013BD38204911FAB079120001E9A02A942
:100BA800019300F07BF9431C01DA8B2323600022B8
:100BB800029B1A7010E001236A465B42D3820491BB
:100BC8001FAB079120001E9A02A9019300F066F955
:100BD800431C01DA8B2323601CB010BC08BC02B094
:100BE80018478B23012023604042F5E700000020CE
:100BF8000323CAB2F0B50340002A35D00324002BE2
:100C08002DD1FF230B401D02ED182B04ED182C00ED
:100C18000168264E4C408B198B43A119A143244EE1
:100C28000B43334211D14168204F0C00CB196C4063
:100C38008B43E119A1430B4304303342F3D00378CB
:100C4800002B05D09A4204D001300378002BF9D14B
:100C58000020F0BD9342FCD001302042D1D003786F
:100C6800002BF7D10020F4E7002B08D0032202E084
:100C78000130104203D00378002BF9D1E9E702686C
:100C88000A4B0B49D31893430B4206D14268074BD2
:100C98000430D31893430B42F8D00378002BD8D0F4
:100CA80043780130002BFBD1D3E7C046FFFEFEFEA0
:100CB80080808080F0B546464F46D646C0B58E68DF
:100CC80080460C0091461D0008689E4239D80C22C7
:100CD8008B5E9022D200134210D135002A0049467B
:100CE800FFF700FB0020A3689B1BA36023685B1928
:100CF8002360E0BCBA46B146A846F0BD0969421A6D
:100D08009246606942001218D70FBF18681C7F10FE
:100D180050443A00B84201D9070002005B0512D5D9
:100D28001100404600F03CFA061E1FD052462169C9
:100D380000F02EFDA389124A134080221343A38199
:100D480006E01E00CAE7404600F00EFB061E09D06A
:100D58003000534650446761FF1A266120602E0018
:100D6800A760BBE74046216900F0A2FA0C2342467F
:100D7800136040220120A38940421343A381B8E7AE
:100D88007FFBFFFFF0B545465746DE464E46E0B5C9
:100D9800136883B0984693680D0092460190002B23
:100DA8006FD0002300249B460A688B6849E00C2119
:100DB8006B5E9021C9000B422BD068692969561ACD
:100DC80042001218D00F8218701C52100019914658
:100DD800904201D9814602008020C00003423AD0E7
:100DE8001100019800F0DCF9071E3DD03200296996
:100DF80000F0CEFCAB89284A134080221343AB8114
:100E08004B46B8199E1B2F61AE602700260028604C
:100E18006B6132005946FFF765FA51465046AB6898
:100E28002A688968DB1B9219091BAB602A608160FC
:100E380027D0414609688B4641464C6808218C46B4
:100E4800E0441F001000002CF3D01E009C42AED2DC
:100E580027002600DDE7019800F086FA071ECFD1AB
:100E68002969019800F024FA0C23019A01201360E3
:100E78004022AB8940421343AB8152460023936022
:100E880000E0002000235246536003B0F0BCBB468C
:100E9800B246A946A046F0BD7FFBFFFFF0B5DE468F
:100EA80057464E464546E0B51C008B898246894622
:100EB80093469DB01B0603D50B69002B00D1F5E0C6
:100EC800002304AD6B6120336B761033AB765B4641
:100ED8001B787F4F0394002B78D05C4604E063783E
:100EE8000134002B00D17EE0252BF8D15B46E61AB1
:100EF8005C4500D07BE02378002B67D001230022DB
:100F08005B42049205930022002306920793002374
:100F18004332AB54AB6501339B46013406E05A4675
:100F2800C01B82401C0029680A432A600522380039
:100F3800217800F0D7F8631C1E000028EFD12A683A
:100F4800D10602D5432120306854110702D5432128
:100F58002B20685421782A2955D1039B191D1B6819
:100F68000391002B00DA7CE0EB6061782E2960D0D9
:100F7800584C0322200000F0B5F8002806D0402382
:100F8800001B83402A68013613432B603178731C99
:100F9800062251489B46297600F0A4F8002866D01E
:100FA8004E4B002B56D003AA009229004A465046C1
:100FB8004B4BAFF3008080464346013306D06B6944
:100FC80043446B615B461B78002B86D14B469B895B
:100FD8005B0600D579E068691DB0F0BCBB46B24637
:100FE800A946A046F0BD5B46E61A5C45EED0330044
:100FF8005A4649465046FFF75DFE0130E6D06B6918
:101008009B196B6177E70800303826000928ADD8AE
:10101800EA68140000E00133A2001219197852009E
:101028001418080030380928F5D91E00EC602E295C
:101038009ED171782A2924D1039BB01C1A1D1B68E4
:1010480003926B60002B02DA01235B426B60B1787C
:1010580006008DE70722039B073393430833039366
:10106800ADE75B42EB6002231A432A607DE703AADF
:10107800009229004A465046194B00F055FA80461E
:101088009AE708000023303801366B60092800D938
:101098006EE71A0093009B1871785B001A18080015
:1010A800303801360928F5D96A6061E7402100F037
:1010B80077F84B4618601861002803D040234A4649
:1010C8005361FDE60C23524613600120404283E73A
:1010D800746800087C680008806800080000000048
:1010E800BD0C000870B5CCB283070DD0531E002A82
:1010F8000FD0032504E00130284206D0013B08D375
:101108000278A242F7D170BD1300032B03D8002B3D
:1011180014D10020F7E7FF220A401502AD182A046F
:101128000B4EAD1803E0043B0430032BEFD90268E3
:1011380008496A40511891433142F4D0C31802E07B
:1011480001309842E5D00278A242F9D1DBE7C046E7
:1011580080808080FFFEFEFE70B5104E050033686B
:101168000C00002B15D02100280000F057FB431C71
:101178000CD00323C41C9C43A04205D0211A28008C
:1011880000F04CFB013001D0200070BD0124644206
:10119800FAE7002100F042FB3060E4E7AC010020F0
:1011A800F8B50323CE464746CD1C9D4308350600B7
:1011B80080B50C2D1ED20C25A9421DD8300000F098
:1011C800E3FA3A4F7A68002A1AD0140004E06368F8
:1011D8002200002B14D01C0023685B1BF7D40B2BB8
:1011E80027D96119256094425BD051600B60636810
:1011F8004B600DE0002DDFDA0C230020336014E093
:1012080029003000FFF7A8FF0400431C19D005602F
:10121800300000F0BBFA200007220B30231D90435A
:10122800C21A984201D01B1AA350C0BCB946B04696
:10123800F8BD6368944202D05360E9E743467B6097
:10124800E6E77B689846002B24D0444663689846B6
:10125800002BFAD12368002199463000A14400F000
:10126800DDFA814516D123683000ED1A2900FFF711
:1012780073FF01300ED023687A685B1923605368C6
:10128800002B02D1DAE71A005B689C42FBD10023ED
:101298005360BDE70C233000336000F077FA00207C
:1012A800C3E779600B6063684B60B1E7AC0100206D
:1012B80070B50500002915D00C1F2368002B23DB0F
:1012C800280000F061FA274A1368002B05D0A342D2
:1012D8000BD92168601883422CD028006360146001
:1012E80000F054FA70BDA34210D81A005B68002BB6
:1012F800F9D1106811188C4218D02CD3636054604F
:10130800280000F043FAEDE7E418D9E7116850180F
:10131800A04214D01FD8216860188342EED1186803
:101328005B684118216063605460E9E723681B1813
:101338001360E5E718685B6841182160CDE720680D
:101348000918501811608342DAD118685B6841188F
:1013580011605360D4E70C2328002B6000F016FAC4
:10136800C0E7C046B0010020F0B5C64607000E0031
:10137800140000B500292DD0002A27D000F060FA0B
:101388008046844203D835004308A34210D3210085
:101398003800FFF705FF051E0AD0220044450BD888
:1013A8003100280000F0F4F931003800FFF780FF21
:1013B800280080BCB846F0BD31004246280000F045
:1013C800E7F931003800FFF773FFF1E7FFF770FF27
:1013D8000025EDE71100FFF7E3FE0500E8E7C0464A
:1013E800F8B557464E464546DE46E0B51F000A9B0F
:1013F800924698460A698B6806000C009A4200DA01
:101408001A0053461A604323E35C002B02D051466E
:1014180001320A602268910661D553465246062079
:101428001B680233136022681100104208D10020A3
:10143800814619308346E168A344994247DC11008C
:101448004323E35C5A1E934189060AD53020E118EC
:101458004331087045215A1C615CA218433202339B
:1014680011702200390030004332C04701301DD0CE
:10147800534606251B68E1689C462368A2682069D4
:101488002B40042B31D0824239DD00239946121AB1
:10149800914400251A3402E001354D452FDA012325
:1014A800220039003000C0470130F5D10120404208
:1014B800F0BCBB46B246A946A046F8BD01239C46EF
:1014C8005346E5681B68E144ED1A4D4524DD0123C8
:1014D8005A4639003000C0470130EFD1E6E706210F
:1014E80011420ED05A1E9341BBE76346C91ACB433B
:1014F800DB170B4099468242C9DC0029C9DC002071
:10150800D6E7002053468146193083461B68E168B8
:10151800A3449942DBDC92E743232168E35C5A1E2B
:101528009341890692D49CE7F0B54E4699464323E9
:101538009C4657464546DE468C446346E0B587B030
:1015480002930C00097E90460700109A002914D0D7
:101558000B00583BDBB2202B48D888489B00C35867
:101568009F46136821681D1D606915601B680E067B
:1015780002D4490600D5DCE018600023029D2361EF
:101588004B46210000933800434605AAFFF728FF81
:1015980001301ED02A00414638002369C84701306F
:1015A80017D02368E068059E9B071BD5B04219DD5C
:1015B80019239A460025A24404E0E0680135831BFC
:1015C800AB420FDD0123524641463800C84701307F
:1015D800F3D10120404207B0F0BCBB46B246A94651
:1015E800A046F0BDB042F6DA3000F4E72500422309
:1015F80001204235E154432300222061E254BFE731
:1016080013682168181D10600D0602D44D0600D518
:1016180094E01A6816006368002A00DA92E0584AD3
:1016280093460A2203924BE01368206840CB0506D4
:1016380001D440067FD41360514B9B466F2900D1DB
:1016480091E00A23039337E013682500191D116000
:101658001A68422301204235E254CCE71368191D69
:1016680011601D68002128006268FFF73BFD002813
:1016780000D181E0401B6060BDE7202321680B4357
:1016880023604521782060543E498B46116840C943
:10169800180603D4580601D53604360C1160DA074B
:1016A80002D5202213432360002E03D12022236871
:1016B800934323601023039343230022E254636877
:1016C800A360002B18DB042122688A432260002EC5
:1016D80012D1029D002B49D1039B082B1ED0029BDF
:1016E8005B1B23614CE745235821E15424492368B7
:1016F8008B46CBE72368C4E7039B9A46029D3000DC
:10170800514600F02DF95B465B5C013D2B703300C0
:1017180006005345F3D2039B082BE0D12368DB076F
:10172800DDD5626823699A42D9DC3023013D2B70EC
:10173800D5E7188021E73604360C7CE700269E5F43
:10174800320068E743222D20A054A360002B02DB5F
:101758000423994321600A239A46094B76429B4603
:101768000A230393CAE708230393A5E75B462500EA
:101778001B7842352B70AFE760683CE7D45D000802
:10178800886800089C6800087047C0467047C046D3
:10179800F0B505000F2A31D903273E000D430C0090
:1017A80003002E402F4234D11500103D2D09AC46C0
:1017B8002F013F1865685D60A5689D60E568DD607C
:1017C800256810341D601D001033BD42F2D16546F6
:1017D8000F230C2401352D014919134045191442D2
:1017E8001AD0043B9B0801339B008C59AC5104363A
:1017F8009E42FAD10323AD1989191A40561E002AB0
:1018080006D00023CC5C1A00EC5401339642F9D17F
:10181800F0BD0500561EF4E71A00EFE7002370B587
:10182800064C05000800236000F08EFA431C00D027
:1018380070BD2368002BFBD02B60F9E7B4010020B2
:101848000B1F1B68181F002B00DB70470B58C018B4
:10185800FBE7C046002243088B4274D303098B423E
:101868005FD3030A8B4244D3030B8B4228D3030C68
:101878008B420DD3FF22090212BA030C8B4202D30A
:101888001212090265D0030B8B4219D300E0090A32
:10189800C30B8B4201D3CB03C01A5241830B8B423B
:1018A80001D38B03C01A5241430B8B4201D34B0324
:1018B800C01A5241030B8B4201D30B03C01A524189
:1018C800C30A8B4201D3CB02C01A5241830A8B420E
:1018D80001D38B02C01A5241430A8B4201D34B02F7
:1018E800C01A5241030A8B4201D30B02C01A52415B
:1018F800CDD2C3098B4201D3CB01C01A524183090F
:101908008B4201D38B01C01A524143098B4201D348
:101918004B01C01A524103098B4201D30B01C01A73
:101928005241C3088B4201D3CB00C01A52418308ED
:101938008B4201D38B00C01A524143088B4201D31A
:101948004B00C01A5241411A00D20146524110467A
:101958007047FFE701B5002000F0F0F802BDC0466F
:101968000029F7D076E7704703460B437FD400225F
:1019780043088B4274D303098B425FD3030A8B421B
:1019880044D3030B8B4228D3030C8B420DD3FF2285
:10199800090212BA030C8B4202D31212090265D053
:1019A800030B8B4219D300E0090AC30B8B4201D306
:1019B800CB03C01A5241830B8B4201D38B03C01A4D
:1019C8005241430B8B4201D34B03C01A5241030BC4
:1019D8008B4201D30B03C01A5241C30A8B4201D375
:1019E800CB02C01A5241830A8B4201D38B02C01A20
:1019F8005241430A8B4201D34B02C01A5241030A97
:101A08008B4201D30B02C01A5241CDD2C3098B427B
:101A180001D3CB01C01A524183098B4201D38B01F8
:101A2800C01A524143098B4201D34B01C01A52419B
:101A380003098B4201D30B01C01A5241C3088B42E0
:101A480001D3CB00C01A524183088B4201D38B00CB
:101A5800C01A524143088B4201D34B00C01A52416D
:101A6800411A00D201465241104670475DE0CA0F44
:101A780000D04942031000D34042534000229C4604
:101A880003098B422DD3030A8B4212D3FC2289010E
:101A980012BA030A8B420CD3890192118B4208D3E4
:101AA800890192118B4204D389013AD0921100E046
:101AB8008909C3098B4201D3CB01C01A524183095A
:101AC8008B4201D38B01C01A524143098B4201D387
:101AD8004B01C01A524103098B4201D30B01C01AB2
:101AE8005241C3088B4201D3CB00C01A524183082C
:101AF8008B4201D38B00C01A5241D9D243088B4282
:101B080001D34B00C01A5241411A00D20146634624
:101B180052415B10104601D34042002B00D5494288
:101B2800704763465B1000D3404201B5002000F0C7
:101B380005F802BD0029F8D016E770477047C0467F
:101B48001C2101231B04984201D3000C10391B0AE5
:101B5800984201D3000A08391B09984201D30009A9
:101B6800043902A2105C40187047C0460403020200
:101B7800010101010000000000000000BFF34F8FC9
:101B88000549CA68E023DB001A40044B1343CB60C5
:101B9800BFF34F8FC046FDE700ED00E00400FA05F3
:101BA800F0B5C64600B580460C00170006684D081B
:101BB80008002B001F2105E0400001221A401043B5
:101BC80001395B08002BF7D18840FFF7B9FFFF23E5
:101BD80018404000FC3B83409E431F2205E0640000
:101BE80001232B401C43013A6D08002DF7D120003A
:101BF8009040FFF7A5FFFF2303405B009F403E4353
:101C080043461E6080BCB846F0BDF0B5C64600B578
:101C180080461700466A0D0A4C0A280023001F2137
:101C280005E0400001221A40104301395B08002BEF
:101C3800F7D18840FFF784FFFF2318408000F03B6E
:101C480083409E431F2205E06D00012323401D436E
:101C5800013A6408002CF7D128009040FFF770FF84
:101C6800FF2303409B009F403E4343465E6280BC87
:101C7800B846F0BDF0B5C64600B580460C00170062
:101C880086684D0808002B001F2105E0400001224E
:101C98001A40104301395B08002BF7D18840FFF741
:101CA8004FFFFF2318404000FC3B83409E431F2208
:101CB80005E0640001232B401C43013A6D08002D08
:101CC800F7D120009040FFF73BFFFF2303405B0064
:101CD8009F403E4343469E6080BCB846F0BDF0B589
:101CE800C64600B580460C001700C6684D080800B7
:101CF8002B001F2105E0400001221A401043013942
:101D08005B08002BF7D18840FFF71AFFFF23184024
:101D18004000FC3B83409E431F2205E064000123F2
:101D28002B401C43013A6D08002DF7D1200090404C
:101D3800FFF706FFFF2303405B009F403E434346F7
:101D4800DE6080BCB846F0BD7047000010B50400E6
:101D5800034803F0EDF9200003F02AFA10BDC0464D
:101D68000048004070B504000D00044803F0E0F995
:101D78002900200003F0E2F970BDC0460048004089
:101D880070B504000D00044803F0D2F929002000C2
:101D980003F01FFA70BDC0460048004070B582B01D
:101DA800019115001E00FFF7D1FF1B48FFF7CEFF7A
:101DB800019C210E230AFF22120213401943230219
:101DC800FF221204134019432406214301910B2DCD
:101DD80011D01D2D17D1042101A8FFF7D1FF0F48FD
:101DE800FFF7B4FF06993000FFF7CAFF0C48FFF76A
:101DF800ADFF02B070BD022101A8FFF7C1FF09487D
:101E0800FFF7A4FFEEE7042101A8FFF7B9FF064892
:101E1800FFF79CFFE6E7C046585E00085C5E0008D6
:101E28005C640008605E0008645E0008F0B583B07A
:101E380004000D0016001F000748009313000A0055
:101E48002100FFF7ABFF009733002A002100034869
:101E580002F0ACFD03B0F0BD685E0008006400400D
:101E6800F0B583B004000D0016001F00074800936A
:101E780013000A002100FFF791FF009733002A00A2
:101E88002100034802F092FD03B0F0BD785E00081F
:101E98000034004010B507490C000C3C1822200003
:101EA800FEF720FA200018300C220021FEF796FDDC
:101EB80010BDC0462C070020002100E00131064B70
:101EC8004A00521890001B185B68002B01D00229A9
:101ED800F4D90320401A70472007002070B5002568
:101EE80000E001350A4B6C006419A4001B195B68FB
:101EF800002B01D0022DF4D9022D07D8044B6C0019
:101F08006619B600F05098194160826070BDC046ED
:101F18002007002010B5034860220021FEF75EFD6F
:101F280010BDC046C0060020F8B50500002401E039
:101F38000134E4B2072C24D8244A63001B199B00FF
:101F48009B5CDB07F4D563001B199B009B585B085F
:101F5800AB42EDD1660030198000170080180430BC
:101F68000822FEF7BFF933199B006A00D9590125E9
:101F78000D401543DD511E00DB5D01221343F3556F
:101F880022E00024072C1FD8104A63001B199B006D
:101F98009B5CDB0702D50134E4B2F3E76600301935
:101FA80080001700801804300822FEF79BF93219C8
:101FB80092006D00D15901230B402B43D3511600D9
:101FC800D35D01221343F355F8BDC046C006002077
:101FD80010B5040002000E21012003F033FC22009A
:101FE8000C21052003F02EFC10BD000010B50A00DE
:101FF8000F280ED800290DD00A4C636801218140B2
:102008000B436360084C4300185DE418617803F0E3
:1020180019FC10BD034C6368012181408B43636048
:10202800F0E7C046C4020020206A000810B500246A
:1020380004E000212000FFF7D9FF01340F2CF8D964
:10204800024B00229A60013A1A6110BDC4020020B6
:10205800F0B5C64600B582B0674B1B68002B00D1AF
:10206800C5E0664B1B68644AD2689B1A00D5BEE07F
:10207800634B60229E5C0196002E00D1B7E05B6A3C
:10208800002B01D15E4B1B6AC8225200934205DC2B
:1020980033000020002401256D4217E05948FFF75E
:1020A80055FE564B1B68584A9A185349CA60002A6D
:1020B80004D10A0055498C466344D360FFF7B6FF44
:1020C80095E0644500D20C00013013005A1E002B25
:1020D80017D04B4B91008918CF00DB19643319884E
:1020E8008C468D42EDD9464B9700BF18FF00B84685
:1020F800434466331F88464B9F42E2D80D00019047
:10210800DFE73E4B1B68404A9A183B49CA60002AE1
:1021180004D10A003D498C466344D360364B1A69A2
:10212800964209D9364B91008A18D1005B1866335C
:102138001A88374B9A4239D82B000A33A34251DA0E
:102148002F4B60229A5C019B9A424BD02A4909691D
:102158008A420BD98B4209D00535294A8800411893
:10216800C800121864321288954225DB224A516849
:1021780001229A400A422AD1FFF758FF019801210B
:10218800FFF734FF1C4A019B13611C4B1B68214954
:102198008C46634493602048FFF7D8FD012101A8CD
:1021A800FFF7EEFD1D48FFF7D1FD20E01C48FFF7C3
:1021B800CDFDFFF73BFFBFE7104B1B68154A944660
:1021C80063440D4A93601748FFF7C0FD0FE00B4BBF
:1021D8001B68104A94466344074A93601248FFF705
:1021E800B5FD04E01148FFF7B1FDFFF71FFF02B08E
:1021F80080BCB846F0BDC046C4020020705700201D
:10220800E8020020885E0008307500003175000083
:10221800AB0D0000A0BB0D00185F00085C6400084F
:10222800BC5E0008D85E0008305F0008445F000804
:1022380010B504001F4B2A229B5E002B01D00023FF
:1022480012E01D48FFF782FD1A4B28215A5E5A8575
:10225800F5E71A4A5900C918490052185288002A45
:102268000ED0A2420CD20133032B17D813495A00BF
:10227800D2185200525A002AEBD0A242F3D8E8E70B
:102288000E4A5900CB185B00D2181379FF2B06D0E1
:10229800002B0CD005229B18064A538510BD064812
:1022A800FFF754FD034B28215A5E5A85F6E70022B2
:1022B800F1E7C046E8020020685F0008086A0008E5
:1022C800014B00221A607047C0010020F0B5C646D5
:1022D80000B5E04B1B68002B04D1DF4A00211160D8
:1022E800DE4A11605A1CDB490A60DD49486ADD494B
:1022F800C854012A05D0022A00D15EE280BCB84643
:10230800F0BD0B78312BF9D89B00D74AD3589F469C
:10231800D64B2E229B5C002BF0D0D54B187C002886
:10232800ECD0FF28EAD0CC4B00221A6001321A60A8
:1023380001321A60CB4A0625557003211960CB4932
:102348008C7B947018268C5F04261E602612D6702B
:1023580005261E60147116268C5F1D6025125571A6
:1023680007251D60947120254C5F08251D602512E6
:10237800D57109251D6014721C254C5F0A251D6046
:10238800251255720B251D6094721E254C5F0C2575
:102398001D602512D5720D251D6014730C89013539
:1023A8001D60250A55730F251D6094734C890135EE
:1023B8001D60250AD57311251D6014740C8801351C
:1023C8001D60250A557413251D6094744C880135C9
:1023D8001D60250AD57415251D6014750C24095F28
:1023E80016241C600C12547517241C609175A04BA0
:1023F8005B6A002B01D19E4B1B6A1A12964D18215D
:102408002960984CE27519222A6023761A232B60DA
:102418006076974E2822B35E1B222A601A12A27693
:102428001C222A60E3762C22B35E1D222A601A122F
:1024380022771E222A6063772E22B35E1F222A602B
:102448001A12A27720222A60E377884B588C093128
:102458002960070AA75402322A60605402312960B1
:1024680024201F5CA754286003329F5C67542A60AD
:1024780003315F5C275429602727D85DA0547D4A23
:102488001068000E60541168090CE1551168090ABA
:102498002820215411682922A154023028601A21C9
:1024A800595E02322A600B1223542C232B60A1544C
:1024B800714A11682D222A60E154704B19682E2345
:1024C8002B60A15402322A60717CE1547369190EA1
:1024D800A154190C0132A154190A0132A154013234
:1024E800A35401322A60F369190EA154190C013260
:1024F800A154190A0132A1540132A35437232B6085
:1025080002322A60B17CE15402332B605C4F397A85
:10251800A1543A683A212960E25478683039FFF7C3
:1025280023FA3B232B603A216054564A1268023141
:102538002960E254544BDA883D232B60100A60541A
:102548003E202860E25451490B683F2294462A6095
:102558005A1E93412354496840232B606246A15474
:1025680002322A60BA7AE254F8680A21FFF7FCF9C5
:1025780042232B604122A0541E33F35C36E03C4BCF
:10258800A1000919C9005B1819007C3109781800E5
:102598007D3000783038C0B2561C2F4D2E6030394F
:1025A800090108432F498854901C28601F0062378E
:1025B8003F788F55D61C2E601F0063373F780F5425
:1025C800180064300788101D80462860380A88552E
:1025D800561D2E6040460F5466331888931D2B6095
:1025E800070A8F5507322A60C85423005C1E002B47
:1025F80005D0194B1A6813000833FF2BBFD9194BA4
:10260800154A12681A7079E62148FFF79FFBFFF711
:1026180053FC012800D871E61E4807220921FFF75C
:102628005DFC1D4807220921FFF758FC66E61B4898
:10263800FFF78CFBFFF740FC012800D85EE6154841
:1026480007220921FFF74AFC154807220921FFF74D
:1026580045FC53E6C0010020B8010020BC01002061
:1026680000600040C4010020B06800087006002027
:10267800E802002070570020AC060020A8060020C1
:10268800B0060020A4060020D8020020C4020020C2
:10269800805F0008706A0008646A0008945F000898
:1026A800586A00086E48FFF751FBFFF705FC012840
:1026B80000D823E66B4807220921FFF70FFC6A4878
:1026C80007220921FFF70AFC18E66848FFF73EFBD6
:1026D800FFF7F2FB012800D810E66248072209211B
:1026E800FFF7FCFB624807220921FFF7F7FB05E625
:1026F8006048FFF72BFB604B00221A600120FFF7B0
:1027080067FCFBE55D48FFF721FB5B4B01221A6084
:10271800F4E55B48FFF71AFB574B02221A600020CA
:10272800FFF756FCEAE55748FFF710FB564B002227
:102738001A60564B2D329B5C002B01D0013BDBB25B
:10274800534A5374DAE55348FFF700FB4E4B022215
:102758001A604F4B49325A74D0E54F48FFF7F6FAE2
:10276800494B01221A60C9E54C48FFF7EFFA4C4B78
:1027780001221A60C2E54B48FFF7E8FA484A0023ED
:102788001360494A137053809380B7E54748FFF7B1
:10279800DDFA434B00221A60434B01321A70ADE553
:1027A800434B00221A60FFF741FCA7E5404B01228A
:1027B8001A60404A1268DA60A0E53F4B1B78173B65
:1027C800DAB21C2A00D999E593003C4AD3589F46AF
:1027D800394B5A783A4B1A7290E5374B5B78642B31
:1027E80000D90023364A136088E5334B5A789300A2
:1027F8009B185B00324A536080E52F4B5A78304B68
:102808009A727BE52C4B5A7893009B185B002C4AF4
:10281800D36073E5284B5978234B64224A43DA8006
:102828006CE5234C00232360234B58780121FFF7E4
:10283800DDFB204B1B68234A9A18A260002A00D0AF
:102848005CE51B4A20498C466344936056E5184B67
:1028580000221A60184B58780021FFF7C7FB4DE596
:10286800AC5F0008706A00084C6A0008C05F000886
:10287800406A0008D85F0008A8060020EC5F00083E
:10288800086000081C600008AC06002070060020E4
:10289800E80200203C6000085C6000087C600008DA
:1028A800A406002094600008D8020020AC6000084C
:1028B800C402002070570020C40100207869000875
:1028C800B006002040771B0041771B00084B1B68AF
:1028D800084A1268934207D2054A591C1160064AF1
:1028E800D25C064B9A627047044BAA229A62FAE7B6
:1028F800BC010020B8010020C40100200060004095
:10290800034A00231360034A1360034A13607047A5
:10291800C0010020B8010020BC01002010B5244BE4
:102928009B691B0710D5224B9B69FE22120413409A
:102938008822D20393421AD01D4AD36908210B4337
:10294800D361FFF7DDFF10BD194B9B69DB0616D479
:10295800174B9B695B0718D4154B9B699B0717D4CA
:10296800134B9B699B0616D4114B9B69EBE7FFF74A
:10297800A7FC0F4AD36908210B43D361E3E70C4A4C
:10298800D36910210B43D361DDE7FFF79FFCDAE73A
:10299800FFF79CFFD7E7064BDA6920210A43DA6183
:1029A8009B69DB07CFD4024B01229A61CBE7C04673
:1029B8000060004010B5114BD969802292000A438B
:1029C800DA61D969802252000A43DA61D969802222
:1029D800D2000A43DA61D969802252010A43DA61D6
:1029E800D969802292010A43DA61D96980221201E9
:1029F8000A43DA61FFF784FF10BDC046006000405B
:102A0800F0B583B0404E336B20273B433363336BC1
:102A18003B400193019B8025ED013C4C022229009B
:102A28002000FFF7BDF8042229002000FFF7EDF889
:102A3800022229002000FFF71DF963682B43636019
:102A4800012229002000FFF74AF980252D020222E1
:102A580029002000FFF7A4F8042229002000FFF72E
:102A6800D4F8022229002000FFF704F963682B43F9
:102A78006360012229002000FFF731F9336C8022BE
:102A8800520413433364336C13400093009B90212A
:102A980072581F4B1A408023DB03134373501D49A0
:102AA80000231D4A8B54802424068C6001328B54E9
:102AB8000120C860194B1A6882431A60184A1A61C3
:102AC8009A68D20AD202442632439A609A68154319
:102AD8009D601A6802431A601A6808252A431A601A
:102AE8001A6808352A431A601A683A431A601A683D
:102AF8000C3D2A431A601A68023D2A431A608C600A
:102B0800C86003B0F0BDC04600380240001402405F
:102B1800FFFF3FFF00E100E05F03000000600040AE
:102B280005011000F0B5DE4657464E464546E0B56D
:102B38008FB0C64B1A6A5E6A002E00D116000021BB
:102B480000200DE0C14B0A00253252009A180424D7
:102B5800145F0A00243252009B189C80001901312E
:102B68000829EFDDB94C5E23E65230180A21FEF73A
:102B7800FBFE07006023E15C002974D06422A55A9B
:102B88000232A45A0023B446804601E00133DBB286
:102B9800994222D91E00AD4A9800C018C0001218E8
:102BA80064321788AF420AD2A84A9800C018C000F9
:102BB800121866321088A64A904200D83D00A34AEF
:102BC800B0008019C000121866321288A242DDD9FE
:102BD8009F488242DAD81400D8E7664647469B4B9E
:102BE8009C4A9C5202329D529B4AE0219B48009489
:102BF8002B0089008046FDF7B9FF4046FFF7A6F88D
:102C0800974B1B68914A526C9B1A00D5CCE0944BA9
:102C18001B68944A944663448C4A53644A23D35E9F
:102C28009A46914B9B7A9846002B1FD08E4BDB68B7
:102C38009946002B57DD854B864A985A002803D1C0
:102C480040229B5C984551D8002805D06421FEF7A6
:102C580001FE80B240454CD37C4B1B7C632B4BD987
:102C680000230C9304E000240025C9E700230C93FB
:102C78007D4B5B689946002B42DD01230C93C846C7
:102C8800FA239B00994500DA9846704B1B889B46AF
:102C98000A211800FEF768FE4044A03064239846D5
:102CA80058435946FEF760FE0D9064215846FEF7DA
:102CB800D1FD80B24B461B1A9A46D81B434658434F
:102CC8005946FEF751FE0B90BA4500DC8BE05F4B8E
:102CD80048229B5E9A46092B14DD0A211800FEF74C
:102CE80043FE0B9010E000230C93C1E700230C93E4
:102CF800BEE700230C93BBE7CA4601230C93B7E752
:102D0800D146BCE701230B930B9B53440D9A934286
:102D180000DD13004D4A482153524C4B4A229A5E1B
:102D2800904648229A5E92462A215A5E934618880F
:102D38006421FEF78FFD80B209905B4608934B46ED
:102D48000793642352465A4306920B9A5A430592B4
:102D58000D9A53430493444BDA6803925B680293D9
:102D68004346019300973300404AE02189003B48DD
:102D78008046FDF7FBFE4046FEF7E8FF0C9B002B64
:102D880012D1324B60229B5C002B0DD00535A54239
:102D980002DA374B9C4246D9364B9C466444A4B26F
:102DA800F9235B009C4246D9284B4A22985E482268
:102DB8009D5E314AE021294C64236B4303932A4BDF
:102DC8005B68029301900097330089002000FDF7AB
:102DD800CDFE2000FEF7BAFF0FB0F0BCBB46B246EE
:102DE800A946A046F0BDB94519DA184B48229B5EA2
:102DF8009A46092B0DDD0A2149421800FEF7B4FD59
:102E08000B900B9B5344002B07DD104A482153526B
:102E180083E701235B420B93F3E70123F5E71748A8
:102E2800FEF794FF79E71648FEF790FF074B4A2212
:102E3800A0219952B8E71348FEF788FF034B4A22AE
:102E480000219952023A01319952ADE7E802002077
:102E58006F17000082030000C4600008F0530020D0
:102E68007057002088130000B00600200861000891
:102E7800790D000053F2FFFF00620008E8600008C7
:102E8800A4610008D461000870B5684B1A6A5D6ACD
:102E9800002D00D11500664B2E229B5C002B00D123
:102EA80070BD6448FEF752FF634C01212000FEF715
:102EB80067FF6248FEF74AFF601C0121FEF760FFCA
:102EC8005F48FEF743FF6378022B03D95D4B1B680D
:102ED800012B41D05C4B1B68012B00D183E05B4B7D
:102EE8001C68002C2AD0514B1A7C514B2B215B5C5F
:102EF8009A4202D2564B002119704D4B2C215B5C33
:102F08009A4202D8524B01221A70514B1B78002B5F
:102F180014D04F4B1E89588970436421FEF724FD55
:102F28000300322D76DD0A3B32003232484D6A808A
:102F3800642058433100FEF78DFCA880002CAFD1E7
:102F4800434C21890B0032336380E3886420584363
:102F5800FEF70AFDA080A3E7344B1A7C344B2A21E4
:102F68005B5C9A4206D8314B2820195E2C201B5EE8
:102F7800994213DA2E4B9B7B022B01D0072BA9D148
:102F8800344B1B78012BA5D13348FEF7DFFE012017
:102F9800FFF71EF8264B0022DA739BE7244B292102
:102FA8005B5C9A420FD9224B9B7B052B15D8032BD0
:102FB80090D32A48FEF7CAFE0020FFF709F81C4BF9
:102FC8000022DA7386E72648FEF7C0FE0020FEF7E7
:102FD800FFFF174B0022DA737CE7093BDBB2012BBA
:102FE80000D977E7E5E7114B1A7C114B2D215B5C83
:102FF8009A4204D80E4B2F22002199546FE70C4BAC
:103008002B215B5C9A4200D269E7094B2F222A39AF
:10301800995464E7002D87DA0D4B0A22521BDB888E
:10302800934200DC80E713007EE7C046E8020020F8
:1030380070060020506200087E06002064620008C6
:103048005C640008A8060020AC060020A406002046
:10305800D8020020A006002070620008B8620008AC
:1030680098620008F0B5DE4657464E464546E0B53C
:10307800B5B0EC4E10239846102200213000FDF721
:10308800ADFCE94D302200212800FDF7A7FCE74CF4
:10309800E222920000212000FDF7A0FCE44B0E2262
:1030A80000210B931800FDF799FCE2482422002127
:1030B800FDF794FCFEF72EFF48230322E252DE4F71
:1030C8003B686364002399464A334A46E2524C34CB
:1030D8002000363B9B4614320021FDF77FFCD74B7E
:1030E80001241C60D64B1C60D64B1C6029235A4611
:1030F800EA5401333732EA540133233AEA540133AC
:103108000A3AEA54083B3372013B9A467372013B10
:10311800B372D833F360CD3B5A46EA540233EC54C9
:10312800FA23DB000B9AD380C74B1C600122524262
:10313800DA604A465A609A60FEF778FFC34EB36871
:10314800F025AB43B360B368C14A1340B360B368BA
:10315800C04A1340B360C04802F0B6FBBF4BC04A38
:103168005A60C04A514655544A469A6007321A6016
:10317800336B23433363336B23401C931C9B326BA9
:1031880002231A433263326B13401B931B9B326B2F
:1031980004231A433263326B13401A931A9B326B1F
:1031A80008231A433263326B13401993199B336B0C
:1031B800424613433363336B13401893189B326BA7
:1031C80020231A433263326B13401793179BE12075
:1031D800000302F01FF8E1256D02280002F0BEF995
:1031E800A14B9846180001F0D9FD404601F032FE87
:1031F8009620800102F0E2F89C4801F099FF9C4873
:10320800072101F09BFFFA2002F04AFB280002F098
:10321800D5F8984807220921FEF760FE964B1C70E6
:10322800FFF7EEFB954B80256D0195492A002BA8E9
:1032380002F050FB934B94492A0024A802F04AFB61
:10324800924B84229249D2001DA802F043FB914878
:10325800FEF77CFD904A08231D219048FEF700FEEA
:103268003B688F4A92469A443B68904698443D682A
:10327800FA239B009C466544736F23437367734B23
:103288005B6F9B07FBD5874B874A1A60874A1A6092
:1032980000225A60864A9A6002E00023012B05D07A
:1032A800804BDB685B07F8D10123F7E77D4B814A48
:1032B8001A6000230C930B930D9300271C001E002B
:1032C80000F007FD7C48FEF741FDFEF757FC7B4800
:1032D800FEF73CFDFEF752FC574B1B68704A9246BE
:1032E8009A44774B8022D2000092994632AA33A999
:1032F800744801F0FDFC8346329A339972485B4664
:1033080000934B46FEF74AFD329B002B01D100F09B
:10331800F8FC339A614B9A4201D000F0F2FC684BFA
:103328001B78012B01D000F0ECFC434B1A68120EFD
:1033380016A989460A701A68120C4A701A68120A85
:103348008A701B68CB706148FEF700FD042148466F
:10335800FEF716FD4D48FEF7F9FC594B9A78324BAB
:103368001A74002D05D1344B1D68FA239B009C4626
:103378006544534A5B4632993398FEF771FD00F075
:10338800C0FC4F4808220021FDF728FB284B1B787A
:10339800002B09D026494888494A060A16705070F9
:1033A8008988080A9070D1705A425341444A13716F
:1033B80008231D214648FEF753FD1F4B1E68AF2307
:1033C8009B009C46664400F0A2FC4248FEF7BEFC07
:1033D800002501E00135EDB2072D15D83E4A6B00F6
:1033E8005B199B009B5CDB07F4D511006B005A1935
:1033F8009200505840085A19920052180432082373
:103408001D21FEF713FDE5E7002500F088FC334891
:10341800FEF79CFCFEF70AFE00F08BFCFEF718FE98
:1034280000F08FFCB006002070060020E8020020A3
:10343800D80200202007002070570020AC0600208A
:10344800A8060020A4060020C4020020003802407C
:10345800FFE3FFFFFF1FFFFF0024F40010E000E080
:103468007F3E000000ED00E020A1070000100140B1
:10347800906A00087C6A0008A0060020B462000870
:10348800503F002010630008502F00205C640008A3
:10349800504F002014630008C85D00087118000030
:1034A80020BF020000300040CCCC00005555000081
:1034B800EE0F0000AAAA00001C630008346300088D
:1034C80070530020006400404C6300085C630008EF
:1034D800F4E5061878630008C00600208C6300082D
:1034E8007A4D8023DB0000932B0032AA33A9784859
:1034F80001F0FEFB03000E90329A33997548009351
:103508002B00FEF74BFC00232B74734B1B68734A8C
:1035180090469844339B724A93420DD8714A93421D
:1035280000D28BE2704A94466344062B00D985E2A8
:103538009B006E4AD3589F466D4A934200D07DE265
:10354800624B1A78120259780A439346694A5946D7
:10355800118199780902D8780143894651811D79EA
:1035680015730A215846FEF775F983B20E930A219E
:103578005846FEF7F5F98BB20F930A214846FEF735
:1035880069F983B210930A214846FEF7E9F988B22F
:10359800EB0700D436E3584BAA0700D434E3574A64
:1035A80094466A0700D432E3554A91462A0700D464
:1035B80030E3544A9346ED0600D42EE3524D534A65
:1035C800FC2107955D4606954D460595654604958B
:1035D80003930290109B01930F9B00930E9B89000D
:1035E8004B48FDF7C3FA29E2384B9B465B781B0230
:1035F8005A46127813431A00464B99461A805B467E
:10360800DD782D022DB29B781D434B461D815B460C
:103618001B794846109303740F9210006843642185
:10362800FEF7A2F94946119008625946CB791B0268
:103638008A79190011438B460A210F98FEF70AF977
:1036480081B2129164215846FEF78AF906916421E5
:103658005846FEF7FFF8059010990491119A0392C5
:103668000A212800FEF766FA09B202910A21280009
:10367800FEF77AF900B201900A210F98FEF770F967
:1036880089B20091129B244AFC2189002048FDF749
:103698006DFA4B465B7C002B00D14B331D4A127CE4
:1036A8009A4200DD1A00094B1A7100225A711B4B0D
:1036B8001B68934200DCB6E11948FEF747FB174B3D
:1036C8001A68024B1A7100225A71ACE1705300203B
:1036D80000340040A06300087057002020BF02009B
:1036E80078180000721800008EE7FFFFEC690008E8
:1036F800E550FF18D8020020E4620008EC620008D8
:10370800F4620008FC620008046300086C660008A4
:1037180080530020E8020020B0630008B0060020B3
:10372800F8630008D74A55792D022DB213791D4345
:10373800D3791B021BB2927913439B46002B00DC02
:10374800D0E00023D9B2D04B38220F919954CD4BF9
:1037580099465B781B021BB24A46127813430A212A
:1037680010931800FEF700F902B211920A2110987E
:10377800FEF7E0F90BB210934B46DB781B021BB245
:103788004A469278134399460A211800FEF7ECF846
:1037980003B212930A214846FEF7CCF90BB21393F1
:1037A8000A212800FEF7E0F803B214930A21280042
:1037B800FEF7C0F90BB215930A215846FEF7D4F864
:1037C80003B299460A215846FEF7B4F90BB20F998D
:1037D800002900D192E0AD4A9446AD4AAD48614611
:1037E800079106934B460593159B0493149B0393EB
:1037F800139B0293129B0193109B0093119BFC2136
:103808008900FDF7B3F9A04B38229B5C002B01D14E
:10381800002D0DDA9C4A2C21535E9B46994B594644
:1038280099710912D9712825555F1D712A125A718B
:10383800002D01D005352DB2934B1D855A469A852A
:103848001B7C0A2B5DD9FFF76DF98F4D924BE85A17
:10385800FEF7EEFC40239B46EB5C904A9146527A79
:103868000F924A46927A2A20295EE0200691059214
:1038780004934946C968039102924A4652680192E4
:103888000F9A0092864A810086480F90FDF76EF9DC
:103898000F98FEF75BFA5B46EB5C4A46527A934216
:1038A80037D27E4A5268002A33D17C4A927A002A5B
:1038B8000AD07A49C968002906D0934204D3724BCA
:1038C8002A229B5E002B24DD7748FEF73FFA6E4BD9
:1038D8002A215A5E4821595E131C8A4200DA0B1CC1
:1038E8001BB21CE0002D01DD00232BE7664B1B7C7F
:1038F800092B01D8002325E7012323E76B4A9446C7
:103908006BE76B48FEF722FA5E4B00229A71DA7178
:1039180099E76848FEF71AFA5B4B48229B5E594ABA
:10392800137119125171584AD3854023D25C5B4BED
:103938001B7A9A4277D36048FEF708FA514B002267
:103948001A715A71504BDA85012548329D52280068
:10395800FEF73EFB594B1D60FEF768FB63E0494AE2
:10396800137899465078D178090293789B46D5798F
:103978002D0293791D432D0453791B0212791343A9
:103988000F934F4AFC239C460F9B1D4302955B46B1
:103998001943019100904B46614689003D48FDF767
:1039A800E5F8394B38229B5C002B3CD0354B002284
:1039B800DA709A7037E0334BDA78120299780A4352
:1039C8009346314A594611861979080033210F90D8
:1039D80050545D79013110955554D9790902987977
:1039E80001438946D1865D782D022DB21B781D438F
:1039F8000A212800FDF7B8FF03B211934946049144
:103A0800109A03920F9802905A4601920A212800B0
:103A1800FEF790F809B20091119B2A4AFC2189000F
:103A28001C48FDF7A3F8174D33982900FEF77CFAD8
:103A3800329933980E9B2A00FEF7F8F91548FEF7DD
:103A480085F9002584E10F4A53781B021278134345
:103A58001D4AFC210F488900FDF788F80A4B3822D7
:103A68009B5C002B03D0074B00225A701A70054B41
:103A780083221A710022DA719A715A7108230E93FF
:103A8800D1E7C04670530020E8020020D862000841
:103A9800086400088053002082030000B00600205C
:103AA80060640008F053002090640008B4620008C5
:103AB80054640008C8640008EC640008A8060020E4
:103AC8003065000870650008BC650008E24B1A788C
:103AD8009446E24A4221604650549D78013155543B
:103AE80019790E9140210E98505499798B464121AD
:103AF800584650545A78120212B2614611430F9137
:103B0800DA78120212B215435A79120212B20E98DA
:103B180010438146DB791B021BB25A461A4393466F
:103B28000A210F98FDF720FF03B20E930A21584689
:103B3800FEF700F809B206910A215846FDF714FF6E
:103B480000B205900A214846FDF7F4FF09B2049136
:103B58000A214846FDF708FF00B203900A21280011
:103B6800FDF7E8FF09B202910A212800FDF7FCFEE3
:103B780000B201900A210F98FDF7DCFF09B200910D
:103B88000E9BB74AFC218900B648FCF7EFFF55E7C2
:103B9800B14B597809021878DD782D022DB29A7840
:103BA80015435A79120293461A790E92DA7912025B
:103BB80012B29B791A43914601430F910A211000D2
:103BC800FDF7B8FF09B204910A214846FDF7CCFE7B
:103BD80000B203905B460E9A134302930A21280011
:103BE800FDF7A8FF09B201910A212800FDF7BCFEE4
:103BF80000B200900F9B9C4AFC2189009948FCF771
:103C0800B5FF1BE7994BC7E4984A9446C9E4974A1D
:103C18009146CBE4954A9346CDE4944DCFE41DA854
:103C280001F092FF002800D0C2E00D9A002A03D0CC
:103C38008F4B1B689B1A1ED424A801F079FE8D486F
:103C4800FEF784F88C4801F073FA8C48042101F0DF
:103C580075FA824B602200219954854B1B68FA2221
:103C68009200944663440D930227814B1B68844A53
:103C7800944663440B93834B5B6880214901C91ABE
:103C88002BA801F039FE022C00D100E300D9C8E2CC
:103C9800002C00D1D2E2012C1BD12BA801F048FE48
:103CA8007948FEF753F8794C20686168FEF768F8A0
:103CB8007748FEF74BF8774801F03AFA20686168D0
:103CC80001F03CFA6A4B1B686D4A944663440C93B6
:103CD8000224714B714A1A60654B1B6852469B1A45
:103CE80001D4FFF7EFFA624B1B6842469B1A01D4D6
:103CF800FFF7EDFA6A4800F0E3FF002801D0FFF76C
:103D0800EBFA5B4B1B689B1B01D4FFF73AFB002DBA
:103D180005D0574B1B685B1B01D4FFF756FB614B63
:103D28009B68002B05D0524A1268D31A01D4FFF7BA
:103D38006EFB002F05D15B4B1B68002B01D0FFF7F2
:103D48006DFB594800F0BCFF002801D0FFF7C8FB05
:103D5800564B5B688421C900C91A1DA801F0CCFD27
:103D6800534B5B6880214901C91A24A801F0C4FD9E
:103D7800002F00D153E77B1EDBB2032B00D97AE773
:103D880024A801F0E1FE002832D10B9A002A00D1C4
:103D980071E7374B1B689B1A00D56CE72F4B002245
:103DA8005A6260215A5400230B930D93002762E74F
:103DB8008022294F1DAB9B46D2003900180001F024
:103DC800D9FE81463B48FDF7C1FF49463800FDF75B
:103DD800C9FF294801F0ACF94946380001F0AEF9AD
:103DE80024A801F0D7FF584601F0A5FD01273CE7BC
:103DF8008022194BD2009B46190024A801F0BAFE74
:103E080081462D48FDF7A2FF49465846FDF7AAFF0F
:103E1800032F00D121E1042F00D17FE1022F00D030
:103E2800E9E124A801F0B6FF1690431C48D14B469F
:103E3800022B08D92149084B99461800FCF710FDB8
:103E4800814500D1F0E024AB9946180001F0A2FFAB
:103E5800484601F070FD98E770530020E802002002
:103E6800DC6500088053002030660008B462000852
:103E780070570020BC66000800140140CC6600089A
:103E88001027000040640240A867000820070020AF
:103E98005C6400080010014000300040AAAA00003D
:103EA80000640040C4020020003400402860024042
:103EB80028640240AC660008D46600084C67000815
:103EC800E14B9B46586024AB9946180001F067FF08
:103ED8005B46D86016AB9B4604221900484601F0A1
:103EE800C5FE04225946484601F0C0FE0422594640
:103EF800484601F0BBFE04225946484601F0B6FE8A
:103F080004225946484601F0B1FE04225946484663
:103F180001F0ACFE04225946484601F0A7FE0422EF
:103F28005946484601F0A2FE04225946484601F087
:103F38009DFE04225946484601F098FE042259463F
:103F4800484601F093FE04225946484601F08EFE89
:103F580004225946484601F089FE0422594648463B
:103F680001F084FE484601F015FF431C08D0B64B0B
:103F78005B69834204D0B54B1A68B34B9A615861A8
:103F880024AB9946042216A9180001F06FFE484692
:103F980001F000FF1690431C01D0AB4B987424A885
:103FA80001F0F8FE1690431C01D0A74BD861A64B30
:103FB8009946DB689B464B465B6864210E93180064
:103FC800FDF7D2FC5A465043A149FDF7CDFC03004A
:103FD8004A4650629F4AA04849464969029101935E
:103FE800594600910E9B8021C9008346FCF7BEFD0F
:103FF8005846FDF7ABFE4B46DB68002B06DB002B73
:104008000EDD914B5B6A002B0ADA03E08E4A526A96
:10401800002AF4DD9148FDF799FE8B4B00225A6285
:1040280024A801F088FCB0E624A801F081FC8C48A3
:10403800FDF78CFE8B4801F07BF88B48052101F0D9
:104048007DF8814B612200219954804B1B68804A7E
:10405800944663440B93032797E64B460C2B07D9EA
:1040680082497D4B9B461800FCF7FAFB834513D029
:104078004B46022B07D97E49774B99461800FCF727
:10408800EFFB814530D024AB9946180001F082FE41
:10409800484601F050FC78E68023DB0099465B46F1
:1040A80024AA93464A460E931900584601F0DEFDAD
:1040B8004A460E99584601F0D9FD634B994661224C
:1040C8009B5C28215943603149440831403A58469D
:1040D80001F0CCFD4B4661229B5C013349468B5471
:1040E800584601F028FC50E624A801F021FC61485C
:1040F800FDF72CFE5B4801F01BF85F48052101F035
:104108001DF8514B6122995C013A99544F4B1B6839
:104118004F4A944663440B93042736E624A801F0DB
:1041280039FE431E9B46484B60229B5C5B4502D987
:104138005B46132B13D94B46022B07D94C49464BE8
:1041480099461800FCF78CFB81454AD024AB994668
:10415800180001F01FFE484601F0EDFB15E624AB00
:104168009946180001F016FE484601F013FE48462D
:1041780001F010FE484601F00DFE484601F00AFE27
:10418800484601F007FE304A282359464B439346D8
:104198009B445B4664331880484601F0FBFD5B4650
:1041A80066331880484601F0F5FD484601F0F2FDF7
:1041B800484601F0EFFD484601F0ECFD5B466233EE
:1041C8001870484601F0E6FD484601F0E3FD484610
:1041D80001F0E0FD5B4663331870484601F0ABFB25
:1041E800D3E524A801F0A4FB2448FDF7AFFD002384
:1041F8000B931F003FE524A801F0CCFD4B46022B92
:1042080007D91B49144B99461800FCF729FB81452F
:1042180003D024A801F08FFBB7E500230D931F00FE
:10422800F7E7E31EDBB2012B00D952E5074B1B6809
:104238000C9A9B1A00D5E0E100244AE5FDF73CFE04
:1042480003281DD0012444E5E8020020705700200F
:1042580010270000E066000870530020206700085F
:104268005067000800140140646700086C67000884
:104278004C6700087C67000890670008986700088A
:10428800E248E34A0721FDF729FE012421E52BA88E
:1042980001F021FCDF4B9A6890422DD2FDF70CFE0D
:1042A800032800D115E5DC4B1B680C9A9B1A00D536
:1042B8000FE5DA48FDF74AFDD74B1B68FA22920052
:1042C800944663440C932BA801F025FBFDF7E2FD0F
:1042D8009620800101F072F8D14800F029FFD148FA
:1042E800072100F02BFFFA2001F0DAFAE120400262
:1042F80001F064F80324ECE4CB492BA801F0F5FBAA
:104308001690C44B9B6898421DD3C848FDF71EFD04
:10431800C04B9968C44C2000FDF732FDC448FDF736
:1043280015FD2378AA2B03D1BF4B5B78552B29D0D9
:10433800B94B1B68FA229200944663440C93FDF72C
:10434800A9FD0324C5E4BB48FDF700FD16AC042114
:104358002000FDF715FD2BA801F0BDFB16900421E8
:104368002000FDF70DFDB248FDF7F0FC2BA801F089
:10437800D2FAA94B1B68F533FF330C93FDF78AFD7E
:104388000424A6E4A84B9B785F2BD1D1A64BDB78FD
:10439800812BCDD1A44B1B79902BC9D1A64A623B66
:1043A8000021D154A04B997A090209B2587A0143E5
:1043B800D182997B0902587B01430C911180197CA9
:1043C8000902D87B01430E915180997C0902587CDF
:1043D80001430F919180197D0902D87C01438B46D6
:1043E800D180997D0902587D014310911181197E70
:1043F8000902D87D014311915181597E937B9942DD
:1044080002D013000022DA738B4B9973DB7BFF2BEE
:1044180002D0894A0133D373834C2621635C1B0283
:104428001BB20139615C0B43834881468381282094
:10443800235C1B021BB22721625C13434A4693820A
:104448002A23E35C1B022922A25C13434A465382B7
:104458003823E35C1B023722A25C13434A4653838A
:104468003E23E35C1B023D22A25C13434A461384AD
:104478004023E35C1B023F22A25C13434A46D383DA
:104488004223E35C1B024122A25C13434A46938306
:104498004623E35C1B021BB24522A25C13434A4637
:1044A8001383CB23E35C1354CC23E35C5354CD2315
:1044B800E35C01395354CE23E35C01395354CF23D1
:1044C800E25CAB3B4946CA54AC33E35CFA22D20007
:1044D800944663444B840A215846FDF741FA89B251
:1044E80008910A215846FDF7B5F980B207900A21CC
:1044F8000E9B9B461800FDF733FA89B206910A21F4
:104508005846FDF7A7F980B20590119B04930A213C
:104518000F9B9B461800FDF723FA89B203910A21E5
:104528005846FDF797F980B202900A210C9B9B46EA
:104538001800FDF715FA89B201910A215846FDF7CE
:1045480089F980B20090109B3C4A8021C900200064
:10455800FCF70CFB2000FDF7F9FB4B4616229A5E90
:1045680093464A461823D15E2023D05E1A23D25E92
:104578009446334A63460293019000915B4680213A
:10458800C9002000FCF7F2FA2000FDF7DFFB4B46DC
:104598001A882C4B9A4204D8274B5B8829498B42AE
:1045A80003D92948FDF7D2FBE0E623491620095E26
:1045B800002917D1002A15D1002B13D11E4B0C222C
:1045C8009B5E002B0ED11C4B1E229B5E002B09D13B
:1045D800194B1A229B5E002B04D1174B18229B5EA5
:1045E800002B06D0144B2E2201219954FEF74CFCC7
:1045F8009EE61648FDF7AAFBB8E6FDF75DFC032822
:1046080001D1FFF766FB0024FFF763FB886A000807
:104618005F0200002007002070570020546800083F
:1046280000100140906A000870530020C867000815
:104638005C640008B467000870060020D4670008AE
:1046480008680008701700003C68000848680008FF
:10465800DFF834D00D480E490E4A002302E0D45842
:10466800C4500433C4188C42F9D30B4A0B4C0023B2
:1046780001E013600432A242FBD301F00FF9FBF70B
:1046880089FE01F007F970470000082000000020AB
:1046980054000020A06A000854000020745700202D
:1046A800F0B5C64600B582B006001D00089CC36878
:1046B8009B070CD103690327380018401F4201D01B
:1046C800012705E0002A4ED0002313604BE00027A5
:1046D800002A11D03B001B331B019B595B072FD5C8
:1046E8001D201060002907D03B001B331B019B597C
:1046F8002022121AD3400B603B001B331B01F31816
:104708005A680F231340A34206D83B001B331B01F2
:10471800F3185B680F241C40002D28D008220021C4
:104728006846FCF75BF93B01F3181A00B932FF320F
:1047380012680092BD33FF331B68019300220BE01F
:104748000B20CEE793089B0069465B580321114074
:10475800C900CB40AB540132A242F3D32000002F52
:1047680007D0012F0AD002B080BCB846F0BD0020A7
:10477800F5E7F36820221343F360F4E73369202256
:1047880013433361EFE7F0B5C64600B580460C0029
:10479800170006684D0808002B001F2105E040009F
:1047A80001221A40104301395B08002BF7D18840D9
:1047B800FDF7C6F9FF2318404000FC3B83409E43A9
:1047C8001F2205E0640001232B401C43013A6D08B9
:1047D800002DF7D120009040FDF7B2F9FF230340E8
:1047E8005B009F403E4343461E6080BCB846F0BD18
:1047F800F0B5C64600B580461700466A0D0A4C0A51
:10480800280023001F2105E0400001221A40104320
:1048180001395B08002BF7D18840FDF791F9FF2398
:1048280018408000F03B83409E431F2205E06D0046
:10483800012323401D43013A6408002CF7D12800C6
:104848009040FDF77DF9FF2303409B009F403E43C6
:1048580043465E6280BCB846F0BDF0B5C64600B5BA
:1048680080460C00170086684D0808002B001F21A1
:1048780005E0400001221A40104301395B08002B73
:10488800F7D18840FDF75CF9FF2318404000FC3B56
:1048980083409E431F2205E0640001232B401C43F4
:1048A800013A6D08002DF7D120009040FDF748F936
:1048B800FF2303405B009F403E4343469E6080BC0D
:1048C800B846F0BDF0B5C64600B580460C001700E6
:1048D800C6684D0808002B001F2105E04000012292
:1048E8001A40104301395B08002BF7D18840FDF7C7
:1048F80027F9FF2318404000FC3B83409E431F22BA
:1049080005E0640001232B401C43013A6D08002D8B
:10491800F7D120009040FDF713F9FF2303405B0017
:104928009F403E434346DE6080BCB846F0BDF0B5CC
:10493800C64600B580460C001700066A4D080800F8
:104948002B001F2105E0400001221A4010430139C5
:104958005B08002BF7D18840FDF7F2F8FF231840D9
:104968008000F03B83409E431F2205E06400012342
:104978002B401C43013A6D08002DF7D120009040D0
:10498800FDF7DEF8FF2303409B009F403E4343466C
:104998001E6280BCB846F0BD034B984201D000208F
:1049A80070470120FCE7C04600340040F0B5C64619
:1049B80000B584B0060001911F00032100E0190032
:1049C800B068E0235B0518421BD1B369FF20184289
:1049D80012D0B36839481843B060B468374D2C40DA
:1049E800AC42FAD04B1EDBB20029E8D10520404288
:1049F80004B080BCB846F0BDB068E0235B0518423F
:104A080053D0B3681B0E03241C40A046032C4FD080
:104A18000B2A04D01D2A18D003204042E8E7019B46
:104A28005905230018331B0199510A9B082B42D8BA
:104A3800434618331B01F3180A9A5A6008220021CA
:104A480002A8FBF7CBFF002317E0019BD900042342
:104A58001943230018331B019951E6E7990802AD61
:104A680089004859FA5C944603221A40D2006446E9
:104A78009440220002434A5101330A9A9342EDD3EB
:104A8800029943461B01F3181A008932FF3211605C
:104A9800039A8D33FF331A60444618342401A3590E
:104AA80001221343A3510A98A2E7012040429FE73D
:104AB800022040429CE70420404299E78080800021
:104AC80010B50348034A0021FBF788FF10BDC04614
:104AD8004407002008280000F0B5D6464F46464651
:104AE800C0B504000D001600FFF7EAFF2300C82236
:104AF80002E0002204C30A00511E002AF9D12368EB
:104B08000132134323606368DB07FCD5374B9D42B2
:104B180004D0374B9D4201D0364BE36123682022F5
:104B280013432360002E5CD02368103A934323601C
:104B3800236808221343236080239B009946E25888
:104B480001231A434946625087229200A15899438B
:104B5800A150812189008C466158994360462150B3
:104B68008327BF00E1599943E1518526B600A15931
:104B78009943A15100218A469021890050466050EE
:104B880004316050A1581943A150A1588846022108
:104B980040468843A0506046205888438046604677
:104BA80045462550E0590843E051A7598F43A7517E
:104BB80034365046A0510436A051A5582943A15077
:104BC800626912210A4362614A46A2589A434946D9
:104BD800625022689A432260E0BCBA46B146A846B1
:104BE800F0BD2368102213432360A1E7A0860100CB
:104BF80040420F0001001C00F0B5CE46474680B584
:104C080083B08146FFF7C8FE04001C4A83001B18C6
:104C18001B021B189B009F58FF2F27D8174E850093
:104C28002D182D022B189B007A1C9A51BB00984610
:104C3800D91989002B189B00C9180B0008339B1938
:104C4800043389190A0008320431082000904846C4
:104C5800FFF726FD4744BF002D19AD007F19F7194E
:104C6800786103B0C0BCB946B046F0BD00230093DC
:104C7800002200214846FFF713FDF2E74407002011
:104C880010B50248FFF7B8FF10BDC04600640040E9
:104C980010B50248FFF7B0FF10BDC04600640040E1
:104CA80010B50248FFF7A8FF10BDC0460034004009
:104CB80010B50248FFF7A0FF10BDC0460034004001
:104CC80010B5FFF769FE0200084983001B181B0294
:104CD8001B189B005858002806D093009B181B02ED
:104CE8009B189B00C918486910BDC046440700209E
:104CF800F0B583B00D0017000193FFF74DFE0600D5
:104D0800254B8400241824022418A400E358002BFF
:104D180001D0012805D900233B600027380003B0E3
:104D2800F0BD1D4A83001B181B021B189B00D218DC
:104D380053682B6093683B605769089B9F4200D972
:104D48001F00B400A4192402A11989000831124DCA
:104D5800491904313A000198FBF7C4FA72B6A3194D
:104D68009B005B59013BA419A4006351FF2B01D997
:104D780062B6D3E7B200921912022000064C00195D
:104D88000430911989001431091904319A00D21894
:104D98009200FBF7A7FAEBE74407002030B583B091
:104DA8000100264B1A6C8020800402431A641B6C95
:104DB80003400193019B00222148FFF78DFE8025C7
:104DC8006D00204C022229002000FFF7DCFC09229C
:104DD80029002000FFF70CFD022229002000FFF720
:104DE8003CFD6368184A13406360002229002000D4
:104DF800FFF768FD0135FF35022229002000FFF783
:104E0800C2FC092229002000FFF7F2FC0222290037
:104E18002000FFF722FD63680C4A134063600022FC
:104E280029002000FFF74EFD094B802252031A602B
:104E3800802292031A6003B030BDC0460038024099
:104E48000064004000040240FFFEFFFFFFFDFFFF7B
:104E580000E100E010B582B00100244B1A6C8020FC
:104E6800800102431A641B6C03400193019B0022DA
:104E78001F48FFF731FE1F4C022208212000FFF7D0
:104E880082FC0B2208212000FFF751FD0222082195
:104E98002000FFF7E2FC6368082293436360002266
:104EA80008212000FFF70EFD022210212000FFF745
:104EB8006AFC0B2210212000FFF739FD0222102185
:104EC8002000FFF7CAFC6368102293436360002246
:104ED80010212000FFF7F6FC074B80229200DA60D1
:104EE8008022D200DA6002B010BDC046003802400D
:104EF800003400400004024000E100E010B5024820
:104F0800FCF724FF00BEFEE764680008024A136845
:104F1800013313607047C04670570020F0B5C6468D
:104F280000B580460C00170006684D0808002B00E5
:104F38001F2105E0400001221A40104301395B0897
:104F4800002BF7D18840FCF7FBFDFF2318404000F9
:104F5800FC3B83409E431F2205E0640001232B4055
:104F68001C43013A6D08002DF7D120009040FCF752
:104F7800E7FDFF2303405B009F403E4343461E601E
:104F880080BCB846F0BDF0B5C64600B580461700EF
:104F9800466A0D0A4C0A280023001F2105E040003C
:104FA80001221A40104301395B08002BF7D18840D1
:104FB800FCF7C6FDFF2318408000F03B83409E436A
:104FC8001F2205E06D00012323401D43013A6408B8
:104FD800002CF7D128009040FCF7B2FDFF230340D6
:104FE8009B009F403E4343465E6280BCB846F0BD8E
:104FF800F0B5C64600B580460C00170086684D0817
:1050080008002B001F2105E0400001221A40104330
:1050180001395B08002BF7D18840FCF791FDFF238D
:1050280018404000FC3B83409E431F2205E064007B
:1050380001232B401C43013A6D08002DF7D12000B5
:105048009040FCF77DFDFF2303405B009F403E43FB
:1050580043469E6080BCB846F0BDF0B5C64600B574
:1050680080460C001700C6684D0808002B001F2159
:1050780005E0400001221A40104301395B08002B6B
:10508800F7D18840FCF75CFDFF2318404000FC3B4B
:1050980083409E431F2205E0640001232B401C43EC
:1050A800013A6D08002DF7D120009040FCF748FD2B
:1050B800FF2303405B009F403E434346DE6080BCC5
:1050C800B846F0BDF0B5C64600B580460C001700DE
:1050D800066A4D0808002B001F2105E04000012248
:1050E8001A40104301395B08002BF7D18840FCF7C0
:1050F80027FDFF2318408000F03B83409E431F227A
:1051080005E0640001232B401C43013A6D08002D83
:10511800F7D120009040FCF713FDFF2303409B00CC
:105128009F403E4343461E6280BCB846F0BD000027
:10513800014B18607047C0464C2F002030B5184B03
:105148001A68FA239B009C466244164B1B68DB07CF
:1051580008D5144B5B681B0404D0114B1B689B1AC1
:10516800F3D430BD104A93688024A34393600C4B5A
:105178001D68FA239B009C4665444C1E0029F0D00C
:105188000A4B1A68D3691B0604D503789362013069
:105198002100F2E7024B1B685B1BF1D4E1E7C04634
:1051A8007057002058600240004800404C2F0020F3
:1051B80010B50400FBF768F801002000FFF7BEFFF8
:1051C80010BD092802D83030C0B270475730C0B27D
:1051D800FBE770B582B0050001AB00225A7013E0FE
:1051E80028780009FFF7EDFF01AC20702000FFF7D9
:1051F800DFFF2B780F201840FFF7E3FF2070200017
:10520800FFF7D6FF013531004E1E0029E8D102B064
:1052180070BD0000F0B583B00500584B1A6B8021B3
:1052280089030A431A631A6B0A400192019A1A6C9D
:105238008021C9020A431A641B6C0B400093009B2F
:105248004F4B19684F4A11404F4A0A431A604F4A58
:105258001968C0230B40402B00D18AE0484B4C49C9
:105268009960DA60464B5A68120C12048421C9000E
:105278000A435A601A68474C2240802109050A43AC
:105288001A601A68012632431A60434B18683D4A6F
:105298001040424A02431A601A68224011431960BA
:1052A80080277F003E4C022239002000FFF736FE9F
:1052B800072239002000FFF766FE0222390020008D
:1052C800FFF796FE6368374A134063600332FF3284
:1052D80039002000FFF7C1FE0137FF3702223900ED
:1052E8002000FFF71BFE072239002000FFF74BFEC6
:1052F800022239002000FFF77BFE63682A4A134028
:105308006360012239002000FFF7A7FE1B499022A5
:105318008B58302083438B50244C2368843A1343A2
:1053280023602368224A134023606368214A13409C
:105338006360214B18686B08C0182900FCF78AFACB
:105348000004000CE060236833432360174BDB69DB
:105358009B02FBD5154BDB695B02F7D5134B9A68AB
:1053680040210A439A609A6840318A439A6003B0A0
:10537800F0BD034B0649D9609A6073E700380240D4
:10538800286002401F80FCFF00050200504F0020EB
:1053980024480040FFFFFFE158600240400402003B
:1053A800000C0240FFFEFFFFFFFDFFFF004800402A
:1053B800FFE9FFEFFFCFFFFF50000020F0B585B0F9
:1053C8000600594B1A6B8021C9030A431A631A6BEA
:1053D8000A400392039A596C1022114359645B6C7A
:1053E8001A400292029B514A136801210B43136031
:1053F8004F4B1A688A431A6019684E4A11404E4A40
:105408000A431A604D4A1968C0230B40402B00D14B
:1054180084E0474B4A499960DA60454B5A68120C58
:105428001204802149010A435A601968454A11400B
:10543800802212050A431A601A6801252A431A6055
:10544800414C022240212000FFF768FD072240213D
:105458002000FFF737FE022240212000FFF7C8FD99
:1054680063684022934363603F3A40212000FFF77E
:10547800F4FD80273F02022239002000FFF74EFD8D
:10548800042239002000FFF77EFD022239002000A7
:10549800FFF7AEFD63682D4A1340636001223900AF
:1054A8002000FFF7DAFD204B596C10221143596494
:1054B800596C0A400192019A90215A58032082435C
:1054C8005A501A4C23680C22134323602368204A3D
:1054D8001340236063681F4A134063601E4B1868BB
:1054E8007308C0183100FCF7B5F90004000CE0603F
:1054F80023682B4323600D4BDB699B02FBD50B4BC9
:10550800DB695B02F7D5094B9A6840210A439A6028
:105518009A6840318A439A6005B0F0BD044B084947
:10552800D9609A6079E7C04600380240001001400F
:10553800406402401F80FCFF00050200503F00202D
:1055480024100140FFFFFFE100040240FF7FFFFF3E
:10555800FFE9FFEFFFCFFFFF5000002070B584B0D8
:1055680006005B4B1A6B8021C9030A431A631A6B46
:105578000A400392039A596C2022114359645B6CC8
:105588001A400292029B534B1A6801218A431A60FF
:105598001968514A1140514A0A431A60504A196819
:1055A800C0230B40402B00D18CE04A4B4D499960F9
:1055B800DA60484B5A68120C1204802149010A43E8
:1055C8005A601968484A1140A02212050A431A6015
:1055D8001A6801252A431A60444C022240212000FF
:1055E800FFF79CFC082240212000FFF76BFD0222F8
:1055F80040212000FFF7FCFC63684022934363606E
:105608003E3A40212000FFF728FD02228021200099
:10561800FFF784FC082280212000FFF753FD0222B7
:1056280080212000FFF7E4FC6368802293436360D5
:105638007E3A80212000FFF710FD254B596C20226F
:1056480011435964596C0A400192019A90215A58A1
:10565800274802405A50274C23680C2213432360E2
:10566800626880235B0213436360626880239B0245
:10567800134363602368204A1340236063681F4A0A
:10568800134063601E4B18687308C0183100FCF79C
:10569800E1F80004000CE06023682B432360154BFD
:1056A800DB699B02FBD5134BDB695B02F7D5114B1A
:1056B8009A6840210A439A609A6840318A439A60FE
:1056C80004B070BD034B0749D9609A6071E7C046C2
:1056D80000380240286402401F80FCFF00050200D9
:1056E800502F002024140140FFFFFFE10008024072
:1056F800FFF3FFFF00140140FFE9FFEFFFCFFFFFBB
:1057080050000020F0B5C64600B580460C001700D2
:1057180006684D0808002B001F2105E04000012203
:105728001A40104301395B08002BF7D18840FCF779
:1057380007FAFF2318404000FC3B83409E431F228A
:1057480005E0640001232B401C43013A6D08002D3D
:10575800F7D120009040FCF7F3F9FF2303405B00EA
:105768009F403E4343461E6080BCB846F0BDF0B53E
:10577800C64600B580460C00170086684D0808002C
:105788002B001F2105E0400001221A401043013977
:105798005B08002BF7D18840FCF7D2F9FF231840AB
:1057A8004000FC3B83409E431F2205E06400012328
:1057B8002B401C43013A6D08002DF7D12000904082
:1057C800FCF7BEF9FF2303405B009F403E4343467E
:1057D8009E6080BCB846F0BDF0B5C64600B58046B0
:1057E8000C001700C6684D0808002B001F2105E0B3
:1057F800400001221A40104301395B08002BF7D101
:105808008840FCF79DF9FF2318404000FC3B83408B
:105818009E431F2205E0640001232B401C43013AEC
:105828006D08002DF7D120009040FCF789F9FF237F
:1058380003405B009F403E434346DE6080BCB84661
:10584800F0BD000070B516000E4B9C466044840203
:1058580001258D40012229002000FFF753FF022275
:1058680029002000FFF783FF002229002000FFF70E
:10587800B3FF002E03D000239D40A56170BD102307
:10588800FAE7C04680001000014B18687047C04610
:105898007057002010B5FDF7E5FBFCE770470000E6
:1058A80082B0084B1B680193019B431C00D0013058
:1058B800002805D0034B1B68DB03F9D50138F7E74F
:1058C80002B0704710E000E0014B18607047C04616
:1058D80050000020F8B504000E0015001F001C221F
:1058E8000021FBF77BF82A0000213000FBF776F84F
:1058F80066606561A760F8BD70B504000800256999
:105908006169FCF72DF82161A94200D170BDFFF74C
:10591800BBFF2060FAE710B5040040686269002107
:10592800FBF75CF800232360E3602361A36110BDEB
:105938000369C360704770B50400C068A669F307BF
:105948000ED42569854223D063681B5C0A2B17D0C7
:1059580001306169FCF704F808008D42F4D117E0C2
:105968002369834214D063681B5C0A2B10D1093B5E
:105978003343A36101306169FBF7F2FFE16007E09F
:10598800093B1E43A66101306169FBF7E9FFE1604D
:1059980070BDF0B5DE4657464E464546E0B585B083
:1059A80006008B4691461F00C0681368C0187169CD
:1059B800FBF7D6FF0D00B068FAF766FC0190336973
:1059C800AB426ED073685B195A461360002302938A
:1059D800039711E0013202926B1CE4185B461C60CD
:1059E80001357369AB4242D0F268AA4263D032698A
:1059F800AA4263D0AB4251D9019B1A00013B002A4D
:105A0800EED074686019625DB168CF5CBA42F4D1B7
:105A1800804673699A465819F368C01A4B461B6842
:105A2800C01A5146FBF79CFF029A8B1A0A2F01D025
:105A3800002BCFD08B461C00039F002F0DD0681C75
:105A48005146FBF78DFFF160B369012219009143BC
:105A5800B161424612780A2A05D04B461B685B445E
:105A68004A4613601FE0093A1343B361F5E7039F01
:105A7800F368ED1A4B461B68EB1A029A9B1A4A46C2
:105A88001560002F05D00022F260B26901218A4317
:105A9800B261802212061A43140004E000231C009D
:105AA80001E000231C00200005B0F0BCBB46B24654
:105AB800A946A046F0BD00231C00F4E700231C0003
:105AC800F1E700B583B000230193013301AAFFF782
