:020000040800F2
:1000000000000820794000083D4B00083D4B0008E7
:100010003D4B00083D4B00083D4B00080000000030
:100020000000000000000000000000003D4B000840
:100030003D4B0008000000003D4B00084D4B000800
:100040003D4B00083D4B00083D4B00083D4B000870
:100050003D4B00083D4B00083D4B00083D4B000860
:100060003D4B00083D4B00083D4B00083D4B000850
:100070003D4B00083D4B00083D4B00083D4B000840
:100080003D4B00083D4B00083D4B00083D4B000830
:1000900081440008914400083D4B00083D4B000896
:1000A0003D4B00083D4B00083D4B00083D4B000810
:1000B0003D4B00083D4B00083D4B00083D4B000800
:1000C0003D4B000899250008312600083D4B0008EB
:1000D0003D4B00083D4B00083D4B00083D4B0008E0
:1000E0003D4B00083D4B00083D4B00083D4B0008D0
:1000F0003D4B00083D4B00083D4B00083D4B0008C0
:100100003D4B00083D4B00083D4B00083D4B0008AF
:100110003D4B00083D4B00083D4B00083D4B00089F
:100120003D4B00083D4B00083D4B00083D4B00088F
:100130003D4B00083D4B00083D4B00083D4B00087F
:100140003D4B00083D4B00083D4B00083D4B00086F
:100150003D4B00083D4B00083D4B00083D4B00085F
:100160003D4B00083D4B00083D4B00083D4B00084F
:100170003D4B00083D4B00083D4B000800000000CF
:100180003D4B00083D4B00083D4B00083D4B00082F
:100190003D4B00083D4B00083D4B00083D4B00081F
:1001A0003D4B00083D4B00083D4B00083D4B00080F
:1001B0003D4B00083D4B00083D4B000899250008C9
:1001C000312600083D4B0008000000003D4B0008B0
:1001D0003D4B00083D4B00083D4B00083D4B0008DF
:1001E0003D4B0008A1440008B14400083D4B000805
:0801F0003D4B00083D4B0008E7
:1001F8000448054B10B5834203D0044B002B00D0B4
:10020800984710BD54000020540000200000000052
:1002180006480749091A8B10C90FC91810B54910A3
:1002280003D0044B002B00D0984710BD5400002089
:10023800540000200000000010B5074C2378002B64
:1002480009D1FFF7D5FF054B002B02D00448AFF3C7
:1002580000800123237010BD54000020000000001E
:10026800145F0008054B10B5002B03D0044905485E
:10027800AFF30080FFF7CCFF10BDC04600000000C0
:1002880058000020145F000810B583070AD0030047
:10029800032102E001330B4205D01A78002AF9D174
:1002A800181A10BD030019680C4A0D4C8A188A43A5
:1002B80022420FD15968094A04338A188A432242D4
:1002C80008D15968054A04338A188A432242F1D072
:1002D80000E001331A78002AFBD1E1E7FFFEFEFEB9
:1002E80080808080F0B588420AD98B18984207D25E
:1002F800531E002A03D0CA5CC254013BFBD2F0BD96
:1003080005000F2A0AD8561E002AF8D00023CC5C14
:100318001A00EC5401339642F9D1F0E703273E0066
:100328000D430C0003002E402F422DD11500103D27
:100338002D09AC462F013F1825681D6065685D6072
:10034800A5689D60E5681034DD601D001033BD426E
:10035800F2D165460F230C2401352D0149191340AC
:100368004519144213D0043B9B0801339B008C5958
:10037800AC5104369E42FAD103231A40AD198919AB
:10038800561E002AC2D1BAE70500561EBEE71A005B
:10039800B9E7C04670B50D4B0D4D5E1BB610AB42AC
:1003A80005D0002408CD01349847A642FAD805F0B4
:1003B800ADFD084B084D5E1BB610AB4205D00024BE
:1003C80008CD01349847A642FAD870BDD468000811
:1003D800D4680008D8680008D4680008F0B5CE468C
:1003E80047460300944680B5012959D901220120C6
:1003F8009046012500260124404206E0221A904634
:10040800260001257419A1420DD91F181A5D7F5DB8
:10041800BA42F3D336D001250122300001367419CF
:100428009046A142F1D844466246146001229146A2
:10043800023A012500269046012407E04246A21A06
:100448009146260001257419A1420ED94746DF19A5
:100458001A5D7F5DBA42F1D818D001250122B04655
:10046800013674199146A142F0D843460130013350
:10047800834203D36246494618001160C0BCB9469E
:10048800B046F0BD454505D00135BBE74D4504D024
:100498000135D8E776190125B4E776190125D2E7A1
:1004A800012399460023E5E7F0B54546DE46574661
:1004B8004E461400E0B585B003AA80468A4620005F
:1004C80019001D00FFF78AFF039B81460200E1180F
:1004D8002000019300F0D6FA00285ED15346591B3C
:1004E80080231B012B4300930123002700269B46F2
:1004F8000800B0421CD33B004F4500D24B46424651
:1005080091199D4227D98446080002E001339D4293
:1005180020D0E15CC25C9142F8D060469D421AD975
:100528005A464946521A9619F6180027B042E2D29E
:1005380040460099504400F0C9FA82445346581B7B
:10054800B042D8D2002005B0F0BCBB46B246A9469E
:10055800A046F0BD60464B464246013B91194F45C7
:1005680065D28446080003E05A1E9F420ED013004D
:10057800E15CC25C9142F7D06046013301379F428B
:1005880008D8019B9C46EF1A6644B2E701376046DB
:100598009F42F6D930004044D5E74B46EB1A4B450D
:1005A80000D24B460133009303935346591B8023D3
:1005B8001B012B4300269B4601270800B04218D395
:1005C80042464B4691194D4520D98446080002E021
:1005D80001339D4218D0E15CC25C9142F8D0010021
:1005E80060469D4212D94A46BA1A9619F618B04280
:1005F800E6D240465946504400F068FA82445346D1
:10060800581BB042DCD29DE7010060464B46013BD7
:100618000FD38446080001E0013B94D3E15CC25C3F
:100628009142F9D0009B60469C466644C6E74B461B
:10063800A4E7080087E7C046F0B5DE4657464546BA
:100648004E46E0B5844C8346A54414008A4605AA64
:10065800190020001D00FFF7C1FEFFAA019006AB9C
:100668001C3220C39342FCD1002D0FD02300A44696
:10067800681E6619201808241A7804AFC11A920057
:100688003F190133B9509E42F5D16446059B2000BD
:10069800019AE118984600F0F5F9002800D07AE0B0
:1006A800002399465346591B80231B012B43039370
:1006B8002B006F1E00264D4608009946029408E05C
:1006C800002D04D0984502D94B4642469B1A002576
:1006D800F618B04224D35B4608249919CB5D04AAC6
:1006E8009B001219D358002BEAD1019A2B0095428E
:1006F80000D213009F422AD98446029C080002E0D7
:1007080001339F4220D0E15CC25C9142F8D00100E5
:10071800029460469F421AD9019AB61A0136D6E762
:1007280058460399504400F0D1F9824453464A464A
:10073800981AB042CFD20020484B9D44F0BCBB462B
:10074800B246A946A046F0BD010060460294019A4F
:10075800531E95427DD28446029C080003E05A1E2F
:100768009D4210D01300E15CC25C9142F7D00100B9
:1007780060460294013301359D420AD84B464246F1
:1007880046449D1AA5E701350100029460469D4242
:10079800F4D90800D0E7019AAB1A934257D3013332
:1007A800039305935346591B80231B012B439946FA
:1007B8006B1E002608001F000294B0420CD35B4653
:1007C80008249919CB5D04AA9B001219D358002B51
:1007D8000DD0F618B042F2D258464946504400F0BF
:1007E80075F982445346581BB042E8D2A3E7019AF0
:1007F8001300BA4217D28446029C080002E0013373
:10080800BB420DD0E15CC25C9142F8D00100029479
:1008180060469F4207D9019AB61A0136F618D9E7F9
:10082800010060460294019B013BB2D38446029CBE
:10083800080002E0013B00D27EE7E15CC25C914225
:10084800F8D0039B60469C4602946644B5E71300C3
:10085800A5E713008FE7C046E4FBFFFF1C04000078
:10086800F0B5CE46474680B50E000978050004006D
:1008780091B0002958D07278002A00D178E0B07879
:10088800002857D013020B4307041F43F3789C46F4
:100898001B063B436746002F00D180E03279002ACF
:1008A8006AD03000FFF7F0FC80218900070001437F
:1008B800280000F00BF987424AD8FE2F00D985E0BE
:1008C800C01B804640226846791CA84400F086F880
:1008D800002F0FD0BA1994463F2233009146F8B240
:1008E800301849466C461A780A40C11A0133A15497
:1008F8009C45F6D12C003F256A46013CE35D2B4020
:10090800D35CE418A04503D224E04C44A04521D38D
:100918006A46E35D31002B40D35C20003A009946DB
:1009280000F0B0F80028F0D1200011B0C0BCB946E2
:10093800B046F0BD0904114300232A7806E02C00D4
:100948001B04013513432A7899423DD0002AF6D179
:100958000024E9E74346D819DB5D002BF8D0802155
:10096800090100F0B3F88044A045C5D20024DBE7B4
:1009780000F03EF90400D7E72A78002AE8D019BA2F
:10098800002301E08B4208D02C001B0201351343E1
:100998002A78002AF6D18B42DAD1033CC4E7120444
:1009A800090611432A7800020143002AD0D0002307
:1009B80001E0002ACCD02C00134301351B022A7811
:1009C8009942F6D1023CAFE7013CADE701003B009C
:1009D80032002800FFF730FE0400A5E7F0B5050057
:1009E800830749D0541E002A45D003000326CAB203
:1009F80002E00135013C3ED301332A703342F8D17D
:100A0800032C30D9FF220A401502AD182A04AD186C
:100A18000F2C34D92700103F3F093E01B4461E0071
:100A28001A0010366644156055609560D56010321E
:100A38009642F8D101373F01DB190F270C222740D6
:100A480022403C00002A0ED03E1FB608B400A4463F
:100A58001A001C1D644420C2A242FCD103240136A2
:100A6800B6009B193C40002C05D0C9B21C1919705E
:100A780001339C42FBD1F0BD03001400C0E72700FE
:100A8800E2E7C04630B5032A1AD90B0003439B0797
:100A980011D0551E002303E05A1C9D4213D01300A9
:100AA800C25CCC5CA242F7D0101B0DE0043A0430C3
:100AB8000431032A04D904680B689C42F6D0E8E79D
:100AC800551E002AE6D1002030BDC04610B50300EF
:100AD8004418002903D109E001339C4204D01A7854
:100AE800002AF9D1181A10BD201AFCE70020FAE7ED
:100AF80008B410B504009DB0002A32DB8223684692
:100B08009B008382002302911B930691002A13D035
:100B1800013A013BC382049220AB079220001F9A3E
:100B280002A9019300F0BAF9431C01DA8B23236070
:100B38000022029B1A700FE001235B42C3820492D9
:100B480020AB079220001F9A02A9019300F0A6F992
:100B5800431C01DA8B2323601DB010BC08BC01B014
:100B680018478B23036001204042F5E70CB410B509
:100B78001E4B9CB01C68002933DB82236A469B000D
:100B88009382002302901B930690002913D0013909
:100B9800013BD38204911FAB079120001E9A02A942
:100BA800019300F07BF9431C01DA8B2323600022B8
:100BB800029B1A7010E001236A465B42D3820491BB
:100BC8001FAB079120001E9A02A9019300F066F955
:100BD800431C01DA8B2323601CB010BC08BC02B094
:100BE80018478B23012023604042F5E700000020CE
:100BF8000323CAB2F0B50340002A35D00324002BE2
:100C08002DD1FF230B401D02ED182B04ED182C00ED
:100C18000168264E4C408B198B43A119A143244EE1
:100C28000B43334211D14168204F0C00CB196C4063
:100C38008B43E119A1430B4304303342F3D00378CB
:100C4800002B05D09A4204D001300378002BF9D14B
:100C58000020F0BD9342FCD001302042D1D003786F
:100C6800002BF7D10020F4E7002B08D0032202E084
:100C78000130104203D00378002BF9D1E9E702686C
:100C88000A4B0B49D31893430B4206D14268074BD2
:100C98000430D31893430B42F8D00378002BD8D0F4
:100CA80043780130002BFBD1D3E7C046FFFEFEFEA0
:100CB80080808080F0B546464F46D646C0B58E68DF
:100CC80080460C0091461D0008689E4239D80C22C7
:100CD8008B5E9022D200134210D135002A0049467B
:100CE800FFF700FB0020A3689B1BA36023685B1928
:100CF8002360E0BCBA46B146A846F0BD0969421A6D
:100D08009246606942001218D70FBF18681C7F10FE
:100D180050443A00B84201D9070002005B0512D5D9
:100D28001100404600F03CFA061E1FD052462169C9
:100D380000F02EFDA389124A134080221343A38199
:100D480006E01E00CAE7404600F00EFB061E09D06A
:100D58003000534650446761FF1A266120602E0018
:100D6800A760BBE74046216900F0A2FA0C2342467F
:100D7800136040220120A38940421343A381B8E7AE
:100D88007FFBFFFFF0B545465746DE464E46E0B5C9
:100D9800136883B0984693680D0092460190002B23
:100DA8006FD0002300249B460A688B6849E00C2119
:100DB8006B5E9021C9000B422BD068692969561ACD
:100DC80042001218D00F8218701C52100019914658
:100DD800904201D9814602008020C00003423AD0E7
:100DE8001100019800F0DCF9071E3DD03200296996
:100DF80000F0CEFCAB89284A134080221343AB8114
:100E08004B46B8199E1B2F61AE602700260028604C
:100E18006B6132005946FFF765FA51465046AB6898
:100E28002A688968DB1B9219091BAB602A608160FC
:100E380027D0414609688B4641464C6808218C46B4
:100E4800E0441F001000002CF3D01E009C42AED2DC
:100E580027002600DDE7019800F086FA071ECFD1AB
:100E68002969019800F024FA0C23019A01201360E3
:100E78004022AB8940421343AB8152460023936022
:100E880000E0002000235246536003B0F0BCBB468C
:100E9800B246A946A046F0BD7FFBFFFFF0B5DE468F
:100EA80057464E464546E0B51C008B898246894622
:100EB80093469DB01B0603D50B69002B00D1F5E0C6
:100EC800002304AD6B6120336B761033AB765B4641
:100ED8001B787F4F0394002B78D05C4604E063783E
:100EE8000134002B00D17EE0252BF8D15B46E61AB1
:100EF8005C4500D07BE02378002B67D001230022DB
:100F08005B42049205930022002306920793002374
:100F18004332AB54AB6501339B46013406E05A4675
:100F2800C01B82401C0029680A432A600522380039
:100F3800217800F0D7F8631C1E000028EFD12A683A
:100F4800D10602D5432120306854110702D5432128
:100F58002B20685421782A2955D1039B191D1B6819
:100F68000391002B00DA7CE0EB6061782E2960D0D9
:100F7800584C0322200000F0B5F8002806D0402382
:100F8800001B83402A68013613432B603178731C99
:100F9800062251489B46297600F0A4F8002866D01E
:100FA8004E4B002B56D003AA009229004A465046C1
:100FB8004B4BAFF3008080464346013306D06B6944
:100FC80043446B615B461B78002B86D14B469B895B
:100FD8005B0600D579E068691DB0F0BCBB46B24637
:100FE800A946A046F0BD5B46E61A5C45EED0330044
:100FF8005A4649465046FFF75DFE0130E6D06B6918
:101008009B196B6177E70800303826000928ADD8AE
:10101800EA68140000E00133A2001219197852009E
:101028001418080030380928F5D91E00EC602E295C
:101038009ED171782A2924D1039BB01C1A1D1B68E4
:1010480003926B60002B02DA01235B426B60B1787C
:1010580006008DE70722039B073393430833039366
:10106800ADE75B42EB6002231A432A607DE703AADF
:10107800009229004A465046194B00F055FA80461E
:101088009AE708000023303801366B60092800D938
:101098006EE71A0093009B1871785B001A18080015
:1010A800303801360928F5D96A6061E7402100F037
:1010B80077F84B4618601861002803D040234A4649
:1010C8005361FDE60C23524613600120404283E73A
:1010D80098670008A0670008A467000800000000DF
:1010E800BD0C000870B5CCB283070DD0531E002A82
:1010F8000FD0032504E00130284206D0013B08D375
:101108000278A242F7D170BD1300032B03D8002B3D
:1011180014D10020F7E7FF220A401502AD182A046F
:101128000B4EAD1803E0043B0430032BEFD90268E3
:1011380008496A40511891433142F4D0C31802E07B
:1011480001309842E5D00278A242F9D1DBE7C046E7
:1011580080808080FFFEFEFE70B5104E050033686B
:101168000C00002B15D02100280000F057FB431C71
:101178000CD00323C41C9C43A04205D0211A28008C
:1011880000F04CFB013001D0200070BD0124644206
:10119800FAE7002100F042FB3060E4E7AC010020F0
:1011A800F8B50323CE464746CD1C9D4308350600B7
:1011B80080B50C2D1ED20C25A9421DD8300000F098
:1011C800E3FA3A4F7A68002A1AD0140004E06368F8
:1011D8002200002B14D01C0023685B1BF7D40B2BB8
:1011E80027D96119256094425BD051600B60636810
:1011F8004B600DE0002DDFDA0C230020336014E093
:1012080029003000FFF7A8FF0400431C19D005602F
:10121800300000F0BBFA200007220B30231D90435A
:10122800C21A984201D01B1AA350C0BCB946B04696
:10123800F8BD6368944202D05360E9E743467B6097
:10124800E6E77B689846002B24D0444663689846B6
:10125800002BFAD12368002199463000A14400F000
:10126800DDFA814516D123683000ED1A2900FFF711
:1012780073FF01300ED023687A685B1923605368C6
:10128800002B02D1DAE71A005B689C42FBD10023ED
:101298005360BDE70C233000336000F077FA00207C
:1012A800C3E779600B6063684B60B1E7AC0100206D
:1012B80070B50500002915D00C1F2368002B23DB0F
:1012C800280000F061FA274A1368002B05D0A342D2
:1012D8000BD92168601883422CD028006360146001
:1012E80000F054FA70BDA34210D81A005B68002BB6
:1012F800F9D1106811188C4218D02CD3636054604F
:10130800280000F043FAEDE7E418D9E7116850180F
:10131800A04214D01FD8216860188342EED1186803
:101328005B684118216063605460E9E723681B1813
:101338001360E5E718685B6841182160CDE720680D
:101348000918501811608342DAD118685B6841188F
:1013580011605360D4E70C2328002B6000F016FAC4
:10136800C0E7C046B0010020F0B5C64607000E0031
:10137800140000B500292DD0002A27D000F060FA0B
:101388008046844203D835004308A34210D3210085
:101398003800FFF705FF051E0AD0220044450BD888
:1013A8003100280000F0F4F931003800FFF780FF21
:1013B800280080BCB846F0BD31004246280000F045
:1013C800E7F931003800FFF773FFF1E7FFF770FF27
:1013D8000025EDE71100FFF7E3FE0500E8E7C0464A
:1013E800F8B557464E464546DE46E0B51F000A9B0F
:1013F800924698460A698B6806000C009A4200DA01
:101408001A0053461A604323E35C002B02D051466E
:1014180001320A602268910661D553465246062079
:101428001B680233136022681100104208D10020A3
:10143800814619308346E168A344994247DC11008C
:101448004323E35C5A1E934189060AD53020E118EC
:101458004331087045215A1C615CA218433202339B
:1014680011702200390030004332C04701301DD0CE
:10147800534606251B68E1689C462368A2682069D4
:101488002B40042B31D0824239DD00239946121AB1
:10149800914400251A3402E001354D452FDA012325
:1014A800220039003000C0470130F5D10120404208
:1014B800F0BCBB46B246A946A046F8BD01239C46EF
:1014C8005346E5681B68E144ED1A4D4524DD0123C8
:1014D8005A4639003000C0470130EFD1E6E706210F
:1014E80011420ED05A1E9341BBE76346C91ACB433B
:1014F800DB170B4099468242C9DC0029C9DC002071
:10150800D6E7002053468146193083461B68E168B8
:10151800A3449942DBDC92E743232168E35C5A1E2B
:101528009341890692D49CE7F0B54E4699464323E9
:101538009C4657464546DE468C446346E0B587B030
:1015480002930C00097E90460700109A002914D0D7
:101558000B00583BDBB2202B48D888489B00C35867
:101568009F46136821681D1D606915601B680E067B
:1015780002D4490600D5DCE018600023029D2361EF
:101588004B46210000933800434605AAFFF728FF81
:1015980001301ED02A00414638002369C84701306F
:1015A80017D02368E068059E9B071BD5B04219DD5C
:1015B80019239A460025A24404E0E0680135831BFC
:1015C800AB420FDD0123524641463800C84701307F
:1015D800F3D10120404207B0F0BCBB46B246A94651
:1015E800A046F0BDB042F6DA3000F4E72500422309
:1015F80001204235E154432300222061E254BFE731
:1016080013682168181D10600D0602D44D0600D518
:1016180094E01A6816006368002A00DA92E0584AD3
:1016280093460A2203924BE01368206840CB0506D4
:1016380001D440067FD41360514B9B466F2900D1DB
:1016480091E00A23039337E013682500191D116000
:101658001A68422301204235E254CCE71368191D69
:1016680011601D68002128006268FFF73BFD002813
:1016780000D181E0401B6060BDE7202321680B4357
:1016880023604521782060543E498B46116840C943
:10169800180603D4580601D53604360C1160DA074B
:1016A80002D5202213432360002E03D12022236871
:1016B800934323601023039343230022E254636877
:1016C800A360002B18DB042122688A432260002EC5
:1016D80012D1029D002B49D1039B082B1ED0029BDF
:1016E8005B1B23614CE745235821E15424492368B7
:1016F8008B46CBE72368C4E7039B9A46029D3000DC
:10170800514600F02DF95B465B5C013D2B703300C0
:1017180006005345F3D2039B082BE0D12368DB076F
:10172800DDD5626823699A42D9DC3023013D2B70EC
:10173800D5E7188021E73604360C7CE700269E5F43
:10174800320068E743222D20A054A360002B02DB5F
:101758000423994321600A239A46094B76429B4603
:101768000A230393CAE708230393A5E75B462500EA
:101778001B7842352B70AFE760683CE7385F00089C
:10178800AC670008C06700087047C0467047C0468D
:10179800F0B505000F2A31D903273E000D430C0090
:1017A80003002E402F4234D11500103D2D09AC46C0
:1017B8002F013F1865685D60A5689D60E568DD607C
:1017C800256810341D601D001033BD42F2D16546F6
:1017D8000F230C2401352D014919134045191442D2
:1017E8001AD0043B9B0801339B008C59AC5104363A
:1017F8009E42FAD10323AD1989191A40561E002AB0
:1018080006D00023CC5C1A00EC5401339642F9D17F
:10181800F0BD0500561EF4E71A00EFE7002370B587
:10182800064C05000800236000F08EFA431C00D027
:1018380070BD2368002BFBD02B60F9E7B4010020B2
:101848000B1F1B68181F002B00DB70470B58C018B4
:10185800FBE7C046002243088B4274D303098B423E
:101868005FD3030A8B4244D3030B8B4228D3030C68
:101878008B420DD3FF22090212BA030C8B4202D30A
:101888001212090265D0030B8B4219D300E0090A32
:10189800C30B8B4201D3CB03C01A5241830B8B423B
:1018A80001D38B03C01A5241430B8B4201D34B0324
:1018B800C01A5241030B8B4201D30B03C01A524189
:1018C800C30A8B4201D3CB02C01A5241830A8B420E
:1018D80001D38B02C01A5241430A8B4201D34B02F7
:1018E800C01A5241030A8B4201D30B02C01A52415B
:1018F800CDD2C3098B4201D3CB01C01A524183090F
:101908008B4201D38B01C01A524143098B4201D348
:101918004B01C01A524103098B4201D30B01C01A73
:101928005241C3088B4201D3CB00C01A52418308ED
:101938008B4201D38B00C01A524143088B4201D31A
:101948004B00C01A5241411A00D20146524110467A
:101958007047FFE701B5002000F0F0F802BDC0466F
:101968000029F7D076E7704703460B437FD400225F
:1019780043088B4274D303098B425FD3030A8B421B
:1019880044D3030B8B4228D3030C8B420DD3FF2285
:10199800090212BA030C8B4202D31212090265D053
:1019A800030B8B4219D300E0090AC30B8B4201D306
:1019B800CB03C01A5241830B8B4201D38B03C01A4D
:1019C8005241430B8B4201D34B03C01A5241030BC4
:1019D8008B4201D30B03C01A5241C30A8B4201D375
:1019E800CB02C01A5241830A8B4201D38B02C01A20
:1019F8005241430A8B4201D34B02C01A5241030A97
:101A08008B4201D30B02C01A5241CDD2C3098B427B
:101A180001D3CB01C01A524183098B4201D38B01F8
:101A2800C01A524143098B4201D34B01C01A52419B
:101A380003098B4201D30B01C01A5241C3088B42E0
:101A480001D3CB00C01A524183088B4201D38B00CB
:101A5800C01A524143088B4201D34B00C01A52416D
:101A6800411A00D201465241104670475DE0CA0F44
:101A780000D04942031000D34042534000229C4604
:101A880003098B422DD3030A8B4212D3FC2289010E
:101A980012BA030A8B420CD3890192118B4208D3E4
:101AA800890192118B4204D389013AD0921100E046
:101AB8008909C3098B4201D3CB01C01A524183095A
:101AC8008B4201D38B01C01A524143098B4201D387
:101AD8004B01C01A524103098B4201D30B01C01AB2
:101AE8005241C3088B4201D3CB00C01A524183082C
:101AF8008B4201D38B00C01A5241D9D243088B4282
:101B080001D34B00C01A5241411A00D20146634624
:101B180052415B10104601D34042002B00D5494288
:101B2800704763465B1000D3404201B5002000F0C7
:101B380005F802BD0029F8D016E770477047C0467F
:101B48001C2101231B04984201D3000C10391B0AE5
:101B5800984201D3000A08391B09984201D30009A9
:101B6800043902A2105C40187047C0460403020200
:101B7800010101010000000000000000BFF34F8FC9
:101B88000549CA68E023DB001A40044B1343CB60C5
:101B9800BFF34F8FC046FDE700ED00E00400FA05F3
:101BA800F0B5C64600B580460C00170006684D081B
:101BB80008002B001F2105E0400001221A401043B5
:101BC80001395B08002BF7D18840FFF7B9FFFF23E5
:101BD80018404000FC3B83409E431F2205E0640000
:101BE80001232B401C43013A6D08002DF7D120003A
:101BF8009040FFF7A5FFFF2303405B009F403E4353
:101C080043461E6080BCB846F0BDF0B5C64600B578
:101C180080461700466A0D0A4C0A280023001F2137
:101C280005E0400001221A40104301395B08002BEF
:101C3800F7D18840FFF784FFFF2318408000F03B6E
:101C480083409E431F2205E06D00012323401D436E
:101C5800013A6408002CF7D128009040FFF770FF84
:101C6800FF2303409B009F403E4343465E6280BC87
:101C7800B846F0BDF0B5C64600B580460C00170062
:101C880086684D0808002B001F2105E0400001224E
:101C98001A40104301395B08002BF7D18840FFF741
:101CA8004FFFFF2318404000FC3B83409E431F2208
:101CB80005E0640001232B401C43013A6D08002D08
:101CC800F7D120009040FFF73BFFFF2303405B0064
:101CD8009F403E4343469E6080BCB846F0BDF0B589
:101CE800C64600B580460C001700C6684D080800B7
:101CF8002B001F2105E0400001221A401043013942
:101D08005B08002BF7D18840FFF71AFFFF23184024
:101D18004000FC3B83409E431F2205E064000123F2
:101D28002B401C43013A6D08002DF7D1200090404C
:101D3800FFF706FFFF2303405B009F403E434346F7
:101D4800DE6080BCB846F0BD7047000010B50400E6
:101D5800034802F0FFFE200002F03CFF10BDC04621
:101D68000048004070B504000D00044802F0F2FE7F
:101D78002900200002F0F4FE70BDC0460048004073
:101D880070B504000D00044802F0E4FE29002000AC
:101D980002F031FF70BDC0460048004070B582B007
:101DA800019115001E00FFF7D1FF1B48FFF7CEFF7A
:101DB800019C210E230AFF22120213401943230219
:101DC800FF221204134019432406214301910B2DCD
:101DD80011D01D2D17D1042101A8FFF7D1FF0F48FD
:101DE800FFF7B4FF06993000FFF7CAFF0C48FFF76A
:101DF800ADFF02B070BD022101A8FFF7C1FF09487D
:101E0800FFF7A4FFEEE7042101A8FFF7B9FF064892
:101E1800FFF79CFFE6E7C046BC5F0008C05F00080C
:101E28000C640008C45F0008C85F0008F0B583B000
:101E380004000D0016001F000748009313000A0055
:101E48002100FFF7ABFF009733002A002100034869
:101E580002F0B0F903B0F0BDCC5F000800640040A8
:101E6800F0B583B004000D0016001F00074800936A
:101E780013000A002100FFF791FF009733002A00A2
:101E88002100034802F096F903B0F0BDDC5F0008BA
:101E98000034004010B507490C000C3C1822200003
:101EA800FEF720FA200018300C220021FEF796FDDC
:101EB80010BDC04610070020002100E00131064B8C
:101EC8004A00521890001B185B68002B01D00229A9
:101ED800F4D90320401A70470407002070B5002584
:101EE80000E001350A4B6C006419A4001B195B68FB
:101EF800002B01D0022DF4D9022D07D8044B6C0019
:101F08006619B600F05098194160826070BDC046ED
:101F18000407002010B5034860220021FEF75EFD8B
:101F280010BDC046A4060020F8B50500002401E055
:101F38000134E4B2072C24D8244A63001B199B00FF
:101F48009B5CDB07F4D563001B199B009B585B085F
:101F5800AB42EDD1660030198000170080180430BC
:101F68000822FEF7BFF933199B006A00D9590125E9
:101F78000D401543DD511E00DB5D01221343F3556F
:101F880022E00024072C1FD8104A63001B199B006D
:101F98009B5CDB0702D50134E4B2F3E76600301935
:101FA80080001700801804300822FEF79BF93219C8
:101FB80092006D00D15901230B402B43D3511600D9
:101FC800D35D01221343F355F8BDC046A406002093
:101FD80010B5040002000E21012003F06DFC220060
:101FE8000C21052003F068FC10BD0000014B002205
:101FF8001A607047C0010020F0B5C64600B5DD4B39
:102008001B68002B04D1DC4A00211160DB4A1160F7
:102018005A1CD8490A60DA49486ADA49C854012A78
:1020280005D0022A00D13AE280BCB846F0BD0B7850
:10203800222BF9D89B00D44AD3589F46D34B2E2243
:102048009B5C002BF0D0D24B187C0028ECD0FF28EA
:10205800EAD0C94B00221A6001321A6001321A60B4
:10206800C84A0525557003211960C8498C7B9470AE
:1020780018268C5F04261E602612D6701D60147107
:1020880016254C5F06251D602512557107251D6014
:10209800947120254C5F08251D602512D5710925EE
:1020A8001D6014721C254C5F0A251D60251255728F
:1020B8000B251D6094721E254C5F0C251D60251292
:1020C800D5720D251D6014730C8901351D60250A14
:1020D80055730F251D6094734C8901351D60250AC1
:1020E800D57311251D6014740C8801351D60250AEF
:1020F800557413251D6094744C8801351D60250A9C
:10210800D57415251D6014750C24095F16241C60F0
:102118000C12547517241C6091759D4B5B6A002B3B
:1021280001D19B4B1B6A1A12934D18212960954CBB
:10213800E27519222A6023761A232B606076944E62
:102148002822B35E1B222A601A12A2761C222A6059
:10215800E3762A22B35E1D222A601A1222771E22F3
:102168002A6063772C22B35E1F222A601A12A27794
:1021780020222A60E377854B588C09312960070AA9
:10218800A75402322A6060540231296024201F5C5F
:10219800A754286003329F5C67542A6003315F5C50
:1021A800275429602727D85DA0547A4A1068000E62
:1021B80060541168090CE1551168090A2820215456
:1021C80011682922A154023028601A21595E02326E
:1021D8002A600B1223542C232B60A1546E4A1168D9
:1021E8002D222A60E1546D4B19682E232B60A154CF
:1021F80002322A60717CE1547369190EA154190CDA
:102208000132A154190A0132A1540132A3540132F6
:102218002A60F369190EA154190C0132A154190A44
:102228000132A1540132A35437232B60382129608D
:10223800B27CE25439222A60594B187A60541968E2
:1022480013372F60A15458680A21FFF78DFB3B23F1
:102258002B60E055534A12683C212960E254524BE6
:10226800DA883D232B60100A605402312960E25459
:102278001F33F35C36E0464BA1000919C9005B180F
:102288001900783109781800793000783038C0B2F0
:10229800561C394D2E603039090108433949885494
:1022A800901C28601F005E373F788F55D61C2E6023
:1022B8001F005F373F780F54180060300788101DE3
:1022C80080462860380A8855561D2E6040460F54AF
:1022D80062331888931D2B60070A8F5507322A60CE
:1022E800C85423005C1E002B05D0234B1A6813002A
:1022F8000833FF2BBFD9234B1F4A12681A7093E685
:102308002A48FFF723FDFFF7D7FD012800D88BE601
:10231800274807220921FFF7E1FD2648072209215E
:10232800FFF7DCFD80E62448FFF710FDFFF7C4FD4A
:10233800012800D878E61E4807220921FFF7CEFDBC
:102348001E4807220921FFF7C9FD6DE61C48FFF763
:10235800FDFCFFF7B1FD012800D865E61448072207
:102368000921FFF7BBFD174807220921FFF7B6FD32
:102378005AE6C046C0010020B8010020BC01002078
:1023880000600040C4010020D467000858060020FF
:10239800D402002054570020940600209006002004
:1023A800980600208C060020C4020020EC5F00087C
:1023B800AC680008A068000800600008946800087D
:1023C80018600008886800084948FFF7BFFCFFF755
:1023D80073FD012800D827E6464807220921FFF7A0
:1023E8007DFD454807220921FFF778FD1CE6434893
:1023F800FFF7ACFC424B00221A600120FFF7E8FD12
:1024080012E64048FFF7A2FC3D4B01221A600BE69A
:102418003D48FFF79BFC3A4B02221A600020FFF769
:10242800D7FD01E63948FFF791FC394B00221A60C5
:10243800384B2D329B5C002B01D0013BDBB2364A76
:102448005374F1E53548FFF781FC314B02221A60DD
:10245800314B49325A74E7E53148FFF777FC2C4B8A
:1024680001221A60E0E52F48FFF770FC2E4B01228D
:102478001A60D9E52D48FFF769FC2B4A0023136041
:102488002B4A137053809380CEE52A48FFF75EFCF1
:10249800254B00221A60264B01321A70C4E5264BE0
:1024A8001B781A2B1CD00CD8172B14D0182B00D043
:1024B800BAE5214B5B78642B00D900231F4A1360CF
:1024C800B2E5232B00D0AFE51B4B5978184B64229B
:1024D8004A43DA80A8E5184B5A78184B1A72A3E5D4
:1024E800154B5A7893009B185B00144A53609BE580
:1024F8002C600008AC6800087C680008446000088C
:102508009006002058600008746000088860000881
:102518009406002058060020D4020020A860000875
:10252800C8600008E86000088C0600200061000808
:10253800C402002018610008C40100209806002089
:10254800084B1B68084A1268934207D2054A591C6F
:102558001160064AD25C064B9A627047044BAA2265
:102568009A62FAE7BC010020B8010020C4010020EB
:1025780000600040034A00231360034A1360034AC3
:1025880013607047C0010020B8010020BC01002082
:1025980010B5244B9B691B0710D5224B9B69FE2263
:1025A800120413408822D20393421AD01D4AD369D9
:1025B80008210B43D361FFF7DDFF10BD194B9B6961
:1025C800DB0616D4174B9B695B0718D4154B9B6920
:1025D8009B0717D4134B9B699B0616D4114B9B6919
:1025E800EBE7FFF703FD0F4AD36908210B43D361DB
:1025F800E3E70C4AD36910210B43D361DDE7FFF70A
:10260800FBFCDAE7FFF79CFFD7E7064BDA692021E6
:102618000A43DA619B69DB07CFD4024B01229A6136
:10262800CBE7C0460060004010B5114BD969802245
:1026380092000A43DA61D969802252000A43DA61BA
:10264800D9698022D2000A43DA61D969802252010D
:102658000A43DA61D969802292010A43DA61D969A9
:10266800802212010A43DA61FFF784FF10BDC046D9
:1026780000600040F0B583B0404E336B20273B43E9
:102688003363336B3B400193019B8025ED013C4C48
:10269800022229002000FFF783FA042229002000E3
:1026A800FFF7B3FA022229002000FFF7E3FA636874
:1026B8002B436360012229002000FFF710FB8025CF
:1026C8002D02022229002000FFF76AFA04222900BD
:1026D8002000FFF79AFA022229002000FFF7CAFA21
:1026E80063682B436360012229002000FFF7F7FA93
:1026F800336C8022520413433364336C13400093C9
:10270800009B902172581F4B1A408023DB03134310
:1027180073501D4900231D4A8B54802424068C6065
:1027280001328B540120C860194B1A6882431A6021
:10273800184A1A619A68D20AD202442632439A6029
:102748009A6815439D601A6802431A601A6808253A
:102758002A431A601A6808352A431A601A683A43E5
:102768001A601A680C3D2A431A601A68023D2A4307
:102778001A608C60C86003B0F0BDC04600380240E3
:1027880000140240FFFF3FFF00E100E05F0300008C
:102798000060004005011000F0B5CE46474680B500
:1027A80087B0734B46229A5E724B5D68002D1CDD24
:1027B8002C00FA239B009D4200DA1C006C4E3388E3
:1027C80099460A211800FFF7CFF82418A03464208E
:1027D80060434946FFF7C8F80590336A766A002EC9
:1027E80000D11E00002300270CE01500E0E7604A36
:1027F800190025314900885E1900243149008852A2
:102808003F180133082BF2DD594A5A231400D652D7
:10281800F0190A21FFF7A8F88046574B1B68226C6D
:102828009B1A76D4544B1B68544A944663442364D9
:1028380068000321FFF798F84346C31A64205843F9
:102848004946FFF791F8070003212800FFF78CF8A5
:10285800404514DD4422A35EDF19059B9F4200DD3D
:102868001F00434B44229F52414B5C22995C002934
:102878004FD004329D5A02329C5A002313E045453A
:102888000BDA3B4B44229B5EDB19002B03DD384AF5
:1028980044215352E8E70123F9E73948FFF756FA8C
:1028A800E2E70133DBB2994215D91F00304A98009C
:1028B800C018C000121860321288AA4200D215004F
:1028C8002B4AB800C019C000121862321288A242FE
:1028D800E7D91400E5E7264B2A4A9C52E0218900F3
:1028E8005D52294A294F00942B003800FEF73EF923
:1028F8003800FFF72BFA0535AC4202DD244B9C4229
:1029080022D9244B9C466444A4B2F9235B009C4220
:1029180022D9174B4622985E44229D5E1E4AE0212A
:102928001A4C64236B43029301904346009333008F
:1029380089002000FEF71AF92000FFF707FA07B010
:10294800C0BCB946B046F0BD1448FFF7FFF9084BC4
:102958004622A0219952DCE71148FFF7F7F9044B0A
:10296800462200219952023A01319952D1E7C046D4
:10297800D40200209806002054570020581B00005D
:10298800306100087E03000050610008D453002025
:10299800790D000053F2FFFFD06100087461000850
:1029A800A461000870B5684B1A6A5D6A002D00D1F1
:1029B8001500664B2E229B5C002B00D170BD64482D
:1029C800FFF7C4F9634C01212000FFF7D9F96248E9
:1029D800FFF7BCF9601C0121FFF7D2F95F48FFF748
:1029E800B5F96378022B03D95D4B1B68012B41D0E5
:1029F8005C4B1B68012B00D183E05B4B1C68002CEF
:102A08002AD0514B1A7C514B2B215B5C9A4202D243
:102A1800564B002119704D4B2C215B5C9A4202D811
:102A2800524B01221A70514B1B78002B14D04F4B7C
:102A38001E89588970436421FEF796FF0300322DE2
:102A480077DD0A3B32003232484D6A8064205843B1
:102A58003100FEF7FFFEA880002CAFD1434C21893E
:102A68000B0032336380E38864205843FEF77CFF11
:102A7800A080A3E7344B1A7C344B2A215B5C9A4232
:102A880006D8314B2820195E2A201B5E994213DA9A
:102A98002E4B9B7B022B01D0072BA9D1344B1B78E3
:102AA800012BA5D13348FFF751F90120FFF790FA20
:102AB800264B0022DA739BE7244B29215B5C9A4260
:102AC8000FD9224B9B7B052B15D8032B90D32A4873
:102AD800FFF73CF90020FFF77BFA1C4B0022DA7362
:102AE80086E72648FFF732F90020FFF771FA174BFF
:102AF8000022DA737CE7093BDBB2012B00D977E7C8
:102B0800E5E7114B1A7C114B2D215B5C9A4206D8E4
:102B18000E4B0231002058540B4B5A746DE70B4B87
:102B28002B215B5C9A42F7D3084B0431012058549F
:102B3800F2E7002D86DA0D4B0A22521BDB889342FE
:102B480000DC7FE713007DE7D40200205806002050
:102B58001462000866060020286200080C64000859
:102B680090060020940600208C060020C402002055
:102B780088060020346200087C6200085C62000855
:102B8800F0B5DE4657464E464546E0B5B5B0E14F8E
:102B98000C2200213800FDF721FFDF4C30220021F4
:102BA8002000FDF71BFFDD4DE122920000212800E7
:102BB800FDF714FFDA4B0E22002199461800FDF7A5
:102BC8000DFFD84824220021FDF708FFFFF7A2F9DE
:102BD80044230322EA52D44B98461B682B640023F3
:102BE8009A4646335246EA52280048301425143291
:102BF8000021FDF7F3FECD4B01261E60CC4B1E6075
:102C0800CC4B1E602923E55401334B22E254013397
:102C1800233AE25401330A3AE254083B3B72013B3F
:102C28009B467B720A33E5540233E654FA23DB00F1
:102C38004A46D380C04DAB68F024A343AB60AB6871
:102C4800BE4A1340AB60AB68BD4A1340AB60BD4899
:102C580002F0E8FEBC4BBD4A5A60BD4A594654547E
:102C680052469A6007321A602B6B33432B632B6BE7
:102C780033401C931C9B2A6B02231A432A632A6B3A
:102C880013401B931B9B2A6B04231A432A632A6B4A
:102C980013401A931A9B2A6B08231A432A632A6B38
:102CA80013401993199B2A6B10231A432A632A6B22
:102CB80013401893189B2A6B20231A432A632A6B04
:102CC80013401793179BE120000301F0B5FFE1249F
:102CD8006402200002F0D0FB9E4F380001F054FC43
:102CE800380001F0B3FD9620800102F0A5F99A485A
:102CF80001F030FF9948072101F032FFFA2002F075
:102D08007DFE200002F098F9954807220921FFF777
:102D1800E5F8944B1E70FFF7ADFC934B80246401DB
:102D2800924922002BA802F083FE914B9149220080
:102D380024A802F07DFE904B84229049D2001DA861
:102D480002F076FE8E48FFF701F88E4A08231D210F
:102D58008D48FFF785F843461B688C4A92469A448B
:102D680043461B689146994443461C68FA239B00D6
:102D78009C4664446B6F33436B676F4B5B6F9B0779
:102D8800FBD5834B834A1A60834A1A6000225A6033
:102D9800824A9A6002E00023012B05D07C4BDB6855
:102DA8005B07F8D10123F7E7794B7D4A1A600023C6
:102DB8000B930D930C930E9300271D00564600F0BD
:102DC800B9FC7848FEF7C2FFFEF7D8FE7648FEF752
:102DD800BDFFFEF7D3FE544B1E686C4B9C46664401
:102DE800724B8022D2000092984632AA33A97048CA
:102DF80001F074FB8246329A33996E485346009329
:102E08004346FEF7CBFF329B002B01D100F0A9FC13
:102E1800339A5D4B9A4201D000F0A3FC634B1B78B8
:102E2800012B01D000F09DFC3F4B1A68120E16A929
:102E380088460A701A68120C4A701A68120A8A7050
:102E48001B68CB705C48FEF781FF04214046FEF703
:102E580097FF4948FEF77AFF544B9A782E4B1A741D
:102E6800002C05D1304B1C68FA239B009C46644417
:102E78004E4A534632993398FEF7F2FF00F071FC40
:102E88004A4808220021FDF7A9FD254B1B78002B95
:102E98000BD0234A90465088444A010A117050705A
:102EA80041468988080A9070D1705A4253413F4A76
:102EB800137108231D214148FEF7D2FF1A4B1B68E6
:102EC800AF229200944663440B9300F051FC3C48B7
:102ED800FEF73CFF002401E00134E4B2072C15D8CA
:102EE800384A63001B199B009B5CDB07F4D5110073
:102EF80063001A199200505840081A199200521883
:102F0800043208231D21FEF791FFE5E7002400F0B5
:102F180037FCC0469806002058060020D40200203E
:102F2800C402002004070020545700209406002003
:102F3800900600208C06002000380240FFE3FFFFC7
:102F4800FF1FFFFF0024F40010E000E07F3E0000B8
:102F580000ED00E020A1070000100140CC68000847
:102F6800B86800088806002078620008303F002012
:102F7800D4620008302F00200C640008304F002075
:102F8800D86200082C5F00087118000020BF0200FA
:102F980000300040CCCC000055550000EE0F00007A
:102FA800AAAA0000E0620008F86200085453002052
:102FB800006400401063000820630008F4E5061868
:102FC8003C630008A4060020E64C8023DB00009345
:102FD800230032AA33A9E44801F080FA03000F90D5
:102FE800329A3399E14800932300FEF7D7FE002375
:102FF8002374DF4B1B68DF4A91469944339BDE4AB2
:1030080093420DD8DD4A934200D25CE2DC4A9446F2
:103018006344062B00D956E29B00DA4AD3589F46F0
:10302800D94A934200D04EE2CE4B1A781202597810
:103038000A439246D54A5146118199780902D878AF
:103048000143884651811C7914730A215046FEF7C2
:1030580001FC83B20F930A215046FEF781FC8BB224
:1030680010930A214046FEF7F5FB83B211930A211B
:103078004046FEF775FC8BB2E20700D4E2E2C44A90
:103088009446A20700D4E0E2C24A9046620700D400
:10309800DEE2C14A9246220700D4DCE2BF4A9346E8
:1030A800E40600D4DAE2BE4CBE4AFC21BE480794CE
:1030B8005C46069454460594444604946446039436
:1030C8000293119B0193109B00930F9B8900FDF7BE
:1030D8004DFDF8E1A34B9A465B781B0252461278E5
:1030E80013439846B14B9B4642461A805346DC78B8
:1030F800240224B29B781C435B461C8153461B79EF
:10310800594610930B74404660436421FEF72CFC2B
:103118005A46119010625046C3791B0282791800F2
:10312800104382460A214046FEF794FB80B2129073
:1031380064215046FEF714FC069164215046FEF7C0
:1031480089FB0590109A0492119903910A21200095
:10315800FEF7F0FC09B202910A212000FEF704FCF8
:1031680000B201900A214046FEF7FAFB89B20091AD
:10317800129B8F4AFC2189008B48FDF7F7FC5B46C0
:103188005B7C002B00D14B33884A127C9A4200DDCD
:103198001A00744B1A7100225A71864B1B689342AD
:1031A80000DC85E18448FEF7D1FD824B1A686D4B3F
:1031B8001A7100225A717BE16A4A5479240224B2B6
:1031C80013791C43D3791B021BB2927913439B4694
:1031D800002B00DCB6E00023D9B2744B36221091E4
:1031E8009954604B9A465B781B021BB25246127880
:1031F800134398460A211800FEF7B6FB03B2119351
:103208000A214046FEF796FC0BB212935346DB7830
:103218001B021BB252469278134398460A211800A3
:10322800FEF7A2FB03B213930A214046FEF782FC85
:103238000BB214930A212000FEF796FB03B21593F4
:103248000A212000FEF776FC0BB29A460A2158465E
:10325800FEF78AFB03B298460A215846FEF76AFC35
:103268000BB21099002979D0544A9446544A4E48D2
:103278006146079106934346059353460493159B6D
:103288000393149B0293139B0193129B0093119B2E
:10329800FC218900FDF76AFC444B36229B5C002B1D
:1032A80001D1002C0DDA414A2A21535E9B462D4B51
:1032B800594699710912D9712824145F1C71221278
:1032C8005A71002C07D0621D14B2264B1A712212B3
:1032D8005A71364B9C85354B1C855A465A851B7C42
:1032E8000A2B75D9FFF758FA304B3C229A5C314BC0
:1032F8005B7A9A4274D22D4B2820195E4420185EBE
:103308000B1C814200DA031C1BB216490B71181200
:10331800487126498B85274B1B7A9A4200D2C7E011
:103328002848FEF713FD0F4B00221A715A711F4BE4
:103338009A85012444329C522000FEF749FE224B14
:103348001C60B5E0002C01DD002345E7174B1B7C12
:10335800092B01D800233FE701233DE71B4A944688
:1033680084E7C046545300200034004050630008EE
:103378005457002020BF020078180000721800007F
:103388008EE7FFFF60680008E550FF18C4020020C0
:10339800A8620008B0620008B8620008C0620008AD
:1033A800C86200089065000864530020D402002019
:1033B8006063000898060020A86300089C62000863
:1033C800B8630008106400089006002078620008BE
:1033D800A348FEF7BBFCA34B00229A71DA7181E780
:1033E800A14B44215B5E90E79E4A13789846537838
:1033F8009A46D178090293789B46D4792402937926
:103408001C43240453791B0212791343974AFC2066
:10341800844697481C4302945B46194301915346DE
:103428000093434661468900FDF7A0FB8E4B362288
:103438009B5C002B3CD08B4B0022DA709A7037E0F3
:10344800884BDA78120299780A439346864A594695
:10345800D185197908003121109050545C79A24621
:1034680001315454D97909029879014388469186E3
:103478005C78240224B21B781C430A212000FEF742
:1034880073FA03B21193424604925246039210987B
:1034980002905A4601920A212000FEF74BFB09B21E
:1034A8000091119B734AFC2189007148FDF75EFB6E
:1034B8006C4C33982100FEF737FD329933980F9BF7
:1034C8002200FEF7B3FC6A48FEF740FC00245DE1E9
:1034D800644A53781B0212781343674AFC216448F4
:1034E8008900FDF743FB604B36229B5C002B03D021
:1034F8005C4B00225A701A705A4B83221A710022B0
:10350800DA719A715A7108230F93D1E7554B1C78D9
:10351800554A3E215454997888463F214046505494
:1035280019798A463C215046505499798B463D2159
:10353800584650545A78120212B21443DA781202DA
:1035480012B24146114388465A79120212B25046C5
:1035580010438246DB791B021BB2594619438B463E
:103568000A212000FEF700FA03B20F930A215846F9
:10357800FEF7E0FA09B206910A215846FEF7F4F977
:1035880000B205900A215046FEF7D4FA09B2049118
:103598000A215046FEF7E8F900B203900A21404696
:1035A800FEF7C8FA09B202910A214046FEF7DCF993
:1035B80000B201900A212000FEF7BCFA09B200917E
:1035C8000F9B2E4AFC2189002948FDF7CFFA7AE79C
:1035D800244B597809021878DC78240224B29A78A6
:1035E80014435A79120292461A799346DA791202EA
:1035F80012B29B791A43904601430F910A21100099
:10360800FEF798FA09B204910A214046FEF7ACF990
:1036180000B2039053465A46134302930A212000EE
:10362800FEF788FA09B201910A212000FEF79CF9F9
:1036380000B200900F9B124AFC2189000C48FDF74C
:1036480095FA40E70F4A94461BE50E4A90461DE559
:103658000C4A92461FE50B4A934621E5094C23E59F
:103668000464000854530020D40200205464000865
:103678006453002094640008E064000800650008B2
:1036880054650008786200081DA802F00FFB0028A6
:1036980000D0A7E00E9A002A03D0D74B1B689B1ACC
:1036A8001AD424A802F0F2F9D448FEF74FFBD44804
:1036B80001F050FAD348042101F052FACE4B1B68AE
:1036C800FA229200944663440E930227CA4B1B6861
:1036D800CD4A944663440C93CC4B5B6880214901E6
:1036E800C91A2BA802F0B6F9022D00D1CBE200D9F5
:1036F800AFE2002D00D1B9E2012D1BD12BA802F0B9
:10370800C5F9C348FEF722FBC24D28686968FEF771
:1037180037FBC148FEF71AFBC04801F01BFA2868BE
:10372800696801F01DFAB44B1B68B74A94466344B4
:103738000D930225BA4BBB4A1A60AF4B1B689B1B03
:1037480001D4FFF73EFBAC4B1B684A469B1A01D4D9
:10375800FFF73CFBB44800F0AFFE002801D0FFF7AC
:103768003AFBA54B1B680B9A9B1A01D4FFF788FB01
:10377800002C05D0A04B1B681B1B01D4FFF7A7FB2F
:10378800AA4800F099FE002800D01DE4A84B5B6809
:103798008421C900C91A1DA802F05CF9A54B5B6811
:1037A80080214901C91A24A802F054F9002F00D138
:1037B8006AE77B1EDBB2032B8ED824A802F076FAC8
:1037C800002830D10C9A002A86D08B4B1B689B1A94
:1037D80000D581E7984B00225A6200230C930E9380
:1037E800002779E78022954B1DA98A46D200984682
:1037F8001900504602F070FA07009148FEF7A6FA41
:1038080039004046FEF7AEFA7D4801F0A3F93900C9
:10381800404601F0A5F924A802F06EFB504602F0DC
:1038280038F9012752E78022844BD2009A461900C2
:1038380024A802F051FA80468248FEF787FA4146EA
:103848005046FEF78FFA032F00D11CE1042F00D158
:103858007CE1022F00D0E6E124A802F04DFB16908F
:10386800431C14D14346022B08D97749734B984619
:103878001800FCF7F5FF804500D1EBE024AB984633
:10388800180002F039FB404602F003F99AE76A4B48
:103898009A46586024AB9846180002F032FB53460B
:1038A800D86016AB9A4604221900404602F090FAF6
:1038B80004225146404602F08BFA04225146404603
:1038C80002F086FA04225146404602F081FA0422A8
:1038D8005146404602F07CFA04225146404602F026
:1038E80077FA04225146404602F072FA0422514601
:1038F800404602F06DFA04225146404602F068FA4A
:1039080004225146404602F063FA042251464046DA
:1039180002F05EFA04225146404602F059FA0422A7
:103928005146404602F054FA04225146404602F0FD
:103938004FFA404602F0E0FA431C08D03E4B5B6960
:10394800834204D02C4B1A683B4B9A61586124ABD4
:103958009846042216A9180002F03AFA404602F0E6
:10396800CBFA1690431C01D0334B987424A802F06C
:10397800C3FA1690431C01D02F4BD8612E4B9846A2
:10398800DB689B4643465B689A4664211800FDF74E
:10399800EBFF5B4658431C49FDF7E6FF0300424630
:1039A80050622A4A254841464969029101935B467B
:1039B800009353468021C9008246FDF7D7F8504648
:1039C800FEF7C4F94346DB68002B06DB002B0EDD4F
:1039D800194B5B6A002B0ADA03E0174A526A002A7D
:1039E800F4DD1B48FEF7B2F9134B00225A6224A8F3
:1039F80002F04FF8E6E6C04654570020E06500089C
:103A080000140140F06500081027000040640240DF
:103A1800CC660008040700200C6400080010014070
:103A280000300040AAAA00000064004000340040B2
:103A38002860024028640240D40200205453002029
:103A4800D0650008F865000870660008046600087C
:103A58004466000824A802F019F8C848FEF776F969
:103A6800C74801F077F8C748052101F079F8C64B37
:103A78005D2200219954C54B1B68C54A944663448E
:103A88000C9303279EE643460C2B07D9C149C24B2A
:103A98009A461800FCF7E4FE824513D04346022BF1
:103AA80007D9BE49BC4B98461800FCF7D9FE80459B
:103AB80032D024AB9846180002F01EFA404601F0B6
:103AC800E8FF7FE68023DB009B46534624AA924604
:103AD8005A4698461900504602F07AF95A46414625
:103AE800504602F075F9A84B5D22934698469B5CB8
:103AF80028215943583141440C313C3A504602F090
:103B080067F943465A469B5C01334246594653542B
:103B1800504601F0BEFF55E624A801F0B7FFA048C3
:103B2800FEF714F9964801F015F89E48052101F0B2
:103B380017F8954B5D22995C013A9954934B1B6891
:103B4800934A944663440C9304273BE624A802F066
:103B5800D3F9431E9A468C4B5C229B5C534502D991
:103B68005346132B13D94346022B07D98B498A4B4B
:103B780098461800FCF774FE80454AD024AB984656
:103B8800180002F0B9F9404601F083FF1AE624ABA9
:103B98009846180002F0B0F9404602F0ADF94046E8
:103BA80002F0AAF9404602F0A7F9404602F0A4F94B
:103BB800404602F0A1F9744A282351464B439246E5
:103BC8009A44534660331880404602F095F95346AC
:103BD80062331880404602F08FF9404602F08CF9B3
:103BE800404602F089F9404602F086F953465E33B2
:103BF8001870404602F080F9404602F07DF94046D0
:103C080002F07AF953465F331870404601F041FFDD
:103C1800D8E524A801F03AFF6348FEF797F8002397
:103C28000C931F0058E524A802F066F94346022BBE
:103C380007D95A49584B98461800FCF711FE804599
:103C480003D024A801F025FFBCE500230E931F0034
:103C5800F7E7EB1EDBB2012B00D96BE54B4B1B687A
:103C68000D9A9B1A00D5ECE1002563E5FEF724F9CF
:103C7800032801D001255DE54C484D4A0721FEF790
:103C88002DF9012556E52BA801F0D5FF494B9A6877
:103C980090422DD2FEF710F9032800D14AE53B4B9C
:103CA8001B680D9A9B1A00D544E54348FEF74EF869
:103CB800364B1B68FA229200944663440D932BA856
:103CC80001F0D7FEFEF7E6F89620800101F0B4F97E
:103CD8003A4800F03FFF3A48072100F041FFFA2038
:103CE80001F08CFEE120400201F0A6F9032521E550
:103CF80029492BA801F0A9FF16902E4B9B689842E2
:103D08001DD33048FEF722F82A4B9968224D280027
:103D1800FEF736F82C48FEF719F82B78AA2B03D1B2
:103D28001D4B5B78552B53D0184B1B68FA22920019
:103D3800944663440D93FEF7ADF80325FAE423484F
:103D4800FEF704F816AD04212800FEF719F82BA891
:103D580001F071FF169004212800FEF711F81A48A7
:103D6800FDF7F4FF2BA801F084FE084B1B68F53320
:103D7800FF330D93FEF78EF80425DBE47466000824
:103D88000014014088660008D4020020545700201F
:103D98001027000090660008545300207066000841
:103DA800A0660008B4660008BC660008C46800087D
:103DB8005F02000004070020786700080010014037
:103DC800CC680008EC6600080C640008D866000897
:103DD800A04B9B785F2BA7D19E4BDB78812BA3D17F
:103DE8009C4B1B79902B9FD19B4A623B0021D1545D
:103DF800984B997A090209B2587A0143D182997B82
:103E08000902587B01430D911180197C0902D87B66
:103E180001438A465180997C0902587C01430F91DD
:103E28009180197D0902D87C01438B46D180997D08
:103E38000902587D014310911181197E0902D87D2C
:103E4800014311915181597E937B994202D013000D
:103E58000022DA73804B9973DB7BFF2B02D07E4AFA
:103E68000133D3737B4D26216B5C1B021BB20139D6
:103E7800695C0B4378488046838128202B5C1B02B1
:103E88001BB227216A5C1343424693822A23EB5CC8
:103E98001B022922AA5C1343424653823823EB5C57
:103EA8001B023722AA5C1343424653833E23EB5C32
:103EB8001B023D22AA5C1343424613844023EB5C59
:103EC8001B023F22AA5C13434246D3834223EB5C86
:103ED8001B024122AA5C1343424693834623EB5CB0
:103EE8001B021BB24522AA5C134342461383CB2311
:103EF800EB5C1354CC23EB5C5354CD23EB5C0139BE
:103F08005354CE23EB5C01395354CF23EA5CAB3BCB
:103F18004146CA54AC33EB5CFA22D200944663445F
:103F28004B840A215846FDF71BFD89B208910A21E6
:103F38005846FDF78FFC80B207900A215046FDF7DE
:103F48000FFD89B206910A215046FDF783FC80B225
:103F58000590119B04930A210F9B9A461800FDF7C0
:103F6800FFFC89B203910A215046FDF773FC80B229
:103F780002900A210D9B9A461800FDF7F1FC89B2C0
:103F880001910A215046FDF765FC80B20090109B14
:103F9800324A8021C9002800FCF7E8FD2800FDF717
:103FA800D5FE434616229A5E924642461823D15EB3
:103FB8002023D05E1A23D25E9446294A6346029390
:103FC8000190009153468021C9002800FCF7CEFDDE
:103FD8002800FDF7BBFE43461A88224B9A4204D8B4
:103FE8001D4B5B881F498B4203D91F48FDF7AEFE66
:103FF800B8E619491620095E002917D1002A15D1FB
:10400800002B13D1144B0C229B5E002B0ED1124BAC
:104018001E229B5E002B09D10F4B1A229B5E002BA0
:1040280004D10D4B18229B5E002B06D00A4B2E2282
:1040380001219954FEF7B6FC76E60C48FDF786FE9A
:1040480090E6FDF739FF032801D1FFF773FB002540
:10405800FFF770FB5453002058060020F86600084C
:104068002C67000870170000606700086C6700087C
:10407800DFF834D00D480E490E4A002302E0D45828
:10408800C4500433C4188C42F9D30B4A0B4C002398
:1040980001E013600432A242FBD301F0ADFCFCF74F
:1040A80079F901F0A5FC7047000008200000002005
:1040B80054000020DC6800085400002058570020F5
:1040C800F0B583B006001D00089CC3689B070CD19F
:1040D80003690327380018401F4201D0012705E073
:1040E800002A4ED0002313604BE00027002A11D08D
:1040F8003B001B331B019B595B072FD51D2010600C
:10410800002907D03B001B331B019B592022121AA0
:10411800D3400B603B001B331B01F3185A680F2375
:104128001340A34206D83B001B331B01F3185B68FE
:104138000F241C40002D26D0082200216846FCF7D9
:104148004DFC3B01F3181A00B932FF321268009295
:10415800BD33FF331B68019300220BE00B20CEE731
:1041680093089B0069465B5803211140C900CB4066
:10417800AB540132A242F3D32000002F05D0012F07
:1041880008D003B0F0BD0020F7E7F36820221343FE
:10419800F360F6E73369202213433361F1E7000047
:1041A800034B984201D0002070470120FCE7C0462D
:1041B80000340040F0B585B0060001911F000321CE
:1041C80000E01900B068E0235B05184219D1B36913
:1041D800FF20184210D0B36836481843B060B4685E
:1041E800344D2C40AC42FAD04B1EDBB20029E8D14A
:1041F8000520404205B0F0BDB068E0235B051842D9
:104208004FD0B3681B0E03241C40032C4CD00B2A40
:1042180004D01D2A18D003204042EBE7019B590522
:10422800230018331B0199510A9B082B3FD8230000
:1042380018331B01F3180A9A5A600822002102A8B1
:10424800FCF7CCFB002316E0019BD900042319439B
:10425800230018331B019951E6E79908F85C0322FB
:104268001A40D20090408A0002A95158019108438F
:1042780002A9505001330A9A9342EED32301F3184E
:104288001A008932FF32029911608D33FF33039A85
:104298001A6018342401A35901221343A3510A9820
:1042A800A8E701204042A5E702204042A2E70420F7
:1042B80040429FE78080800010B5034A00210348F0
:1042C800FCF78CFB10BDC04608280000280700201A
:1042D800F0B5D6464F464646C0B504000D00160058
:1042E800FFF7EAFF2300C82202E0002204C30A0005
:1042F800511E002AF9D123680132134323606368F1
:10430800DB07FCD5374B9D4204D0374B9D4201D08B
:10431800364BE3612368202213432360002E5CD0D0
:104328002368103A934323602368082213432360C9
:1043380080239B009946E25801231A43494662505C
:1043480087229200A1589943A150812189008C4667
:1043580061589943604621508327BF00E15999432A
:10436800E1518526B600A1599943A15100218A46F9
:10437800902189005046605004316050A15819437B
:10438800A150A1588846022140468843A050604663
:10439800205888438046604645462550E0590843E2
:1043A800E051A7598F43A75134365046A0510436DF
:1043B800A051A5582943A150626912210A4362619C
:1043C8004A46A2589A434946625022689A43226054
:1043D800E0BCBA46B146A846F0BD23681022134394
:1043E8002360A1E7A086010040420F0001001C00E5
:1043F800F0B5CE46474680B583B08146FFF7D0FE7C
:10440800040083001B181B021B189B00194A9F58A5
:10441800FF2F27D8174E85002D182D022B189B002B
:104428007A1C9A51BB009846D91989002B189B0011
:10443800C9180B0008339B19043389190A0008327C
:104448000431082000904846FFF73AFE4744BF0071
:104458002D19AD007F19F719786103B0C0BCB946B2
:10446800B046F0BD00230093002200214846FFF724
:1044780027FEF2E72807002010B50248FFF7B8FF2B
:1044880010BDC0460064004010B50248FFF7B0FFF9
:1044980010BDC0460064004010B50248FFF7A8FFF1
:1044A80010BDC0460034004010B50248FFF7A0FF19
:1044B80010BDC0460034004010B5FFF771FE830000
:1044C8001B181B021B189B0003495858002801D0D1
:1044D800CA18506910BDC04628070020F0B583B03F
:1044E8000D0017000193FFF75BFE060084002418F7
:1044F80024022418A400234BE358002B01D00128E0
:1045080005D900233B600027380003B0F0BD8300C5
:104518001B181B021B189B001A4AD3185A682A60DA
:104528009A683A605F69089B9F4200D91F00B400EF
:10453800A4192402A11989000831124D491904311E
:104548003A000198FBF7CEFE72B6A3199B005A59A0
:10455800013A1C005A51FF2A01D962B6D4E7B300C8
:104568009B191B022000074C001904309B199B0063
:1045780014331919043193009A189200FBF7B2FE0C
:10458800EBE7C0462807002010B582B00100A94A11
:10459800106C8024A40420431064136C23400193FE
:1045A800019B0022A448FFF793FEA44B1C681F211F
:1045B80080204000802305E0400001221A4010437B
:1045C80001395B08002BF7D18840FDF7B9FAFF23C2
:1045D80018404000FC3B83409C431F218020400042
:1045E800802305E0400001221A40104301395B088E
:1045F800002BF7D18840FDF7A3FAFF2318404000AD
:10460800FD3B83401C438D4A1460536A0F218B4342
:1046180006390B435362946816318020400080238A
:1046280005E0400001221A40104301395B08002BC5
:10463800F7D18840FDF784FAFF2318404000FC3B7F
:1046480083409C431F2180204000802305E04000D8
:1046580001221A40104301395B08002BF7D188402A
:10466800FDF76EFAFF2318404000FD3B83401C43D2
:10467800724B9C605A6872490A405A60DC68213162
:10468800FF3180204000802305E0400001221A40CD
:10469800104301395B08002BF7D18840FDF750FA29
:1046A800FF2318404000FC3B83409C43802300E0EC
:1046B8005B08002BFCD1614BDC601C681F2180204B
:1046C800800080235B0005E0400001221A4010436F
:1046D80001395B08002BF7D18840FDF731FAFF2339
:1046E80018404000FC3B83409C431F2180208000F1
:1046F80080235B0005E0400001221A401043013985
:104708005B08002BF7D18840FDF71AFAFF23184001
:104718004000FD3B83401C43484B1C605C6A1F21E2
:104728000220012305E0400001221A40104301390C
:104738005B08002BF7D18840FDF702FAFF231840E9
:104748008000F03B83409C431F210220012305E0A9
:10475800400001221A40104301395B08002BF7D1B1
:104768008840FDF7EDF9FF2318408000F63B8340B1
:104778001C43324B5C629C681F2180208000802390
:104788005B0005E0400001221A40104301395B0834
:10479800002BF7D18840FDF7D3F9FF2318404000DC
:1047A800FC3B83409C431F218020800080235B00CA
:1047B80005E0400001221A40104301395B08002B34
:1047C800F7D18840FDF7BCF9FF2318404000FD3BB6
:1047D80083401C43194B9C605A681A490A405A6026
:1047E800DC681F218020800080235B0005E04000FA
:1047F80001221A40104301395B08002BF7D1884089
:10480800FDF79EF9FF2318404000FC3B83409C4382
:1048180080235B0000E05B08002BFCD1074BDC60C9
:10482800094B802252031A60802292031A6002B058
:1048380010BDC04600380240006400400004024039
:10484800FFFEFFFFFFFDFFFF00E100E010B582B0B3
:104858000100B44A106C8024A40120431064136C36
:1048680023400193019B0022AF48FFF731FDAF4B76
:104878001C681F210820042305E0400001221A407B
:10488800104301395B08002BF7D18840FDF758F930
:10489800FF2318404000FC3B83409C431F21082015
:1048A800042305E0400001221A40104301395B0847
:1048B800002BF7D18840FDF743F9FF23184040004B
:1048C800FD3B83401C43994B1C601C6A1F21082038
:1048D800042305E0400001221A40104301395B0817
:1048E800002BF7D18840FDF72BF9FF2318408000F3
:1048F800F03B83409C431F210820042305E040002F
:1049080001221A40104301395B08002BF7D1884077
:10491800FDF716F9FF2318408000F43B83401C4341
:10492800824B1C629C681F210820042305E040007C
:1049380001221A40104301395B08002BF7D1884047
:10494800FDF7FEF8FF2318404000FC3B83409C43E2
:104958001F210820042305E0400001221A401043CB
:1049680001395B08002BF7D18840FDF7E9F8FF23F0
:1049780018404000FD3B83401C436C4B9C605A68C8
:1049880008218A435A60DC6817310820042305E0AF
:10499800400001221A40104301395B08002BF7D16F
:1049A8008840FDF7CDF8FF2318404000FC3B8340CA
:1049B8009C43042300E05B08002BFCD15B4BDC60CC
:1049C8001C681F211020082305E0400001221A401E
:1049D800104301395B08002BF7D18840FDF7B0F888
:1049E800FF2318404000FC3B83409C431F211020BC
:1049F800082305E0400001221A40104301395B08F2
:104A0800002BF7D18840FDF79BF8FF2318404000A2
:104A1800FD3B83401C43454B1C601C6A1F21102032
:104A2800082305E0400001221A40104301395B08C1
:104A3800002BF7D18840FDF783F8FF23184080004A
:104A4800F03B83409C431F211020082305E04000D1
:104A580001221A40104301395B08002BF7D1884026
:104A6800FDF76EF8FF2318408000F43B83401C4399
:104A78002E4B1C629C681F211020082305E0400073
:104A880001221A40104301395B08002BF7D18840F6
:104A9800FDF756F8FF2318404000FC3B83409C4339
:104AA8001F211020082305E0400001221A4010436E
:104AB80001395B08002BF7D18840FDF741F8FF2347
:104AC80018404000FD3B83401C43184B9C605A68CB
:104AD80010218A435A60DC680F311020082305E052
:104AE800400001221A40104301395B08002BF7D11E
:104AF8008840FDF725F8FF2318404000FC3B834021
:104B08009C43082300E05B08002BFCD1074BDC60CA
:104B1800074B80229200DA608022D200DA6002B06D
:104B280010BDC04600380240003400400004024076
:104B380000E100E010B50248FDF708F900BEFEE705
:104B480088670008024A1368013313607047C0463B
:104B580054570020014B18607047C046505300203E
:104B680030B5184B1A68FA239B009C466244164BD2
:104B78001B68DB0708D5144B5B681B0404D0114B7A
:104B88001B689B1AF3D430BD104A93688024A34352
:104B980093600C4B1D68FA239B009C46654403E018
:104BA80002789A62013021004C1E0029EBD0084B94
:104BB8001B68DA691206F3D4024B1B685B1BF6D438
:104BC800E1E7C046545700205860024000480040C2
:104BD8005053002010B50400FBF756FB01002000DD
:104BE800FFF7BEFF10BD092802D83030C0B27047A9
:104BF8005730C0B2FBE730B583B0040001AB0022E8
:104C08005A7014E020780009FFF7EDFF6B46187121
:104C180001A8FFF7DFFF23780F201840FFF7E3FF15
:104C28006B46187101A8FFF7D5FF013429004D1E06
:104C38000029E7D103B030BD70B582B00400C84B7D
:104C4800196B80208003014319631A6B024001929B
:104C5800019A1A6C8021C9020A431A641B6C0B4022
:104C68000093009BBF4B1A68BF491140BF4A0A43D3
:104C78001A60BF48BF491A68C0231340402B27D089
:104C8800B84B9860D960B74B5A68120C120484214B
:104C9800C9000A435A601A68B74E32408021090594
:104CA8000A431A601A68012002431A60B34B186855
:104CB800AD4D0540B248284318601A683240114388
:104CC8001960B04B1D681F2180204000802309E037
:104CD800A44BD8609960D6E7400001221A401043DF
:104CE80001395B08002BF7D18840FCF729FFFF2327
:104CF80018404000FC3B83409D431F21802040001A
:104D0800802305E0400001221A40104301395B0866
:104D1800002BF7D18840FCF713FFFF231840400011
:104D2800FD3B83401D43974A1560536A0F218B430F
:104D380008390B435362956818318020400080235E
:104D480005E0400001221A40104301395B08002B9E
:104D5800F7D18840FCF7F4FEFF2318404000FC3BE5
:104D680083409D431F2180204000802305E04000B0
:104D780001221A40104301395B08002BF7D1884003
:104D8800FCF7DEFEFF2318404000FD3B83401D4337
:104D98007C4B9D605A687C490A405A60DD68213125
:104DA800FF3180204000802305E0400001221A40A6
:104DB800104301395B08002BF7D18840FCF7C0FE8F
:104DC800FF2318404000FC3B83409D431F21802067
:104DD8004000802305E0400001221A4010430139B9
:104DE8005B08002BF7D18840FCF7AAFEFF23184088
:104DF8004000FE3B83401D43624BDD601D681F2160
:104E08008020800080235B0005E0400001221A40DA
:104E1800104301395B08002BF7D18840FCF790FE5E
:104E2800FF2318404000FC3B83409D431F21802006
:104E3800800080235B0005E0400001221A401043F7
:104E480001395B08002BF7D18840FCF779FEFF2376
:104E580018404000FD3B83401D434A4B1D605D6A7E
:104E68001F210220012305E0400001221A401043BF
:104E780001395B08002BF7D18840FCF761FEFF235E
:104E880018408000F03B83409D431F2102200123EE
:104E980005E0400001221A40104301395B08002B4D
:104EA800F7D18840FCF74CFEFF2318408000F83B00
:104EB80083401D43334B5D629D681F218020800025
:104EC80080235B0005E0400001221A4010430139AD
:104ED8005B08002BF7D18840FCF732FEFF2318400F
:104EE8004000FC3B83409D431F218020800080239D
:104EF8005B0005E0400001221A40104301395B08BD
:104F0800002BF7D18840FCF71BFEFF231840400018
:104F1800FD3B83401D431B4B9D605A681B490A405B
:104F28005A60DD681F218020800080235B0005E037
:104F3800400001221A40104301395B08002BF7D1C9
:104F48008840FCF7FDFDFF2318404000FC3B8340F0
:104F58009D431F218020800080235B001EE0C04607
:104F680000380240286002401F80FCFF0005020054
:104F780024480040304F0020FFFFFFE15860024006
:104F880040040200000C0240FFFEFFFFFFFDFFFF90
:104F9800400001221A40104301395B08002BF7D169
:104FA8008840FCF7CDFDFF2303405B00012632005B
:104FB8009A4015431A4BDD601A4990228B583020CD
:104FC80083438B50184D2B68843A934313432B60CB
:104FD8002B68164A13402B606B68154A13406B60A8
:104FE800144B18686308C0182100FCF733FC000450
:104FF800000CE8602B681E432E600B4BDB699B029C
:10500800FBD5094BDB695B02F7D5074B9A68402152
:105018000A439A609A6840318A439A6002B070BD28
:10502800000C02400038024000480040FFE9FFEF52
:10503800FFCFFFFF5000002070B584B00400D64BAE
:10504800196B8020C003014319631A6B0240039255
:10505800039A596C1022114359645B6C1A400292EE
:10506800029BCE4A136801210B431360CC4B1A688C
:105078008A431A601A68CB491140CB4A0A431A601E
:10508800CA48CB491A68C0231340402B1BD0C44BD5
:105098009860D960C24B5A68120C120480214901E9
:1050A8000A435A601A68C3491140802212050A430C
:1050B8001A601A6801210A431A60BF4B1D681E3125
:1050C8004020202309E0B64BD8609960E2E7400011
:1050D80001221A40104301395B08002BF7D18840A0
:1050E800FCF72EFDFF2318404000FC3B83409D4306
:1050F8001F214020202305E0400001221A401043D0
:1051080001395B08002BF7D18840FCF719FDFF2314
:1051180018404000FD3B83401D43A74B1D601D6A9E
:105128001F214020202305E0400001221A4010439F
:1051380001395B08002BF7D18840FCF701FDFF23FC
:1051480018408000F03B83409D431F2140202023CE
:1051580005E0400001221A40104301395B08002B8A
:10516800F7D18840FCF7ECFCFF2318408000F83B9F
:1051780083401D43904B1D629D681F2140202023C2
:1051880005E0400001221A40104301395B08002B5A
:10519800F7D18840FCF7D4FCFF2318404000FC3BC3
:1051A80083409D431F214020202305E04000012229
:1051B8001A40104301395B08002BF7D18840FCF7EF
:1051C800BFFCFF2318404000FD3B83401D437A4B42
:1051D8009D605A6840218A435A60DD682139402021
:1051E800202305E0400001221A40104301395B08E2
:1051F800002BF7D18840FCF7A3FCFF2318404000A0
:10520800FC3B83409D431F214020202305E04000B4
:1052180001221A40104301395B08002BF7D188405E
:10522800FCF78EFCFF2318404000FE3B83401D43E3
:10523800614BDD601D681F21802000028023DB0197
:1052480005E0400001221A40104301395B08002B99
:10525800F7D18840FCF774FCFF2318404000FC3B62
:1052680083409D431F21802000028023DB0105E04D
:10527800400001221A40104301395B08002BF7D186
:105288008840FCF75DFCFF2318404000FD3B83404D
:105298001D43494B1D605D6A1F218020402305E0A6
:1052A800400001221A40104301395B08002BF7D156
:1052B8008840FCF745FCFF2318408000F03B834002
:1052C8009D431F218020402305E0400001221A4011
:1052D800104301395B08002BF7D18840FCF730FCFC
:1052E800FF2318408000FB3B83401D43324B5D6227
:1052F8009D681F21802000028023DB0105E040001B
:1053080001221A40104301395B08002BF7D188406D
:10531800FCF716FCFF2318404000FC3B83409D43EC
:105328001F21802000028023DB0105E040000122CC
:105338001A40104301395B08002BF7D18840FCF76D
:10534800FFFBFF2318404000FD3B83401D431A4BE1
:105358009D605A6819490A405A60DD681F218020FB
:1053680000028023DB0105E0400001221A401043BF
:1053780001395B08002BF7D18840FCF7E1FBFF23DC
:1053880018404000FC3B83409D431F2180200002C1
:105398008023DB011AE0C0460038024000100140BB
:1053A800406402401F80FCFF0005020024100140F9
:1053B800303F0020FFFFFFE100040240FF7FFFFFB6
:1053C800400001221A40104301395B08002BF7D135
:1053D8008840FCF7B5FBFF2303405B000126320041
:1053E8009A4015431E4BDD601E4B596C1022114329
:1053F8005964596C0A400192019A90215A58032025
:1054080082435A50184D2B680C22934313432B6048
:105418002B68164A13402B606B68154A13406B6063
:10542800144B18686308C0182100FCF713FA00042D
:10543800000CE8602B681E432E600B4BDB699B0257
:10544800FBD5094BDB695B02F7D5074B9A6840210E
:105458000A439A609A6840318A439A6004B070BDE2
:10546800000402400038024000100140FFE9FFEF4D
:10547800FFCFFFFF5000002030B585B00400CE4BB1
:10548800196B8020C003014319631A6B0240039211
:10549800039A596C2022114359645B6C1A4002929A
:1054A800029BC64B1A6801218A431A601A68C449CC
:1054B8001140C44A0A431A60C348C4491A68C02341
:1054C8001340402B1BD0BD4B9860D960BB4B5A682A
:1054D800120C1204802149010A435A601A68BC4917
:1054E8001140A02212050A431A601A6801210A43D2
:1054F8001A60B84B1D681E314020202309E0AF4BCD
:10550800D8609960E2E7400001221A40104301394F
:105518005B08002BF7D18840FCF712FBFF231840EB
:105528004000FC3B83409D431F214020202305E091
:10553800400001221A40104301395B08002BF7D1C3
:105548008840FCF7FDFAFF2318404000FD3B8340EC
:105558001D43A04B1D601D6A1F214020202305E02C
:10556800400001221A40104301395B08002BF7D193
:105578008840FCF7E5FAFF2318408000F03B8340A1
:105588009D431F214020202305E0400001221A40AE
:10559800104301395B08002BF7D18840FCF7D0FA9B
:1055A800FF2318408000F73B83401D43894B1D6251
:1055B8009D681F214020202305E0400001221A4059
:1055C800104301395B08002BF7D18840FCF7B8FA83
:1055D800FF2318404000FC3B83409D431F2140208F
:1055E800202305E0400001221A40104301395B08DE
:1055F800002BF7D18840FCF7A3FAFF23184040009E
:10560800FD3B83401D43734B9D605A6840218A438C
:105618005A60DD6821394020202305E0400001223E
:105628001A40104301395B08002BF7D18840FCF77A
:1056380087FAFF2318404000FC3B83409D431F210D
:105648004020202305E0400001221A401043013980
:105658005B08002BF7D18840FCF772FAFF2318404B
:105668004000FD3B83401D435A4BDD601D681F21F0
:105678008020402305E0400001221A4010430139F0
:105688005B08002BF7D18840FCF75AFAFF23184033
:105698004000FC3B83409D431F218020402305E0C0
:1056A800400001221A40104301395B08002BF7D152
:1056B8008840FCF745FAFF2318404000FD3B834033
:1056C8001D43444B1D601D6A1F218020402305E0B7
:1056D800400001221A40104301395B08002BF7D122
:1056E8008840FCF72DFAFF2318408000F03B8340E8
:1056F8009D431F218020402305E0400001221A40DD
:10570800104301395B08002BF7D18840FCF718FAE1
:10571800FF2318408000F73B83401D432D4B1D623B
:105728009D681F218020402305E0400001221A4087
:10573800104301395B08002BF7D18840FCF700FAC9
:10574800FF2318404000FC3B83409D431F218020DD
:10575800402305E0400001221A40104301395B084C
:10576800002BF7D18840FCF7EBF9FF2318404000E5
:10577800FD3B83401D43174B9D605A6880218A4337
:105788005A60DD6861398020402305E0400001222D
:105798001A40104301395B08002BF7D18840FCF709
:1057A800CFF9FF2318404000FC3B83409D431F2155
:1057B8008020402316E0C04600380240286402409A
:1057C8001F80FCFF0005020024140140302F002038
:1057D800FFFFFFE100080240400001221A40104389
:1057E80001395B08002BF7D18840FCF7A9F9FF23A2
:1057F80018404000FD3B83401D43264BDD60264B8F
:10580800596C202211435964596C0A400192019A3B
:1058180090215A58214802405A50214D2B680C2299
:10582800934313432B606B681E4A1A4080235B0224
:1058380013436B606B681C4A1A4080239B02134316
:105848006B602B68194A13402B606B68184A134029
:105858006B60184B18686308C0182100FBF7FAFF43
:105868000004000CE8602B68012213432B600C4BEA
:10587800DB699B02FBD50A4BDB695B02F7D5084B5A
:105888009A6840210A439A609A6840318A439A602C
:1058980005B030BD0008024000380240FFF3FFFFAA
:1058A80000140140FFFFFEFFFFFFFDFFFFE9FFEFD0
:1058B800FFCFFFFF50000020F0B5C64600B5160028
:1058C800474B9C466044850201248C402B689846CF
:1058D800670820003B001F2105E0400001221A4014
:1058E800104301395B08002BF7D18840FCF728F9F1
:1058F800FF2318404000FC3B834042469A439046B1
:1059080020001F2205E0400001233B401843013AD4
:105918007F08002FF7D19040FCF712F9FF231840B9
:105928004000FE3B834042461A432A60AB689846D3
:10593800670820003B001F2105E0400001221A40B3
:10594800104301395B08002BF7D18840FCF7F8F8C1
:10595800FF2318404000FC3B834042469A43904650
:1059680020001F2205E0400001233B401843013A74
:105978007F08002FF7D19040FCF7E2F8FF2318408A
:105988004000FD3B834042461A43AA60EB689846B4
:10599800670820003B001F2105E0400001221A4053
:1059A800104301395B08002BF7D18840FCF7C8F891
:1059B800FF2318404000FC3B834042469A431300B3
:1059C80000E07F08002FFCD1EB60002E05D00023FB
:1059D8009C40AC6180BCB846F0BD1023F8E7C046D7
:1059E80080001000014B18687047C04654570020CB
:1059F80010B5FDF7C5F8FCE77047000082B0084B0A
:105A08001B680193019B431C00D00130002805D07E
:105A1800034B1B68DB03F9D50138F7E702B0704781
:105A280010E000E0014B18607047C04650000020AD
:105A3800F8B504000E0015001F001C220021FAF71B
:105A4800CDFF2A0000213000FAF7C8FF66606561C3
:105A5800A760F8BD70B50400080025696169FBF707
:105A68007FFF2161A94200D170BDFFF7BBFF206015
:105A7800FAE710B50400426900214068FAF7AEFF62
:105A880000232360E3602361A36110BD0369C36041
:105A9800704770B50400C068A669F3070ED425697D
:105AA800854223D063681B5C0A2B17D001306169DB
:105AB800FBF756FF08008D42F4D117E023698342B3
:105AC80014D063681B5C0A2B10D1093B1E43A661E6
