:020000040800F2
:1000000000000820751A0008F5240008F5240008EF
:10001000F5240008F5240008F5240008000000007D
:10002000000000000000000000000000F5240008AF
:10003000F524000800000000F5240008F924000859
:10004000F5240008F5240008F5240008F52400082C
:10005000F5240008F5240008F5240008F52400081C
:10006000F5240008F5240008F5240008F52400080C
:10007000F5240008F5240008F5240008F5240008FC
:10008000F5240008F5240008F5240008F5240008EC
:100090007D1E00088D1E0008F5240008F5240008C8
:1000A000F5240008F5240008F5240008F5240008CC
:1000B000F5240008F5240008F5240008F5240008BC
:1000C000F524000811090008A1090008F52400081A
:1000D000F5240008F5240008F5240008F52400089C
:1000E000F5240008F5240008F5240008F52400088C
:1000F000F5240008F5240008F5240008F52400087C
:10010000F5240008F5240008F5240008F52400086B
:10011000F5240008F5240008F5240008F52400085B
:10012000F5240008F5240008F5240008F52400084B
:10013000F5240008F5240008F5240008F52400083B
:10014000F5240008F5240008F5240008F52400082B
:10015000F5240008F5240008F5240008F52400081B
:10016000F5240008F5240008F5240008F52400080B
:10017000F5240008F5240008F5240008000000001C
:10018000F5240008F5240008F5240008F5240008EB
:10019000F5240008F5240008F5240008F5240008DB
:1001A000F5240008F5240008F5240008F5240008CB
:1001B000F5240008F5240008F5240008F5240008BB
:1001C000F5240008F524000800000000F5240008CC
:1001D000F5240008F5240008F5240008F52400089B
:1001E000F52400089D1E0008AD1E0008F524000837
:0801F000F5240008F5240008C5
:1001F80010B5064C2378002B07D1054B002B02D0F5
:100208000448AFF300800123237010BD7000002064
:100218000000000088420008044B10B5002B03D0F2
:1002280003490448AFF3008010BDC0460000000039
:1002380074000020884200080023C25C0133002AB1
:10024800FBD1581E7047000003B4714649084000AE
:100258004900095E49008E4403BC704700224308E8
:100268008B4274D303098B425FD3030A8B4244D376
:10027800030B8B4228D3030C8B420DD3FF220902B8
:1002880012BA030C8B4202D31212090265D0030B77
:100298008B4219D300E0090AC30B8B4201D3CB036D
:1002A800C01A5241830B8B4201D38B03C01A5241AF
:1002B800430B8B4201D34B03C01A5241030B8B42B1
:1002C80001D30B03C01A5241C30A8B4201D3CB029C
:1002D800C01A5241830A8B4201D38B02C01A524181
:1002E800430A8B4201D34B02C01A5241030A8B4284
:1002F80001D30B02C01A5241CDD2C3098B4201D39C
:10030800CB01C01A524183098B4201D38B01C01A19
:10031800524143098B4201D34B01C01A5241030990
:100328008B4201D30B01C01A5241C3088B4201D33F
:10033800CB00C01A524183088B4201D38B00C01AEC
:10034800524143088B4201D34B00C01A5241411A13
:1003580000D20146524110467047FFE701B5002020
:1003680000F0F0F802BDC0460029F7D076E77047E4
:1003780003460B437FD4002243088B4274D30309FE
:100388008B425FD3030A8B4244D3030B8B4228D39F
:10039800030C8B420DD3FF22090212BA030C8B42C5
:1003A80002D31212090265D0030B8B4219D300E065
:1003B800090AC30B8B4201D3CB03C01A5241830BEA
:1003C8008B4201D38B03C01A5241430B8B4201D39A
:1003D8004B03C01A5241030B8B4201D30B03C01AC3
:1003E8005241C30A8B4201D3CB02C01A5241830A3D
:1003F8008B4201D38B02C01A5241430A8B4201D36C
:100408004B02C01A5241030A8B4201D30B02C01A95
:100418005241CDD2C3098B4201D3CB01C01A5241FC
:1004280083098B4201D38B01C01A524143098B4285
:1004380001D34B01C01A524103098B4201D30B016E
:10044800C01A5241C3088B4201D3CB00C01A524193
:1004580083088B4201D38B00C01A524143088B4258
:1004680001D34B00C01A5241411A00D201465241F1
:10047800104670475DE0CA0F00D04942031000D310
:100488004042534000229C4603098B422DD3030A65
:100498008B4212D3FC22890112BA030A8B420CD375
:1004A800890192118B4208D3890192118B4204D39E
:1004B80089013AD0921100E08909C3098B4201D31E
:1004C800CB01C01A524183098B4201D38B01C01A58
:1004D800524143098B4201D34B01C01A52410309CF
:1004E8008B4201D30B01C01A5241C3088B4201D37E
:1004F800CB00C01A524183088B4201D38B00C01A2B
:100508005241D9D243088B4201D34B00C01A524101
:10051800411A00D20146634652415B10104601D38E
:100528004042002B00D54942704763465B1000D318
:10053800404201B5002000F005F802BD0029F8D0BE
:1005480016E770477047C0461C2101231B049842D8
:1005580001D3000C10391B0A984201D3000A08394C
:100568001B09984201D30009043902A2105C401803
:100578007047C046040302020101010100000000A7
:10058800000000007047000010B50400034801F0A7
:10059800B7FF200001F0DEFF10BDC0460048004054
:1005A80070B504000D00044801F0AAFF29002000DE
:1005B80001F0E1FF70BDC0460048004070B582B050
:1005C800019115001E00FFF7DFFF1B48FFF7DCFF56
:1005D800019C210E230AFF22120213401943230211
:1005E800FF221204134019432406214301910B2DC5
:1005F80011D01D2D17D1042101A8FFF7D1FF0F48F5
:10060800FFF7C2FF06993000FFF7CAFF0C48FFF753
:10061800BBFF02B070BD022101A8FFF7C1FF094866
:10062800FFF7B2FFEEE7042101A8FFF7B9FF06487C
:10063800FFF7AAFFE6E7C046B8420008BC42000838
:100648003C430008C0420008C4420008F0B583B02B
:1006580004000D0016001F00009313000A0001009B
:100668000548FFF7ABFF009733002A002100034835
:1006780001F09EFA03B0F0BDC842000800640040D3
:10068800F0B583B004000D0016001F00009313009E
:100698000A0001000548FFF791FF009733002A0080
:1006A8002100034801F084FA03B0F0BDD8420008E5
:1006B8000034004010B5074C21000C3118222000EE
:1006C80003F061F9200018300C22002103F06EF9C4
:1006D80010BDC0464C010020002000E0013043005E
:1006E8001B189A00044B9B185B68002B01D002284A
:1006F800F4D90323181A70474C01002070B5002460
:1007080000E0013463001B199B00094DEB185B687E
:10071800002B01D0022CF4D9022C07D8044D630019
:100728001E19B6007051A8194160826070BDC0469C
:100738004C010020F0B50023584A1360584A136052
:10074800584B5B6AFF221A4200D0A5E0564B186846
:10075800452800D9A0E0514A012111600223136005
:10076800524B59700231116051498C7B9C700424A2
:100778001460504C2478DC7016254C5F05251560F4
:1007880025121D71062515605C7114254C5F07251F
:10079800156025129D7108251560DC710C890135DD
:1007A8001560250A1D720A2515605C724C89013591
:1007B8001560250A9D720C251560DC720C254C5FAE
:1007C8000D25156025121D730E2515605C733A4CB6
:1007D800A5682E120F2717609E7310261660DD730A
:1007E800A588013616602E0A1E74122616605D74DE
:1007F8000C26A55F132616602E129E74142616600A
:10080800DD740E25645F1525156025121D751625E6
:1008180015605C75294C24682512033616609D7591
:1008280018251560DC751924146018761A201060D4
:10083800C87B5876088802341460040A9C761C2405
:100848001460D876488801341460040A1C771E2482
:100858001460587718200C5E1F20106020129877BB
:1008680020201060DC774D8B212414602E0A1E5442
:10087800023010601D55023414600D7F1D54023083
:1008880010604D7F1D55023414608D7F1D54023059
:100898001060CA7F1A551870F0BDC04610010020BC
:1008A80014010020005800408C0000209000002017
:1008B8002801002048010020180100200000002025
:1008C800084B1B68084A1268934207D2591C054A0C
:1008D8001160064AD25C064B9A627047044BAA2202
:1008E8009A62FAE71401002010010020900000200D
:1008F800005800400023024A1360024A1360704700
:10090800100100201401002010B5224B9B691B0721
:100918000DD5204B9B695B0C5B00FF221340442BD9
:1009280018D11C4AD36908210B43D36110BD194B58
:100938009B69DB0616D4174B9B695B0718D4154BCC
:100948009B699B0717D4134B9B699B0616D4114BC5
:100958009B69EBE70F4AD36908210B43D361FFF783
:10096800C9FFE3E70B4AD36910210B43D361DDE7E5
:10097800FFF7E0FEDAE7FFF7A3FFD7E7054BDA69F1
:1009880020210A43DA619B69DB07CFD4014B01229E
:100998009A61CBE70058004010B5FFF7ABFF10BDD8
:1009A80070B582B0C04A116B022319431163126BF0
:1009B80013400193019BBD4B1C681F218020C00080
:1009C80080239B0005E0400001221A4010430139B2
:1009D8005B08002BF7D18840FFF7B6FDFF231840CE
:1009E8004000FC3B83409C431F218020C0008023A3
:1009F8009B0005E0400001221A40104301395B08C2
:100A0800002BF7D18840FFF79FFDFF2318404000D7
:100A1800FD3B83401C43A54B1C605C6A1F210420DE
:100A2800022305E0400001221A40104301395B0807
:100A3800002BF7D18840FFF787FDFF23184080007F
:100A4800F03B83409C431F210420022305E0400023
:100A580001221A40104301395B08002BF7D1884066
:100A6800FFF772FDFF2318408000FB3B83401C43C7
:100A78008E4B5C629C681F218020C00080239B00F5
:100A880005E0400001221A40104301395B08002BA1
:100A9800F7D18840FFF758FDFF2318404000FC3B82
:100AA80083409C431F218020C00080239B0005E0D9
:100AB800400001221A40104301395B08002BF7D18E
:100AC8008840FFF741FDFF2318404000FD3B83406D
:100AD8001C43764A9460536875490B408020C000D7
:100AE80003435360D4681F2180239B0005E0400026
:100AF80001221A40104301395B08002BF7D18840C6
:100B0800FFF722FDFF2318404000FC3B83409C4335
:100B18001F218020C00080239B0005E040000122A7
:100B28001A40104301395B08002BF7D18840FFF7C2
:100B38000BFDFF2318404000FE3B83401C435B4BEA
:100B4800DC601C681F21802000018023DB0005E099
:100B5800400001221A40104301395B08002BF7D1ED
:100B68008840FFF7F1FCFF2318404000FC3B83401E
:100B78009C431F21802000018023DB0005E040000A
:100B880001221A40104301395B08002BF7D1884035
:100B9800FFF7DAFCFF2318404000FD3B83401C436D
:100BA800424B1C605C6A1F210820042305E04000BA
:100BB80001221A40104301395B08002BF7D1884005
:100BC800FFF7C2FCFF2318408000F03B83409C43A2
:100BD8001F210820042305E0400001221A40104389
:100BE80001395B08002BF7D18840FFF7ADFCFF23E4
:100BF80018408000FB3B83401C432C4B5C629C6884
:100C08001F21802000018023DB0005E04000012235
:100C18001A40104301395B08002BF7D18840FFF7D1
:100C280093FCFF2318404000FC3B83409C431F215A
:100C3800802000018023DB0005E0400001221A40EB
:100C4800104301395B08002BF7D18840FFF77CFC83
:100C5800FF2318404000FD3B83401C43134A946027
:100C6800536814490B408020000103435360D46843
:100C78001F218023DB0005E0400001221A401043B9
:100C880001395B08002BF7D18840FFF75DFCFF2393
:100C980018404000FC3B83409C431F2180200001FA
:100CA8008023DB000EE0C04600380240000402400A
:100CB800FFFBFFFFFFF7FFFF400001221A40104330
:100CC80001395B08002BF7D18840FFF73DFCFF2373
:100CD80003405B0001252A009A401443254BDC6041
:100CE800254B196C8020C003014319641A6C02401B
:100CF8000092009A90201A58204911408022D2026E
:100D08000A431A501E4900231E4A8B5402244C6081
:100D18001D4A8B548C3848601C4B1A68AA431A60C9
:100D28001B4A1A619A68D20AD202442632439A6050
:100D38009E688022120232439A601A682A431A6017
:100D48001A6807352A431A601A6808352A431A6050
:100D58001A6870352A431A601A68603D2A431A6077
:100D68001A6802431A601A6822431A604C60486085
:100D780002B070BD0004024000380240FFFFF3FFDC
:100D880000E100E0210300002203000000580040B9
:100D980005011000F0B5DE4657464E464546E0B51B
:100DA80097B0B94C23689B4620220021B74802F02F
:100DB800FDFD10220021B64802F0F8FD2422002192
:100DC800B44802F0F3FD07220921B348FFF796FC67
:100DD8000125B24B1D702368B14A91469944FFF72B
:100DE800DFFD8022AF4B9200AF490DA802F096FCC0
:100DF800AE48FFF7C9FB0823AD4A1D21AD48FFF7F0
:100E08003FFC2368236806932368A54A92469A44C0
:100E18002368A94A536F2B435367A74B5B6F9B0704
:100E2800FBD5A64BA64A1A60A64A1A6000225A6049
:100E3800A54A9A60A14BDB680722110019401A42A3
:100E4800F8D10E0004919D4BA04A1A600591002428
:100E58005F464D466BE1BFF34F8F9D49CB68E0225B
:100E6800D2001A409B4B1343CB60BFF34F8FC04651
:100E7800FDE7994B994680239B0000934B4614AAA3
:100E880015A9964801F028F8804600904B46149A18
:100E980015999348FFF792FB149B002B00D155E15D
:100EA800844B159A9A4200D050E18B4B1B78022B49
:100EB80031D0032B37D0012B19D0049B002B00D144
:100EC80044E1714B1B68069A9B1A00D53EE16E4BB4
:100ED8001A6806921B68724A92469A4443467E4AAA
:100EE80014991598FFF7CCFB049B05932EE1059BFD
:100EF800012B07D008236E4A1D217A48FFF7A6FB6D
:100F08000123DBE700231A001D217748FFF79EFB2A
:100F180002230593EEE75C4B1B68744A94466344CE
:100F28000693049BCAE76C4B5B78062B07D0564B9D
:100F38001B686E4A944663440693049BBEE7049B71
:100F4800BCE7654B994680239B0000934B4614AA47
:100F580015A9674800F0C0FF804600904B46149AD8
:100F680015996448FFF72AFB474B1B68159B994660
:100F7800614B4B44072B03D89B00604AD3589F46CC
:100F8800049B62E0544A53781B021078034340499B
:100F98008B460B80D078000200B2917808435946FE
:100FA80048805179090212790A4359468A80584380
:100FB8006421FFF7DDF95B469860514B1B68002BF5
:100FC80052DB454A13710023537101333DE0424916
:100FD8004B791B021BB20A7913439B462C4A938117
:100FE800CB791B021BB289790B43D3815B46002B5B
:100FF8000DD09388642B0AD01188FA204001FFF79E
:10100800B7F95A461118344A11710B0A53713D4BFE
:101018001B68002B03DB304A13711B1253711C4BE6
:101028009B880A2B22D82C4B00229A71DA71012353
:101038000BE01F49082398461A000C31264802F095
:1010480099FC0123059300E00123002B00D183E0E4
:101058004346214A14994846FFF7F8FA0A4B1B6899
:101068000F4A92469A4477E00123EEE70123ECE722
:10107800E31EDBB2012B4CD8034B1B689B1B00D52E
:101088009CE3002445E0C0469C3100202801002054
:10109800180100204C010020EC4400084801002001
:1010A800102700006844000878290020F44200084E
:1010B800A0420008711800000038024000300040CB
:1010C800CCCC000055550000EE0F0000AAAA000085
:1010D80000ED00E00400FA059C2F002000640040A9
:1010E800FC4200080118000001A00001204E000089
:1010F800003400400C4300088FE7FFFF7C440008E1
:101108000400002000000020FFF7E6FA032850D072
:101118000124984B1B685B1B00D4049D954B1B68EE
:10112800DB1B04D4944B1B68452B00D880E3934BFE
:10113800934A1A608F4B1B6852469B1A00D48AE662
:10114800904800F0B7FE002800D092E68E4800F0E4
:10115800B1FE002800D0F4E68C4B5B688021890042
:10116800C91A0DA802F0ECFA022C2AD000D97FE7A0
:10117800002CC9D0012CCCD10DA802F0F0FA84487B
:10118800FFF702FA834C61682068FFF709FA824882
:10119800FFF7FAF9814801F0B3F92068616801F0B6
:1011A800B5F9744B1E68FA239B009C4666440224DA
:1011B800AFE79822FF3207217948FFF79FFA012409
:1011C800A7E70DA802F03EFB724B9B6898421CD221
:1011D800684B1B689B1B9CD40DA802F0C0FA714891
:1011E800FFF7D2F9634B1E68FA239B009C466644BE
:1011F800FFF760FA604B00221A6001235B426A4ADB
:1012080013606A4A1360032483E78022684C9200C3
:1012180021000DA802F05CFB6648FFF7B5F95D4BAD
:1012280099682000FFF7BCF95B48FFF7ADF9237810
:10123800AA2B03D15E4B5B78552B0CD00DA802F07E
:101248008EFA4C4B1E68FA239B009C466644FFF7B7
:1012580031FA03245DE7564B9B78972BEED1544B1C
:10126800DB78012BEAD1524B1B79902BE6D1504BFE
:101278009C7A240224B25A7A14434F4A94829E7B61
:101288003602597B0E431680197C0902D87B01432C
:101298008B465180987C0002597C084308909080C6
:1012A800187D0002D97C08430990D080997D0902F5
:1012B800587D014389461181197E0902D87D014371
:1012C80088465181597E91732621595C090209B2D9
:1012D8002520185C014391812821595C090209B233
:1012E8002720185C014351822A21595C09022920D0
:1012F800185C014311824221595C09024120185CA3
:10130800014311834621595C090209B24520185C42
:101318000143D182CC21595CD177CD21595C917799
:10132800CE21595C5177CF21595C1177D0215B5C74
:10133800FA21C9008C46634453834A4642440792C3
:101348001E4B9B68E318D31A0A931D4B9E4201D883
:101358009B4539D9084B47221A601A48FFF714F9F8
:101368000DA802F0FCF9034B1E686436FFF7A2F9DA
:101378000424CEE69C3100208C0000200030004080
:10138800AAAA000000640040003400404060024007
:101398001C4300084C0100203C430008004C00405E
:1013A800D8440008DC4300080000002004000020A6
:1013B8009C2F002028430008280100201801002045
:1013C8007017000034430008002E17D04B46642BDA
:1013D80014D90A213000FEF741FF80B2089B584318
:1013E8000A21FEF7C5FF0B9096204B46584364210F
:1013F800FEF7BEFF0B9B834200DDD2E0002E12D029
:101408004B46642B0FD90A213000FEF727FF80B224
:10141800089B434318000A21FEF7AAFF4B465B08C6
:10142800984200DAC4E05B46002B16D04346642B92
:1014380013D90A215846FEF711FF80B2099B584379
:101448000A21FEF795FF81469620434658436421BA
:10145800FEF78EFF814500DDB1E05B46002B12D020
:101468004346642B0FD90A215846FEF7F7FE80B28F
:10147800099B434318000A21FEF77AFF43465B089D
:10148800984200DAA2E00A9B503300DAA5E00A9BF2
:10149800502B00DDA8E001235B42CC4A1360CC4A04
:1014A8001360CC4B00221A605E44FA235B009E4214
:1014B80000DC62E1C84B9E4203DC079B182B00DC72
:1014C80099E0002C03D0079B182B00DCBCE0C34B31
:1014D8009B88632B00D9E0E04F2B00D801E1322C28
:1014E8000FDDBE4B02215A5E188850436421FEF777
:1014F8003FFF060005210798FEF73AFF864200DA0B
:1015080015E1079B002B00D198E62300323312DB4C
:101518002300323300DB91E6B04B02215A5E90463D
:101528000C269E5F0A2149423000FEF721FF36183B
:10153800B04500DA82E663429846A84B02229C5ED8
:101548001888444364212000FEF712FF0600032098
:101558006043A349FEF70CFF3618B04500DB6DE683
:101568009C4B06221A609F48FFF70EF8FFF7B4F865
:10157800002800D162E69C4B1B78012B00D15DE668
:10158800002D00D05AE6072209219848FFF7B6F83F
:10159800954B01221A70964B1D68964B9C466544E4
:1015A8004CE68C4B48221A609348FEF7EDFFD7E6CD
:1015B800884B49221A609148FEF7E6FFD0E6854B32
:1015C8004A221A608E48FEF7DFFFC9E6814B4B229C
:1015D8001A608C48FEF7D8FFC2E67E4B4C221A6090
:1015E8008948FEF7D1FFBBE67A4B4D221A6087483F
:1015F800FEF7CAFFB4E6774B01321A608448FEF75B
:10160800C3FF724B00221A60FFF766F8012800D862
:1016180014E6754B1B78032B00D10FE6002D00D084
:101628000CE6072209217B48FFF768F80722092101
:101638007948FFF763F86C4B03221A706C4B1D68EE
:101648006C4B9C466544F9E5624B04221A6073486A
:10165800FEF79AFF5D4B00221A60FFF73DF801285C
:1016680000D8EBE5604B1B78032B00D1E6E5002D95
:1016780000D0E3E5072209216648FFF73FF8072273
:1016880009216548FFF73AF8574B03221A70584B5F
:101698001D68584B9C466544D0E54E4B03221A60A2
:1016A8005F48FEF771FF494B00221A604E4B1B78CA
:1016B800012B00D1C2E5FFF70FF8002800D1BDE5E6
:1016C800002D00D0BAE5072209214848FFF716F88F
:1016D800454B01221A70464B1D68464B9C46654493
:1016E800ACE53C4B08221A604E48FEF74DFFFEF76A
:1016F800F3FF012800D8A1E53B4B1B78032B00D151
:101708009CE5002D00D099E5072209214148FEF704
:10171800F5FF072209214048FEF7F0FF324B03226C
:101728001A70334B1D68334B9C46654486E5294B3C
:1017380005221A603C48FEF727FFFEF7CDFF012877
:1017480000D87BE5284B1B78032B00D176E5002DCC
:1017580000D073E5072209212E48FEF7CFFF0722A4
:1017680009212D48FEF7CAFF1F4B03221A70204B90
:101778001D68204B9C46654460E5164B07221A609D
:101788002A48FEF701FFFEF7A7FF002800D155E51C
:10179800154B1B78012B00D150E5002D00D04DE5ED
:1017A800072209211148FEF7A9FF0F4B01221A70E1
:1017B8000F4B1D680F4B9C4665443FE5FEF78CFFB9
:1017C800032800D1A5E40024A3E4C04600000020BB
:1017D800040000208C000020DB0500001801002018
:1017E80018FCFFFFC443000848010020EC4400082F
:1017F8009C31002010270000404300084C4300089B
:101808005843000864430008704300087C430008FC
:1018180088430008E0440008CC44000894430008CA
:10182800A0430008AC430008B8430008D0430008B0
:10183800774B1F68FA239B009C466744754800F065
:101848005FFE754B16229B5E002B00DA96E0724A0B
:10185800927B80217148006802900192704A127848
:1018680092007048125800926F4A89006F4802F03F
:10187800A5F86E4B98461800FEF7DEFC01004046BE
:1018880000F044FE644B14229B5E002B00DA89E0D2
:101898008021674A8900654802F090F8634B9846B2
:1018A8001800FEF7C9FC0100404600F02FFE614B0E
:1018B8009B68002B00DA7DE080215F4A89005B4845
:1018C80002F07CF8594B98461800FEF7B5FC010069
:1018D800404600F01BFE594B1B689846013371D0F7
:1018E800544B9B889946564B1868431C00D183E09B
:1018F8000A21FEF73DFD80214346019300904B46A7
:10190800504A8900494802F059F8484B984618004F
:10191800FEF792FC0100404600F0F8FD3E4B994668
:101928001B8898460A211800FEF798FC83B24A469D
:101938001289494648884044FA214900884262DCB5
:1019480041498C463549096801295FD03F488021C3
:1019580089463649884602906146019100923C4A80
:1019680049468900404602F029F84046FEF764FCE3
:101978000100404600F0CAFDFFF7D9FB264A927BDA
:101988005B4280212548006802900192244A12781F
:1019980092002448125800922E4A8900234802F0E7
:1019A8000DF866E75B4280212B4A89001F4802F048
:1019B80005F873E75B428021284A89001B4801F03B
:1019C800FDFF7FE71B4B9B8898461D4B1868431CFF
:1019D8000BD00A21FEF7CCFC802100904346204A18
:1019E8008900124801F0EAFF8FE7124B0C20185EBD
:1019F8000A21FEF7BDFCEFE70E4B0C20185E0A210A
:101A0800FEF7B6FC77E717498C469BE716489EE732
:101A18009C31002000500040280100208C0000204C
:101A280048010020B4440008EC4300089C2F002023
:101A38001C44000818010020344400080400002059
:101A48000000002058440008EC42000868440008E0
:101A58006C44000804440008284400084044000876
:101A68004C440008E8420008F0420008DFF834D08F
:101A78000D480E490E4A002302E0D458C4500433DE
:101A8800C4188C42F9D30B4A0B4C002301E01360B5
:101A98000432A242FBD301F0F3FB01F047FF01F04F
:101AA800ABFB7047000008200000002070000020F9
:101AB8003045000870000020B0310020F0B583B038
:101AC80006001D00089CC3689B070CD10369032707
:101AD800380018401F4201D0012705E0002A4ED0E7
:101AE800002313604BE00027002A11D03B001B3372
:101AF8001B019B595B072FD51D201060002907D0BB
:101B08003B001B331B019B592022121AD3400B6048
:101B18003B001B331B01F3185A680F231340A342E1
:101B280006D83B001B331B01F3185B680F241C40CD
:101B3800002D26D008220021684601F037FF3B011E
:101B4800F3181A00B932FF3212680092BD33FF331E
:101B58001B68019300220BE00B20CEE793089B0043
:101B680069465B5803211140C900CB40AB54013290
:101B7800A242F3D32000002F05D0012F08D003B0D4
:101B8800F0BD0020F7E7F36820221343F360F6E77F
:101B98003369202213433361F1E70000034B984275
:101BA80001D0002070470120FCE7C0460034004007
:101BB800F0B585B0060001911F00032100E019006F
:101BC800B068E0235B05184219D1B369FF201842B9
:101BD80010D0B36836481843B060B468344D2C4010
:101BE800AC42FAD04B1EDBB20029E8D105204042B6
:101BF80005B0F0BDB068E0235B0518424FD0B3686C
:101C08001B0E03241C40032C4CD00B2A04D01D2A85
:101C180018D003204042EBE7019B590523001833F5
:101C28001B0199510A9B082B3FD8230018331B012D
:101C3800F3180A9A5A600822002102A801F0B6FE99
:101C4800002316E0019BD90004231943230018330D
:101C58001B019951E6E79908F85C03221A40D20063
:101C680090408A0002A951580191084302A9505096
:101C780001330A9A9342EED32301F3181A008932EA
:101C8800FF32029911608D33FF33039A1A601834BA
:101C98002401A35901221343A3510A98A8E701205C
:101CA8004042A5E702204042A2E7042040429FE7C5
:101CB8008080800010B5034A0021034801F076FEB9
:101CC80010BDC0460828000070010020F0B5D646B7
:101CD8004F464646C0B504000D001600FFF7EAFF60
:101CE8002300C82202E0002204C30A00511E002A71
:101CF800F9D123680132134323606368DB07FCD5FD
:101D0800374B9D4204D0374B9D4201D0364BE3619F
:101D18002368202213432360002E5CD02368103AE6
:101D280093432360236808221343236080239B0086
:101D38009946E25801231A43494662508722920085
:101D4800A1589943A150812189008C466158994333
:101D5800604621508327BF00E1599943E151852608
:101D6800B600A1599943A15100218A4690218900C2
:101D78005046605004316050A1581943A150A158F1
:101D88008846022140468843A05060462058884330
:101D98008046604645462550E0590843E051A7591A
:101DA8008F43A75134365046A0510436A051A55848
:101DB8002943A150626912210A4362614A46A25826
:101DC8009A434946625022689A432260E0BCBA4668
:101DD800B146A846F0BD2368102213432360A1E74B
:101DE800A086010040420F0001002B00F0B5CE464E
:101DF800474680B583B08146FFF7D0FE04008300D4
:101E08001B181B021B189B00194A9F58FF2F27D825
:101E1800174E85002D182D022B189B007A1C9A51FD
:101E2800BB009846D91989002B189B00C9180B00CC
:101E380008339B19043389190A0008320431082031
:101E480000904846FFF73AFE4744BF002D19AD0001
:101E58007F19F719786103B0C0BCB946B046F0BD28
:101E680000230093002200214846FFF727FEF2E7EF
:101E78007001002010B50248FFF7B8FF10BDC0463A
:101E88000064004010B50248FFF7B0FF10BDC0461F
:101E98000064004010B50248FFF7A8FF10BDC04617
:101EA8000034004010B50248FFF7A0FF10BDC0463F
:101EB8000034004010B5FFF771FE83001B181B02A9
:101EC8001B189B0003495858002801D0CA185069AC
:101ED80010BDC04670010020F0B5C64600B582B0FE
:101EE800884617000193FFF759FE040085002D1856
:101EF8002D022D18AD001F4BEE58002E06D10023E1
:101F08003B60300002B080BCB846F0BD83001B18AF
:101F18001B021B189B00174AD318424659681160C8
:101F28009A683A605E69089B9E4200D91E00A50027
:101F38002D192D022919890008310E4FC9190431AC
:101F48003200019801F01FFD72B62B199B00DB5976
:101F5800013B2A199200D351D019043011001431D1
:101F6800C91904319A00D218920001F00CFD62B62A
:101F7800C7E7C0467001002010B582B00100A94A29
:101F8800106C8024A40420431064136C2340019334
:101F9800019B0022A448FFF799FEA44B1C681F214F
:101FA80080204000802305E0400001221A401043B1
:101FB80001395B08002BF7D18840FEF7C5FAFF23EB
:101FC80018404000FC3B83409C431F218020400078
:101FD800802305E0400001221A40104301395B08C4
:101FE800002BF7D18840FEF7AFFAFF2318404000D6
:101FF800FD3B83401C438D4A1460536A0F218B4379
:1020080006390B43536294681631802040008023C0
:1020180005E0400001221A40104301395B08002BFB
:10202800F7D18840FEF790FAFF2318404000FC3BA8
:1020380083409C431F2180204000802305E040000E
:1020480001221A40104301395B08002BF7D1884060
:10205800FEF77AFAFF2318404000FD3B83401C43FB
:10206800724B9C605A6872490A405A60DC68213198
:10207800FF3180204000802305E0400001221A4003
:10208800104301395B08002BF7D18840FEF75CFA52
:10209800FF2318404000FC3B83409C43802300E022
:1020A8005B08002BFCD1614BDC601C681F21802081
:1020B800800080235B0005E0400001221A401043A5
:1020C80001395B08002BF7D18840FEF73DFAFF2362
:1020D80018404000FC3B83409C431F218020800027
:1020E80080235B0005E0400001221A4010430139BB
:1020F8005B08002BF7D18840FEF726FAFF2318402B
:102108004000FD3B83401C43484B1C605C6A1F2118
:102118000220012305E0400001221A401043013942
:102128005B08002BF7D18840FEF70EFAFF23184012
:102138008000F03B83409C431F210220012305E0DF
:10214800400001221A40104301395B08002BF7D1E7
:102158008840FEF7F9F9FF2318408000F63B8340DA
:102168001C43324B5C629C681F21802080008023C6
:102178005B0005E0400001221A40104301395B086A
:10218800002BF7D18840FEF7DFF9FF231840400005
:10219800FC3B83409C431F218020800080235B0000
:1021A80005E0400001221A40104301395B08002B6A
:1021B800F7D18840FEF7C8F9FF2318404000FD3BDF
:1021C80083401C43194B9C605A681A490A405A605C
:1021D800DC681F218020800080235B0005E0400030
:1021E80001221A40104301395B08002BF7D18840BF
:1021F800FEF7AAF9FF2318404000FC3B83409C43AC
:1022080080235B0000E05B08002BFCD1074BDC60FF
:10221800094B802252031A60802292031A6002B08E
:1022280010BDC0460038024000640040000402406F
:10223800FFFEFFFFFFFDFFFF00E100E010B582B0E9
:102248000100A44A106C8024A40120431064136C7C
:1022580023400193019B00229F48FFF737FD9F4BC6
:102268001C681F2180204000802305E040000122D7
:102278001A40104301395B08002BF7D18840FEF75C
:1022880063F9FF2318404000FC3B83409C431F2117
:1022980080204000802305E0400001221A401043BE
:1022A80001395B08002BF7D18840FEF74DF9FF2371
:1022B80018404000FD3B83401C43884A1460536A21
:1022C8000F218B4304390B435362946814318020E7
:1022D8004000802305E0400001221A4010430139E4
:1022E8005B08002BF7D18840FEF72EF9FF23184032
:1022F8004000FC3B83409C431F21802040008023FA
:1023080005E0400001221A40104301395B08002B08
:10231800F7D18840FEF718F9FF2318404000FD3B2D
:1023280083401C436D4B9C605A686D490A405A6053
:10233800DC682131FF3180204000802305E0400027
:1023480001221A40104301395B08002BF7D188405D
:10235800FEF7FAF8FF2318404000FC3B83409C43FB
:10236800802300E05B08002BFCD15C4BDC605D4BFC
:102378001C681F211020082305E0400001221A4094
:10238800104301395B08002BF7D18840FEF7DCF8D1
:10239800FF2318404000FC3B83409C431F21102032
:1023A800082305E0400001221A40104301395B0868
:1023B800002BF7D18840FEF7C7F8FF2318404000EC
:1023C800FD3B83401C43474B1C601C6A1F211020A7
:1023D800082305E0400001221A40104301395B0838
:1023E800002BF7D18840FEF7AFF8FF231840800094
:1023F800F03B83409C431F211020082305E0400048
:1024080001221A40104301395B08002BF7D188409C
:10241800FEF79AF8FF2318408000F43B83401C43E2
:10242800304B1C629C681F211020082305E04000E7
:1024380001221A40104301395B08002BF7D188406C
:10244800FEF782F8FF2318404000FC3B83409C4382
:102458001F211020082305E0400001221A401043E4
:1024680001395B08002BF7D18840FEF76DF8FF2390
:1024780018404000FD3B83401C431A4B9C605A683F
:1024880010218A435A60DC680F311020082305E0C8
:10249800400001221A40104301395B08002BF7D194
:1024A8008840FEF751F8FF2318404000FC3B83406A
:1024B8009C43082300E05B08002BFCD1094BDC603F
:1024C800094B80229200DA608022D200DA6002B0E2
:1024D80010BDC046003802400034004000000240F1
:1024E800FFFEFFFF0004024000E100E000BEFEE73F
:1024F800024A1368013313607047C0469C310020BC
:10250800014B18607047C046982F002010B50E4B3D
:102518001B68DB0703D50C4B5B681B04F7D10B4A20
:1025280093688024A343936003E002789A620130A1
:1025380021004C1E002905D0054B1B68DA691206DC
:10254800FAD5F2E710BDC046586002400048004086
:10255800982F002010B50400FDF76EFE0100200042
:10256800FFF7D4FF10BD092802D83030C0B2704739
:102578005730C0B2FBE730B583B0040001AB00228E
:102588005A7014E020780009FFF7EDFF6B461871C8
:1025980001A8FFF7DFFF23780F201840FFF7E3FFBC
:1025A8006B46187101A8FFF7D5FF013429004D1EAD
:1025B8000029E7D103B030BD70B582B00400C84B24
:1025C800196B80208003014319631A6B0240019242
:1025D800019A1A6C8021C9020A431A641B6C0B40C9
:1025E8000093009BBF4B1A68BF491140BF4A0A437A
:1025F8001A60BF48BF491A68C0231340402B27D030
:10260800B84B9860D960B74B5A68120C12048421F1
:10261800C9000A435A601A68B74E3240802109053A
:102628000A431A601A68012002431A60B34B1868FB
:10263800AD4D0540B248284318601A68324011432E
:102648001960B04B1D681F2180204000802309E0DD
:10265800A44BD8609960D6E7400001221A40104385
:1026680001395B08002BF7D18840FDF76DFFFF2388
:1026780018404000FC3B83409D431F2180204000C0
:10268800802305E0400001221A40104301395B080D
:10269800002BF7D18840FDF757FFFF231840400073
:1026A800FD3B83401D43974A1560536A0F218B43B6
:1026B80008390B4353629568183180204000802305
:1026C80005E0400001221A40104301395B08002B45
:1026D800F7D18840FDF738FFFF2318404000FC3B46
:1026E80083409D431F2180204000802305E0400057
:1026F80001221A40104301395B08002BF7D18840AA
:10270800FDF722FFFF2318404000FD3B83401D4397
:102718007C4B9D605A687C490A405A60DD682131CB
:10272800FF3180204000802305E0400001221A404C
:10273800104301395B08002BF7D18840FDF704FFEF
:10274800FF2318404000FC3B83409D431F2180200D
:102758004000802305E0400001221A40104301395F
:102768005B08002BF7D18840FDF7EEFEFF231840E9
:102778004000FE3B83401D43624BDD601D681F2106
:102788008020800080235B0005E0400001221A4081
:10279800104301395B08002BF7D18840FDF7D4FEC0
:1027A800FF2318404000FC3B83409D431F218020AD
:1027B800800080235B0005E0400001221A4010439E
:1027C80001395B08002BF7D18840FDF7BDFEFF23D8
:1027D80018404000FD3B83401D434A4B1D605D6A25
:1027E8001F210220012305E0400001221A40104366
:1027F80001395B08002BF7D18840FDF7A5FEFF23C0
:1028080018408000F03B83409D431F210220012394
:1028180005E0400001221A40104301395B08002BF3
:10282800F7D18840FDF790FEFF2318408000F83B61
:1028380083401D43334B5D629D681F2180208000CB
:1028480080235B0005E0400001221A401043013953
:102858005B08002BF7D18840FDF776FEFF23184070
:102868004000FC3B83409D431F2180208000802343
:102878005B0005E0400001221A40104301395B0863
:10288800002BF7D18840FDF75FFEFF23184040007A
:10289800FD3B83401D431B4B9D605A681B490A4002
:1028A8005A60DD681F218020800080235B0005E0DE
:1028B800400001221A40104301395B08002BF7D170
:1028C8008840FDF741FEFF2318404000FC3B834051
:1028D8009D431F218020800080235B001EE0C046AE
:1028E80000380240286002401F80FCFF00050200FB
:1028F80024480040782B0020FFFFFFE15860024089
:1029080040040200000C0240FFFEFFFFFFFDFFFF36
:10291800400001221A40104301395B08002BF7D10F
:102928008840FDF711FEFF2303405B0001263200BB
:102938009A4015431A4BDD601A4990228B58302073
:1029480083438B50184D2B68843A934313432B6071
:102958002B68164A13402B606B68154A13406B604E
:10296800144B18686308C0182100FDF777FC0004B1
:10297800000CE8602B681E432E600B4BDB699B0242
:10298800FBD5094BDB695B02F7D5074B9A684021F9
:102998000A439A609A6840318A439A6002B070BDCF
:1029A800000C02400038024000480040FFE9FFEFF9
:1029B800FFCFFFFF0800002070B582B00400D34AA3
:1029C800116B8020800301431163136B0340019353
:1029D800019BCF4B1A68CF491140CF4A0A431A606E
:1029E800CE48CF491A68C0231340402B1BD0C84B90
:1029F8009860D960C6494A68120C120480239B006B
:102A08001A434A600A68C7481040802212050243E8
:102A18000A600A68012002430A60C34A15681F2138
:102A28008020C00009E0BA4BD8609960E2E7400016
:102A380001221A40104301395B08002BF7D1884066
:102A4800FDF782FDFF2318404000FC3B83409D4377
:102A58001F218020C00080239B0005E04000012248
:102A68001A40104301395B08002BF7D18840FDF765
:102A78006BFDFF2318404000FD3B83401D43AA4BDC
:102A88001D605D6A1F210420022305E04000012229
:102A98001A40104301395B08002BF7D18840FDF735
:102AA80053FDFF2318408000F03B83409D431F21C6
:102AB8000420022305E0400001221A401043013996
:102AC8005B08002BF7D18840FDF73EFDFF23184037
:102AD8008000F73B83401D43934B5D629D681F2137
:102AE8008020C00080239B0005E0400001221A409E
:102AF800104301395B08002BF7D18840FDF724FD0E
:102B0800FF2318404000FC3B83409D431F21802049
:102B1800C00080239B0005E0400001221A401043BA
:102B280001395B08002BF7D18840FDF70DFDFF2325
:102B380018404000FD3B83401D437B4B9D605A6815
:102B48007A490A405A60DD681F218020C00080232E
:102B58009B0005E0400001221A40104301395B0840
:102B6800002BF7D18840FDF7EFFCFF231840400009
:102B7800FC3B83409D431F218020C00080239B0095
:102B880005E0400001221A40104301395B08002B80
:102B9800F7D18840FDF7D8FCFF2318404000FE3BE2
:102BA80083401D43604BDD601D681F2180200001AC
:102BB8008023DB0005E0400001221A401043013960
:102BC8005B08002BF7D18840FDF7BEFCFF231840B7
:102BD8004000FC3B83409D431F218020000180234F
:102BE800DB0005E0400001221A40104301395B0870
:102BF800002BF7D18840FDF7A7FCFF2318404000C1
:102C0800FD3B83401D43484B1D605D6A1F21082022
:102C1800042305E0400001221A40104301395B08F3
:102C2800002BF7D18840FDF78FFCFF231840800068
:102C3800F03B83409D431F210820042305E040000A
:102C480001221A40104301395B08002BF7D1884054
:102C5800FDF77AFCFF2318408000F73B83401D43B3
:102C6800314B5D629D681F21802000018023DB00BD
:102C780005E0400001221A40104301395B08002B8F
:102C8800F7D18840FDF760FCFF2318404000FC3B6B
:102C980083409D431F21802000018023DB0005E045
:102CA800400001221A40104301395B08002BF7D17C
:102CB8008840FDF749FCFF2318404000FD3B834056
:102CC8001D43194B9D605A6819490A405A60DD68CE
:102CD8001F21802000018023DB0005E04000012245
:102CE8001A40104301395B08002BF7D18840FDF7E3
:102CF8002BFCFF2318404000FC3B83409D431F21D1
:102D0800802000018023DB001AE0C0460038024022
:102D1800406002401F80FCFF00050200244C004078
:102D280078290020FFFFFFE100080240FFFBFFFFBA
:102D3800FFF7FFFF400001221A40104301395B08EA
:102D4800002BF7D18840FDF7FFFBFF2303405B0012
:102D5800012632009A4015431F4BDD601F4B196C4A
:102D680080200003014319641A6C02400092009A03
:102D780090215A58C02082435A50194D2B680C2272
:102D8800934313432B602B68164A13402B606B68E0
:102D9800154A13406B60154B18686308C01821006A
:102DA800FDF75CFA0004000CE8602B681E432E60F7
:102DB8000B4BDB699B02FBD5094BDB695B02F7D543
:102DC800074B9A6840210A439A609A6840318A43BF
:102DD8009A6002B070BDC046000802400038024048
:102DE800004C0040FFE9FFEFFFCFFFFF0800002085
:102DF80070B582B00400B54B1D681F2180204001CA
:102E080080231B0105E0400001221A4010430139CC
:102E18005B08002BF7D18840FDF796FBFF2318408D
:102E28004000FC3B83409D431F21802040018023BC
:102E38001B0105E0400001221A40104301395B08DC
:102E4800002BF7D18840FDF77FFBFF231840400097
:102E5800FD3B83401D439D4B1D605D6A1F21102073
:102E6800082305E0400001221A40104301395B089D
:102E7800002BF7D18840FDF767FBFF23184080003F
:102E8800F03B83409D431F211020082305E04000AC
:102E980001221A40104301395B08002BF7D1884002
:102EA800FDF752FBFF2318408000F73B83401D438A
:102EB800864B5D629D681F218020400180231B0195
:102EC80005E0400001221A40104301395B08002B3D
:102ED800F7D18840FDF738FBFF2318404000FC3B42
:102EE80083409D431F218020400180231B0105E072
:102EF800400001221A40104301395B08002BF7D12A
:102F08008840FDF721FBFF2318404000FD3B83402C
:102F18001D436E4B9D605A686D490A405A60DD68D2
:102F28001F218020400180231B0105E04000012271
:102F38001A40104301395B08002BF7D18840FDF790
:102F480003FBFF2318404000FC3B83409D431F21A7
:102F58008020400180231B0105E0400001221A4027
:102F6800104301395B08002BF7D18840FDF7ECFAD4
:102F7800FF2318404000FE3B83401D43534BDD6058
:102F8800544B1D681F210420022305E04000012244
:102F98001A40104301395B08002BF7D18840FDF730
:102FA800D3FAFF2318404000FC3B83409D431F2178
:102FB8000420022305E0400001221A401043013991
:102FC8005B08002BF7D18840FDF7BEFAFF231840B5
:102FD8004000FD3B83401D433E4B1D601D6A1F2181
:102FE8000420022305E0400001221A401043013961
:102FF8005B08002BF7D18840FDF7A6FAFF2318409D
:103008008000F03B83409D431F210420022305E0FC
:10301800400001221A40104301395B08002BF7D108
:103028008840FDF791FAFF2318408000F73B834062
:103038001D43284B1D629D681F210420022305E0C3
:10304800400001221A40104301395B08002BF7D1D8
:103058008840FDF779FAFF2318404000FC3B834085
:103068009D431F210420022305E0400001221A404D
:10307800104301395B08002BF7D18840FDF764FA4B
:10308800FF2318404000FD3B83401D43114B9D60CA
:103098005A6804218A435A60DD681B3104200223E0
:1030A80005E0400001221A40104301395B08002B5B
:1030B800F7D18840FDF748FAFF2318404000FC3B51
:1030C80083409D431F21042002230BE00008024097
:1030D800FFEFFFFF000C0240400001221A4010439E
:1030E80001395B08002BF7D18840FDF72DFAFF2343
:1030F80003405B00012632009A4015431F4BDD60F8
:103108001F4B196C80204003014319641A6C02405C
:103118000192019A90215A581A4802405A501A4D61
:103128002B680C22934313432B602B68174A1340D8
:103138002B606B68164A13406B60164B186863085F
:10314800C0182100FDF78AF80004000CE8602B681D
:103158001E432E600C4BDB699B02FBD50A4BDB69D7
:103168005B02F7D5084B9A6840218A439A609A68AF
:1031780040318A439A6002B070BDC046000C0240DC
:1031880000380240FFFCFFFF00500040FFE9FFEF5E
:10319800FFCFFFFF08000020014B18687047C046AA
:1031A8009C31002010B50D4B9A68F024A2439A6018
:1031B8009A680B490A409A609A680A490A409A60D4
:1031C800094800F0A5FA094B094A5A60094923221F
:1031D8008C5400229A6007321A6010BD00380240F1
:1031E800FFE3FFFFFF1FFFFF0024F40010E000E0F3
:1031F8007F3E000000ED00E010B584B0FFF7D2FF7D
:103208001D4B196B012211431963196B0A40039274
:10321800039A196B022211431963196B0A4002922F
:10322800029A196B042211431963196B0A4001921F
:10323800019A196B0822114319631B6B1A400092FB
:10324800009BE1200003FFF7B7F996208001FFF704
:10325800B3FBE1204002FFF7CBFDFA20800000F02D
:1032680011F8064C2000FEF787FE2000FEF7E6FF67
:10327800FDF790FDFCE7C0460038024020A107009A
:103288007047000030B583B0D04B196C8024A4037C
:10329800214319641A6C22400192019A596C8024C6
:1032A800E401214359645A6C22400092009A902408
:1032B8001A59C7491140802252020A431A51C54A75
:1032C800136801218B431360AF239B00984220D0E1
:1032D80010D9FA239B0098421FD0BF4B984200D0C8
:1032E8000DE2BE4BBB4A1361BD4B1C681F21402039
:1032F80020231AE064280ED02D3BFF3B984201D1D1
:10330800B84BEFE7002801D1B64BEBE7012040426C
:10331800F3E1B54BE6E7B34BE4E7B44BE2E7400033
:1033280001221A40104301395B08002BF7D188406D
:10333800FDF70AF9FF2318404000FC3B83409C43FB
:10334800202300E05B08002BFCD1A54B1C609C6887
:103358001F214020202305E0400001221A4010438D
:1033680001395B08002BF7D18840FDF7EDF8FF2302
:1033780018404000FC3B83409C431F2140202023F1
:1033880005E0400001221A40104301395B08002B78
:10339800F7D18840FDF7D8F8FF2318404000FD3BDF
:1033A80083401C438E4B9C60DC681F2140202023F7
:1033B80005E0400001221A40104301395B08002B48
:1033C800F7D18840FDF7C0F8FF2318404000FC3BC8
:1033D80083409C431F214020202305E04000012218
:1033E8001A40104301395B08002BF7D18840FDF7DC
:1033F800ABF8FF2318404000FE3B83401C43784B4A
:10340800DC607B4B1C681F218020800080235B00D0
:1034180005E0400001221A40104301395B08002BE7
:10342800F7D18840FDF790F8FF2318404000FC3B97
:1034380083409C431F218020800080235B0005E09F
:10344800400001221A40104301395B08002BF7D1D4
:103458008840FDF779F8FF2318404000FD3B834082
:103468001C43634B1C609C681F21802080008023C4
:103478005B0005E0400001221A40104301395B0857
:10348800002BF7D18840FDF75FF8FF231840400074
:10349800FC3B83409C431F218020800080235B00ED
:1034A80005E0400001221A40104301395B08002B57
:1034B800F7D18840FDF748F8FF2318404000FD3B4E
:1034C80083401C434A4A946053684A490B40802011
:1034D800800003435360D4681F2180235B0005E00C
:1034E800400001221A40104301395B08002BF7D134
:1034F8008840FDF729F8FF2318404000FC3B834033
:103508009C431F218020800080235B0005E0400051
:1035180001221A40104301395B08002BF7D188407B
:10352800FDF712F8FF2318404000FE3B83401C4380
:103538002F4BDC601C681F2180204000802305E0A1
:10354800400001221A40104301395B08002BF7D1D3
:103558008840FCF7F9FFFF2318404000FC3B8340FC
:103568009C431F2180204000802305E04000012269
:103578001A40104301395B08002BF7D18840FCF74B
:10358800E3FFFF2318404000FD3B83401C43184BDA
:103598001C609C681F2180204000802305E04000BB
:1035A80001221A40104301395B08002BF7D18840EB
:1035B800FCF7CAFFFF2318404000FC3B83409C43B4
:1035C8001F218020400080231CE0C04600380240B4
:1035D800FFFFFCFF00540040DC050000100E300027
:1035E80000000240862BF0003D0E3000220E300015
:1035F80000040240FFFDFFFF400001221A40104373
:1036080001395B08002BF7D18840FCF79DFFFF23A9
:1036180018404000FD3B83401C433A4A946053687D
:1036280039490B408020400003435360D46821315E
:10363800FF31802305E0400001221A401043013980
:103648005B08002BF7D18840FCF77EFFFF2318406A
:103658004000FC3B83409C431F2180204000802386
:1036680005E0400001221A40104301395B08002B95
:10367800F7D18840FCF768FFFF2303405B00012572
:103688002A009A4014431F4AD46020490B682B43F0
:103698000B60546A1F210220012305E0400001222B
:1036A8001A40104301395B08002BF7D18840FCF71A
:1036B8004BFFFF2318408000F03B83409C431F21B1
:1036C8000220012305E0400001221A40104301397D
:1036D8005B08002BF7D18840FCF736FFFF23034037
:1036E8009B0004210A009A401443064A5462536A14
:1036F8000F2083430B435362002003B030BD0120E9
:103708004042FAE700040240FFFEFFFF0054004079
:10371800014B18607047C04608000020F8B5040047
:103728000E0015001F001C22002100F03FF92A009E
:103738000021300000F03AF966606561A760F8BDC5
:1037480070B50400080025696169FCF70DFE216168
:10375800A94200D170BDFFF71FFD2060FAE7036999
:10376800C3607047F0B5D6464F4680B583B00500B4
:103778000C0091460193C06848446969FCF7F4FD60
:103788000F00A868FCF758FD2B69BB4252D06B6844
:10379800DB19236004002600013C002E2CD06B6846
:1037A8009A46BA44DA5DAB681B5D9A42F3D16C69FC
:1037B800E019EB68C01A4B46C01A2100FCF7D4FD8B
:1037C8000E00019B002B0DD0781C2100FCF7CCFDCE
:1037D800E9600123AA699A431300AA615246127844
:1037E8000A2A05D0300003B0C0BCBA46B146F0BDC5
:1037F800093A1343AB61F5E701376B69BB4208D05F
:10380800EA68BA42EED02A69BA42EBD0BB42C1D8C4
:10381800E8E7EB68FE1A4B46F61A019B002B05D029
:103828000023EB600133AA699A43AA618021090643
:103838000E43D7E70026D5E710B501230022FFF78E
:1038480091FF10BD10B541690369CB18C068181AFB
:10385800FCF78AFD080010BD30B583B005000023D1
:10386800002201A9FFF77EFF002800D001DB03B08A
:1038780030BD440064080023220001A92800FFF796
:1038880071FF002801DB2018F1E70020EFE770B591
:1038980006000D001400FFF7DFFF002800D170BDFF
:1038A80029003000FFF7C8FF206000236B606360C9
:1038B8002368002B03DB20686368C018EFE75B0010
:1038C8005B082360291D3000FFF7B6FF6060F2E750
:1038D80030B585B00C0015006A4602A9FFF7D7FF7E
:1038E800002821D0A84200D92800030008E0013BA5
:1038F800013A0092029A511C029112782270013406
:10390800002B0CD0009A002AF1D108E0013B013AC3
:103918000192039A511C0391127822700134002BF2
:1039280002D0019A002AF1D105B030BD70B5002649
:103938000C4D0D4C641BA410A64209D1002600F0C2
:103948009FFC0A4D0A4C641BA410A64205D170BD09
:10395800B300EB5898470136EEE7B300EB589847A9
:103968000136F2E7284500082845000828450008E0
:103978002C450008002310B59A4200D110BDCC5C3C
:10398800C4540133F8E710B5884202D98B1898421D
:1039980003D3002307E08B5C8354013AFBD210BDAC
:1039A800CC5CC45401339A42FAD1F8E70300821878
:1039B800934200D1704719700133F9E70CB430B560
:1039C800174B0C001D689DB0002908DA8B230120D5
:1039D8002B6040421DB030BC08BC02B0184782239F
:1039E8006A469B009382002302900690994200D079
:1039F8004B1E0493079301236A465B42D382280037
:103A080021AB209A02A9019300F06EF8431C01DA59
:103A18008B232B60002CDDD00023029A1370D9E78A
:103A28000C000020F0B58E6885B007000C000392EA
:103A380001939E423CD890238A89DB001A4234D0F5
:103A48000969236860695B1A029303234343DD0F06
:103A5800ED18019B029801331B186D10AB4200D979
:103A68001D00530532D52900380000F037FB061E2B
:103A780009D10C233B6040230120A2894042134313
:103A8800A38105B0F0BD029A2169FFF773FFA389EE
:103A9800144A1A4080231343A381029B2661F61817
:103AA80026606561019EED1AA560019B9E4200D9C2
:103AB800019E320003992068FFF765FFA368002084
:103AC8009B1BA36023689E192660DAE72A0038004A
:103AD80000F07AFB061EE0D13800216900F092FA66
:103AE800C7E7C0467FFBFFFFF0B5A1B003901D00FC
:103AF8008B890F0016001B0611D50B69002B0ED100
:103B0800402100F0EBFA38603861002805D10C2319
:103B1800039A0138136021B0F0BD40237B61002374
:103B280008AC6361203363761033A37607953500BC
:103B38002B78002B01D0252B47D1AB1B0593B54221
:103B48000CD0320039000398FFF76CFF431C00D1FA
:103B5800AEE06269059B9446634463612B78002B51
:103B680000D1A5E0012200235242626004A9543228
:103B780052186E1C2360E360A3601370A3650522CE
:103B88003178544800F032FA751C00281FD1226899
:103B9800D30604D5532304A95B18202119701307F1
:103BA80004D5532304A95B182B21197033782A2BC9
:103BB80016D0350000210A20E3682A786E1C303AB6
:103BC800092A4ED9002911D117E00135B0E7414B38
:103BD8002268C01A0123834013432E002360CEE7D6
:103BE800079B191D1B680791002B01DB0B9304E051
:103BF8005B42E3600223134323602B782E2B0AD108
:103C08006B782A2B35D1079B02351A1D1B68079242
:103C1800002B2BDB0993304E03223000297800F06B
:103C2800E5F9002806D04023801B8340226801352F
:103C3800134323602978062228486E1C217600F059
:103C4800D5F900283CD0264B002B25D10722079B0D
:103C580007339343083307936369049A9B18636196
:103C680065E74343350001219B18A6E701235B4222
:103C7800D0E700230A201A000135636029786E1CFA
:103C88003039092903D9002BC5D00992C3E742432B
:103C9800350001235218F1E707AB00933A002100E1
:103CA800104B0398AFF300800490049B0133D3D1E9
:103CB800BB890D985B0600D42DE7012040422AE716
:103CC80007AB00933A002100064B039800F07CF8FC
:103CD800EAE7C046F5440008FB440008FF44000832
:103CE800000000002D3A0008F7B5150001938A6816
:103CF8000B690C000090934200DA130022002B603D
:103D080043321278002A01D001332B6023689B06C6
:103D180002D52B6802332B602268062317001F4048
:103D28001A4227D0230043331B785A1E9341226836
:103D3800920630D4220001990098089E4332B04779
:103D4800431C25D0062320682A68E1680025034023
:103D5800042B03D18D1AEB43DB171D40A36822699E
:103D6800934201DD9B1AED180027BD4220D10020A7
:103D780010E00137E3682A689B1ABB42D2DD2200B3
:103D8800012301990098089E1932B047431CF0D1CD
:103D980001204042FEBD3020E11843310870210067
:103DA8005A1C45310978A218433202331170C1E711
:103DB8002200012301990098089E1A32B047431C3B
:103DC800E6D00137D1E70000F0B58BB006920A00C3
:103DD80043320793059004920A7E0C00109B782AC0
:103DE80007D8622A09D8002A00D1C1E0582A00D190
:103DF8008CE026004236327022E010006338152825
:103E0800F7D8FCF721FA16001F00F6FFF6FFF6FFB9
:103E1800F6FF1F00F6FFF6FFF6FFF6FFA8003600D4
:103E28009A00F6FFF6FFB900F6FF3600F6FFF6FF38
:103E38009E0026001A684236111D196013683370F7
:103E48000123A7E0086819680A1D05060BD50D6847
:103E58001A60002D03DA2D23049A6D421370614B0A
:103E68000A2703931BE00D681A604106F1D52DB2AD
:103E7800EFE70D681968081D18602E0601D50D6852
:103E880003E06D06FBD50D68ADB2564B08270393CA
:103E98006F2A00D002372300002243331A70636868
:103EA800A360002B03DB0422216891432160002DCD
:103EB80002D1049E002B0CD0049E28003900FCF788
:103EC80053FA039B013E5B5C33702B0005009F4255
:103ED800F3D9082F09D12368DB0706D5636822695F
:103EE800934202DC3023013E3370049B9B1B236109
:103EF800079B210000930598069B09AAFFF7F4FE8B
:103F0800431C4CD1012040420BB0F0BD45310A7032
:103F1800344A03921A68216820CA1A60080616D51E
:103F2800CB0702D52023194321601027002DB2D1D9
:103F3800202322689A432260ADE7202209680A43B9
:103F480022602200782145321170274AE1E74806AD
:103F5800E6D5ADB2E4E71A680D68101D4969186026
:103F680013682E0601D5196002E06D06FBD519808D
:103F78000023049E2361BBE71A68111D19601668A7
:103F880000213000626800F031F8002801D0801B61
:103F98006060636823610023049A1370A8E72369AB
:103FA800320006990598079DA847431CAAD02368A4
:103FB8009B0715D4099BE0689842A5DA1800A3E787
:103FC8002200012306990598079E1932B047431C21
:103FD80098D00135E368099A9B1AAB42F0DCE9E70F
:103FE8000025F7E70645000817450008C9B28218FA
:103FF800904201D10020704703788B42FBD00130FA
:10400800F6E7000070B50500002910D00C1F2368E2
:10401800002B00DAE418280000F018F91D4A13688C
:10402800002B05D163601460280000F017F970BDFB
:10403800A34208D9216860188342F3D118685B68E5
:1040480041182160EEE71A005B68002B01D0A342FB
:10405800F9D911685018A0420BD1206809185018D6
:1040680011608342E0D118685B68411811605360A1
:10407800DAE7A04202D90C232B60D5E72168601843
:10408800834203D118685B684118216063605460FB
:10409800CAE7C046A031002070B50F4E0D00316848
:1040A8000400002902D100F0BFF830602900200088
:1040B80000F0BAF8431C0AD00323C51C9D43A8424C
:1040C80007D0291A200000F0AFF8431C01D10125C0
:1040D8006D42280070BDC046A4310020F7B5032208
:1040E800CB1C9343083306001F000C2B32D20C273D
:1040F800B94231D8300000F0A9F8324D2B681C00C5
:10410800002C2ED139003000FFF7C6FF0400431CF5
:104118001ED12C682500002D4AD123682900E318F8
:104128003000019300F080F8019B834243D123685B
:104138000337FF1A03239F4308370C2F00D20C279D
:1041480039003000FFF7A8FF431C34D02368DF197B
:10415800276013E0002BCBDA0C23002533602800FE
:10416800FEBD2268D11B20D40B2917D9E21927607C
:10417800A34211D12A6063681160536030002500A2
:1041880000F06CF807220B35231D9543EA1A9D426F
:10419800E5D05B1BA350E2E75A60ECE76268A342F4
:1041A80001D12A60EAE75A60E8E723006468A7E7D4
:1041B8002C006D68AFE70C233000336000F04EF838
:1041C800CDE7C046A0310020F7B507000E00140067
:1041D800002905D11100FFF781FF05002800FEBD69
:1041E800002A03D1FFF70EFF2500F7E700F03EF89D
:1041F8000190844203D835004308A342EED321003E
:104208003800FFF76BFF051EE8D0019B22009C4297
:1042180000D91A0031002800FFF7ACFB3100380044
:10422800FFF7F0FEDAE70000002370B5064D040042
:1042380008002B60FCF7A6F9431C03D12B68002B60
:1042480000D0236070BDC046A831002010B50248D8
:1042580000F014F810BDC046AC31002010B502487B
:1042680000F00DF810BDC046AC3100200B1F1B68D4
:10427800181F002B01DA0B58C01870477047704799
:10428800F8B5C046F8BC08BC9E467047F8B5C046AD
:08429800F8BC08BC9E4670470B
:1042A000010001000000000000000000000000000C
:1042B000520000000000000020307800206520003F
:1042C0002073200020552000202020203E3E3E204C
:1042D000696E76207C200000202020203E3E3E207B
:1042E000626D73207C20000020444100204E490074
:1042F000204C4F0052657365740A0000696E762089
:104300003E3E3E20202020207C200000626D732055
:104310003E3E3E20202020207C200000554152546B
:10432000203E3E200000000055415254203C3C20DD
:104330000000000063617573652037310A000000DA
:1043400063617573652037320A000000636175731D
:10435000652037330A0000006361757365203734C8
:104360000A00000063617573652037350A0000009C
:1043700063617573652037360A00000063617573E9
:10438000652037370A000000636175736520310AC4
:1043900000000000636175736520340A00000000AE
:1043A000636175736520330A0000000063617573F3
:1043B0006520380A00000000636175736520350AC6
:1043C00000000000636175736520360A000000007C
:1043D000636175736520370A00000000554152542F
:1043E0002054494D454F55540A0000007631364758
:1043F000443C202564577C25733A25642025640AB3
:104400000000000076313647443E202564577C2565
:10441000733A25642025640A00000000484F555374
:10442000453C202564570A00484F5553453E2025FA
:1044300064570A004241543C2025645700000000A4
:104440004241543E20256457000000002025752578
:1044500025202564410A0000202575252520256496
:10446000412046257525250A0000000050562025CC
:10447000755620256457257325730A0050100008CF
:10448000D60F00088C0F00085010000850100008CC
:10449000501000083A100008501000082D2D0000A0
:1044A00053550000424B0000462D000046430000DB
:1044B000464400009C440008A0440008A4440008AE
:1044C000A8440008AC440008B0440008AA550909F3
:1044D0002400003501000000AA5507011017010053
:1044E000AA5509091C03003001000000AA5509095A
:1044F0001C00002D01232D302B2000686C4C006522
:1045000066674546470030313233343536373839FF
:104510004142434445460030313233343536373832
:08452000396162636465660005
:044528002102000864
:04452C00F901000889
:10453000FFFFFFFFFFFFFFFF0024F400100000203B
:10454000000000000000000000000000000000006B
:10455000000000000000000000000000000000005B
:10456000000000000000000000000000000000004B
:10457000000000000000000000000000000000003B
:10458000000000000000000000000000000000002B
:10459000000000000000000000000000000000001B
:0400000508001A7560
:00000001FF
