:020000040800F2
:1000000000000820F9240008C52F0008C52F0008AB
:10001000C52F0008C52F0008C52F000800000000EC
:10002000000000000000000000000000C52F0008D4
:10003000C52F000800000000C52F0008C92F0008C8
:10004000C52F0008C52F0008C52F0008C52F0008C0
:10005000C52F0008C52F0008C52F0008C52F0008B0
:10006000C52F0008C52F0008C52F0008C52F0008A0
:10007000C52F0008C52F0008C52F0008C52F000890
:10008000C52F0008C52F0008C52F0008C52F000880
:100090000929000819290008C52F0008C52F0008E4
:1000A000C52F0008C52F0008C52F0008C52F000860
:1000B000C52F0008C52F0008C52F0008C52F000850
:1000C000C52F00081D0D0008B10D0008C52F000840
:1000D000C52F0008C52F0008C52F0008C52F000830
:1000E000C52F0008C52F0008C52F0008C52F000820
:1000F000C52F0008C52F0008C52F0008C52F000810
:10010000C52F0008C52F0008C52F0008C52F0008FF
:10011000C52F0008C52F0008C52F0008C52F0008EF
:10012000C52F0008C52F0008C52F0008C52F0008DF
:10013000C52F0008C52F0008C52F0008C52F0008CF
:10014000C52F0008C52F0008C52F0008C52F0008BF
:10015000C52F0008C52F0008C52F0008C52F0008AF
:10016000C52F0008C52F0008C52F0008C52F00089F
:10017000C52F0008C52F0008C52F0008000000008B
:10018000C52F0008C52F0008C52F0008C52F00087F
:10019000C52F0008C52F0008C52F0008C52F00086F
:1001A000C52F0008C52F0008C52F0008C52F00085F
:1001B000C52F0008C52F0008C52F00081D0D000819
:1001C000B10D0008C52F000800000000C52F000871
:1001D000C52F0008C52F0008C52F0008C52F00082F
:1001E000C52F00082929000839290008C52F000853
:0801F000C52F0008C52F00080F
:1001F80010B5064C2378002B07D1054B002B02D0F5
:100208000448AFF300800123237010BD7000002064
:1002180000000000F04B0008044B10B5002B03D081
:1002280003490448AFF3008010BDC0460000000039
:1002380074000020F04B00080023C25C0133002A40
:10024800FBD1581E7047000003B4714649084000AE
:100258004900095E49008E4403BC704700224308E8
:100268008B4274D303098B425FD3030A8B4244D376
:10027800030B8B4228D3030C8B420DD3FF220902B8
:1002880012BA030C8B4202D31212090265D0030B77
:100298008B4219D300E0090AC30B8B4201D3CB036D
:1002A800C01A5241830B8B4201D38B03C01A5241AF
:1002B800430B8B4201D34B03C01A5241030B8B42B1
:1002C80001D30B03C01A5241C30A8B4201D3CB029C
:1002D800C01A5241830A8B4201D38B02C01A524181
:1002E800430A8B4201D34B02C01A5241030A8B4284
:1002F80001D30B02C01A5241CDD2C3098B4201D39C
:10030800CB01C01A524183098B4201D38B01C01A19
:10031800524143098B4201D34B01C01A5241030990
:100328008B4201D30B01C01A5241C3088B4201D33F
:10033800CB00C01A524183088B4201D38B00C01AEC
:10034800524143088B4201D34B00C01A5241411A13
:1003580000D20146524110467047FFE701B5002020
:1003680000F0F0F802BDC0460029F7D076E77047E4
:1003780003460B437FD4002243088B4274D30309FE
:100388008B425FD3030A8B4244D3030B8B4228D39F
:10039800030C8B420DD3FF22090212BA030C8B42C5
:1003A80002D31212090265D0030B8B4219D300E065
:1003B800090AC30B8B4201D3CB03C01A5241830BEA
:1003C8008B4201D38B03C01A5241430B8B4201D39A
:1003D8004B03C01A5241030B8B4201D30B03C01AC3
:1003E8005241C30A8B4201D3CB02C01A5241830A3D
:1003F8008B4201D38B02C01A5241430A8B4201D36C
:100408004B02C01A5241030A8B4201D30B02C01A95
:100418005241CDD2C3098B4201D3CB01C01A5241FC
:1004280083098B4201D38B01C01A524143098B4285
:1004380001D34B01C01A524103098B4201D30B016E
:10044800C01A5241C3088B4201D3CB00C01A524193
:1004580083088B4201D38B00C01A524143088B4258
:1004680001D34B00C01A5241411A00D201465241F1
:10047800104670475DE0CA0F00D04942031000D310
:100488004042534000229C4603098B422DD3030A65
:100498008B4212D3FC22890112BA030A8B420CD375
:1004A800890192118B4208D3890192118B4204D39E
:1004B80089013AD0921100E08909C3098B4201D31E
:1004C800CB01C01A524183098B4201D38B01C01A58
:1004D800524143098B4201D34B01C01A52410309CF
:1004E8008B4201D30B01C01A5241C3088B4201D37E
:1004F800CB00C01A524183088B4201D38B00C01A2B
:100508005241D9D243088B4201D34B00C01A524101
:10051800411A00D20146634652415B10104601D38E
:100528004042002B00D54942704763465B1000D318
:10053800404201B5002000F005F802BD0029F8D0BE
:1005480016E770477047C0461C2101231B049842D8
:1005580001D3000C10391B0A984201D3000A08394C
:100568001B09984201D30009043902A2105C401803
:100578007047C046040302020101010100000000A7
:10058800000000007047000010B50400034802F0A6
:100598001FFD200002F046FD10BDC0460048004087
:1005A80070B504000D00044802F012FD2900200077
:1005B80002F014FD70BDC0460048004070B504004C
:1005C8000D00044802F004FD2900200002F03BFD64
:1005D80070BDC0460048004070B582B0019115005A
:1005E8001E00FFF7D1FF1B48FFF7CEFF019C210E2D
:1005F800230AFF221202134019432302FF22120486
:10060800134019432406214301910B2D11D01D2DB0
:1006180017D1042101A8FFF7D1FF0F48FFF7B4FF56
:1006280006993000FFF7CAFF0C48FFF7ADFF02B08C
:1006380070BD022101A8FFF7C1FF0948FFF7A4FF19
:10064800EEE7042101A8FFF7B9FF0648FFF79CFF72
:10065800E6E7C046144C0008184C0008944E000801
:100668001C4C0008204C0008F0B583B004000D00B5
:1006780016001F00009313000A0001000548FFF749
:10068800ABFF009733002A002100034801F0D2FF96
:1006980003B0F0BD244C000800640040F0B583B0FE
:1006A80004000D0016001F00009313000A0001004B
:1006B8000548FFF791FF009733002A0021000348FF
:1006C80001F0B8FF03B0F0BD344C0008003400401E
:1006D80010B5074C21000C311822200003F0E8FD6A
:1006E800200018300C22002103F0F5FD10BDC04693
:1006F800E0010020002000E0013043001B189A00B0
:10070800044B9B185B68002B01D00228F4D9032303
:10071800181A7047E001002070B5002400E0013489
:1007280063001B199B00094DEB185B68002B01D077
:10073800022CF4D9022C07D8044D63001E19B60008
:100748007051A8194160826070BDC046E001002068
:1007580010B560220021024803F0BDFD10BDC0465F
:100768004C010020F8B50500002301E00133DBB29D
:10077800072B25D81C005A00D21892002348125C77
:10078800D207F3D55A00D218920012585208AA423A
:10079800ECD107005E00F0188000381804300822F9
:1007A80003F086FD33199B0068000125DA591540CE
:1007B8000543DD511E00DB5D01221343F35523E0A1
:1007C8000023072B20D81C005A00D21892000F488B
:1007D800125CD20702D50133DBB2F2E707005E00F4
:1007E800F018800038180430082203F061FD33192E
:1007F8009B006D000120DA5910400543DD511E00B1
:10080800DB5D01221343F355F8BDC0464C010020BF
:1008180010B5040002000021012003F075FA22003F
:100828000E21032003F070FA014A2923D45410BD85
:10083800B001002010B5040002000721012003F0D8
:1008480063FA22000F21032003F05EFA014A2A23EB
:10085800D45410BDB001002010B50400064B186038
:1008680002000E21012003F04FFA22000C2105207E
:1008780003F04AFA10BDC04690000020014B002248
:100888001A60704720010020F8B5DE4657464E46EC
:100898004546E0B5DD4B1B68002B04D10022DC493E
:1008A8000A60DC490A605A1CD8490A60DA49486A71
:1008B800DA49C854012A08D0022A00D1E0E1F0BC84
:1008C800BB46B246A946A046F8BD0B780F2BF6D812
:1008D8009B00D34AD3589F46D24B1C68452CEED870
:1008E800CB4B00221A600121196002321A60CB4AF0
:1008F800517002311960CC49887B907004201860CF
:10090800CA480078D0701825485F05251D60051273
:10091800157106251D6050711625485F07251D6055
:100928000512957108251D60D071088901351D6073
:10093800050A15720A251D605072488901351D6027
:10094800050A95720C251D60D0720C20095E0D20D9
:100958001860081210730E2018605173B44B99690F
:10096800002900D159690812A94A0F231360AB4B1B
:10097800987310201060D973AD48018A112515604D
:100988000D0A1D741225156059741C25415F132525
:1009980015600D129D7414251560D9741E25415FCC
:1009A800152515600D121D75162515605975A14977
:1009B80009680D12172616609D7518251560D975DA
:1009C800192111601C760131116097494C7C5C76C5
:1009D8000C8803351560250A9D761C251560DC7684
:1009E8004C8801351560250A1D771E2515605C7732
:1009F8001C254C5F1F25156025129D772025156045
:100A0800DC774E8C21241460370A5F550235AA46DC
:100A180015601E55023414602427CE5D5E5517609C
:100A280025268D5D1D55166003340D5DDD5514605A
:100A38000337CD5D9D55176004368D5D1D55023415
:100A4800A44614600234A1460D5DDD5520240F5FD5
:100A580016603D12A846654644465C554C461460EF
:100A68009F551E254C5FA4462B27176026124C461F
:100A78001E550234A34614606446DC556E4C256846
:100A88002D0E5E469D5525682D0CAC462D256646D7
:100A98005E5525682D0AAC462E2566465E552468A7
:100AA800A4462F2465461D550134A44614601A2512
:100AB8004C5FA0463124146045462D12A946654670
:100AC8004E465E550235AC46156045461D555B4C95
:100AD8002468A04633241460654646465E55584D42
:100AE8002D68A8463425AC46156045461D55554C1D
:100AF8002468A04635241460654646465E5502358E
:100B0800AC461560CF5D1F55023414605D46495DE3
:100B180065465955382111605246825C1A5519703C
:100B2800CDE64948FFF730FDFFF7E4FD012800D87E
:100B3800C5E6072209214548FFF7EEFD07220921EE
:100B48004348FFF7E9FDBAE64248FFF71DFDFFF706
:100B5800D1FD012800D8B2E6072209213B48FFF75A
:100B6800DBFD072209213C48FFF7D6FDA7E63B48F5
:100B7800FFF70AFD324B00221A600120FFF76CFED6
:100B88009DE63748FFF700FD2D4B01221A6096E6D7
:100B98003448FFF7F9FC2A4B00221A600020FFF7BF
:100BA8005BFE8CE63048FFF7EFFC244B00221A600E
:100BB800FFF7A0FD012800D881E6072209212B486C
:100BC800FFF7AAFD072209212948FFF7A5FD174BC2
:100BD80003221A7073E62748FFF7D6FC174B00224A
:100BE8001A60FFF787FD002800D168E6072209216F
:100BF8002148FFF791FD0D4B01221A705FE61F484F
:100C0800FFF7C2FC0D4B01221A6058E620010020B4
:100C1800180100201C0100200060004098000020FE
:100C2800044D00088C000020B0010020DE010020E7
:100C3800240100200000002030420020AC010020E8
:100C48009400002090000020444C00083C5200080A
:100C580054520008584C000848520008704C0008CC
:100C6800844C0008A04C0008B44C00087C520008D2
:100C780060520008D84C000888520008F04C000860
:100C88000D4B1B78112B0AD0122B0ED0102B00D035
:100C980015E6094B5978094A2B23D1540FE6064B20
:100CA8005978064A2C23D15409E6034B5978044A4B
:100CB8002223D15403E6C04698000020B00100204A
:100CC80024010020084B1B68084A1268934207D287
:100CD800591C054A1160064AD25C064B9A62704755
:100CE800044BAA229A62FAE71C010020180100208E
:100CF80098000020006000400023034A1360034A64
:100D08001360034A13607047200100201801002077
:100D18001C01002010B5234B9B691B070FD5214BE5
:100D28009B695B0C5B00FF221340442B1AD01D4AC1
:100D3800D36908210B43D361FFF7DEFF10BD194BC0
:100D48009B69DB0616D4174B9B695B0718D4154BB8
:100D58009B699B0717D4134B9B699B0616D4114BB1
:100D68009B69EBE7FFF78AFD0E4AD36908210B431D
:100D7800D361E3E70B4AD36910210B43D361DDE765
:100D8800FFF782FDDAE7FFF79DFFD7E7054BDA6942
:100D980020210A43DA619B69DB07CFD4014B01228A
:100DA8009A61CBE70060004010B5FFF7A5FF10BDC2
:100DB80030B583B0C04A116B202319431163126BFD
:100DC80013400193019BBD4B1C681F218020C0016B
:100DD80080239B0105E0400001221A40104301399D
:100DE8005B08002BF7D18840FFF7AEFBFF231840C4
:100DF8004000FC3B83409C431F218020C00180238E
:100E08009B0105E0400001221A40104301395B08AC
:100E1800002BF7D18840FFF797FBFF2318404000CD
:100E2800FD3B83401C43A54B1C605C6A1F2140208E
:100E3800202305E0400001221A40104301395B08D5
:100E4800002BF7D18840FFF77FFBFF231840800075
:100E5800F03B83409C431F214020202305E04000B5
:100E680001221A40104301395B08002BF7D1884052
:100E7800FFF76AFBFF2318408000FB3B83401C43BD
:100E88008E4B5C629C681F218020C00180239B01DF
:100E980005E0400001221A40104301395B08002B8D
:100EA800F7D18840FFF750FBFF2318404000FC3B78
:100EB80083409C431F218020C00180239B0105E0C3
:100EC800400001221A40104301395B08002BF7D17A
:100ED8008840FFF739FBFF2318404000FD3B834063
:100EE8001C43764A9460536875490B408020C001C2
:100EF80003435360D4681F2180239B0105E0400011
:100F080001221A40104301395B08002BF7D18840B1
:100F1800FFF71AFBFF2318404000FC3B83409C432B
:100F28001F218020C00180239B0105E04000012291
:100F38001A40104301395B08002BF7D18840FFF7AE
:100F480003FBFF2318404000FE3B83401C435B4BE0
:100F5800DC601C681F21802000028023DB0105E083
:100F6800400001221A40104301395B08002BF7D1D9
:100F78008840FFF7E9FAFF2318404000FC3B834014
:100F88009C431F21802000028023DB0105E04000F4
:100F980001221A40104301395B08002BF7D1884021
:100FA800FFF7D2FAFF2318404000FD3B83401C4363
:100FB800424B1C605C6A1F218020402305E04000F2
:100FC80001221A40104301395B08002BF7D18840F1
:100FD800FFF7BAFAFF2318408000F03B83409C4398
:100FE8001F218020402305E0400001221A401043C1
:100FF80001395B08002BF7D18840FFF7A5FAFF23DA
:1010080018408000FB3B83401C432C4B5C629C686F
:101018001F21802000028023DB0105E0400001221F
:101028001A40104301395B08002BF7D18840FFF7BD
:101038008BFAFF2318404000FC3B83409C431F2150
:10104800802000028023DB0105E0400001221A40D5
:10105800104301395B08002BF7D18840FFF774FA79
:10106800FF2318404000FD3B83401C43134A946013
:10107800536814490B408020000203435360D4682E
:101088001F218023DB0105E0400001221A401043A4
:1010980001395B08002BF7D18840FFF755FAFF2389
:1010A80018404000FC3B83409C431F2180200002E5
:1010B8008023DB010EE0C0460038024000140240E5
:1010C800FFBFFFFFFF7FFFFF400001221A401043D0
:1010D80001395B08002BF7D18840FFF735FAFF2369
:1010E80003405B00012002009A401443264BDC6059
:1010F800264B196C80246404214319641A6C22401D
:101108000092009A90241A59214911408022D20352
:101118000A431A511F4900231F4A8B54802424066E
:101128008C6001328B54C8601C4B1A6882431A6069
:101138001B4A1A619A68D20AD20244252A439A6045
:101148009D68802212022A439A601A6802431A6034
:101158001A6808252A431A601A6808352A431A604B
:101168001A6870352A431A601A68603D2A431A6063
:101178001A681C3D2A431A601A68023D2A431A60FD
:101188008C60C86003B030BD0014024000380240D3
:10119800FFFF3FFF00E100E05F0300000060004048
:1011A80005011000F0B5DE4657464E464546E0B507
:1011B800B9B0D44C2E220021200003F08CF8D24F75
:1011C80028220021380003F086F824220021CF4885
:1011D80003F081F8FFF7BCFA0125CD4B1D60CD4B1C
:1011E8001D600026CC4B1E602B231922E2540133CC
:1011F8000632E2540A3B4232FA54C84CA368F0273C
:10120800BB43A360A368C64A1340A360A368C54A4A
:101218001340A360C44802F02DFEC44BC44A5A6070
:10122800C44923228F549E601C3A1A60236B2B43B7
:101238002363236B2B402093209B226B02231A43AA
:101248002263226B13401F931F9B226B04231A43B4
:101258002263226B13401E931E9B226B08231A43A2
:101268002263226B13401D931D9B226B10231A438C
:101278002263226B13401C931C9B226B20231A436E
:101288002263226B13401B931B9B0120FFF7C0FABC
:101298000120FFF7CFFAE120000301F0F5FEE12677
:1012A8007602300002F010FBA34F380001F0B0FBCB
:1012B800380001F00FFD9620800102F0E5F89F4804
:1012C80001F086FE07219E4801F088FEFA2002F010
:1012D800BDFD300002F0D8F8072209219948FFF730
:1012E8001BFA994B1D70FFF763FD80263601974B5B
:1012F800320097492FA802F0C3FD964B3200964959
:1013080028A802F0BDFD8422944BD200944921A85C
:1013180002F0B6FD9348FFF737F90823924A1D21DA
:101328009248FFF7BBF9924B1A6892498C4662447F
:101338000B921A689049884690441A688B469344E1
:101348001F68FA239B009C466744636F1D436567CB
:10135800724B5B6F9B07FBD5884B894A1A60894A99
:101368001A6000225A60884A9A60844BDB68072218
:10137800110019401A42F8D10C91804B834A1A6027
:1013880013910D91129189460F910E91109100269B
:1013980000231C004546A9E37D48FFF7F5F8BFF395
:1013A8004F8F6449CB68E022D2001A40794B13432F
:1013B800CB60BFF34F8FC046FDE76D4B1D686E4B8A
:1013C8009C4665448023DB000093734B36AA37A9FB
:1013D800724801F0C7FA8046644B379A9A424AD05D
:1013E800434600936C4B369A37996D48FFF7F4F8EB
:1013F800369B002B00D18DE35C4B379A9A4200D084
:1014080088E3654B1B78012B00D083E3584B1A689F
:10141800120E10A9282009180A701A68120C10A9AF
:10142800013009180A701A68120A10A9013009183F
:101438000A701B6810AA2B21521813705948FFF71D
:10144800A3F804211AA8FFF7B9F84448FFF79CF855
:10145800514B9A782B4B1A74002F05D1444B1F68B7
:10146800FA239B009C46674443464B4A3699379873
:10147800FFF714F94EE34C48FFF786F8B0E74B48FE
:10148800FFF782F8002701E00137FFB2072F12D8D3
:101498007B00DB199B00464A9B5CDB07F4D57B008D
:1014A800D9198900885840085218043208231D2188
:1014B800FFF7DAF8E8E70C9F33E3374F8023DB00C8
:1014C80000933B0036AA37A93A4801F04BFA11902D
:1014D80000903B00369A37993748FFF77DF800238C
:1014E8003B74234B1B68244A93469B44379B334ADF
:1014F80094466344072B00D98EE19B00304AD358A9
:101508009F46C046B001002024010020E0010020D1
:10151800AC01002094000020900000200038024018
:10152800FFE3FFFFFF1FFFFF0024F40010E000E0CF
:101538007F3E000000ED00E020A107000010014000
:101548006C52000888520008DE010020E8510008AB
:101558000C320020504D00080C2A0020944E000840
:101568000C3A0020544D0008084C0008711800007F
:10157800304200201027000020BF02000030004049
:10158800CCCC000055550000EE0F0000AAAA0000C0
:101598005C4D00080400FA05303E0020006400405D
:1015A800844D0008944D00087C4D0008B04D00089B
:1015B8004C01002000340040C44D00088FE7FFFFB5
:1015C8001C520008E54B98465B781B02424612788D
:1015D80019001143E24B9A4619804346DF783F02CF
:1015E8003FB29B781F4353461F8143465B791B02DA
:1015F80042461279134352461593138214910800F8
:1016080078436421FEF7B4FE51461690486141467E
:10161800CB791B028A791900114388460A2114984C
:10162800FEF71CFE81B28A4664214046FEF79CFE06
:10163800069164214046FEF711FE0590159B049320
:10164800169A03920A213800FEF778FF09B2029130
:101658000A213800FEF78CFE00B201900A21149886
:10166800FEF782FE89B200915346BE4AFC218900EA
:10167800BD4802F039FEBD4B1B68002B00DAC0E004
:10168800BB48FEF781FFB54BB84A12681A710022B1
:101698005A71B6E0B14F7B791B021BB23A791343FA
:1016A8001493FB791B021BB2BA7913439A467B78D1
:1016B8001B021BB23A78134398460A211800FEF71A
:1016C80057FE02B215920A214046FEF737FF0AB2CA
:1016D8001692FB781B021BB2BF781F430A21380001
:1016E800FEF746FE02B217920A213800FEF726FFDF
:1016F8000AB218920A21149F3800FEF739FE02B286
:1017080019920A213800FEF719FF0BB298460A21F0
:101718005046FEF72DFE07B20A215046FEF70EFF8F
:101728000BB25246002A2FDD924AFC2107920693FB
:10173800059743460493199B0393189B0293179BA1
:101748000193169B0093159B8B4A8900864802F0EB
:10175800CBFD5346002B1FDD814B149A9A835246CA
:10176800DA83864B1B68002B1BDA7D4B1B8A0A2BFE
:1017780021D97B4B1A8A22215B5C9A4241D3774B51
:1017880000221A715A713CE0754A128A092A01D856
:10179800784ACAE77A4AC8E7714B1B8A092B3BD8B3
:1017A800DAE77848FEF7F0FE744B1B686B4A137152
:1017B8001B125371D9E77448FEF7E6FE674B002207
:1017C8009A71DA71D5E765490B789A464F78C878E7
:1017D80000028B789C46CA7912028B791A4312044C
:1017E8004B791B0209790B43FC211A430292634689
:1017F8001843019000975346644A89005A4802F0FA
:1018080073FD564F39003798FEF7ACFF119B3A002D
:1018180036993798FEF728FF5348FEF7B5FE0C9F18
:1018280085E14E4BDA78120299780A434C491492B2
:101838000A8418792322159088545F79BA460132B0
:101848008F54DA791202987917000743B846CF8483
:101858005F783F023FB21B781F430A213800FEF72A
:1018680087FD03B21693414604915146039115989A
:101878000290149A01920A213800FEF75FFE09B21D
:101888000091169B424AFC218900374802F02CFD42
:10189800B7E7324F7B781B023A781343FC213D4A65
:1018A8008900314802F020FD83233B710023FB713E
:1018B800BB717B7108331193A3E7284B5A78120246
:1018C80012B219780A431000DF783F023FB29A78C3
:1018D80017435A79120212B219790A439046DA79F3
:1018E800120212B29B791A4392460A211190FEF70E
:1018F8003FFD03B214930A215046FEF71FFE09B2BA
:1019080006910A215046FEF733FD00B205900A21E0
:101918004046FEF713FE09B204910A214046FEF73D
:1019280027FD00B203900A213800FEF707FE09B22E
:1019380002910A213800FEF71BFD00B201900A212E
:101948001198FEF7FBFD09B20091149B124AFC2185
:101958008900054802F0C8FC5EE7C046303E00201A
:1019680024010020D44D0008403E0020040000203F
:101978001C4E0008E85100082C4E0008000000200A
:10198800444D0008784E00088C4E0008984E000818
:10199800D84E0008244F0008444F0008D84B597807
:1019A80009021878DF783F023FB29A7817435A79CC
:1019B800120292461A791192DA79120212B29B79BE
:1019C8001A439046014314910A211000FEF7B6FD10
:1019D80009B204910A214046FEF7CAFC00B20390FE
:1019E8005346119A134302930A213800FEF7A6FDC5
:1019F80009B201910A213800FEF7BAFC00B2009042
:101A0800149BC04AFC218900BF4802F06DFC03E723
:101A180021A802F03FFB002800D0B5E0109A002A68
:101A280003D0BA4B1B689B1A1AD428A802F056FA9E
:101A3800B748FEF7A9FDB74801F0CAFA0421B6482D
:101A480001F0CCFAB14B1B68FA2292009446634429
:101A580010930124AD4B1B68B04A944663440E931F
:101A68004B46002B05D0A94B1B684A469B1A00D44D
:101A780015E10D9A002A04D0A44B1B689B1A00D4C8
:101A88001CE1A74B5B6880210901C91A2FA802F045
:101A980009FA022E00D172E100D91EE1002E00D110
:101AA80028E1012E1BD12FA802F018FA9D48FEF755
:101AB8006BFD9D4E71683068FEF780FD9B48FEF710
:101AC80063FD9B4801F084FA3068716801F086FA7A
:101AD8008E4B1B68914A944663440F9302268B4BA6
:101AE8001B680B9A9B1A01D40C9B0B93914B924A3F
:101AF8001A60864B1B685B1B00D44DE4834B1B6844
:101B08005A469B1A00D447E48C4800F019FF002875
:101B180000D052E4002F04D07C4B1B68DB1B00D4A0
:101B2800ADE4874800F00CFF002800D0C5E4854BE1
:101B38005B688421C900C91A21A802F0B3F9824B55
:101B48005B6880210901C91A28A802F0ABF9002CAA
:101B580000D15DE7631EDBB2012B00D980E728A81E
:101B680002F098FA00282ED10E9A002A00D177E7C1
:101B7800664B1B689B1A00D572E7744B00229A616A
:101B88000C9B109300246BE780225D4B9846D20093
:101B9800190021A802F094FA04006D48FEF7F4FC3D
:101BA80021004046FEF7FCFC5A4801F011FA2100DA
:101BB800404601F013FA28A802F04CFB21A802F0D5
:101BC80090F9022446E780224D4B9A46D20019002C
:101BD80028A802F075FA80465E48FEF7D5FC414613
:101BE8005046FEF7DDFC012C0FD028A802F032FB8E
:101BF8005949434802F0ACFB002802D00C9B1093D3
:101C0800002428A802F06DF9AEE728A802F022FB0C
:101C1800431C03D128A802F064F9A5E74B4C606087
:101C280028A802F01CFB8246E060626890466421A6
:101C38001000FEF79DFB53460E9358433749FEF7B5
:101C480097FBA06180212E4A924601900E9B00933B
:101C58004346424AC900504602F046FB5046FEF74A
:101C680093FCE368002B09DB002B14DD374B9B69E1
:101C7800002B07DB0C9B0E930024CBE7334A9269B9
:101C8800002AF1DD3648FEF77FFC00242F4B9C61CB
:101C98000C9B0E93BEE70C9B0E930024BAE7012021
:101CA800FEF7B6FD2F48FEF76FFC184B1B682E4A4F
:101CB8009446634412930C9B9946DAE60120FEF79A
:101CC800B9FD2A48FEF760FC104B1B68264A94466B
:101CD800634413930C9B0D93D3E6F31EDBB2012BE5
:101CE80000D9FCE6094B1B680F9A9B1A00D5D3E371
:101CF8000026F4E6FEF7FEFC032839D00126EEE6BE
:101D0800303E0020984F0008403E0020304200201E
:101D1800E44F000800140140F44F000810270000A9
:101D28004064024088500008E0010020944E0008FA
:101D38000010014000300040AAAA000000640040E2
:101D4800003400402860024028640240240100203A
:101D5800D44F0008FC4F00086450000808500008E1
:101D68003850000868500008B80B00007850000888
:101D7800624A07216248FEF7CFFC0126AFE62FA88A
:101D880002F04DF95F4B9A68904236D2FEF7B2FCEA
:101D9800032800D1A3E65C4B1B680F9A9B1A00D559
:101DA8009DE65A48FEF7F0FB574B1B68FA22920053
:101DB800944663440F932FA802F083F8FEF788FC3B
:101DC800534B00221A6001235B42524A1360524A65
:101DD80013609620800101F057FB504801F0F8F895
:101DE80007214F4801F0FAF8FA2002F02FF8E12015
:101DF800400201F049FB032671E64A492FA802F088
:101E080018F91A903F4B9B68984258D34648FEF7FA
:101E1800BBFB3C4B9968434E3000FEF7CFFB434871
:101E2800FEF7B2FB3378AA2B04D13E4B5B78552BD7
:101E380000D189E03E48FEF7A7FB3E4E30000E3049
:101E48000121FEF7BBFB3C48FEF79EFB30000F303C
:101E58000121FEF7B3FB3548FEF796FBF37B042B15
:101E680022D9364B1B8A33492C228A5C93420CD2E6
:101E7800324A1C20115E1E20125E914205DB2F495A
:101E880022228A5C934200D2D2E22D4B1B68002B9F
:101E98000AD0284B9B7B042B06D0032B04D0072B9E
:101EA80002D0062B00D0B7E2174B1B68FA2292002B
:101EB800944663440F93FEF70BFC03260FE6214874
:101EC800FEF762FB04211AA8FEF778FB2FA802F0A0
:101ED800A6F81A9004211AA8FEF770FB1348FEF71B
:101EE80053FB2FA801F0EDFF074B1B68F533FF33B9
:101EF8000F93FEF7EDFB0426F1E5C0465F020000F4
:101F080074520008E0010020304200200C52000802
:101F18008C00002000000020040000200010014078
:101F28006C520008303E0020A8500008944E00086B
:101F380084510008B00100209851000824010020B5
:101F48009400002094500008DE4B9B785F2B00D053
:101F580070E7DC4BDB78812B00D06BE7D94B1B7922
:101F6800902B00D066E7D74B997A090209B25A7AC2
:101F78001143D54AD182997B0902587B01430F91BD
:101F88001180197C0902D87B014311915180997CF9
:101F98000902587C014314919180197D0902D87C6B
:101FA80001438A46D180997D0902587D01431591E4
:101FB8001181197E0902D87D014316915181597EFC
:101FC800937B994202D013000022DA73BE4B9973B7
:101FD800DB7BFF2B02D00133BB4AD373B94E2621DA
:101FE800735C1B021BB20139715C0B43B648804617
:101FF80083812820335C1B021BB22721725C1343A8
:10200800424693822A23F35C1B022922B25C1343C3
:10201800424653823823F35C1B023722B25C1343D7
:10202800424653833E23F35C1B023D22B25C1343BA
:10203800424613844023F35C1B023F22B25C1343E5
:102048004246D3834223F35C1B024122B25C134312
:10205800424693834623F35C1B021BB24522B25CC3
:10206800134342461383CB23F35C1354CC23F35C12
:102078005354CD23F35C01395354CE23F35C013917
:102088005354CF23F25CAB3B4146CA54AC33F35CA8
:10209800FA22D200944663444B840A215046FEF744
:1020A80063F989B208910A215046FEF7D7F880B241
:1020B80007900A21119B9A461800FEF755F989B234
:1020C80006910A215046FEF7C9F880B20590169B82
:1020D80004930A21149B9A461800FEF745F989B221
:1020E80003910A215046FEF7B9F880B202900A21FE
:1020F8000F9B9A461800FEF737F989B201910A2119
:102108005046FEF7ABF880B20090159B6F4A8021CD
:10211800C900300002F0E8F83000FEF735FA43460F
:1021280016229B5E9C4642461821525E414620205C
:10213800095E40461A23C05E0290019100926346F0
:10214800634A8021C900300002F0CEF83000FEF763
:102158001BFA43461A885F4B9A4204D85A4B5B884D
:102168005C498B4206D95C4B47221A605B48FEF7F4
:102178000BFAB6E654491620095E002918D1002A40
:1021880016D1002B14D150490C20095E00290FD11B
:102198004D491E20095E00290AD14B491A20095EC3
:1021A800002905D148491820095E002900D182E09C
:1021B800012149424A4801604A48016046490020D5
:1021C8000860D318FA2149008B4200DCF8E0129924
:1021D800814204D0444B1B685B1A834217DBE1231E
:1021E8009B009A4205D3384B1B89013B9BB2172BA6
:1021F8000DD83E48FEF7C8F90020FEF709FB3A4B18
:102208001B68FA22D200914699440C9B1293139AA8
:10221800002A03D0344B1B689B1A1AD42A4B5A88BD
:10222800E1239B009A4205D3274B5B89013B9BB274
:10223800172B0ED82E48FEF7A7F90020FEF7FAFA5A
:10224800294B1B68FA22D200944663440D930C9BD9
:102258001393284B1B8A612B5AD81D2B00D882E078
:102268001E2B00D8E6E51C4B06221A602248FEF712
:102278008BF9FEF73FFA002800D1DBE51F4B1B78EE
:10228800012B00D1D6E50B9B002B00D0D2E51C4BCF
:102298001B68002B00D1CDE5072209211948FEF75C
:1022A8003BFA164B01221A700F4B1B68164A9446CC
:1022B80063440B93BEE5084B4E321A601348FEF791
:1022C80063F90EE6303E0020B0010020B45000084B
:1022D800E8500008701700008C0000201C5100080E
:1022E8000000002004000020304200203451000883
:1022F80044510008240100206C510008DE01002030
:10230800AC0100208852000810270000285100085E
:10231800664B03221A606648FEF736F9654B0022C1
:102328001A60654B1B78012B00D183E5FEF7E2F9B3
:10233800002800D17EE50B9B002B00D07AE55F4B8F
:102348001B68002B00D175E5072209215C48FEF7C0
:10235800E3F9594B01221A705A4B1B685A4A9446A2
:1023680063440B9366E5514B08221A605748FEF701
:102378000BF9FEF7BFF9012800D85BE54E4B1B7837
:10238800032B00D156E50B9B002B00D052E54B4B9D
:102398001B68002B00D14DE5072209214C48FEF7A8
:1023A800BBF9072209214B48FEF7B6F9424B032235
:1023B8001A70444B1B68444A944663440B9339E5AE
:1023C8004B46002B00D035E5384B07221A604248AF
:1023D800FEF7DAF8FEF78EF9002800D12AE5364B29
:1023E8001B78012B00D125E50B9B002B00D021E5A4
:1023F800324B1B68002B00D11CE50722092130480D
:10240800FEF78AF92C4B01221A702E4B1B682E4AB4
:10241800944663440B930DE53048FEF7B5F8012068
:10242800FEF71AFA2E4B0022DA73264B1B683BE59F
:102438002B492B228A5C934210D82A4B1B68002B0D
:1024480000D131E52848FEF79FF80020FEF704FA8E
:10245800234B0022DA731B4B1B6825E5204B9B7B23
:10246800052B03D8032B00D21EE504E0093BDBB2A1
:10247800012B00D918E51B4B1B68002B00D113E575
:102488001A48FEF781F80020FEF7E6F9144B0022FF
:10249800DA730C4B1B6807E5FEF72CF9032801D10A
:1024A800FFF71DFB0026FFF71AFBC0468C00002033
:1024B8005451000800000020DE010020AC0100207B
:1024C80088520008304200201027000060510008A0
:1024D8007C5200086052000878510008A451000896
:1024E800B001002094000020CC510008EC510008F5
:1024F800DFF834D00D480E490E4A002302E0D458C4
:10250800C4500433C4188C42F9D30B4A0B4C002333
:1025180001E013600432A242FBD301F095FC01F004
:10252800A3FE01F08DFC7047000008200000002089
:1025380070000020CC5200087000002044420020A7
:10254800F0B583B006001D00089CC3689B070CD13A
:1025580003690327380018401F4201D0012705E00E
:10256800002A4ED0002313604BE00027002A11D028
:102578003B001B331B019B595B072FD51D201060A7
:10258800002907D03B001B331B019B592022121A3C
:10259800D3400B603B001B331B01F3185A680F2311
:1025A8001340A34206D83B001B331B01F3185B689A
:1025B8000F241C40002D26D008220021684601F077
:1025C8008AFE3B01F3181A00B932FF3212680092F2
:1025D800BD33FF331B68019300220BE00B20CEE7CD
:1025E80093089B0069465B5803211140C900CB4002
:1025F800AB540132A242F3D32000002F05D0012FA3
:1026080008D003B0F0BD0020F7E7F3682022134399
:10261800F360F6E73369202213433361F1E70000E2
:10262800034B984201D0002070470120FCE7C046C8
:1026380000340040F0B585B0060001911F00032169
:1026480000E01900B068E0235B05184219D1B369AE
:10265800FF20184210D0B36836481843B060B468F9
:10266800344D2C40AC42FAD04B1EDBB20029E8D1E5
:102678000520404205B0F0BDB068E0235B05184274
:102688004FD0B3681B0E03241C40032C4CD00B2ADC
:1026980004D01D2A18D003204042EBE7019B5905BE
:1026A800230018331B0199510A9B082B3FD823009C
:1026B80018331B01F3180A9A5A600822002102A84D
:1026C80001F009FE002316E0019BD90004231943F9
:1026D800230018331B019951E6E79908F85C032297
:1026E8001A40D20090408A0002A95158019108432B
:1026F80002A9505001330A9A9342EED32301F318EA
:102708001A008932FF32029911608D33FF33039A20
:102718001A6018342401A35901221343A3510A98BB
:10272800A8E701204042A5E702204042A2E7042092
:1027380040429FE78080800010B5034A002103488B
:1027480001F0C9FD10BDC0460828000004020020A1
:10275800F0B5D6464F464646C0B504000D001600F3
:10276800FFF7EAFF2300C82202E0002204C30A00A0
:10277800511E002AF9D1236801321343236063688C
:10278800DB07FCD5384B9D4206D0384B9D4203D021
:10279800374BE361374BE3612368202213432360FF
:1027A800002E5CD02368103A9343236023680822E4
:1027B8001343236080239B009946E25801231A4360
:1027C8004946625087229200A1589943A15081211D
:1027D80089008C4661589943604621508327BF0081
:1027E800E1599943E1518526B600A1599943A15170
:1027F80000218A469021890050466050043160507B
:10280800A1581943A150A15888460221404688433F
:10281800A05060462058884380466046454625506B
:10282800E0590843E051A7598F43A7513436504621
:10283800A0510436A051A5582943A150626912211C
:102848000A4362614A46A2589A434946625022683E
:102858009A432260E0BCBA46B146A846F0BD236858
:10286800102213432360A1E7A086010040420F0015
:1028780001002B0001001C00F0B5CE46474680B58C
:1028880083B08146FFF7CCFE040083001B181B02AF
:102898001B189B00194A9F58FF2F27D8174E8500F1
:1028A8002D182D022B189B007A1C9A51BB009846B4
:1028B800D91989002B189B00C9180B0008339B19DC
:1028C800043389190A000832043108200090484668
:1028D800FFF736FE4744BF002D19AD007F19F719E1
:1028E800786103B0C0BCB946B046F0BD0023009380
:1028F800002200214846FFF723FEF2E704020020E9
:1029080010B50248FFF7B8FF10BDC046006400408C
:1029180010B50248FFF7B0FF10BDC0460064004084
:1029280010B50248FFF7A8FF10BDC04600340040AC
:1029380010B50248FFF7A0FF10BDC04600340040A4
:1029480010B5FFF76DFE83001B181B021B189B00B8
:1029580003495858002801D0CA18506910BDC0460C
:1029680004020020F0B583B00D0017000193FFF7B3
:1029780057FE06008400241824022418A400234BC0
:10298800E358002B01D0012805D900233B6000271C
:10299800380003B0F0BD83001B181B021B189B00F6
:1029A8001A4AD3185A682A609A683A605F69089B7D
:1029B8009F4200D91F00B400A4192402A11989005C
:1029C8000831124D491904313A00019801F070FCA0
:1029D80072B6A3199B005A59013A1C005A51FF2A92
:1029E80001D962B6D4E7B3009B191B022000074C3B
:1029F800001904309B199B001433191904319300F2
:102A08009A18920001F054FCEBE7C046040200203B
:102A180010B582B00100A94A106C8024A404204398
:102A28001064136C23400193019B0022A448FFF714
:102A38008FFEA44B1C681F2180204000802305E0E6
:102A4800400001221A40104301395B08002BF7D1DE
:102A58008840FDF779FDFF2318404000FC3B834088
:102A68009C431F2180204000802305E04000012274
:102A78001A40104301395B08002BF7D18840FDF755
:102A880063FDFF2318404000FD3B83401C438D4AF3
:102A98001460536A0F218B4306390B4353629468C1
:102AA800163180204000802305E0400001221A40B2
:102AB800104301395B08002BF7D18840FDF744FD2E
:102AC800FF2318404000FC3B83409C431F2180208B
:102AD8004000802305E0400001221A4010430139DC
:102AE8005B08002BF7D18840FDF72EFDFF23184027
:102AF8004000FD3B83401C43724B9C605A687249FE
:102B08000A405A60DC682131FF3180204000802370
:102B180005E0400001221A40104301395B08002BF0
:102B2800F7D18840FDF710FDFF2318404000FC3B1B
:102B380083409C43802300E05B08002BFCD1614B61
:102B4800DC601C681F218020800080235B0005E07A
:102B5800400001221A40104301395B08002BF7D1CD
:102B68008840FDF7F1FCFF2318404000FC3B834000
:102B78009C431F218020800080235B0005E04000EB
:102B880001221A40104301395B08002BF7D1884015
:102B9800FDF7DAFCFF2318404000FD3B83401C434F
:102BA800484B1C605C6A1F210220012305E040009D
:102BB80001221A40104301395B08002BF7D18840E5
:102BC800FDF7C2FCFF2318408000F03B83409C4384
:102BD8001F210220012305E0400001221A40104372
:102BE80001395B08002BF7D18840FDF7ADFCFF23C6
:102BF80018408000F63B83401C43324B5C629C6863
:102C08001F218020800080235B0005E04000012216
:102C18001A40104301395B08002BF7D18840FDF7B3
:102C280093FCFF2318404000FC3B83409C431F213A
:102C38008020800080235B0005E0400001221A40CC
:102C4800104301395B08002BF7D18840FDF77CFC65
:102C5800FF2318404000FD3B83401C43194B9C60F8
:102C68005A681A490A405A60DC681F21802080008F
:102C780080235B0005E0400001221A40104301391F
:102C88005B08002BF7D18840FDF75EFCFF23184056
:102C98004000FC3B83409C4380235B0000E05B08D2
:102CA800002BFCD1074BDC60094B802252031A60D1
:102CB800802292031A6002B010BDC046003802405C
:102CC8000064004000040240FFFEFFFFFFFDFFFF1D
:102CD80000E100E010B582B00100B44A106C802415
:102CE800A40120431064136C23400193019B00222C
:102CF800AF48FFF72DFDAF4B1C681F2108200423A8
:102D080005E0400001221A40104301395B08002BFE
:102D1800F7D18840FDF718FCFF2318404000FC3B22
:102D280083409C431F210820042305E04000012222
:102D38001A40104301395B08002BF7D18840FDF792
:102D480003FCFF2318404000FD3B83401C43994B84
:102D58001C601C6A1F210820042305E04000012292
:102D68001A40104301395B08002BF7D18840FDF762
:102D7800EBFBFF2318408000F03B83409C431F215E
:102D88000820042305E0400001221A4010430139BD
:102D98005B08002BF7D18840FDF7D6FBFF231840CE
:102DA8008000F43B83401C43824B1C629C681F21BB
:102DB8000820042305E0400001221A40104301398D
:102DC8005B08002BF7D18840FDF7BEFBFF231840B6
:102DD8004000FC3B83409C431F210820042305E05E
:102DE800400001221A40104301395B08002BF7D13B
:102DF8008840FDF7A9FBFF2318404000FD3B8340B6
:102E08001C436C4B9C605A6808218A435A60DC68F2
:102E180017310820042305E0400001221A4010431E
:102E280001395B08002BF7D18840FDF78DFBFF23A4
:102E380018404000FC3B83409C43042300E05B08AF
:102E4800002BFCD15B4BDC601C681F211020082381
:102E580005E0400001221A40104301395B08002BAD
:102E6800F7D18840FDF770FBFF2318404000FC3B7A
:102E780083409C431F211020082305E040000122C5
:102E88001A40104301395B08002BF7D18840FDF741
:102E98005BFBFF2318404000FD3B83401C43454B30
:102EA8001C601C6A1F211020082305E04000012235
:102EB8001A40104301395B08002BF7D18840FDF711
:102EC80043FBFF2318408000F03B83409C431F21B5
:102ED8001020082305E0400001221A401043013960
:102EE8005B08002BF7D18840FDF72EFBFF23184025
:102EF8008000F43B83401C432E4B1C629C681F21BE
:102F08001020082305E0400001221A40104301392F
:102F18005B08002BF7D18840FDF716FBFF2318400C
:102F28004000FC3B83409C431F211020082305E000
:102F3800400001221A40104301395B08002BF7D1E9
:102F48008840FDF701FBFF2318404000FD3B83400C
:102F58001C43184B9C605A6810218A435A60DC68ED
:102F68000F311020082305E0400001221A401043C9
:102F780001395B08002BF7D18840FDF7E5FAFF23FC
:102F880018404000FC3B83409C43082300E05B085A
:102F9800002BFCD1074BDC60074B80229200DA60E3
:102FA8008022D200DA6002B010BDC046003802406C
:102FB800003400400004024000E100E000BEFEE7EB
:102FC800024A1368013313607047C046304200203C
:102FD800014B18607047C0462C3E002010B50E4BC0
:102FE8001B68DB0703D50C4B5B681B04F7D10B4A46
:102FF80093688024A343936003E002789A620130C7
:1030080021004C1E002905D0054B1B68DA69120601
:10301800FAD5F2E710BDC0465860024000480040AB
:103028002C3E002010B50400FDF706F90100200031
:10303800FFF7D4FF10BD092802D83030C0B270475E
:103048005730C0B2FBE730B583B0040001AB0022B3
:103058005A7014E020780009FFF7EDFF6B461871ED
:1030680001A8FFF7DFFF23780F201840FFF7E3FFE1
:103078006B46187101A8FFF7D5FF013429004D1ED2
:103088000029E7D103B030BD70B582B00400C84B49
:10309800196B80208003014319631A6B0240019267
:1030A800019A1A6C8021C9020A431A641B6C0B40EE
:1030B8000093009BBF4B1A68BF491140BF4A0A439F
:1030C8001A60BF48BF491A68C0231340402B27D055
:1030D800B84B9860D960B74B5A68120C1204842117
:1030E800C9000A435A601A68B74E32408021090560
:1030F8000A431A601A68012002431A60B34B186821
:10310800AD4D0540B248284318601A683240114353
:103118001960B04B1D681F2180204000802309E002
:10312800A44BD8609960D6E7400001221A401043AA
:1031380001395B08002BF7D18840FDF705FAFF231A
:1031480018404000FC3B83409D431F2180204000E5
:10315800802305E0400001221A40104301395B0832
:10316800002BF7D18840FDF7EFF9FF231840400006
:10317800FD3B83401D43974A1560536A0F218B43DB
:1031880008390B435362956818318020400080232A
:1031980005E0400001221A40104301395B08002B6A
:1031A800F7D18840FDF7D0F9FF2318404000FC3BD9
:1031B80083409D431F2180204000802305E040007C
:1031C80001221A40104301395B08002BF7D18840CF
:1031D800FDF7BAF9FF2318404000FD3B83401D432B
:1031E8007C4B9D605A687C490A405A60DD682131F1
:1031F800FF3180204000802305E0400001221A4072
:10320800104301395B08002BF7D18840FDF79CF982
:10321800FF2318404000FC3B83409D431F21802032
:103228004000802305E0400001221A401043013984
:103238005B08002BF7D18840FDF786F9FF2318407B
:103248004000FE3B83401D43624BDD601D681F212B
:103258008020800080235B0005E0400001221A40A6
:10326800104301395B08002BF7D18840FDF76CF952
:10327800FF2318404000FC3B83409D431F218020D2
:10328800800080235B0005E0400001221A401043C3
:1032980001395B08002BF7D18840FDF755F9FF236A
:1032A80018404000FD3B83401D434A4B1D605D6A4A
:1032B8001F210220012305E0400001221A4010438B
:1032C80001395B08002BF7D18840FDF73DF9FF2352
:1032D80018408000F03B83409D431F2102200123BA
:1032E80005E0400001221A40104301395B08002B19
:1032F800F7D18840FDF728F9FF2318408000F83BF4
:1033080083401D43334B5D629D681F2180208000F0
:1033180080235B0005E0400001221A401043013978
:103328005B08002BF7D18840FDF70EF9FF23184002
:103338004000FC3B83409D431F2180208000802368
:103348005B0005E0400001221A40104301395B0888
:10335800002BF7D18840FDF7F7F8FF23184040000D
:10336800FD3B83401D431B4B9D605A681B490A4027
:103378005A60DD681F218020800080235B0005E003
:10338800400001221A40104301395B08002BF7D195
:103398008840FDF7D9F8FF2318404000FC3B8340E4
:1033A8009D431F218020800080235B001EE0C046D3
:1033B80000380240286002401F80FCFF0005020020
:1033C800244800400C3A0020FFFFFFE1586002400B
:1033D80040040200000C0240FFFEFFFFFFFDFFFF5C
:1033E800400001221A40104301395B08002BF7D135
:1033F8008840FDF7A9F8FF2303405B00012632004F
:103408009A4015431A4BDD601A4990228B58302098
:1034180083438B50184D2B68843A934313432B6096
:103428002B68164A13402B606B68154A13406B6073
:10343800144B18686308C0182100FCF70FFF00043C
:10344800000CE8602B681E432E600B4BDB699B0267
:10345800FBD5094BDB695B02F7D5074B9A6840211E
:103468000A439A609A6840318A439A6002B070BDF4
:10347800000C02400038024000480040FFE9FFEF1E
:10348800FFCFFFFF0800002070B584B00400D64BC2
:10349800196B8020C003014319631A6B0240039221
:1034A800039A596C1022114359645B6C1A400292BA
:1034B800029BCE4A136801210B431360CC4B1A6858
:1034C8008A431A601A68CB491140CB4A0A431A60EA
:1034D800CA48CB491A68C0231340402B1BD0C44BA1
:1034E8009860D960C24B5A68120C120480210901F5
:1034F8000A435A601A68C3491140802212050A43D8
:103508001A601A6801210A431A60BF4B1D681E31F0
:103518004020202309E0B64BD8609960E2E74000DC
:1035280001221A40104301395B08002BF7D188406B
:10353800FDF70AF8FF2318404000FC3B83409D43F9
:103548001F214020202305E0400001221A4010439B
:1035580001395B08002BF7D18840FCF7F5FFFF2302
:1035680018404000FD3B83401D43A74B1D601D6A6A
:103578001F214020202305E0400001221A4010436B
:1035880001395B08002BF7D18840FCF7DDFFFF23EA
:1035980018408000F03B83409D431F21402020239A
:1035A80005E0400001221A40104301395B08002B56
:1035B800F7D18840FCF7C8FFFF2318408000F83B8C
:1035C80083401D43904B1D629D681F21402020238E
:1035D80005E0400001221A40104301395B08002B26
:1035E800F7D18840FCF7B0FFFF2318404000FC3BB0
:1035F80083409D431F214020202305E040000122F5
:103608001A40104301395B08002BF7D18840FCF7BA
:103618009BFFFF2318404000FD3B83401D437A4B2E
:103628009D605A6840218A435A60DD6821394020EC
:10363800202305E0400001221A40104301395B08AD
:10364800002BF7D18840FCF77FFFFF23184040008C
:10365800FC3B83409D431F214020202305E0400080
:1036680001221A40104301395B08002BF7D188402A
:10367800FCF76AFFFF2318404000FE3B83401D43D0
:10368800614BDD601D681F21802000028023DB0163
:1036980005E0400001221A40104301395B08002B65
:1036A800F7D18840FCF750FFFF2318404000FC3B4F
:1036B80083409D431F21802000028023DB0105E019
:1036C800400001221A40104301395B08002BF7D152
:1036D8008840FCF739FFFF2318404000FD3B83403A
:1036E8001D43494B1D605D6A1F218020402305E072
:1036F800400001221A40104301395B08002BF7D122
:103708008840FCF721FFFF2318408000F03B8340EE
:103718009D431F218020402305E0400001221A40DC
:10372800104301395B08002BF7D18840FCF70CFFE8
:10373800FF2318408000FB3B83401D43324B5D62F2
:103748009D681F21802000028023DB0105E04000E6
:1037580001221A40104301395B08002BF7D1884039
:10376800FCF7F2FEFF2318404000FC3B83409D43DA
:103778001F21802000028023DB0105E04000012298
:103788001A40104301395B08002BF7D18840FCF739
:10379800DBFEFF2318404000FD3B83401D431A4BCE
:1037A8009D605A6819490A405A60DD681F218020C7
:1037B80000028023DB0105E0400001221A4010438B
:1037C80001395B08002BF7D18840FCF7BDFEFF23C9
:1037D80018404000FC3B83409D431F21802000028D
:1037E8008023DB011AE0C046003802400010014087
:1037F800406402401F80FCFF0005020024100140C5
:103808000C320020FFFFFFE100040240FF7FFFFFB2
:10381800400001221A40104301395B08002BF7D100
:103828008840FCF791FEFF2303405B00012632002D
:103838009A4015431E4BDD601E4B596C10221143F4
:103848005964596C0A400192019A90215A580320F0
:1038580082435A50184D2B680C22934313432B6014
:103868002B68164A13402B606B68154A13406B602F
:10387800144B18686308C0182100FCF7EFFC00041B
:10388800000CE8602B681E432E600B4BDB699B0223
:10389800FBD5094BDB695B02F7D5074B9A684021DA
:1038A8000A439A609A6840318A439A6004B070BDAE
:1038B800000402400038024000100140FFE9FFEF19
:1038C800FFCFFFFF0800002030B585B00400CE4BC5
:1038D800196B8020C003014319631A6B02400392DD
:1038E800039A596C2022114359645B6C1A40029266
:1038F800029BC64B1A6801218A431A601A68C44998
:103908001140C44A0A431A60C348C4491A68C0230C
:103918001340402B1BD0BD4B9860D960BB4B5A68F5
:10392800120C1204802109010A435A601A68BC4922
:103938001140A02212050A431A601A6801210A439D
:103948001A60B84B1D681E314020202309E0AF4B98
:10395800D8609960E2E7400001221A40104301391B
:103968005B08002BF7D18840FCF7EEFDFF231840D9
:103978004000FC3B83409D431F214020202305E05D
:10398800400001221A40104301395B08002BF7D18F
:103998008840FCF7D9FDFF2318404000FD3B8340D9
:1039A8001D43A04B1D601D6A1F214020202305E0F8
:1039B800400001221A40104301395B08002BF7D15F
:1039C8008840FCF7C1FDFF2318408000F03B83408E
:1039D8009D431F214020202305E0400001221A407A
:1039E800104301395B08002BF7D18840FCF7ACFD88
:1039F800FF2318408000F73B83401D43894B1D621D
:103A08009D681F214020202305E0400001221A4024
:103A1800104301395B08002BF7D18840FCF794FD6F
:103A2800FF2318404000FC3B83409D431F2140205A
:103A3800202305E0400001221A40104301395B08A9
:103A4800002BF7D18840FCF77FFDFF23184040008A
:103A5800FD3B83401D43734B9D605A6840218A4358
:103A68005A60DD6821394020202305E0400001220A
:103A78001A40104301395B08002BF7D18840FCF746
:103A880063FDFF2318404000FC3B83409D431F21FA
:103A98004020202305E0400001221A40104301394C
:103AA8005B08002BF7D18840FCF74EFDFF23184038
:103AB8004000FD3B83401D435A4BDD601D681F21BC
:103AC8008020402305E0400001221A4010430139BC
:103AD8005B08002BF7D18840FCF736FDFF23184020
:103AE8004000FC3B83409D431F218020402305E08C
:103AF800400001221A40104301395B08002BF7D11E
:103B08008840FCF721FDFF2318404000FD3B83401F
:103B18001D43444B1D601D6A1F218020402305E082
:103B2800400001221A40104301395B08002BF7D1ED
:103B38008840FCF709FDFF2318408000F03B8340D4
:103B48009D431F218020402305E0400001221A40A8
:103B5800104301395B08002BF7D18840FCF7F4FCCF
:103B6800FF2318408000F73B83401D432D4B1D6207
:103B78009D681F218020402305E0400001221A4053
:103B8800104301395B08002BF7D18840FCF7DCFCB7
:103B9800FF2318404000FC3B83409D431F218020A9
:103BA800402305E0400001221A40104301395B0818
:103BB800002BF7D18840FCF7C7FCFF2318404000D2
:103BC800FD3B83401D43174B9D605A6880218A4303
:103BD8005A60DD6861398020402305E040000122F9
:103BE8001A40104301395B08002BF7D18840FCF7D5
:103BF800ABFCFF2318404000FC3B83409D431F2142
:103C08008020402316E0C046003802402864024065
:103C18001F80FCFF00050200241401400C2A00202C
:103C2800FFFFFFE100080240400001221A40104354
:103C380001395B08002BF7D18840FCF785FCFF238E
:103C480018404000FD3B83401D43264BDD60264B5A
:103C5800596C202211435964596C0A400192019A07
:103C680090215A58214802405A50214D2B680C2265
:103C7800934313432B606B681E4A1A4080235B02F0
:103C880013436B606B681C4A1A4080239B021343E2
:103C98006B602B68194A13402B606B68184A1340F5
:103CA8006B60184B18686308C0182100FCF7D6FA37
:103CB8000004000CE8602B68012213432B600C4BB6
:103CC800DB699B02FBD50A4BDB695B02F7D5084B26
:103CD8009A6840210A439A609A6840318A439A60F8
:103CE80005B030BD0008024000380240FFF3FFFF76
:103CF80000140140FFFFFEFFFFFFFDFFFFE9FFEF9C
:103D0800FFCFFFFF08000020F0B5C64600B516003B
:103D1800474B9C466044850201248C402B6898469A
:103D2800670820003B001F2105E0400001221A40DF
:103D3800104301395B08002BF7D18840FCF704FCDD
:103D4800FF2318404000FC3B834042469A4390467C
:103D580020001F2205E0400001233B401843013AA0
:103D68007F08002FF7D19040FCF7EEFBFF231840A7
:103D78004000FE3B834042461A432A60AB6898469F
:103D8800670820003B001F2105E0400001221A407F
:103D9800104301395B08002BF7D18840FCF7D4FBAE
:103DA800FF2318404000FC3B834042469A4390461C
:103DB80020001F2205E0400001233B401843013A40
:103DC8007F08002FF7D19040FCF7BEFBFF23184077
:103DD8004000FD3B834042461A43AA60EB68984680
:103DE800670820003B001F2105E0400001221A401F
:103DF800104301395B08002BF7D18840FCF7A4FB7E
:103E0800FF2318404000FC3B834042469A4313007E
:103E180000E07F08002FFCD1EB60002E05D00023C6
:103E28009C40AC6180BCB846F0BD1023F8E7C046A2
:103E380080001000014B18687047C04630420020CF
:103E480010B5FDF7AFF9FCE77047000082B0084BEA
:103E58001B680193019B431C00D00130002805D04A
:103E6800034B1B68DB03F9D50138F7E702B070474D
:103E780010E000E0014B18607047C04608000020C1
:103E8800F8B504000E0015001F001C22002100F0E8
:103E980022FA2A000021300000F01DFA66606561F0
:103EA800A760F8BD70B50400080025696169FCF7D2
:103EB8005BFA2161A94200D170BDFFF7BBFF20600A
:103EC800FAE710B5040042690021406800F003FADF
:103ED80000232360E3602361A36110BD0369C3600D
:103EE800704770B50400C068A669F3070ED4256949
:103EF800854223D063681B5C0A2B17D001306169A7
:103F0800FCF732FA08008D42F4D117E023698342A6
:103F180014D063681B5C0A2B10D1093B1E43A661B1
:103F280001306169FCF720FAE16007E0093B1E43B4
:103F3800A66101306169FCF717FAE16070BDF0B560
:103F4800D6464F4680B583B005000C0091460193D4
:103F5800C06848446969FCF707FA0F00A868FCF7CD
:103F68006BF92B69BB4252D06B68DB1923600400E4
:103F78002600013C002E2CD06B689A46BA44DA5DC4
:103F8800AB681B5D9A42F3D16C69E019EB68C01A03
:103F98004B46C01A2100FCF7E7F90E00019B002BE5
:103FA8000DD0781C2100FCF7DFF9E9600123AA692C
:103FB8009A431300AA61524612780A2A05D03000A3
:103FC80003B0C0BCBA46B146F0BD093A1343AB6171
:103FD800F5E701376B69BB4208D0EA68BA42EED010
:103FE8002A69BA42EBD0BB42C1D8E8E7EB68FE1AAF
:103FF8004B46F61A019B002B05D00023EB600133DA
:10400800AA699A43AA61802109060E43D7E70026C8
:10401800D5E710B501230022FFF791FF10BD10B5B9
:1040280041690369CB18C068181AFCF79DF90800A4
:1040380010BDF8B504000F001500FFF7F0FFA84207
:1040480000D80500E16863695E1AB54200D22E0007
:1040580063689C4661443200380000F029F9E3683F
:1040680098196169FCF780F9E160B819B5420FD079
:104078002669B54200D22E0063689C46614432002E
:1040880000F016F9E36898196169FCF76DF9E160C9
:104098002800F8BD70B50400FFF7C1FFE1680025EE
:1040A80004E0481C6169FCF75FF93000461E0028EF
:1040B80005D0013563685B5C0A2BF2D1280070BD1E
:1040C800F0B5C64600B505000F009046FFF7A7FFFC
:1040D8000400E968002308E05C1C0A2A0FD0481C89
:1040E8006969FCF741F923003400661E002C0BD0E7
:1040F8006A68525C4345EFD23A700137ECE7A04555
:1041080002D900223A709C1C200080BCB846F0BD41
:1041180030B583B005000023002201A9FFF70FFF87
:10412800002800D001DB03B030BD44006408002340
:10413800220001A92800FFF702FF002801DB201850
:10414800F1E70020EFE770B506000D001400FFF757
:10415800DFFF002800D170BD29003000FFF759FFAC
:10416800206000236B6063602368002B03DB2068FA
:104178006368C018EFE75B005B082360291D300007
:10418800FFF747FF6060F2E770B584B00C006A463D
:1041980002A9FFF7D8FF031E52D0E1B20025002084
:1041A800002213E0019B002B4ED0013B0193039B9F
:1041B8005E1C03961B7815E0002A1BD00A291DD027
:1041C800102922D04843C018013223005C1E002B5E
:1041D80032D0009B002BE5D0013B0093029B5E1C74
:1041E80002961B780028E7D1012AE5D1782BE3D184
:1041F8001021E9E72D2BE1D10125E5E7303BDBB2C2
:10420800092BDFD9012040421CE01E00303EF6B2E7
:10421800092E0FD91E00613EF6B2052E02D8573B73
:10422800DBB2CFE71E00413EF6B2052E0FD8373B72
:10423800DBB2C7E73300C5E7002D03D0404201E0F9
:104248000120404204B070BD01204042FAE701203D
:104258004042F7E710B50A21FFF796FF10BD10B5E9
:104268000A21FFF791FF10BD70B500260C4D0D4CCB
:10427800641BA410A64209D1002600F0B5FC0A4D23
:104288000A4C641BA410A64205D170BDB300EB58BC
:1042980098470136EEE7B300EB5898470136F2E746
:1042A800C4520008C4520008C4520008C85200088A
:1042B80010B5884202D98B18984203D3002307E02F
:1042C8008B5C8354013AFBD210BDCC5CC4540133DF
:1042D8009A42FAD1F8E703008218934200D1704756
:1042E80019700133F9E700000CB430B5174B0C0016
:1042F8001D689DB0002908DA8B2301202B604042FD
:104308001DB030BC08BC02B0184782236A469B0027
:104318009382002302900690994200D04B1E04938A
:10432800079301236A465B42D382280021AB209A77
:1043380002A9019300F084F8431C01DA8B232B6057
:10434800002CDDD00023029A1370D9E70C0000205E
:104358000A7830B5002A0CD130BD9A4208D1012321
:10436800CC5C002CF8D0C55CA54201D10133F7E73D
:1043780001300378002BF0D11800EDE7F0B58E6816
:1043880085B007000C00039201939E423CD890230D
:104398008A89DB001A4234D00969236860695B1A8C
:1043A800029303234343DD0FED18019B0298013369
:1043B8001B186D10AB4200D91D00530532D52900DA
:1043C800380000F03FFB061E09D10C233B60402358
:1043D8000120A28940421343A38105B0F0BD029A8F
:1043E800216900F0BAFAA389144A1A4080231343BA
:1043F800A381029B2661F61826606561019EED1A6D
:10440800A560019B9E4200D9019E32000399206855
:10441800FFF74EFFA36800209B1BA36023689E192B
:104428002660DAE72A00380000F082FB061EE0D199
:104438003800216900F09AFAC7E7C0467FFBFFFF02
:10444800F0B5A1B003901D008B890F0016001B0664
:1044580011D50B69002B0ED1402100F0F3FA38601A
:104468003861002805D10C23039A0138136021B064
:10447800F0BD40237B61002308AC63612033637681
:104488001033A376079535002B78002B01D0252B08
:1044980047D1AB1B0593B5420CD0320039000398C5
:1044A800FFF76CFF431C00D1AEE06269059B9446A0
:1044B800634463612B78002B00D1A5E0012200231F
:1044C8005242626004A9543252186E1C2360E360A1
:1044D800A3601370A36505223178544800F032FABE
:1044E800751C00281FD12268D30604D5532304A9BC
:1044F8005B1820211970130704D5532304A95B18EE
:104508002B21197033782A2B16D0350000210A2068
:10451800E3682A786E1C303A092A4ED9002911D14D
:1045280017E00135B0E7414B2268C01A01238340E8
:1045380013432E002360CEE7079B191D1B680791C4
:10454800002B01DB0B9304E05B42E360022313437F
:1045580023602B782E2B0AD16B782A2B35D1079B19
:1045680002351A1D1B680792002B2BDB0993304E6E
:1045780003223000297800F0E5F9002806D040230E
:10458800801B834022680135134323602978062263
:1045980028486E1C217600F0D5F900283CD0264B1F
:1045A800002B25D10722079B073393430833079332
:1045B8006369049A9B18636165E7434335000121E9
:1045C8009B18A6E701235B42D0E700230A201A00C4
:1045D8000135636029786E1C3039092903D9002B0D
:1045E800C5D00992C3E74243350001235218F1E7C9
:1045F80007AB00933A002100104B0398AFF30080FB
:104608000490049B0133D3D1BB890D985B0600D479
:104618002DE7012040422AE707AB00933A0021002A
:10462800064B039800F07CF8EAE7C0469152000870
:10463800975200089B5200080000000085430008BC
:10464800F7B5150001938A680B690C000090934236
:1046580000DA130022002B6043321278002A01D0BE
:1046680001332B6023689B0602D52B6802332B602D
:104678002268062317001F401A4227D0230043331D
:104688001B785A1E93412268920630D42200019961
:104698000098089E4332B047431C25D00623206863
:1046A8002A68E16800250340042B03D18D1AEB43E7
:1046B800DB171D40A3682269934201DD9B1AED18A0
:1046C8000027BD4220D1002010E00137E3682A68A6
:1046D8009B1ABB42D2DD2200012301990098089E53
:1046E8001932B047431CF0D101204042FEBD3020B2
:1046F800E1184331087021005A1C45310978A21885
:10470800433202331170C1E7220001230199009856
:10471800089E1A32B047431CE6D00137D1E70000A3
:10472800F0B58BB006920A004332079305900492C5
:104738000A7E0C00109B782A07D8622A09D8002A1A
:1047480000D1C1E0582A00D18CE0260042363270F0
:1047580022E0100063381528F7D8FBF775FD16001E
:104768001F00F6FFF6FFF6FFF6FF1F00F6FFF6FF45
:10477800F6FFF6FFA80036009A00F6FFF6FFB9002C
:10478800F6FF3600F6FFF6FF9E0026001A6842364E
:10479800111D1960136833700123A7E008681968B0
:1047A8000A1D05060BD50D681A60002D03DA2D23A6
:1047B800049A6D421370614B0A2703931BE00D683E
:1047C8001A604106F1D52DB2EFE70D681968081D8A
:1047D80018602E0601D50D6803E06D06FBD50D683F
:1047E800ADB2564B082703936F2A00D00237230037
:1047F800002243331A706368A360002B03DB042292
:10480800216891432160002D02D1049E002B0CD019
:10481800049E28003900FBF7A7FD039B013E5B5C63
:1048280033702B0005009F42F3D9082F09D1236864
:10483800DB0706D563682269934202DC3023013E18
:104848003370049B9B1B2361079B210000930598F1
:10485800069B09AAFFF7F4FE431C4CD101204042F5
:104868000BB0F0BD45310A70344A03921A682168CA
:1048780020CA1A60080616D5CB0702D5202319438B
:1048880021601027002DB2D1202322689A4322608C
:10489800ADE7202209680A432260220078214532C8
:1048A8001170274AE1E74806E6D5ADB2E4E71A6891
:1048B8000D68101D4969186013682E0601D5196026
:1048C80002E06D06FBD519800023049E2361BBE737
:1048D8001A68111D1960166800213000626800F01E
:1048E80031F8002801D0801B6060636823610023D1
:1048F800049A1370A8E72369320006990598079D62
:10490800A847431CAAD023689B0715D4099BE068D5
:104918009842A5DA1800A3E7220001230699059812
:10492800079E1932B047431C98D00135E368099AAD
:104938009B1AAB42F0DCE9E70025F7E7A252000832
:10494800B3520008C9B28218904201D100207047C2
:1049580003788B42FBD00130F6E7002310B59A426A
:1049680000D110BDCC5CC4540133F8E770B5050024
:10497800002910D00C1F2368002B00DAE418280047
:1049880000F018F91D4A1368002B05D16360146004
:10499800280000F017F970BDA34208D921686018F3
:1049A8008342F3D118685B6841182160EEE71A006A
:1049B8005B68002B01D0A342F9D911685018A042B6
:1049C8000BD120680918501811608342E0D118688B
:1049D8005B68411811605360DAE7A04202D90C23E2
:1049E8002B60D5E721686018834203D118685B689B
:1049F8004118216063605460CAE7C0463442002011
:104A080070B50F4E0D0031680400002902D100F086
:104A1800BFF830602900200000F0BAF8431C0AD023
:104A28000323C51C9D43A84207D0291A200000F083
:104A3800AFF8431C01D101256D42280070BDC04666
:104A480038420020F7B50322CB1C934308330600F5
:104A58001F000C2B32D20C27B94231D8300000F09D
:104A6800A9F8324D2B681C00002C2ED139003000DB
:104A7800FFF7C6FF0400431C1ED12C682500002D3B
:104A88004AD123682900E3183000019300F080F828
:104A9800019B834243D123680337FF1A03239F43B3
:104AA80008370C2F00D20C2739003000FFF7A8FF79
:104AB800431C34D02368DF19276013E0002BCBDABE
:104AC8000C23002533602800FEBD2268D11B20D4AA
:104AD8000B2917D9E2192760A34211D12A6063680C
:104AE800116053603000250000F06CF807220B3588
:104AF800231D9543EA1A9D42E5D05B1BA350E2E7CC
:104B08005A60ECE76268A34201D12A60EAE75A607A
:104B1800E8E723006468A7E72C006D68AFE70C237B
:104B28003000336000F04EF8CDE7C0463442002034
:104B3800F7B507000E001400002905D11100FFF792
:104B480081FF05002800FEBD002A03D1FFF70EFFF4
:104B58002500F7E700F03EF80190844203D83500BD
:104B68004308A342EED321003800FFF76BFF051E70
:104B7800E8D0019B22009C4200D91A00310028008D
:104B8800FFF7EBFE31003800FFF7F0FEDAE7000030
:104B9800002370B5064D040008002B60FBF7F2FCFB
:104BA800431C03D12B68002B00D0236070BDC04686
:104BB8003C42002010B5024800F014F810BDC04671
:104BC8004042002010B5024800F00DF810BDC04664
:104BD800404200200B1F1B68181F002B01DA0B58DE
:104BE800C018704770477047F8B5C046F8BC08BC95
:104BF8009E467047F8B5C046F8BC08BC9E4670474C
:104C080001000100000000000000000030780000F2
:104C1800206520002073200020552000202020201F
:104C28003E3E3E20696E76207C2000002020202019
:104C38003E3E3E20626D73207C2000004932433A9C
:104C48002070763120676D707074206F66660A0078
:104C58004932433A2070763120676D70707420684D
:104C68006967680A000000004932433A20666F729B
:104C78006365206F6666677269640A004932433A61
:104C8800206175746F206772696420636F6E6E654A
:104C98006374696F6E0A00004932433A20666F7286
:104CA800636520677269647469650A004932433A2A
:104CB80020666F726365206D616E75616C20737418
:104CC8006F70206469736368617267650A00000029
:104CD8004932433A20666F7263652073656C6620BB
:104CE8007573650A000000004932433A2061757403
:104CF8006F2073656C66207573650A00E00800080C
:104D08002A0B0008500B0008C6080008C60800084F
:104D1800C6080008C6080008C6080008C608000833
:104D2800C6080008760B00088A0B0008980B0008D4
:104D3800AC0B0008DE0B0008060C000820325E33BE
:104D48003166697800000000200A0000526573652A
:104D5800740A0000494E56206F722043414E20616C
:104D6800637469766974792074696D656F75740AFE
:104D7800000000001B5B324A00000000696E7620CC
:104D88003E3E3E20202020207C20000020202020A5
:104D980020202020202020207C2054696D657374F9
:104DA800616D703A20000000626D732063616E20AF
:104DB80074696D656F75740A00000000626D732078
:104DC8003E3E3E20202020207C2000002020202065
:104DD80020202020202020207C20566261743D2540
:104DE800642E25645609496261743D25642E256444
:104DF8004109576261743D256C645709536F433DFF
:104E0800256409456261743D25642E25646B5768E5
:104E18000A000000666F7263652062617474207313
:104E28006F630A002020202020202020202020201E
:104E38007C20566261746D61783D25642E25645628
:104E480009566261746D696E3D25642E25645609A4
:104E580049636D61783D25642E2564410949646D77
:104E680061783D25642E25644125730A0000000001
:104E7800666F72636520626174742063686172672B
:104E8800650A0000736F63203C2031300A0000007F
:104E98002020202020202020202020207C20466F39
:104EA800726D61743D256409556E6B3D2564094634
:104EB8006C616773424D533C3C31363D2530347844
:104EC8000943617061636974793D256457680A0014
:104ED8002020202020202020202020207C205462F8
:104EE8006D733D25642E2564C2B043094261744345
:104EF8006F756E743D256409436F6E746163743D0C
:104F08002564094368617267655265713D256409C6
:104F18004379636C65733D25640A000020202020D6
:104F280020202020202020207C20466C61677342AE
:104F38004D533D253034780A000000002020202001
:104F480020202020202020207C205463656C6C6D5C
:104F580061783D25642E2564C2B043095463656CAD
:104F68006C6D696E3D25642E2564C2B04309566395
:104F7800656C6C6D61783D25642E25645609566311
:104F8800656C6C6D696E3D25642E2564560A0000BB
:104F98002020202020202020202020207C20646C1D
:104FA800696D3D25640949646C696D3D25642E254C
:104FB800644109636C696D3D25640949636C696DD9
:104FC8003D25642E2564410A0000000055415254D5
:104FD800424D5355534552203E3E200055415254B0
:104FE800424D53203E3E207077720A007077720A55
:104FF8000000000055415254424D53203C3C2000D3
:105008002020766F6C746167653A20256C640A20ED
:105018002063757272656E743A20256C640A2020CC
:10502800776174746167653A20256C640A00000032
:105038006572726F723A20696E76616C696420706D
:10504800726563697365207761747461676520634D
:105058006F6D7075746174696F6E0A0024240000A6
:1050680070763120737769746368206F6E0A000068
:1050780070763220737769746368206F6E0A000057
:1050880055415254203E3E200000000055415254E4
:105098002072656164696E67206572726F722000A4
:1050A80055415254203C3C20000000005056313AF3
:1050B80020256457202825642E2564562025642E33
:1050C800256441290A5056323A202564572028255C
:1050D800642E2564562025642E256441290A000083
:1050E80041433A20477269643A2025645720286D65
:1050F800657465722025645729204550533A202548
:105108006457204F75747075743A20256456410AA7
:105118000000000063617573652037310A000000E4
:1051280063617573652037380A0000007076312096
:10513800737769746368206F66660A007076322038
:10514800737769746368206F66660A0063617573B4
:105158006520330A00000000636175736520380A12
:1051680000000000636175736520360A00000000C6
:10517800636175736520370A00000000536F6C6126
:10518800783A207374617475733D307800000000BC
:1051980020636F756E743D3078000000416E74694D
:1051A80073757267653A20646973636F6E6E6563C1
:1051B8007420475249442C20666F7263652045501D
:1051C800530A0000416E746973757267653A20630B
:1051D8006F6E6E6563742047524944202832290A4D
:1051E80000000000416E746973757267653A206348
:1051F8006F6E6E6563742047524944202833290A2C
:1052080000000000554152542054494D454F555413
:1052180000000000CE1700089C160008CC150008F6
:10522800C21800082A180008A41900089A180008CB
:10523800CE170008AA55090900DE07F6010000008C
:10524800AA5509096A03007E01000000AA55090948
:105258006A00007B01000000AA55090924000035F6
:1052680001000000AA550701858C0100AA55070115
:10527800131A0100AA5509091C0300300100000097
:10528800AA5509091C00002D01232D302B20006888
:105298006C4C00656667454647003031323334351B
:1052A8003637383941424344454600303132333489
:0C52B80035363738396162636465660082
:0452C40021020008BB
:0452C800F9010008E0
:1052CC00FFFFFFFFFFFFFFFF0024F4001000002092
:1052DC0000000000000000000000000000000000C2
:1052EC0000000000000000000000000000000000B2
:1052FC0000000000000000000000000000000000A2
:10530C000000000000000000000000000000000091
:10531C000000000000000000000000000000000081
:10532C000000000000000000000000000000000071
:04000005080024F9D2
:00000001FF
