:020000040800F2
:1000000000000820ED2B0008B1360008B1360008CA
:10001000B1360008B1360008B13600080000000013
:10002000000000000000000000000000B1360008E1
:10003000B136000800000000B1360008C1360008E3
:10004000B1360008B1360008B1360008B1360008F4
:10005000B1360008B1360008B1360008B1360008E4
:10006000B1360008B1360008B1360008B1360008D4
:10007000B1360008B1360008B1360008B1360008C4
:10008000B1360008B1360008B1360008B1360008B4
:10009000F52F000805300008B1360008B136000819
:1000A000B1360008B1360008B1360008B136000894
:1000B000B1360008B1360008B1360008B136000884
:1000C000B13600081D0F0008B10F0008B136000856
:1000D000B1360008B1360008B1360008B136000864
:1000E000B1360008B1360008B1360008B136000854
:1000F000B1360008B1360008B1360008B136000844
:10010000B1360008B1360008B1360008B136000833
:10011000B1360008B1360008B1360008B136000823
:10012000B1360008B1360008B1360008B136000813
:10013000B1360008B1360008B1360008B136000803
:10014000B1360008B1360008B1360008B1360008F3
:10015000B1360008B1360008B1360008B1360008E3
:10016000B1360008B1360008B1360008B1360008D3
:10017000B1360008B1360008B136000800000000B2
:10018000B1360008B1360008B1360008B1360008B3
:10019000B1360008B1360008B1360008B1360008A3
:1001A000B1360008B1360008B1360008B136000893
:1001B000B1360008B1360008B13600081D0F00083E
:1001C000B10F0008B136000800000000B136000889
:1001D000B1360008B1360008B1360008B136000863
:1001E000B13600081530000825300008B136000887
:0801F000B1360008B136000829
:1001F80010B5064C2378002B07D1054B002B02D0F5
:100208000448AFF300800123237010BD7000002064
:100218000000000008540008044B10B5002B03D060
:1002280003490448AFF3008010BDC0460000000039
:1002380074000020085400080023C25C0133002A1F
:10024800FBD1581E7047000003B4714649084000AE
:100258004900095E49008E4403BC704700224308E8
:100268008B4274D303098B425FD3030A8B4244D376
:10027800030B8B4228D3030C8B420DD3FF220902B8
:1002880012BA030C8B4202D31212090265D0030B77
:100298008B4219D300E0090AC30B8B4201D3CB036D
:1002A800C01A5241830B8B4201D38B03C01A5241AF
:1002B800430B8B4201D34B03C01A5241030B8B42B1
:1002C80001D30B03C01A5241C30A8B4201D3CB029C
:1002D800C01A5241830A8B4201D38B02C01A524181
:1002E800430A8B4201D34B02C01A5241030A8B4284
:1002F80001D30B02C01A5241CDD2C3098B4201D39C
:10030800CB01C01A524183098B4201D38B01C01A19
:10031800524143098B4201D34B01C01A5241030990
:100328008B4201D30B01C01A5241C3088B4201D33F
:10033800CB00C01A524183088B4201D38B00C01AEC
:10034800524143088B4201D34B00C01A5241411A13
:1003580000D20146524110467047FFE701B5002020
:1003680000F0F0F802BDC0460029F7D076E77047E4
:1003780003460B437FD4002243088B4274D30309FE
:100388008B425FD3030A8B4244D3030B8B4228D39F
:10039800030C8B420DD3FF22090212BA030C8B42C5
:1003A80002D31212090265D0030B8B4219D300E065
:1003B800090AC30B8B4201D3CB03C01A5241830BEA
:1003C8008B4201D38B03C01A5241430B8B4201D39A
:1003D8004B03C01A5241030B8B4201D30B03C01AC3
:1003E8005241C30A8B4201D3CB02C01A5241830A3D
:1003F8008B4201D38B02C01A5241430A8B4201D36C
:100408004B02C01A5241030A8B4201D30B02C01A95
:100418005241CDD2C3098B4201D3CB01C01A5241FC
:1004280083098B4201D38B01C01A524143098B4285
:1004380001D34B01C01A524103098B4201D30B016E
:10044800C01A5241C3088B4201D3CB00C01A524193
:1004580083088B4201D38B00C01A524143088B4258
:1004680001D34B00C01A5241411A00D201465241F1
:10047800104670475DE0CA0F00D04942031000D310
:100488004042534000229C4603098B422DD3030A65
:100498008B4212D3FC22890112BA030A8B420CD375
:1004A800890192118B4208D3890192118B4204D39E
:1004B80089013AD0921100E08909C3098B4201D31E
:1004C800CB01C01A524183098B4201D38B01C01A58
:1004D800524143098B4201D34B01C01A52410309CF
:1004E8008B4201D30B01C01A5241C3088B4201D37E
:1004F800CB00C01A524183088B4201D38B00C01A2B
:100508005241D9D243088B4201D34B00C01A524101
:10051800411A00D20146634652415B10104601D38E
:100528004042002B00D54942704763465B1000D318
:10053800404201B5002000F005F802BD0029F8D0BE
:1005480016E770477047C0461C2101231B049842D8
:1005580001D3000C10391B0A984201D3000A08394C
:100568001B09984201D30009043902A2105C401803
:100578007047C046040302020101010100000000A7
:1005880000000000BFF34F8F0549CB68E022D2007E
:100598001A40044B1343CB60BFF34F8FC046FDE7AF
:1005A80000ED00E00400FA057047000010B50400F3
:1005B800034803F089F8200003F0C6F810BDC046D0
:1005C8000048004070B504000D00044803F07CF8B2
:1005D8002900200003F07EF870BDC04600480040A6
:1005E80070B504000D00044803F06EF829002000DF
:1005F80003F0BBF870BDC0460048004070B582B03B
:10060800019115001E00FFF7D1FF1B48FFF7CEFF31
:10061800019C210E230AFF221202134019432302D0
:10062800FF221204134019432406214301910B2D84
:1006380011D01D2D17D1042101A8FFF7D1FF0F48B4
:10064800FFF7B4FF06993000FFF7CAFF0C48FFF721
:10065800ADFF02B070BD022101A8FFF7C1FF094834
:10066800FFF7A4FFEEE7042101A8FFF7B9FF06484A
:10067800FFF79CFFE6E7C0462C54000830540008FA
:10068800485700083454000838540008F0B583B0BF
:1006980004000D0016001F00009313000A0001005B
:1006A8000548FFF7ABFF009733002A0021000348F5
:1006B80002F03AFB03B0F0BD3C540008006400406F
:1006C800F0B583B004000D0016001F00009313005E
:1006D8000A0001000548FFF791FF009733002A0040
:1006E8002100034802F020FB03B0F0BD4C54000881
:1006F8000034004010B5074C21000C3118222000AE
:1007080004F0E2F9200018300C22002104F0EFF97F
:1007180010BDC046CC050020002000E00130430099
:100728001B189A00044B9B185B68002B01D0022809
:10073800F4D90323181A7047CC05002070B500249B
:1007480000E0013463001B199B00094DEB185B683E
:10075800002B01D0022CF4D9022C07D8044D6300D9
:100768001E19B6007051A8194160826070BDC0465C
:10077800CC05002010B560220021024804F0B7F92A
:1007880010BDC04638050020F8B50500002301E07B
:100798000133DBB2072B25D81C005A00D21892006F
:1007A8002348125CD207F3D55A00D2189200125887
:1007B8005208AA42ECD107005E00F01880003818F1
:1007C8000430082204F080F933199B0068000125E1
:1007D800DA5915400543DD511E00DB5D0122134344
:1007E800F35523E00023072B20D81C005A00D21809
:1007F80092000F48125CD20702D50133DBB2F2E750
:1008080007005E00F018800038180430082204F051
:100818005BF933199B006D000120DA59104005433C
:10082800DD511E00DB5D01221343F355F8BDC046C0
:100838003805002010B5040002000021012003F053
:10084800F5FD22000E21032003F0F0FD014A2923C3
:10085800D45410BD9C05002010B5040002000721E7
:10086800012003F0E3FD22000F21032003F0DEFD49
:10087800014A2A23D45410BD9C05002010B5040059
:10088800064B186002000E21012003F0CFFD220064
:100898000C21052003F0CAFD10BDC046C000002091
:1008A800014B00221A607047D0010020F0B5D646EF
:1008B8004F464646C0B5DD4B1B68002B04D10022CD
:1008C800DB490A60DB490A605A1CD8490A60DA49E0
:1008D800486ADA49C854012A07D0022A00D185E2B9
:1008E800E0BCBA46B146A846F0BD0B78162BF7D83F
:1008F8009B00D34AD3589F46D24B19684529EFD855
:10090800D14B187C0028EBD0FF28E9D0C84B002237
:100918001A6001321A6001321A60C84A04255570FB
:1009280003241C60C94CA67B96701D60C84D2D78A9
:10093800D5701826A55F05261E602E12167106268C
:100948001E6055711626A55F07261E602E12967129
:1009580008261E60D571258901361E602E0A16727A
:100968000A261E605572658901361E602E0A967227
:100978000C261E60D5720C25645F0D251D6025129E
:1009880015730E251D605473AF4B5C6A002C00D1A3
:100998001C6A2512A64A0F231360A84B9D731025C5
:1009A8001560DC73112414601874A7488146282444
:1009B800045F0235156025125D74132515609C745B
:1009C80048462A24045F013515602512DD74152573
:1009D80015601C7548462C24045F013515602512E6
:1009E8005D75172515609C759A4C2468013515604E
:1009F800DC751924146019761A21116093494C7C0E
:100A08005C760C8803351560250A9D761C251560D3
:100A1800DC764C8801351560250A1D771E25156082
:100A28005C771C200C5E0135156025129D7720250A
:100A38001560DC774E8C21241460370A5F55023527
:100A480015601E550234146024268F5D5F551660AC
:100A580003354F5D1F55156003340F5D9F551460B6
:100A680003368F5D5F55166004354F5D1F55282787
:100A780017600434085D985520200E5E156030120A
:100A8800D85514605E551E200F5E2B2616603D1249
:100A98001D552C2515609F556F4C27683F0E5F55D7
:100AA80027683F0C2D201F5427683F0A01301F5428
:100AB80027682F241F55013414601A27C85F804601
:100AC800312084461060404607121F553220824666
:100AD8001060604647461F546048006880463320CF
:100AE8008446106040465746D8555D4F3868804662
:100AF800342082461060604647461F5459480068B3
:100B0800804635208446106040465746D8550237FF
:100B180017608E5D60461E5437261660495DD955AC
:100B28000C3515604946095D9955494649690C0EC9
:100B38005C550D0C39241D550D0A01341D55013421
:100B48001955013414604946C9690D0E1D550D0C1F
:100B580001341D550D0A01341D5501341955013450
:100B68001460412111604846457C1D554225156099
:100B7800045D5C543C4C24680C3616605C55435C40
:100B880033E0AB005B19DB002F4AD3181A005E3242
:100B980010783038040101321278303A50B2771C9C
:100BA80023490F602043254A9055B41C0C60180057
:100BB80044300078D055F01C08601E004536367861
:100BC80016551C0046342688441C0C60370A1754F6
:100BD80002300860165548331C88431C0B60260AEF
:100BE800165402300860D4542B005D1E002B05D02B
:100BF8000F4B1E6833000833FF2BC2D90C4B1A6801
:100C08000E4B1A706CE61948FFF7D0FCFFF784FD0D
:100C1800012800D864E6072209211548FFF78EFD50
:100C2800072209211348FFF789FD59E6D001002062
:100C3800C8010020CC01002000600040C80000204E
:100C4800845500088C000020D40100209C05002059
:100C5800CA050020000000201C560020980500202E
:100C6800C4000020C0000020040000205C540008DC
:100C7800FC5B0008145C00087548FFF797FCFFF759
:100C88004BFD012800D82BE6072209217148FFF700
:100C980055FD072209217048FFF750FD20E66F48EF
:100CA800FFF784FCFFF738FD012800D818E6072273
:100CB80009216848FFF742FD072209216848FFF724
:100CC8003DFD0DE66748FFF771FCFFF725FD01289C
:100CD80000D805E6072209215E48FFF72FFD072205
:100CE80009216148FFF72AFDFAE56048FFF75EFC35
:100CF8005F4B00221A600120FFF7C0FDF0E55D4858
:100D0800FFF754FC5A4B01221A60E9E55A48FFF7ED
:100D18004DFC574B00221A600020FFF7AFFDDFE5BE
:100D28005648FFF743FC564B00221A60FFF7F4FCC5
:100D3800012800D8D4E5072209215248FFF7FEFC14
:100D4800072209215048FFF7F9FC504B03221A707B
:100D5800C6E54F48FFF72AFC494B00221A60FFF707
:100D6800DBFC002800D1BBE5072209214948FFF731
:100D7800E5FC464B01221A70B2E54748FFF716FC1E
:100D88003F4B01221A60ABE5444B012252421A60E4
:100D9800A6E54348FFF70AFC394B00221A60FFF723
:100DA800BBFC012800D89BE5072209213548FFF73D
:100DB800C5FC072209213B48FFF7C0FC334B04223E
:100DC8001A708DE53848FFF7F1FB2D4B00221A60A9
:100DD800FFF7A2FC002800D182E507220921334849
:100DE800FFF7ACFC294B02221A7079E5304B1B78CF
:100DF800103BDAB2082A00D972E593002D4AD3587D
:100E08009F462B4B59782C4A2B23D15468E5284B05
:100E18005978294A2C23D15462E5254B5978274A19
:100E28003023D1545CE5224B5A781C4B1A6057E5A5
:100E38001F4B5978214A4023D15451E51C4B5B780C
:100E4800642B01D901235B421D4A136048E5C04663
:100E580070540008FC5B0008085C0008885400080F
:100E68002C5C00089C540008205C0008B45400085E
:100E7800C4000020C8540008E4540008F8540008CE
:100E8800980500206C5C0008445C0008CA05002036
:100E98001C550008785C0008345500080000002044
:100EA80048550008385C00086C550008605C00086C
:100EB800C8000020E05500089C050020D40100204F
:100EC80004000020084B1B68084A1268934207D2A6
:100ED800591C054A1160064AD25C064B9A62704753
:100EE800044BAA229A62FAE7CC010020C80100202C
:100EF800C8000020006000400023034A1360034A32
:100F08001360034A13607047D0010020C801002015
:100F1800CC01002010B5234B9B691B070FD5214B33
:100F28009B695B0C5B00FF221340442B1AD01D4ABF
:100F3800D36908210B43D361FFF7DEFF10BD194BBE
:100F48009B69DB0616D4174B9B695B0718D4154BB6
:100F58009B699B0717D4134B9B699B0616D4114BAF
:100F68009B69EBE7FFF79CFC0E4AD36908210B430A
:100F7800D361E3E70B4AD36910210B43D361DDE763
:100F8800FFF794FCDAE7FFF79DFFD7E7054BDA692F
:100F980020210A43DA619B69DB07CFD4014B012288
:100FA8009A61CBE70060004010B5114BD9698022E7
:100FB80092000A43DA61D969802252000A43DA6151
:100FC800D9698022D2000A43DA61D96980225201A4
:100FD8000A43DA61D969802292010A43DA61D96940
:100FE800802212010A43DA61FFF786FF10BDC0466E
:100FF8000060004030B583B0C04A116B202319430C
:101008001163126B13400193019BBD4B1C681F2198
:101018008020C00180239B0105E0400001221A4086
:10102800104301395B08002BF7D18840FFF78CFA91
:10103800FF2318404000FC3B83409C431F21802035
:10104800C00180239B0105E0400001221A401043A3
:1010580001395B08002BF7D18840FFF775FAFF23A9
:1010680018404000FD3B83401C43A54B1C605C6A54
:101078001F214020202305E0400001221A40104390
:1010880001395B08002BF7D18840FFF75DFAFF2391
:1010980018408000F03B83409C431F2140202023C0
:1010A80005E0400001221A40104301395B08002B7B
:1010B800F7D18840FFF748FAFF2318408000FB3B30
:1010C80083401C438E4B5C629C681F218020C001BA
:1010D80080239B0105E0400001221A40104301399A
:1010E8005B08002BF7D18840FFF72EFAFF23184042
:1010F8004000FC3B83409C431F218020C00180238B
:101108009B0105E0400001221A40104301395B08A9
:10111800002BF7D18840FFF717FAFF23184040004B
:10112800FD3B83401C43764A9460536875490B40E5
:101138008020C00103435360D4681F2180239B0192
:1011480005E0400001221A40104301395B08002BDA
:10115800F7D18840FFF7F8F9FF2318404000FC3B1F
:1011680083409C431F218020C00180239B0105E010
:10117800400001221A40104301395B08002BF7D1C7
:101188008840FFF7E1F9FF2318404000FE3B834009
:101198001C435B4BDC601C681F21802000028023FD
:1011A800DB0105E0400001221A40104301395B08C9
:1011B800002BF7D18840FFF7C7F9FF2318404000FC
:1011C800FC3B83409C431F21802000028023DB01DD
:1011D80005E0400001221A40104301395B08002B4A
:1011E800F7D18840FFF7B0F9FF2318404000FD3BD6
:1011F80083401C43424B1C605C6A1F2180204023B3
:1012080005E0400001221A40104301395B08002B19
:10121800F7D18840FFF798F9FF2318408000F03B8A
:1012280083409C431F218020402305E04000012289
:101238001A40104301395B08002BF7D18840FFF7AB
:1012480083F9FF2318408000FB3B83401C432C4B51
:101258005C629C681F21802000028023DB0105E07E
:10126800400001221A40104301395B08002BF7D1D6
:101278008840FFF769F9FF2318404000FC3B834092
:101288009C431F21802000028023DB0105E04000F1
:1012980001221A40104301395B08002BF7D188401E
:1012A800FFF752F9FF2318404000FD3B83401C43E1
:1012B800134A9460536814490B408020000203438A
:1012C8005360D4681F218023DB0105E04000012220
:1012D8001A40104301395B08002BF7D18840FFF70B
:1012E80033F9FF2318404000FC3B83409C431F21F7
:1012F800802000028023DB010EE0C0460038024057
:1013080000140240FFBFFFFFFF7FFFFF40000122E4
:101318001A40104301395B08002BF7D18840FFF7CA
:1013280013F9FF2303405B00012002009A40144395
:10133800244BDC60244B196C802464042143196419
:101348001A6C22400092009A90241A591F491140A1
:101358008022D2030A431A511D4900231D4A8B5487
:10136800802424068C6001328B54C8601A4B1A689A
:1013780082431A60194A1A619A68D20AD20244252D
:101388002A439A609D68802212022A439A601A684A
:1013980002431A601A6808252A431A601A68083531
:1013A8002A431A601A6810352A431A601A681C3DC5
:1013B8002A431A601A68023D2A431A608C60C86082
:1013C80003B030BD0014024000380240FFFF3FFF69
:1013D80000E100E05F03000000600040050110002C
:1013E800F0B5DE4657464E464546E0B5BBB0D74B4E
:1013F80098462E220021180003F079FBD44CD922FC
:1014080092000021200003F072FB24220021D14821
:1014180003F06DFBFFF7AEF9CF4B012252421A6081
:10142800CE4B04321A60CE4E3268CE4B1A60282258
:101438000021CD4803F05BFB0125CC4B1D60CC4B54
:101448001D600027CB4B1F602B2314224146CA5432
:1014580001330A32CA5404334632E254403A103354
:10146800E254C54CA368CC3290469343A360A3686A
:10147800C24A1340A360A368C14A1340A360C1488D
:1014880003F08AF8C04BC14A5A60C149232240463A
:1014980088549F601C3A1A60236B2B432363236B89
:1014A8002B402293229B226B02231A432263226B36
:1014B80013402193219B226B04231A432263226B3E
:1014C80013402093209B226B08231A432263226B2C
:1014D80013401F931F9B226B10231A432263226B16
:1014E80013401E931E9B226B20231A432263226BF8
:1014F80013401D931D9BEF38FFF79CF90120FFF760
:10150800ABF9E120000302F051F9E1277F0238002E
:1015180002F06CFD9F4B9846180001F0EFFD404625
:1015280001F04EFF9620800102F040FB9A4802F03D
:10153800CBF80721994802F0CDF8FA2003F018F803
:10154800380002F033FB072209219548FFF7F6F827
:10155800944B1D70FFF74EFD80277F01924B3A0098
:10156800924931A803F01EF8914B3A0091492AA8F4
:1015780003F018F88422904BD200904923A803F076
:1015880011F88F48FFF712F808238E4A1D218E485C
:10159800FFF796F833688D4A944663440C93336892
:1015A8008B4A904698443368914699443768FA23A1
:1015B8009B009C466744636F1D4365676E4B5B6F7A
:1015C8009B07FBD5834B844A1A60844A1A60002221
:1015D8005A60834A9A607F4BDB68072211001940E2
:1015E8001A42F8D10B917B4B7E4A1A6013910D91E8
:1015F80012910F910E9110910023149300269B468F
:10160800CA46C146884600F0AEFC7748FEF7CEFFD2
:10161800FEF7B8FF7548FEF7C9FFFEF7B3FF504B5A
:101628001B686B4A91469944714C8023DB000093F8
:10163800230038AA39A96F4801F00AFD0500009077
:101648002300389A39996C48FEF7D8FF389B002B4D
:1016580001D100F0A0FC5C4B399A9A4201D000F00D
:101668009AFC634B1B78012B01D000F094FC3C4B97
:101678001A68120E1CAC22701A68120C62701A6872
:10168800120AA2701B68E3705C48FEF78FFF042102
:101698002000FEF7A5FF4848FEF788FF544B9A78CC
:1016A8002A4B1A74002F05D12D4B1F68FA239B0073
:1016B8009C4667442B004E4A38993998FFF700F842
:1016C80000F069FC4E48FEF771FF002401E0013488
:1016D800E4B2072C12D863001B199B00494A9B5C93
:1016E800DB07F4D563001919890088584008521897
:1016F800043208231D21FEF7C9FFE8E70B9F00F01D
:1017080052FC3B4C8023DB000093230038AA39A904
:101718003D4801F09DFC119000902300389A3999BA
:101728003A48FEF76BFF002323740D4B1B68284AC9
:1017380092469A44399B364A94466344062B00D90C
:101748007EE39B00334AD3589F46C0469C05002041
:10175800D4010020CC0500200000002090000020CB
:101768001C560020940000209800002098050020B6
:10177800C4000020C000002000380240FFE3FFFF43
:10178800FF1FFFFF0024F40010E000E07F3E000090
:1017980000ED00E020A1070000100140505C0008A7
:1017A800785C0008CA050020AC5B0008F83D002002
:1017B80010560008F82D002048570008F84D002062
:1017C8001456000820540008711800001027000063
:1017D80020BF020000300040CCCC0000555500006E
:1017E800EE0F0000AAAA00001C5600083456000894
:1017F8001C520020006400404C5600085C5600084B
:101808007856000838050020003400408C5600083F
:101818008EE7FFFFE05B0008DB4F7D782D023B7809
:101828001D432A00D94D2A80FC78240224B2BB78B3
:101838001C432C813B7916932B741592100060433E
:101848006421FEF795FD17902862FB791B02BF798A
:101858001F430A211598FEF701FD81B218916421F2
:101868003800FEF781FD069164213800FEF7F6FC8A
:10187800059016990491179A03920A212000FEF701
:101888005DFE09B202910A212000FEF771FD00B247
:1018980001900A211598FEF767FD89B20091189BFF
:1018A800BB4AFC218900BB4803F02AF92B7C1A1C8F
:1018B8004B2B00D94B22B44B1A7100225A71B34BEF
:1018C8003C329A5C40215B5C9A4202D3AE4B642264
:1018D8001A71B14B1B68002B01DA0123E6E1AF480E
:1018E800FEF764FEA84BAC4A12681A7100225A71BE
:1018F8000123DBE1A44A5479240224B213791C435E
:10190800D3791B021BB2927913431593002B00DC89
:1019180090E00023DBB219009C4A36231691D1547B
:10192800994F7D782D022DB23B781D430A2128005E
:10193800FEF71EFD02B217920A212800FEF7FEFDEF
:101948000AB21892FD782D022DB2BB781D430A21E8
:101958002800FEF70DFD02B219920A212800FEF7B1
:10196800EDFD0AB21A920A212000FEF701FD02B22B
:101978001B920A212000FEF7E1FD0DB20A211598FD
:10198800FEF7F6FC07B20A211598FEF7D7FD0BB251
:10199800169900295AD0824AFC2107920693059786
:1019A80004951B9B03931A9B0293199B0193189B05
:1019B8000093179B7B4A8900764803F0A1F8734A85
:1019C8003623D35C002B0CD02A21535E19001593C3
:1019D8006D4B99710912D9712824145F1C71221258
:1019E8005A71002C07D0621D14B2674B1A7122126B
:1019F8005A71664B9C85654B1C85159A5A851B7CCC
:101A08000A2B25D9614C256A21886748FEF7B0FC66
:101A18000700646A002C00D12C0000231800082B52
:101A28001EDC5A1C614D910049599B0059514018C0
:101A38001300F4E7002C01DD00236BE7534B1B7CFC
:101A4800092B01D8002365E7012363E7584AA3E778
:101A58005848FEF7ABFD4C4B00229A71DA71D1E77A
:101A6800524B5C6220180A21FEF782FC0500159093
:101A7800514B1B68514A12689B1A48D44E4B1B683D
:101A88004F4A944663444D4A136003211498FEF765
:101A98006FFCA8421BDD4B4B1B680133BB4200DDCA
:101AA8003B00484A1360394A4123D25C002A20D1BE
:101AB80000200100354B1A7C30255B5D9A4224D307
:101AC8000531814200DB87E0962314931FE0149BC5
:101AD800159A934209DA3B4B1B68022B03DB013B47
:101AE800384A1360DFE70223F9E73748FEF75EFD5F
:101AF800D9E7264B4621595A4820185A002301E0B5
:101B08000133DBB29A42FBD8D4E796231493E02141
:101B18002E4F2C4D64232A6853430293149B019340
:101B2800159B009323002A4A8900380002F0E8FF39
:101B38003800FEF73BFD154B28229A5E2B6893422E
:101B480000DA13001AB210490B7113124B710F4BC4
:101B58009A85204B1B68002B0DDB1CB20B4A3C21DD
:101B6800515C4020125C914205D2074A137123123E
:101B78005371064B9C85054B3C229A5C40215B5C6B
:101B88009A422CD2012391E01C520020D40100205B
:101B98009C5600082C52002004000020E45600083F
:101BA80004560008F456000898B700009800002072
:101BB800AC5B0008405700081C5600209400002029
:101BC800581B0000900000204C5700089C52002031
:101BD8006C570008000000200023149397E7A048E2
:101BE800FEF7E4FC9F4A0023137153719E4A9385C4
:101BF80001339E4A136059E09A490B784C78C878AB
:101C080000028D78CA7912028F793A4312044F790B
:101C18003F0209790F43FC213A430292284301907D
:101C28000094934A8900934802F06AFF8E4A36234B
:101C3800D35C002B00D105E18A4B0022DA709A7040
:101C4800012333E0874BDD782D029A781543864AC5
:101C5800D585197908003121159050545C790131E6
:101C680016945454DF793F0299790F4397865C782C
:101C7800240224B21B781C430A212000FEF778FBBB
:101C880003B217930497169A039215980290019538
:101C98000A212000FEF752FC09B20091179B764AF0
:101CA800FC218900734802F02BFF0123002B00D090
:101CB800CAE07048FEF77AFC0B9F7BE1694A5378CB
:101CC8001B0212781343FC216C4A8900694802F010
:101CD80017FF654A3623D35C002B03D0614B0022E3
:101CE8005A701A705F4B83221A710022DA719A7146
:101CF8005A7108231193073BD8E75A4B5C782202A4
:101D08001592187858493E228854DD782802169092
:101D18009D7817959878013288545F793C02189419
:101D28001F79033A8F54DA79120298793D240855BD
:101D380069461734091900240C5F1B781C436B464D
:101D480058215B1800215B5E179D1D436B4660217F
:101D58005B1800215B5E1F4312B2104315900A21E5
:101D68002000FEF705FB03B216930A211598FEF72B
:101D7800E5FB09B206910A211598FEF7F9FA00B2B7
:101D880005900A213800FEF7D9FB09B204910A210F
:101D98003800FEF7EDFA00B203900A212800FEF79A
:101DA800CDFB09B202910A212800FEF7E1FA00B240
:101DB80001900A212000FEF7C1FB09B20091169B91
:101DC8002F4AFC2189002B4802F09AFE0B9B6DE7F5
:101DD800244B5A7812021978DC78240224B29878B5
:101DE80004435F793F0218791590DD792D022DB2F1
:101DF8009B791D430A4316920A212800FEF79EFB91
:101E080009B204910A212800FEF7B2FA00B2039041
:101E18001598074302970A212000FEF78FFB09B2A5
:101E280001910A212000FEF7A3FA00B20090169B48
:101E3800144AFC2189000F4802F062FE0B9B35E72B
:101E48000B9B33E7012331E7064C21003998FEF755
:101E58009BFC119B220038993998FEF717FC28E75C
:101E6800B05700081C520020D40100209000002028
:101E7800F45700082C5200203458000880580008F5
:101E8800A0580008F458000823A802F0C9FC00284C
:101E980000D0BFE0109A002A03D0D84B1B689B1AC9
:101EA8001BD42AA802F0ACFBD548FEF77FFBD54827
:101EB80001F00AFC0421D44801F00CFCCF4B1B684C
:101EC800FA22920094466344109302239B46CB4B1C
:101ED8001B68CE4A944663440E934346002B05D0B4
:101EE800C64B1B6842469B1A00D497E20D9A002AFB
:101EF80004D0C24B1B689B1A00D49EE2C44B5B689B
:101F080080214901C91A31A802F05EFB022E00D1D6
:101F1800BCE200D9A0E2002E00D1AAE2012E1BD11A
:101F280031A802F06DFBBB48FEF740FBBA4C616874
:101F38002068FEF755FBB948FEF738FBB84801F0B2
:101F4800C3FB2068616801F0C5FBAC4B1B68AF4A56
:101F5800944663440F930226A84B1B680C9A9B1A5D
:101F680001D40B9B0C93AF4BAF4A1A60A34B1B6871
:101F78004A469B1A01D4FFF748FBA04B1B68524600
:101F88009B1A01D4FFF746FBA84801F04FF8002838
:101F980001D0FFF744FB002F05D0984B1B68DB1BD3
:101FA80001D4FFF78FFBA24801F040F8002801D0C8
:101FB800FFF7A7FB9F4B5B688421C900C91A23A8B8
:101FC80002F002FB9C4B5B6880214901C91A2AA8D0
:101FD80002F0FAFA5B46002B00D155E7013BDBB271
:101FE800032B00D979E72AA802F01AFC002830D17F
:101FF8000E9A002A00D170E7804B1B689B1A00D507
:102008006BE78E4B00225A620B9B0E9310930023B2
:102018009B4662E780228A4DD200290023A802F05D
:1020280015FC04008748FEF7C1FA21002800FEF7D6
:10203800C9FA744801F048FB2100280001F04AFB66
:102048002AA802F013FD23A802F0DDFA01239B461B
:102058003DE780227A4DD20029002AA802F0F6FB3B
:1020680004007948FEF7A2FA21002800FEF7AAFA30
:102078005B46032B00D115E1042B00D166E1022B4E
:1020880010D02AA802F0F2FC022C07D96C4C6F4938
:10209800200002F069FD844200D1BAE12AA802F0CA
:1020A800B2FAA5E72AA802F0E1FC1C90431C10D163
:1020B800022C07D9624C6549200002F055FD844284
:1020C80000D1D5E02AA802F0D1FC2AA802F09BFA98
:1020D8008EE75A4C60602AA802F0CDFCE06004222A
:1020E8001CA92AA802F02EFC04221CA92AA802F086
:1020F80029FC04221CA92AA802F024FC04221CA9F9
:102108002AA802F01FFC04221CA92AA802F01AFC23
:1021180004221CA92AA802F015FC04221CA92AA83A
:1021280002F010FC04221CA92AA802F00BFC0422CD
:102138001CA92AA802F006FC04221CA92AA802F05D
:1021480001FC04221CA92AA802F0FCFB04221CA9F9
:102158002AA802F0F7FB04221CA92AA802F0F2FB25
:1021680004221CA92AA802F0EDFB2AA802F07EFC92
:10217800431C08D0314B5B69834204D01F4B1A685B
:102188002E4B9A61586104221CA92AA802F0DAFB96
:102198002AA802F06BFC1C90431C01D0274B5874F2
:1021A8002AA802F063FC1C90431C01D0234BD86181
:1021B800224CE5686368642111931800FEF7D8F88B
:1021C80068431249FEF7D4F860628021626902927E
:1021D80001900095119B1E4AC900194802F090FC15
:1021E8001748FEF7E3F9E368002B33DB002B3BDDF0
:1021F800124B5B6A002B37DA30E0C0461C560020D1
:1022080040590008001401405059000810270000E8
:10221800406402404C5A0008CC050020485700088A
:102228000010014000300040AAAA000000640040ED
:10223800003400402860024028640240D401002095
:102248001C5200203059000858590008D05900087D
:1022580064590008D84A526A002AC7DDD748FEF7F1
:10226800A5F9D54B00225A622AA802F0CCF9BFE69C
:102278002AA802F0C5F9D248FEF798F9D14801F02A
:1022880023FA0521D04801F025FACB4A4223002140
:10229800D154CE4B1B68CE4A944663440E93032315
:1022A8009B46A5E60C2C06D9CA4DCB49280002F05E
:1022B8005BFC85420FD0022C06D9C64CC7492000CA
:1022C80002F052FC844226D02AA802F0CFFB2AA8AA
:1022D80002F099F98CE68025ED00BE4C2A00210019
:1022E8002AA802F02FFB2A0021002AA802F02AFBC4
:1022F800B14C4225635D28215943403109190A31FF
:1023080021222AA802F01EFB635D013363552AA827
:1023180002F079F96CE62AA802F072F9B048FEF7E3
:1023280045F9A84801F0D0F90521AE4801F0D2F9E5
:10233800A14B4222995C013A9954A44B1B68A44AC8
:10234800944663440E9304239B4651E62AA802F060
:102358008DFB451E984A4123D35CAB4201D9132D0E
:102368000FD9022C06D99B4C9C49200002F0FCFB9B
:10237800844243D02AA802F079FB2AA802F043F944
:1023880036E62AA802F072FB2AA802F06FFB2AA8F8
:1023980002F06CFB2AA802F069FB2AA802F066FB8F
:1023A8002AA802F063FB28235D43834B5D192B00A9
:1023B800463318802AA802F059FB2B0048331880AE
:1023C8002AA802F053FB2AA802F050FB2AA802F020
:1023D8004DFB2AA802F04AFB2B00443318702AA8A8
:1023E80002F044FB2AA802F041FB2AA802F03EFBB7
:1023F800453528702AA802F006F9F9E52AA802F05E
:10240800FFF87948FEF7D2F80B9B0E9300239B4602
:10241800EEE50B9B109300239B463FE60120FEF759
:1024280009FA7248FEF7C2F8684B1B68704A94466E
:10243800634412930B9B984658E50120FEF70CFA6B
:102448006C48FEF7B3F8614B1B68694A94466344CD
:1024580013930B9B0D9351E5F31EDBB2012B00D9AF
:102468007AE55A4B1B680F9A9B1A00D58FE3002612
:1024780072E5FEF751F9032801D001266CE55E4AA2
:1024880007215E48FEF75AF9012665E531A802F0F2
:102498008CF95B4B9A68904230D2FEF73DF90328DD
:1024A80000D159E5494B1B680F9A9B1A00D553E593
:1024B8005448FEF77BF8454B1B68FA229200944675
:1024C80063440F9331A802F08EF8FEF713F94E4BD0
:1024D80000221A609620800101F068FB4B4801F049
:1024E800F3F807214A4801F0F5F8FA2002F040F81D
:1024F800E120400201F05AFB03262DE5354931A8B9
:1025080002F05DF91C903E4B9B68984200D28DE02A
:102518004048FEF74BF83A4B99682E4C2000FEF7DE
:102528005FF83D48FEF742F82378AA2B04D1294BDF
:102538005B78552B00D197E03848FEF737F8384CD0
:1025480020000E300121FEF74BF83648FEF72EF832
:1025580020000F300121FEF743F82F48FEF726F838
:10256800E37B022B1CD9144B1B7C2D492C228A5C43
:1025780093420CD8104A2820115E2A20125E9142FC
:1025880005DB0D4930228A5C934200D2CBE2264B10
:102598001B68002B04D0224B9B7B022B00D1ADE2A1
:1025A8000A4B1B68FA229200944663440F93FEF785
:1025B800A1F80326D0E4C046D4010020A45900089D
:1025C800D459000800140140E85900081C5600209E
:1025D800102700001C520020F0590008D0590008AC
:1025E800005A0008145A00081C5A00082C5A0008FF
:1025F800B80B00003C5A00085F020000585C000855
:10260800CC050020D05B00088C00002000100140A1
:10261800505C00086C5A000848570008485B0008DE
:102628009C0500205C5B0008C4000020DD48FDF725
:10263800BDFF04211CA8FDF7D3FF31A802F0B5F8AF
:102648001C9004211CA8FDF7CBFFD748FDF7AEFF6F
:1026580031A801F0C8FFD54B1B68F533FF330F9342
:10266800FEF748F8042677E4D14B9B785F2B00D01F
:1026780062E7CF4BDB78812B00D05DE7CC4B1B7931
:10268800902B00D058E7CA4B997A090209B25A7AB6
:102698001143C84AD182997B0902587B01430F91A3
:1026A8001180197C0902D87B014311915180997CD2
:1026B8000902587C0143159191801E7D3602D97C10
:1026C8000E43D680997D0902587D014316911181E8
:1026D800197E0902D87D014317915181597E937B58
:1026E800994202D013000022DA73B24B9973DB7B54
:1026F800FF2B02D00133AF4AD373AD4C2622A35C23
:102708001B021BB22521615C0B43AA4DAB8128201B
:10271800235C1B021BB22721625C1343AB822A2372
:10272800E35C1B022922A25C13436B823823E35C1F
:102738001B023722A25C13436B833E23E35C1B021C
:102748003D22A25C13432B844023E35C1B023F22FF
:10275800A25C1343EB834223E35C1B024122A25C8D
:102768001343AB834623E35C1B021BB24522A25CE6
:1027780013432B83CB23E35C2B54CC23E35C6B54B4
:10278800CD23E35C2622AB54CE23E35C02396B54A1
:10279800CF23E25CAB3BEA54AC33E35CFA22D200D1
:1027A800944663446B841B393000FDF7DDFD89B224
:1027B80008910A213000FDF751FD80B207900A21E7
:1027C800119E3000FDF7D0FD89B206910A21300034
:1027D800FDF744FD80B20590179B04930A21159ECE
:1027E8003000FDF7C1FD89B203910A213000FDF7E1
:1027F80035FD80B202900A210F9E3000FDF7B4FD2E
:1028080089B201910A213000FDF728FD80B20090BD
:10281800169B694A8021C900200002F071F9200046
:10282800FDF7C4FE1622AB5E18216A5E2020295EE1
:102838001A26A85F029001910092604A8021C9007F
:10284800200002F05DF92000FDF7B0FE2A885C4BFD
:102858009A4204D8574B5B8859498B4206D9594B41
:1028680047221A605848FDF7A1FEF1E651491620A3
:10287800095E002918D1002A16D1002B14D14D4920
:102888000C20095E00290FD14A491E20095E002943
:102898000AD148491A20095E002905D1454918205E
:1028A800095E002900D1A1E0464900200860D3183C
:1028B800FA2149008B4200DCF4E01299814204D0ED
:1028C8003A4B1B685B1A834217DBE1239B009A4251
:1028D80005D3384B1B89013B9BB2172B0DD83B48BE
:1028E800FDF764FE0020FDF7A5FF304B1B68FA22B8
:1028F800D200904698440B9B1293139A002A03D057
:102908002A4B1B689B1A1AD42A4B5A88E1239B002E
:102918009A4205D3274B5B89013B9BB2172B0ED8F4
:102928002B48FDF743FE0020FDF796FF1F4B1B6861
:10293800FA22D200944663440D930B9B1393254BC4
:102948001B7C612B59D8152B00D87EE01C2B00D896
:10295800F2E51C4B06221A601F48FDF727FEFDF71B
:10296800DBFE002800D1E7E51C4B1B78012B00D1CA
:10297800E2E50C9B002B00D0DEE5194B1B68002B11
:1029880000D1D9E5072209211648FDF7D7FE134BD8
:1029980001221A70054B1B68134A944663440C9332
:1029A800CAE5C046585A0008485700081C56002077
:1029B8001C5200209C050020785A0008AC5A0008D8
:1029C800701700008C000020E05A0008F85A000830
:1029D800085B0008D4010020305B0008CA0500200D
:1029E80098050020785C0008102700006C4B4E32D8
:1029F8001A606C48FDF7DAFD2AE6694B03221A6073
:102A08006948FDF7D3FD694B1B78012B00D193E58D
:102A1800FDF782FE002800D18EE50C9B002B00D02C
:102A28008AE5634B1B68002B00D185E50722092145
:102A38006048FDF783FE5D4B01221A705E4B1B68F0
:102A48005E4A944663440C9376E5554B08221A6017
:102A58005B48FDF7ABFDFDF75FFE012800D86BE58D
:102A6800524B1B78032B00D166E50C9B002B00D042
:102A780062E54F4B1B68002B00D15DE50722092159
:102A88005048FDF75BFE072209214F48FDF756FE27
:102A9800464B03221A70484B1B68484A94466344C5
:102AA8000C9349E54346002B00D045E53C4B0722F3
:102AB8001A604648FDF77AFDFDF72EFE002800D182
:102AC8003AE53A4B1B78012B00D135E50C9B002BDE
:102AD80000D031E5364B1B68002B00D12CE50722CE
:102AE80009213448FDF72AFE304B01221A70324B77
:102AF8001B68324A944663440C931DE52C4B1B68B3
:102B0800002B04D0294B1B78012B00D048E5304816
:102B1800FDF74CFD0120FDF7B1FE2E4B0022DA73C4
:102B2800254B1B683CE52B492B228A5C934210D825
:102B3800294B1B68002B00D132E52848FDF736FDEC
:102B48000020FDF79BFE234B0022DA731A4B1B680B
:102B580026E5204B9B7B052B03D8032B00D21FE5D2
:102B680004E0093BDBB2012B00D919E51A4B1B68BD
:102B7800002B00D114E51A48FDF718FD0020FDF7D9
:102B88007DFE144B0022DA730B4B1B6808E5FDF73A
:102B9800C3FD032801D1FFF7DFF90026FFF7DCF9B1
:102BA8008C000020EC5A0008185B0008CA050020B9
:102BB80098050020785C00081C56002010270000AB
:102BC800245B00086C5C0008445C00083C5B00085F
:102BD800685B00089C050020C4000020905B00088A
:102BE800B05B0008DFF834D00D480E490E4A0023C8
:102BF80002E0D458C4500433C4188C42F9D30B4AA9
:102C08000B4C002301E013600432A242FBD301F015
:102C1800ADFC01F035FF01F0A5FC7047000008206D
:102C28000000002070000020CC5C0008700000202C
:102C380030560020F0B583B006001D00089CC3681C
:102C48009B070CD103690327380018401F4201D0A5
:102C5800012705E0002A4ED0002313604BE000272F
:102C6800002A11D03B001B331B019B595B072FD552
:102C78001D201060002907D03B001B331B019B5906
:102C88002022121AD3400B603B001B331B01F318A0
:102C98005A680F231340A34206D83B001B331B017D
:102CA800F3185B680F241C40002D26D00822002151
:102CB800684601F01CFF3B01F3181A00B932FF32D5
:102CC80012680092BD33FF331B68019300220BE0AA
:102CD8000B20CEE793089B0069465B5803211140FF
:102CE800C900CB40AB540132A242F3D32000002FDD
:102CF80005D0012F08D003B0F0BD0020F7E7F36836
:102D080020221343F360F6E733692022134333612B
:102D1800F1E70000034B984201D0002070470120E2
:102D2800FCE7C04600340040F0B585B006000191CC
:102D38001F00032100E01900B068E0235B0518427A
:102D480019D1B369FF20184210D0B3683648184328
:102D5800B060B468344D2C40AC42FAD04B1EDBB2A4
:102D68000029E8D10520404205B0F0BDB068E02355
:102D78005B0518424FD0B3681B0E03241C40032C7C
:102D88004CD00B2A04D01D2A18D003204042EBE770
:102D9800019B5905230018331B0199510A9B082BE5
:102DA8003FD8230018331B01F3180A9A5A600822E7
:102DB800002102A801F09BFE002316E0019BD90028
:102DC80004231943230018331B019951E6E7990896
:102DD800F85C03221A40D20090408A0002A9515898
:102DE8000191084302A9505001330A9A9342EED345
:102DF8002301F3181A008932FF32029911608D33CA
:102E0800FF33039A1A6018342401A359012213438B
:102E1800A3510A98A8E701204042A5E702204042B2
:102E2800A2E7042040429FE78080800010B5034A53
:102E38000021034801F05BFE10BDC04608280000D1
:102E4800F0050020F0B5D6464F464646C0B504000A
:102E58000D001600FFF7EAFF2300C82202E0002257
:102E680004C30A00511E002AF9D123680132134312
:102E780023606368DB07FCD5374B9D4204D0374B92
:102E88009D4201D0364BE36123682022134323601F
:102E9800002E5CD02368103A9343236023680822ED
:102EA8001343236080239B009946E25801231A4369
:102EB8004946625087229200A1589943A150812126
:102EC80089008C4661589943604621508327BF008A
:102ED800E1599943E1518526B600A1599943A15179
:102EE80000218A4690218900504660500431605084
:102EF800A1581943A150A158884602214046884349
:102F0800A050604620588843804660464546255074
:102F1800E0590843E051A7598F43A751343650462A
:102F2800A0510436A051A5582943A1506269122125
:102F38000A4362614A46A2589A4349466250226847
:102F48009A432260E0BCBA46B146A846F0BD236861
:102F5800102213432360A1E7A086010040420F001E
:102F680001001C00F0B5CE46474680B583B08146C7
:102F7800FFF7D0FE040083001B181B021B189B00E0
:102F8800194A9F58FF2F27D8174E85002D182D0254
:102F98002B189B007A1C9A51BB009846D9198900B6
:102FA8002B189B00C9180B0008339B190433891987
:102FB8000A0008320431082000904846FFF73AFE1C
:102FC8004744BF002D19AD007F19F719786103B088
:102FD800C0BCB946B046F0BD0023009300220021D2
:102FE8004846FFF727FEF2E7F005002010B5024833
:102FF800FFF7B8FF10BDC0460064004010B5024896
:10300800FFF7B0FF10BDC0460064004010B502488D
:10301800FFF7A8FF10BDC0460034004010B50248B5
:10302800FFF7A0FF10BDC0460034004010B5FFF701
:1030380071FE83001B181B021B189B00034958587C
:10304800002801D0CA18506910BDC046F0050020FC
:10305800F0B583B00D0017000193FFF75BFE060083
:103068008400241824022418A400234BE358002BBE
:1030780001D0012805D900233B600027380003B0A0
:10308800F0BD83001B181B021B189B001A4AD3189B
:103098005A682A609A683A605F69089B9F4200D91B
:1030A8001F00B400A4192402A11989000831124D87
:1030B800491904313A00019801F006FD72B6A319C6
:1030C8009B005A59013A1C005A51FF2A01D962B68D
:1030D800D4E7B3009B191B022000074C00190430E9
:1030E8009B199B0014331919043193009A18920004
:1030F80001F0EAFCEBE7C046F005002010B582B00D
:103108000100A94A106C8024A40420431064136CA5
:1031180023400193019B0022A448FFF793FEA44B90
:103128001C681F2180204000802305E04000012208
:103138001A40104301395B08002BF7D18840FDF78E
:1031480003FAFF2318404000FC3B83409C431F21A7
:1031580080204000802305E0400001221A401043EF
:1031680001395B08002BF7D18840FDF7EDF9FF2303
:1031780018404000FD3B83401C438D4A1460536A4D
:103188000F218B4306390B43536294681631802014
:103198004000802305E0400001221A401043013915
:1031A8005B08002BF7D18840FDF7CEF9FF231840C4
:1031B8004000FC3B83409C431F218020400080232B
:1031C80005E0400001221A40104301395B08002B3A
:1031D800F7D18840FDF7B8F9FF2318404000FD3BC0
:1031E80083401C43724B9C605A6872490A405A607B
:1031F800DC682131FF3180204000802305E0400059
:1032080001221A40104301395B08002BF7D188408E
:10321800FDF79AF9FF2318404000FC3B83409C438C
:10322800802300E05B08002BFCD1614BDC601C684C
:103238001F218020800080235B0005E040000122E0
:103248001A40104301395B08002BF7D18840FDF77D
:103258007BF9FF2318404000FC3B83409C431F211F
:103268008020800080235B0005E0400001221A4096
:10327800104301395B08002BF7D18840FDF764F94A
:10328800FF2318404000FD3B83401C43484B1C6013
:103298005C6A1F210220012305E0400001221A4038
:1032A800104301395B08002BF7D18840FDF74CF932
:1032B800FF2318408000F03B83409C431F210220DD
:1032C800012305E0400001221A40104301395B0840
:1032D800002BF7D18840FDF737F9FF23184080000D
:1032E800F63B83401C43324B5C629C681F21802064
:1032F800800080235B0005E0400001221A40104353
:1033080001395B08002BF7D18840FDF71DF9FF2331
:1033180018404000FC3B83409C431F2180208000D4
:1033280080235B0005E0400001221A401043013968
:103338005B08002BF7D18840FDF706F9FF231840FA
:103348004000FD3B83401C43194B9C605A681A4956
:103358000A405A60DC681F218020800080235B00BF
:1033680005E0400001221A40104301395B08002B98
:10337800F7D18840FDF7E8F8FF2318404000FC3BF0
:1033880083409C4380235B0000E05B08002BFCD15A
:10339800074BDC60094B802252031A60802292039B
:1033A8001A6002B010BDC0460038024000640040F8
:1033B80000040240FFFEFFFFFFFDFFFF00E100E009
:1033C80010B582B00100B44A106C8024A4012043D7
:1033D8001064136C23400193019B0022AF48FFF750
:1033E80031FDAF4B1C681F210820042305E0400075
:1033F80001221A40104301395B08002BF7D188409D
:10340800FDF7A2F8FF2318404000FC3B83409C4393
:103418001F210820042305E0400001221A40104320
:1034280001395B08002BF7D18840FDF78DF8FF23A1
:1034380018404000FD3B83401C43994B1C601C6AAC
:103448001F210820042305E0400001221A401043F0
:1034580001395B08002BF7D18840FDF775F8FF2389
:1034680018408000F03B83409C431F210820042320
:1034780005E0400001221A40104301395B08002B87
:10348800F7D18840FDF760F8FF2318408000F43B2F
:1034980083401C43824B1C629C681F210820042324
:1034A80005E0400001221A40104301395B08002B57
:1034B800F7D18840FDF748F8FF2318404000FC3B4F
:1034C80083409C431F210820042305E0400001227B
:1034D8001A40104301395B08002BF7D18840FDF7EB
:1034E80033F8FF2318404000FD3B83401C436C4BDE
:1034F8009C605A6808218A435A60DC6817310820A2
:10350800042305E0400001221A40104301395B08FA
:10351800002BF7D18840FDF717F8FF23184040002B
:10352800FC3B83409C43042300E05B08002BFCD158
:103538005B4BDC601C681F211020082305E040005D
:1035480001221A40104301395B08002BF7D188404B
:10355800FCF7FAFFFF2318404000FC3B83409C43E4
:103568001F211020082305E0400001221A401043C3
:1035780001395B08002BF7D18840FCF7E5FFFF23F2
:1035880018404000FD3B83401C43454B1C601C6AAF
:103598001F211020082305E0400001221A40104393
:1035A80001395B08002BF7D18840FCF7CDFFFF23DA
:1035B80018408000F03B83409C431F2110200823C3
:1035C80005E0400001221A40104301395B08002B36
:1035D800F7D18840FCF7B8FFFF2318408000F43B80
:1035E80083401C432E4B1C629C681F21102008231B
:1035F80005E0400001221A40104301395B08002B06
:10360800F7D18840FCF7A0FFFF2318404000FC3B9F
:1036180083409C431F211020082305E0400001221D
:103628001A40104301395B08002BF7D18840FCF79A
:103638008BFFFF2318404000FD3B83401C43184B81
:103648009C605A6810218A435A60DC680F31102048
:10365800082305E0400001221A40104301395B08A5
:10366800002BF7D18840FCF76FFFFF23184040007C
:10367800FC3B83409C43082300E05B08002BFCD103
:10368800074BDC60074B80229200DA608022D20070
:10369800DA6002B010BDC046003802400034004075
:1036A8000004024000E100E010B50248FCF77EFF8C
:1036B80000BEFEE7845C0008024A13680133136009
:1036C8007047C0461C560020014B18607047C04622
:1036D8001852002030B5184B1A68FA239B009C46F4
:1036E8006244164B1B68DB0708D5144B5B681B0448
:1036F80004D0114B1B689B1AF3D430BD104A936851
:103708008024A34393600C4B1D68FA239B009C46BE
:10371800654403E002789A62013021004C1E0029BA
:10372800EBD0084B1B68DA691206F3D4024B1B680E
:103738005B1BF6D4E1E7C0461C56002058600240E7
:10374800004800401852002010B50400FCF774FD32
:1037580001002000FFF7BEFF10BD092802D8303055
:10376800C0B270475730C0B2FBE730B583B0040031
:1037780001AB00225A7014E020780009FFF7EDFF32
:103788006B46187101A8FFF7DFFF23780F20184058
:10379800FFF7E3FF6B46187101A8FFF7D5FF013467
:1037A80029004D1E0029E7D103B030BD70B582B0A5
:1037B8000400C84B196B80208003014319631A6BFE
:1037C80002400192019A1A6C8021C9020A431A64C4
:1037D8001B6C0B400093009BBF4B1A68BF491140FC
:1037E800BF4A0A431A60BF48BF491A68C02313403A
:1037F800402B27D0B84B9860D960B74B5A68120C49
:1038080012048421C9000A435A601A68B74E32402C
:10381800802109050A431A601A68012002431A60C8
:10382800B34B1868AD4D0540B248284318601A6874
:10383800324011431960B04B1D681F2180204000A1
:10384800802309E0A44BD8609960D6E740000122A4
:103858001A40104301395B08002BF7D18840FCF768
:1038680073FEFF2318404000FC3B83409D431F210B
:1038780080204000802305E0400001221A401043C8
:1038880001395B08002BF7D18840FCF75DFEFF2368
:1038980018404000FD3B83401D43974A1560536A1A
:1038A8000F218B4308390B435362956818318020E8
:1038B8004000802305E0400001221A4010430139EE
:1038C8005B08002BF7D18840FCF73EFEFF23184029
:1038D8004000FC3B83409D431F2180204000802303
:1038E80005E0400001221A40104301395B08002B13
:1038F800F7D18840FCF728FEFF2318404000FD3B25
:1039080083401D437C4B9D605A687C490A405A603D
:10391800DD682131FF3180204000802305E0400030
:1039280001221A40104301395B08002BF7D1884067
:10393800FCF70AFEFF2318404000FC3B83409D43F0
:103948001F2180204000802305E0400001221A400A
:10395800104301395B08002BF7D18840FCF7F4FDD0
:10396800FF2318404000FE3B83401D43624BDD604F
:103978001D681F218020800080235B0005E0400037
:1039880001221A40104301395B08002BF7D1884007
:10399800FCF7DAFDFF2318404000FC3B83409D43C1
:1039A8001F218020800080235B0005E04000012269
:1039B8001A40104301395B08002BF7D18840FCF707
:1039C800C3FDFF2318404000FD3B83401D434A4B85
:1039D8001D605D6A1F210220012305E040000122CD
:1039E8001A40104301395B08002BF7D18840FCF7D7
:1039F800ABFDFF2318408000F03B83409D431F210F
:103A08000220012305E0400001221A401043013939
:103A18005B08002BF7D18840FCF796FDFF23184080
:103A28008000F83B83401D43334B5D629D681F2136
:103A38008020800080235B0005E0400001221A40BE
:103A4800104301395B08002BF7D18840FCF77CFD57
:103A5800FF2318404000FC3B83409D431F218020EA
:103A6800800080235B0005E0400001221A401043DB
:103A780001395B08002BF7D18840FCF765FDFF236F
:103A880018404000FD3B83401D431B4B9D605A6816
:103A98001B490A405A60DD681F218020800080236E
:103AA8005B0005E0400001221A40104301395B0821
:103AB800002BF7D18840FCF747FDFF231840400052
:103AC800FC3B83409D431F218020800080235B00B6
:103AD8001EE0C04600380240286002401F80FCFFFC
:103AE8000005020024480040F84D0020FFFFFFE1D8
:103AF8005860024040040200000C0240FFFEFFFF35
:103B0800FFFDFFFF400001221A40104301395B0806
:103B1800002BF7D18840FCF717FDFF2303405B001B
:103B2800012632009A4015431A4BDD601A4990224B
:103B38008B58302083438B50184D2B68843A93431D
:103B480013432B602B68164A13402B606B68154A89
:103B580013406B60144B18686308C0182100FCF709
:103B68007DFB0004000CE8602B681E432E600B4BA5
:103B7800DB699B02FBD5094BDB695B02F7D5074B79
:103B88009A6840210A439A609A6840318A439A6049
:103B980002B070BD000C02400038024000480040EE
:103BA800FFE9FFEFFFCFFFFF0800002070B584B0EA
:103BB8000400D64B196B8020C003014319631A6BAC
:103BC80002400392039A596C1022114359645B6CAA
:103BD8001A400292029BCE4A136801210B431360DC
:103BE800CC4B1A688A431A601A68CB491140CB4AF1
:103BF8000A431A60CA48CB491A68C0231340402BAD
:103C08001BD0C44B9860D960C24B5A68120C12047E
:103C1800802149010A435A601A68C3491140802229
:103C280012050A431A601A6801210A431A60BF4B39
:103C38001D681E314020202309E0B64BD8609960EA
:103C4800E2E7400001221A40104301395B08002BCB
:103C5800F7D18840FCF778FCFF2318404000FC3B74
:103C680083409D431F214020202305E0400001227E
:103C78001A40104301395B08002BF7D18840FCF744
:103C880063FCFF2318404000FD3B83401D43A74BC6
:103C98001D601D6A1F214020202305E040000122ED
:103CA8001A40104301395B08002BF7D18840FCF714
:103CB8004BFCFF2318408000F03B83409D431F21AD
:103CC8004020202305E0400001221A40104301391A
:103CD8005B08002BF7D18840FCF736FCFF2318401F
:103CE8008000F83B83401D43904B1D629D681F2157
:103CF8004020202305E0400001221A4010430139EA
:103D08005B08002BF7D18840FCF71EFCFF23184006
:103D18004000FC3B83409D431F214020202305E0B9
:103D2800400001221A40104301395B08002BF7D1EB
:103D38008840FCF709FCFF2318404000FD3B834006
:103D48001D437A4B9D605A6840218A435A60DD685A
:103D580021394020202305E0400001221A40104369
:103D680001395B08002BF7D18840FCF7EDFBFF23F6
:103D780018404000FC3B83409D431F2140202023E6
:103D880005E0400001221A40104301395B08002B6E
:103D9800F7D18840FCF7D8FBFF2318404000FE3BD2
:103DA80083401D43614BDD601D681F218020000298
:103DB8008023DB0105E0400001221A40104301394D
:103DC8005B08002BF7D18840FCF7BEFBFF231840A7
:103DD8004000FC3B83409D431F218020000280233C
:103DE800DB0105E0400001221A40104301395B085D
:103DF800002BF7D18840FCF7A7FBFF2318404000B1
:103E0800FD3B83401D43494B1D605D6A1F21802097
:103E1800402305E0400001221A40104301395B08A5
:103E2800002BF7D18840FCF78FFBFF231840800058
:103E3800F03B83409D431F218020402305E0400044
:103E480001221A40104301395B08002BF7D1884042
:103E5800FCF77AFBFF2318408000FB3B83401D439F
:103E6800324B5D629D681F21802000028023DB01A8
:103E780005E0400001221A40104301395B08002B7D
:103E8800F7D18840FCF760FBFF2318404000FC3B5B
:103E980083409D431F21802000028023DB0105E031
:103EA800400001221A40104301395B08002BF7D16A
:103EB8008840FCF749FBFF2318404000FD3B834046
:103EC8001D431A4B9D605A6819490A405A60DD68BB
:103ED8001F21802000028023DB0105E04000012231
:103EE8001A40104301395B08002BF7D18840FCF7D2
:103EF8002BFBFF2318404000FC3B83409D431F21C0
:103F0800802000028023DB011AE0C046003802400E
:103F180000100140406402401F80FCFF00050200C1
:103F280024100140F83D0020FFFFFFE1000402409B
:103F3800FF7FFFFF400001221A40104301395B0850
:103F4800002BF7D18840FCF7FFFAFF2303405B0002
:103F5800012632009A4015431E4BDD601E4B596CFA
:103F6800102211435964596C0A400192019A902118
:103F78005A58032082435A50184D2B680C229343F9
:103F880013432B602B68164A13402B606B68154A45
:103F980013406B60144B18686308C0182100FCF7C5
:103FA8005DF90004000CE8602B681E432E600B4B83
:103FB800DB699B02FBD5094BDB695B02F7D5074B35
:103FC8009A6840210A439A609A6840318A439A6005
:103FD80004B070BD000402400038024000100140E7
:103FE800FFE9FFEFFFCFFFFF0800002030B585B0E5
:103FF8000400CE4B196B8020C003014319631A6B70
:1040080002400392039A596C2022114359645B6C55
:104018001A400292029BC64B1A6801218A431A6011
:104028001A68C4491140C44A0A431A60C348C449BB
:104038001A68C0231340402B1BD0BD4B9860D96031
:10404800BB4B5A68120C1204802149010A435A607A
:104058001A68BC491140A02212050A431A601A685E
:1040680001210A431A60B84B1D681E3140202023E5
:1040780009E0AF4BD8609960E2E7400001221A409E
:10408800104301395B08002BF7D18840FCF75CFA34
:10409800FF2318404000FC3B83409D431F214020E4
:1040A800202305E0400001221A40104301395B0833
:1040B800002BF7D18840FCF747FAFF23184040004F
:1040C800FD3B83401D43A04B1D601D6A1F214020FE
:1040D800202305E0400001221A40104301395B0803
:1040E800002BF7D18840FCF72FFAFF2318408000F7
:1040F800F03B83409D431F214020202305E04000E2
:1041080001221A40104301395B08002BF7D188407F
:10411800FCF71AFAFF2318408000F73B83401D4341
:10412800894B1D629D681F214020202305E0400027
:1041380001221A40104301395B08002BF7D188404F
:10414800FCF702FAFF2318404000FC3B83409D43E4
:104158001F214020202305E0400001221A4010437F
:1041680001395B08002BF7D18840FCF7EDF9FF23F4
:1041780018404000FD3B83401D43734B9D605A68C7
:1041880040218A435A60DD6821394020202305E018
:10419800400001221A40104301395B08002BF7D177
:1041A8008840FCF7D1F9FF2318404000FC3B8340CE
:1041B8009D431F214020202305E0400001221A4092
:1041C800104301395B08002BF7D18840FCF7BCF994
:1041D800FF2318404000FD3B83401D435A4BDD60E0
:1041E8001D681F218020402305E0400001221A405D
:1041F800104301395B08002BF7D18840FCF7A4F97C
:10420800FF2318404000FC3B83409D431F21802032
:10421800402305E0400001221A40104301395B08A1
:10422800002BF7D18840FCF78FF9FF231840400096
:10423800FD3B83401D43444B1D601D6A1F218020A8
:10424800402305E0400001221A40104301395B0871
:10425800002BF7D18840FCF777F9FF23184080003E
:10426800F03B83409D431F218020402305E0400010
:1042780001221A40104301395B08002BF7D188400E
:10428800FCF762F9FF2318408000F73B83401D4389
:104298002D4B1D629D681F218020402305E04000B2
:1042A80001221A40104301395B08002BF7D18840DE
:1042B800FCF74AF9FF2318404000FC3B83409D432C
:1042C8001F218020402305E0400001221A401043AE
:1042D80001395B08002BF7D18840FCF735F9FF233B
:1042E80018404000FD3B83401D43174B9D605A68B2
:1042F80080218A435A60DD6861398020402305E0C7
:10430800400001221A40104301395B08002BF7D105
:104318008840FCF719F9FF2318404000FC3B834014
:104328009D431F218020402316E0C04600380240EC
:10433800286402401F80FCFF00050200241401408D
:10434800F82D0020FFFFFFE1000802404000012295
:104358001A40104301395B08002BF7D18840FCF75D
:10436800F3F8FF2318404000FD3B83401D43264BD4
:10437800DD60264B596C202211435964596C0A4060
:104388000192019A90215A58214802405A50214DD1
:104398002B680C22934313432B606B681E4A1A4008
:1043A80080235B0213436B606B681C4A1A408023AE
:1043B8009B0213436B602B68194A13402B606B6890
:1043C800184A13406B60184B18686308C01821001E
:1043D800FBF744FF0004000CE8602B68012213433C
:1043E8002B600C4BDB699B02FBD50A4BDB695B023C
:1043F800F7D5084B9A6840210A439A609A68403179
:104408008A439A6005B030BD000802400038024077
:10441800FFF3FFFF00140140FFFFFEFFFFFFFDFF5A
:10442800FFE9FFEFFFCFFFFF08000020F0B5C64609
:1044380000B51600474B9C466044850201248C4019
:104448002B689846670820003B001F2105E04000C4
:1044580001221A40104301395B08002BF7D188402C
:10446800FCF772F8FF2318404000FC3B83404246AB
:104478009A43904620001F2205E0400001233B405C
:104488001843013A7F08002FF7D19040FCF75CF8F9
:10449800FF2318404000FE3B834042461A432A60EF
:1044A800AB689846670820003B001F2105E04000E4
:1044B80001221A40104301395B08002BF7D18840CC
:1044C800FCF742F8FF2318404000FC3B834042467B
:1044D8009A43904620001F2205E0400001233B40FC
:1044E8001843013A7F08002FF7D19040FCF72CF8C9
:1044F800FF2318404000FD3B834042461A43AA6010
:10450800EB689846670820003B001F2105E0400043
:1045180001221A40104301395B08002BF7D188406B
:10452800FCF712F8FF2318404000FC3B834042464A
:104538009A43130000E07F08002FFCD1EB60002EA7
:1045480005D000239C40AC6180BCB846F0BD102368
:10455800F8E7C04680001000014B18687047C04655
:104568001C56002010B5FCF73BFFFCE77047000025
:1045780082B0084B1B680193019B431C00D001309B
:10458800002805D0034B1B68DB03F9D50138F7E792
:1045980002B0704710E000E0014B18607047C04659
:1045A80008000020F8B504000E0015001F001C22AA
:1045B800002100F09CFA2A000021300000F097FA50
:1045C80066606561A760F8BD70B5040008002569DC
:1045D8006169FBF7C9FE2161A94200D170BDFFF7EF
:1045E800BBFF2060FAE710B504004269002140686B
:1045F80000F07DFA00232360E3602361A36110BD0E
:104608000369C360704770B50400C068A669F30702
:104618000ED42569854223D063681B5C0A2B17D00A
:1046280001306169FBF7A0FE08008D42F4D117E064
:104638002369834214D063681B5C0A2B10D1093BA1
:104648001E43A66101306169FBF78EFEE16007E059
:10465800093B1E43A66101306169FBF785FEE160F5
:1046680070BDF0B5DE4657464E464546E0B585B0C6
:104678000600894693460393C06813689C466044C5
:104688007169FBF771FE0D00B068FBF7D5FD01906D
:104698003369AB426FD073685B194A4613600023D5
:1046A800029311E0013202926B1CE4184B461C6025
:1046B80001357369AB4244D0F268AA4265D03269C9
:1046C800AA4265D0AB4253D9019B1A00013B002A8C
:1046D800EED074686119625DB068C75CBA42F4D103
:1046E800884673699A465819F368C01A5B461B686E
:1046F800C01A5146FBF738FE029A8B1A0A2F01D0CE
:10470800002BCFD00F001C00039B002B0DD0681C82
:104718005146FBF729FEF1600123B2699A43130061
:10472800B261424612780A2A07D05B4639001B68F4
:104738009C4661445B4619601FE0093A1343B36124
:10474800F3E7F368ED1A5B461B68EB1A029A9B1AAB
:104758005A461560039A002A05D00022F2600132F9
:10476800B1699143B161802212061A43140004E032
:1047780000231C0001E000231C00200005B0F0BC51
:10478800BB46B246A946A046F0BD00231C00F4E78C
:1047980000231C00F1E700B583B000230193013327
:1047A80001AAFFF75EFF03B000BD10B541690369B8
:1047B800CB18C068181AFBF7D7FD080010BDF8B56C
:1047C80004000F001500FFF7F0FFA84200D805000D
:1047D800E16863695E1AB54200D22E0063689C46A0
:1047E80061443200380000F06FF9E3689819616994
:1047F800FBF7BAFDE160B819B5420FD02669B5429A
:1048080000D22E0063689C466144320000F05CF9D7
:10481800E36898196169FBF7A7FDE1602800F8BD16
:1048280070B50400FFF7C1FFE168002504E0481CEB
:104838006169FBF799FD3000461E002805D0013557
:1048480063685B5C0A2BF2D1280070BDF0B5C646E0
:1048580000B505000F009046FFF7A7FF0400E968C0
:10486800002308E05C1C0A2A0FD0481C6969FBF782
:104878007BFD23003400661E002C0BD06A68525C56
:104888004345EFD23A700137ECE7A04502D9002240
:104898003A709C1C200080BCB846F0BD30B583B08F
:1048A8000500002300936A4601A9FFF7DAFE0028F5
:1048B80000D001DB03B030BD44006408009400233D
:1048C8006A4601A92800FFF7CCFE002801DB201862
:1048D800F0E70020EEE7F0B5C64600B505000F008A
:1048E8001600FFF7DBFF041E03D1200080BCB8468A
:1048F800F0BD39002800FFF74EFF306000237B60D1
:1049080073603468002C03DB346870682418ECE7A3
:10491800640064083460AB6898461800FBF78CFCA8
:1049280003001A00013B002A06D06A681178424643
:10493800D25C9142F5D1D8E7391D2800FFF72BFF4B
:104948007060E1E730B585B00C0015006A4602A931
:10495800FFF7C1FF002821D0A84200D92800030092
:1049680008E0013B013A0092029A511C0291127828
:1049780022700134002B0CD0009A002AF1D108E0F3
:10498800013B013A0192039A511C0391127822705B
:104998000134002B02D0019A002AF1D105B030BDB4
:1049A80070B584B00C006A4602A9FFF794FF031E95
:1049B80052D0E1B200250020002213E0019B002B19
:1049C8004ED0013B0193039B5E1C03961B7815E0B8
:1049D800002A1BD00A291DD0102922D04843C0180C
:1049E800013223005C1E002B32D0009B002BE5D047
:1049F800013B0093029B5E1C02961B780028E7D1BE
:104A0800012AE5D1782BE3D11021E9E72D2BE1D15B
:104A18000125E5E7303BDBB2092BDFD90120404215
:104A28001CE01E00303EF6B2092E0FD91E00613E72
:104A3800F6B2052E02D8573BDBB2CFE71E00413E47
:104A4800F6B2052E0FD8373BDBB2C7E73300C5E710
:104A5800002D03D0404201E00120404204B070BD67
:104A680001204042FAE701204042F7E710B50A2149
:104A7800FFF796FF10BD10B50A21FFF791FF10BD93
:104A880070B500260C4D0D4C641BA410A64209D12C
:104A9800002600F0B5FC0A4D0A4C641BA410A6427F
:104AA80005D170BDB300EB5898470136EEE7B30067
:104AB800EB5898470136F2E7C45C0008C45C00086C
:104AC800C45C0008C85C000810B5884202D98B187D
:104AD800984203D3002307E08B5C8354013AFBD24E
:104AE80010BDCC5CC45401339A42FAD1F8E70300F4
:104AF8008218934200D1704719700133F9E700001A
:104B08000CB430B5174B0C001D689DB0002908DAAD
:104B18008B2301202B6040421DB030BC08BC02B082
:104B2800184782236A469B009382002302900690CE
:104B3800994200D04B1E0493079301236A465B42B7
:104B4800D382280021AB209A02A9019300F084F8AF
:104B5800431C01DA8B232B60002CDDD00023029A42
:104B68001370D9E70C0000200A7830B5002A0CD160
:104B780030BD9A4208D10123CC5C002CF8D0C55C2A
:104B8800A54201D10133F7E701300378002BF0D1BA
:104B98001800EDE7F0B58E6885B007000C000392A9
:104BA80001939E423CD890238A89DB001A4234D074
:104BB8000969236860695B1A029303234343DD0F85
:104BC800ED18019B029801331B186D10AB4200D9F8
:104BD8001D00530532D52900380000F03FFB061EA2
:104BE80009D10C233B6040230120A2894042134392
:104BF800A38105B0F0BD029A216900F0BAFAA38931
:104C0800144A1A4080231343A381029B2661F61895
:104C180026606561019EED1AA560019B9E4200D940
:104C2800019E320003992068FFF74EFFA368002019
:104C38009B1BA36023689E192660DAE72A003800C8
:104C480000F082FB061EE0D13800216900F09AFAD4
:104C5800C7E7C0467FFBFFFFF0B5A1B003901D007A
:104C68008B890F0016001B0611D50B69002B0ED17E
:104C7800402100F0F3FA38603861002805D10C2390
:104C8800039A0138136021B0F0BD40237B610023F3
:104C980008AC6361203363761033A376079535003B
:104CA8002B78002B01D0252B47D1AB1B0593B542A0
:104CB8000CD0320039000398FFF76CFF431C00D179
:104CC800AEE06269059B9446634463612B78002BD0
:104CD80000D1A5E0012200235242626004A95432A7
:104CE80052186E1C2360E360A3601370A36505224D
:104CF8003178544800F032FA751C00281FD1226818
:104D0800D30604D5532304A95B182021197013076F
:104D180004D5532304A95B182B21197033782A2B47
:104D280016D0350000210A20E3682A786E1C303A34
:104D3800092A4ED9002911D117E00135B0E7414BB6
:104D48002268C01A0123834013432E002360CEE754
:104D5800079B191D1B680791002B01DB0B9304E0CF
:104D68005B42E3600223134323602B782E2B0AD186
:104D78006B782A2B35D1079B02351A1D1B680792C1
:104D8800002B2BDB0993304E03223000297800F0EA
:104D9800E5F9002806D04023801B834022680135AE
:104DA800134323602978062228486E1C217600F0D8
:104DB800D5F900283CD0264B002B25D10722079B8C
:104DC80007339343083307936369049A9B18636115
:104DD80065E74343350001219B18A6E701235B42A1
:104DE800D0E700230A201A000135636029786E1C79
:104DF8003039092903D9002BC5D00992C3E74243AA
:104E0800350001235218F1E707AB00933A0021005F
:104E1800104B0398AFF300800490049B0133D3D167
:104E2800BB890D985B0600D42DE7012040422AE794
:104E380007AB00933A002100064B039800F07CF87A
:104E4800EAE7C046915C0008975C00089B5C000894
:104E5800000000009D4B0008F7B5150001938A6813
:104E68000B690C000090934200DA130022002B60BB
:104E780043321278002A01D001332B6023689B0645
:104E880002D52B6802332B602268062317001F40C7
:104E98001A4227D0230043331B785A1E93412268B5
:104EA800920630D4220001990098089E4332B047F8
:104EB800431C25D0062320682A68E16800250340A2
:104EC800042B03D18D1AEB43DB171D40A36822691D
:104ED800934201DD9B1AED180027BD4220D1002026
:104EE80010E00137E3682A689B1ABB42D2DD220032
:104EF800012301990098089E1932B047431CF0D14C
:104F080001204042FEBD3020E118433108702100E5
:104F18005A1C45310978A218433202331170C1E78F
:104F28002200012301990098089E1A32B047431CB9
:104F3800E6D00137D1E70000F0B58BB006920A0041
:104F480043320793059004920A7E0C00109B782A3E
:104F580007D8622A09D8002A00D1C1E0582A00D10E
:104F68008CE026004236327022E0100063381528A3
:104F7800F7D8FBF769F916001F00F6FFF6FFF6FFF2
:104F8800F6FF1F00F6FFF6FFF6FFF6FFA800360053
:104F98009A00F6FFF6FFB900F6FF3600F6FFF6FFB7
:104FA8009E0026001A684236111D19601368337076
:104FB8000123A7E0086819680A1D05060BD50D68C6
:104FC8001A60002D03DA2D23049A6D421370614B89
:104FD8000A2703931BE00D681A604106F1D52DB22C
:104FE800EFE70D681968081D18602E0601D50D68D1
:104FF80003E06D06FBD50D68ADB2564B0827039349
:105008006F2A00D002372300002243331A706368E6
:10501800A360002B03DB0422216891432160002D4B
:1050280002D1049E002B0CD0049E28003900FBF707
:105038009BF9039B013E5B5C33702B0005009F428C
:10504800F3D9082F09D12368DB0706D563682269DD
:10505800934202DC3023013E3370049B9B1B236187
:10506800079B210000930598069B09AAFFF7F4FE09
:10507800431C4CD1012040420BB0F0BD45310A70B1
:10508800344A03921A68216820CA1A60080616D59D
:10509800CB0702D52023194321601027002DB2D158
:1050A800202322689A432260ADE7202209680A4338
:1050B80022602200782145321170274AE1E748062C
:1050C800E6D5ADB2E4E71A680D68101D49691860A5
:1050D80013682E0601D5196002E06D06FBD519800C
:1050E8000023049E2361BBE71A68111D1960166826
:1050F80000213000626800F031F8002801D0801BE0
:105108006060636823610023049A1370A8E7236929
:10511800320006990598079DA847431CAAD0236822
:105128009B0715D4099BE0689842A5DA1800A3E705
:105138002200012306990598079E1932B047431C9F
:1051480098D00135E368099A9B1AAB42F0DCE9E78D
:105158000025F7E7A25C0008B35C0008C9B2821812
:10516800904201D10020704703788B42FBD0013078
:10517800F6E7002310B59A4200D110BDCC5CC454A8
:105188000133F8E770B50500002910D00C1F23681B
:10519800002B00DAE418280000F018F91D4A1368FB
:1051A800002B05D163601460280000F017F970BD6A
:1051B800A34208D9216860188342F3D118685B6854
:1051C80041182160EEE71A005B68002B01D0A3426A
:1051D800F9D911685018A0420BD120680918501845
:1051E80011608342E0D118685B6841181160536010
:1051F800DAE7A04202D90C232B60D5E721686018B2
:10520800834203D118685B68411821606360546069
:10521800CAE7C0462056002070B50F4E0D00316811
:105228000400002902D100F0BFF8306029002000F6
:1052380000F0BAF8431C0AD00323C51C9D43A842BA
:1052480007D0291A200000F0AFF8431C01D101252E
:105258006D42280070BDC04624560020F7B50322D1
:10526800CB1C9343083306001F000C2B32D20C27AB
:10527800B94231D8300000F0A9F8324D2B681C0033
:10528800002C2ED139003000FFF7C6FF0400431C64
:105298001ED12C682500002D4AD123682900E31867
:1052A8003000019300F080F8019B834243D12368CA
:1052B8000337FF1A03239F4308370C2F00D20C270C
:1052C80039003000FFF7A8FF431C34D02368DF19EA
:1052D800276013E0002BCBDA0C230025336028006D
:1052E800FEBD2268D11B20D40B2917D9E2192760EB
:1052F800A34211D12A606368116053603000250011
:1053080000F06CF807220B35231D9543EA1A9D42DD
:10531800E5D05B1BA350E2E75A60ECE76268A34262
:1053280001D12A60EAE75A60E8E723006468A7E742
:105338002C006D68AFE70C233000336000F04EF8A6
:10534800CDE7C04620560020F7B507000E00140030
:10535800002905D11100FFF781FF05002800FEBDD7
:10536800002A03D1FFF70EFF2500F7E700F03EF80B
:105378000190844203D835004308A342EED32100AC
:105388003800FFF76BFF051EE8D0019B22009C4206
:1053980000D91A0031002800FFF7EBFE3100380071
:1053A800FFF7F0FEDAE70000002370B5064D0400B1
:1053B80008002B60FBF7F8F8431C03D12B68002B7F
:1053C80000D0236070BDC0462856002010B50248A2
:1053D80000F014F810BDC0462C56002010B5024845
:1053E80000F00DF810BDC0462C5600200B1F1B689E
:1053F800181F002B01DA0B58C01870477047704708
:10540800F8B5C046F8BC08BC9E467047F8B5C0461B
:08541800F8BC08BC9E46704779
:1054200001000100000000000000000030780000D2
:1054300020652000207320002055200020202020FF
:105440003E3E3E20696E76207C20000020202020F9
:105450003E3E3E20626D73207C2000004932433A7C
:105460002070763120676D707074206F66660A0058
:105470004932433A2070763120676D70707420682D
:105480006967680A000000004932433A20707632AA
:1054900020676D707074206F66660A004932433A67
:1054A0002070763220676D70707420686967680AB2
:1054B000000000004932433A20666F726365206F36
:1054C0006666677269640A004932433A20617574FE
:1054D0006F206772696420636F6E6E656374696FB5
:1054E0006E0A00004932433A20666F726365206796
:1054F0007269647469650A004932433A20666F72C2
:105500006365206D616E75616C2073746F702064CB
:1055100069736368617267650A0000004932433A43
:1055200020666F7263652073656C66207573650A0B
:10553000000000004932433A206175746F207365A2
:105540006C66207573650A004932433A20666F72B3
:105550006365206D616E75616C206368617267655B
:105560002066726F6D20677269640A004932433A9F
:1055700020666F726365206261636B7570206D6F6A
:1055800064650A00000900080E0C0008800C000881
:10559000A60C0008CC0C0008E8080008E808000881
:1055A000E8080008E8080008E8080008F20C00080D
:1055B000060D0008140D0008280D00085A0D0008FB
:1055C000820D0008E8080008E8080008E80800085C
:1055D000900D0008E80800089A0D0008CC0D00089E
:1055E0000A0E0008160E0008220E0008E80800083F
:1055F0002E0E0008E8080008E8080008380E000829
:10560000440E000820325E333166697800000000E5
:1056100020250A0052657365740A0000494E562021
:1056200061637469766974792074696D656F7574E6
:105630000A00000043414E20616374697669747901
:105640002074696D656F75740A000000696E7620BC
:105650003E3E3E20202020207C20000020202020D4
:1056600020202020202020207C2054696D65737428
:10567000616D703A20000000626D732063616E20DE
:1056800074696D656F75740A00000000626D7320A7
:105690003E3E3E20202020207C2000002020202094
:1056A00020202020202020207C20566261743D256F
:1056B000642E25645609496261743D25642E256473
:1056C0004109576261743D256C645709536F433D2E
:1056D000256409456261743D25642E25646B576815
:1056E0000A000000666F7263652062617474207343
:1056F0006F630A002020202020202020202020204E
:105700007C20566261746D61783D25642E25645657
:1057100009566261746D696E3D25642E25645609D3
:1057200049636D61783D25642E2564410949646DA6
:1057300061783D25642E25644125730A0000000030
:10574000736F63203C2031300A0000006E6F2063CD
:1057500068616E676520696E2063686172676520A5
:1057600063757272656E740A000000006261747481
:105770002063757272656E743A20256C64572C2014
:105780006176673A20256C64572C206D6178616CD6
:105790006C6F773A20256C64572C20666F726365B6
:1057A000642076616C756520256C646D410A00008B
:1057B0006261747420766F6C746167652064616ED9
:1057C0006765726F75732028332E3656292C207327
:1057D000746F7020666F72636564206368617267BE
:1057E0006520746F2061766F6964207765617269E6
:1057F0006E670A002020202020202020202020204A
:105800007C20466F726D61743D256409556E6B3D59
:10581000256409466C616773424D533C3C31363D0B
:10582000253034780943617061636974793D25647A
:1058300057680A002020202020202020202020201F
:105840007C2054626D733D25642E2564C2B04309EB
:10585000426174436F756E743D256409436F6E74C5
:105860006163743D256409436861726765526571BF
:105870003D2564094379636C65733D25640A000026
:105880002020202020202020202020207C20466C4A
:10589000616773424D533D253034780A00000000A3
:1058A0002020202020202020202020207C20546325
:1058B000656C6C6D61783D25642E2564C2B043092A
:1058C0005463656C6C6D696E3D25642E2564C2B0B1
:1058D00043095663656C6C6D61783D25642E2564C3
:1058E00056095663656C6C6D696E3D25642E2564A2
:1058F000560A0000202020202020202020202020C8
:105900007C20646C696D3D25640949646C696D3D5A
:1059100025642E25644109636C696D3D2564094940
:10592000636C696D3D25642E2564410A000000000A
:1059300055415254424D5355534552203E3E20004E
:1059400055415254424D53203E3E207077720A001A
:105950007077720A0000000055415254424D5320A6
:105960003C3C20002020766F6C746167653A2025EE
:105970006C640A202063757272656E743A20256C1F
:10598000640A2020776174746167653A20256C642D
:105990000A2063617061636974793A20256C640A36
:1059A000000000006572726F723A20696E76616C59
:1059B00069642070726563697365207761747461CE
:1059C000676520636F6D7075746174696F6E0A002E
:1059D0000D24240055415254424D53203E3E20692F
:1059E0006E666F0A00000000696E666F0A000000B4
:1059F0000D504342413A20202020203A2000000050
:105A000055415254424D53203E3E20756E69740AF2
:105A100000000000756E69740A0000005541525480
:105A2000424D5320656E640A0000000070763120FC
:105A3000737769746368206F6E0A00007076322095
:105A4000737769746368206F6E0A00005541525481
:105A5000203E3E20000000005541525420726561F6
:105A600064696E67206572726F72200055415254EE
:105A7000203C3C20000000005056313A202564575D
:105A8000202825642E2564562025642E256441296E
:105A90000A5056323A20256457202825642E256462
:105AA000562025642E256441290A000041433A20EE
:105AB000477269643A2025645720286D65746572C1
:105AC0002025645729204550533A20256457204FFC
