:020000040800F2
:1000000000000820D94200089D4D00089D4D0008C1
:100010009D4D00089D4D00089D4D0008000000000A
:100020000000000000000000000000009D4D0008DE
:100030009D4D0008000000009D4D0008AD4D0008DA
:100040009D4D00089D4D00089D4D00089D4D0008E8
:100050009D4D00089D4D00089D4D00089D4D0008D8
:100060009D4D00089D4D00089D4D00089D4D0008C8
:100070009D4D00089D4D00089D4D00089D4D0008B8
:100080009D4D00089D4D00089D4D00089D4D0008A8
:10009000E1460008F14600089D4D00089D4D00080E
:1000A0009D4D00089D4D00089D4D00089D4D000888
:1000B0009D4D00089D4D00089D4D00089D4D000878
:1000C0009D4D0008952700082D2800089D4D00082B
:1000D0009D4D00089D4D00089D4D00089D4D000858
:1000E0009D4D00089D4D00089D4D00089D4D000848
:1000F0009D4D00089D4D00089D4D00089D4D000838
:100100009D4D00089D4D00089D4D00089D4D000827
:100110009D4D00089D4D00089D4D00089D4D000817
:100120009D4D00089D4D00089D4D00089D4D000807
:100130009D4D00089D4D00089D4D00089D4D0008F7
:100140009D4D00089D4D00089D4D00089D4D0008E7
:100150009D4D00089D4D00089D4D00089D4D0008D7
:100160009D4D00089D4D00089D4D00089D4D0008C7
:100170009D4D00089D4D00089D4D000800000000A9
:100180009D4D00089D4D00089D4D00089D4D0008A7
:100190009D4D00089D4D00089D4D00089D4D000897
:1001A0009D4D00089D4D00089D4D00089D4D000887
:1001B0009D4D00089D4D00089D4D000895270008A5
:1001C0002D2800089D4D0008000000009D4D0008EE
:1001D0009D4D00089D4D00089D4D00089D4D000857
:1001E0009D4D000801470008114700089D4D00087B
:0801F0009D4D00089D4D000823
:1001F8000448054B10B5834203D0044B002B00D0B4
:10020800984710BD54000020540000200000000052
:1002180006480749091A8B10C90FC91810B54910A3
:1002280003D0044B002B00D0984710BD5400002089
:10023800540000200000000010B5074C2378002B64
:1002480009D1FFF7D5FF054B002B02D00448AFF3C7
:1002580000800123237010BD54000020000000001E
:1002680074610008054B10B5002B03D004490548FC
:10027800AFF30080FFF7CCFF10BDC04600000000C0
:10028800580000207461000810B583070AD00300E5
:10029800032102E001330B4205D01A78002AF9D174
:1002A800181A10BD030019680C4A0D4C8A188A43A5
:1002B80022420FD15968094A04338A188A432242D4
:1002C80008D15968054A04338A188A432242F1D072
:1002D80000E001331A78002AFBD1E1E7FFFEFEFEB9
:1002E80080808080F0B588420AD98B18984207D25E
:1002F800531E002A03D0CA5CC254013BFBD2F0BD96
:1003080005000F2A0AD8561E002AF8D00023CC5C14
:100318001A00EC5401339642F9D1F0E703273E0066
:100328000D430C0003002E402F422DD11500103D27
:100338002D09AC462F013F1825681D6065685D6072
:10034800A5689D60E5681034DD601D001033BD426E
:10035800F2D165460F230C2401352D0149191340AC
:100368004519144213D0043B9B0801339B008C5958
:10037800AC5104369E42FAD103231A40AD198919AB
:10038800561E002AC2D1BAE70500561EBEE71A005B
:10039800B9E7C04670B50D4B0D4D5E1BB610AB42AC
:1003A80005D0002408CD01349847A642FAD805F0B4
:1003B800DDFE084B084D5E1BB610AB4205D000248D
:1003C80008CD01349847A642FAD870BD806C000861
:1003D800806C0008846C0008806C0008F0B5CE467C
:1003E80047460300944680B5012959D901220120C6
:1003F8009046012500260124404206E0221A904634
:10040800260001257419A1420DD91F181A5D7F5DB8
:10041800BA42F3D336D001250122300001367419CF
:100428009046A142F1D844466246146001229146A2
:10043800023A012500269046012407E04246A21A06
:100448009146260001257419A1420ED94746DF19A5
:100458001A5D7F5DBA42F1D818D001250122B04655
:10046800013674199146A142F0D843460130013350
:10047800834203D36246494618001160C0BCB9469E
:10048800B046F0BD454505D00135BBE74D4504D024
:100498000135D8E776190125B4E776190125D2E7A1
:1004A800012399460023E5E7F0B54546DE46574661
:1004B8004E461400E0B585B003AA80468A4620005F
:1004C80019001D00FFF78AFF039B81460200E1180F
:1004D8002000019300F0D6FA00285ED15346591B3C
:1004E80080231B012B4300930123002700269B46F2
:1004F8000800B0421CD33B004F4500D24B46424651
:1005080091199D4227D98446080002E001339D4293
:1005180020D0E15CC25C9142F8D060469D421AD975
:100528005A464946521A9619F6180027B042E2D29E
:1005380040460099504400F0C9FA82445346581B7B
:10054800B042D8D2002005B0F0BCBB46B246A9469E
:10055800A046F0BD60464B464246013B91194F45C7
:1005680065D28446080003E05A1E9F420ED013004D
:10057800E15CC25C9142F7D06046013301379F428B
:1005880008D8019B9C46EF1A6644B2E701376046DB
:100598009F42F6D930004044D5E74B46EB1A4B450D
:1005A80000D24B460133009303935346591B8023D3
:1005B8001B012B4300269B4601270800B04218D395
:1005C80042464B4691194D4520D98446080002E021
:1005D80001339D4218D0E15CC25C9142F8D0010021
:1005E80060469D4212D94A46BA1A9619F618B04280
:1005F800E6D240465946504400F068FA82445346D1
:10060800581BB042DCD29DE7010060464B46013BD7
:100618000FD38446080001E0013B94D3E15CC25C3F
:100628009142F9D0009B60469C466644C6E74B461B
:10063800A4E7080087E7C046F0B5DE4657464546BA
:100648004E46E0B5844C8346A54414008A4605AA64
:10065800190020001D00FFF7C1FEFFAA019006AB9C
:100668001C3220C39342FCD1002D0FD02300A44696
:10067800681E6619201808241A7804AFC11A920057
:100688003F190133B9509E42F5D16446059B2000BD
:10069800019AE118984600F0F5F9002800D07AE0B0
:1006A800002399465346591B80231B012B43039370
:1006B8002B006F1E00264D4608009946029408E05C
:1006C800002D04D0984502D94B4642469B1A002576
:1006D800F618B04224D35B4608249919CB5D04AAC6
:1006E8009B001219D358002BEAD1019A2B0095428E
:1006F80000D213009F422AD98446029C080002E0D7
:1007080001339F4220D0E15CC25C9142F8D00100E5
:10071800029460469F421AD9019AB61A0136D6E762
:1007280058460399504400F0D1F9824453464A464A
:10073800981AB042CFD20020484B9D44F0BCBB462B
:10074800B246A946A046F0BD010060460294019A4F
:10075800531E95427DD28446029C080003E05A1E2F
:100768009D4210D01300E15CC25C9142F7D00100B9
:1007780060460294013301359D420AD84B464246F1
:1007880046449D1AA5E701350100029460469D4242
:10079800F4D90800D0E7019AAB1A934257D3013332
:1007A800039305935346591B80231B012B439946FA
:1007B8006B1E002608001F000294B0420CD35B4653
:1007C80008249919CB5D04AA9B001219D358002B51
:1007D8000DD0F618B042F2D258464946504400F0BF
:1007E80075F982445346581BB042E8D2A3E7019AF0
:1007F8001300BA4217D28446029C080002E0013373
:10080800BB420DD0E15CC25C9142F8D00100029479
:1008180060469F4207D9019AB61A0136F618D9E7F9
:10082800010060460294019B013BB2D38446029CBE
:10083800080002E0013B00D27EE7E15CC25C914225
:10084800F8D0039B60469C4602946644B5E71300C3
:10085800A5E713008FE7C046E4FBFFFF1C04000078
:10086800F0B5CE46474680B50E000978050004006D
:1008780091B0002958D07278002A00D178E0B07879
:10088800002857D013020B4307041F43F3789C46F4
:100898001B063B436746002F00D180E03279002ACF
:1008A8006AD03000FFF7F0FC80218900070001437F
:1008B800280000F00BF987424AD8FE2F00D985E0BE
:1008C800C01B804640226846791CA84400F086F880
:1008D800002F0FD0BA1994463F2233009146F8B240
:1008E800301849466C461A780A40C11A0133A15497
:1008F8009C45F6D12C003F256A46013CE35D2B4020
:10090800D35CE418A04503D224E04C44A04521D38D
:100918006A46E35D31002B40D35C20003A009946DB
:1009280000F0B0F80028F0D1200011B0C0BCB946E2
:10093800B046F0BD0904114300232A7806E02C00D4
:100948001B04013513432A7899423DD0002AF6D179
:100958000024E9E74346D819DB5D002BF8D0802155
:10096800090100F0B3F88044A045C5D20024DBE7B4
:1009780000F03EF90400D7E72A78002AE8D019BA2F
:10098800002301E08B4208D02C001B0201351343E1
:100998002A78002AF6D18B42DAD1033CC4E7120444
:1009A800090611432A7800020143002AD0D0002307
:1009B80001E0002ACCD02C00134301351B022A7811
:1009C8009942F6D1023CAFE7013CADE701003B009C
:1009D80032002800FFF730FE0400A5E7F0B5050057
:1009E800830749D0541E002A45D003000326CAB203
:1009F80002E00135013C3ED301332A703342F8D17D
:100A0800032C30D9FF220A401502AD182A04AD186C
:100A18000F2C34D92700103F3F093E01B4461E0071
:100A28001A0010366644156055609560D56010321E
:100A38009642F8D101373F01DB190F270C222740D6
:100A480022403C00002A0ED03E1FB608B400A4463F
:100A58001A001C1D644420C2A242FCD103240136A2
:100A6800B6009B193C40002C05D0C9B21C1919705E
:100A780001339C42FBD1F0BD03001400C0E72700FE
:100A8800E2E7C04630B5032A1AD90B0003439B0797
:100A980011D0551E002303E05A1C9D4213D01300A9
:100AA800C25CCC5CA242F7D0101B0DE0043A0430C3
:100AB8000431032A04D904680B689C42F6D0E8E79D
:100AC800551E002AE6D1002030BDC04610B50300EF
:100AD8004418002903D109E001339C4204D01A7854
:100AE800002AF9D1181A10BD201AFCE70020FAE7ED
:100AF80008B410B504009DB0002A32DB8223684692
:100B08009B008382002302911B930691002A13D035
:100B1800013A013BC382049220AB079220001F9A3E
:100B280002A9019300F0BAF9431C01DA8B23236070
:100B38000022029B1A700FE001235B42C3820492D9
:100B480020AB079220001F9A02A9019300F0A6F992
:100B5800431C01DA8B2323601DB010BC08BC01B014
:100B680018478B23036001204042F5E70CB410B509
:100B78001E4B9CB01C68002933DB82236A469B000D
:100B88009382002302901B930690002913D0013909
:100B9800013BD38204911FAB079120001E9A02A942
:100BA800019300F07BF9431C01DA8B2323600022B8
:100BB800029B1A7010E001236A465B42D3820491BB
:100BC8001FAB079120001E9A02A9019300F066F955
:100BD800431C01DA8B2323601CB010BC08BC02B094
:100BE80018478B23012023604042F5E700000020CE
:100BF8000323CAB2F0B50340002A35D00324002BE2
:100C08002DD1FF230B401D02ED182B04ED182C00ED
:100C18000168264E4C408B198B43A119A143244EE1
:100C28000B43334211D14168204F0C00CB196C4063
:100C38008B43E119A1430B4304303342F3D00378CB
:100C4800002B05D09A4204D001300378002BF9D14B
:100C58000020F0BD9342FCD001302042D1D003786F
:100C6800002BF7D10020F4E7002B08D0032202E084
:100C78000130104203D00378002BF9D1E9E702686C
:100C88000A4B0B49D31893430B4206D14268074BD2
:100C98000430D31893430B42F8D00378002BD8D0F4
:100CA80043780130002BFBD1D3E7C046FFFEFEFEA0
:100CB80080808080F0B546464F46D646C0B58E68DF
:100CC80080460C0091461D0008689E4239D80C22C7
:100CD8008B5E9022D200134210D135002A0049467B
:100CE800FFF700FB0020A3689B1BA36023685B1928
:100CF8002360E0BCBA46B146A846F0BD0969421A6D
:100D08009246606942001218D70FBF18681C7F10FE
:100D180050443A00B84201D9070002005B0512D5D9
:100D28001100404600F03CFA061E1FD052462169C9
:100D380000F02EFDA389124A134080221343A38199
:100D480006E01E00CAE7404600F00EFB061E09D06A
:100D58003000534650446761FF1A266120602E0018
:100D6800A760BBE74046216900F0A2FA0C2342467F
:100D7800136040220120A38940421343A381B8E7AE
:100D88007FFBFFFFF0B545465746DE464E46E0B5C9
:100D9800136883B0984693680D0092460190002B23
:100DA8006FD0002300249B460A688B6849E00C2119
:100DB8006B5E9021C9000B422BD068692969561ACD
:100DC80042001218D00F8218701C52100019914658
:100DD800904201D9814602008020C00003423AD0E7
:100DE8001100019800F0DCF9071E3DD03200296996
:100DF80000F0CEFCAB89284A134080221343AB8114
:100E08004B46B8199E1B2F61AE602700260028604C
:100E18006B6132005946FFF765FA51465046AB6898
:100E28002A688968DB1B9219091BAB602A608160FC
:100E380027D0414609688B4641464C6808218C46B4
:100E4800E0441F001000002CF3D01E009C42AED2DC
:100E580027002600DDE7019800F086FA071ECFD1AB
:100E68002969019800F024FA0C23019A01201360E3
:100E78004022AB8940421343AB8152460023936022
:100E880000E0002000235246536003B0F0BCBB468C
:100E9800B246A946A046F0BD7FFBFFFFF0B5DE468F
:100EA80057464E464546E0B51C008B898246894622
:100EB80093469DB01B0603D50B69002B00D1F5E0C6
:100EC800002304AD6B6120336B761033AB765B4641
:100ED8001B787F4F0394002B78D05C4604E063783E
:100EE8000134002B00D17EE0252BF8D15B46E61AB1
:100EF8005C4500D07BE02378002B67D001230022DB
:100F08005B42049205930022002306920793002374
:100F18004332AB54AB6501339B46013406E05A4675
:100F2800C01B82401C0029680A432A600522380039
:100F3800217800F0D7F8631C1E000028EFD12A683A
:100F4800D10602D5432120306854110702D5432128
:100F58002B20685421782A2955D1039B191D1B6819
:100F68000391002B00DA7CE0EB6061782E2960D0D9
:100F7800584C0322200000F0B5F8002806D0402382
:100F8800001B83402A68013613432B603178731C99
:100F9800062251489B46297600F0A4F8002866D01E
:100FA8004E4B002B56D003AA009229004A465046C1
:100FB8004B4BAFF3008080464346013306D06B6944
:100FC80043446B615B461B78002B86D14B469B895B
:100FD8005B0600D579E068691DB0F0BCBB46B24637
:100FE800A946A046F0BD5B46E61A5C45EED0330044
:100FF8005A4649465046FFF75DFE0130E6D06B6918
:101008009B196B6177E70800303826000928ADD8AE
:10101800EA68140000E00133A2001219197852009E
:101028001418080030380928F5D91E00EC602E295C
:101038009ED171782A2924D1039BB01C1A1D1B68E4
:1010480003926B60002B02DA01235B426B60B1787C
:1010580006008DE70722039B073393430833039366
:10106800ADE75B42EB6002231A432A607DE703AADF
:10107800009229004A465046194B00F055FA80461E
:101088009AE708000023303801366B60092800D938
:101098006EE71A0093009B1871785B001A18080015
:1010A800303801360928F5D96A6061E7402100F037
:1010B80077F84B4618601861002803D040234A4649
:1010C8005361FDE60C23524613600120404283E73A
:1010D800746A00087C6A0008806A00080000000042
:1010E800BD0C000870B5CCB283070DD0531E002A82
:1010F8000FD0032504E00130284206D0013B08D375
:101108000278A242F7D170BD1300032B03D8002B3D
:1011180014D10020F7E7FF220A401502AD182A046F
:101128000B4EAD1803E0043B0430032BEFD90268E3
:1011380008496A40511891433142F4D0C31802E07B
:1011480001309842E5D00278A242F9D1DBE7C046E7
:1011580080808080FFFEFEFE70B5104E050033686B
:101168000C00002B15D02100280000F057FB431C71
:101178000CD00323C41C9C43A04205D0211A28008C
:1011880000F04CFB013001D0200070BD0124644206
:10119800FAE7002100F042FB3060E4E7AC010020F0
:1011A800F8B50323CE464746CD1C9D4308350600B7
:1011B80080B50C2D1ED20C25A9421DD8300000F098
:1011C800E3FA3A4F7A68002A1AD0140004E06368F8
:1011D8002200002B14D01C0023685B1BF7D40B2BB8
:1011E80027D96119256094425BD051600B60636810
:1011F8004B600DE0002DDFDA0C230020336014E093
:1012080029003000FFF7A8FF0400431C19D005602F
:10121800300000F0BBFA200007220B30231D90435A
:10122800C21A984201D01B1AA350C0BCB946B04696
:10123800F8BD6368944202D05360E9E743467B6097
:10124800E6E77B689846002B24D0444663689846B6
:10125800002BFAD12368002199463000A14400F000
:10126800DDFA814516D123683000ED1A2900FFF711
:1012780073FF01300ED023687A685B1923605368C6
:10128800002B02D1DAE71A005B689C42FBD10023ED
:101298005360BDE70C233000336000F077FA00207C
:1012A800C3E779600B6063684B60B1E7AC0100206D
:1012B80070B50500002915D00C1F2368002B23DB0F
:1012C800280000F061FA274A1368002B05D0A342D2
:1012D8000BD92168601883422CD028006360146001
:1012E80000F054FA70BDA34210D81A005B68002BB6
:1012F800F9D1106811188C4218D02CD3636054604F
:10130800280000F043FAEDE7E418D9E7116850180F
:10131800A04214D01FD8216860188342EED1186803
:101328005B684118216063605460E9E723681B1813
:101338001360E5E718685B6841182160CDE720680D
:101348000918501811608342DAD118685B6841188F
:1013580011605360D4E70C2328002B6000F016FAC4
:10136800C0E7C046B0010020F0B5C64607000E0031
:10137800140000B500292DD0002A27D000F060FA0B
:101388008046844203D835004308A34210D3210085
:101398003800FFF705FF051E0AD0220044450BD888
:1013A8003100280000F0F4F931003800FFF780FF21
:1013B800280080BCB846F0BD31004246280000F045
:1013C800E7F931003800FFF773FFF1E7FFF770FF27
:1013D8000025EDE71100FFF7E3FE0500E8E7C0464A
:1013E800F8B557464E464546DE46E0B51F000A9B0F
:1013F800924698460A698B6806000C009A4200DA01
:101408001A0053461A604323E35C002B02D051466E
:1014180001320A602268910661D553465246062079
:101428001B680233136022681100104208D10020A3
:10143800814619308346E168A344994247DC11008C
:101448004323E35C5A1E934189060AD53020E118EC
:101458004331087045215A1C615CA218433202339B
:1014680011702200390030004332C04701301DD0CE
:10147800534606251B68E1689C462368A2682069D4
:101488002B40042B31D0824239DD00239946121AB1
:10149800914400251A3402E001354D452FDA012325
:1014A800220039003000C0470130F5D10120404208
:1014B800F0BCBB46B246A946A046F8BD01239C46EF
:1014C8005346E5681B68E144ED1A4D4524DD0123C8
:1014D8005A4639003000C0470130EFD1E6E706210F
:1014E80011420ED05A1E9341BBE76346C91ACB433B
:1014F800DB170B4099468242C9DC0029C9DC002071
:10150800D6E7002053468146193083461B68E168B8
:10151800A3449942DBDC92E743232168E35C5A1E2B
:101528009341890692D49CE7F0B54E4699464323E9
:101538009C4657464546DE468C446346E0B587B030
:1015480002930C00097E90460700109A002914D0D7
:101558000B00583BDBB2202B48D888489B00C35867
:101568009F46136821681D1D606915601B680E067B
:1015780002D4490600D5DCE018600023029D2361EF
:101588004B46210000933800434605AAFFF728FF81
:1015980001301ED02A00414638002369C84701306F
:1015A80017D02368E068059E9B071BD5B04219DD5C
:1015B80019239A460025A24404E0E0680135831BFC
:1015C800AB420FDD0123524641463800C84701307F
:1015D800F3D10120404207B0F0BCBB46B246A94651
:1015E800A046F0BDB042F6DA3000F4E72500422309
:1015F80001204235E154432300222061E254BFE731
:1016080013682168181D10600D0602D44D0600D518
:1016180094E01A6816006368002A00DA92E0584AD3
:1016280093460A2203924BE01368206840CB0506D4
:1016380001D440067FD41360514B9B466F2900D1DB
:1016480091E00A23039337E013682500191D116000
:101658001A68422301204235E254CCE71368191D69
:1016680011601D68002128006268FFF73BFD002813
:1016780000D181E0401B6060BDE7202321680B4357
:1016880023604521782060543E498B46116840C943
:10169800180603D4580601D53604360C1160DA074B
:1016A80002D5202213432360002E03D12022236871
:1016B800934323601023039343230022E254636877
:1016C800A360002B18DB042122688A432260002EC5
:1016D80012D1029D002B49D1039B082B1ED0029BDF
:1016E8005B1B23614CE745235821E15424492368B7
:1016F8008B46CBE72368C4E7039B9A46029D3000DC
:10170800514600F02DF95B465B5C013D2B703300C0
:1017180006005345F3D2039B082BE0D12368DB076F
:10172800DDD5626823699A42D9DC3023013D2B70EC
:10173800D5E7188021E73604360C7CE700269E5F43
:10174800320068E743222D20A054A360002B02DB5F
:101758000423994321600A239A46094B76429B4603
:101768000A230393CAE708230393A5E75B462500EA
:101778001B7842352B70AFE760683CE7986100083A
:10178800886A00089C6A00087047C0467047C046CF
:10179800F0B505000F2A31D903273E000D430C0090
:1017A80003002E402F4234D11500103D2D09AC46C0
:1017B8002F013F1865685D60A5689D60E568DD607C
:1017C800256810341D601D001033BD42F2D16546F6
:1017D8000F230C2401352D014919134045191442D2
:1017E8001AD0043B9B0801339B008C59AC5104363A
:1017F8009E42FAD10323AD1989191A40561E002AB0
:1018080006D00023CC5C1A00EC5401339642F9D17F
:10181800F0BD0500561EF4E71A00EFE7002370B587
:10182800064C05000800236000F08EFA431C00D027
:1018380070BD2368002BFBD02B60F9E7B4010020B2
:101848000B1F1B68181F002B00DB70470B58C018B4
:10185800FBE7C046002243088B4274D303098B423E
:101868005FD3030A8B4244D3030B8B4228D3030C68
:101878008B420DD3FF22090212BA030C8B4202D30A
:101888001212090265D0030B8B4219D300E0090A32
:10189800C30B8B4201D3CB03C01A5241830B8B423B
:1018A80001D38B03C01A5241430B8B4201D34B0324
:1018B800C01A5241030B8B4201D30B03C01A524189
:1018C800C30A8B4201D3CB02C01A5241830A8B420E
:1018D80001D38B02C01A5241430A8B4201D34B02F7
:1018E800C01A5241030A8B4201D30B02C01A52415B
:1018F800CDD2C3098B4201D3CB01C01A524183090F
:101908008B4201D38B01C01A524143098B4201D348
:101918004B01C01A524103098B4201D30B01C01A73
:101928005241C3088B4201D3CB00C01A52418308ED
:101938008B4201D38B00C01A524143088B4201D31A
:101948004B00C01A5241411A00D20146524110467A
:101958007047FFE701B5002000F0F0F802BDC0466F
:101968000029F7D076E7704703460B437FD400225F
:1019780043088B4274D303098B425FD3030A8B421B
:1019880044D3030B8B4228D3030C8B420DD3FF2285
:10199800090212BA030C8B4202D31212090265D053
:1019A800030B8B4219D300E0090AC30B8B4201D306
:1019B800CB03C01A5241830B8B4201D38B03C01A4D
:1019C8005241430B8B4201D34B03C01A5241030BC4
:1019D8008B4201D30B03C01A5241C30A8B4201D375
:1019E800CB02C01A5241830A8B4201D38B02C01A20
:1019F8005241430A8B4201D34B02C01A5241030A97
:101A08008B4201D30B02C01A5241CDD2C3098B427B
:101A180001D3CB01C01A524183098B4201D38B01F8
:101A2800C01A524143098B4201D34B01C01A52419B
:101A380003098B4201D30B01C01A5241C3088B42E0
:101A480001D3CB00C01A524183088B4201D38B00CB
:101A5800C01A524143088B4201D34B00C01A52416D
:101A6800411A00D201465241104670475DE0CA0F44
:101A780000D04942031000D34042534000229C4604
:101A880003098B422DD3030A8B4212D3FC2289010E
:101A980012BA030A8B420CD3890192118B4208D3E4
:101AA800890192118B4204D389013AD0921100E046
:101AB8008909C3098B4201D3CB01C01A524183095A
:101AC8008B4201D38B01C01A524143098B4201D387
:101AD8004B01C01A524103098B4201D30B01C01AB2
:101AE8005241C3088B4201D3CB00C01A524183082C
:101AF8008B4201D38B00C01A5241D9D243088B4282
:101B080001D34B00C01A5241411A00D20146634624
:101B180052415B10104601D34042002B00D5494288
:101B2800704763465B1000D3404201B5002000F0C7
:101B380005F802BD0029F8D016E770477047C0467F
:101B48001C2101231B04984201D3000C10391B0AE5
:101B5800984201D3000A08391B09984201D30009A9
:101B6800043902A2105C40187047C0460403020200
:101B7800010101010000000000000000BFF34F8FC9
:101B88000549CA68E023DB001A40044B1343CB60C5
:101B9800BFF34F8FC046FDE700ED00E00400FA05F3
:101BA800F0B5C64600B580460C00170006684D081B
:101BB80008002B001F2105E0400001221A401043B5
:101BC80001395B08002BF7D18840FFF7B9FFFF23E5
:101BD80018404000FC3B83409E431F2205E0640000
:101BE80001232B401C43013A6D08002DF7D120003A
:101BF8009040FFF7A5FFFF2303405B009F403E4353
:101C080043461E6080BCB846F0BDF0B5C64600B578
:101C180080461700466A0D0A4C0A280023001F2137
:101C280005E0400001221A40104301395B08002BEF
:101C3800F7D18840FFF784FFFF2318408000F03B6E
:101C480083409E431F2205E06D00012323401D436E
:101C5800013A6408002CF7D128009040FFF770FF84
:101C6800FF2303409B009F403E4343465E6280BC87
:101C7800B846F0BDF0B5C64600B580460C00170062
:101C880086684D0808002B001F2105E0400001224E
:101C98001A40104301395B08002BF7D18840FFF741
:101CA8004FFFFF2318404000FC3B83409E431F2208
:101CB80005E0640001232B401C43013A6D08002D08
:101CC800F7D120009040FFF73BFFFF2303405B0064
:101CD8009F403E4343469E6080BCB846F0BDF0B589
:101CE800C64600B580460C001700C6684D080800B7
:101CF8002B001F2105E0400001221A401043013942
:101D08005B08002BF7D18840FFF71AFFFF23184024
:101D18004000FC3B83409E431F2205E064000123F2
:101D28002B401C43013A6D08002DF7D1200090404C
:101D3800FFF706FFFF2303405B009F403E434346F7
:101D4800DE6080BCB846F0BD7047000010B50400E6
:101D5800034803F02FF8200003F06CF810BDC046CC
:101D68000048004070B504000D00044803F022F854
:101D78002900200003F024F870BDC0460048004048
:101D880070B504000D00044803F014F82900200081
:101D980003F061F870BDC0460048004070B582B0DD
:101DA800019115001E00FFF7D1FF1B48FFF7CEFF7A
:101DB800019C210E230AFF22120213401943230219
:101DC800FF221204134019432406214301910B2DCD
:101DD80011D01D2D17D1042101A8FFF7D1FF0F48FD
:101DE800FFF7B4FF06993000FFF7CAFF0C48FFF76A
:101DF800ADFF02B070BD022101A8FFF7C1FF09487D
:101E0800FFF7A4FFEEE7042101A8FFF7B9FF064892
:101E1800FFF79CFFE6E7C0461C6200082062000846
:101E2800E86600082462000828620008F0B583B05C
:101E380004000D0016001F000748009313000A0055
:101E48002100FFF7ABFF009733002A002100034869
:101E580002F0E0FA03B0F0BD2C6200080064004014
:101E6800F0B583B004000D0016001F00074800936A
:101E780013000A002100FFF791FF009733002A00A2
:101E88002100034802F0C6FA03B0F0BD3C62000826
:101E98000034004010B507490C000C3C1822200003
:101EA800FEF720FA200018300C220021FEF796FDDC
:101EB80010BDC04620070020002100E00131064B7C
:101EC8004A00521890001B185B68002B01D00229A9
:101ED800F4D90320401A70471407002070B5002574
:101EE80000E001350A4B6C006419A4001B195B68FB
:101EF800002B01D0022DF4D9022D07D8044B6C0019
:101F08006619B600F05098194160826070BDC046ED
:101F18001407002010B5034860220021FEF75EFD7B
:101F280010BDC046B4060020F8B50500002401E045
:101F38000134E4B2072C24D8244A63001B199B00FF
:101F48009B5CDB07F4D563001B199B009B585B085F
:101F5800AB42EDD1660030198000170080180430BC
:101F68000822FEF7BFF933199B006A00D9590125E9
:101F78000D401543DD511E00DB5D01221343F3556F
:101F880022E00024072C1FD8104A63001B199B006D
:101F98009B5CDB0702D50134E4B2F3E76600301935
:101FA80080001700801804300822FEF79BF93219C8
:101FB80092006D00D15901230B402B43D3511600D9
:101FC800D35D01221343F355F8BDC046B406002083
:101FD80010B5040002000E21012003F09DFD22002F
:101FE8000C21052003F098FD10BD000010B50A0073
:101FF8000F280ED800290DD00A4C636801218140B2
:102008000B436360084C4300185DE418617803F0E3
:1020180083FD10BD034C6368012181408B436360DD
:10202800F0E7C046C4020020086C000810B5002480
:1020380004E000212000FFF7D9FF01340F2CF8D964
:10204800014B00229A6010BDC402002070B582B016
:102058003A4B1B68002B64D0394B1B68374AD2684F
:102068009B1A5ED400230193364B5C229B5C002BA9
:1020780057D0344A526A002A01D1324A126AC8211A
:1020880049008A4204DC0024002601256D4207E04D
:102098002D48FFF75BFEFFF7C9FF42E001340B0054
:1020A800591E002B0FD0274B8A005218D0001B183E
:1020B80060331B881A009D4201D91D000194964285
:1020C800ECD21E00EAE71E4B1B68204A9A181B49EF
:1020D800CA60002A04D10A001D498C466344D360B3
:1020E8000A35B54223DA154B5A68019901238B400A
:1020F800134218D11748FFF729FE012101A8FFF75D
:102108003FFE1548FFF722FEFFF790FF01980121D7
:10211800FFF76CFF0A4B1B68104A94466344074A52
:10212800936002B070BD0E48FFF710FEF9E70D4846
:10213800FFF70CFEFFF77AFFF3E7C046C402002062
:1021480064570020E40200204C620008307500004B
:102158003175000080620008E8660008A0BB0D0029
:1021680094620008A8620008014B00221A607047B8
:10217800C0010020F0B5C64600B5E24B1B68002B35
:1021880004D1E14A00211160E04A11605A1CDD497E
:102198000A60DF49486ADF49C854012A05D0022A83
:1021A80000D153E280BCB846F0BD0B78312BF9D88A
:1021B8009B00D94AD3589F46D84B2E229B5C002BB4
:1021C800F0D0D74B187C0028ECD0FF28EAD0CE4BB3
:1021D80000221A6001321A6001321A60CD4A0625BF
:1021E800557003211960CD498C7B947018268C5F3B
:1021F80004261E602612D67005261E601471162647
:102208008C5F1D602512557107251D60947120256E
:102218004C5F08251D602512D57109251D601472B3
:102228001C254C5F0A251D60251255720B251D6063
:1022380094721E254C5F0C251D602512D5720D2544
:102248001D6014730C8901351D60250A55730F250F
:102258001D6094734C8901351D60250AD5731125BD
:102268001D6014740C8801351D60250A55741325EA
:102278001D6094744C8801351D60250AD574152598
:102288001D6014750C24095F16241C600C1254750B
:1022980017241C609175A24B5B6A002B01D1A04BDF
:1022A8001B6A1A12984D182129609A4CE275192256
:1022B8002A6023761A232B606076994E2822B35E13
:1022C8001B222A601A12A2761C222A60E3762A228E
:1022D800B35E1D222A601A1222771E222A606377B3
:1022E8002C22B35E1F222A601A12A27720222A60AB
:1022F800E3778A4B588C09312960070AA7540232C0
:102308002A6060540231296024201F5CA754286089
:1023180003329F5C67542A6003315F5C275429604D
:102328002727D85DA0547F4A1068000E60541168B2
:10233800090CE1551168090A28202154116829223D
:10234800A154023028601A21595E02322A600B1209
:1023580023542C232B60A154734A11682D222A6020
:10236800E154724B19682E232B60A15402322A6063
:10237800717CE1547369190EA154190C0132A154EE
:10238800190A0132A1540132A35401322A60F369B7
:10239800190EA154190C0132A154190A0132A15481
:1023A8000132A35437232B6038212960B27CE254D0
:1023B80039222A605E4B187A6054196813372F60E7
:1023C800A15458680A21FFF7CFFA3B232B60E05548
:1023D800584A12683C212960E254574BDA883D2359
:1023E8002B60100A60543E202860E25453490B6861
:1023F8003F222A605F1EBB4123544B68402129605D
:10240800A3545C23F35C36E0454BA1000919C900CD
:102418005B1819007831097818007930007830385D
:10242800C0B2561C384D2E6030390901084339496D
:102438008854901C28601F005E373F788F55D61C43
:102448002E601F005F373F780F54180060300788F0
:10245800101D80462860380A8855561D2E60404653
:102468000F5462331888931D2B60070A8F55073263
:102478002A60C85423005C1E002B05D0224B1A6822
:1024880013000833FF2BBFD9224B1F4A12681A705A
:1024980088E62B48FFF75AFCFFF70EFD012800D805
:1024A80080E6284807220921FFF718FD2648072259
:1024B8000921FFF713FD75E62448FFF747FCFFF7EE
:1024C800FBFC012800D86DE61E4807220921FFF70A
:1024D80005FD1F4807220921FFF700FD62E61D4898
:1024E800FFF734FCFFF7E8FC012800D85AE6154846
:1024F80007220921FFF7F2FC174807220921FFF7F5
:10250800EDFC4FE6C0010020B8010020BC0100200E
:1025180000600040C4010020B06A0008680600207E
:10252800E402002064570020A4060020A006002032
:10253800A80600209C060020D4020020C402002027
:10254800C8620008586C00084C6C0008DC6200087F
:10255800406C0008F4620008346C00085E48FFF71D
:10256800F5FBFFF7A9FC012800D81BE65B4807220A
:102578000921FFF7B3FC5A4807220921FFF7AEFCEF
:1025880010E65848FFF7E2FB574B00221A6001207B
:10259800FFF71EFD06E65548FFF7D8FB524B012210
:1025A8001A60FFE55248FFF7D1FB4F4B02221A6031
:1025B8000020FFF70DFDF5E54E48FFF7C7FB4E4B32
:1025C80000221A604D4B2D329B5C002B01D0013B41
:1025D800DBB24B4A5374E5E54A48FFF7B7FB464B75
:1025E80002221A60464B49325A74DBE54648FFF727
:1025F800ADFB414B01221A60D4E54448FFF7A6FB26
:10260800434B01221A60CDE54248FFF79FFB404A41
:1026180000231360404A137053809380C2E53F48FB
:10262800FFF794FB3A4B00221A603B4B01321A70B9
:10263800B8E53B4B00221A60FFF7F8FCB2E5384BCF
:1026480001221A60374A1268DA60ABE5364B1B780C
:10265800173BDAB21C2A00D9A4E59300334AD358B1
:102668009F46314B5A78324B1A729BE52E4B5B785A
:10267800642B00D900232E4A136093E52A4B5A781D
:1026880093009B185B002A4A53608BE5264B5978C8
:10269800214B64224A43DA8084E5214C00232360DD
:1026A800214B58780121FFF7A1FC1E4B1B68214ADA
:1026B8009A18A260002A00D074E5194A1E498C466F
:1026C800634493606EE5164B00221A60164B5878E7
:1026D8000021FFF78BFC65E508630008586C0008CB
:1026E800286C000820630008A00600203463000856
:1026F8005063000864630008A406002068060020F0
:10270800E402002084630008A4630008C46300088E
:102718009C060020DC630008D4020020F463000853
:10272800C402002064570020C4010020786B000810
:10273800A806002040771B0041771B00084B1B6848
:10274800084A1268934207D2054A591C1160064A82
:10275800D25C064B9A627047044BAA229A62FAE747
:10276800BC010020B8010020C40100200060004026
:10277800034A00231360034A1360034A1360704737
:10278800C0010020B8010020BC01002010B5244B76
:102798009B691B0710D5224B9B69FE22120413402C
:1027A8008822D20393421AD01D4AD36908210B43C9
:1027B800D361FFF7DDFF10BD194B9B69DB0616D40B
:1027C800174B9B695B0718D4154B9B699B0717D45C
:1027D800134B9B699B0616D4114B9B69EBE7FFF7DC
:1027E800C3FC0F4AD36908210B43D361E3E70C4AC2
:1027F800D36910210B43D361DDE7FFF7BBFCDAE7B0
:10280800FFF79CFFD7E7064BDA6920210A43DA6114
:102818009B69DB07CFD4024B01229A61CBE7C04604
:102828000060004010B5114BD969802292000A431C
:10283800DA61D969802252000A43DA61D9698022B3
:10284800D2000A43DA61D969802252010A43DA6167
:10285800D969802292010A43DA61D969802212017A
:102868000A43DA61FFF784FF10BDC04600600040EC
:10287800F0B583B0404E336B20273B433363336B53
:102888003B400193019B8025ED013C4C022229002D
:102898002000FFF785F9042229002000FFF7B5F989
:1028A800022229002000FFF7E5F963682B436360E3
:1028B800012229002000FFF712FA80252D020222AA
:1028C80029002000FFF76CF9042229002000FFF7F7
:1028D8009CF9022229002000FFF7CCF963682B43FA
:1028E8006360012229002000FFF7F9F9336C802288
:1028F800520413433364336C13400093009B9021BC
:1029080072581F4B1A408023DB03134373501D4931
:1029180000231D4A8B54802424068C6001328B547A
:102928000120C860194B1A6882431A60184A1A6154
:102938009A68D20AD202442632439A609A681543AA
:102948009D601A6802431A601A6808252A431A60AB
:102958001A6808352A431A601A683A431A601A68CE
:102968000C3D2A431A601A68023D2A431A608C609B
:10297800C86003B0F0BDC0460038024000140240F1
:10298800FFFF3FFF00E100E05F0300000060004040
:1029980005011000F0B5CE46474680B587B0734BA9
:1029A80046229A5E724B5D68002D1CDD2C00FA23CE
:1029B8009B009D4200DA1C006C4E338899460A2120
:1029C8001800FEF7D1FF2418A0346420604349465C
:1029D800FEF7CAFF0590336A766A002E00D11E0002
:1029E800002300270CE01500E0E7604A19002531B4
:1029F8004900885E19002431490088523F18013384
:102A0800082BF2DD594A5A231400D652F0190A212C
:102A1800FEF7AAFF8046574B1B68226C9B1A76D498
:102A2800544B1B68544A944663442364680003214A
:102A3800FEF79AFF4346C31A642058434946FEF7F7
:102A480093FF070003212800FEF78EFF404514DDA1
:102A58004422A35EDF19059B9F4200DD1F00434B04
:102A680044229F52414B5C22995C00294FD004328A
:102A78009D5A02329C5A002313E045450BDA3B4B22
:102A880044229B5EDB19002B03DD384A4421535254
:102A9800E8E70123F9E73948FFF758F9E2E7013396
:102AA800DBB2994215D91F00304A9800C018C000FF
:102AB800121860321288AA4200D215002B4AB800B8
:102AC800C019C000121862321288A242E7D9140055
:102AD800E5E7264B2A4A9C52E02189005D52294AA3
:102AE800294F00942B003800FEF740F83800FFF714
:102AF8002DF90535AC4202DD244B9C4222D9244BEA
:102B08009C466444A4B2F9235B009C4222D9174B2B
:102B18004622985E44229D5E1E4AE0211A4C642398
:102B28006B430293019043460093330089002000D1
:102B3800FEF71CF82000FFF709F907B0C0BCB9463A
:102B4800B046F0BD1448FFF701F9084B4622A02112
:102B58009952DCE71148FFF7F9F8044B46220021A7
:102B68009952023A01319952D1E7C046E402002055
:102B7800A806002064570020581B00000C640008B9
:102B88007E0300002C640008E4530020790D000047
:102B980053F2FFFFAC64000850640008806400082A
:102BA80070B5684B1A6A5D6A002D00D11500664B36
:102BB8002E229B5C002B00D170BD6448FFF7C6F83D
:102BC800634C01212000FFF7DBF86248FFF7BEF8ED
:102BD800601C0121FFF7D4F85F48FFF7B7F8637866
:102BE800022B03D95D4B1B68012B41D05C4B1B6842
:102BF800012B00D183E05B4B1C68002C2AD0514B81
:102C08001A7C514B2B215B5C9A4202D2564B002115
:102C180019704D4B2C215B5C9A4202D8524B012211
:102C28001A70514B1B78002B14D04F4B1E895889B2
:102C380070436421FEF798FE0300322D77DD0A3BCE
:102C480032003232484D6A80642058433100FEF722
:102C580001FEA880002CAFD1434C21890B003233F0
:102C68006380E38864205843FEF77EFEA080A3E7D4
:102C7800344B1A7C344B2A215B5C9A4206D8314B80
:102C88002820195E2A201B5E994213DA2E4B9B7B63
:102C9800022B01D0072BA9D1344B1B78012BA5D1CE
:102CA8003348FFF753F80120FFF792F9264B00222B
:102CB800DA739BE7244B29215B5C9A420FD9224B9C
:102CC8009B7B052B15D8032B90D32A48FFF73EF89A
:102CD8000020FFF77DF91C4B0022DA7386E72648AF
:102CE800FFF734F80020FFF773F9174B0022DA7367
:102CF8007CE7093BDBB2012B00D977E7E5E7114B0D
:102D08001A7C114B2D215B5C9A4206D80E4B02317E
:102D1800002058540B4B5A746DE70B4B2B215B5C0E
:102D28009A42F7D3084B043101205854F2E7002D9A
:102D380086DA0D4B0A22521BDB88934200DC7FE7C0
:102D480013007DE7E402002068060020F064000814
:102D58007606002004650008E8660008A006002042
:102D6800A40600209C060020D4020020980600201B
:102D7800106500085865000838650008F0B5DE469B
:102D880057464E464546E0B5B5B0EA4F0C220021FD
:102D98003800FDF723FEE84C302200212000FDF723
:102DA8001DFEE64DE122920000212800FDF716FEE7
:102DB800E34B0E2200219A461800FDF70FFEE1486A
:102DC80024220021FDF70AFEFFF7A4F8442303227A
:102DD800EA52DD4B98461B682B640023994646331C
:102DE8004A46EA5228004830142514320021FDF7DB
:102DF800F5FDD64B01261E60D54B1E60D54B1E60D7
:102E08002923E55401334B22E2540133233AE25497
:102E180001330A3AE254083B3B72013B9B467B7202
:102E28000A33E5540233E654FA23DB005246D380D2
:102E3800C94B1E6001225242DA604A465A609A60C3
:102E4800FFF7F4F8C54DAB68F024A343AB60AB685B
:102E5800C34A1340AB60AB68C24A1340AB60C24878
:102E680002F010FFC14BC24A5A60C24A5946545434
:102E78004A469A6007321A602B6B33432B632B6BDD
:102E880033401C931C9B2A6B02231A432A632A6B28
:102E980013401B931B9B2A6B04231A432A632A6B38
:102EA80013401A931A9B2A6B08231A432A632A6B26
:102EB80013401993199B2A6B10231A432A632A6B10
:102EC80013401893189B2A6B20231A432A632A6BF2
:102ED80013401793179BE120000301F0DDFFE12465
:102EE8006402200002F0F8FBA34F380001F07CFCDC
:102EF800380001F0DBFD9620800102F0CDF99F48F3
:102F080001F058FF9E48072101F05AFFFA2002F00D
:102F1800A5FE200002F0C0F99A4807220921FEF711
:102F2800DDFF994B1E70FFF7A3FC984B80246401CA
:102F3800974922002BA802F0ABFE964B9649220037
:102F480024A802F0A5FE954B84229549D2001DA81D
:102F580002F09EFE9348FEF7F9FE934A08231D21CE
:102F68009248FEF77DFF43461B68914A92469A4471
:102F780043461B689146994443461C68FA239B00C4
:102F88009C4664446B6F33436B67744B5B6F9B0762
:102F9800FBD5884B884A1A60884A1A6000225A6012
:102FA800874A9A6002E00023012B05D0814BDB6839
:102FB8005B07F8D10123F7E77E4B824A1A600023AA
:102FC8000B930D930C930E9300271D00564600F0AB
:102FD800C9FC7D48FEF7BAFEFEF7D0FD7B48FEF738
:102FE800B5FEFEF7CBFD584B1E68714B9C466644F8
:102FF800774B8022D2000092984632AA33A97548AE
:1030080001F09CFB8246329A3399734853460093E9
:103018004346FEF7C3FE329B002B01D100F0B9FCFA
:10302800339A624B9A4201D000F0B3FC684B1B788C
:10303800012B01D000F0ADFC434B1A68120E16A903
:1030480088460A701A68120C4A701A68120A8A703E
:103058001B68CB706148FEF779FE04214046FEF7F5
:103068008FFE4E48FEF772FE594B9A78324B1A740F
:10307800002C05D1344B1C68FA239B009C46644401
:10308800534A534632993398FEF7EAFE00F081FC22
:103098004F4808220021FDF7A1FC294B1B78002B83
:1030A8000BD0274A90465088494A010A117050703F
:1030B80041468988080A9070D1705A425341444A5F
:1030C800137108231D214648FEF7CAFE1E4B1B68D4
:1030D800AF229200944663440B9300F061FC414890
:1030E800FEF734FE002401E00134E4B2072C15D8C1
:1030F8003D4A63001B199B009B5CDB07F4D511005C
:1031080063001A199200505840081A199200521870
:10311800043208231D21FEF789FEE5E7002400F0AC
:1031280047FCFEF783FF00F04DFCFEF78FFF00F031
:1031380051FCC046A806002068060020E4020020D2
:10314800D40200201407002064570020A4060020A1
:10315800A00600209C060020C4020020003802407F
:10316800FFE3FFFFFF1FFFFF0024F40010E000E073
:103178007F3E000000ED00E020A1070000100140A4
:10318800786C0008646C00089806002054650008F4
:10319800403F0020B0650008402F0020E866000886
:1031A800404F0020B46500088C61000871180000C9
:1031B80020BF020000300040CCCC00005555000074
:1031C800EE0F0000AAAA0000BC650008D46500083C
:1031D8006453002000640040EC650008FC650008AA
:1031E800F4E5061818660008B4060020E74C8023AA
:1031F800DB000093230032AA33A9E54801F09EFAC8
:1032080003000F90329A3399E24800932300FEF7A7
:10321800C5FD00232374E04B1B68E04A914699449E
:10322800339BDF4A93420DD8DE4A934200D25EE2D6
:10323800DD4A94466344062B00D958E29B00DB4ADA
:10324800D3589F46DA4A934200D050E2CF4B1A78BF
:10325800120259780A439246D64A51461181997802
:103268000902D8780143884651811C7914730A21D0
:103278005046FEF7EFFA83B20F930A215046FEF745
:103288006FFB8BB210930A214046FEF7E3FA83B234
:1032980011930A214046FEF763FB8BB2E20700D484
:1032A800E4E2C54A9446A20700D4E2E2C34A904643
:1032B800620700D4E0E2C24A9246220700D4DEE266
:1032C800C04A9346E40600D4DCE2BF4CBF4AFC2166
:1032D800BF4807945C4606945446059444460494B3
:1032E800644603940293119B0193109B00930F9BD8
:1032F8008900FDF73BFCFAE1A44B9A465B781B0278
:103308005246127813439846B24B9B4642461A805F
:103318005346DC78240224B29B781C435B461C810C
:1033280053461B79594610930B74404660436421F9
:10333800FEF71AFB5A46119010625046C3791B02D9
:1033480082791800104382460A214046FEF782FA25
:1033580080B2129064215046FEF702FB0691642168
:103368005046FEF777FA0590109A04921199039146
:103378000A212000FEF7DEFB09B202910A21200093
:10338800FEF7F2FA00B201900A214046FEF7E8FA89
:1033980089B20091129B904AFC2189008C48FDF764
:1033A800E5FB5B465B7C002B00D14B33894A127CE2
:1033B8009A4200DD1A00754B1A7100225A71874B28
:1033C8001B68934200DC87E18548FEF7BFFC834B0E
:1033D8001A686E4B1A7100225A717DE16B4A547952
:1033E800240224B213791C43D3791B021BB29279AD
:1033F80013439B46002B00DCB8E00023D9B2754B81
:10340800362210919954614B9A465B781B021BB285
:1034180052461278134398460A211800FEF7A4FA78
:1034280003B211930A214046FEF784FB0BB21293B4
:103438005346DB781B021BB25246927813439846D8
:103448000A211800FEF790FA03B213930A214046A6
:10345800FEF770FB0BB214930A212000FEF784FAE2
:1034680003B215930A212000FEF764FB0BB29A46BB
:103478000A215846FEF778FA03B298460A215846B8
:10348800FEF758FB0BB2109900297BD0554A944699
:10349800554A4F486146079106934346059353465C
:1034A8000493159B0393149B0293139B0193129B04
:1034B8000093119BFC218900FDF758FB454B3622F0
:1034C8009B5C002B01D1002C0DDA424A2A21535E65
:1034D8009B462E4B594699710912D9712824145FBD
:1034E8001C7122125A71002C07D0621D14B2274B8E
:1034F8001A7122125A71374B9C85364B1C855A46D5
:103508005A851B7C0A2B77D9FFF744FA314B3C22AA
:103518009A5C324B5B7A9A4276D22E4B2820195EFF
:103528004420185E0B1C814200DA031C1BB21749A9
:103538000B711812487127498B85284B1B7A9A42C0
:1035480000D2C9E02948FEF701FC104B00221A718D
:103558005A71204B9A85012444329C522000FEF770
:1035680037FD234B1C60FEF761FDB5E0002C01DD43
:10357800002343E7174B1B7C092B01D800233DE7A9
:1035880001233BE71B4A944682E7C0466453002068
:10359800003400402C6600086457002020BF020059
:1035A80078180000721800008EE7FFFFEC6B000827
:1035B800E550FF18D4020020846500088C650008D7
:1035C800946500089C650008A46500086C680008FC
:1035D80074530020E40200203C660008A80600207E
:1035E800846600087865000894660008EC660008A0
:1035F800A006002054650008A348FEF7A7FBA34BCC
:1036080000229A71DA717FE7A14B44215B5E8EE755
:103618009E4A1378984653789A46D1780902937847
:103628009B46D479240293791C43240453791B02C2
:1036380012791343974AFC20844697481C43029406
:103648005B461943019153460093434661468900FE
:10365800FDF78CFA8E4B36229B5C002B3CD08B4BB3
:103668000022DA709A7037E0884BDA78120299787B
:103678000A439346864A5946D1851979080031216B
:10368800109050545C79A24601315454D9790902FA
:1036980098790143884691865C78240224B21B7885
:1036A8001C430A212000FEF75FF903B2119342463A
:1036B800049252460392109802905A4601920A21A7
:1036C8002000FEF737FA09B20091119B734AFC21DA
:1036D80089007148FDF74AFA6C4C33982100FEF7CF
:1036E80023FC329933980F9B2200FEF79FFB6A4810
:1036F800FEF72CFB002474E1644A53781B0212780D
:103708001343674AFC2164488900FDF72FFA604B90
:1037180036229B5C002B03D05C4B00225A701A7037
:103728005A4B83221A710022DA719A715A7108234E
:103738000F93D1E7554B1C78554A3E21545499783C
:1037480088463F214046505419798A463C215046C4
:10375800505499798B463D21584650545A78120254
:1037680012B21443DA78120212B241461143884663
:103778005A79120212B2504610438246DB791B0274
:103788001BB2594619438B460A212000FEF7ECF874
:1037980003B20F930A215846FEF7CCF909B20691F5
:1037A8000A215846FEF7E0F800B205900A21504673
:1037B800FEF7C0F909B204910A215046FEF7D4F881
:1037C80000B203900A214046FEF7B4F909B202910B
:1037D8000A214046FEF7C8F800B201900A212000ED
:1037E800FEF7A8F909B200910F9B2E4AFC21890027
:1037F8002948FDF7BBF97AE7244B5978090218786C
:10380800DC78240224B29A7814435A791202924638
:103818001A799346DA79120212B29B791A439046C2
:1038280001430F910A211000FEF784F909B20491AF
:103838000A214046FEF798F800B2039053465A46CC
:10384800134302930A212000FEF774F909B201918B
:103858000A212000FEF788F800B200900F9B124A58
:10386800FC2189000C48FDF781F940E70F4A94468E
:1038780019E50E4A90461BE50C4A92461DE50B4A8F
:1038880093461FE5094C21E5E066000864530020D3
:10389800E4020020306700087453002070670008B5
:1038A800BC670008DC670008306800085465000839
:1038B8001DA802F02BFB002800D0C2E00E9A002AB7
:1038C80003D0DD4B1B689B1A1ED424A802F00EFA05
:1038D800DA48FEF73BFADA4801F06CFAD9480421D5
:1038E80001F06EFAD84B5C2200219954D24B1B6828
:1038F800FA229200944663440E930227CE4B1B682B
:10390800D24A944663440C93D14B5B6880214901A9
:10391800C91A2BA802F0CEF9022D00D1E1E200D994
:10392800C5E2002D00D1CFE2012D1BD12BA802F05A
:10393800DDF9C848FEF70AFAC74D28686968FEF736
:103948001FFAC648FEF702FAC54801F033FA28689C
:10395800696801F035FAB84B1B68BC4A9446634461
:103968000D930225BF4BC04A1A60B34B1B689B1BC3
:1039780001D4FFF72EFBB04B1B684A469B1A01D4B3
:10398800FFF72CFBB94800F0C7FE002801D0FFF76D
:103998002AFBA94B1B680B9A9B1A01D4FFF778FBEB
:1039A800002C05D0A44B1B681B1B01D4FFF797FB09
:1039B800AF4B9B68002B05D09F4A1268D31A01D4DD
:1039C800FFF7AFFB002F05D1A94B1B68002B01D0D7
:1039D800FFF7ABFBA74800F09FFE002801D0FFF7D8
:1039E80005FCA54B5B688421C900C91A1DA802F013
:1039F80061F9A24B5B6880214901C91A24A802F029
:103A080059F9002F00D153E77B1EDBB2032B00D9F5
:103A18007AE724A802F07AFA002833D10C9A002A0F
:103A280000D171E7844B1B689B1A00D56CE7864B65
:103A380000225A625C215A5400230C930E930027EB
:103A480062E780228E4B1DA98A46D200984619004B
:103A5800504602F071FA07008A48FEF777F93900F4
:103A68004046FEF77FF9764801F0A4F93900404650
:103A780001F0A6F924A802F06FFB504602F039F9CC
:103A880001273BE780227E4BD2009A46190024A8E2
:103A980002F052FA80467C48FEF758F941465046F3
:103AA800FEF760F9032F00D11BE1042F00D17BE161
:103AB800022F00D0E5E124A802F04EFB1690431C2B
:103AC80014D14346022B08D970496D4B984618000B
:103AD800FCF7C6FE804500D1EAE024AB9846180002
:103AE80002F03AFB404602F004F997E7564B9A4633
:103AF800586024AB9846180002F033FB5346D86050
:103B080016AB9A4604221900404602F091FA0422A4
:103B18005146404602F08CFA04225146404602F0D3
:103B280087FA04225146404602F082FA042251469E
:103B3800404602F07DFA04225146404602F078FAE7
:103B480004225146404602F073FA04225146404688
:103B580002F06EFA04225146404602F069FA042245
:103B68005146404602F064FA04225146404602F0AB
:103B78005FFA04225146404602F05AFA042251469E
:103B8800404602F055FA04225146404602F050FAE7
:103B9800404602F0E1FA431C08D02B4B5B69834294
:103BA80004D0254B1A68284B9A61586124AB984673
:103BB800042216A9180002F03BFA404602F0CCFA9B
:103BC8001690431C01D0204B987424A802F0C4FA24
:103BD8001690431C01D01C4BD8611B4B9846DB68E0
:103BE8009B4643465B689A4664211800FDF7BCFE75
:103BF8005B4658431549FDF7B7FE0300424650623D
:103C0800234A1F4841464969029101935B46009344
:103C180053468021C9008246FCF7A8FF5046FEF7AC
:103C280095F84346DB68002B34DB002B3CDD064B64
:103C38005B6A002B38DA31E064570020BC68000862
:103C480000140140CC680008E4020020102700009E
:103C580040640240A869000814070020E8660008CC
:103C68000010014000300040AAAA00000064004093
:103C7800C40200200034004028600240286402404A
:103C880064530020AC680008D46800084C69000838
:103C9800E0680008D04A526A002AC6DDCF48FEF71D
:103CA80055F8CD4B00225A6224A802F022F8B5E656
:103CB80024A802F01BF8CA48FEF748F8C94801F0E2
:103CC80079F8C948052101F07BF8C34B5D22002132
:103CD8009954C64B1B68C64A944663440C93032701
:103CE8009CE643460C2B07D9C249C34B9A46180099
:103CF800FCF7B6FD824513D04346022B07D9BF49CE
:103D0800BD4B98461800FCF7ABFD804532D024AB7C
:103D18009846180002F020FA404601F0EAFF7DE6D6
:103D28008023DB009B46534624AA92465A4698466F
:103D38001900504602F07CF95A464146504602F0B6
:103D480077F9A54B5D22934698469B5C28215943F9
:103D5800583141440C313C3A504602F069F9434627
:103D68005A469B5C0133424659465354504601F02B
:103D7800C0FF53E624A801F0B9FFA148FDF7E6FF0C
:103D8800984801F017F89F48052101F019F8924B5F
:103D98005D22995C013A9954944B1B68944A944665
:103DA80063440C93042739E624A802F0D5F9431E8E
:103DB8009A46894B5C229B5C534502D95346132B88
:103DC80013D94346022B07D98C498B4B98461800C8
:103DD800FCF746FD80454AD024AB9846180002F00F
:103DE800BBF9404601F085FF18E624AB9846180059
:103DF80002F0B2F9404602F0AFF9404602F0ACF9E1
:103E0800404602F0A9F9404602F0A6F9404602F001
:103E1800A3F9714A282351464B4392469A44534684
:103E280060331880404602F097F953466233188091
:103E3800404602F091F9404602F08EF9404602F001
:103E48008BF9404602F088F953465E3318704046B5
:103E580002F082F9404602F07FF9404602F07CF910
:103E680053465F331870404601F043FFD6E524A857
:103E780001F03CFF6448FDF769FF00230C931F0025
:103E880042E524A802F068F94346022B07D95B49AA
:103E9800594B98461800FCF7E3FC804503D024A84A
:103EA80001F027FFBAE500230E931F00F7E7EB1E8A
:103EB800DBB2012B00D955E54C4B1B680D9A9B1AB8
:103EC80000D5EEE100254DE5FDF7F6FF032801D00A
:103ED800012547E54D484E4A0721FDF7FFFF01251B
:103EE80040E52BA801F0D7FF4A4B9A6890422DD2A3
:103EF800FDF7E2FF032800D134E53C4B1B680D9A1F
:103F08009B1A00D52EE54448FDF720FF374B1B6868
:103F1800FA229200944663440D932BA801F0D9FE2F
:103F2800FDF7B8FF9620800101F0B6F93B4800F094
:103F380041FF3B48072100F043FFFA2001F08EFEC5
:103F4800E120400201F0A8F903250BE52A492BA836
:103F580001F0ABFF16902F4B9B6898421DD3314858
:103F6800FDF7F4FE2B4B9968234D2800FDF708FF59
:103F78002D48FDF7EBFE2B78AA2B03D11E4B5B785F
:103F8800552B55D0194B1B68FA229200944663446E
:103F98000D93FDF77FFF0325E4E42448FDF7D6FEE3
:103FA80016AD04212800FDF7EBFE2BA801F073FFE6
:103FB800169004212800FDF7E3FE1B48FDF7C6FE16
:103FC8002BA801F086FE094B1B68F533FF330D93D0
:103FD800FDF760FF0425C5E4E4020020206900081D
:103FE8005069000800140140646900086457002003
:103FF800102700006C690008645300204C69000811
:104008007C6900089069000898690008706C0008CD
:104018005F02000014070020546A000800100140E5
:10402800786C0008C8690008E8660008B4690008E8
:10403800A04B9B785F2BA5D19E4BDB78812BA1D120
:104048009C4B1B79902B9DD19B4A623B0021D154FC
:10405800984B997A090209B2587A0143D182997B1F
:104068000902587B01430D911180197C0902D87B04
:1040780001438A465180997C0902587C01430F917B
:104088009180197D0902D87C01438B46D180997DA6
:104098000902587D014310911181197E0902D87DCA
:1040A800014311915181597E937B994202D01300AB
:1040B8000022DA73804B9973DB7BFF2B02D07E4A98
:1040C8000133D3737B4D26216B5C1B021BB2013974
:1040D800695C0B4378488046838128202B5C1B024F
:1040E8001BB227216A5C1343424693822A23EB5C66
:1040F8001B022922AA5C1343424653823823EB5CF5
:104108001B023722AA5C1343424653833E23EB5CCF
:104118001B023D22AA5C1343424613844023EB5CF6
:104128001B023F22AA5C13434246D3834223EB5C23
:104138001B024122AA5C1343424693834623EB5C4D
:104148001B021BB24522AA5C134342461383CB23AE
:10415800EB5C1354CC23EB5C5354CD23EB5C01395B
:104168005354CE23EB5C01395354CF23EA5CAB3B69
:104178004146CA54AC33EB5CFA22D20094466344FD
:104188004B840A215846FDF7EBFB89B208910A21B6
:104198005846FDF75FFB80B207900A215046FDF7AD
:1041A800DFFB89B206910A215046FDF753FB80B226
:1041B8000590119B04930A210F9B9A461800FDF75E
:1041C800CFFB89B203910A215046FDF743FB80B229
:1041D80002900A210D9B9A461800FDF7C1FB89B28F
:1041E80001910A215046FDF735FB80B20090109BE3
:1041F800324A8021C9002800FCF7B8FC2800FDF7E6
:10420800A5FD434616229A5E924642461823D15E81
:104218002023D05E1A23D25E9446294A634602932D
:104228000190009153468021C9002800FCF79EFCAC
:104238002800FDF78BFD43461A88224B9A4204D882
:104248001D4B5B881F498B4203D91F48FDF77EFD34
:10425800B6E619491620095E002917D1002A15D19A
:10426800002B13D1144B0C229B5E002B0ED1124B4A
:104278001E229B5E002B09D10F4B1A229B5E002B3E
:1042880004D10D4B18229B5E002B06D00A4B2E2220
:1042980001219954FEF784FC74E60C48FDF756FD9D
:1042A8008EE6FDF709FE032801D1FFF75BFB002529
:1042B800FFF758FB6453002068060020D469000803
:1042C800086A0008701700003C6A0008486A00087D
:1042D800DFF834D00D480E490E4A002302E0D458C6
:1042E800C4500433C4188C42F9D30B4A0B4C002336
:1042F80001E013600432A242FBD301F0ADFCFCF7ED
:1043080049F801F0A5FC70470000082000000020D3
:1043180054000020886C00085400002068570020D2
:10432800F0B583B006001D00089CC3689B070CD13C
:1043380003690327380018401F4201D0012705E010
:10434800002A4ED0002313604BE00027002A11D02A
:104358003B001B331B019B595B072FD51D201060A9
:10436800002907D03B001B331B019B592022121A3E
:10437800D3400B603B001B331B01F3185A680F2313
:104388001340A34206D83B001B331B01F3185B689C
:104398000F241C40002D26D0082200216846FCF777
:1043A8001DFB3B01F3181A00B932FF321268009264
:1043B800BD33FF331B68019300220BE00B20CEE7CF
:1043C80093089B0069465B5803211140C900CB4004
:1043D800AB540132A242F3D32000002F05D0012FA5
:1043E80008D003B0F0BD0020F7E7F368202213439C
:1043F800F360F6E73369202213433361F1E70000E5
:10440800034B984201D0002070470120FCE7C046CA
:1044180000340040F0B585B0060001911F0003216B
:1044280000E01900B068E0235B05184219D1B369B0
:10443800FF20184210D0B36836481843B060B468FB
:10444800344D2C40AC42FAD04B1EDBB20029E8D1E7
:104458000520404205B0F0BDB068E0235B05184276
:104468004FD0B3681B0E03241C40032C4CD00B2ADE
:1044780004D01D2A18D003204042EBE7019B5905C0
:10448800230018331B0199510A9B082B3FD823009E
:1044980018331B01F3180A9A5A600822002102A84F
:1044A800FCF79CFA002316E0019BD900042319436A
:1044B800230018331B019951E6E79908F85C032299
:1044C8001A40D20090408A0002A95158019108432D
:1044D80002A9505001330A9A9342EED32301F318EC
:1044E8001A008932FF32029911608D33FF33039A23
:1044F8001A6018342401A35901221343A3510A98BE
:10450800A8E701204042A5E702204042A2E7042094
:1045180040429FE78080800010B5034A002103488D
:10452800FCF75CFA10BDC0460828000038070020D8
:10453800F0B5D6464F464646C0B504000D001600F5
:10454800FFF7EAFF2300C82202E0002204C30A00A2
:10455800511E002AF9D1236801321343236063688E
:10456800DB07FCD5374B9D4204D0374B9D4201D029
:10457800364BE3612368202213432360002E5CD06E
:104588002368103A93432360236808221343236067
:1045980080239B009946E25801231A4349466250FA
:1045A80087229200A1589943A150812189008C4605
:1045B80061589943604621508327BF00E1599943C8
:1045C800E1518526B600A1599943A15100218A4697
:1045D800902189005046605004316050A158194319
:1045E800A150A1588846022140468843A050604601
:1045F800205888438046604645462550E059084380
:10460800E051A7598F43A75134365046A05104367C
:10461800A051A5582943A150626912210A43626139
:104628004A46A2589A434946625022689A432260F1
:10463800E0BCBA46B146A846F0BD23681022134331
:104648002360A1E7A086010040420F0001001C0082
:10465800F0B5CE46474680B583B08146FFF7D0FE19
:10466800040083001B181B021B189B00194A9F5843
:10467800FF2F27D8174E85002D182D022B189B00C9
:104688007A1C9A51BB009846D91989002B189B00AF
:10469800C9180B0008339B19043389190A0008321A
:1046A8000431082000904846FFF73AFE4744BF000F
:1046B8002D19AD007F19F719786103B0C0BCB94650
:1046C800B046F0BD00230093002200214846FFF7C2
:1046D80027FEF2E73807002010B50248FFF7B8FFB9
:1046E80010BDC0460064004010B50248FFF7B0FF97
:1046F80010BDC0460064004010B50248FFF7A8FF8F
:1047080010BDC0460034004010B50248FFF7A0FFB6
:1047180010BDC0460034004010B5FFF771FE83009D
:104728001B181B021B189B0003495858002801D06E
:10473800CA18506910BDC04638070020F0B583B0CC
:104748000D0017000193FFF75BFE06008400241894
:1047580024022418A400234BE358002B01D001287D
:1047680005D900233B600027380003B0F0BD830063
:104778001B181B021B189B001A4AD3185A682A6078
:104788009A683A605F69089B9F4200D91F00B4008D
:10479800A4192402A11989000831124D49190431BC
:1047A8003A000198FBF79EFD72B6A3199B005A596F
:1047B800013A1C005A51FF2A01D962B6D4E7B30066
:1047C8009B191B022000074C001904309B199B0001
:1047D80014331919043193009A189200FBF782FDDB
:1047E800EBE7C0463807002010B582B00100A94A9F
:1047F800106C8024A40420431064136C234001939C
:10480800019B0022A448FFF793FEA44B1C681F21BC
:1048180080204000802305E0400001221A40104318
:1048280001395B08002BF7D18840FDF789F9FF2390
:1048380018404000FC3B83409C431F2180204000DF
:10484800802305E0400001221A40104301395B082B
:10485800002BF7D18840FDF773F9FF23184040007B
:10486800FD3B83401C438D4A1460536A0F218B43E0
:1048780006390B4353629468163180204000802328
:1048880005E0400001221A40104301395B08002B63
:10489800F7D18840FDF754F9FF2318404000FC3B4E
:1048A80083409C431F2180204000802305E0400076
:1048B80001221A40104301395B08002BF7D18840C8
:1048C800FDF73EF9FF2318404000FD3B83401C43A1
:1048D800724B9C605A6872490A405A60DC68213100
:1048E800FF3180204000802305E0400001221A406B
:1048F800104301395B08002BF7D18840FDF720F9F8
:10490800FF2318404000FC3B83409C43802300E089
:104918005B08002BFCD1614BDC601C681F218020E8
:10492800800080235B0005E0400001221A4010430C
:1049380001395B08002BF7D18840FDF701F9FF2307
:1049480018404000FC3B83409C431F21802080008E
:1049580080235B0005E0400001221A401043013922
:104968005B08002BF7D18840FDF7EAF8FF231840D1
:104978004000FD3B83401C43484B1C605C6A1F2180
:104988000220012305E0400001221A4010430139AA
:104998005B08002BF7D18840FDF7D2F8FF231840B9
:1049A8008000F03B83409C431F210220012305E047
:1049B800400001221A40104301395B08002BF7D14F
:1049C8008840FDF7BDF8FF2318408000F63B834080
:1049D8001C43324B5C629C681F218020800080232E
:1049E8005B0005E0400001221A40104301395B08D2
:1049F800002BF7D18840FDF7A3F8FF2318404000AB
:104A0800FC3B83409C431F218020800080235B0067
:104A180005E0400001221A40104301395B08002BD1
:104A2800F7D18840FDF78CF8FF2318404000FD3B84
:104A380083401C43194B9C605A681A490A405A60C3
:104A4800DC681F218020800080235B0005E0400097
:104A580001221A40104301395B08002BF7D1884026
:104A6800FDF76EF8FF2318404000FC3B83409C4351
:104A780080235B0000E05B08002BFCD1074BDC6067
:104A8800094B802252031A60802292031A6002B0F6
:104A980010BDC046003802400064004000040240D7
:104AA800FFFEFFFFFFFDFFFF00E100E010B582B051
:104AB8000100B44A106C8024A40120431064136CD4
:104AC80023400193019B0022AF48FFF731FDAF4B14
:104AD8001C681F210820042305E0400001221A4019
:104AE800104301395B08002BF7D18840FDF728F8FF
:104AF800FF2318404000FC3B83409C431F210820B3
:104B0800042305E0400001221A40104301395B08E4
:104B1800002BF7D18840FDF713F8FF231840400019
:104B2800FD3B83401C43994B1C601C6A1F210820D5
:104B3800042305E0400001221A40104301395B08B4
:104B4800002BF7D18840FCF7FBFFFF2318408000BB
:104B5800F03B83409C431F210820042305E04000CC
:104B680001221A40104301395B08002BF7D1884015
:104B7800FCF7E6FFFF2318408000F43B83401C430A
:104B8800824B1C629C681F210820042305E040001A
:104B980001221A40104301395B08002BF7D18840E5
:104BA800FCF7CEFFFF2318404000FC3B83409C43AA
:104BB8001F210820042305E0400001221A40104369
:104BC80001395B08002BF7D18840FCF7B9FFFF23B8
:104BD80018404000FD3B83401C436C4B9C605A6866
:104BE80008218A435A60DC6817310820042305E04D
:104BF800400001221A40104301395B08002BF7D10D
:104C08008840FCF79DFFFF2318404000FC3B834091
:104C18009C43042300E05B08002BFCD15B4BDC6069
:104C28001C681F211020082305E0400001221A40BB
:104C3800104301395B08002BF7D18840FCF780FF4F
:104C4800FF2318404000FC3B83409C431F21102059
:104C5800082305E0400001221A40104301395B088F
:104C6800002BF7D18840FCF76BFFFF23184040006A
:104C7800FD3B83401C43454B1C601C6A1F211020D0
:104C8800082305E0400001221A40104301395B085F
:104C9800002BF7D18840FCF753FFFF231840800012
:104CA800F03B83409C431F211020082305E040006F
:104CB80001221A40104301395B08002BF7D18840C4
:104CC800FCF73EFFFF2318408000F43B83401C4361
:104CD8002E4B1C629C681F211020082305E0400011
:104CE80001221A40104301395B08002BF7D1884094
:104CF800FCF726FFFF2318404000FC3B83409C4301
:104D08001F211020082305E0400001221A4010430B
:104D180001395B08002BF7D18840FCF711FFFF230E
:104D280018404000FD3B83401C43184B9C605A6868
:104D380010218A435A60DC680F311020082305E0EF
:104D4800400001221A40104301395B08002BF7D1BB
:104D58008840FCF7F5FEFF2318404000FC3B8340E9
:104D68009C43082300E05B08002BFCD1074BDC6068
:104D7800074B80229200DA608022D200DA6002B00B
:104D880010BDC04600380240003400400004024014
:104D980000E100E010B50248FCF7D8FF00BEFEE7CE
:104DA800646A0008024A1368013313607047C046FA
:104DB80064570020014B18607047C04660530020BC
:104DC80030B5184B1A68FA239B009C466244164B70
:104DD8001B68DB0708D5144B5B681B0404D0114B18
:104DE8001B689B1AF3D430BD104A93688024A343F0
:104DF80093600C4B1D68FA239B009C46654403E0B6
:104E080002789A62013021004C1E0029EBD0084B31
:104E18001B68DA691206F3D4024B1B685B1BF6D4D5
:104E2800E1E7C0466457002058600240004800404F
:104E38006053002010B50400FBF726FA010020009B
:104E4800FFF7BEFF10BD092802D83030C0B2704746
:104E58005730C0B2FBE730B583B0040001AB002285
:104E68005A7014E020780009FFF7EDFF6B461871BF
:104E780001A8FFF7DFFF23780F201840FFF7E3FFB3
:104E88006B46187101A8FFF7D5FF013429004D1EA4
:104E98000029E7D103B030BD70B582B00400C84B1B
:104EA800196B80208003014319631A6B0240019239
:104EB800019A1A6C8021C9020A431A641B6C0B40C0
:104EC8000093009BBF4B1A68BF491140BF4A0A4371
:104ED8001A60BF48BF491A68C0231340402B27D027
:104EE800B84B9860D960B74B5A68120C12048421E9
:104EF800C9000A435A601A68B74E32408021090532
:104F08000A431A601A68012002431A60B34B1868F2
:104F1800AD4D0540B248284318601A683240114325
:104F28001960B04B1D681F2180204000802309E0D4
:104F3800A44BD8609960D6E7400001221A4010437C
:104F480001395B08002BF7D18840FCF7F9FDFF23F6
:104F580018404000FC3B83409D431F2180204000B7
:104F6800802305E0400001221A40104301395B0804
:104F7800002BF7D18840FCF7E3FDFF2318404000E1
:104F8800FD3B83401D43974A1560536A0F218B43AD
:104F980008390B43536295681831802040008023FC
:104FA80005E0400001221A40104301395B08002B3C
:104FB800F7D18840FCF7C4FDFF2318404000FC3BB4
:104FC80083409D431F2180204000802305E040004E
:104FD80001221A40104301395B08002BF7D18840A1
:104FE800FCF7AEFDFF2318404000FD3B83401D4306
:104FF8007C4B9D605A687C490A405A60DD682131C3
:10500800FF3180204000802305E0400001221A4043
:10501800104301395B08002BF7D18840FCF790FD5D
:10502800FF2318404000FC3B83409D431F21802004
:105038004000802305E0400001221A401043013956
:105048005B08002BF7D18840FCF77AFDFF23184056
:105058004000FE3B83401D43624BDD601D681F21FD
:105068008020800080235B0005E0400001221A4078
:10507800104301395B08002BF7D18840FCF760FD2D
:10508800FF2318404000FC3B83409D431F218020A4
:10509800800080235B0005E0400001221A40104395
:1050A80001395B08002BF7D18840FCF749FDFF2345
:1050B80018404000FD3B83401D434A4B1D605D6A1C
:1050C8001F210220012305E0400001221A4010435D
:1050D80001395B08002BF7D18840FCF731FDFF232D
:1050E80018408000F03B83409D431F21022001238C
:1050F80005E0400001221A40104301395B08002BEB
:10510800F7D18840FCF71CFDFF2318408000F83BCE
:1051180083401D43334B5D629D681F2180208000C2
:1051280080235B0005E0400001221A40104301394A
:105138005B08002BF7D18840FCF702FDFF231840DD
:105148004000FC3B83409D431F218020800080233A
:105158005B0005E0400001221A40104301395B085A
:10516800002BF7D18840FCF7EBFCFF2318404000E8
:10517800FD3B83401D431B4B9D605A681B490A40F9
:105188005A60DD681F218020800080235B0005E0D5
:10519800400001221A40104301395B08002BF7D167
:1051A8008840FCF7CDFCFF2318404000FC3B8340BF
:1051B8009D431F218020800080235B001EE0C046A5
:1051C80000380240286002401F80FCFF00050200F2
:1051D80024480040404F0020FFFFFFE15860024094
:1051E80040040200000C0240FFFEFFFFFFFDFFFF2E
:1051F800400001221A40104301395B08002BF7D107
:105208008840FCF79DFCFF2303405B000126320029
:105218009A4015431A4BDD601A4990228B5830206A
:1052280083438B50184D2B68843A934313432B6068
:105238002B68164A13402B606B68154A13406B6045
:10524800144B18686308C0182100FCF703FB00041E
:10525800000CE8602B681E432E600B4BDB699B0239
:10526800FBD5094BDB695B02F7D5074B9A684021F0
:105278000A439A609A6840318A439A6002B070BDC6
:10528800000C02400038024000480040FFE9FFEFF0
:10529800FFCFFFFF5000002070B584B00400D64B4C
:1052A800196B8020C003014319631A6B02400392F3
:1052B800039A596C1022114359645B6C1A4002928C
:1052C800029BCE4A136801210B431360CC4B1A682A
:1052D8008A431A601A68CB491140CB4A0A431A60BC
:1052E800CA48CB491A68C0231340402B1BD0C44B73
:1052F8009860D960C24B5A68120C12048021490187
:105308000A435A601A68C3491140802212050A43A9
:105318001A601A6801210A431A60BF4B1D681E31C2
:105328004020202309E0B64BD8609960E2E74000AE
:1053380001221A40104301395B08002BF7D188403D
:10534800FCF7FEFBFF2318404000FC3B83409D43D5
:105358001F214020202305E0400001221A4010436D
:1053680001395B08002BF7D18840FCF7E9FBFF23E4
:1053780018404000FD3B83401D43A74B1D601D6A3C
:105388001F214020202305E0400001221A4010433D
:1053980001395B08002BF7D18840FCF7D1FBFF23CC
:1053A80018408000F03B83409D431F21402020236C
:1053B80005E0400001221A40104301395B08002B28
:1053C800F7D18840FCF7BCFBFF2318408000F83B6E
:1053D80083401D43904B1D629D681F214020202360
:1053E80005E0400001221A40104301395B08002BF8
:1053F800F7D18840FCF7A4FBFF2318404000FC3B92
:1054080083409D431F214020202305E040000122C6
:105418001A40104301395B08002BF7D18840FCF78C
:105428008FFBFF2318404000FD3B83401D437A4B10
:105438009D605A6840218A435A60DD6821394020BE
:10544800202305E0400001221A40104301395B087F
:10545800002BF7D18840FCF773FBFF23184040006E
:10546800FC3B83409D431F214020202305E0400052
:1054780001221A40104301395B08002BF7D18840FC
:10548800FCF75EFBFF2318404000FE3B83401D43B2
:10549800614BDD601D681F21802000028023DB0135
:1054A80005E0400001221A40104301395B08002B37
:1054B800F7D18840FCF744FBFF2318404000FC3B31
:1054C80083409D431F21802000028023DB0105E0EB
:1054D800400001221A40104301395B08002BF7D124
:1054E8008840FCF72DFBFF2318404000FD3B83401C
:1054F8001D43494B1D605D6A1F218020402305E044
:10550800400001221A40104301395B08002BF7D1F3
:105518008840FCF715FBFF2318408000F03B8340D0
:105528009D431F218020402305E0400001221A40AE
:10553800104301395B08002BF7D18840FCF700FBCA
:10554800FF2318408000FB3B83401D43324B5D62C4
:105558009D681F21802000028023DB0105E04000B8
:1055680001221A40104301395B08002BF7D188400B
:10557800FCF7E6FAFF2318404000FC3B83409D43BC
:105588001F21802000028023DB0105E0400001226A
:105598001A40104301395B08002BF7D18840FCF70B
:1055A800CFFAFF2318404000FD3B83401D431A4BB0
:1055B8009D605A6819490A405A60DD681F21802099
:1055C80000028023DB0105E0400001221A4010435D
:1055D80001395B08002BF7D18840FCF7B1FAFF23AB
:1055E80018404000FC3B83409D431F21802000025F
:1055F8008023DB011AE0C046003802400010014059
:10560800406402401F80FCFF000502002410014096
:10561800403F0020FFFFFFE100040240FF7FFFFF43
:10562800400001221A40104301395B08002BF7D1D2
:105638008840FCF785FAFF2303405B00012632000F
:105648009A4015431E4BDD601E4B596C10221143C6
:105658005964596C0A400192019A90215A580320C2
:1056680082435A50184D2B680C22934313432B60E6
:105678002B68164A13402B606B68154A13406B6001
:10568800144B18686308C0182100FCF7E3F80004FD
:10569800000CE8602B681E432E600B4BDB699B02F5
:1056A800FBD5094BDB695B02F7D5074B9A684021AC
:1056B8000A439A609A6840318A439A6004B070BD80
:1056C800000402400038024000100140FFE9FFEFEB
:1056D800FFCFFFFF5000002030B585B00400CE4B4F
:1056E800196B8020C003014319631A6B02400392AF
:1056F800039A596C2022114359645B6C1A40029238
:10570800029BC64B1A6801218A431A601A68C44969
:105718001140C44A0A431A60C348C4491A68C023DE
:105728001340402B1BD0BD4B9860D960BB4B5A68C7
:10573800120C1204802149010A435A601A68BC49B4
:105748001140A02212050A431A601A6801210A436F
:105758001A60B84B1D681E314020202309E0AF4B6A
:10576800D8609960E2E7400001221A4010430139ED
:105778005B08002BF7D18840FCF7E2F9FF231840BB
:105788004000FC3B83409D431F214020202305E02F
:10579800400001221A40104301395B08002BF7D161
:1057A8008840FCF7CDF9FF2318404000FD3B8340BB
:1057B8001D43A04B1D601D6A1F214020202305E0CA
:1057C800400001221A40104301395B08002BF7D131
:1057D8008840FCF7B5F9FF2318408000F03B834070
:1057E8009D431F214020202305E0400001221A404C
:1057F800104301395B08002BF7D18840FCF7A0F96A
:10580800FF2318408000F73B83401D43894B1D62EE
:105818009D681F214020202305E0400001221A40F6
:10582800104301395B08002BF7D18840FCF788F951
:10583800FF2318404000FC3B83409D431F2140202C
:10584800202305E0400001221A40104301395B087B
:10585800002BF7D18840FCF773F9FF23184040006C
:10586800FD3B83401D43734B9D605A6840218A432A
:105878005A60DD6821394020202305E040000122DC
:105888001A40104301395B08002BF7D18840FCF718
:1058980057F9FF2318404000FC3B83409D431F21DC
:1058A8004020202305E0400001221A40104301391E
:1058B8005B08002BF7D18840FCF742F9FF2318401A
:1058C8004000FD3B83401D435A4BDD601D681F218E
:1058D8008020402305E0400001221A40104301398E
:1058E8005B08002BF7D18840FCF72AF9FF23184002
:1058F8004000FC3B83409D431F218020402305E05E
:10590800400001221A40104301395B08002BF7D1EF
:105918008840FCF715F9FF2318404000FD3B834001
:105928001D43444B1D601D6A1F218020402305E054
:10593800400001221A40104301395B08002BF7D1BF
:105948008840FCF7FDF8FF2318408000F03B8340B7
:105958009D431F218020402305E0400001221A407A
:10596800104301395B08002BF7D18840FCF7E8F8B1
:10597800FF2318408000F73B83401D432D4B1D62D9
:105988009D681F218020402305E0400001221A4025
:10599800104301395B08002BF7D18840FCF7D0F899
:1059A800FF2318404000FC3B83409D431F2180207B
:1059B800402305E0400001221A40104301395B08EA
:1059C800002BF7D18840FCF7BBF8FF2318404000B4
:1059D800FD3B83401D43174B9D605A6880218A43D5
:1059E8005A60DD6861398020402305E040000122CB
:1059F8001A40104301395B08002BF7D18840FCF7A7
:105A08009FF8FF2318404000FC3B83409D431F2123
:105A18008020402316E0C046003802402864024037
:105A28001F80FCFF0005020024140140402F0020C5
:105A3800FFFFFFE100080240400001221A40104326
:105A480001395B08002BF7D18840FCF779F8FF2370
:105A580018404000FD3B83401D43264BDD60264B2C
:105A6800596C202211435964596C0A400192019AD9
:105A780090215A58214802405A50214D2B680C2237
:105A8800934313432B606B681E4A1A4080235B02C2
:105A980013436B606B681C4A1A4080239B021343B4
:105AA8006B602B68194A13402B606B68184A1340C7
:105AB8006B60184B18686308C0182100FBF7CAFE12
:105AC8000004000CE8602B68012213432B600C4B88
