:020000040800F2
:1000000000000820E51C0008B1270008B1270008FF
:10001000B1270008B1270008B12700080000000040
:10002000000000000000000000000000B1270008F0
:10003000B127000800000000B1270008B52700081C
:10004000B1270008B1270008B1270008B127000830
:10005000B1270008B1270008B1270008B127000820
:10006000B1270008B1270008B1270008B127000810
:10007000B1270008B1270008B1270008B127000800
:10008000B1270008B1270008B1270008B1270008F0
:10009000F520000805210008B1270008B127000855
:1000A000B1270008B1270008B1270008B1270008D0
:1000B000B1270008B1270008B1270008B1270008C0
:1000C000B1270008690A0008F90A0008B1270008EA
:1000D000B1270008B1270008B1270008B1270008A0
:1000E000B1270008B1270008B1270008B127000890
:1000F000B1270008B1270008B1270008B127000880
:10010000B1270008B1270008B1270008B12700086F
:10011000B1270008B1270008B1270008B12700085F
:10012000B1270008B1270008B1270008B12700084F
:10013000B1270008B1270008B1270008B12700083F
:10014000B1270008B1270008B1270008B12700082F
:10015000B1270008B1270008B1270008B12700081F
:10016000B1270008B1270008B1270008B12700080F
:10017000B1270008B1270008B127000800000000DF
:10018000B1270008B1270008B1270008B1270008EF
:10019000B1270008B1270008B1270008B1270008DF
:1001A000B1270008B1270008B1270008B1270008CF
:1001B000B1270008B1270008B1270008690A000824
:1001C000F90A0008B127000800000000B127000864
:1001D000B1270008B1270008B1270008B12700089F
:1001E000B12700081521000825210008B1270008C3
:0801F000B1270008B127000847
:1001F80010B5064C2378002B07D1054B002B02D0F5
:100208000448AFF300800123237010BD7000002064
:1002180000000000D4430008044B10B5002B03D0A5
:1002280003490448AFF3008010BDC0460000000039
:1002380074000020D44300080023C25C0133002A64
:10024800FBD1581E7047000003B4714649084000AE
:100258004900095E49008E4403BC704700224308E8
:100268008B4274D303098B425FD3030A8B4244D376
:10027800030B8B4228D3030C8B420DD3FF220902B8
:1002880012BA030C8B4202D31212090265D0030B77
:100298008B4219D300E0090AC30B8B4201D3CB036D
:1002A800C01A5241830B8B4201D38B03C01A5241AF
:1002B800430B8B4201D34B03C01A5241030B8B42B1
:1002C80001D30B03C01A5241C30A8B4201D3CB029C
:1002D800C01A5241830A8B4201D38B02C01A524181
:1002E800430A8B4201D34B02C01A5241030A8B4284
:1002F80001D30B02C01A5241CDD2C3098B4201D39C
:10030800CB01C01A524183098B4201D38B01C01A19
:10031800524143098B4201D34B01C01A5241030990
:100328008B4201D30B01C01A5241C3088B4201D33F
:10033800CB00C01A524183088B4201D38B00C01AEC
:10034800524143088B4201D34B00C01A5241411A13
:1003580000D20146524110467047FFE701B5002020
:1003680000F0F0F802BDC0460029F7D076E77047E4
:1003780003460B437FD4002243088B4274D30309FE
:100388008B425FD3030A8B4244D3030B8B4228D39F
:10039800030C8B420DD3FF22090212BA030C8B42C5
:1003A80002D31212090265D0030B8B4219D300E065
:1003B800090AC30B8B4201D3CB03C01A5241830BEA
:1003C8008B4201D38B03C01A5241430B8B4201D39A
:1003D8004B03C01A5241030B8B4201D30B03C01AC3
:1003E8005241C30A8B4201D3CB02C01A5241830A3D
:1003F8008B4201D38B02C01A5241430A8B4201D36C
:100408004B02C01A5241030A8B4201D30B02C01A95
:100418005241CDD2C3098B4201D3CB01C01A5241FC
:1004280083098B4201D38B01C01A524143098B4285
:1004380001D34B01C01A524103098B4201D30B016E
:10044800C01A5241C3088B4201D3CB00C01A524193
:1004580083088B4201D38B00C01A524143088B4258
:1004680001D34B00C01A5241411A00D201465241F1
:10047800104670475DE0CA0F00D04942031000D310
:100488004042534000229C4603098B422DD3030A65
:100498008B4212D3FC22890112BA030A8B420CD375
:1004A800890192118B4208D3890192118B4204D39E
:1004B80089013AD0921100E08909C3098B4201D31E
:1004C800CB01C01A524183098B4201D38B01C01A58
:1004D800524143098B4201D34B01C01A52410309CF
:1004E8008B4201D30B01C01A5241C3088B4201D37E
:1004F800CB00C01A524183088B4201D38B00C01A2B
:100508005241D9D243088B4201D34B00C01A524101
:10051800411A00D20146634652415B10104601D38E
:100528004042002B00D54942704763465B1000D318
:10053800404201B5002000F005F802BD0029F8D0BE
:1005480016E770477047C0461C2101231B049842D8
:1005580001D3000C10391B0A984201D3000A08394C
:100568001B09984201D30009043902A2105C401803
:100578007047C046040302020101010100000000A7
:10058800000000007047000010B50400034802F0A6
:1005980015F9200002F03CF910BDC04600480040A3
:1005A80070B504000D00044802F008F92900200085
:1005B80002F00AF970BDC0460048004070B504005A
:1005C8000D00044802F0FAF82900200002F031F981
:1005D80070BDC0460048004070B582B0019115005A
:1005E8001E00FFF7D1FF1B48FFF7CEFF019C210E2D
:1005F800230AFF221202134019432302FF22120486
:10060800134019432406214301910B2D11D01D2DB0
:1006180017D1042101A8FFF7D1FF0F48FFF7B4FF56
:1006280006993000FFF7CAFF0C48FFF7ADFF02B08C
:1006380070BD022101A8FFF7C1FF0948FFF7A4FF19
:10064800EEE7042101A8FFF7B9FF0648FFF79CFF72
:10065800E6E7C046F8430008FC430008F8440008F1
:100668000044000804440008F0B583B004000D00FD
:1006780016001F00009313000A0001000548FFF749
:10068800ABFF009733002A002100034801F0C8FBA4
:1006980003B0F0BD0844000800640040F0B583B022
:1006A80004000D0016001F00009313000A0001004B
:1006B8000548FFF791FF009733002A0021000348FF
:1006C80001F0AEFB03B0F0BD184400080034004050
:1006D80010B5074C21000C311822200003F0DAF97C
:1006E800200018300C22002103F0E7F910BDC046A5
:1006F800C8010020002000E0013043001B189A00C8
:10070800044B9B185B68002B01D00228F4D9032303
:10071800181A7047C801002070B5002400E00134A1
:1007280063001B199B00094DEB185B68002B01D077
:10073800022CF4D9022C07D8044D63001E19B60008
:100748007051A8194160826070BDC046C801002080
:1007580010B560220021024803F0AFF910BDC04671
:100768003C010020F8B504000023072B20D81D0009
:100778005A00D21892000F48125CD20702D50133F2
:10078800DBB2F2E707005E00F0188000381804308A
:10079800082203F07FF973199B0064000120DA59DD
:1007A80010400443DC511E00DB5D01221343F35566
:1007B800F8BDC0463C01002010B50400020000212D
:1007C800012002F097FE22000E21032002F092FE83
:1007D800014A2723D45410BD9C01002010B5040001
:1007E80002000721012002F085FE22000F210320CC
:1007F80002F080FE014A2823D45410BD9C01002039
:1008080010B5040002000E21012002F073FE220040
:100818000C21052002F06EFE10BD000070B5744B6F
:1008280000221A60734B5B6AFF321A4200D0DDE087
:10083800714B1868452800D9D8E0704B00221A601F
:100848000121196002321A606D4A51700231196033
:100858006C498C7B947004241C606B4C2478D47095
:1008680018254C5F05251D602512157106251D608C
:10087800547116254C5F07251D60251295710825B2
:100888001D60D4710C8901351D60250A15720A2571
:100898001D6054724C8901351D60250A95720C251E
:1008A8001D60D4720C24095F0D241C600C12147393
:1008B8000E241C605173554B9969002900D1596960
:1008C8000C124E4A0F2313604D4B9C731024146076
:1008D800D9734E490C8A11251560250A1D741225F5
:1008E80015605C741C254C5F1325156025129D74DA
:1008F80014251560DC741E24095F152414600C127D
:100908001C75162414605975414909680C12033581
:1009180015609C7518241460D97519211160187612
:10092800013111603749087C58760888033414600F
:10093800040A9C761C241460D87648880134146014
:10094800040A1C771E24146058771A24085F1F2491
:10095800146004129C7720241460D8770D8C212011
:1009680010602E0A1E55023414601D5402301060A7
:100978000D5D1D55023414600D5C1D54023010606D
:100988000D5D1D55262515600C5C1C54272414602C
:10099800085D5855282010600D5C1D551E240E5FFB
:1009A8002925156034121C542A2414605E551C2015
:1009B800095E2B2010600D121D552C251560C9B23B
:1009C800195414480468240E5C550468240C013535
:1009D8005C550468240A01355C5504682F201C54B2
:1009E80030241460023010601955187070BDC0466C
:1009F80014010020006000408C000020100100203D
:100A0800900000209C010020C60100201801002051
:100A18000000002018420020084B1B68084A126892
:100A2800934207D2591C054A1160064AD25C064B0C
:100A38009A627047044BAA229A62FAE714010020CE
:100A48001001002090000020006000400023024AAE
:100A58001360024A1360704710010020140100203F
:100A680010B5224B9B691B070DD5204B9B695B0C6E
:100A78005B00FF221340442B18D11C4AD36908217C
:100A88000B43D36110BD194B9B69DB0616D4174B7A
:100A98009B695B0718D4154B9B699B0717D4134BAD
:100AA8009B699B0616D4114B9B69EBE70F4AD369E8
:100AB80008210B43D361FFF7C9FFE3E70B4AD3696A
:100AC80010210B43D361DDE7FFF7A8FEDAE7FFF754
:100AD800A3FFD7E7054BDA6920210A43DA619B694E
:100AE800DB07CFD4014B01229A61CBE700600040BD
:100AF80010B5FFF7ABFF10BD30B583B0C04A116B1E
:100B0800202319431163126B13400193019BBD4BC2
:100B18001C681F218020C00180239B0105E0400044
:100B280001221A40104301395B08002BF7D1884095
:100B3800FFF70AFDFF2318404000FC3B83409C431D
:100B48001F218020C00180239B0105E04000012275
:100B58001A40104301395B08002BF7D18840FFF792
:100B6800F3FCFF2318404000FD3B83401C43A54B8A
:100B78001C605C6A1F214020202305E04000012200
:100B88001A40104301395B08002BF7D18840FFF762
:100B9800DBFCFF2318408000F03B83409C431F216F
:100BA8004020202305E0400001221A40104301396B
:100BB8005B08002BF7D18840FFF7C6FCFF231840DD
:100BC8008000FB3B83401C438E4B5C629C681F216A
:100BD8008020C00180239B0105E0400001221A40CB
:100BE800104301395B08002BF7D18840FFF7ACFCB4
:100BF800FF2318404000FC3B83409C431F2180207A
:100C0800C00180239B0105E0400001221A401043E7
:100C180001395B08002BF7D18840FFF795FCFF23CB
:100C280018404000FD3B83401C43764A946053685B
:100C380075490B408020C00103435360D4681F21CD
:100C480080239B0105E0400001221A40104301392E
:100C58005B08002BF7D18840FFF776FCFF2318408C
:100C68004000FC3B83409C431F218020C00180231F
:100C78009B0105E0400001221A40104301395B083E
:100C8800002BF7D18840FFF75FFCFF231840400096
:100C9800FE3B83401C435B4BDC601C681F218020AB
:100CA80000028023DB0105E0400001221A401043C6
:100CB80001395B08002BF7D18840FFF745FCFF237B
:100CC80018404000FC3B83409C431F2180200002C9
:100CD8008023DB0105E0400001221A40104301395E
:100CE8005B08002BF7D18840FFF72EFCFF23184044
:100CF8004000FD3B83401C43424B1C605C6A1F2143
:100D08008020402305E0400001221A4010430139A9
:100D18005B08002BF7D18840FFF716FCFF2318402B
:100D28008000F03B83409C431F218020402305E046
:100D3800400001221A40104301395B08002BF7D10B
:100D48008840FFF701FCFF2318408000FB3B8340ED
:100D58001C432C4B5C629C681F218020000280236E
:100D6800DB0105E0400001221A40104301395B080D
:100D7800002BF7D18840FFF7E7FBFF23184040001E
:100D8800FC3B83409C431F21802000028023DB0121
:100D980005E0400001221A40104301395B08002B8E
:100DA800F7D18840FFF7D0FBFF2318404000FD3BF8
:100DB80083401C43134A9460536814490B408020B5
:100DC800000203435360D4681F218023DB0105E040
:100DD800400001221A40104301395B08002BF7D16B
:100DE8008840FFF7B1FBFF2318404000FC3B8340DD
:100DF8009C431F21802000028023DB010EE0C046B7
:100E08000038024000140240FFBFFFFFFF7FFFFFD2
:100E1800400001221A40104301395B08002BF7D12A
:100E28008840FFF791FBFF2303405B00012002008D
:100E38009A401443264BDC60264B196C80246404CA
:100E4800214319641A6C22400092009A90241A597E
:100E5800214911408022D2030A431A511F49002315
:100E68001F4A8B54802424068C6001328B54C8603E
:100E78001C4B1A6882431A601B4A1A619A68D20A84
:100E8800D20244252A439A609D68802212022A438E
:100E98009A601A6802431A601A6808252A431A6079
:100EA8001A6808352A431A601A6870352A431A6086
:100EB8001A68603D2A431A601A681C3D2A431A6062
:100EC8001A68023D2A431A608C60C86003B030BDBE
:100ED8000014024000380240FFFF3FFF00E100E03D
:100EE8005F0300000060004005011000F0B5DE4619
:100EF80057464E464546E0B5AFB0E94CA368F025E5
:100F0800AB43A360A368E74A1340A360A368E64A1B
:100F18001340A360E54802F0A3FBE54BE54A5A609D
:100F2800E54923228D5400229A6007321A60236B08
:100F3800EF3D2B432363236B2B401693169B226BA9
:100F480002231A432263226B13401593159B226BCD
:100F580004231A432263226B13401493149B226BBD
:100F680008231A432263226B13401393139B226BAB
:100F780010231A432263226B13401293129B226B95
:100F880020231A432263226B13401193119B0120E3
:100F9800FFF712FC0120FFF721FCE120000301F01C
:100FA80069FCE1267602300002F084F8C34F38006D
:100FB80001F024F9380001F083FA2A220021C04800
:100FC80002F07BFD24220021BE4802F076FD242297
:100FD8000021BD4802F071FD9620800101F04AFE13
:100FE800BA4801F0EBFB0721B94801F0EDFBFA2004
:100FF80002F022FB300001F03DFE07220921B5482E
:10100800FFF78AFBB44B1D70FFF776FD802636018B
:10101800B24B3200B24925A802F028FBB14B32008E
:10102800B1491EA802F022FB8422B04BD200B0497D
:1010380017A802F01BFBAF48FFF7A6FA0823AE4A31
:101048001D21AE48FFF72AFBAD4B1A68AD498C4607
:10105800624402921A688A4692441A688B469344FC
:101068001B68FA22D20090469844636F1D43656757
:101078008B4B5B6F9B07FBD5A34BA44A1A60A44A12
:101088001A6000225A60A34A9A609F4BDB680722C5
:10109800110019401A42F8D103919B4B9E4A1A60DD
:1010A80005910A910C9106910B9104910891079171
:1010B80009910025002447460E0032E29748FFF7C1
:1010C80063FABFF34F8F7C49CB68E022D2001A4005
:1010D800934B1343CB60BFF34F8FC046FDE7884B5C
:1010E8001B68884A92469A448E4B99468023DB00B7
:1010F80000934B462CAA2DA98B4801F029F880466D
:1011080000904B462C9A2D998848FFF765FA2C9940
:10111800002900D11AE22D98784B984200D015E2A8
:10112800804B1B78012B00D010E27E4A9778644BE5
:10113800DF73734B1F68FA23DB009C466744434602
:10114800FFF7ACFA02E27A48FFF71EFA002701E03F
:101158000137FFB2072F12D87B00DB199B00754AB5
:101168009B5CDB07F4D57B00D919890088584008B7
:101178005218043208231D21FFF776FAE8E7039F87
:10118800EBE1684F8023DB0000933B002CAA2DA9DC
:10119800694800F0DDFF804600903B002C9A2D99AD
:1011A8006648FFF719FA564B1B68564A93469B4404
:1011B8002D9A634B9C466244072A03D89200614BE0
:1011C8009B589F46039F002F00D1CCE1554F390013
:1011D8002D98FFF7C7FA43463A002C992D98FFF748
:1011E80043FA039FBFE14F494A7812020878024345
:1011F800344F3A80C878000200B28B78184338819F
:101208004B791B0209790B433B8250436421FFF75A
:10121800AFF878614C4B1B68002B10DA294B1B8AFE
:10122800612B00D8F4E0274B1C229B5E002B00DCCE
:10123800F0E0244B5B69002B0BDB0127C3E7434835
:10124800FFF7A2F9374B404A12681A7100225A7107
:10125800E4E7059B002B0DD00A9A002A03D0284BFF
:101268001B689B1A7CD43A48FFF78EF9039B0A93B4
:101278000127A8E73748FFF787F9214B1A6836494D
:101288008C4662440A921B68344A94466344059328
:10129800244B61221A7100225A71012793E7C04634
:1012A80000380240FFE3FFFFFF1FFFFF0024F400A8
:1012B80010E000E07F3E000000ED00E020A1070004
:1012C8009C01002018010020C801002000100140E6
:1012D8006C46000888460008C60100200846000839
:1012E800F431002028440008F4290020F8440008BC
:1012F800F43900202C440008EC4300087118000061
:10130800184200201027000000300040CCCC00001C
:1013180055550000EE0F0000AAAA0000344400084A
:101328000400FA05183E00200064004054440008F8
:10133800644400083C010020003400407844000860
:101348008FE7FFFF4046000804000020884400089B
:10135800C8440008984400088813000060EA0000A8
:10136800D448FFF711F993E7D34A57793F023FB2C0
:1013780013791F43D1498F83D3791B021BB292790A
:101388001343CB83002F0CD00B8A642B09D0098818
:10139800FA204001FEF7ECFF3A18C74B1A71170AFA
:1013A8005F71C74B1B68002B05DAC44B1B8A0A2BDD
:1013B8000BD9012707E7C348FFF7E6F8C04B1B68BE
:1013C800BD4A13711B125371EFE7BF48FFF7DCF8F2
:1013D800B94B00229A71DA710127F4E6FFF7B8F9E0
:1013E8000127F0E6B44AD3781B0292781343B34A34
:1013F80013840127E7E6B04B83221A710022DA71C1
:101408009A715A71082398460127DCE60127DAE623
:101418000127D8E60127D6E6AC48FFF7B5F8039BC5
:1014280005930A93A7E017A802F02AFA002800D02B
:10143800CEE0099A002A03D0A54B1B689B1A1AD440
:101448001EA802F041F9A348FFF79EF8A24801F050
:10145800B5F90421A14801F0B7F99D4B1B68FA22A0
:1014680092009446634409930124994B1B689C4A53
:10147800944663440793049A002A04D0944B1B684B
:101488009B1A00D44EE1069A002A04D0904B1B68A0
:101498009B1A00D455E1894B1C215A5E1E215B5EC4
:1014A8009A4204DA8A4B1B689B1B00D458E1884B8C
:1014B8001B689B1B00D45CE18A4B5B688021090197
:1014C800C91A25A802F0E4F8022D00D174E100D968
:1014D80058E1002D00D162E1012D1BD125A802F0B1
:1014E800F3F88148FFF750F8804D69682868FFF7DE
:1014F80065F87F48FFF748F87E4801F05FF92868EB
:10150800696801F061F9724B1B68754A9446634437
:10151800089302256E4B1B68029A9B1A01D4039B01
:101528000293754B754A1A60694B1B6852469B1AA1
:1015380000D4C3E5664B1B685A469B1A00D4BDE528
:101548006F4800F0F3FD002800D0C8E5002F04D054
:101558005F4B1B68DB1B00D4F5E56A4800F0E6FD2D
:10156800002800D00DE6059A002A04D0584B1B68C5
:101578009B1A00D450E7644B5B688421C900C91AE0
:1015880017A802F085F8614B5B6880210901C91A28
:101598001EA802F07DF8002C00D144E7631EDBB2E0
:1015A800012B00D967E71EA802F06AF900282ED19E
:1015B800079A002A00D15EE7454B1B689B1A00D5A5
:1015C80059E73E4B00229A61039B0993002452E796
:1015D8008022394B9846D200190017A802F066F904
:1015E80004004B48FEF7D0FF21004046FEF7D8FF25
:1015F800394801F0E3F82100404601F0E5F81EA85B
:1016080002F01EFA17A802F062F802242DE78022E1
:10161800294B9946D20019001EA802F047F98046C6
:101628003C48FEF7B1FF41464846FEF7B9FF012C9A
:101638000FD01EA802F004FA37491F4802F07AFAC0
:10164800002802D0039B099300241EA802F03FF84B
:10165800AEE71EA802F0F4F9431C03D11EA802F05D
:1016680036F8A5E7154B984658601EA802F0E8F929
:1016780004004346D8600A21FEF77AFE43465B68B9
:10168800994658432549FEF773FE434698618021E1
:10169800094B9846019000944B46214AC9004046A0
:1016A80002F014FA4046FEF76FFF039B07930024ED
:1016B800D4E7C046B0440008183E002018010020B6
:1016C80000000020DC440008F0440008FC44000846
:1016D8001842002024450008001401403445000841
:1016E80010270000406402409C450008C801002003
:1016F800F84400080010014000300040AAAA000089
:101708000064004000340040286002402864024021
:10171800144500083C45000878450008A0860100EB
:10172800484500080120FFF747F8BA48FEF72CFFA4
:10173800B94B1B68B94A944663440B93039B0493C3
:10174800A1E60120FFF74AF8B548FEF71DFFB24BA6
:101758001B68B24A944663440C93039B06939AE62B
:101768000120FFF74DF8AC4B1E68AE4B9C46664413
:10177800A2E60020FFF744F8A74B1E68A94B9C4639
:10178800664499E6EB1EDBB2012B00D9C2E6A24BF8
:101798001B68089A9B1A00D575E20025BAE6FEF781
:1017A800A9FF032801D00125B4E69F4A07219F48D5
:1017B800FEF7B2FF0125ADE625A802F026F89C4BFE
:1017C8009A68904236D2FEF795FF032800D1A1E629
:1017D800914B1B68089A9B1A00D59BE69548FEF723
:1017E800D3FE8D4B1B68FA229200944663440893FB
:1017F80025A801F05CFFFEF76BFF8F4B00221A60F3
:1018080001235B428D4A13608D4A13609620800144
:1018180001F030FA8B4800F0D1FF07218A4800F028
:10182800D3FFFA2001F008FFE120400201F022FA7C
:1018380003256FE6854925A801F0F1FF10907C4B40
:101848009B6898421DD38248FEF79EFE784B9968A4
:101858007E4D2800FEF7B2FE7E48FEF795FE2B78F7
:10186800AA2B03D1794B5B78552B28D06A4B1B6880
:10187800FA229200944663440893FEF729FF032551
:1018880048E67548FEF780FE042110A8FEF796FE8C
:1018980025A801F0BAFF1090042110A8FEF78EFECB
:1018A8006C48FEF771FE25A801F001FF5A4B1B6832
:1018B800F533FF330893FEF70BFF04252AE6634B45
:1018C8009B785F2BD2D1614BDB78812BCED15F4BDC
:1018D8001B79902BCAD15D4B9A7A120212B2597AAF
:1018E8000A4394465D4A6146D182987B0002597B3F
:1018F80008431080197C0902DD7B29430891518037
:101908009D7C2D02597C0D4395801D7D2D02D97C2F
:101918000D43D5809D7D2D02597D29430D9111815F
:101928001D7E2D02D97D0D4355815D7E957326213F
:101938005D5C2D022DB20139595C0D430E959581E0
:101948002821595C090209B288462721595C894631
:1019580041464D46294391822A255D5D2D02A846C0
:1019680029255D5D4146294351823E255D5D2D0255
:10197800A8463D255D5D41462943D18340255D5DEF
:101988002D02A8463F255D5D4146294309B20F91C6
:10199800918342255D5D2D02A84641255D5D414646
:1019A8002943518346255D5D2D022DB2A846452564
:1019B8005D5D414629431183CB255D5D2621555444
:1019C800CC255D5D01395554A831595C89462421DF
:1019D8004D465554AA31595C894623214D465554E4
:1019E800AC31595C894622214D465554AE315B5C79
:1019F800FA21C900884643441384194B984202D8F7
:101A0800089A9A4230D90C4B47221A601548FEF7BB
:101A1800BBFD48E77C45000818420020B80B0000D1
:101A28008C450008C02709005F02000074460008C2
:101A3800C8010020304600088C000020000000206B
:101A480004000020001001406C460008183E0020E9
:101A5800BC450008F8440008A84500089C0100207F
:101A680070170000C84500086346002B0BD10028FA
:101A780009D1089B002B06D10E9B002B03D10F9B8D
:101A8800002B00D183E001235B42824A1360824A23
:101A98001360824B00221A60089BC118FA235B006E
:101AA800994200DCC8E00B9A002A03D07C4B1B68E3
:101AB8009B1A17D4E1239B00984204D30D9B013B4A
:101AC8009BB2172B0ED87748FEF75EFD0020FEF775
:101AD80073FE734B1B68FA22D20094466344049346
:101AE800039B0B930C9A002A03D06D4B1B689B1A1F
:101AF8001AD46D4B5A88E1239B009A4205D36A4B4E
:101B08005B89013B9BB2172B0ED86848FEF73CFD5A
:101B18000020FEF763FE624B1B68FA22D20094464F
:101B280063440693039B0C93614B1B8A632B35D844
:101B3800272B59D95C490A8949895218002A00D1AA
:101B480094E6282B00D891E6544B06221A6059488F
:101B5800FEF71AFDFEF7CEFD002800D186E6564BAB
:101B68001B78012B00D181E6029B002B00D07DE67B
:101B7800072209215148FEF7CFFD4F4B01221A7069
:101B8800474B1B684E4A9446634402936EE6434BA8
:101B98004E221A604B48FEF7F7FC84E63F4B0322BF
:101BA8001A604948FEF7F0FC3A4B00221A60424B93
:101BB8001B78012B00D159E6FEF79CFD002800D1C7
:101BC80054E6029B002B00D050E6072209213B482F
:101BD800FEF7A2FD384B01221A70314B1B68384AB8
:101BE80094466344029341E62C4B08221A60374816
:101BF800FEF7CAFCFEF77EFD012800D836E62E4B1C
:101C08001B78032B00D131E6029B002B00D02DE678
:101C1800072209212E48FEF77FFD072209212D48BA
:101C2800FEF77AFD244B03221A701D4B1B68244AC9
:101C380094466344029319E6049B002B00D015E6F2
:101C4800164B07221A602448FEF79EFCFEF752FD49
:101C5800002800D10AE6184B1B78012B00D105E6B5
:101C6800029B002B00D001E6072209211348FEF74A
:101C780053FD114B01221A70094B1B68104A9446F8
:101C880063440293F2E5FEF735FD032800D141E4F1
:101C980000253FE400000020040000208C00002004
:101CA80018420020E04500089C010020F04500088B
:101CB8001801002018460008C601002088460008C0
:101CC80010270000D4450008004600080C4600080C
:101CD8007C4600086046000824460008DFF834D037
:101CE8000D480E490E4A002302E0D458C45004336C
:101CF800C4188C42F9D30B4A0B4C002301E0136043
:101D08000432A242FBD301F095FC01F09FFE01F0E2
:101D18008DFC7047000008200000002070000020A3
:101D2800CC460008700000202C420020F0B583B09B
:101D380006001D00089CC3689B070CD10369032794
:101D4800380018401F4201D0012705E0002A4ED074
:101D5800002313604BE00027002A11D03B001B33FF
:101D68001B019B595B072FD51D201060002907D048
:101D78003B001B331B019B592022121AD3400B60D6
:101D88003B001B331B01F3185A680F231340A3426F
:101D980006D83B001B331B01F3185B680F241C405B
:101DA800002D26D008220021684601F086FE3B015E
:101DB800F3181A00B932FF3212680092BD33FF33AC
:101DC8001B68019300220BE00B20CEE793089B00D1
:101DD80069465B5803211140C900CB40AB5401321E
:101DE800A242F3D32000002F05D0012F08D003B062
:101DF800F0BD0020F7E7F36820221343F360F6E70D
:101E08003369202213433361F1E70000034B984202
:101E180001D0002070470120FCE7C0460034004094
:101E2800F0B585B0060001911F00032100E01900FC
:101E3800B068E0235B05184219D1B369FF20184246
:101E480010D0B36836481843B060B468344D2C409D
:101E5800AC42FAD04B1EDBB20029E8D10520404243
:101E680005B0F0BDB068E0235B0518424FD0B368F9
:101E78001B0E03241C40032C4CD00B2A04D01D2A13
:101E880018D003204042EBE7019B59052300183383
:101E98001B0199510A9B082B3FD8230018331B01BB
:101EA800F3180A9A5A600822002102A801F005FED8
:101EB800002316E0019BD90004231943230018339B
:101EC8001B019951E6E79908F85C03221A40D200F1
:101ED80090408A0002A951580191084302A9505024
:101EE80001330A9A9342EED32301F3181A00893278
:101EF800FF32029911608D33FF33039A1A60183448
:101F08002401A35901221343A3510A98A8E70120E9
:101F18004042A5E702204042A2E7042040429FE752
:101F28008080800010B5034A0021034801F0C5FDF8
:101F380010BDC04608280000EC010020F0B5D646C8
:101F48004F464646C0B504000D001600FFF7EAFFED
:101F58002300C82202E0002204C30A00511E002AFE
:101F6800F9D123680132134323606368DB07FCD58A
:101F7800384B9D4206D0384B9D4203D0374BE36126
:101F8800374BE3612368202213432360002E5CD083
:101F98002368103A9343236023680822134323607D
:101FA80080239B009946E25801231A434946625010
:101FB80087229200A1589943A150812189008C461B
:101FC80061589943604621508327BF00E1599943DE
:101FD800E1518526B600A1599943A15100218A46AD
:101FE800902189005046605004316050A15819432F
:101FF800A150A1588846022140468843A050604617
:10200800205888438046604645462550E059084395
:10201800E051A7598F43A75134365046A051043692
:10202800A051A5582943A150626912210A4362614F
:102038004A46A2589A434946625022689A43226007
:10204800E0BCBA46B146A846F0BD23681022134347
:102058002360A1E7A086010040420F0001002B0089
:1020680001001C00F0B5CE46474680B583B08146D6
:10207800FFF7CCFE040083001B181B021B189B00F3
:10208800194A9F58FF2F27D8174E85002D182D0263
:102098002B189B007A1C9A51BB009846D9198900C5
:1020A8002B189B00C9180B0008339B190433891996
:1020B8000A0008320431082000904846FFF736FE2F
:1020C8004744BF002D19AD007F19F719786103B097
:1020D800C0BCB946B046F0BD0023009300220021E1
:1020E8004846FFF723FEF2E7EC01002010B502484E
:1020F800FFF7B8FF10BDC0460064004010B50248A5
:10210800FFF7B0FF10BDC0460064004010B502489C
:10211800FFF7A8FF10BDC0460034004010B50248C4
:10212800FFF7A0FF10BDC0460034004010B5FFF710
:102138006DFE83001B181B021B189B00034958588F
:10214800002801D0CA18506910BDC046EC01002013
:10215800F0B583B00D0017000193FFF757FE060096
:102168008400241824022418A400234BE358002BCD
:1021780001D0012805D900233B600027380003B0AF
:10218800F0BD83001B181B021B189B001A4AD318AA
:102198005A682A609A683A605F69089B9F4200D92A
:1021A8001F00B400A4192402A11989000831124D96
:1021B800491904313A00019801F06CFC72B6A31970
:1021C8009B005A59013A1C005A51FF2A01D962B69C
:1021D800D4E7B3009B191B022000074C00190430F8
:1021E8009B199B0014331919043193009A18920013
:1021F80001F050FCEBE7C046EC01002010B582B0BE
:102208000100A94A106C8024A40420431064136CB4
:1022180023400193019B0022A448FFF78FFEA44BA3
:102228001C681F2180204000802305E04000012217
:102238001A40104301395B08002BF7D18840FEF79C
:1022480083F9FF2318404000FC3B83409C431F2137
:1022580080204000802305E0400001221A401043FE
:1022680001395B08002BF7D18840FEF76DF9FF2391
:1022780018404000FD3B83401C438D4A1460536A5C
:102288000F218B4306390B43536294681631802023
:102298004000802305E0400001221A401043013924
:1022A8005B08002BF7D18840FEF74EF9FF23184052
:1022B8004000FC3B83409C431F218020400080233A
:1022C80005E0400001221A40104301395B08002B49
:1022D800F7D18840FEF738F9FF2318404000FD3B4E
:1022E80083401C43724B9C605A6872490A405A608A
:1022F800DC682131FF3180204000802305E0400068
:1023080001221A40104301395B08002BF7D188409D
:10231800FEF71AF9FF2318404000FC3B83409C431A
:10232800802300E05B08002BFCD1614BDC601C685B
:102338001F218020800080235B0005E040000122EF
:102348001A40104301395B08002BF7D18840FEF78B
:10235800FBF8FF2318404000FC3B83409C431F21AF
:102368008020800080235B0005E0400001221A40A5
:10237800104301395B08002BF7D18840FEF7E4F8D9
:10238800FF2318404000FD3B83401C43484B1C6022
:102398005C6A1F210220012305E0400001221A4047
:1023A800104301395B08002BF7D18840FEF7CCF8C1
:1023B800FF2318408000F03B83409C431F210220EC
:1023C800012305E0400001221A40104301395B084F
:1023D800002BF7D18840FEF7B7F8FF23184080009C
:1023E800F63B83401C43324B5C629C681F21802073
:1023F800800080235B0005E0400001221A40104362
:1024080001395B08002BF7D18840FEF79DF8FF23C0
:1024180018404000FC3B83409C431F2180208000E3
:1024280080235B0005E0400001221A401043013977
:102438005B08002BF7D18840FEF786F8FF23184089
:102448004000FD3B83401C43194B9C605A681A4965
:102458000A405A60DC681F218020800080235B00CE
:1024680005E0400001221A40104301395B08002BA7
:10247800F7D18840FEF768F8FF2318404000FC3B7E
:1024880083409C4380235B0000E05B08002BFCD169
:10249800074BDC60094B802252031A6080229203AA
:1024A8001A6002B010BDC046003802400064004007
:1024B80000040240FFFEFFFFFFFDFFFF00E100E018
:1024C80010B582B00100B44A106C8024A4012043E6
:1024D8001064136C23400193019B0022AF48FFF75F
:1024E8002DFDAF4B1C681F210820042305E0400088
:1024F80001221A40104301395B08002BF7D18840AC
:10250800FEF722F8FF2318404000FC3B83409C4321
:102518001F210820042305E0400001221A4010432F
:1025280001395B08002BF7D18840FEF70DF8FF232F
:1025380018404000FD3B83401C43994B1C601C6ABB
:102548001F210820042305E0400001221A401043FF
:1025580001395B08002BF7D18840FDF7F5FFFF2311
:1025680018408000F03B83409C431F21082004232F
:1025780005E0400001221A40104301395B08002B96
:10258800F7D18840FDF7E0FFFF2318408000F43BB7
:1025980083401C43824B1C629C681F210820042333
:1025A80005E0400001221A40104301395B08002B66
:1025B800F7D18840FDF7C8FFFF2318404000FC3BD7
:1025C80083409C431F210820042305E0400001228A
:1025D8001A40104301395B08002BF7D18840FDF7FA
:1025E800B3FFFF2318404000FD3B83401C436C4B66
:1025F8009C605A6808218A435A60DC6817310820B1
:10260800042305E0400001221A40104301395B0809
:10261800002BF7D18840FDF797FFFF2318404000B3
:10262800FC3B83409C43042300E05B08002BFCD167
:102638005B4BDC601C681F211020082305E040006C
:1026480001221A40104301395B08002BF7D188405A
:10265800FDF77AFFFF2318404000FC3B83409C4372
:102668001F211020082305E0400001221A401043D2
:1026780001395B08002BF7D18840FDF765FFFF2380
:1026880018404000FD3B83401C43454B1C601C6ABE
:102698001F211020082305E0400001221A401043A2
:1026A80001395B08002BF7D18840FDF74DFFFF2368
:1026B80018408000F03B83409C431F2110200823D2
:1026C80005E0400001221A40104301395B08002B45
:1026D800F7D18840FDF738FFFF2318408000F43B0E
:1026E80083401C432E4B1C629C681F21102008232A
:1026F80005E0400001221A40104301395B08002B15
:10270800F7D18840FDF720FFFF2318404000FC3B2D
:1027180083409C431F211020082305E0400001222C
:102728001A40104301395B08002BF7D18840FDF7A8
:102738000BFFFF2318404000FD3B83401C43184B10
:102748009C605A6810218A435A60DC680F31102057
:10275800082305E0400001221A40104301395B08B4
:10276800002BF7D18840FDF7EFFEFF23184040000B
:10277800FC3B83409C43082300E05B08002BFCD112
:10278800074BDC60074B80229200DA608022D2007F
:10279800DA6002B010BDC046003802400034004084
:1027A8000004024000E100E000BEFEE7024A1368B0
:1027B800013313607047C04618420020014B18606F
:1027C8007047C046143E002010B50E4B1B68DB074F
:1027D80003D50C4B5B681B04F7D10B4A9368802424
:1027E800A343936003E002789A62013021004C1EF3
:1027F800002905D0054B1B68DA691206FAD5F2E7FD
:1028080010BDC0465860024000480040143E0020F9
:1028180010B50400FDF710FD01002000FFF7D4FFFC
:1028280010BD092802D83030C0B270475730C0B246
:10283800FBE730B583B0040001AB00225A7014E006
:1028480020780009FFF7EDFF6B46187101A8FFF724
:10285800DFFF23780F201840FFF7E3FF6B4618715E
:1028680001A8FFF7D5FF013429004D1E0029E7D143
:1028780003B030BD70B582B00400C84B196B80201E
:102888008003014319631A6B02400192019A1A6C82
:102898008021C9020A431A641B6C0B400093009BF9
:1028A800BF4B1A68BF491140BF4A0A431A60BF4864
:1028B800BF491A68C0231340402B27D0B84B9860F3
:1028C800D960B74B5A68120C12048421C9000A4314
:1028D8005A601A68B74E3240802109050A431A60C7
:1028E8001A68012002431A60B34B1868AD4D0540C1
:1028F800B248284318601A68324011431960B04B37
:102908001D681F2180204000802309E0A44BD86067
:102918009960D6E7400001221A40104301395B084C
:10292800002BF7D18840FDF70FFEFF231840400029
:10293800FC3B83409D431F2180204000802305E00D
:10294800400001221A40104301395B08002BF7D1DF
:102958008840FDF7F9FDFF2318404000FD3B834008
:102968001D43974A1560536A0F218B4308390B435F
:1029780053629568183180204000802305E04000AC
:1029880001221A40104301395B08002BF7D1884017
:10299800FDF7DAFDFF2318404000FC3B83409D43D0
:1029A8001F2180204000802305E0400001221A40BA
:1029B800104301395B08002BF7D18840FDF7C4FDAF
:1029C800FF2318404000FD3B83401D437C4B9D6026
:1029D8005A687C490A405A60DD682131FF318020FD
:1029E8004000802305E0400001221A4010430139CD
:1029F8005B08002BF7D18840FDF7A6FDFF231840A0
:102A08004000FC3B83409D431F21802040008023E1
:102A180005E0400001221A40104301395B08002BF1
:102A2800F7D18840FDF790FDFF2318404000FE3B9A
:102A380083401D43624BDD601D681F21802080009C
:102A480080235B0005E0400001221A401043013951
:102A58005B08002BF7D18840FDF776FDFF2318406F
:102A68004000FC3B83409D431F2180208000802341
:102A78005B0005E0400001221A40104301395B0861
:102A8800002BF7D18840FDF75FFDFF231840400079
:102A9800FD3B83401D434A4B1D605D6A1F21022098
:102AA800012305E0400001221A40104301395B0868
:102AB800002BF7D18840FDF747FDFF231840800021
:102AC800F03B83409D431F210220012305E0400085
:102AD80001221A40104301395B08002BF7D18840C6
:102AE800FDF732FDFF2318408000F83B83401D436B
:102AF800334B5D629D681F218020800080235B002E
:102B080005E0400001221A40104301395B08002B00
:102B1800F7D18840FDF718FDFF2318404000FC3B23
:102B280083409D431F218020800080235B0005E0B7
:102B3800400001221A40104301395B08002BF7D1ED
:102B48008840FDF701FDFF2318404000FD3B83400E
:102B58001D431B4B9D605A681B490A405A60DD683B
:102B68001F218020800080235B0005E040000122B7
:102B78001A40104301395B08002BF7D18840FDF754
:102B8800E3FCFF2318404000FC3B83409D431F218A
:102B98008020800080235B001EE0C0460038024091
:102BA800286002401F80FCFF000502002448004006
:102BB800F4390020FFFFFFE15860024040040200A2
:102BC800000C0240FFFEFFFFFFFDFFFF4000012257
:102BD8001A40104301395B08002BF7D18840FDF7F4
:102BE800B3FCFF2303405B00012632009A401543E3
:102BF8001A4BDD601A4990228B58302083438B5042
:102C0800184D2B68843A934313432B602B68164A5C
:102C180013402B606B68154A13406B60144B18689F
:102C28006308C0182100FDF719FB0004000CE860D8
:102C38002B681E432E600B4BDB699B02FBD5094BAF
:102C4800DB695B02F7D5074B9A6840210A439A6013
:102C58009A6840318A439A6002B070BD000C024005
:102C68000038024000480040FFE9FFEFFFCFFFFFB8
:102C78000800002070B584B00400D64B196B802082
:102C8800C003014319631A6B02400392039A596CFB
:102C98001022114359645B6C1A400292029BCE4A7F
:102CA800136801210B431360CC4B1A688A431A60DE
:102CB8001A68CB491140CB4A0A431A60CA48CB4923
:102CC8001A68C0231340402B1BD0C44B9860D960AE
:102CD800C24B5A68120C1204802109010A435A6037
:102CE8001A68C3491140802212050A431A601A68FB
:102CF80001210A431A60BF4B1D681E314020202362
:102D080009E0B64BD8609960E2E7400001221A401A
:102D1800104301395B08002BF7D18840FDF714FCFC
:102D2800FF2318404000FC3B83409D431F21402067
:102D3800202305E0400001221A40104301395B08B6
:102D4800002BF7D18840FDF7FFFBFF231840400018
:102D5800FD3B83401D43A74B1D601D6A1F2140207A
:102D6800202305E0400001221A40104301395B0886
:102D7800002BF7D18840FDF7E7FBFF2318408000C0
:102D8800F03B83409D431F214020202305E0400065
:102D980001221A40104301395B08002BF7D1884003
:102DA800FDF7D2FBFF2318408000F83B83401D430A
:102DB800904B1D629D681F214020202305E04000A4
:102DC80001221A40104301395B08002BF7D18840D3
:102DD800FDF7BAFBFF2318404000FC3B83409D43AE
:102DE8001F214020202305E0400001221A40104303
:102DF80001395B08002BF7D18840FDF7A5FBFF23BD
:102E080018404000FD3B83401D437A4B9D605A6843
:102E180040218A435A60DD6821394020202305E09B
:102E2800400001221A40104301395B08002BF7D1FA
:102E38008840FDF789FBFF2318404000FC3B834096
:102E48009D431F214020202305E0400001221A4015
:102E5800104301395B08002BF7D18840FDF774FB5C
:102E6800FF2318404000FE3B83401D43614BDD605B
:102E78001D681F21802000028023DB0105E040003F
:102E880001221A40104301395B08002BF7D1884012
:102E9800FDF75AFBFF2318404000FC3B83409D434D
:102EA8001F21802000028023DB0105E04000012271
:102EB8001A40104301395B08002BF7D18840FDF711
:102EC80043FBFF2318404000FD3B83401D43494B13
:102ED8001D605D6A1F218020402305E0400001221B
:102EE8001A40104301395B08002BF7D18840FDF7E1
:102EF8002BFBFF2318408000F03B83409D431F219C
:102F08008020402305E0400001221A401043013987
:102F18005B08002BF7D18840FDF716FBFF2318400C
:102F28008000FB3B83401D43324B5D629D681F213F
:102F3800802000028023DB0105E0400001221A40C6
:102F4800104301395B08002BF7D18840FDF7FCFAE4
:102F5800FF2318404000FC3B83409D431F218020F5
:102F680000028023DB0105E0400001221A401043E3
:102F780001395B08002BF7D18840FDF7E5FAFF23FC
:102F880018404000FD3B83401D431A4B9D605A6822
:102F980019490A405A60DD681F21802000028023F9
:102FA800DB0105E0400001221A40104301395B08AB
:102FB800002BF7D18840FDF7C7FAFF2318404000DF
:102FC800FC3B83409D431F21802000028023DB01BE
:102FD8001AE0C04600380240001001404064024038
:102FE8001F80FCFF0005020024100140F43100207E
:102FF800FFFFFFE100040240FF7FFFFF40000122C6
:103008001A40104301395B08002BF7D18840FDF7BF
:103018009BFAFF2303405B00012632009A401543C8
:103028001E4BDD601E4B596C102211435964596CBC
:103038000A400192019A90215A58032082435A501B
:10304800184D2B680C22934313432B602B68164AA8
:1030580013402B606B68154A13406B60144B18685B
:103068006308C0182100FDF7F9F80004000CE860B7
:103078002B681E432E600B4BDB699B02FBD5094B6B
:10308800DB695B02F7D5074B9A6840210A439A60CF
:103098009A6840318A439A6004B070BD00040240C7
:1030A8000038024000100140FFE9FFEFFFCFFFFFAB
:1030B8000800002030B585B00400CE4B196B802085
:1030C800C003014319631A6B02400392039A596CB7
:1030D8002022114359645B6C1A400292029BC64B32
:1030E8001A6801218A431A601A68C4491140C44AFF
:1030F8000A431A60C348C4491A68C0231340402BC6
:103108001BD0BD4B9860D960BB4B5A68120C120497
:10311800802109010A435A601A68BC491140A0225B
:1031280012050A431A601A6801210A431A60B84B4B
:103138001D681E314020202309E0AF4BD8609960FC
:10314800E2E7400001221A40104301395B08002BD6
:10315800F7D18840FDF7F8F9FF2318404000FC3B01
:1031680083409D431F214020202305E04000012289
:103178001A40104301395B08002BF7D18840FDF74E
:10318800E3F9FF2318404000FD3B83401D43A04B5B
:103198001D601D6A1F214020202305E040000122F8
:1031A8001A40104301395B08002BF7D18840FDF71E
:1031B800CBF9FF2318408000F03B83409D431F213B
:1031C8004020202305E0400001221A401043013925
:1031D8005B08002BF7D18840FDF7B6F9FF231840AC
:1031E8008000F73B83401D43894B1D629D681F216A
:1031F8004020202305E0400001221A4010430139F5
:103208005B08002BF7D18840FDF79EF9FF23184093
:103218004000FC3B83409D431F214020202305E0C4
:10322800400001221A40104301395B08002BF7D1F6
:103238008840FDF789F9FF2318404000FD3B834093
:103248001D43734B9D605A6840218A435A60DD686C
:1032580021394020202305E0400001221A40104374
:1032680001395B08002BF7D18840FDF76DF9FF2382
:1032780018404000FC3B83409D431F2140202023F1
:1032880005E0400001221A40104301395B08002B79
:10329800F7D18840FDF758F9FF2318404000FD3B5F
:1032A80083401D435A4BDD601D681F218020402349
:1032B80005E0400001221A40104301395B08002B49
:1032C800F7D18840FDF740F9FF2318404000FC3B48
:1032D80083409D431F218020402305E040000122B8
:1032E8001A40104301395B08002BF7D18840FDF7DD
:1032F8002BF9FF2318404000FD3B83401D43444BFE
:103308001D601D6A1F218020402305E04000012226
:103318001A40104301395B08002BF7D18840FDF7AC
:1033280013F9FF2318408000F03B83409D431F2181
:103338008020402305E0400001221A401043013953
:103348005B08002BF7D18840FDF7FEF8FF231840F3
:103358008000F73B83401D432D4B1D629D681F2154
:103368008020402305E0400001221A401043013923
:103378005B08002BF7D18840FDF7E6F8FF231840DB
:103388004000FC3B83409D431F218020402305E0F3
:10339800400001221A40104301395B08002BF7D185
:1033A8008840FDF7D1F8FF2318404000FD3B8340DB
:1033B8001D43174B9D605A6880218A435A60DD6817
:1033C80061398020402305E0400001221A40104363
:1033D80001395B08002BF7D18840FDF7B5F8FF23CA
:1033E80018404000FC3B83409D431F218020402320
:1033F80016E0C04600380240286402401F80FCFFE7
:103408000005020024140140F4290020FFFFFFE119
:1034180000080240400001221A40104301395B08AD
:10342800002BF7D18840FDF78FF8FF2318404000A4
:10343800FD3B83401D43264BDD60264B596C202203
:1034480011435964596C0A400192019A90215A58C3
:10345800214802405A50214D2B680C2293431343B4
:103468002B606B681E4A1A4080235B0213436B6013
:103478006B681C4A1A4080239B0213436B602B68BD
:10348800194A13402B606B68184A13406B60184B3D
:1034980018686308C0182100FCF7E0FE0004000C5F
:1034A800E8602B68012213432B600C4BDB699B02FD
:1034B800FBD50A4BDB695B02F7D5084B9A684021BC
:1034C8000A439A609A6840318A439A6005B030BDD1
:1034D8000008024000380240FFF3FFFF00140140DB
:1034E800FFFFFEFFFFFFFDFFFFE9FFEFFFCFFFFF3D
:1034F80008000020F0B5C64600B51600474B9C46AC
:103508006044850201248C402B6898466708200097
:103518003B001F2105E0400001221A4010430139F9
:103528005B08002BF7D18840FDF70EF8FF23184001
:103538004000FC3B834042469A43904620001F22AD
:1035480005E0400001233B401843013A7F08002F63
:10355800F7D19040FCF7F8FFFF2318404000FE3BEE
:10356800834042461A432A60AB68984667082000A1
:103578003B001F2105E0400001221A401043013999
:103588005B08002BF7D18840FCF7DEFFFF231840CB
:103598004000FC3B834042469A43904620001F224D
:1035A80005E0400001233B401843013A7F08002F03
:1035B800F7D19040FCF7C8FFFF2318404000FD3BBF
:1035C800834042461A43AA60EB6898466708200081
:1035D8003B001F2105E0400001221A401043013939
:1035E8005B08002BF7D18840FCF7AEFFFF2318409B
:1035F8004000FC3B834042469A43130000E07F08AA
:10360800002FFCD1EB60002E05D000239C40AC615C
:1036180080BCB846F0BD1023F8E7C0468000100013
:10362800014B18687047C0461842002010B5FDF7D6
:103638005DFCFCE77047000082B0084B1B680193F3
:10364800019B431C00D00130002805D0034B1B68A8
:10365800DB03F9D50138F7E702B0704710E000E066
:10366800014B18607047C04608000020F8B50400F8
:103678000E0015001F001C22002100F01EFA2A006F
:103688000021300000F019FA66606561A760F8BD96
:1036980070B50400080025696169FCF765FE2161C1
:1036A800A94200D170BDFFF7BBFF2060FAE710B553
:1036B800040042690021406800F0FFF900232360FC
:1036C800E3602361A36110BD0369C360704770B5EF
:1036D8000400C068A669F3070ED42569854223D083
:1036E80063681B5C0A2B17D001306169FCF73CFE4C
:1036F80008008D42F4D117E02369834214D063682F
:103708001B5C0A2B10D1093B1E43A661013061697D
:10371800FCF72AFEE16007E0093B1E43A661013081
:103728006169FCF721FEE16070BDF0B5D6464F46F1
:1037380080B583B005000C0091460193C0684844E9
:103748006969FCF711FE0F00A868FCF775FD2B6985
:10375800BB4252D06B68DB19236004002600013C91
:10376800002E2CD06B689A46BA44DA5DAB681B5DB4
:103778009A42F3D16C69E019EB68C01A4B46C01A3B
:103788002100FCF7F1FD0E00019B002B0DD0781CE9
:103798002100FCF7E9FDE9600123AA699A431300B7
:1037A800AA61524612780A2A05D0300003B0C0BC7C
:1037B800BA46B146F0BD093A1343AB61F5E70137A4
:1037C8006B69BB4208D0EA68BA42EED02A69BA42AD
:1037D800EBD0BB42C1D8E8E7EB68FE1A4B46F61AB5
:1037E800019B002B05D00023EB600133AA699A43A3
:1037F800AA61802109060E43D7E70026D5E710B550
:1038080001230022FFF791FF10BD10B5416903693C
:10381800CB18C068181AFCF7A7FD080010BDF8B54A
:1038280004000F001500FFF7F0FFA84200D80500BC
:10383800E16863695E1AB54200D22E0063689C464F
:1038480061443200380000F025F9E368981961698D
:10385800FCF78AFDE160B819B5420FD02669B54278
:1038680000D22E0063689C466144320000F012F9D1
:10387800E36898196169FCF777FDE1602800F8BDF5
:1038880070B50400FFF7C1FFE168002504E0481C9B
:103898006169FCF769FD3000461E002805D0013536
:1038A80063685B5C0A2BF2D1280070BDF0B5C64690
:1038B80000B505000F009046FFF7A7FF0400E96870
:1038C800002308E05C1C0A2A0FD0481C6969FCF731
:1038D8004BFD23003400661E002C0BD06A68525C36
:1038E8004345EFD23A700137ECE7A04502D90022F0
:1038F8003A709C1C200080BCB846F0BD30B583B03F
:1039080005000023002201A9FFF70FFF002800D0BF
:1039180001DB03B030BD440064080023220001A984
:103928002800FFF702FF002801DB2018F1E700203C
:10393800EFE770B506000D001400FFF7DFFF002861
:1039480000D170BD29003000FFF759FF2060002327
:103958006B6063602368002B03DB20686368C01812
:10396800EFE75B005B082360291D3000FFF747FF86
:103978006060F2E770B584B00C006A4602A9FFF7F0
:10398800D8FF031E52D0E1B200250020002213E028
:10399800019B002B4ED0013B0193039B5E1C0396B9
:1039A8001B7815E0002A1BD00A291DD0102922D027
:1039B8004843C018013223005C1E002B32D0009B04
:1039C800002BE5D0013B0093029B5E1C02961B78FE
:1039D8000028E7D1012AE5D1782BE3D11021E9E7C6
:1039E8002D2BE1D10125E5E7303BDBB2092BDFD9EF
:1039F800012040421CE01E00303EF6B2092E0FD9CD
:103A08001E00613EF6B2052E02D8573BDBB2CFE767
:103A18001E00413EF6B2052E0FD8373BDBB2C7E792
:103A28003300C5E7002D03D0404201E001204042A9
:103A380004B070BD01204042FAE701204042F7E798
:103A480010B50A21FFF796FF10BD000070B50026DB
:103A58000C4D0D4C641BA410A64209D1002600F0A1
:103A6800B5FC0A4D0A4C641BA410A64205D170BDD2
:103A7800B300EB5898470136EEE7B300EB58984788
:103A88000136F2E7C4460008C4460008C4460008E8
:103A9800C846000810B5884202D98B18984203D34B
:103AA800002307E08B5C8354013AFBD210BDCC5C49
:103AB800C45401339A42FAD1F8E7030082189342BA
:103AC80000D1704719700133F9E700000CB430B524
:103AD800174B0C001D689DB0002908DA8B230120C4
:103AE8002B6040421DB030BC08BC02B0184782238E
:103AF8006A469B009382002302900690994200D068
:103B08004B1E0493079301236A465B42D382280025
:103B180021AB209A02A9019300F084F8431C01DA32
:103B28008B232B60002CDDD00023029A1370D9E779
:103B38000C0000200A7830B5002A0CD130BD9A421A
:103B480008D10123CC5C002CF8D0C55CA54201D17A
:103B58000133F7E701300378002BF0D11800EDE7C7
:103B6800F0B58E6885B007000C00039201939E4261
:103B78003CD890238A89DB001A4234D0096923682B
:103B880060695B1A029303234343DD0FED18019B21
:103B9800029801331B186D10AB4200D91D00530564
:103BA80032D52900380000F03FFB061E09D10C234E
:103BB8003B6040230120A28940421343A38105B002
:103BC800F0BD029A216900F0BAFAA389144A1A4092
:103BD80080231343A381029B2661F6182660656142
:103BE800019EED1AA560019B9E4200D9019E3200FC
:103BF80003992068FFF74EFFA36800209B1BA36072
:103C080023689E192660DAE72A00380000F082FB54
:103C1800061EE0D13800216900F09AFAC7E7C046CD
:103C28007FFBFFFFF0B5A1B003901D008B890F004B
:103C380016001B0611D50B69002B0ED1402100F090
:103C4800F3FA38603861002805D10C23039A01384B
:103C5800136021B0F0BD40237B61002308AC636191
:103C6800203363761033A376079535002B78002B25
:103C780001D0252B47D1AB1B0593B5420CD03200A0
:103C880039000398FFF76CFF431C00D1AEE062696E
:103C9800059B9446634463612B78002B00D1A5E013
:103CA800012200235242626004A9543252186E1C49
:103CB8002360E360A3601370A3650522317854483C
:103CC80000F032FA751C00281FD12268D30604D5EB
:103CD800532304A95B1820211970130704D5532313
:103CE80004A95B182B21197033782A2B16D03500BC
:103CF80000210A20E3682A786E1C303A092A4ED936
:103D0800002911D117E00135B0E7414B2268C01AEC
:103D18000123834013432E002360CEE7079B191D20
:103D28001B680791002B01DB0B9304E05B42E36007
:103D38000223134323602B782E2B0AD16B782A2B6E
:103D480035D1079B02351A1D1B680792002B2BDB08
:103D58000993304E03223000297800F0E5F9002855
:103D680006D04023801B834022680135134323601B
:103D78002978062228486E1C217600F0D5F90028FB
:103D88003CD0264B002B25D10722079B07339343B2
:103D9800083307936369049A9B18636165E7434393
:103DA800350001219B18A6E701235B42D0E70023D9
:103DB8000A201A000135636029786E1C30390929F8
:103DC80003D9002BC5D00992C3E74243350001232C
:103DD8005218F1E707AB00933A002100104B039803
:103DE800AFF300800490049B0133D3D1BB890D98B5
:103DF8005B0600D42DE7012040422AE707AB009379
:103E08003A002100064B039800F07CF8EAE7C04628
:103E180091460008974600089B46000800000000ED
:103E2800693B0008F7B5150001938A680B690C0017
:103E38000090934200DA130022002B60433212787C
:103E4800002A01D001332B6023689B0602D52B681A
:103E580002332B602268062317001F401A4227D01E
:103E6800230043331B785A1E93412268920630D4AC
:103E7800220001990098089E4332B047431C25D080
:103E8800062320682A68E16800250340042B03D133
:103E98008D1AEB43DB171D40A3682269934201DDAD
:103EA8009B1AED180027BD4220D1002010E00137F1
:103EB800E3682A689B1ABB42D2DD220001230199DC
:103EC8000098089E1932B047431CF0D101204042A7
:103ED800FEBD3020E1184331087021005A1C4531DD
:103EE8000978A218433202331170C1E72200012376
:103EF80001990098089E1A32B047431CE6D0013752
:103F0800D1E70000F0B58BB006920A004332079360
:103F1800059004920A7E0C00109B782A07D8622A22
:103F280009D8002A00D1C1E0582A00D18CE0260027
:103F38004236327022E0100063381528F7D8FCF7B3
:103F480083F916001F00F6FFF6FFF6FFF6FF1F00C5
:103F5800F6FFF6FFF6FFF6FFA80036009A00F6FF18
:103F6800F6FFB900F6FF3600F6FFF6FF9E002600C2
:103F78001A684236111D1960136833700123A7E0CF
:103F8800086819680A1D05060BD50D681A60002D0A
:103F980003DA2D23049A6D421370614B0A270393A9
:103FA8001BE00D681A604106F1D52DB2EFE70D68E8
:103FB8001968081D18602E0601D50D6803E06D0606
:103FC800FBD50D68ADB2564B082703936F2A00D076
:103FD80002372300002243331A706368A360002B62
:103FE80003DB0422216891432160002D02D1049E45
:103FF800002B0CD0049E28003900FCF7B5F9039B70
:10400800013E5B5C33702B0005009F42F3D9082FFB
:1040180009D12368DB0706D563682269934202DC6D
:104028003023013E3370049B9B1B2361079B2100B7
:1040380000930598069B09AAFFF7F4FE431C4CD190
:10404800012040420BB0F0BD45310A70344A03925A
:104058001A68216820CA1A60080616D5CB0702D547
:104068002023194321601027002DB2D12023226874
:104078009A432260ADE7202209680A4322602200A1
:10408800782145321170274AE1E74806E6D5ADB2F6
:10409800E4E71A680D68101D4969186013682E0650
:1040A80001D5196002E06D06FBD519800023049E36
:1040B8002361BBE71A68111D1960166800213000DA
:1040C800626800F031F8002801D0801B60606368E6
:1040D80023610023049A1370A8E723693200069924
:1040E8000598079DA847431CAAD023689B0715D4A9
:1040F800099BE0689842A5DA1800A3E7220001238B
:1041080006990598079E1932B047431C98D0013587
:10411800E368099A9B1AAB42F0DCE9E70025F7E768
:10412800A2460008B3460008C9B28218904201D1DD
:104138000020704703788B42FBD00130F6E700235C
:1041480010B59A4200D110BDCC5CC4540133F8E7D5
:1041580070B50500002910D00C1F2368002B00DA69
:10416800E418280000F018F91D4A1368002B05D13F
:1041780063601460280000F017F970BDA34208D9E5
:10418800216860188342F3D118685B684118216080
:10419800EEE71A005B68002B01D0A342F9D9116839
:1041A8005018A0420BD1206809185018116083429A
:1041B800E0D118685B68411811605360DAE7A042E3
:1041C80002D90C232B60D5E721686018834203D1FC
:1041D80018685B684118216063605460CAE7C0468C
:1041E8001C42002070B50F4E0D00316804000029F4
:1041F80002D100F0BFF830602900200000F0BAF8C2
:10420800431C0AD00323C51C9D43A84207D0291A82
:10421800200000F0AFF8431C01D101256D422800B1
:1042280070BDC04620420020F7B50322CB1C934343
:10423800083306001F000C2B32D20C27B94231D8A4
:10424800300000F0A9F8324D2B681C00002C2ED14C
:1042580039003000FFF7C6FF0400431C1ED12C684C
:104268002500002D4AD123682900E3183000019366
:1042780000F080F8019B834243D123680337FF1A7B
:1042880003239F4308370C2F00D20C273900300036
:10429800FFF7A8FF431C34D02368DF19276013E019
:1042A800002BCBDA0C23002533602800FEBD2268E2
:1042B800D11B20D40B2917D9E2192760A34211D1A9
:1042C8002A606368116053603000250000F06CF8C4
:1042D80007220B35231D9543EA1A9D42E5D05B1B47
:1042E800A350E2E75A60ECE76268A34201D12A6072
:1042F800EAE75A60E8E723006468A7E72C006D68DE
:10430800AFE70C233000336000F04EF8CDE7C0462D
:104318001C420020F7B507000E001400002905D143
:104328001100FFF781FF05002800FEBD002A03D118
:10433800FFF70EFF2500F7E700F03EF801908442F2
:1043480003D835004308A342EED321003800FFF715
:104358006BFF051EE8D0019B22009C4200D91A0081
:1043680031002800FFF7EBFE31003800FFF7F0FEC0
:10437800DAE70000002370B5064D040008002B6042
:10438800FCF700F9431C03D12B68002B00D02360F5
:1043980070BDC0462442002010B5024800F014F851
:1043A80010BDC0462842002010B5024800F00DF8A4
:1043B80010BDC046284200200B1F1B68181F002B89
:1043C80001DA0B58C018704770477047F8B5C046F7
:1043D800F8BC08BC9E467047F8B5C046F8BC08BC97
:0443E8009E46704736
:1043EC0001000100000000000000000020307800F7
:1043FC002065200020732000205520002020202044
:10440C003E3E3E20696E76207C200000202020203D
:10441C003E3E3E20626D73207C200000200A00008E
:10442C0052657365740A0000494E56206F72204322
:10443C00414E2061637469766974792074696D6585
:10444C006F75740A00000000696E76203E3E3E20B7
:10445C00202020207C200000626D732063616E2080
:10446C0074696D656F75740A00000000626D7320CD
:10447C003E3E3E20202020207C200000666F726390
:10448C0065206261747420736F630A0073746172C7
:10449C00742062617474647261696E206669780A52
:1044AC0000000000636F6E74696E75652062617444
:1044BC0074647261696E206669780A00656E6420A6
:1044CC0062617474647261696E206669780A0000B6
:1044DC00666F7263652062617474206368617267D1
:1044EC00650A0000736F63203C2031300A00000025
:1044FC00656E642062617474647261696E206669B1
:10450C00782069646C650A0055415254424D5355EC
:10451C00534552203E3E200055415254424D5320AB
:10452C003E3E207077720A007077720A000000001D
:10453C0055415254424D53203C3C20002020766F74
:10454C006C746167653A20256C640A20206375726F
:10455C0072656E743A20256C640A2020776174743D
:10456C006167653A20256C640A0000002424000071
:10457C0070763120737769746368206F6E0A00005F
:10458C0070763220737769746368206F6E0A00004E
:10459C0055415254203E3E200000000055415254DB
:1045AC002072656164696E67206572726F7220009B
:1045BC0055415254203C3C2000000000636175734F
:1045CC00652037310A000000636175736520373848
:1045DC000A00000070763120737769746368206F6D
:1045EC0066660A0070763220737769746368206F90
:1045FC0066660A00636175736520330A000000006B
:10460C00636175736520380A00000000636175737F
:10461C006520360A00000000636175736520370A57
:10462C0000000000554152542054494D454F5554FB
:10463C0000000000E413000870130008EE110008DD
:10464C00CC110008EC130008CC110008FE13000874
:10465C0014140008AA5509092400003501000000B3
:10466C00AA550701858C0100AA550701131A0100F0
:10467C00AA5509091C03003001000000AA550909BC
:10468C001C00002D01232D302B2000686C4C006584
:10469C006667454647003031323334353637383962
:1046AC004142434445460030313233343536373895
:0846BC00396162636465660068
:0446C40021020008C7
:0446C800F9010008EC
:1046CC00FFFFFFFFFFFFFFFF0024F400100000209E
:1046DC0000000000000000000000000000000000CE
:1046EC0000000000000000000000000000000000BE
:1046FC0000000000000000000000000000000000AE
:10470C00000000000000000000000000000000009D
:10471C00000000000000000000000000000000008D
:10472C00000000000000000000000000000000007D
:0400000508001CE5EE
:00000001FF
